{
  "address": "0x93297244d5133bb089e2B8b978B98Ec15140fce8",
  "abi": [
    {
      "inputs": [
        {
          "internalType": "string",
          "name": "_name",
          "type": "string"
        },
        {
          "internalType": "string",
          "name": "_symbol",
          "type": "string"
        },
        {
          "internalType": "contract ERC20",
          "name": "_collateralToken",
          "type": "address"
        },
        {
          "internalType": "contract ERC20",
          "name": "_debtToken",
          "type": "address"
        },
        {
          "internalType": "contract IPoolAddressesProvider",
          "name": "_lendingPoolAddressesProvider",
          "type": "address"
        },
        {
          "internalType": "uint32",
          "name": "_targetLeverageBps",
          "type": "uint32"
        },
        {
          "internalType": "uint32",
          "name": "_lowerBoundTargetLeverageBps",
          "type": "uint32"
        },
        {
          "internalType": "uint32",
          "name": "_upperBoundTargetLeverageBps",
          "type": "uint32"
        },
        {
          "internalType": "uint256",
          "name": "_maxSubsidyBps",
          "type": "uint256"
        },
        {
          "internalType": "uint256",
          "name": "_minDeviationBps",
          "type": "uint256"
        },
        {
          "internalType": "uint256",
          "name": "_withdrawalFeeBps",
          "type": "uint256"
        },
        {
          "internalType": "contract IRewardsController",
          "name": "_rewardsController",
          "type": "address"
        },
        {
          "internalType": "address",
          "name": "_dLendAssetToClaimFor",
          "type": "address"
        },
        {
          "internalType": "address",
          "name": "_targetStaticATokenWrapper",
          "type": "address"
        },
        {
          "internalType": "address",
          "name": "_treasury",
          "type": "address"
        },
        {
          "internalType": "uint256",
          "name": "_maxTreasuryFeeBps",
          "type": "uint256"
        },
        {
          "internalType": "uint256",
          "name": "_initialTreasuryFeeBps",
          "type": "uint256"
        },
        {
          "internalType": "uint256",
          "name": "_initialExchangeThreshold",
          "type": "uint256"
        }
      ],
      "stateMutability": "nonpayable",
      "type": "constructor"
    },
    {
      "inputs": [],
      "name": "AccessControlBadConfirmation",
      "type": "error"
    },
    {
      "inputs": [
        {
          "internalType": "address",
          "name": "account",
          "type": "address"
        },
        {
          "internalType": "bytes32",
          "name": "neededRole",
          "type": "bytes32"
        }
      ],
      "name": "AccessControlUnauthorizedAccount",
      "type": "error"
    },
    {
      "inputs": [
        {
          "internalType": "address",
          "name": "asset",
          "type": "address"
        }
      ],
      "name": "AssetPriceIsZero",
      "type": "error"
    },
    {
      "inputs": [
        {
          "internalType": "uint256",
          "name": "totalCollateralBase",
          "type": "uint256"
        },
        {
          "internalType": "uint256",
          "name": "totalDebtBase",
          "type": "uint256"
        }
      ],
      "name": "CollateralLessThanDebt",
      "type": "error"
    },
    {
      "inputs": [
        {
          "internalType": "uint256",
          "name": "newLeverageBps",
          "type": "uint256"
        },
        {
          "internalType": "uint256",
          "name": "targetLeverageBps",
          "type": "uint256"
        },
        {
          "internalType": "uint256",
          "name": "currentLeverageBps",
          "type": "uint256"
        }
      ],
      "name": "DecreaseLeverageOutOfRange",
      "type": "error"
    },
    {
      "inputs": [
        {
          "internalType": "uint256",
          "name": "receivedCollateralTokenAmount",
          "type": "uint256"
        },
        {
          "internalType": "uint256",
          "name": "minReceivedCollateralTokenAmount",
          "type": "uint256"
        }
      ],
      "name": "DecreaseLeverageReceiveLessThanMinAmount",
      "type": "error"
    },
    {
      "inputs": [
        {
          "internalType": "address",
          "name": "spender",
          "type": "address"
        },
        {
          "internalType": "uint256",
          "name": "allowance",
          "type": "uint256"
        },
        {
          "internalType": "uint256",
          "name": "needed",
          "type": "uint256"
        }
      ],
      "name": "ERC20InsufficientAllowance",
      "type": "error"
    },
    {
      "inputs": [
        {
          "internalType": "address",
          "name": "sender",
          "type": "address"
        },
        {
          "internalType": "uint256",
          "name": "balance",
          "type": "uint256"
        },
        {
          "internalType": "uint256",
          "name": "needed",
          "type": "uint256"
        }
      ],
      "name": "ERC20InsufficientBalance",
      "type": "error"
    },
    {
      "inputs": [
        {
          "internalType": "address",
          "name": "approver",
          "type": "address"
        }
      ],
      "name": "ERC20InvalidApprover",
      "type": "error"
    },
    {
      "inputs": [
        {
          "internalType": "address",
          "name": "receiver",
          "type": "address"
        }
      ],
      "name": "ERC20InvalidReceiver",
      "type": "error"
    },
    {
      "inputs": [
        {
          "internalType": "address",
          "name": "sender",
          "type": "address"
        }
      ],
      "name": "ERC20InvalidSender",
      "type": "error"
    },
    {
      "inputs": [
        {
          "internalType": "address",
          "name": "spender",
          "type": "address"
        }
      ],
      "name": "ERC20InvalidSpender",
      "type": "error"
    },
    {
      "inputs": [
        {
          "internalType": "address",
          "name": "receiver",
          "type": "address"
        },
        {
          "internalType": "uint256",
          "name": "assets",
          "type": "uint256"
        },
        {
          "internalType": "uint256",
          "name": "max",
          "type": "uint256"
        }
      ],
      "name": "ERC4626ExceededMaxDeposit",
      "type": "error"
    },
    {
      "inputs": [
        {
          "internalType": "address",
          "name": "receiver",
          "type": "address"
        },
        {
          "internalType": "uint256",
          "name": "shares",
          "type": "uint256"
        },
        {
          "internalType": "uint256",
          "name": "max",
          "type": "uint256"
        }
      ],
      "name": "ERC4626ExceededMaxMint",
      "type": "error"
    },
    {
      "inputs": [
        {
          "internalType": "address",
          "name": "owner",
          "type": "address"
        },
        {
          "internalType": "uint256",
          "name": "shares",
          "type": "uint256"
        },
        {
          "internalType": "uint256",
          "name": "max",
          "type": "uint256"
        }
      ],
      "name": "ERC4626ExceededMaxRedeem",
      "type": "error"
    },
    {
      "inputs": [
        {
          "internalType": "address",
          "name": "owner",
          "type": "address"
        },
        {
          "internalType": "uint256",
          "name": "assets",
          "type": "uint256"
        },
        {
          "internalType": "uint256",
          "name": "max",
          "type": "uint256"
        }
      ],
      "name": "ERC4626ExceededMaxWithdraw",
      "type": "error"
    },
    {
      "inputs": [
        {
          "internalType": "uint256",
          "name": "amount",
          "type": "uint256"
        },
        {
          "internalType": "uint256",
          "name": "threshold",
          "type": "uint256"
        }
      ],
      "name": "ExchangeAmountTooLow",
      "type": "error"
    },
    {
      "inputs": [
        {
          "internalType": "uint256",
          "name": "feeBps",
          "type": "uint256"
        },
        {
          "internalType": "uint256",
          "name": "maxFeeBps",
          "type": "uint256"
        }
      ],
      "name": "FeeTooHigh",
      "type": "error"
    },
    {
      "inputs": [
        {
          "internalType": "uint256",
          "name": "newLeverageBps",
          "type": "uint256"
        },
        {
          "internalType": "uint256",
          "name": "targetLeverageBps",
          "type": "uint256"
        },
        {
          "internalType": "uint256",
          "name": "currentLeverageBps",
          "type": "uint256"
        }
      ],
      "name": "IncreaseLeverageOutOfRange",
      "type": "error"
    },
    {
      "inputs": [
        {
          "internalType": "uint256",
          "name": "receivedDebtTokenAmount",
          "type": "uint256"
        },
        {
          "internalType": "uint256",
          "name": "minReceivedDebtTokenAmount",
          "type": "uint256"
        }
      ],
      "name": "IncreaseLeverageReceiveLessThanMinAmount",
      "type": "error"
    },
    {
      "inputs": [],
      "name": "InputCollateralTokenAmountIsZero",
      "type": "error"
    },
    {
      "inputs": [],
      "name": "InputDebtTokenAmountIsZero",
      "type": "error"
    },
    {
      "inputs": [
        {
          "internalType": "address",
          "name": "owner",
          "type": "address"
        },
        {
          "internalType": "address",
          "name": "spender",
          "type": "address"
        },
        {
          "internalType": "address",
          "name": "collateralAsset",
          "type": "address"
        },
        {
          "internalType": "uint256",
          "name": "requiredAllowance",
          "type": "uint256"
        }
      ],
      "name": "InsufficientAllowanceOfCollateralAssetToSupply",
      "type": "error"
    },
    {
      "inputs": [
        {
          "internalType": "address",
          "name": "owner",
          "type": "address"
        },
        {
          "internalType": "address",
          "name": "spender",
          "type": "address"
        },
        {
          "internalType": "address",
          "name": "debtAsset",
          "type": "address"
        },
        {
          "internalType": "uint256",
          "name": "requiredAllowance",
          "type": "uint256"
        }
      ],
      "name": "InsufficientAllowanceOfDebtAssetToRepay",
      "type": "error"
    },
    {
      "inputs": [
        {
          "internalType": "address",
          "name": "token",
          "type": "address"
        }
      ],
      "name": "InvalidCollateralToken",
      "type": "error"
    },
    {
      "inputs": [
        {
          "internalType": "address",
          "name": "token",
          "type": "address"
        }
      ],
      "name": "InvalidDebtToken",
      "type": "error"
    },
    {
      "inputs": [
        {
          "internalType": "uint256",
          "name": "leverageBps",
          "type": "uint256"
        }
      ],
      "name": "InvalidLeverage",
      "type": "error"
    },
    {
      "inputs": [
        {
          "internalType": "uint256",
          "name": "lowerBound",
          "type": "uint256"
        },
        {
          "internalType": "uint256",
          "name": "targetLeverage",
          "type": "uint256"
        },
        {
          "internalType": "uint256",
          "name": "upperBound",
          "type": "uint256"
        }
      ],
      "name": "InvalidLeverageBounds",
      "type": "error"
    },
    {
      "inputs": [],
      "name": "InvalidRewardsController",
      "type": "error"
    },
    {
      "inputs": [
        {
          "internalType": "uint256",
          "name": "targetLeverageBps",
          "type": "uint256"
        }
      ],
      "name": "InvalidTargetLeverage",
      "type": "error"
    },
    {
      "inputs": [
        {
          "internalType": "uint256",
          "name": "withdrawalFeeBps",
          "type": "uint256"
        }
      ],
      "name": "InvalidWithdrawalFeeBps",
      "type": "error"
    },
    {
      "inputs": [
        {
          "internalType": "uint256",
          "name": "currentLeverageBps",
          "type": "uint256"
        },
        {
          "internalType": "uint256",
          "name": "targetLeverageBps",
          "type": "uint256"
        }
      ],
      "name": "LeverageBelowTarget",
      "type": "error"
    },
    {
      "inputs": [
        {
          "internalType": "uint256",
          "name": "currentLeverageBps",
          "type": "uint256"
        },
        {
          "internalType": "uint256",
          "name": "targetLeverageBps",
          "type": "uint256"
        }
      ],
      "name": "LeverageExceedsTarget",
      "type": "error"
    },
    {
      "inputs": [
        {
          "internalType": "uint256",
          "name": "maxTreasuryFeeBps",
          "type": "uint256"
        }
      ],
      "name": "MaxTreasuryFeeTooHigh",
      "type": "error"
    },
    {
      "inputs": [
        {
          "internalType": "address",
          "name": "owner",
          "type": "address"
        }
      ],
      "name": "OwnableInvalidOwner",
      "type": "error"
    },
    {
      "inputs": [
        {
          "internalType": "address",
          "name": "account",
          "type": "address"
        }
      ],
      "name": "OwnableUnauthorizedAccount",
      "type": "error"
    },
    {
      "inputs": [],
      "name": "ReentrancyGuardReentrantCall",
      "type": "error"
    },
    {
      "inputs": [
        {
          "internalType": "uint256",
          "name": "claimedAmountsLength",
          "type": "uint256"
        },
        {
          "internalType": "uint256",
          "name": "rewardTokensLength",
          "type": "uint256"
        }
      ],
      "name": "RewardAmountsLengthMismatch",
      "type": "error"
    },
    {
      "inputs": [
        {
          "internalType": "address",
          "name": "token",
          "type": "address"
        }
      ],
      "name": "SafeERC20FailedOperation",
      "type": "error"
    },
    {
      "inputs": [
        {
          "internalType": "address",
          "name": "token",
          "type": "address"
        },
        {
          "internalType": "uint256",
          "name": "tokenBalanceBefore",
          "type": "uint256"
        },
        {
          "internalType": "uint256",
          "name": "tokenBalanceAfter",
          "type": "uint256"
        },
        {
          "internalType": "uint256",
          "name": "expectedTokenBalance",
          "type": "uint256"
        }
      ],
      "name": "TokenBalanceNotDecreasedAfterRepay",
      "type": "error"
    },
    {
      "inputs": [
        {
          "internalType": "address",
          "name": "token",
          "type": "address"
        },
        {
          "internalType": "uint256",
          "name": "tokenBalanceBefore",
          "type": "uint256"
        },
        {
          "internalType": "uint256",
          "name": "tokenBalanceAfter",
          "type": "uint256"
        },
        {
          "internalType": "uint256",
          "name": "expectedTokenBalance",
          "type": "uint256"
        }
      ],
      "name": "TokenBalanceNotDecreasedAfterSupply",
      "type": "error"
    },
    {
      "inputs": [
        {
          "internalType": "address",
          "name": "token",
          "type": "address"
        },
        {
          "internalType": "uint256",
          "name": "tokenBalanceBefore",
          "type": "uint256"
        },
        {
          "internalType": "uint256",
          "name": "tokenBalanceAfter",
          "type": "uint256"
        },
        {
          "internalType": "uint256",
          "name": "expectedTokenBalance",
          "type": "uint256"
        }
      ],
      "name": "TokenBalanceNotIncreasedAfterBorrow",
      "type": "error"
    },
    {
      "inputs": [
        {
          "internalType": "address",
          "name": "token",
          "type": "address"
        },
        {
          "internalType": "uint256",
          "name": "tokenBalanceBefore",
          "type": "uint256"
        },
        {
          "internalType": "uint256",
          "name": "tokenBalanceAfter",
          "type": "uint256"
        },
        {
          "internalType": "uint256",
          "name": "expectedTokenBalance",
          "type": "uint256"
        }
      ],
      "name": "TokenBalanceNotIncreasedAfterWithdraw",
      "type": "error"
    },
    {
      "inputs": [
        {
          "internalType": "uint256",
          "name": "currentLeverageBps",
          "type": "uint256"
        },
        {
          "internalType": "uint256",
          "name": "lowerBoundTargetLeverageBps",
          "type": "uint256"
        },
        {
          "internalType": "uint256",
          "name": "upperBoundTargetLeverageBps",
          "type": "uint256"
        }
      ],
      "name": "TooImbalanced",
      "type": "error"
    },
    {
      "inputs": [
        {
          "internalType": "uint256",
          "name": "treasuryFee",
          "type": "uint256"
        },
        {
          "internalType": "uint256",
          "name": "rewardAmount",
          "type": "uint256"
        }
      ],
      "name": "TreasuryFeeExceedsRewardAmount",
      "type": "error"
    },
    {
      "inputs": [
        {
          "internalType": "uint256",
          "name": "treasuryFeeBps",
          "type": "uint256"
        },
        {
          "internalType": "uint256",
          "name": "maxTreasuryFeeBps",
          "type": "uint256"
        }
      ],
      "name": "TreasuryFeeTooHigh",
      "type": "error"
    },
    {
      "inputs": [
        {
          "internalType": "address",
          "name": "token",
          "type": "address"
        },
        {
          "internalType": "uint256",
          "name": "borrowedAmountBefore",
          "type": "uint256"
        },
        {
          "internalType": "uint256",
          "name": "borrowedAmountAfter",
          "type": "uint256"
        },
        {
          "internalType": "uint256",
          "name": "expectedBorrowedAmount",
          "type": "uint256"
        }
      ],
      "name": "UnexpectedBorrowAmountFromPool",
      "type": "error"
    },
    {
      "inputs": [
        {
          "internalType": "address",
          "name": "token",
          "type": "address"
        },
        {
          "internalType": "uint256",
          "name": "tokenBalanceBefore",
          "type": "uint256"
        },
        {
          "internalType": "uint256",
          "name": "tokenBalanceAfter",
          "type": "uint256"
        },
        {
          "internalType": "uint256",
          "name": "expectedTokenBalance",
          "type": "uint256"
        }
      ],
      "name": "UnexpectedRepayAmountToPool",
      "type": "error"
    },
    {
      "inputs": [
        {
          "internalType": "address",
          "name": "token",
          "type": "address"
        },
        {
          "internalType": "uint256",
          "name": "tokenBalanceBefore",
          "type": "uint256"
        },
        {
          "internalType": "uint256",
          "name": "tokenBalanceAfter",
          "type": "uint256"
        },
        {
          "internalType": "uint256",
          "name": "expectedTokenBalance",
          "type": "uint256"
        }
      ],
      "name": "UnexpectedSupplyAmountToPool",
      "type": "error"
    },
    {
      "inputs": [
        {
          "internalType": "address",
          "name": "token",
          "type": "address"
        },
        {
          "internalType": "uint256",
          "name": "withdrawableAmountBefore",
          "type": "uint256"
        },
        {
          "internalType": "uint256",
          "name": "withdrawableAmountAfter",
          "type": "uint256"
        },
        {
          "internalType": "uint256",
          "name": "expectedWithdrawableAmount",
          "type": "uint256"
        }
      ],
      "name": "UnexpectedWithdrawAmountFromPool",
      "type": "error"
    },
    {
      "inputs": [
        {
          "internalType": "uint256",
          "name": "withdrawalFeeBps",
          "type": "uint256"
        },
        {
          "internalType": "uint256",
          "name": "maxWithdrawalFeeBps",
          "type": "uint256"
        }
      ],
      "name": "WithdrawalFeeIsGreaterThanMaxFee",
      "type": "error"
    },
    {
      "inputs": [],
      "name": "ZeroAddress",
      "type": "error"
    },
    {
      "inputs": [],
      "name": "ZeroExchangeAssetAddress",
      "type": "error"
    },
    {
      "inputs": [],
      "name": "ZeroExchangeThreshold",
      "type": "error"
    },
    {
      "inputs": [],
      "name": "ZeroReceiverAddress",
      "type": "error"
    },
    {
      "inputs": [],
      "name": "ZeroRewardTokens",
      "type": "error"
    },
    {
      "inputs": [],
      "name": "ZeroShares",
      "type": "error"
    },
    {
      "inputs": [],
      "name": "ZeroTreasuryAddress",
      "type": "error"
    },
    {
      "anonymous": false,
      "inputs": [
        {
          "indexed": true,
          "internalType": "address",
          "name": "owner",
          "type": "address"
        },
        {
          "indexed": true,
          "internalType": "address",
          "name": "spender",
          "type": "address"
        },
        {
          "indexed": false,
          "internalType": "uint256",
          "name": "value",
          "type": "uint256"
        }
      ],
      "name": "Approval",
      "type": "event"
    },
    {
      "anonymous": false,
      "inputs": [
        {
          "indexed": true,
          "internalType": "address",
          "name": "oldController",
          "type": "address"
        },
        {
          "indexed": true,
          "internalType": "address",
          "name": "newController",
          "type": "address"
        }
      ],
      "name": "DLendRewardsControllerUpdated",
      "type": "event"
    },
    {
      "anonymous": false,
      "inputs": [
        {
          "indexed": true,
          "internalType": "address",
          "name": "caller",
          "type": "address"
        },
        {
          "indexed": false,
          "internalType": "uint256",
          "name": "inputDebtTokenAmount",
          "type": "uint256"
        },
        {
          "indexed": false,
          "internalType": "uint256",
          "name": "minReceivedCollateralTokenAmount",
          "type": "uint256"
        },
        {
          "indexed": false,
          "internalType": "uint256",
          "name": "repaidDebtTokenAmount",
          "type": "uint256"
        },
        {
          "indexed": false,
          "internalType": "uint256",
          "name": "withdrawnCollateralTokenAmount",
          "type": "uint256"
        }
      ],
      "name": "DecreaseLeverage",
      "type": "event"
    },
    {
      "anonymous": false,
      "inputs": [
        {
          "indexed": true,
          "internalType": "address",
          "name": "sender",
          "type": "address"
        },
        {
          "indexed": true,
          "internalType": "address",
          "name": "owner",
          "type": "address"
        },
        {
          "indexed": false,
          "internalType": "uint256",
          "name": "assets",
          "type": "uint256"
        },
        {
          "indexed": false,
          "internalType": "uint256",
          "name": "shares",
          "type": "uint256"
        }
      ],
      "name": "Deposit",
      "type": "event"
    },
    {
      "anonymous": false,
      "inputs": [
        {
          "indexed": false,
          "internalType": "uint256",
          "name": "oldExchangeThreshold",
          "type": "uint256"
        },
        {
          "indexed": false,
          "internalType": "uint256",
          "name": "newExchangeThreshold",
          "type": "uint256"
        }
      ],
      "name": "ExchangeThresholdUpdated",
      "type": "event"
    },
    {
      "anonymous": false,
      "inputs": [
        {
          "indexed": false,
          "internalType": "uint256",
          "name": "oldFeeBps",
          "type": "uint256"
        },
        {
          "indexed": false,
          "internalType": "uint256",
          "name": "newFeeBps",
          "type": "uint256"
        }
      ],
      "name": "FeeBpsSet",
      "type": "event"
    },
    {
      "anonymous": false,
      "inputs": [
        {
          "indexed": true,
          "internalType": "address",
          "name": "caller",
          "type": "address"
        },
        {
          "indexed": false,
          "internalType": "uint256",
          "name": "inputCollateralTokenAmount",
          "type": "uint256"
        },
        {
          "indexed": false,
          "internalType": "uint256",
          "name": "minReceivedDebtTokenAmount",
          "type": "uint256"
        },
        {
          "indexed": false,
          "internalType": "uint256",
          "name": "suppliedCollateralTokenAmount",
          "type": "uint256"
        },
        {
          "indexed": false,
          "internalType": "uint256",
          "name": "borrowedDebtTokenAmount",
          "type": "uint256"
        }
      ],
      "name": "IncreaseLeverage",
      "type": "event"
    },
    {
      "anonymous": false,
      "inputs": [
        {
          "indexed": true,
          "internalType": "address",
          "name": "token",
          "type": "address"
        },
        {
          "indexed": false,
          "internalType": "uint256",
          "name": "amount",
          "type": "uint256"
        },
        {
          "indexed": true,
          "internalType": "address",
          "name": "receiver",
          "type": "address"
        }
      ],
      "name": "LeftoverCollateralTokensTransferred",
      "type": "event"
    },
    {
      "anonymous": false,
      "inputs": [
        {
          "indexed": true,
          "internalType": "address",
          "name": "token",
          "type": "address"
        },
        {
          "indexed": false,
          "internalType": "uint256",
          "name": "amount",
          "type": "uint256"
        },
        {
          "indexed": true,
          "internalType": "address",
          "name": "receiver",
          "type": "address"
        }
      ],
      "name": "LeftoverDebtTokensTransferred",
      "type": "event"
    },
    {
      "anonymous": false,
      "inputs": [
        {
          "indexed": false,
          "internalType": "uint32",
          "name": "lowerBoundTargetLeverageBps",
          "type": "uint32"
        },
        {
          "indexed": false,
          "internalType": "uint32",
          "name": "upperBoundTargetLeverageBps",
          "type": "uint32"
        }
      ],
      "name": "LeverageBoundsSet",
      "type": "event"
    },
    {
      "anonymous": false,
      "inputs": [
        {
          "indexed": false,
          "internalType": "uint256",
          "name": "oldMaxSubsidyBps",
          "type": "uint256"
        },
        {
          "indexed": false,
          "internalType": "uint256",
          "name": "newMaxSubsidyBps",
          "type": "uint256"
        }
      ],
      "name": "MaxSubsidyBpsSet",
      "type": "event"
    },
    {
      "anonymous": false,
      "inputs": [
        {
          "indexed": false,
          "internalType": "uint256",
          "name": "oldMinDeviationBps",
          "type": "uint256"
        },
        {
          "indexed": false,
          "internalType": "uint256",
          "name": "newMinDeviationBps",
          "type": "uint256"
        }
      ],
      "name": "MinDeviationBpsSet",
      "type": "event"
    },
    {
      "anonymous": false,
      "inputs": [
        {
          "indexed": true,
          "internalType": "address",
          "name": "previousOwner",
          "type": "address"
        },
        {
          "indexed": true,
          "internalType": "address",
          "name": "newOwner",
          "type": "address"
        }
      ],
      "name": "OwnershipTransferred",
      "type": "event"
    },
    {
      "anonymous": false,
      "inputs": [
        {
          "indexed": false,
          "internalType": "address",
          "name": "exchangeAsset",
          "type": "address"
        },
        {
          "indexed": false,
          "internalType": "uint256",
          "name": "amount",
          "type": "uint256"
        },
        {
          "indexed": false,
          "internalType": "address[]",
          "name": "rewardTokens",
          "type": "address[]"
        }
      ],
      "name": "RewardCompounded",
      "type": "event"
    },
    {
      "anonymous": false,
      "inputs": [
        {
          "indexed": true,
          "internalType": "bytes32",
          "name": "role",
          "type": "bytes32"
        },
        {
          "indexed": true,
          "internalType": "bytes32",
          "name": "previousAdminRole",
          "type": "bytes32"
        },
        {
          "indexed": true,
          "internalType": "bytes32",
          "name": "newAdminRole",
          "type": "bytes32"
        }
      ],
      "name": "RoleAdminChanged",
      "type": "event"
    },
    {
      "anonymous": false,
      "inputs": [
        {
          "indexed": true,
          "internalType": "bytes32",
          "name": "role",
          "type": "bytes32"
        },
        {
          "indexed": true,
          "internalType": "address",
          "name": "account",
          "type": "address"
        },
        {
          "indexed": true,
          "internalType": "address",
          "name": "sender",
          "type": "address"
        }
      ],
      "name": "RoleGranted",
      "type": "event"
    },
    {
      "anonymous": false,
      "inputs": [
        {
          "indexed": true,
          "internalType": "bytes32",
          "name": "role",
          "type": "bytes32"
        },
        {
          "indexed": true,
          "internalType": "address",
          "name": "account",
          "type": "address"
        },
        {
          "indexed": true,
          "internalType": "address",
          "name": "sender",
          "type": "address"
        }
      ],
      "name": "RoleRevoked",
      "type": "event"
    },
    {
      "anonymous": false,
      "inputs": [
        {
          "indexed": true,
          "internalType": "address",
          "name": "from",
          "type": "address"
        },
        {
          "indexed": true,
          "internalType": "address",
          "name": "to",
          "type": "address"
        },
        {
          "indexed": false,
          "internalType": "uint256",
          "name": "value",
          "type": "uint256"
        }
      ],
      "name": "Transfer",
      "type": "event"
    },
    {
      "anonymous": false,
      "inputs": [
        {
          "indexed": false,
          "internalType": "uint256",
          "name": "oldTreasuryFeeBps",
          "type": "uint256"
        },
        {
          "indexed": false,
          "internalType": "uint256",
          "name": "newTreasuryFeeBps",
          "type": "uint256"
        }
      ],
      "name": "TreasuryFeeBpsUpdated",
      "type": "event"
    },
    {
      "anonymous": false,
      "inputs": [
        {
          "indexed": false,
          "internalType": "address",
          "name": "oldTreasury",
          "type": "address"
        },
        {
          "indexed": false,
          "internalType": "address",
          "name": "newTreasury",
          "type": "address"
        }
      ],
      "name": "TreasuryUpdated",
      "type": "event"
    },
    {
      "anonymous": false,
      "inputs": [
        {
          "indexed": true,
          "internalType": "address",
          "name": "sender",
          "type": "address"
        },
        {
          "indexed": true,
          "internalType": "address",
          "name": "receiver",
          "type": "address"
        },
        {
          "indexed": true,
          "internalType": "address",
          "name": "owner",
          "type": "address"
        },
        {
          "indexed": false,
          "internalType": "uint256",
          "name": "assets",
          "type": "uint256"
        },
        {
          "indexed": false,
          "internalType": "uint256",
          "name": "shares",
          "type": "uint256"
        }
      ],
      "name": "Withdraw",
      "type": "event"
    },
    {
      "anonymous": false,
      "inputs": [
        {
          "indexed": false,
          "internalType": "uint256",
          "name": "oldWithdrawalFeeBps",
          "type": "uint256"
        },
        {
          "indexed": false,
          "internalType": "uint256",
          "name": "newWithdrawalFeeBps",
          "type": "uint256"
        }
      ],
      "name": "WithdrawalFeeBpsSet",
      "type": "event"
    },
    {
      "inputs": [],
      "name": "AAVE_PRICE_ORACLE_DECIMALS",
      "outputs": [
        {
          "internalType": "uint8",
          "name": "",
          "type": "uint8"
        }
      ],
      "stateMutability": "view",
      "type": "function"
    },
    {
      "inputs": [],
      "name": "BALANCE_DIFF_TOLERANCE",
      "outputs": [
        {
          "internalType": "uint256",
          "name": "",
          "type": "uint256"
        }
      ],
      "stateMutability": "view",
      "type": "function"
    },
    {
      "inputs": [],
      "name": "DEFAULT_ADMIN_ROLE",
      "outputs": [
        {
          "internalType": "bytes32",
          "name": "",
          "type": "bytes32"
        }
      ],
      "stateMutability": "view",
      "type": "function"
    },
    {
      "inputs": [],
      "name": "LEVERAGE_DIFF_TOLERANCE",
      "outputs": [
        {
          "internalType": "uint256",
          "name": "",
          "type": "uint256"
        }
      ],
      "stateMutability": "view",
      "type": "function"
    },
    {
      "inputs": [],
      "name": "MAX_WITHDRAWAL_FEE_BPS",
      "outputs": [
        {
          "internalType": "uint256",
          "name": "",
          "type": "uint256"
        }
      ],
      "stateMutability": "view",
      "type": "function"
    },
    {
      "inputs": [],
      "name": "REWARDS_MANAGER_ROLE",
      "outputs": [
        {
          "internalType": "bytes32",
          "name": "",
          "type": "bytes32"
        }
      ],
      "stateMutability": "view",
      "type": "function"
    },
    {
      "inputs": [],
      "name": "VARIABLE_LENDING_INTERST_RATE_MODE",
      "outputs": [
        {
          "internalType": "uint256",
          "name": "",
          "type": "uint256"
        }
      ],
      "stateMutability": "view",
      "type": "function"
    },
    {
      "inputs": [
        {
          "internalType": "address",
          "name": "owner",
          "type": "address"
        },
        {
          "internalType": "address",
          "name": "spender",
          "type": "address"
        }
      ],
      "name": "allowance",
      "outputs": [
        {
          "internalType": "uint256",
          "name": "",
          "type": "uint256"
        }
      ],
      "stateMutability": "view",
      "type": "function"
    },
    {
      "inputs": [
        {
          "internalType": "address",
          "name": "spender",
          "type": "address"
        },
        {
          "internalType": "uint256",
          "name": "value",
          "type": "uint256"
        }
      ],
      "name": "approve",
      "outputs": [
        {
          "internalType": "bool",
          "name": "",
          "type": "bool"
        }
      ],
      "stateMutability": "nonpayable",
      "type": "function"
    },
    {
      "inputs": [],
      "name": "asset",
      "outputs": [
        {
          "internalType": "address",
          "name": "",
          "type": "address"
        }
      ],
      "stateMutability": "view",
      "type": "function"
    },
    {
      "inputs": [
        {
          "internalType": "address",
          "name": "account",
          "type": "address"
        }
      ],
      "name": "balanceOf",
      "outputs": [
        {
          "internalType": "uint256",
          "name": "",
          "type": "uint256"
        }
      ],
      "stateMutability": "view",
      "type": "function"
    },
    {
      "inputs": [],
      "name": "collateralToken",
      "outputs": [
        {
          "internalType": "contract ERC20",
          "name": "",
          "type": "address"
        }
      ],
      "stateMutability": "view",
      "type": "function"
    },
    {
      "inputs": [
        {
          "internalType": "uint256",
          "name": "amount",
          "type": "uint256"
        },
        {
          "internalType": "address[]",
          "name": "rewardTokens",
          "type": "address[]"
        },
        {
          "internalType": "address",
          "name": "receiver",
          "type": "address"
        }
      ],
      "name": "compoundRewards",
      "outputs": [],
      "stateMutability": "nonpayable",
      "type": "function"
    },
    {
      "inputs": [
        {
          "internalType": "uint256",
          "name": "amountInBase",
          "type": "uint256"
        },
        {
          "internalType": "address",
          "name": "token",
          "type": "address"
        }
      ],
      "name": "convertFromBaseCurrencyToToken",
      "outputs": [
        {
          "internalType": "uint256",
          "name": "",
          "type": "uint256"
        }
      ],
      "stateMutability": "view",
      "type": "function"
    },
    {
      "inputs": [
        {
          "internalType": "uint256",
          "name": "amountInToken",
          "type": "uint256"
        },
        {
          "internalType": "address",
          "name": "token",
          "type": "address"
        }
      ],
      "name": "convertFromTokenAmountToBaseCurrency",
      "outputs": [
        {
          "internalType": "uint256",
          "name": "",
          "type": "uint256"
        }
      ],
      "stateMutability": "view",
      "type": "function"
    },
    {
      "inputs": [
        {
          "internalType": "uint256",
          "name": "shares",
          "type": "uint256"
        }
      ],
      "name": "convertToAssets",
      "outputs": [
        {
          "internalType": "uint256",
          "name": "",
          "type": "uint256"
        }
      ],
      "stateMutability": "view",
      "type": "function"
    },
    {
      "inputs": [
        {
          "internalType": "uint256",
          "name": "assets",
          "type": "uint256"
        }
      ],
      "name": "convertToShares",
      "outputs": [
        {
          "internalType": "uint256",
          "name": "",
          "type": "uint256"
        }
      ],
      "stateMutability": "view",
      "type": "function"
    },
    {
      "inputs": [],
      "name": "dLendAssetToClaimFor",
      "outputs": [
        {
          "internalType": "address",
          "name": "",
          "type": "address"
        }
      ],
      "stateMutability": "view",
      "type": "function"
    },
    {
      "inputs": [],
      "name": "dLendRewardsController",
      "outputs": [
        {
          "internalType": "contract IRewardsController",
          "name": "",
          "type": "address"
        }
      ],
      "stateMutability": "view",
      "type": "function"
    },
    {
      "inputs": [],
      "name": "debtToken",
      "outputs": [
        {
          "internalType": "contract ERC20",
          "name": "",
          "type": "address"
        }
      ],
      "stateMutability": "view",
      "type": "function"
    },
    {
      "inputs": [],
      "name": "decimals",
      "outputs": [
        {
          "internalType": "uint8",
          "name": "",
          "type": "uint8"
        }
      ],
      "stateMutability": "view",
      "type": "function"
    },
    {
      "inputs": [
        {
          "internalType": "uint256",
          "name": "inputDebtTokenAmount",
          "type": "uint256"
        },
        {
          "internalType": "uint256",
          "name": "minReceivedCollateralTokenAmount",
          "type": "uint256"
        }
      ],
      "name": "decreaseLeverage",
      "outputs": [],
      "stateMutability": "nonpayable",
      "type": "function"
    },
    {
      "inputs": [
        {
          "internalType": "uint256",
          "name": "assets",
          "type": "uint256"
        },
        {
          "internalType": "address",
          "name": "receiver",
          "type": "address"
        }
      ],
      "name": "deposit",
      "outputs": [
        {
          "internalType": "uint256",
          "name": "",
          "type": "uint256"
        }
      ],
      "stateMutability": "nonpayable",
      "type": "function"
    },
    {
      "inputs": [],
      "name": "exchangeAsset",
      "outputs": [
        {
          "internalType": "address",
          "name": "",
          "type": "address"
        }
      ],
      "stateMutability": "view",
      "type": "function"
    },
    {
      "inputs": [],
      "name": "exchangeThreshold",
      "outputs": [
        {
          "internalType": "uint256",
          "name": "",
          "type": "uint256"
        }
      ],
      "stateMutability": "view",
      "type": "function"
    },
    {
      "inputs": [
        {
          "internalType": "address",
          "name": "asset",
          "type": "address"
        }
      ],
      "name": "getAssetPriceFromOracle",
      "outputs": [
        {
          "internalType": "uint256",
          "name": "",
          "type": "uint256"
        }
      ],
      "stateMutability": "view",
      "type": "function"
    },
    {
      "inputs": [],
      "name": "getCollateralTokenAddress",
      "outputs": [
        {
          "internalType": "address",
          "name": "",
          "type": "address"
        }
      ],
      "stateMutability": "view",
      "type": "function"
    },
    {
      "inputs": [
        {
          "internalType": "address",
          "name": "token",
          "type": "address"
        },
        {
          "internalType": "address",
          "name": "user",
          "type": "address"
        }
      ],
      "name": "getCollateralValueInTokenAmount",
      "outputs": [
        {
          "internalType": "uint256",
          "name": "collateralTokenAmount",
          "type": "uint256"
        }
      ],
      "stateMutability": "view",
      "type": "function"
    },
    {
      "inputs": [],
      "name": "getCurrentLeverageBps",
      "outputs": [
        {
          "internalType": "uint256",
          "name": "",
          "type": "uint256"
        }
      ],
      "stateMutability": "view",
      "type": "function"
    },
    {
      "inputs": [],
      "name": "getCurrentSubsidyBps",
      "outputs": [
        {
          "internalType": "uint256",
          "name": "",
          "type": "uint256"
        }
      ],
      "stateMutability": "view",
      "type": "function"
    },
    {
      "inputs": [],
      "name": "getDebtTokenAddress",
      "outputs": [
        {
          "internalType": "address",
          "name": "",
          "type": "address"
        }
      ],
      "stateMutability": "view",
      "type": "function"
    },
    {
      "inputs": [
        {
          "internalType": "address",
          "name": "token",
          "type": "address"
        },
        {
          "internalType": "address",
          "name": "user",
          "type": "address"
        }
      ],
      "name": "getDebtValueInTokenAmount",
      "outputs": [
        {
          "internalType": "uint256",
          "name": "debtTokenAmount",
          "type": "uint256"
        }
      ],
      "stateMutability": "view",
      "type": "function"
    },
    {
      "inputs": [],
      "name": "getDefaultMaxSubsidyBps",
      "outputs": [
        {
          "internalType": "uint256",
          "name": "",
          "type": "uint256"
        }
      ],
      "stateMutability": "view",
      "type": "function"
    },
    {
      "inputs": [],
      "name": "getLendingOracle",
      "outputs": [
        {
          "internalType": "contract IPriceOracleGetter",
          "name": "",
          "type": "address"
        }
      ],
      "stateMutability": "view",
      "type": "function"
    },
    {
      "inputs": [],
      "name": "getLendingPool",
      "outputs": [
        {
          "internalType": "contract IPool",
          "name": "",
          "type": "address"
        }
      ],
      "stateMutability": "view",
      "type": "function"
    },
    {
      "inputs": [],
      "name": "getLendingPoolAddress",
      "outputs": [
        {
          "internalType": "address",
          "name": "",
          "type": "address"
        }
      ],
      "stateMutability": "view",
      "type": "function"
    },
    {
      "inputs": [],
      "name": "getOracleAddress",
      "outputs": [
        {
          "internalType": "address",
          "name": "",
          "type": "address"
        }
      ],
      "stateMutability": "view",
      "type": "function"
    },
    {
      "inputs": [],
      "name": "getRestrictedRescueTokens",
      "outputs": [
        {
          "internalType": "address[]",
          "name": "",
          "type": "address[]"
        }
      ],
      "stateMutability": "view",
      "type": "function"
    },
    {
      "inputs": [
        {
          "internalType": "bytes32",
          "name": "role",
          "type": "bytes32"
        }
      ],
      "name": "getRoleAdmin",
      "outputs": [
        {
          "internalType": "bytes32",
          "name": "",
          "type": "bytes32"
        }
      ],
      "stateMutability": "view",
      "type": "function"
    },
    {
      "inputs": [
        {
          "internalType": "address",
          "name": "user",
          "type": "address"
        }
      ],
      "name": "getTotalCollateralAndDebtOfUserInBase",
      "outputs": [
        {
          "internalType": "uint256",
          "name": "totalCollateralBase",
          "type": "uint256"
        },
        {
          "internalType": "uint256",
          "name": "totalDebtBase",
          "type": "uint256"
        }
      ],
      "stateMutability": "view",
      "type": "function"
    },
    {
      "inputs": [
        {
          "internalType": "uint256",
          "name": "amount",
          "type": "uint256"
        }
      ],
      "name": "getTreasuryFee",
      "outputs": [
        {
          "internalType": "uint256",
          "name": "",
          "type": "uint256"
        }
      ],
      "stateMutability": "view",
      "type": "function"
    },
    {
      "inputs": [
        {
          "internalType": "bytes32",
          "name": "role",
          "type": "bytes32"
        },
        {
          "internalType": "address",
          "name": "account",
          "type": "address"
        }
      ],
      "name": "grantRole",
      "outputs": [],
      "stateMutability": "nonpayable",
      "type": "function"
    },
    {
      "inputs": [
        {
          "internalType": "bytes32",
          "name": "role",
          "type": "bytes32"
        },
        {
          "internalType": "address",
          "name": "account",
          "type": "address"
        }
      ],
      "name": "hasRole",
      "outputs": [
        {
          "internalType": "bool",
          "name": "",
          "type": "bool"
        }
      ],
      "stateMutability": "view",
      "type": "function"
    },
    {
      "inputs": [
        {
          "internalType": "uint256",
          "name": "inputCollateralTokenAmount",
          "type": "uint256"
        },
        {
          "internalType": "uint256",
          "name": "minReceivedDebtTokenAmount",
          "type": "uint256"
        }
      ],
      "name": "increaseLeverage",
      "outputs": [],
      "stateMutability": "nonpayable",
      "type": "function"
    },
    {
      "inputs": [],
      "name": "isTooImbalanced",
      "outputs": [
        {
          "internalType": "bool",
          "name": "",
          "type": "bool"
        }
      ],
      "stateMutability": "view",
      "type": "function"
    },
    {
      "inputs": [],
      "name": "lendingPoolAddressesProvider",
      "outputs": [
        {
          "internalType": "contract IPoolAddressesProvider",
          "name": "",
          "type": "address"
        }
      ],
      "stateMutability": "view",
      "type": "function"
    },
    {
      "inputs": [],
      "name": "lowerBoundTargetLeverageBps",
      "outputs": [
        {
          "internalType": "uint32",
          "name": "",
          "type": "uint32"
        }
      ],
      "stateMutability": "view",
      "type": "function"
    },
    {
      "inputs": [
        {
          "internalType": "address",
          "name": "_user",
          "type": "address"
        }
      ],
      "name": "maxDeposit",
      "outputs": [
        {
          "internalType": "uint256",
          "name": "",
          "type": "uint256"
        }
      ],
      "stateMutability": "view",
      "type": "function"
    },
    {
      "inputs": [
        {
          "internalType": "address",
          "name": "_user",
          "type": "address"
        }
      ],
      "name": "maxMint",
      "outputs": [
        {
          "internalType": "uint256",
          "name": "",
          "type": "uint256"
        }
      ],
      "stateMutability": "view",
      "type": "function"
    },
    {
      "inputs": [
        {
          "internalType": "address",
          "name": "_user",
          "type": "address"
        }
      ],
      "name": "maxRedeem",
      "outputs": [
        {
          "internalType": "uint256",
          "name": "",
          "type": "uint256"
        }
      ],
      "stateMutability": "view",
      "type": "function"
    },
    {
      "inputs": [],
      "name": "maxSubsidyBps",
      "outputs": [
        {
          "internalType": "uint256",
          "name": "",
          "type": "uint256"
        }
      ],
      "stateMutability": "view",
      "type": "function"
    },
    {
      "inputs": [],
      "name": "maxTreasuryFeeBps",
      "outputs": [
        {
          "internalType": "uint256",
          "name": "",
          "type": "uint256"
        }
      ],
      "stateMutability": "view",
      "type": "function"
    },
    {
      "inputs": [
        {
          "internalType": "address",
          "name": "_user",
          "type": "address"
        }
      ],
      "name": "maxWithdraw",
      "outputs": [
        {
          "internalType": "uint256",
          "name": "",
          "type": "uint256"
        }
      ],
      "stateMutability": "view",
      "type": "function"
    },
    {
      "inputs": [],
      "name": "minDeviationBps",
      "outputs": [
        {
          "internalType": "uint256",
          "name": "",
          "type": "uint256"
        }
      ],
      "stateMutability": "view",
      "type": "function"
    },
    {
      "inputs": [
        {
          "internalType": "uint256",
          "name": "shares",
          "type": "uint256"
        },
        {
          "internalType": "address",
          "name": "receiver",
          "type": "address"
        }
      ],
      "name": "mint",
      "outputs": [
        {
          "internalType": "uint256",
          "name": "",
          "type": "uint256"
        }
      ],
      "stateMutability": "nonpayable",
      "type": "function"
    },
    {
      "inputs": [],
      "name": "name",
      "outputs": [
        {
          "internalType": "string",
          "name": "",
          "type": "string"
        }
      ],
      "stateMutability": "view",
      "type": "function"
    },
    {
      "inputs": [],
      "name": "owner",
      "outputs": [
        {
          "internalType": "address",
          "name": "",
          "type": "address"
        }
      ],
      "stateMutability": "view",
      "type": "function"
    },
    {
      "inputs": [
        {
          "internalType": "uint256",
          "name": "assets",
          "type": "uint256"
        }
      ],
      "name": "previewDeposit",
      "outputs": [
        {
          "internalType": "uint256",
          "name": "",
          "type": "uint256"
        }
      ],
      "stateMutability": "view",
      "type": "function"
    },
    {
      "inputs": [
        {
          "internalType": "uint256",
          "name": "shares",
          "type": "uint256"
        }
      ],
      "name": "previewMint",
      "outputs": [
        {
          "internalType": "uint256",
          "name": "",
          "type": "uint256"
        }
      ],
      "stateMutability": "view",
      "type": "function"
    },
    {
      "inputs": [
        {
          "internalType": "uint256",
          "name": "shares",
          "type": "uint256"
        }
      ],
      "name": "previewRedeem",
      "outputs": [
        {
          "internalType": "uint256",
          "name": "",
          "type": "uint256"
        }
      ],
      "stateMutability": "view",
      "type": "function"
    },
    {
      "inputs": [
        {
          "internalType": "uint256",
          "name": "assets",
          "type": "uint256"
        }
      ],
      "name": "previewWithdraw",
      "outputs": [
        {
          "internalType": "uint256",
          "name": "",
          "type": "uint256"
        }
      ],
      "stateMutability": "view",
      "type": "function"
    },
    {
      "inputs": [
        {
          "internalType": "uint256",
          "name": "shares",
          "type": "uint256"
        },
        {
          "internalType": "address",
          "name": "receiver",
          "type": "address"
        },
        {
          "internalType": "address",
          "name": "owner",
          "type": "address"
        }
      ],
      "name": "redeem",
      "outputs": [
        {
          "internalType": "uint256",
          "name": "",
          "type": "uint256"
        }
      ],
      "stateMutability": "nonpayable",
      "type": "function"
    },
    {
      "inputs": [],
      "name": "renounceOwnership",
      "outputs": [],
      "stateMutability": "nonpayable",
      "type": "function"
    },
    {
      "inputs": [
        {
          "internalType": "bytes32",
          "name": "role",
          "type": "bytes32"
        },
        {
          "internalType": "address",
          "name": "callerConfirmation",
          "type": "address"
        }
      ],
      "name": "renounceRole",
      "outputs": [],
      "stateMutability": "nonpayable",
      "type": "function"
    },
    {
      "inputs": [
        {
          "internalType": "address",
          "name": "token",
          "type": "address"
        },
        {
          "internalType": "address",
          "name": "receiver",
          "type": "address"
        },
        {
          "internalType": "uint256",
          "name": "amount",
          "type": "uint256"
        }
      ],
      "name": "rescueToken",
      "outputs": [],
      "stateMutability": "nonpayable",
      "type": "function"
    },
    {
      "inputs": [
        {
          "internalType": "bytes32",
          "name": "role",
          "type": "bytes32"
        },
        {
          "internalType": "address",
          "name": "account",
          "type": "address"
        }
      ],
      "name": "revokeRole",
      "outputs": [],
      "stateMutability": "nonpayable",
      "type": "function"
    },
    {
      "inputs": [
        {
          "internalType": "address",
          "name": "_newDLendRewardsController",
          "type": "address"
        }
      ],
      "name": "setDLendRewardsController",
      "outputs": [],
      "stateMutability": "nonpayable",
      "type": "function"
    },
    {
      "inputs": [
        {
          "internalType": "uint256",
          "name": "newExchangeThreshold",
          "type": "uint256"
        }
      ],
      "name": "setExchangeThreshold",
      "outputs": [],
      "stateMutability": "nonpayable",
      "type": "function"
    },
    {
      "inputs": [
        {
          "internalType": "uint32",
          "name": "_lowerBoundTargetLeverageBps",
          "type": "uint32"
        },
        {
          "internalType": "uint32",
          "name": "_upperBoundTargetLeverageBps",
          "type": "uint32"
        }
      ],
      "name": "setLeverageBounds",
      "outputs": [],
      "stateMutability": "nonpayable",
      "type": "function"
    },
    {
      "inputs": [
        {
          "internalType": "uint256",
          "name": "_maxSubsidyBps",
          "type": "uint256"
        }
      ],
      "name": "setMaxSubsidyBps",
      "outputs": [],
      "stateMutability": "nonpayable",
      "type": "function"
    },
    {
      "inputs": [
        {
          "internalType": "uint256",
          "name": "_minDeviationBps",
          "type": "uint256"
        }
      ],
      "name": "setMinDeviationBps",
      "outputs": [],
      "stateMutability": "nonpayable",
      "type": "function"
    },
    {
      "inputs": [
        {
          "internalType": "address",
          "name": "newTreasury",
          "type": "address"
        }
      ],
      "name": "setTreasury",
      "outputs": [],
      "stateMutability": "nonpayable",
      "type": "function"
    },
    {
      "inputs": [
        {
          "internalType": "uint256",
          "name": "newTreasuryFeeBps",
          "type": "uint256"
        }
      ],
      "name": "setTreasuryFeeBps",
      "outputs": [],
      "stateMutability": "nonpayable",
      "type": "function"
    },
    {
      "inputs": [
        {
          "internalType": "uint256",
          "name": "newWithdrawalFeeBps",
          "type": "uint256"
        }
      ],
      "name": "setWithdrawalFeeBps",
      "outputs": [],
      "stateMutability": "nonpayable",
      "type": "function"
    },
    {
      "inputs": [
        {
          "internalType": "bytes4",
          "name": "interfaceId",
          "type": "bytes4"
        }
      ],
      "name": "supportsInterface",
      "outputs": [
        {
          "internalType": "bool",
          "name": "",
          "type": "bool"
        }
      ],
      "stateMutability": "view",
      "type": "function"
    },
    {
      "inputs": [],
      "name": "symbol",
      "outputs": [
        {
          "internalType": "string",
          "name": "",
          "type": "string"
        }
      ],
      "stateMutability": "view",
      "type": "function"
    },
    {
      "inputs": [],
      "name": "targetLeverageBps",
      "outputs": [
        {
          "internalType": "uint32",
          "name": "",
          "type": "uint32"
        }
      ],
      "stateMutability": "view",
      "type": "function"
    },
    {
      "inputs": [],
      "name": "targetStaticATokenWrapper",
      "outputs": [
        {
          "internalType": "address",
          "name": "",
          "type": "address"
        }
      ],
      "stateMutability": "view",
      "type": "function"
    },
    {
      "inputs": [],
      "name": "totalAssets",
      "outputs": [
        {
          "internalType": "uint256",
          "name": "",
          "type": "uint256"
        }
      ],
      "stateMutability": "view",
      "type": "function"
    },
    {
      "inputs": [],
      "name": "totalSupply",
      "outputs": [
        {
          "internalType": "uint256",
          "name": "",
          "type": "uint256"
        }
      ],
      "stateMutability": "view",
      "type": "function"
    },
    {
      "inputs": [
        {
          "internalType": "address",
          "name": "to",
          "type": "address"
        },
        {
          "internalType": "uint256",
          "name": "value",
          "type": "uint256"
        }
      ],
      "name": "transfer",
      "outputs": [
        {
          "internalType": "bool",
          "name": "",
          "type": "bool"
        }
      ],
      "stateMutability": "nonpayable",
      "type": "function"
    },
    {
      "inputs": [
        {
          "internalType": "address",
          "name": "from",
          "type": "address"
        },
        {
          "internalType": "address",
          "name": "to",
          "type": "address"
        },
        {
          "internalType": "uint256",
          "name": "value",
          "type": "uint256"
        }
      ],
      "name": "transferFrom",
      "outputs": [
        {
          "internalType": "bool",
          "name": "",
          "type": "bool"
        }
      ],
      "stateMutability": "nonpayable",
      "type": "function"
    },
    {
      "inputs": [
        {
          "internalType": "address",
          "name": "newOwner",
          "type": "address"
        }
      ],
      "name": "transferOwnership",
      "outputs": [],
      "stateMutability": "nonpayable",
      "type": "function"
    },
    {
      "inputs": [],
      "name": "treasury",
      "outputs": [
        {
          "internalType": "address",
          "name": "",
          "type": "address"
        }
      ],
      "stateMutability": "view",
      "type": "function"
    },
    {
      "inputs": [],
      "name": "treasuryFeeBps",
      "outputs": [
        {
          "internalType": "uint256",
          "name": "",
          "type": "uint256"
        }
      ],
      "stateMutability": "view",
      "type": "function"
    },
    {
      "inputs": [],
      "name": "upperBoundTargetLeverageBps",
      "outputs": [
        {
          "internalType": "uint32",
          "name": "",
          "type": "uint32"
        }
      ],
      "stateMutability": "view",
      "type": "function"
    },
    {
      "inputs": [
        {
          "internalType": "uint256",
          "name": "assets",
          "type": "uint256"
        },
        {
          "internalType": "address",
          "name": "receiver",
          "type": "address"
        },
        {
          "internalType": "address",
          "name": "owner",
          "type": "address"
        }
      ],
      "name": "withdraw",
      "outputs": [
        {
          "internalType": "uint256",
          "name": "",
          "type": "uint256"
        }
      ],
      "stateMutability": "nonpayable",
      "type": "function"
    },
    {
      "inputs": [],
      "name": "withdrawalFeeBps",
      "outputs": [
        {
          "internalType": "uint256",
          "name": "",
          "type": "uint256"
        }
      ],
      "stateMutability": "view",
      "type": "function"
    }
  ],
  "transactionHash": "0x736fbde3efa8491d008dad0b213e709b61b8aa95a440bd62d1025ff18b3a1509",
  "args": [
    "dLOOP 3X sfrxUSD dLEND",
    "3X-sfrxUSD",
    "0x9f2013831e371587a8E39f2A43DF774af2178e35",
    "0x6E1BBC832B8097CFa749ad0aa35763f0f08F01a1",
    "0xc82fD183Bd4Fe5c23872A79F2Fb13edF2d266E27",
    3000000,
    2000000,
    4000000,
    20000,
    20000,
    4000,
    "0x0000000000000000000000000000000000000000",
    "0xcbf2EA49fe47dc3B158cF771e54abe2b599aF350",
    "0x0000000000000000000000000000000000000000",
    "0xd2f775Ff2cD41bfe43C7A8c016eD10393553fe44",
    "1000",
    "500",
    "100"
  ],
  "numDeployments": 1,
  "solcInputHash": "e969b584e8a762111ec3441a1c2d0859",
  "bytecode": "0x6101c06040523462000abc576200607f803803809162000022826101c062000ac1565b6101c0396101c0016102406101c082031262000abc576101c0516001600160401b03811162000abc57816200005b916101c00162000b01565b6101e05190916001600160401b03821162000abc576200007f916101c00162000b01565b6200008c61020062000b6b565b916200009a61022062000b6b565b6102405190916001600160a01b038216820362000abc57620000be61026062000b80565b93620000cc61028062000b80565b93620000da6102a062000b80565b6102c0516102e0516103005161032051939993989092906001600160a01b038a168a0362000abc576200010f61034062000b6b565b9a6200011d61036062000b6b565b9c6200012b61038062000b6b565b6103a0516103c0516103e0518d51909d919c929b939a9392916001600160401b0382116200098e5760035490600182811c9216801562000ab1575b60208310146200096d5781601f84931162000a3f575b50602090601f8311600114620009b057600092620009a4575b50508160011b916000199060031b1c1916176003555b8051906001600160401b0382116200098e5760045490600182811c9216801562000983575b60208310146200096d5781601f849311620008fb575b50602090601f83116001146200086c5760009262000860575b50508160011b916000199060031b1c1916176004555b6001600160a01b038316926200022b8462000cb6565b901562000857575b60a0528360805233156200083e5760058054336001600160a01b0319821681179092556001600160a01b03167f8be0079c531659141344cd1fd0a4f28419497f9722a3daafe3b4186f6b6457e0600080a36001600755816101005260e05263ffffffff92838316620f424081106200082657808588161080159062000819575b620007f15750620002c48162000d7c565b15620007d957506001600160a01b0316620002df8162000d7c565b15620007c1575060c052600880546001600160401b031916919093161760209190911b67ffffffff0000000016179055600955600a55600b553015620007af576001600160a01b038116156200079d57620f4240821162000784578183116200076657831562000754573061012052600c80546001600160a01b0319166001600160a01b039290921691909117905561014052600d55600e55620003833362000b92565b506200038f3362000c13565b5061016052600f80546001600160a01b0319166001600160a01b03928316179055610180919091526101a091909152600490602090620003ce62000e4c565b166040519283809262e19f4760e81b82525afa908115620006b75760009162000713575b506001600160a01b0316620006c357600460206001600160a01b036200041762000e4c565b1660405192838092638c89b64f60e01b82525afa908115620006b75760009162000677575b506305f5e100036200063257604051615194908162000ecb823960805181612997015260a05181612abe015260c0518181816118c701528181611b3b01528181611b8301528181612b7501528181612d7401526148ec015260e05181818161093e0152818161097d01528181610b0b01528181610b5a01528181610e8b015281816111650152818161154f0152818161158f015281816115c3015281816116090152818161164801528181611839015281816118700152818161195e01528181611bd201528181611f4a01528181611f8e01528181611fc40152818161200a01528181612049015281816121f601528181612dc30152818161332a01528181613cff0152614b300152610100518181816103fa015281816109b8015281816109fe01528181610a6201528181610aa201528181610ad601528181610be701528181610c1e01528181610cac01528181610ee301528181611683015281816116d00152818161173a0152818161178301528181611c1d01528181612084015281816120d00152818161211b01528181612e110152613d3001526101205181818161232e01526124f1015261014051818181611afb0152612a2b01526101605181818161088001528181614cab0152614d360152610180518181816125f00152612d1f01526101a0518181816111d601526127b30152f35b60405162461bcd60e51b815260206004820152601960248201527f496e76616c6964207072696365206f7261636c6520756e6974000000000000006044820152606490fd5b6020813d602011620006ae575b81620006936020938362000ac1565b81010312620006aa575190506305f5e1006200043c565b5080fd5b3d915062000684565b6040513d6000823e3d90fd5b60405162461bcd60e51b815260206004820152602260248201527f496e76616c6964207072696365206f7261636c6520626173652063757272656e604482015261637960f01b6064820152608490fd5b6020813d6020116200074b575b816200072f6020938362000ac1565b81010312620006aa5762000744915062000b6b565b38620003f2565b3d915062000720565b6040516354a62ce560e01b8152600490fd5b6044838360405191636cef961f60e11b835260048301526024820152fd5b60405163a7519f3f60e01b815260048101839052602490fd5b6040516351dc806d60e11b8152600490fd5b604051631810b12760e21b8152600490fd5b6024906040519063a830a4a160e01b82526004820152fd5b6024906040519063c47118b160e01b82526004820152fd5b868587606493826040519463b857eea760e01b86521660048501526024840152166044820152fd5b50848616811015620002b3565b60249060405190632d7e79d160e21b82526004820152fd5b604051631e4fbdf760e01b815260006004820152602490fd5b50601262000233565b015190503880620001ff565b6004600090815293507f8a35acfbc15ff81a39ae7d344fd709f28e8600b4aa8c65c6b64bfe7fe36bd19b91905b601f1984168510620008df576001945083601f19811610620008c5575b505050811b0160045562000215565b015160001960f88460031b161c19169055388080620008b6565b8181015183556020948501946001909301929091019062000899565b60046000529091507f8a35acfbc15ff81a39ae7d344fd709f28e8600b4aa8c65c6b64bfe7fe36bd19b601f840160051c81016020851062000965575b90849392915b601f830160051c8201811062000955575050620001e6565b600081558594506001016200093d565b508062000937565b634e487b7160e01b600052602260045260246000fd5b91607f1691620001d0565b634e487b7160e01b600052604160045260246000fd5b01519050388062000195565b6003600090815293507fc2575a0e9e593c00f959f8c92f12db2869c3395a3b0502d05e2516446f71f85b91905b601f198416851062000a23576001945083601f1981161062000a09575b505050811b01600355620001ab565b015160001960f88460031b161c19169055388080620009fa565b81810151835560209485019460019093019290910190620009dd565b60036000529091507fc2575a0e9e593c00f959f8c92f12db2869c3395a3b0502d05e2516446f71f85b601f840160051c81016020851062000aa9575b90849392915b601f830160051c8201811062000a995750506200017c565b6000815585945060010162000a81565b508062000a7b565b91607f169162000166565b600080fd5b601f909101601f19168101906001600160401b038211908210176200098e57604052565b6001600160401b0381116200098e57601f01601f191660200190565b919080601f8401121562000abc5782519062000b1d8262000ae5565b9162000b2d604051938462000ac1565b80835260209182828701011162000abc5760005b81811062000b5757508260009394955001015290565b858101830151848201840152820162000b41565b51906001600160a01b038216820362000abc57565b519063ffffffff8216820362000abc57565b6001600160a01b031660008181527f54cdd369e4e8a8515e52ca72ec816c2101831ad1f18bf44102ed171459c9b4f8602052604081205490919060ff1662000c0f5781805260066020526040822081835260205260408220600160ff1982541617905533916000805160206200605f8339815191528180a4600190565b5090565b6001600160a01b031660008181527ffe34ed5485dc9fe44fe8269f3027eee2e0a6e4cc4be0ba8f7d037ae76cfa28d360205260408120549091907f51785d261c3b3e8c2cfe2d0e108b9ab2b1fb703ff9e9e49aba4ebdc85c36152b9060ff1662000cb15780835260066020526040832082845260205260408320600160ff198254161790556000805160206200605f833981519152339380a4600190565b505090565b6040805163313ce56760e01b60208201908152600482529293929181016001600160401b038111828210176200098e576040525160009384928392916001600160a01b03165afa3d1562000d73573d9062000d118262000ae5565b9162000d21604051938462000ac1565b82523d84602084013e5b8062000d66575b62000d3d575b508190565b60208180518101031262000d62576020015160ff811162000d38576001925060ff1690565b8280fd5b5060208151101562000d32565b60609062000d2b565b6040516318160ddd60e01b81526001600160a01b039190911690602090818082600481875afa918262000e1d575b505062000db8575050600090565b80602492604051938480926370a0823160e01b82523060048301525afa918262000dee575b505062000de957600090565b600190565b813d831162000e15575b62000e04818362000ac1565b8101031262000abc57388062000ddd565b503d62000df8565b813d831162000e44575b62000e33818362000ac1565b8101031262000abc57813862000daa565b503d62000e27565b61016051604051631f94a27560e31b81526001600160a01b03916020908290600490829086165afa908115620006b75760009162000e8957501690565b906020823d821162000ec1575b8162000ea56020938362000ac1565b8101031262000ebe575062000eba9062000b6b565b1690565b80fd5b3d915062000e9656fe6080604052600436101561001257600080fd5b60003560e01c806301e1d1141461330857806301ffc9a7146132b25780630261bf8b14613297578063031c53ef1461327157806304336bb31461325357806305eee57e1461323757806306fdde031461317957806307a2d13a1461315b57806309344c9c1461312e578063095ea7b3146130765780630a28a4771461305257806314cecfbd1461302657806318160ddd146130085780631dc8d81814612d4e5780631f52be6414612d095780631ff2d5e3146113a057806323b872dd14612ce75780632416752414612c5b578063248a9ca314612c2c5780632f293a2014612b305780632f2ff15d14612af1578063313ce56714612aa9578063331fb00f14612a0d57806336568abe146129c657806338d52e0f14612981578063402d267d14610846578063415c5069146129625780634603be6f1461246857806349b404021461244a5780634cdad50614612429578063500fc434146123f95780635033def7146123ca57806356d1d4a21461235d5780635898ec3b1461231857806359757aa5146122f25780635b3f0549146122d65780635f36a742146122b357806361d027b31461228a5780636d483fe61461114f5780636e553f6514611ec557806370a0823114611e8c578063715018a614611e2f578063776efe4714611b5f5780637aa7c3c114611b1e5780637dd38d9a14611ae357806380fbf1dd14611abf57806385bf8b7714610701578063863df9e714611aa45780638bc4ec9b14611a7e5780638da5cb5b14611a5557806391d1485414611a0857806394bf804d146114c857806395d89b41146113c357806395e6a3ba146113a55780639d00f108146113a0578063a0a945261461133f578063a1b2736a146112a0578063a217fddf14611284578063a9059cbb14611253578063a9f1a7981461122e578063acfec69014611205578063ae37f479146111c0578063b18b78dd14611194578063b2016bd41461114f578063b3d7f6b914611131578063b460af9414610e12578063b6783edd14610df4578063ba087652146108af578063bba00ba51461086a578063c63d75b614610846578063c6e6f59214610558578063c7101c1214610823578063cd169269146107f7578063ce96cb77146107d4578063d267974c146103e4578063d547741f14610793578063d905777e14610770578063dd62ed3e1461071f578063dde35bfd14610701578063e0dd2457146106c6578063e5711e8b14610605578063e80cfa5e146105e7578063eaff4592146105be578063edea1d481461055d578063ef8b30f714610558578063f0f44260146104bc578063f2fde38b1461042e5763f8d89898146103e457600080fd5b34610429576000366003190112610429576040517f00000000000000000000000000000000000000000000000000000000000000006001600160a01b03168152602090f35b600080fd5b346104295760203660031901126104295761044761336e565b61044f61365b565b6001600160a01b039081169081156104a357600554826bffffffffffffffffffffffff60a01b821617600555167f8be0079c531659141344cd1fd0a4f28419497f9722a3daafe3b4186f6b6457e0600080a3005b604051631e4fbdf760e01b815260006004820152602490fd5b34610429576020366003190112610429576104d561336e565b6104dd6134c4565b6001600160a01b03818116801561054657600c80546001600160a01b03198116929092179055604080516001600160a01b0393909216831682529290911660208201527f4ab5be82436d353e61ca18726e984e561f5c1cc7c6d38b29d2553c790434705a9190a1005b6040516351dc806d60e11b8152600490fd5b6134a6565b34610429576020366003190112610429577fffac9ebcb954b47fd18acb3426a66b70dcb4c43c237303630c568d0062d8db1a604060043561059c61365b565b6105a4613cc6565b600a549080600a5582519182526020820152a16001600755005b346104295760203660031901126104295760206105df600d54600435613a4d565b604051908152f35b34610429576000366003190112610429576020600d54604051908152f35b3461042957610613366133ff565b61061e92919261365b565b610626613cc6565b61062e614b23565b9060005b82518110156106ab576001600160a01b038061064e8386613c13565b5116908516146106665761066190613be1565b610632565b60405162461bcd60e51b815260206004820152601e60248201527f43616e6e6f7420726573637565207265737472696374656420746f6b656e00006044820152606490fd5b6106bf82866001600160a01b038716613c27565b6001600755005b346104295760003660031901126104295760206040517f51785d261c3b3e8c2cfe2d0e108b9ab2b1fb703ff9e9e49aba4ebdc85c36152b8152f35b34610429576000366003190112610429576020600954604051908152f35b346104295760403660031901126104295761073861336e565b610740613358565b9060018060a01b038091166000526001602052604060002091166000526020526020604060002054604051908152f35b346104295760203660031901126104295760206105df61078e61336e565b614960565b34610429576040366003190112610429576107d26004356107b2613358565b908060005260066020526107cd60016040600020015461353e565b6135e4565b005b346104295760203660031901126104295760206105df6107f261336e565b614929565b346104295760403660031901126104295760206105df61081561336e565b61081d613358565b90614fc2565b346104295760203660031901126104295760206105df61084161336e565b613d57565b346104295760203660031901126104295761085f61336e565b5060206105df614912565b34610429576000366003190112610429576040517f00000000000000000000000000000000000000000000000000000000000000006001600160a01b03168152602090f35b34610429576108bd36613471565b906108c782614960565b808411610dc057506108e46108db846139b3565b600b5490614af1565b916108ed613cc6565b336001600160a01b03821603610db0575b610908848261443c565b610910613eed565b610d6e5761092661092030613ce9565b90614987565b60405163313ce56760e01b80825291906020816004817f00000000000000000000000000000000000000000000000000000000000000006001600160a01b03165afa908115610d1257600091610d4f575b506109aa7f00000000000000000000000000000000000000000000000000000000000000006001600160a01b0316613d57565b6040519384526020846004817f00000000000000000000000000000000000000000000000000000000000000006001600160a01b03165afa928315610d1257610a3694600094610d1e575b5060ff80610a2b7f00000000000000000000000000000000000000000000000000000000000000006001600160a01b0316613d57565b951693169088614a85565b604051636eb1769f60e11b81523360048201523060248201529091906020816044816001600160a01b037f0000000000000000000000000000000000000000000000000000000000000000165afa8015610d12578391600091610cdd575b5010610c8957610acf8230337f00000000000000000000000000000000000000000000000000000000000000006001600160a01b0316613f63565b610b0330837f00000000000000000000000000000000000000000000000000000000000000006001600160a01b03166144db565b94610b3830867f00000000000000000000000000000000000000000000000000000000000000006001600160a01b03166146e9565b92600019810196818811610c73576020978110610bd7575b50610b87905083857f00000000000000000000000000000000000000000000000000000000000000006001600160a01b0316613c27565b60408051938452868401919091526001600160a01b03918216939091169133917ffbde797d201c681b91056529119e0b02407c7bb96a4a2c75c01fc9667232c8db91a46001600755604051908152f35b610be091613f56565b610c1481337f00000000000000000000000000000000000000000000000000000000000000006001600160a01b0316613c27565b60405190815233907f00000000000000000000000000000000000000000000000000000000000000006001600160a01b0316907f858a27e141780954fe5d38ba55127b6c35f8f5904c3a088438a18578d5d71eee908990a38680610b50565b634e487b7160e01b600052601160045260246000fd5b6040516326938fb560e01b81523360048201523060248201526001600160a01b037f000000000000000000000000000000000000000000000000000000000000000016604482015260648101839052608490fd5b9150506020813d602011610d0a575b81610cf96020938361370c565b810103126104295782905187610a94565b3d9150610cec565b6040513d6000823e3d90fd5b610d4191945060203d602011610d48575b610d39818361370c565b810190613df2565b92896109f5565b503d610d2f565b610d68915060203d602011610d4857610d39818361370c565b87610977565b610d7a61092030613ce9565b60085460405163391f5eb560e01b8152600481019290925263ffffffff808216602484015260209190911c166044820152606490fd5b610dbb84338361387f565b6108fe565b604051632e52afbb60e21b81526001600160a01b039390931660048401526024830193909352506044810191909152606490fd5b34610429576000366003190112610429576020604051620186a08152f35b3461042957610e2036613471565b610e2c81939293614929565b8083116110fe5750610e48610e43600b5484614ab8565b613952565b91610e51613cc6565b6001600160a01b0382811692610e6f9085903386036110ee5761443c565b610e77613eed565b610d6e57610e8761092030613ce9565b94817f000000000000000000000000000000000000000000000000000000000000000016926040519063313ce56760e01b80835260209889846004818a5afa938415610d12576000946110cf575b50610edf87613d57565b93867f000000000000000000000000000000000000000000000000000000000000000016946040519384528b84600481895afa928315610d1257610f3d946000946110b0575b5060ff80610f3289613d57565b951693169086614a85565b604051636eb1769f60e11b81523360048201523060248201529092908981604481855afa8015610d1257849160009161107f575b501061104757610f8383303384613f63565b610f9a610f913085846144db565b923090886146e9565b95600019840191848311610c7357610fbf948487948a9610610fff575b505050613c27565b604051928352848684015216907ffbde797d201c681b91056529119e0b02407c7bb96a4a2c75c01fc9667232c8db60403392a46001600755604051908152f35b61100891613f56565b90611014823383613c27565b6040519182527f858a27e141780954fe5d38ba55127b6c35f8f5904c3a088438a18578d5d71eee8c3393a38a8080610fb7565b6040516326938fb560e01b81523360048201523060248201526001600160a01b03919091166044820152606481019290925250608490fd5b8092508b8092503d83116110a9575b611098818361370c565b81010312610429578390518b610f71565b503d61108e565b6110c89194508d803d10610d4857610d39818361370c565b928d610f25565b6110e79194508a3d8c11610d4857610d39818361370c565b928a610ed5565b6110f982338361387f565b61443c565b604051633fa733bb60e21b81526001600160a01b0392909216600483015260248201929092526044810191909152606490fd5b346104295760203660031901126104295760206105df6004356139e2565b34610429576000366003190112610429576040517f00000000000000000000000000000000000000000000000000000000000000006001600160a01b03168152602090f35b346104295760003660031901126104295760206001600160a01b036111b7614c8d565b16604051908152f35b34610429576000366003190112610429576040517f00000000000000000000000000000000000000000000000000000000000000006001600160a01b03168152602090f35b3461042957600036600319011261042957600f546040516001600160a01b039091168152602090f35b34610429576000366003190112610429576020611249613eed565b6040519015158152f35b346104295760403660031901126104295761127961126f61336e565b602435903361372e565b602060405160018152f35b3461042957600036600319011261042957602060405160008152f35b34610429576020366003190112610429576112b961336e565b6112c161365b565b6001600160a01b0381811691821561132d573b1561131b57600f54826bffffffffffffffffffffffff60a01b821617600f55167fd41ddf0add6cf5f4e7067e117b677c4bf3a6b26973090e908241a081fae54a4b600080a3005b6040516309c7768560e41b8152600490fd5b60405163d92e233d60e01b8152600490fd5b34610429576020366003190112610429577f67fef5f7f784ddd197d63c3a14901057b9271a11b8b97a118471777da6fede4c604060043561137e61365b565b611386613cc6565b600954908060095582519182526020820152a16001600755005b6133e3565b34610429576000366003190112610429576020600a54604051908152f35b3461042957600036600319011261042957604051600090600454600181811c908083169283156114be575b60209384841081146114a857838652908115611488575060011461142d575b6114298461141d8188038261370c565b60405191829182613384565b0390f35b600460009081529294507f8a35acfbc15ff81a39ae7d344fd709f28e8600b4aa8c65c6b64bfe7fe36bd19b5b82841061147557505050816114299361141d928201019361140d565b8054858501870152928501928101611459565b60ff1916858501525050151560051b820101915061141d8161142961140d565b634e487b7160e01b600052602260045260246000fd5b91607f16916113ee565b34610429576040366003190112610429576114e1613358565b6114e9614912565b80600435116119d657506114fe6004356139e2565b611506613cc6565b600435156119c457611516613eed565b610d6e5761152661092030613ce9565b604051636eb1769f60e11b81523360048201523060248201526020816044816001600160a01b037f0000000000000000000000000000000000000000000000000000000000000000165afa8015610d1257839160009161198f575b501061193b576115bc8230337f00000000000000000000000000000000000000000000000000000000000000006001600160a01b0316613f63565b6115f030837f00000000000000000000000000000000000000000000000000000000000000006001600160a01b0316613fbc565b60405163313ce56760e01b8082529192906020816004817f00000000000000000000000000000000000000000000000000000000000000006001600160a01b03165afa908115610d125760009161191c575b506116757f00000000000000000000000000000000000000000000000000000000000000006001600160a01b0316613d57565b6040519384526020846004817f00000000000000000000000000000000000000000000000000000000000000006001600160a01b03165afa918215610d1257611767946000936118f3575b5091926117389261172b916116fd7f00000000000000000000000000000000000000000000000000000000000000006001600160a01b0316613d57565b9381156118c5575b61171560ff61171c939416614a77565b9089613b6a565b61172582613f34565b90613b6a565b61172560ff309516614a77565b7f00000000000000000000000000000000000000000000000000000000000000006001600160a01b0316614274565b600019830191838311610c73576117b0928110611828575b50837f00000000000000000000000000000000000000000000000000000000000000006001600160a01b0316613c27565b6001600160a01b038216801561180f576117cf60209360043590613811565b604051828152600435848201527fdcbc1c05240f31ff3ad067ef1ee35ce4997762752e3a095284754544f4c709d760403392a36001600755604051908152f35b60405163ec442f0560e01b815260006004820152602490fd5b6118329084613f56565b61186681337f00000000000000000000000000000000000000000000000000000000000000006001600160a01b0316613c27565b60405190815233907f00000000000000000000000000000000000000000000000000000000000000006001600160a01b0316907f21fa991d1ca60543187d2a0de62e5ea0ce1a703a3f0021354ae2f9a75dc0e34d90602090a38461177f565b7f000000000000000000000000000000000000000000000000000000000000000063ffffffff169150611705565b61173893509061191461172b9260203d602011610d4857610d39818361370c565b9350906116c0565b611935915060203d602011610d4857610d39818361370c565b86611642565b604051631518e3a360e01b81523360048201523060248201526001600160a01b037f000000000000000000000000000000000000000000000000000000000000000016604482015260648101839052608490fd5b9150506020813d6020116119bc575b816119ab6020938361370c565b810103126104295782905185611581565b3d915061199e565b604051639811e0c760e01b8152600490fd5b60405163284ff66760e01b81526001600160a01b03929092166004808401919091523560248301526044820152606490fd5b3461042957604036600319011261042957611a21613358565b600435600052600660205260406000209060018060a01b0316600052602052602060ff604060002054166040519015158152f35b34610429576000366003190112610429576005546040516001600160a01b039091168152602090f35b3461042957600036600319011261042957602060085463ffffffff60405191831c168152f35b346104295760003660031901126104295760206105df6148cf565b3461042957600036600319011261042957602063ffffffff60085416604051908152f35b346104295760003660031901126104295760206040517f00000000000000000000000000000000000000000000000000000000000000008152f35b3461042957600036600319011261042957602060405163ffffffff7f0000000000000000000000000000000000000000000000000000000000000000168152f35b3461042957611b6d366133cd565b611b75613cc6565b611b8161092030613ce9565b7f00000000000000000000000000000000000000000000000000000000000000009263ffffffff841680831115611e0a57611bba6148cf565b60405163313ce56760e01b8082526001600160a01b037f0000000000000000000000000000000000000000000000000000000000000000811694939260209182826004818a5afa918215610d1257600092611deb575b50611c1a87613d57565b907f000000000000000000000000000000000000000000000000000000000000000016936040519081528381600481885afa938415610d1257600094611dcc575b5050611c6684613d57565b918815611dba5761172560ff611cb6611cdb98620f4240611ca2611c9c8f611cbd9a611c9688611cd29e16614a77565b91613b6a565b926137f3565b611cac8184613a4d565b9209151590613804565b9216614a77565b91611cca87303384613f63565b8630916144db565b503090846146e9565b93858510611d9c57611cef61092030613ce9565b9182108015611d92575b611d675750507fae5e19ae4628c7ce8fe13292352b899b81124046fe5f2bb08004d24866fd45c89394508280611d55575b50506040805182815260208101959095528401526060830152339180608081015b0390a26001600755005b611d60913390613c27565b8482611d2a565b604051636a3f633560e11b8152600481019290925263ffffffff871660248301526044820152606490fd5b5080821015611cf9565b6044858760405191636fe9fab760e01b835260048301526024820152fd5b60405163681b8c4360e01b8152600490fd5b611de3929450803d10610d4857610d39818361370c565b918b80611c5b565b611e03919250833d8511610d4857610d39818361370c565b908b611c10565b60405163de9f90d760e01b81526004810184905263ffffffff86166024820152604490fd5b3461042957600036600319011261042957611e4861365b565b600580546001600160a01b031981169091556000906001600160a01b03167f8be0079c531659141344cd1fd0a4f28419497f9722a3daafe3b4186f6b6457e08280a3005b346104295760203660031901126104295760206105df611eaa61336e565b6001600160a01b031660009081526020819052604090205490565b3461042957604036600319011261042957611ede613358565b611ee6614912565b80600435116122585750611efb600435613984565b611f03613cc6565b80156119c457611f11613eed565b610d6e57611f2161092030613ce9565b604051636eb1769f60e11b81523360048201523060248201526020816044816001600160a01b037f0000000000000000000000000000000000000000000000000000000000000000165afa908115610d1257600091612226575b50600435116121cf57611fbb60043530337f00000000000000000000000000000000000000000000000000000000000000006001600160a01b0316613f63565b611ff1306004357f00000000000000000000000000000000000000000000000000000000000000006001600160a01b0316613fbc565b60405163313ce56760e01b8082529192906020816004817f00000000000000000000000000000000000000000000000000000000000000006001600160a01b03165afa908115610d12576000916121b0575b506120767f00000000000000000000000000000000000000000000000000000000000000006001600160a01b0316613d57565b6040519384526020846004817f00000000000000000000000000000000000000000000000000000000000000006001600160a01b03165afa918215610d12576120fd946000936118f3575091926117389261172b916116fd7f00000000000000000000000000000000000000000000000000000000000000006001600160a01b0316613d57565b600435600019810192908311610c73576121489281106121a45750837f00000000000000000000000000000000000000000000000000000000000000006001600160a01b0316613c27565b6001600160a01b038216801561180f5761216482602094613811565b604051600435815282848201527fdcbc1c05240f31ff3ad067ef1ee35ce4997762752e3a095284754544f4c709d760403392a36001600755604051908152f35b61183290600435613f56565b6121c9915060203d602011610d4857610d39818361370c565b86612043565b604051631518e3a360e01b8152336004808301919091523060248301526001600160a01b037f0000000000000000000000000000000000000000000000000000000000000000166044830152356064820152608490fd5b90506020813d602011612250575b816122416020938361370c565b81010312610429575184611f7b565b3d9150612234565b604051633c8097d960e11b81526001600160a01b03929092166004808401919091523560248301526044820152606490fd5b3461042957600036600319011261042957600c546040516001600160a01b039091168152602090f35b346104295760003660031901126104295760206001600160a01b036111b7614d18565b3461042957600036600319011261042957602060405160028152f35b346104295760403660031901126104295760206105df612310613358565b600435613e0b565b34610429576000366003190112610429576040517f00000000000000000000000000000000000000000000000000000000000000006001600160a01b03168152602090f35b34610429576020366003190112610429576004356123796134c4565b80156123b85760407f46c287b860f967b39d89a1692e6486d60e4d66ea2cde369816239edaf4e0656991600e549080600e5582519182526020820152a1005b6040516354a62ce560e01b8152600490fd5b346104295760203660031901126104295760406123ed6123e861336e565b613ce9565b82519182526020820152f35b3461042957600036600319011261042957611429612415614b23565b604051918291602083526020830190613434565b346104295760203660031901126104295760206105df6108db6004356139b3565b34610429576000366003190112610429576020600e54604051908152f35b346104295760603660031901126104295760243560043567ffffffffffffffff8083116104295736602384011215610429578083600401351161042957366024846004013560051b85010111610429576044356001600160a01b03811690819003610429576124d5613cc6565b600e548084106129445750156128f657826004013515612932577f00000000000000000000000000000000000000000000000000000000000000006001600160a01b031661252583303384613f63565b60405190606082019082528360208301526060604083015284600401359052608081019060248501918260005b8760040135811061290857505090807fc8efbc392b57771291983f003bd32ae9dc5e87ff1388a259b9acf272db4531d8920390a130156128f6576125998460040135614b0b565b916125a7604051938461370c565b6004850135808452601f19906125bc90614b0b565b01366020850137604051906040820190828210908211176128e05760405260018152602036818301376125ee81613bf0565b7f00000000000000000000000000000000000000000000000000000000000000006001600160a01b0316905260005b85600401358110612724575050815184600401358103612702575060005b84600401358110612650576106bf843061443c565b61265a8184613c13565b51612667600d5482613a4d565b8181116126e55782916126d1826126b06126db948b61269d6126986126e09a60018060a01b0393600401358d61513a565b61514a565b600c546001600160a01b03169116613c27565b6001600160a01b036126ca6126988760048e01358b61513a565b1692613f56565b9060443590613c27565b613be1565b61263b565b6044916040519163270c46bf60e01b835260048301526024820152fd5b6044908560405191631aff8a1160e01b83526004830152600401356024820152fd5b6001600160a01b0361273e6126988360048a01358761513a565b1690811561132d576040516370a0823160e01b815230600482015291602083602481845afa928315610d12576000936128ac575b50600f546040516333028b9960e01b815260a060048201529060209082906001600160a01b0316816000816127aa60a482018c613434565b821960248301527f00000000000000000000000000000000000000000000000000000000000000006001600160a01b031660448301523060648301526084820189905203925af18015610d1257612881575b506020602491604051928380926370a0823160e01b82523060048301525afa908115610d125760009161284d575b506128489261283891613f56565b6128428287613c13565b52613be1565b61261d565b90506020813d602011612879575b816128686020938361370c565b81010312610429575161284861282a565b3d915061285b565b602090813d83116128a5575b612897818361370c565b8101031261042957886127fc565b503d61288d565b9092506020813d6020116128d8575b816128c86020938361370c565b8101031261042957519188612772565b3d91506128bb565b634e487b7160e01b600052604160045260246000fd5b6040516313e6c64360e31b8152600490fd5b909182356001600160a01b0381169190829003610429576020816001938293520193019101612552565b604051633ce287ef60e21b8152600490fd5b83604491604051916301959e9f60e51b835260048301526024820152fd5b346104295760003660031901126104295760206105df61092030613ce9565b34610429576000366003190112610429576040517f00000000000000000000000000000000000000000000000000000000000000006001600160a01b03168152602090f35b34610429576040366003190112610429576129df613358565b336001600160a01b038216036129fb576107d2906004356135e4565b60405163334bd91960e11b8152600490fd5b3461042957602036600319011261042957600435612a296134c4565b7f0000000000000000000000000000000000000000000000000000000000000000808211612a8a577f7af7c1a20ca2d95ef775c520be0e875415f760d01d8ab209ad45bfe84839d68e604083600d549080600d5582519182526020820152a1005b604051636cef961f60e11b815260048101929092526024820152604490fd5b346104295760003660031901126104295760ff7f00000000000000000000000000000000000000000000000000000000000000001660ff8111610c7357602090604051908152f35b34610429576040366003190112610429576107d2600435612b10613358565b90806000526006602052612b2b60016040600020015461353e565b613564565b346104295760403660031901126104295760043563ffffffff9081811680910361042957602435918083169081840361042957612b6b61365b565b612b73613cc6565b7f000000000000000000000000000000000000000000000000000000000000000016808310801590612c22575b612bff577fe181be2639e8d7c912d71af8c1c57c83a06fe411204b0bc3fdeb64c935ccd4cf60408484878267ffffffff000000006008549260201b169167ffffffffffffffff1916171760085582519182526020820152a16001600755005b606493506040519263b857eea760e01b8452600484015260248301526044820152fd5b5081811015612ba0565b346104295760203660031901126104295760043560005260066020526020600160406000200154604051908152f35b3461042957602036600319011261042957600435612c7761365b565b612c7f613cc6565b620186a0808211612cc8577fe07cd71654bf041221cc79adf2c12d88abbc33e847b9a2ac73c4e1002628a7d5604083600b549080600b5582519182526020820152a16001600755005b604051630e037d7560e41b815260048101929092526024820152604490fd5b3461042957611279612cf8366133ff565b91612d0483338361387f565b61372e565b34610429576000366003190112610429576040517f00000000000000000000000000000000000000000000000000000000000000006001600160a01b03168152602090f35b3461042957612d5c366133cd565b90612d65613cc6565b612d7161092030613ce9565b917f00000000000000000000000000000000000000000000000000000000000000009063ffffffff821680851015612fe357612dab6148cf565b60405163313ce56760e01b8082526001600160a01b037f0000000000000000000000000000000000000000000000000000000000000000811696919491939192602080826004818c5afa918215610d1257600092612fc4575b50612e0e89613d57565b927f0000000000000000000000000000000000000000000000000000000000000000169660405190815281816004818b5afa918215610d1257600092612fa7575b5050612e5a87613d57565b908a15612f955761172560ff611cb6612eb197612e8d8f612e8790612ea89a611c9687612e939c16614a77565b916137f3565b90613a4d565b96612ea089303384613f63565b883091613fbc565b95309085614274565b96848810612f7757612ec561092030613ce9565b9182118015612f6d575b612f3d5750505084611d4b91817f72b9341ae324ee7e9a41986f370caf7ffb0c989c3c5d7be4b0d94b93bec5a2869697612f2b575b50506040519384933397859094939260609260808301968352602083015260408201520152565b612f36913390613c27565b8681612f04565b604051630262805f60e11b8152600481019290925263ffffffff9290921660248201526044810191909152606490fd5b5080821115612ecf565b604488866040519163ec02e43f60e01b835260048301526024820152fd5b604051631501bbed60e31b8152600490fd5b612fbd9250803d10610d4857610d39818361370c565b8b80612e4f565b81612fdc9293503d8411610d4857610d39818361370c565b908b612e04565b6040516312e9fceb60e21b81526004810186905263ffffffff84166024820152604490fd5b34610429576000366003190112610429576020600254604051908152f35b346104295760403660031901126104295760206105df61304461336e565b61304c613358565b9061503e565b346104295760203660031901126104295760206105df610e43600b54600435614ab8565b346104295760403660031901126104295761308f61336e565b602435903315613115576001600160a01b03169081156130fc57336000526001602052604060002082600052602052806040600020556040519081527f8c5be1e5ebec7d5bd14f71427d1e84f3dd0314c0f7b2291e5b200ac8c7c3b92560203392a3602060405160018152f35b604051634a1406b160e11b815260006004820152602490fd5b60405163e602df0560e01b815260006004820152602490fd5b34610429576000366003190112610429576020613149614c8d565b6040516001600160a01b039091168152f35b346104295760203660031901126104295760206105df6004356139b3565b3461042957600036600319011261042957604051600090600354600181811c9080831692831561322d575b60209384841081146114a85783865290811561148857506001146131d2576114298461141d8188038261370c565b600360009081529294507fc2575a0e9e593c00f959f8c92f12db2869c3395a3b0502d05e2516446f71f85b5b82841061321a57505050816114299361141d928201019361140d565b80548585018701529285019281016131fe565b91607f16916131a4565b3461042957600036600319011261042957602060405160088152f35b34610429576000366003190112610429576020600b54604051908152f35b346104295760403660031901126104295760206105df61328f613358565b600435613e80565b34610429576000366003190112610429576020613149614d18565b346104295760203660031901126104295760043563ffffffff60e01b811680910361042957602090637965db0b60e01b81149081156132f7575b506040519015158152f35b6301ffc9a760e01b149050826132ec565b346104295760003660031901126104295760206105df61332730613ce9565b507f00000000000000000000000000000000000000000000000000000000000000006001600160a01b031690613e0b565b602435906001600160a01b038216820361042957565b600435906001600160a01b038216820361042957565b6020808252825181830181905290939260005b8281106133b957505060409293506000838284010152601f8019910116010190565b818101860151848201604001528501613397565b6040906003190112610429576004359060243590565b3461042957600036600319011261042957602060405160018152f35b6060906003190112610429576001600160a01b0390600435828116810361042957916024359081168103610429579060443590565b90815180825260208080930193019160005b828110613454575050505090565b83516001600160a01b031685529381019392810192600101613446565b606090600319011261042957600435906001600160a01b03906024358281168103610429579160443590811681036104295790565b346104295760203660031901126104295760206105df600435613984565b3360009081527ffe34ed5485dc9fe44fe8269f3027eee2e0a6e4cc4be0ba8f7d037ae76cfa28d360205260409020547f51785d261c3b3e8c2cfe2d0e108b9ab2b1fb703ff9e9e49aba4ebdc85c36152b9060ff16156135205750565b6044906040519063e2517d3f60e01b82523360048301526024820152fd5b80600052600660205260406000203360005260205260ff60406000205416156135205750565b906000918083526006602052604083209160018060a01b03169182845260205260ff604084205416156000146135df5780835260066020526040832082845260205260408320600160ff198254161790557f2f8788117e7eff1d82e926ec794901d17c78024a50270940304540a733656f0d339380a4600190565b505090565b906000918083526006602052604083209160018060a01b03169182845260205260ff6040842054166000146135df578083526006602052604083208284526020526040832060ff1981541690557ff6391f5c32d9c69d2a47ea670b442974b53935d1edc7fd64eb21e047a839171b339380a4600190565b6005546001600160a01b0316330361366f57565b60405163118cdaa760e01b8152336004820152602490fd5b67ffffffffffffffff81116128e057604052565b6060810190811067ffffffffffffffff8211176128e057604052565b6101e0810190811067ffffffffffffffff8211176128e057604052565b6020810190811067ffffffffffffffff8211176128e057604052565b6080810190811067ffffffffffffffff8211176128e057604052565b90601f8019910116810190811067ffffffffffffffff8211176128e057604052565b916001600160a01b038084169283156137da571692831561180f57600090838252816020526040822054908382106137a8575091604082827fddf252ad1be2c89b69c2b068fc378daa952ba7f163c4a11628f55a4df523b3ef958760209652828652038282205586815220818154019055604051908152a3565b60405163391434e360e21b81526001600160a01b03919091166004820152602481019190915260448101839052606490fd5b604051634b637e8f60e11b815260006004820152602490fd5b90620f4240918201809211610c7357565b91908201809211610c7357565b7fddf252ad1be2c89b69c2b068fc378daa952ba7f163c4a11628f55a4df523b3ef602060009261384385600254613804565b6002556001600160a01b0316938415841461386a5780600254036002555b604051908152a3565b84845283825260408420818154019055613861565b9160018060a01b0380931691600093838552600160205260409384862091831691828752602052848620549260001984106138be575b50505050505050565b8484106139225750801561390a5781156138f2578552600160205283852090855260205203912055388080808080806138b5565b8451634a1406b160e11b815260048101879052602490fd5b845163e602df0560e01b815260048101879052602490fd5b8551637dc7a0d960e11b81526001600160a01b039190911660048201526024810184905260448101859052606490fd5b60025460018101809111610c735761396c61332730613ce9565b9060018201809211610c735761398192613a0d565b90565b60025460018101809111610c735761399e61332730613ce9565b9060018201809211610c735761398192613b6a565b6139bf61332730613ce9565b60018101809111610c73576002549060018201809211610c735761398192613b6a565b6139ee61332730613ce9565b60018101809111610c73576002549060018201809211610c7357613981925b91613a19818385613b6a565b918115613a2d576139819309151590613804565b634e487b7160e01b600052601260045260246000fd5b8115613a2d570490565b9060001981830981830291828083109203918083039214613abe57620f42409082821115613aab577fde8f6cefed634549b62c77574f722e1ac57e23f24d8fd5cb790fb65668c26139940990828211900360fa1b910360061c170290565b634e487b7160005260116020526024601cfd5b5050620f424091500490565b620f4240916000198383099280830292838086109503948086039514613b5d5784831115613b44579082910981600003821680920460028082600302188083028203028083028203028083028203028083028203028083028203028092029003029360018380600003040190848311900302920304170290565b82634e487b71600052156003026011186020526024601cfd5b5050906139819250613a43565b90916000198383099280830292838086109503948086039514613b5d5784831115613b44579082910981600003821680920460028082600302188083028203028083028203028083028203028083028203028083028203028092029003029360018380600003040190848311900302920304170290565b6000198114610c735760010190565b805115613bfd5760200190565b634e487b7160e01b600052603260045260246000fd5b8051821015613bfd5760209160051b010190565b60405163a9059cbb60e01b60208201526001600160a01b03929092166024830152604480830193909352918152613c6891613c6360648361370c565b613c6a565b565b906000602091828151910182855af115610d12576000513d613cbd57506001600160a01b0381163b155b613c9b5750565b604051635274afe760e01b81526001600160a01b039091166004820152602490fd5b60011415613c94565b600260075414613cd7576002600755565b604051633ee5aeb560e01b8152600490fd5b6001600160a01b03919061398190613d28613d2d7f00000000000000000000000000000000000000000000000000000000000000008616828482614fc2565b613e80565b947f000000000000000000000000000000000000000000000000000000000000000016918261503e565b6001600160a01b0390602082613d6b614c8d565b169160246040518095819363b3596f0760e01b835216948560048301525afa918215610d1257600092613dbc575b508115613da4575090565b6024906040519063339c9fa160e21b82526004820152fd5b90916020823d8211613dea575b81613dd66020938361370c565b81010312613de75750519038613d99565b80fd5b3d9150613dc9565b90816020910312610429575160ff811681036104295790565b60405163313ce56760e01b815291906020836004816001600160a01b0386165afa918215610d125761398193600093613e55575b5060ff613e4e61172592613d57565b9316614a77565b611725919350613e4e613e7760ff9260203d8111610d4857610d39818361370c565b94925050613e3f565b60405163313ce56760e01b8152916020836004816001600160a01b0385165afa908115610d125761398193600092613ec2575b5060ff611cb6611c9692613d57565b611c96919250611cb6613ee460ff9260203d8111610d4857610d39818361370c565b93925050613eb3565b613ef961092030613ce9565b6008548115159182613f0a57505090565b90915063ffffffff8083168210928315613f25575b50505090565b60201c16109050388080613f1f565b620f423f19810191908211610c7357565b90620f4240918203918211610c7357565b91908203918211610c7357565b6040516323b872dd60e01b60208201526001600160a01b03928316602482015292909116604483015260648083019390935291815260a081019181831067ffffffffffffffff8411176128e057613c6892604052613c6a565b604080516370a0823160e01b8082526001600160a01b0395861660048301819052602096939592949360009281861692918988602481875afa978815614164578598614172575b5061400c614d18565b16614018868286614bb3565b803b1561416e5784809160848b518094819363617ba03760e01b83528960048401528b60248401528860448401528160648401525af1801561416457908a939291614150575b5060249089519485938492835260048301525afa9182156141455791614118575b5061408b8282866141a1565b948551156140df5780860151156140a6575050505050015190565b5163758ad4e760e01b81526001600160a01b03939093166004840152602483019390935260448201929092526064810191909152608490fd5b5163648195a560e11b81526001600160a01b03939093166004840152602483019390935260448201929092526064810191909152608490fd5b90508581813d831161413e575b61412f818361370c565b8101031261042957513861407f565b503d614125565b8651903d90823e3d90fd5b9461415d60249296613687565b949061405e565b89513d87823e3d90fd5b8480fd5b9097508981813d831161419a575b61418a818361370c565b8101031261416e57519638614003565b503d614180565b919091604051906141b18261369b565b602082016000815260408301916000835283958181108086526141fd575b5050508151156141f35750506141e9906020830151614252565b1515604082015290565b6000905292915050565b61420691613f56565b90523880806141cf565b91906040519061421f8261369b565b602082016000815260408301916000835283958082118086526141fd575050508151156141f35750506141e99060208301515b60019180821161426b579061426691613f56565b111590565b61426691613f56565b604080516370a0823160e01b8082526001600160a01b0395861660048301819052602096939592949360009281861692918988602481875afa97881561416457859861440d575b506142c4614d18565b16803b1561416e5784809160a48b518094819363a415bcad60e01b83528960048401528b6024840152600260448401528160648401528860848401525af1801561416457908a9392916143f9575b5060249089519485938492835260048301525afa91821561414557916143cc575b5061433f828286614210565b9485511561439357808601511561435a575050505050015190565b516371e5ed5360e01b81526001600160a01b03939093166004840152602483019390935260448201929092526064810191909152608490fd5b51631216cb9b60e11b81526001600160a01b03939093166004840152602483019390935260448201929092526064810191909152608490fd5b90508581813d83116143f2575b6143e3818361370c565b81010312610429575138614333565b503d6143d9565b9461440660249296613687565b9490614312565b9097508981813d8311614435575b614425818361370c565b8101031261416e575196386142bb565b503d61441b565b906001600160a01b0382169081156137da57600092828452836020526040842054908282106144a95750817fddf252ad1be2c89b69c2b068fc378daa952ba7f163c4a11628f55a4df523b3ef926020928587528684520360408620558060025403600255604051908152a3565b60405163391434e360e21b81526001600160a01b03919091166004820152602481019190915260448101829052606490fd5b91906144e7828461503e565b9081808210911802189060018060a01b039283811692604093845193866370a0823160e01b9182875216908160048701526020978887602481875afa9687156146ab579089916000986146b6575b5090600091614542614d18565b1661454e878288614bb3565b60848a518094819363573ade8160e01b83528960048401528a6024840152600260448401528860648401525af180156146ab57908993929161467f575b5060249088519485938492835260048301525afa90811561467457600091614647575b506145ba8282866141a1565b9485511561460e5780860151156145d5575050505050015190565b51634023dad760e11b81526001600160a01b03939093166004840152602483019390935260448201929092526064810191909152608490fd5b516301b6cca560e11b81526001600160a01b03939093166004840152602483019390935260448201929092526064810191909152608490fd5b908682813d831161466d575b61465d818361370c565b81010312613de7575051386145ae565b503d614653565b85513d6000823e3d90fd5b8391933d83116146a4575b614694818361370c565b810103126104295787913861458b565b503d61468a565b88513d6000823e3d90fd5b9182819992993d83116146e2575b6146ce818361370c565b81010312613de75750519588906000614535565b503d6146c4565b91906146f58284614fc2565b9081808210911802189060018060a01b039283811692604093845193866370a0823160e01b9182875216908160048701526020978887602481875afa9687156146ab5790899160009861489c575b5090600091614750614d18565b1660648a5180948193631a4ca37b60e21b83528960048401528a60248401528860448401525af180156146ab579089939291614870575b5060249088519485938492835260048301525afa90811561467457600091614843575b506147b6828286614210565b9485511561480a5780860151156147d1575050505050015190565b51633b6d51ff60e21b81526001600160a01b03939093166004840152602483019390935260448201929092526064810191909152608490fd5b5163eefde95560e01b81526001600160a01b03939093166004840152602483019390935260448201929092526064810191909152608490fd5b908682813d8311614869575b614859818361370c565b81010312613de7575051386147aa565b503d61484f565b8391933d8311614895575b614885818361370c565b8101031261042957879138614787565b503d61487b565b9182819992993d83116148c8575b6148b4818361370c565b81010312613de75750519588906000614743565b503d6148aa565b6139816148de61092030613ce9565b600954600a549163ffffffff7f00000000000000000000000000000000000000000000000000000000000000001690614a10565b61491a613eed565b6149245760001990565b600090565b614931613eed565b61495a576001600160a01b0316600090815260208190526040902054613981906108db906139b3565b50600090565b614968613eed565b61495a576001600160a01b031660009081526020819052604090205490565b908082106149f25781156149eb578082146149e357620f424091828102908082048403610c73576149c1926149bb91613f56565b90613a43565b9081106149cb5790565b602490604051906369bb335560e01b82526004820152fd5b505060001990565b5050600090565b60449250604051916378ea417b60e11b835260048301526024820152fd5b919291600082821115614a52575081614a2891613f56565b918210614a4a57614a3891613aca565b905b808211614a45575090565b905090565b505050600090565b939290614a5f9083613f56565b908110613f1f57614a71929350613aca565b90614a3a565b604d8111610c7357600a0a90565b91949392908015614aad5761171c61172593614aa793611c9661398199614a77565b91614a77565b505050505050600090565b919091620f42408311614ad857614ad26139819293613f45565b90613aca565b604051634d97211f60e01b815260048101849052602490fd5b919091620f42408311614ad857612e8d6139819293613f45565b67ffffffffffffffff81116128e05760051b60200190565b6001600160a01b03614b567f00000000000000000000000000000000000000000000000000000000000000008216614d89565b9060405191614b64836136f0565b6003835260603660208501378161010082015116614b8184613bf0565b52816101408201511690835160011015613bfd57610120916040850152015116815160021015613bfd57606082015290565b60405163095ea7b360e01b60208083018281526001600160a01b03861660248501526044808501979097529583529094919391600090614bf460648761370c565b85519082865af16000513d82614c54575b505015614c13575b50505050565b614c4b93613c639160405191602083015260018060a01b031660248201526000604482015260448152614c45816136f0565b82613c6a565b38808080614c0d565b909150614c7157506001600160a01b0382163b15155b3880614c05565b600114614c6a565b51906001600160a01b038216820361042957565b604051631f94a27560e31b81526001600160a01b03906020816004817f000000000000000000000000000000000000000000000000000000000000000086165afa908115610d1257600091614ce157501690565b906020823d8211614d10575b81614cfa6020938361370c565b81010312613de75750614d0c90614c79565b1690565b3d9150614ced565b60405163026b1d5f60e01b81526001600160a01b03906020816004817f000000000000000000000000000000000000000000000000000000000000000086165afa908115610d1257600091614ce157501690565b51906fffffffffffffffffffffffffffffffff8216820361042957565b6040908151614d97816136b7565b825191614da3836136d4565b600092838152825282602083015282848301528260608301528260808301528260a08301528260c08301528260e08301526101008381840152610120848185015261014085818601526101609086828701526101809287848801526101a0948886890152886101c08099015260018060a01b039889614e20614d18565b168b519a8b996335ea6a7560e01b8b521660048a01528860246101e09c8d935afa9a8b15614fb857819b614e5d575b505050505050505050505090565b90919293949596978a819a9b9c503d8d11614fb1575b614e7d818361370c565b8101039a8b12614fad57602081519b614e958d6136b7565b12614fad578051614ea5816136d4565b895181528b52614eb760208a01614d6c565b60208c0152614ec7818a01614d6c565b908b0152614ed760608901614d6c565b60608b0152614ee860808901614d6c565b60808b0152614ef960a08901614d6c565b60a08b015260c088015164ffffffffff81168103614fad5760c08b015260e08801519061ffff82168203613de7575091614f99979593918997959360e08c0152614f44818801614c79565b908b0152614f53818701614c79565b908a0152614f62818601614c79565b90890152614f71818501614c79565b90880152614f80818401614d6c565b90870152614f8f818301614d6c565b9086015201614d6c565b908201523880808080808080808080614e4f565b5080fd5b503d614e73565b51903d90823e3d90fd5b6020906001600160a01b0390602490829061010090614fe090614d89565b0151169360405194859384926370a0823160e01b84521660048301525afa908115610d1257600091615010575090565b906020823d8211615036575b816150296020938361370c565b81010312613de757505190565b3d915061501c565b61504a90929192614d89565b6101408101516040516370a0823160e01b8082526001600160a01b0395861660048301819052602096919390919087908490602490829085165afa948515610d12578793600096615102575b5090610120602492015116936040519485938492835260048301525afa938415610d12576000946150cf575b5050916139819192613804565b81813d83116150fb575b6150e3818361370c565b810103126150f757519250613981386150c2565b8380fd5b503d6150d9565b91929382819792973d8311615133575b61511c818361370c565b81010312613de75750519386929190610120615096565b503d615112565b9190811015613bfd5760051b0190565b356001600160a01b0381168103610429579056fea26469706673582212200f359354bfbd5db74f73deeb0036fecdd806ba2eb9c1f9cd7486086130b62f7f64736f6c634300081400332f8788117e7eff1d82e926ec794901d17c78024a50270940304540a733656f0d",
  "libraries": {
    "DLoopCoreLogic": "0x9298e151bf0BD8C4662293D084e7dB1942C8fc14"
  }
}