{
  "address": "0x3f70d2E9d2245Da25ef7cf66cAf5Fc1fDA9De073",
  "abi": [
    {
      "inputs": [
        {
          "internalType": "address",
          "name": "_dStakeToken",
          "type": "address"
        },
        {
          "internalType": "address",
          "name": "_collateralVault",
          "type": "address"
        }
      ],
      "stateMutability": "nonpayable",
      "type": "constructor"
    },
    {
      "inputs": [],
      "name": "AccessControlBadConfirmation",
      "type": "error"
    },
    {
      "inputs": [
        {
          "internalType": "address",
          "name": "account",
          "type": "address"
        },
        {
          "internalType": "bytes32",
          "name": "neededRole",
          "type": "bytes32"
        }
      ],
      "name": "AccessControlUnauthorizedAccount",
      "type": "error"
    },
    {
      "inputs": [
        {
          "internalType": "address",
          "name": "adapter",
          "type": "address"
        },
        {
          "internalType": "address",
          "name": "expectedAsset",
          "type": "address"
        },
        {
          "internalType": "address",
          "name": "actualAsset",
          "type": "address"
        }
      ],
      "name": "AdapterAssetMismatch",
      "type": "error"
    },
    {
      "inputs": [
        {
          "internalType": "address",
          "name": "vaultAsset",
          "type": "address"
        }
      ],
      "name": "AdapterNotFound",
      "type": "error"
    },
    {
      "inputs": [
        {
          "internalType": "string",
          "name": "message",
          "type": "string"
        }
      ],
      "name": "InconsistentState",
      "type": "error"
    },
    {
      "inputs": [
        {
          "internalType": "address",
          "name": "vaultAsset",
          "type": "address"
        },
        {
          "internalType": "uint256",
          "name": "expected",
          "type": "uint256"
        },
        {
          "internalType": "uint256",
          "name": "actual",
          "type": "uint256"
        }
      ],
      "name": "InsufficientDStableFromAdapter",
      "type": "error"
    },
    {
      "inputs": [
        {
          "internalType": "address",
          "name": "token",
          "type": "address"
        }
      ],
      "name": "SafeERC20FailedOperation",
      "type": "error"
    },
    {
      "inputs": [
        {
          "internalType": "address",
          "name": "toAsset",
          "type": "address"
        },
        {
          "internalType": "uint256",
          "name": "calculatedAmount",
          "type": "uint256"
        },
        {
          "internalType": "uint256",
          "name": "minAmount",
          "type": "uint256"
        }
      ],
      "name": "SlippageCheckFailed",
      "type": "error"
    },
    {
      "inputs": [
        {
          "internalType": "address",
          "name": "vaultAsset",
          "type": "address"
        },
        {
          "internalType": "address",
          "name": "existingAdapter",
          "type": "address"
        }
      ],
      "name": "VaultAssetManagedByDifferentAdapter",
      "type": "error"
    },
    {
      "inputs": [],
      "name": "ZeroAddress",
      "type": "error"
    },
    {
      "inputs": [
        {
          "internalType": "address",
          "name": "fromAsset",
          "type": "address"
        },
        {
          "internalType": "uint256",
          "name": "fromAmount",
          "type": "uint256"
        }
      ],
      "name": "ZeroInputDStableValue",
      "type": "error"
    },
    {
      "inputs": [
        {
          "internalType": "address",
          "name": "vaultAsset",
          "type": "address"
        }
      ],
      "name": "ZeroPreviewWithdrawAmount",
      "type": "error"
    },
    {
      "anonymous": false,
      "inputs": [
        {
          "indexed": true,
          "internalType": "address",
          "name": "vaultAsset",
          "type": "address"
        },
        {
          "indexed": false,
          "internalType": "address",
          "name": "adapterAddress",
          "type": "address"
        }
      ],
      "name": "AdapterRemoved",
      "type": "event"
    },
    {
      "anonymous": false,
      "inputs": [
        {
          "indexed": true,
          "internalType": "address",
          "name": "vaultAsset",
          "type": "address"
        },
        {
          "indexed": false,
          "internalType": "address",
          "name": "adapterAddress",
          "type": "address"
        }
      ],
      "name": "AdapterSet",
      "type": "event"
    },
    {
      "anonymous": false,
      "inputs": [
        {
          "indexed": true,
          "internalType": "address",
          "name": "vaultAsset",
          "type": "address"
        }
      ],
      "name": "DefaultDepositVaultAssetSet",
      "type": "event"
    },
    {
      "anonymous": false,
      "inputs": [
        {
          "indexed": false,
          "internalType": "uint256",
          "name": "newDustTolerance",
          "type": "uint256"
        }
      ],
      "name": "DustToleranceSet",
      "type": "event"
    },
    {
      "anonymous": false,
      "inputs": [
        {
          "indexed": true,
          "internalType": "address",
          "name": "fromAsset",
          "type": "address"
        },
        {
          "indexed": true,
          "internalType": "address",
          "name": "toAsset",
          "type": "address"
        },
        {
          "indexed": false,
          "internalType": "uint256",
          "name": "fromAssetAmount",
          "type": "uint256"
        },
        {
          "indexed": false,
          "internalType": "uint256",
          "name": "toAssetAmount",
          "type": "uint256"
        },
        {
          "indexed": false,
          "internalType": "uint256",
          "name": "dStableAmountEquivalent",
          "type": "uint256"
        },
        {
          "indexed": true,
          "internalType": "address",
          "name": "exchanger",
          "type": "address"
        }
      ],
      "name": "Exchanged",
      "type": "event"
    },
    {
      "anonymous": false,
      "inputs": [
        {
          "indexed": true,
          "internalType": "bytes32",
          "name": "role",
          "type": "bytes32"
        },
        {
          "indexed": true,
          "internalType": "bytes32",
          "name": "previousAdminRole",
          "type": "bytes32"
        },
        {
          "indexed": true,
          "internalType": "bytes32",
          "name": "newAdminRole",
          "type": "bytes32"
        }
      ],
      "name": "RoleAdminChanged",
      "type": "event"
    },
    {
      "anonymous": false,
      "inputs": [
        {
          "indexed": true,
          "internalType": "bytes32",
          "name": "role",
          "type": "bytes32"
        },
        {
          "indexed": true,
          "internalType": "address",
          "name": "account",
          "type": "address"
        },
        {
          "indexed": true,
          "internalType": "address",
          "name": "sender",
          "type": "address"
        }
      ],
      "name": "RoleGranted",
      "type": "event"
    },
    {
      "anonymous": false,
      "inputs": [
        {
          "indexed": true,
          "internalType": "bytes32",
          "name": "role",
          "type": "bytes32"
        },
        {
          "indexed": true,
          "internalType": "address",
          "name": "account",
          "type": "address"
        },
        {
          "indexed": true,
          "internalType": "address",
          "name": "sender",
          "type": "address"
        }
      ],
      "name": "RoleRevoked",
      "type": "event"
    },
    {
      "anonymous": false,
      "inputs": [
        {
          "indexed": true,
          "internalType": "address",
          "name": "adapter",
          "type": "address"
        },
        {
          "indexed": true,
          "internalType": "address",
          "name": "vaultAsset",
          "type": "address"
        },
        {
          "indexed": true,
          "internalType": "address",
          "name": "dStakeToken",
          "type": "address"
        },
        {
          "indexed": false,
          "internalType": "uint256",
          "name": "vaultAssetAmount",
          "type": "uint256"
        },
        {
          "indexed": false,
          "internalType": "uint256",
          "name": "dStableAmount",
          "type": "uint256"
        }
      ],
      "name": "RouterDeposit",
      "type": "event"
    },
    {
      "anonymous": false,
      "inputs": [
        {
          "indexed": false,
          "internalType": "uint256",
          "name": "amount",
          "type": "uint256"
        }
      ],
      "name": "SurplusHeld",
      "type": "event"
    },
    {
      "anonymous": false,
      "inputs": [
        {
          "indexed": false,
          "internalType": "uint256",
          "name": "amount",
          "type": "uint256"
        },
        {
          "indexed": false,
          "internalType": "address",
          "name": "vaultAsset",
          "type": "address"
        }
      ],
      "name": "SurplusSwept",
      "type": "event"
    },
    {
      "anonymous": false,
      "inputs": [
        {
          "indexed": true,
          "internalType": "address",
          "name": "vaultAsset",
          "type": "address"
        },
        {
          "indexed": false,
          "internalType": "uint256",
          "name": "vaultAssetAmount",
          "type": "uint256"
        },
        {
          "indexed": false,
          "internalType": "uint256",
          "name": "dStableAmount",
          "type": "uint256"
        },
        {
          "indexed": false,
          "internalType": "address",
          "name": "owner",
          "type": "address"
        },
        {
          "indexed": false,
          "internalType": "address",
          "name": "receiver",
          "type": "address"
        }
      ],
      "name": "Withdrawn",
      "type": "event"
    },
    {
      "inputs": [],
      "name": "COLLATERAL_EXCHANGER_ROLE",
      "outputs": [
        {
          "internalType": "bytes32",
          "name": "",
          "type": "bytes32"
        }
      ],
      "stateMutability": "view",
      "type": "function"
    },
    {
      "inputs": [],
      "name": "DEFAULT_ADMIN_ROLE",
      "outputs": [
        {
          "internalType": "bytes32",
          "name": "",
          "type": "bytes32"
        }
      ],
      "stateMutability": "view",
      "type": "function"
    },
    {
      "inputs": [],
      "name": "DSTAKE_TOKEN_ROLE",
      "outputs": [
        {
          "internalType": "bytes32",
          "name": "",
          "type": "bytes32"
        }
      ],
      "stateMutability": "view",
      "type": "function"
    },
    {
      "inputs": [
        {
          "internalType": "address",
          "name": "vaultAsset",
          "type": "address"
        },
        {
          "internalType": "address",
          "name": "adapterAddress",
          "type": "address"
        }
      ],
      "name": "addAdapter",
      "outputs": [],
      "stateMutability": "nonpayable",
      "type": "function"
    },
    {
      "inputs": [],
      "name": "collateralVault",
      "outputs": [
        {
          "internalType": "contract IDStakeCollateralVault",
          "name": "",
          "type": "address"
        }
      ],
      "stateMutability": "view",
      "type": "function"
    },
    {
      "inputs": [],
      "name": "dStable",
      "outputs": [
        {
          "internalType": "address",
          "name": "",
          "type": "address"
        }
      ],
      "stateMutability": "view",
      "type": "function"
    },
    {
      "inputs": [],
      "name": "dStakeToken",
      "outputs": [
        {
          "internalType": "address",
          "name": "",
          "type": "address"
        }
      ],
      "stateMutability": "view",
      "type": "function"
    },
    {
      "inputs": [],
      "name": "defaultDepositVaultAsset",
      "outputs": [
        {
          "internalType": "address",
          "name": "",
          "type": "address"
        }
      ],
      "stateMutability": "view",
      "type": "function"
    },
    {
      "inputs": [
        {
          "internalType": "uint256",
          "name": "dStableAmount",
          "type": "uint256"
        }
      ],
      "name": "deposit",
      "outputs": [],
      "stateMutability": "nonpayable",
      "type": "function"
    },
    {
      "inputs": [],
      "name": "dustTolerance",
      "outputs": [
        {
          "internalType": "uint256",
          "name": "",
          "type": "uint256"
        }
      ],
      "stateMutability": "view",
      "type": "function"
    },
    {
      "inputs": [
        {
          "internalType": "address",
          "name": "fromVaultAsset",
          "type": "address"
        },
        {
          "internalType": "address",
          "name": "toVaultAsset",
          "type": "address"
        },
        {
          "internalType": "uint256",
          "name": "fromVaultAssetAmount",
          "type": "uint256"
        },
        {
          "internalType": "uint256",
          "name": "minToVaultAssetAmount",
          "type": "uint256"
        }
      ],
      "name": "exchangeAssets",
      "outputs": [],
      "stateMutability": "nonpayable",
      "type": "function"
    },
    {
      "inputs": [
        {
          "internalType": "address",
          "name": "fromVaultAsset",
          "type": "address"
        },
        {
          "internalType": "address",
          "name": "toVaultAsset",
          "type": "address"
        },
        {
          "internalType": "uint256",
          "name": "fromVaultAssetAmount",
          "type": "uint256"
        },
        {
          "internalType": "uint256",
          "name": "minToVaultAssetAmount",
          "type": "uint256"
        }
      ],
      "name": "exchangeAssetsUsingAdapters",
      "outputs": [],
      "stateMutability": "nonpayable",
      "type": "function"
    },
    {
      "inputs": [
        {
          "internalType": "bytes32",
          "name": "role",
          "type": "bytes32"
        }
      ],
      "name": "getRoleAdmin",
      "outputs": [
        {
          "internalType": "bytes32",
          "name": "",
          "type": "bytes32"
        }
      ],
      "stateMutability": "view",
      "type": "function"
    },
    {
      "inputs": [
        {
          "internalType": "bytes32",
          "name": "role",
          "type": "bytes32"
        },
        {
          "internalType": "address",
          "name": "account",
          "type": "address"
        }
      ],
      "name": "grantRole",
      "outputs": [],
      "stateMutability": "nonpayable",
      "type": "function"
    },
    {
      "inputs": [
        {
          "internalType": "bytes32",
          "name": "role",
          "type": "bytes32"
        },
        {
          "internalType": "address",
          "name": "account",
          "type": "address"
        }
      ],
      "name": "hasRole",
      "outputs": [
        {
          "internalType": "bool",
          "name": "",
          "type": "bool"
        }
      ],
      "stateMutability": "view",
      "type": "function"
    },
    {
      "inputs": [
        {
          "internalType": "address",
          "name": "vaultAsset",
          "type": "address"
        }
      ],
      "name": "removeAdapter",
      "outputs": [],
      "stateMutability": "nonpayable",
      "type": "function"
    },
    {
      "inputs": [
        {
          "internalType": "bytes32",
          "name": "role",
          "type": "bytes32"
        },
        {
          "internalType": "address",
          "name": "callerConfirmation",
          "type": "address"
        }
      ],
      "name": "renounceRole",
      "outputs": [],
      "stateMutability": "nonpayable",
      "type": "function"
    },
    {
      "inputs": [
        {
          "internalType": "bytes32",
          "name": "role",
          "type": "bytes32"
        },
        {
          "internalType": "address",
          "name": "account",
          "type": "address"
        }
      ],
      "name": "revokeRole",
      "outputs": [],
      "stateMutability": "nonpayable",
      "type": "function"
    },
    {
      "inputs": [
        {
          "internalType": "address",
          "name": "vaultAsset",
          "type": "address"
        }
      ],
      "name": "setDefaultDepositVaultAsset",
      "outputs": [],
      "stateMutability": "nonpayable",
      "type": "function"
    },
    {
      "inputs": [
        {
          "internalType": "uint256",
          "name": "_dustTolerance",
          "type": "uint256"
        }
      ],
      "name": "setDustTolerance",
      "outputs": [],
      "stateMutability": "nonpayable",
      "type": "function"
    },
    {
      "inputs": [
        {
          "internalType": "bytes4",
          "name": "interfaceId",
          "type": "bytes4"
        }
      ],
      "name": "supportsInterface",
      "outputs": [
        {
          "internalType": "bool",
          "name": "",
          "type": "bool"
        }
      ],
      "stateMutability": "view",
      "type": "function"
    },
    {
      "inputs": [
        {
          "internalType": "uint256",
          "name": "maxAmount",
          "type": "uint256"
        }
      ],
      "name": "sweepSurplus",
      "outputs": [],
      "stateMutability": "nonpayable",
      "type": "function"
    },
    {
      "inputs": [
        {
          "internalType": "address",
          "name": "",
          "type": "address"
        }
      ],
      "name": "vaultAssetToAdapter",
      "outputs": [
        {
          "internalType": "address",
          "name": "",
          "type": "address"
        }
      ],
      "stateMutability": "view",
      "type": "function"
    },
    {
      "inputs": [
        {
          "internalType": "uint256",
          "name": "dStableAmount",
          "type": "uint256"
        },
        {
          "internalType": "address",
          "name": "receiver",
          "type": "address"
        },
        {
          "internalType": "address",
          "name": "owner",
          "type": "address"
        }
      ],
      "name": "withdraw",
      "outputs": [],
      "stateMutability": "nonpayable",
      "type": "function"
    }
  ],
  "transactionHash": "0x7de9b1a29aa732c16aceefe4a1a48d3dd8af176147b7137a1e9955260335c71c",
  "args": [
    "0x6048283a47b5387cF469CC5667e8ae839283A13D",
    "0xB6eCEe33492786738c612063Fd744A430a819A22"
  ],
  "numDeployments": 1,
  "solcInputHash": "27680185857676e4a4a617ee15d58609",
  "bytecode": "0x60e060409080825234620001a7578181620022f68038038091620000248285620001ac565b833981010312620001a7576200004860206200004083620001e6565b9201620001e6565b600180556001600160a01b03908282161580156200019c575b6200018b5760208260049285608052168060a0528551928380926306617c6960e11b82525afa90811562000180576000916200013c575b508060c05216156200012b57620000bb90620000b433620001fb565b506200027b565b5051611fb890816200031e82396080518161129d015260a05181818161031a0152818161070901528181610a490152818161117c01528181611330015281816116ac01526119c1015260c0518181816103c30152818161075d01528181610aff01528181610e69015261197c0152f35b815163d92e233d60e01b8152600490fd5b906020823d821162000177575b816200015860209383620001ac565b810103126200017457506200016d90620001e6565b3862000098565b80fd5b3d915062000149565b84513d6000823e3d90fd5b835163d92e233d60e01b8152600490fd5b508181161562000061565b600080fd5b601f909101601f19168101906001600160401b03821190821017620001d057604052565b634e487b7160e01b600052604160045260246000fd5b51906001600160a01b0382168203620001a757565b6001600160a01b031660008181527fad3228b676f7d3cd4284a5443f17f1962b36e491b30a40b2405849e597ba5fb5602052604081205490919060ff166200027757818052816020526040822081835260205260408220600160ff198254161790553391600080516020620022d68339815191528180a4600190565b5090565b6001600160a01b031660008181527fee6598bb9d8813ec5dcf0988fbc9935f3bd23c22de3e37b2654f2216372e6c0860205260408120549091907f7fee0d6ae731e4c26a7bffbf1bb702cb3aaa110506f5b2a78cc9372669d439ae9060ff166200031857808352826020526040832082845260205260408320600160ff19825416179055600080516020620022d6833981519152339380a4600190565b50509056fe608080604052600436101561001357600080fd5b600090813560e01c90816301ffc9a7146119f0575080630bece79c146119ab5780630cc2f8d2146119665780631e999814146119485780632379e4521461150d578063248a9ca3146114e15780632f2ff15d146114a457806336568abe1461145c5780633a5d64c5146113e1578063585cd34b146112cc5780635c47df42146112875780636dacd3d7146110c557806391d148541461107a5780639bb9461f14610e2d578063a217fddf14610e11578063b460af941461098f578063b6b55f251461068d578063b9c7e7a514610295578063bc6d5a101461025a578063c8232bd71461021e578063d547741f146101dd578063dc369c651461018f578063e1e6548d146101665763ee1f70441461012957600080fd5b3461016357806003193601126101635760206040517f3a4b3a1f03347d0616bb4d34491485029b5c8f56cd6dc1f9e9b1524cad0936f78152f35b80fd5b50346101635780600319360112610163576003546040516001600160a01b039091168152602090f35b5034610163576020366003190112610163577fbd575a5650fa5dbcfe03ab798aec3c80a935c6d293729c1ede529f46efbfbd4760206004356101cf611b24565b80600155604051908152a180f35b50346101635760403660031901126101635761021a6004356101fd611a45565b90808452836020526102156001604086200154611bba565b611c5e565b5080f35b5034610163576020366003190112610163576020906001600160a01b039060409082610248611a5b565b16815260028452205416604051908152f35b503461016357806003193601126101635760206040517f7fee0d6ae731e4c26a7bffbf1bb702cb3aaa110506f5b2a78cc9372669d439ae8152f35b5034610163576102a436611a71565b90926102ae611aaa565b60018060a01b0380821692838752602090600282528260408920541683871696878a528460408b20541692821561067457831561065b57908a9392916040519763e0e5c1ab60e01b93848a528c60048b0152878a602481845afa998a1561061957879a610628575b50887f000000000000000000000000000000000000000000000000000000000000000016803b1561062457604051631c7fc97360e11b81526001600160a01b03939093166004840152602483018e905230604484015287908390606490829084905af1801561061957889288916105fc575b50506103958d828d611dce565b60248d604051988993849263508fef7760e11b845260048401525af19485156105f1578c956105c2575b508b7f0000000000000000000000000000000000000000000000000000000000000000956103f081878b8a16611dce565b604051906254772560e21b82526004820152604081602481858a5af19889156105b7578c91839a610580575b5082160361054d575080871061051e575050839060246040518094819382528860048301525afa9283156105135789936104de575b505061045f60015485611d50565b8083106104ab5750506040805196875260208701929092525084015233927f34eb53881682710349fbce503317e7cba1eb6dcdeeb2c86b8dd00f0fe510ba539080606081015b0390a480f35b604051636f85e6ff60e11b81526001600160a01b0392909216600483015260248201929092526044810191909152606490fd5b9080929350813d831161050c575b6104f68183611cfd565b810103126105075751903880610451565b600080fd5b503d6104ec565b6040513d8b823e3d90fd5b604051636f85e6ff60e11b81526001600160a01b03929092166004830152602482018790526044820152606490fd5b60405163e8eebd3760e01b81526001600160a01b0386811660048301528481166024830152919091166044820152606490fd5b9099506105a691925060403d6040116105b0575b61059e8183611cfd565b810190611d33565b919091983861041c565b503d610594565b6040513d84823e3d90fd5b9094508581813d83116105ea575b6105da8183611cfd565b81010312610507575193386103bf565b503d6105d0565b6040513d8e823e3d90fd5b61060891929350611cd3565b6106155786908638610388565b8580fd5b6040513d89823e3d90fd5b8780fd5b8880929b508198503d8311610654575b6106428183611cfd565b81010312610507578c95519838610316565b503d610638565b60405163dfc24d3d60e01b8152600481018a9052602490fd5b60405163dfc24d3d60e01b815260048101899052602490fd5b50346101635760208060031936011261098b57600435906106ac611b5e565b6003546001600160a01b03908116808552600283526040852054919391841691908215610973575060405192633bcb4e8360e21b8452816004850152604084602481865afa9384156109685786908795610944575b5085811694867f0000000000000000000000000000000000000000000000000000000000000000166040516370a0823160e01b9182825280600483015285826024818c5afa918215610939578b9261090a575b5061078e87898c7f00000000000000000000000000000000000000000000000000000000000000001661078983303384611d73565b611dce565b604080516254772560e21b81526004810189905290816024818f8d5af19a8b156105f1578c918d9c6108e5575b508a908216036108b25750604051928352600483015284826024818b5afa80156108a7578a90610878575b6107f09250611d50565b9687036108325780871061051e5750506040519485528401527f705661fa3a970960d8791236e32945efdda156e72c9d7b76505b6ccbdc48501b60403394a480f35b604051633b0e6a4960e11b815260048101849052601b60248201527f41646170746572206d69732d7265706f727465642073686172657300000000006044820152606490fd5b508482813d83116108a0575b61088e8183611cfd565b81010312610507576107f091516107e6565b503d610884565b6040513d8c823e3d90fd5b60405163e8eebd3760e01b81526001600160a01b038a811660048301528781166024830152919091166044820152606490fd5b610902919c508b925060403d6040116105b05761059e8183611cfd565b9b90916107bb565b9091508581813d8311610932575b6109228183611cfd565b8101031261050757519038610754565b503d610918565b6040513d8d823e3d90fd5b905061096091945060403d6040116105b05761059e8183611cfd565b939038610701565b6040513d88823e3d90fd5b6024906040519063dfc24d3d60e01b82526004820152fd5b5080fd5b5034610163576060366003190112610163576004356109ac611a45565b6001600160a01b03906044358281169190829003610507576109cc611b5e565b82600354169182865260209460028652846040882054169384156109735750604051634ab9e16b60e01b8152958087600481885afa968715610e06578897610dcf575b508587169660405195630a28a47760e01b875283600488015282876024818c5afa9687156108a7578a97610da0575b508615610d875789887f000000000000000000000000000000000000000000000000000000000000000016803b1561098b57604051631c7fc97360e11b81526001600160a01b0385166004820152602481018a90523060448201529082908290606490829084905af180156105b757610d6f575b505080610ac2886024938c611dce565b838b6040519384809263508fef7760e11b82528c6004830152855af1918215610939578b92610d40575b50848210610d1157908a9291610b30868b7f00000000000000000000000000000000000000000000000000000000000000001693610b2b828c87611f46565b611d50565b9283610b7a575b848c7fb82a50d120fe10f11179f7792c046bf005589c3eea490a9e3e347ed31353165960808d8f8e8e8e8e6040519586528501526040840152166060820152a280f35b610b8e8483859d9a98969c9b99979d611dce565b604080516254772560e21b8152600481018c905290816024818f875af18c9181610cef575b50610c7757505090604483926040519b8c93849263095ea7b360e01b845260048401528160248401525af19788156108a757816080987fc2b45953ce7f14f6d1f9273fb9620e4e5eea889991ca73f256b7ef8e1988e84c927fb82a50d120fe10f11179f7792c046bf005589c3eea490a9e3e347ed3135316599b610c4a575b50604051908152a15b91939689919395963880610b37565b610c6990833d8511610c70575b610c618183611cfd565b810190611f2e565b5038610c32565b503d610c57565b889a508c92949698919597999b508093501603610cbf57505050917fb82a50d120fe10f11179f7792c046bf005589c3eea490a9e3e347ed31353165995939160809593610c3b565b60405163e8eebd3760e01b81526001600160a01b0392831660048201529282166024840152166044820152606490fd5b610d0991925060403d6040116105b05761059e8183611cfd565b509038610bb3565b6040516322ce378760e11b81526001600160a01b03841660048201526024810186905260448101839052606490fd5b9091508381813d8311610d68575b610d588183611cfd565b8101031261050757519038610aec565b503d610d4e565b610d7890611cd3565b610d83578938610ab2565b8980fd5b6040516352e4307960e11b8152600481018a9052602490fd5b9096508281813d8311610dc8575b610db88183611cfd565b8101031261050757519538610a3e565b503d610dae565b9080975081813d8311610dff575b610de78183611cfd565b8101031261062457610df890611d1f565b9538610a0f565b503d610ddd565b6040513d8a823e3d90fd5b5034610163578060031936011261016357602090604051908152f35b50346101635760208060031936011261098b5760043590610e4c611b24565b6040516370a0823160e01b81523060048201526001600160a01b037f0000000000000000000000000000000000000000000000000000000000000000811693909291908282602481885afa91821561096857869261104b575b50811561102d5780158015611024575b1561101c5750925b826003541680865260028352836040872054169081156109735750604051634ab9e16b60e01b8152918383600481855afa928315610619578793610fe1575b5060405163095ea7b360e01b81526001600160a01b038316600482015260248101879052908490829060449082908b905af1801561061957610fc4575b506040516254772560e21b81528560048201526040816024818a865af1908115610619578791610fa4575b508481169483168503610cbf57867fde5535ecf375c1fc5a04be89bec3dee7e25472f1a743e5da0ee098dd9d700bad60408888888351928352820152a180f35b610fbd915060403d6040116105b05761059e8183611cfd565b5038610f64565b610fda90843d8611610c7057610c618183611cfd565b5038610f39565b9092508381813d8311611015575b610ff98183611cfd565b810103126110115761100a90611d1f565b9138610efc565b8680fd5b503d610fef565b905092610ebd565b50818111610eb5565b60448587604051916354f076c560e11b835260048301526024820152fd5b9091508281813d8311611073575b6110638183611cfd565b8101031261050757519038610ea5565b503d611059565b5034610163576040366003190112610163576040611096611a45565b91600435815280602052209060018060a01b0316600052602052602060ff604060002054166040519015158152f35b5034610163576040366003190112610163576110df611a5b565b6110e7611a45565b6110ef611b24565b6001600160a01b0381811691908215801561127d575b61126b57604051634ab9e16b60e01b8152936020928386600481885afa958615610619578796611234575b50828216958684821603610cbf5750505083855260028252806040862054168015158061122a575b61120c5750838552600282526040852080546001600160a01b0319168417905584907f000000000000000000000000000000000000000000000000000000000000000016803b1561098b5781809160246040518094819363fac09e8760e01b83528a60048401525af16111f4575b50507fe5e39617beb2a298b9fa1c3928582d9a96ba7ef7c920acd1117d1d415568670a91604051908152a280f35b6111fd90611cd3565b6112085783386111c6565b8380fd5b846044916040519163fa9938bf60e01b835260048301526024820152fd5b5083811415611158565b9095508381813d8311611264575b61124c8183611cfd565b810103126110115761125d90611d1f565b9438611130565b503d611242565b60405163d92e233d60e01b8152600490fd5b5080841615611105565b50346101635780600319360112610163576040517f00000000000000000000000000000000000000000000000000000000000000006001600160a01b03168152602090f35b5034610163576020366003190112610163576112e6611a5b565b6112ee611b24565b6001600160a01b039081168083526002602052604083205490919081169081156113c85782845260026020526040842080546001600160a01b031916905583907f000000000000000000000000000000000000000000000000000000000000000016803b1561098b57818091602460405180948193631c46bc6f60e01b83528960048401525af180156105b7576113b0575b505060207f80d565a25be79c22ac744d2eb2cf727b98545a88dd1396b53ce6a045aacd558291604051908152a280f35b6113b990611cd3565b6113c4578238611380565b8280fd5b60405163dfc24d3d60e01b815260048101849052602490fd5b5034610163576020366003190112610163576113fb611a5b565b611403611b24565b6001600160a01b03908116808352600260205260408320549091161561097357600380546001600160a01b031916821790557f24924ec42babd548ca3fd6321ab17d9c16c025f8996cbfac050500587609b1748280a280f35b503461016357604036600319011261016357611476611a45565b336001600160a01b038216036114925761021a90600435611c5e565b60405163334bd91960e11b8152600490fd5b50346101635760403660031901126101635761021a6004356114c4611a45565b90808452836020526114dc6001604086200154611bba565b611be0565b503461016357602036600319011261016357600160406020926004358152808452200154604051908152f35b50346101635761151c36611a71565b611527939293611aaa565b8115611902576001600160a01b0383161580156118f1575b61126b576040519060c0820182811067ffffffffffffffff8211176118dd5760409081528683526020808401888152848301899052606085018990526080850189905260a085018990526001600160a01b038781168a526002808452848b2054821687528982168b52909252918820548116909152825116156118bc5760208201516001600160a01b03161561189b5781516001600160a01b03908116604080850182905260208581015190931660608601525163e0e5c1ab60e01b8152600481018690529190829060249082905afa908115610619578791611869575b50806080840152156118415760018060a01b0360608301511690604060808401516024825180958193633bcb4e8360e21b835260048301525afa918215610619578790889361181d575b506001600160a01b03878116908216036117e757508160a08401528082106117b957506116a190508230336001600160a01b038716611d73565b846001600160a01b037f00000000000000000000000000000000000000000000000000000000000000008116906116dd90859083908816611f46565b60a0830151813b156113c457604051631c7fc97360e11b81526001600160a01b0388166004820152602481019190915233604482015291908290606490829084905af1801561096857611786575b5060a08101516080909101516040805193845260208401929092529082015233926001600160a01b039081169216907f34eb53881682710349fbce503317e7cba1eb6dcdeeb2c86b8dd00f0fe510ba539080606081016104a5565b946117b27f34eb53881682710349fbce503317e7cba1eb6dcdeeb2c86b8dd00f0fe510ba539296611cd3565b949061172b565b604051636f85e6ff60e11b81526001600160a01b038716600482015260248101929092526044820152606490fd5b602084015160405163e8eebd3760e01b81526001600160a01b039182166004820152888216602482015291166044820152606490fd5b905061183991925060403d6040116105b05761059e8183611cfd565b919038611667565b6040516354f076c560e11b81526001600160a01b038516600482015260248101849052604490fd5b90506020813d602011611893575b8161188460209383611cfd565b8101031261101157513861161d565b3d9150611877565b60405163dfc24d3d60e01b81526001600160a01b0386166004820152602490fd5b60405163dfc24d3d60e01b81526001600160a01b0385166004820152602490fd5b634e487b7160e01b87526041600452602487fd5b506001600160a01b0384161561153f565b604051633b0e6a4960e11b815260206004820152601b60248201527f496e70757420616d6f756e742063616e6e6f74206265207a65726f00000000006044820152606490fd5b50346101635780600319360112610163576020600154604051908152f35b50346101635780600319360112610163576040517f00000000000000000000000000000000000000000000000000000000000000006001600160a01b03168152602090f35b50346101635780600319360112610163576040517f00000000000000000000000000000000000000000000000000000000000000006001600160a01b03168152602090f35b90503461098b57602036600319011261098b5760043563ffffffff60e01b81168091036113c45760209250637965db0b60e01b8114908115611a34575b5015158152f35b6301ffc9a760e01b14905038611a2d565b602435906001600160a01b038216820361050757565b600435906001600160a01b038216820361050757565b6080906003190112610507576001600160a01b039060043582811681036105075791602435908116810361050757906044359060643590565b3360009081527f442b21db4ee30744d8435a797a25e6c1c72e1e7b189fd6a63533411360d93da660205260409020547f3a4b3a1f03347d0616bb4d34491485029b5c8f56cd6dc1f9e9b1524cad0936f79060ff1615611b065750565b6044906040519063e2517d3f60e01b82523360048301526024820152fd5b3360009081527fad3228b676f7d3cd4284a5443f17f1962b36e491b30a40b2405849e597ba5fb5602052604081205460ff1615611b065750565b3360009081527fee6598bb9d8813ec5dcf0988fbc9935f3bd23c22de3e37b2654f2216372e6c0860205260409020547f7fee0d6ae731e4c26a7bffbf1bb702cb3aaa110506f5b2a78cc9372669d439ae9060ff1615611b065750565b80600052600060205260406000203360005260205260ff6040600020541615611b065750565b9060009180835282602052604083209160018060a01b03169182845260205260ff60408420541615600014611c5957808352826020526040832082845260205260408320600160ff198254161790557f2f8788117e7eff1d82e926ec794901d17c78024a50270940304540a733656f0d339380a4600190565b505090565b9060009180835282602052604083209160018060a01b03169182845260205260ff604084205416600014611c595780835282602052604083208284526020526040832060ff1981541690557ff6391f5c32d9c69d2a47ea670b442974b53935d1edc7fd64eb21e047a839171b339380a4600190565b67ffffffffffffffff8111611ce757604052565b634e487b7160e01b600052604160045260246000fd5b90601f8019910116810190811067ffffffffffffffff821117611ce757604052565b51906001600160a01b038216820361050757565b9190826040910312610507576020611d4a83611d1f565b92015190565b91908203918211611d5d57565b634e487b7160e01b600052601160045260246000fd5b6040516323b872dd60e01b60208201526001600160a01b03928316602482015292909116604483015260648083019390935291815260a081019181831067ffffffffffffffff841117611ce757611dcc92604052611ec6565b565b60405163095ea7b360e01b602082018181526001600160a01b038516602484015260448084019690965294825294939092611e0a606485611cfd565b60206000809386519082875af182513d82611ea1575b505015611e30575b505050509050565b60405160208101969096526001600160a01b0316602486015260448086018290528552608085019067ffffffffffffffff821186831017611e8d5750611e839394611e7e9160405282611ec6565b611ec6565b8038808080611e28565b634e487b7160e01b81526041600452602490fd5b909150611ebe57506001600160a01b0383163b15155b3880611e20565b600114611eb7565b906000602091828151910182855af115611f22576000513d611f1957506001600160a01b0381163b155b611ef75750565b604051635274afe760e01b81526001600160a01b039091166004820152602490fd5b60011415611ef0565b6040513d6000823e3d90fd5b90816020910312610507575180151581036105075790565b60405163a9059cbb60e01b60208201526001600160a01b03929092166024830152604480830193909352918152611dcc91611e7e606483611cfd56fea26469706673582212201a28a65d935046987fd3277c10cd39da049fc9ee24fba3d1d235f7a9fe96289664736f6c634300081400332f8788117e7eff1d82e926ec794901d17c78024a50270940304540a733656f0d"
}