{
  "address": "0xf76aeb4339a11f439110ffa9fc062a8c27aecf75",
  "abi": [
    {
      "inputs": [
        {
          "internalType": "address",
          "name": "_dStakeToken",
          "type": "address"
        },
        {
          "internalType": "address",
          "name": "_collateralVault",
          "type": "address"
        }
      ],
      "stateMutability": "nonpayable",
      "type": "constructor"
    },
    {
      "inputs": [],
      "name": "AccessControlBadConfirmation",
      "type": "error"
    },
    {
      "inputs": [
        {
          "internalType": "address",
          "name": "account",
          "type": "address"
        },
        {
          "internalType": "bytes32",
          "name": "neededRole",
          "type": "bytes32"
        }
      ],
      "name": "AccessControlUnauthorizedAccount",
      "type": "error"
    },
    {
      "inputs": [
        {
          "internalType": "address",
          "name": "adapter",
          "type": "address"
        },
        {
          "internalType": "address",
          "name": "expectedAsset",
          "type": "address"
        },
        {
          "internalType": "address",
          "name": "actualAsset",
          "type": "address"
        }
      ],
      "name": "AdapterAssetMismatch",
      "type": "error"
    },
    {
      "inputs": [
        {
          "internalType": "address",
          "name": "vaultAsset",
          "type": "address"
        }
      ],
      "name": "AdapterNotFound",
      "type": "error"
    },
    {
      "inputs": [
        {
          "internalType": "string",
          "name": "message",
          "type": "string"
        }
      ],
      "name": "InconsistentState",
      "type": "error"
    },
    {
      "inputs": [
        {
          "internalType": "address",
          "name": "vaultAsset",
          "type": "address"
        },
        {
          "internalType": "uint256",
          "name": "expected",
          "type": "uint256"
        },
        {
          "internalType": "uint256",
          "name": "actual",
          "type": "uint256"
        }
      ],
      "name": "InsufficientDStableFromAdapter",
      "type": "error"
    },
    {
      "inputs": [
        {
          "internalType": "address",
          "name": "token",
          "type": "address"
        }
      ],
      "name": "SafeERC20FailedOperation",
      "type": "error"
    },
    {
      "inputs": [
        {
          "internalType": "address",
          "name": "toAsset",
          "type": "address"
        },
        {
          "internalType": "uint256",
          "name": "calculatedAmount",
          "type": "uint256"
        },
        {
          "internalType": "uint256",
          "name": "minAmount",
          "type": "uint256"
        }
      ],
      "name": "SlippageCheckFailed",
      "type": "error"
    },
    {
      "inputs": [
        {
          "internalType": "address",
          "name": "vaultAsset",
          "type": "address"
        },
        {
          "internalType": "address",
          "name": "existingAdapter",
          "type": "address"
        }
      ],
      "name": "VaultAssetManagedByDifferentAdapter",
      "type": "error"
    },
    {
      "inputs": [],
      "name": "ZeroAddress",
      "type": "error"
    },
    {
      "inputs": [
        {
          "internalType": "address",
          "name": "fromAsset",
          "type": "address"
        },
        {
          "internalType": "uint256",
          "name": "fromAmount",
          "type": "uint256"
        }
      ],
      "name": "ZeroInputDStableValue",
      "type": "error"
    },
    {
      "inputs": [
        {
          "internalType": "address",
          "name": "vaultAsset",
          "type": "address"
        }
      ],
      "name": "ZeroPreviewWithdrawAmount",
      "type": "error"
    },
    {
      "anonymous": false,
      "inputs": [
        {
          "indexed": true,
          "internalType": "address",
          "name": "vaultAsset",
          "type": "address"
        },
        {
          "indexed": false,
          "internalType": "address",
          "name": "adapterAddress",
          "type": "address"
        }
      ],
      "name": "AdapterRemoved",
      "type": "event"
    },
    {
      "anonymous": false,
      "inputs": [
        {
          "indexed": true,
          "internalType": "address",
          "name": "vaultAsset",
          "type": "address"
        },
        {
          "indexed": false,
          "internalType": "address",
          "name": "adapterAddress",
          "type": "address"
        }
      ],
      "name": "AdapterSet",
      "type": "event"
    },
    {
      "anonymous": false,
      "inputs": [
        {
          "indexed": true,
          "internalType": "address",
          "name": "vaultAsset",
          "type": "address"
        }
      ],
      "name": "DefaultDepositVaultAssetSet",
      "type": "event"
    },
    {
      "anonymous": false,
      "inputs": [
        {
          "indexed": true,
          "internalType": "address",
          "name": "vaultAsset",
          "type": "address"
        },
        {
          "indexed": false,
          "internalType": "uint256",
          "name": "vaultAssetAmount",
          "type": "uint256"
        },
        {
          "indexed": false,
          "internalType": "uint256",
          "name": "dStableAmount",
          "type": "uint256"
        },
        {
          "indexed": false,
          "internalType": "address",
          "name": "receiver",
          "type": "address"
        }
      ],
      "name": "Deposited",
      "type": "event"
    },
    {
      "anonymous": false,
      "inputs": [
        {
          "indexed": false,
          "internalType": "uint256",
          "name": "newDustTolerance",
          "type": "uint256"
        }
      ],
      "name": "DustToleranceSet",
      "type": "event"
    },
    {
      "anonymous": false,
      "inputs": [
        {
          "indexed": true,
          "internalType": "address",
          "name": "fromAsset",
          "type": "address"
        },
        {
          "indexed": true,
          "internalType": "address",
          "name": "toAsset",
          "type": "address"
        },
        {
          "indexed": false,
          "internalType": "uint256",
          "name": "fromAssetAmount",
          "type": "uint256"
        },
        {
          "indexed": false,
          "internalType": "uint256",
          "name": "toAssetAmount",
          "type": "uint256"
        },
        {
          "indexed": false,
          "internalType": "uint256",
          "name": "dStableAmountEquivalent",
          "type": "uint256"
        },
        {
          "indexed": true,
          "internalType": "address",
          "name": "exchanger",
          "type": "address"
        }
      ],
      "name": "Exchanged",
      "type": "event"
    },
    {
      "anonymous": false,
      "inputs": [
        {
          "indexed": true,
          "internalType": "bytes32",
          "name": "role",
          "type": "bytes32"
        },
        {
          "indexed": true,
          "internalType": "bytes32",
          "name": "previousAdminRole",
          "type": "bytes32"
        },
        {
          "indexed": true,
          "internalType": "bytes32",
          "name": "newAdminRole",
          "type": "bytes32"
        }
      ],
      "name": "RoleAdminChanged",
      "type": "event"
    },
    {
      "anonymous": false,
      "inputs": [
        {
          "indexed": true,
          "internalType": "bytes32",
          "name": "role",
          "type": "bytes32"
        },
        {
          "indexed": true,
          "internalType": "address",
          "name": "account",
          "type": "address"
        },
        {
          "indexed": true,
          "internalType": "address",
          "name": "sender",
          "type": "address"
        }
      ],
      "name": "RoleGranted",
      "type": "event"
    },
    {
      "anonymous": false,
      "inputs": [
        {
          "indexed": true,
          "internalType": "bytes32",
          "name": "role",
          "type": "bytes32"
        },
        {
          "indexed": true,
          "internalType": "address",
          "name": "account",
          "type": "address"
        },
        {
          "indexed": true,
          "internalType": "address",
          "name": "sender",
          "type": "address"
        }
      ],
      "name": "RoleRevoked",
      "type": "event"
    },
    {
      "anonymous": false,
      "inputs": [
        {
          "indexed": true,
          "internalType": "address",
          "name": "vaultAsset",
          "type": "address"
        },
        {
          "indexed": false,
          "internalType": "uint256",
          "name": "vaultAssetAmount",
          "type": "uint256"
        },
        {
          "indexed": false,
          "internalType": "uint256",
          "name": "dStableAmount",
          "type": "uint256"
        },
        {
          "indexed": false,
          "internalType": "address",
          "name": "owner",
          "type": "address"
        },
        {
          "indexed": false,
          "internalType": "address",
          "name": "receiver",
          "type": "address"
        }
      ],
      "name": "Withdrawn",
      "type": "event"
    },
    {
      "inputs": [],
      "name": "COLLATERAL_EXCHANGER_ROLE",
      "outputs": [
        {
          "internalType": "bytes32",
          "name": "",
          "type": "bytes32"
        }
      ],
      "stateMutability": "view",
      "type": "function"
    },
    {
      "inputs": [],
      "name": "DEFAULT_ADMIN_ROLE",
      "outputs": [
        {
          "internalType": "bytes32",
          "name": "",
          "type": "bytes32"
        }
      ],
      "stateMutability": "view",
      "type": "function"
    },
    {
      "inputs": [],
      "name": "DSTAKE_TOKEN_ROLE",
      "outputs": [
        {
          "internalType": "bytes32",
          "name": "",
          "type": "bytes32"
        }
      ],
      "stateMutability": "view",
      "type": "function"
    },
    {
      "inputs": [
        {
          "internalType": "address",
          "name": "vaultAsset",
          "type": "address"
        },
        {
          "internalType": "address",
          "name": "adapterAddress",
          "type": "address"
        }
      ],
      "name": "addAdapter",
      "outputs": [],
      "stateMutability": "nonpayable",
      "type": "function"
    },
    {
      "inputs": [],
      "name": "collateralVault",
      "outputs": [
        {
          "internalType": "contract IDStakeCollateralVault",
          "name": "",
          "type": "address"
        }
      ],
      "stateMutability": "view",
      "type": "function"
    },
    {
      "inputs": [],
      "name": "dStable",
      "outputs": [
        {
          "internalType": "address",
          "name": "",
          "type": "address"
        }
      ],
      "stateMutability": "view",
      "type": "function"
    },
    {
      "inputs": [],
      "name": "dStakeToken",
      "outputs": [
        {
          "internalType": "address",
          "name": "",
          "type": "address"
        }
      ],
      "stateMutability": "view",
      "type": "function"
    },
    {
      "inputs": [],
      "name": "defaultDepositVaultAsset",
      "outputs": [
        {
          "internalType": "address",
          "name": "",
          "type": "address"
        }
      ],
      "stateMutability": "view",
      "type": "function"
    },
    {
      "inputs": [
        {
          "internalType": "uint256",
          "name": "dStableAmount",
          "type": "uint256"
        },
        {
          "internalType": "address",
          "name": "receiver",
          "type": "address"
        }
      ],
      "name": "deposit",
      "outputs": [],
      "stateMutability": "nonpayable",
      "type": "function"
    },
    {
      "inputs": [],
      "name": "dustTolerance",
      "outputs": [
        {
          "internalType": "uint256",
          "name": "",
          "type": "uint256"
        }
      ],
      "stateMutability": "view",
      "type": "function"
    },
    {
      "inputs": [
        {
          "internalType": "address",
          "name": "fromVaultAsset",
          "type": "address"
        },
        {
          "internalType": "address",
          "name": "toVaultAsset",
          "type": "address"
        },
        {
          "internalType": "uint256",
          "name": "fromVaultAssetAmount",
          "type": "uint256"
        },
        {
          "internalType": "uint256",
          "name": "minToVaultAssetAmount",
          "type": "uint256"
        }
      ],
      "name": "exchangeAssets",
      "outputs": [],
      "stateMutability": "nonpayable",
      "type": "function"
    },
    {
      "inputs": [
        {
          "internalType": "address",
          "name": "fromVaultAsset",
          "type": "address"
        },
        {
          "internalType": "address",
          "name": "toVaultAsset",
          "type": "address"
        },
        {
          "internalType": "uint256",
          "name": "fromVaultAssetAmount",
          "type": "uint256"
        },
        {
          "internalType": "uint256",
          "name": "minToVaultAssetAmount",
          "type": "uint256"
        }
      ],
      "name": "exchangeAssetsUsingAdapters",
      "outputs": [],
      "stateMutability": "nonpayable",
      "type": "function"
    },
    {
      "inputs": [
        {
          "internalType": "bytes32",
          "name": "role",
          "type": "bytes32"
        }
      ],
      "name": "getRoleAdmin",
      "outputs": [
        {
          "internalType": "bytes32",
          "name": "",
          "type": "bytes32"
        }
      ],
      "stateMutability": "view",
      "type": "function"
    },
    {
      "inputs": [
        {
          "internalType": "bytes32",
          "name": "role",
          "type": "bytes32"
        },
        {
          "internalType": "address",
          "name": "account",
          "type": "address"
        }
      ],
      "name": "grantRole",
      "outputs": [],
      "stateMutability": "nonpayable",
      "type": "function"
    },
    {
      "inputs": [
        {
          "internalType": "bytes32",
          "name": "role",
          "type": "bytes32"
        },
        {
          "internalType": "address",
          "name": "account",
          "type": "address"
        }
      ],
      "name": "hasRole",
      "outputs": [
        {
          "internalType": "bool",
          "name": "",
          "type": "bool"
        }
      ],
      "stateMutability": "view",
      "type": "function"
    },
    {
      "inputs": [
        {
          "internalType": "address",
          "name": "vaultAsset",
          "type": "address"
        }
      ],
      "name": "removeAdapter",
      "outputs": [],
      "stateMutability": "nonpayable",
      "type": "function"
    },
    {
      "inputs": [
        {
          "internalType": "bytes32",
          "name": "role",
          "type": "bytes32"
        },
        {
          "internalType": "address",
          "name": "callerConfirmation",
          "type": "address"
        }
      ],
      "name": "renounceRole",
      "outputs": [],
      "stateMutability": "nonpayable",
      "type": "function"
    },
    {
      "inputs": [
        {
          "internalType": "bytes32",
          "name": "role",
          "type": "bytes32"
        },
        {
          "internalType": "address",
          "name": "account",
          "type": "address"
        }
      ],
      "name": "revokeRole",
      "outputs": [],
      "stateMutability": "nonpayable",
      "type": "function"
    },
    {
      "inputs": [
        {
          "internalType": "address",
          "name": "vaultAsset",
          "type": "address"
        }
      ],
      "name": "setDefaultDepositVaultAsset",
      "outputs": [],
      "stateMutability": "nonpayable",
      "type": "function"
    },
    {
      "inputs": [
        {
          "internalType": "uint256",
          "name": "_dustTolerance",
          "type": "uint256"
        }
      ],
      "name": "setDustTolerance",
      "outputs": [],
      "stateMutability": "nonpayable",
      "type": "function"
    },
    {
      "inputs": [
        {
          "internalType": "bytes4",
          "name": "interfaceId",
          "type": "bytes4"
        }
      ],
      "name": "supportsInterface",
      "outputs": [
        {
          "internalType": "bool",
          "name": "",
          "type": "bool"
        }
      ],
      "stateMutability": "view",
      "type": "function"
    },
    {
      "inputs": [
        {
          "internalType": "address",
          "name": "",
          "type": "address"
        }
      ],
      "name": "vaultAssetToAdapter",
      "outputs": [
        {
          "internalType": "address",
          "name": "",
          "type": "address"
        }
      ],
      "stateMutability": "view",
      "type": "function"
    },
    {
      "inputs": [
        {
          "internalType": "uint256",
          "name": "dStableAmount",
          "type": "uint256"
        },
        {
          "internalType": "address",
          "name": "receiver",
          "type": "address"
        },
        {
          "internalType": "address",
          "name": "owner",
          "type": "address"
        }
      ],
      "name": "withdraw",
      "outputs": [],
      "stateMutability": "nonpayable",
      "type": "function"
    }
  ],
  "transactionHash": "0x1c4838a5f3628e02d39b86eb7ab5aa9eba8429b08a93105b5ba2680837644721",
  "args": [
    "0x4211eB0F578863dC3c6Dc90d7B3dd2087527F474",
    "0x0FE2F1da506c2134a880124CBf72ea514570602b"
  ],
  "numDeployments": 1,
  "solcInputHash": "464f823467feec8edabd72f4bc201a41",
  "bytecode": "0x60e060409080825234620001a0578181620020be8038038091620000248285620001a5565b833981010312620001a0576200004860206200004083620001df565b9201620001df565b600180556001600160a01b039082821615801562000195575b620001845760208260049285608052168060a0528551928380926306617c6960e11b82525afa908115620001795760009162000135575b508060c05216156200012457620000bb90620000b433620001f4565b5062000274565b5051611d8790816200031782396080518161115a015260a0518181816103100152818161080601528181610c7d01528181611035015281816111ed015281816115630152611883015260c051818181610417015281816108ec01528181610cd1015261183e0152f35b815163d92e233d60e01b8152600490fd5b906020823d821162000170575b816200015160209383620001a5565b810103126200016d57506200016690620001df565b3862000098565b80fd5b3d915062000142565b84513d6000823e3d90fd5b835163d92e233d60e01b8152600490fd5b508181161562000061565b600080fd5b601f909101601f19168101906001600160401b03821190821017620001c957604052565b634e487b7160e01b600052604160045260246000fd5b51906001600160a01b0382168203620001a057565b6001600160a01b031660008181527fad3228b676f7d3cd4284a5443f17f1962b36e491b30a40b2405849e597ba5fb5602052604081205490919060ff166200027057818052816020526040822081835260205260408220600160ff1982541617905533916000805160206200209e8339815191528180a4600190565b5090565b6001600160a01b031660008181527fee6598bb9d8813ec5dcf0988fbc9935f3bd23c22de3e37b2654f2216372e6c0860205260408120549091907f7fee0d6ae731e4c26a7bffbf1bb702cb3aaa110506f5b2a78cc9372669d439ae9060ff166200031157808352826020526040832082845260205260408320600160ff198254161790556000805160206200209e833981519152339380a4600190565b50509056fe608080604052600436101561001357600080fd5b600090813560e01c90816301ffc9a7146118b2575080630bece79c1461186d5780630cc2f8d2146118285780631e9998141461180a5780632379e452146113c4578063248a9ca3146113985780632f2ff15d1461135b57806336568abe146113135780633a5d64c514611298578063585cd34b146111895780635c47df42146111445780636dacd3d714610f7e5780636e553f6514610bfe57806391d1485414610bb3578063a217fddf14610b97578063b460af941461074d578063b9c7e7a51461028a578063bc6d5a101461024f578063c8232bd714610213578063d547741f146101d2578063dc369c6514610184578063e1e6548d1461015b5763ee1f70441461011e57600080fd5b3461015857806003193601126101585760206040517f3a4b3a1f03347d0616bb4d34491485029b5c8f56cd6dc1f9e9b1524cad0936f78152f35b80fd5b50346101585780600319360112610158576003546040516001600160a01b039091168152602090f35b5034610158576020366003190112610158577fbd575a5650fa5dbcfe03ab798aec3c80a935c6d293729c1ede529f46efbfbd4760206004356101c46119e6565b80600155604051908152a180f35b50346101585760403660031901126101585761020f6004356101f2611907565b908084528360205261020a6001604086200154611a7c565b611b20565b5080f35b5034610158576020366003190112610158576020906001600160a01b03906040908261023d61191d565b16815260028452205416604051908152f35b503461015857806003193601126101585760206040517f7fee0d6ae731e4c26a7bffbf1bb702cb3aaa110506f5b2a78cc9372669d439ae8152f35b50346101585761029936611933565b90926102a361196c565b60018060a01b038082169283875260209060028252826040892054169383871696878a528460408b20541692861561073457831561071b57908a9392916040519763e0e5c1ab60e01b93848a528c60048b0152878a602481855afa998a156106d957879a6106e8575b50887f000000000000000000000000000000000000000000000000000000000000000016803b156106e457604051631c7fc97360e11b81526001600160a01b03929092166004830152602482018e905230604483015287908290606490829084905af19081156106d95787916106c1575b505060405163095ea7b360e01b8082526001600160a01b0383166004830152602482018e90529088818d818b816044810103925af19283156106b65760248f8b938b96610699575b506040519a8b93849263508fef7760e11b845260048401525af1801561068e578997839161065a575b506040519182526001600160a01b038716600483015260248201819052888280604481010381867f00000000000000000000000000000000000000000000000000000000000000009c8d165af191821561064f57604092610622575b5060248251809481936254772560e21b83526004830152895af1978d8915610616578c92819a6105e2575b5016036105a457808710610575575050839060246040518094819382528860048301525afa92831561056a578993610535575b50506104b660015485611c2a565b8083106105025750506040805196875260208701929092525084015233927f34eb53881682710349fbce503317e7cba1eb6dcdeeb2c86b8dd00f0fe510ba539080606081015b0390a480f35b604051636f85e6ff60e11b81526001600160a01b0392909216600483015260248201929092526044810191909152606490fd5b9080929350813d8311610563575b61054d8183611bbf565b8101031261055e57519038806104a8565b600080fd5b503d610543565b6040513d8b823e3d90fd5b604051636f85e6ff60e11b81526001600160a01b03929092166004830152602482018790526044820152606490fd5b60405162461bcd60e51b8152600481018790526016602482015275082c8c2e0e8cae440c2e6e6cae840dad2e6dac2e8c6d60531b6044820152606490fd5b905061060791995060403d60401161060f575b6105ff8183611bbf565b810190611bf5565b989038610475565b503d6105f5565b604051903d90823e3d90fd5b610641908a3d8c11610648575b6106398183611bbf565b810190611c12565b503861044a565b503d61062f565b6040513d85823e3d90fd5b92505095508681813d8311610687575b6106748183611bbf565b8101031261055e5787958d9151386103ee565b503d61066a565b6040513d84823e3d90fd5b6106af90853d8711610648576106398183611bbf565b50386103c5565b6040513d8a823e3d90fd5b6106ca90611b95565b6106d557853861037d565b8580fd5b6040513d89823e3d90fd5b8780fd5b8880929b508198503d8311610714575b6107028183611bbf565b8101031261055e578c9551983861030c565b503d6106f8565b60405163dfc24d3d60e01b8152600481018a9052602490fd5b60405163dfc24d3d60e01b815260048101899052602490fd5b50346101585760603660031901126101585760043561076a611907565b6001600160a01b03604435818116929083900361055e57610789611a20565b8160035416928386526020946002865283604088205416948515610b7f5750604051634ab9e16b60e01b8152958087600481895afa9687156106b6578897610b48575b508487169660405196630a28a47760e01b885283600489015282886024818c5afa978815610b3d578a98610b0e575b508715610af55789877f000000000000000000000000000000000000000000000000000000000000000016803b15610af157604051631c7fc97360e11b81526001600160a01b0385166004820152602481018b90523060448201529082908290606490829084905af1801561068e57610ad9575b5060405163095ea7b360e01b8082526001600160a01b0384166004830152602482018b90529085818d8186816044810103925af1801561064f57610abc575b50848a60246040518095819363508fef7760e11b83526004830152875af1918215610ab1578c92610a82575b50858210610a5357908b9161091d878b7f00000000000000000000000000000000000000000000000000000000000000001693610918828d87611d10565b611c2a565b9081610967575b838d7fb82a50d120fe10f11179f7792c046bf005589c3eea490a9e3e347ed31353165960808f8f8f8f8f8f6040519586528501526040840152166060820152a280f35b6040519081526001600160a01b0385166004820152602481018290529186908390604490829087905af191821561064f57604092610a36575b5060248251809481936254772560e21b83526004830152865af1908115610a2b578b91610a0b575b5089888216036109db5780808c92610924565b60405163e8eebd3760e01b81526001600160a01b0392831660048201529282166024840152166044820152606490fd5b610a24915060403d60401161060f576105ff8183611bbf565b50386109c8565b6040513d8d823e3d90fd5b610a4c90873d8911610648576106398183611bbf565b50386109a0565b6040516322ce378760e11b81526001600160a01b03851660048201526024810187905260448101839052606490fd5b9091508481813d8311610aaa575b610a9a8183611bbf565b8101031261055e575190386108da565b503d610a90565b6040513d8e823e3d90fd5b610ad290863d8811610648576106398183611bbf565b50386108ae565b610ae290611b95565b610aed57893861086f565b8980fd5b5080fd5b6040516352e4307960e11b8152600481018a9052602490fd5b9097508281813d8311610b36575b610b268183611bbf565b8101031261055e575196386107fb565b503d610b1c565b6040513d8c823e3d90fd5b9080975081813d8311610b78575b610b608183611bbf565b810103126106e457610b7190611be1565b95386107cc565b503d610b56565b6024906040519063dfc24d3d60e01b82526004820152fd5b5034610158578060031936011261015857602090604051908152f35b5034610158576040366003190112610158576040610bcf611907565b91600435815280602052209060018060a01b0316600052602052602060ff604060002054166040519015158152f35b503461015857604036600319011261015857610c18611907565b610c20611a20565b6003546001600160a01b0390811680845260026020526040842054821691908215610b7f575060405192633bcb4e8360e21b84526004356004850152604084602481865afa938415610f735785908695610f4f575b5082811694837f0000000000000000000000000000000000000000000000000000000000000000166040516370a0823160e01b81528160048201526020816024818b5afa90811561056a578991610f1d575b50886020610d34887f000000000000000000000000000000000000000000000000000000000000000016610cff600435303384611c4d565b60405163095ea7b360e01b81526001600160a01b038c1660048083019190915235602482015293849283919082906044820190565b03925af18015610b3d57610efe575b50604051966254772560e21b885260043560048901526040886024818d855af1978815610b3d578a908b99610eda575b508988821603610ea9575050604051916370a0823160e01b835260048301526020826024818b5afa801561056a578990610e75575b610db29250611c2a565b948503610e2f57808510610e00575050916060917fa49637e3f6491de6c2c23c5006bef69df603d0dba9d65c8b756fe46ac29810b9936040519283526004356020840152166040820152a280f35b604051636f85e6ff60e11b81526001600160a01b03929092166004830152602482018590526044820152606490fd5b604051633b0e6a4960e11b815260206004820152601b60248201527f41646170746572206d69732d7265706f727465642073686172657300000000006044820152606490fd5b506020823d602011610ea1575b81610e8f60209383611bbf565b8101031261055e57610db29151610da8565b3d9150610e82565b60405163e8eebd3760e01b81526001600160a01b039283166004820152868316602482015291166044820152606490fd5b9050610ef691985060403d60401161060f576105ff8183611bbf565b979038610d73565b610f169060203d602011610648576106398183611bbf565b5038610d43565b90506020813d602011610f47575b81610f3860209383611bbf565b8101031261055e575138610cc7565b3d9150610f2b565b9050610f6b91945060403d60401161060f576105ff8183611bbf565b939038610c75565b6040513d87823e3d90fd5b503461015857604036600319011261015857610f9861191d565b610fa0611907565b610fa86119e6565b6001600160a01b0381811691908215801561113a575b61112857604051634ab9e16b60e01b8152936020928386600481885afa9586156106d95787966110ed575b508282169586848216036109db575050508385526002825280604086205416801515806110e3575b6110c55750838552600282526040852080546001600160a01b0319168417905584907f000000000000000000000000000000000000000000000000000000000000000016803b15610af15781809160246040518094819363fac09e8760e01b83528a60048401525af16110ad575b50507fe5e39617beb2a298b9fa1c3928582d9a96ba7ef7c920acd1117d1d415568670a91604051908152a280f35b6110b690611b95565b6110c157833861107f565b8380fd5b846044916040519163fa9938bf60e01b835260048301526024820152fd5b5083811415611011565b9095508381813d8311611121575b6111058183611bbf565b8101031261111d5761111690611be1565b9438610fe9565b8680fd5b503d6110fb565b60405163d92e233d60e01b8152600490fd5b5080841615610fbe565b50346101585780600319360112610158576040517f00000000000000000000000000000000000000000000000000000000000000006001600160a01b03168152602090f35b5034610158576020366003190112610158576111a361191d565b6111ab6119e6565b6001600160a01b0390811680835260026020526040832054909190811690811561127f5782845260026020526040842080546001600160a01b031916905583907f000000000000000000000000000000000000000000000000000000000000000016803b15610af157818091602460405180948193631c46bc6f60e01b83528960048401525af1611267575b505060207f80d565a25be79c22ac744d2eb2cf727b98545a88dd1396b53ce6a045aacd558291604051908152a280f35b61127090611b95565b61127b578238611237565b8280fd5b60405163dfc24d3d60e01b815260048101849052602490fd5b5034610158576020366003190112610158576112b261191d565b6112ba6119e6565b6001600160a01b039081168083526002602052604083205490911615610b7f57600380546001600160a01b031916821790557f24924ec42babd548ca3fd6321ab17d9c16c025f8996cbfac050500587609b1748280a280f35b50346101585760403660031901126101585761132d611907565b336001600160a01b038216036113495761020f90600435611b20565b60405163334bd91960e11b8152600490fd5b50346101585760403660031901126101585761020f60043561137b611907565b90808452836020526113936001604086200154611a7c565b611aa2565b503461015857602036600319011261015857600160406020926004358152808452200154604051908152f35b5034610158576113d336611933565b6113de93929361196c565b81156117c4576001600160a01b0383161580156117b3575b611128576040519060c0820182811067ffffffffffffffff82111761179f5760409081528683526020808401888152848301899052606085018990526080850189905260a085018990526001600160a01b038781168a526002808452848b2054821687528982168b529092529188205481169091528251161561177e5760208201516001600160a01b03161561175d5781516001600160a01b03908116604080850182905260208581015190931660608601525163e0e5c1ab60e01b8152600481018690529190829060249082905afa9081156106d957879161172b575b50806080840152156117035760018060a01b0360608301511690604060808401516024825180958193633bcb4e8360e21b835260048301525afa9182156106d957879088936116df575b506001600160a01b03878116908216036116a957508160a084015280821061167b575061155890508230336001600160a01b038716611c4d565b846001600160a01b037f000000000000000000000000000000000000000000000000000000000000000081169061159490859083908816611d10565b60a0830151813b1561127b57604051631c7fc97360e11b81526001600160a01b0388166004820152602481019190915233604482015291908290606490829084905af180156116705761163d575b5060a08101516080909101516040805193845260208401929092529082015233926001600160a01b039081169216907f34eb53881682710349fbce503317e7cba1eb6dcdeeb2c86b8dd00f0fe510ba539080606081016104fc565b946116697f34eb53881682710349fbce503317e7cba1eb6dcdeeb2c86b8dd00f0fe510ba539296611b95565b94906115e2565b6040513d88823e3d90fd5b604051636f85e6ff60e11b81526001600160a01b038716600482015260248101929092526044820152606490fd5b602084015160405163e8eebd3760e01b81526001600160a01b039182166004820152888216602482015291166044820152606490fd5b90506116fb91925060403d60401161060f576105ff8183611bbf565b91903861151e565b6040516354f076c560e11b81526001600160a01b038516600482015260248101849052604490fd5b90506020813d602011611755575b8161174660209383611bbf565b8101031261111d5751386114d4565b3d9150611739565b60405163dfc24d3d60e01b81526001600160a01b0386166004820152602490fd5b60405163dfc24d3d60e01b81526001600160a01b0385166004820152602490fd5b634e487b7160e01b87526041600452602487fd5b506001600160a01b038416156113f6565b604051633b0e6a4960e11b815260206004820152601b60248201527f496e70757420616d6f756e742063616e6e6f74206265207a65726f00000000006044820152606490fd5b50346101585780600319360112610158576020600154604051908152f35b50346101585780600319360112610158576040517f00000000000000000000000000000000000000000000000000000000000000006001600160a01b03168152602090f35b50346101585780600319360112610158576040517f00000000000000000000000000000000000000000000000000000000000000006001600160a01b03168152602090f35b905034610af1576020366003190112610af15760043563ffffffff60e01b811680910361127b5760209250637965db0b60e01b81149081156118f6575b5015158152f35b6301ffc9a760e01b149050386118ef565b602435906001600160a01b038216820361055e57565b600435906001600160a01b038216820361055e57565b608090600319011261055e576001600160a01b0390600435828116810361055e5791602435908116810361055e57906044359060643590565b3360009081527f442b21db4ee30744d8435a797a25e6c1c72e1e7b189fd6a63533411360d93da660205260409020547f3a4b3a1f03347d0616bb4d34491485029b5c8f56cd6dc1f9e9b1524cad0936f79060ff16156119c85750565b6044906040519063e2517d3f60e01b82523360048301526024820152fd5b3360009081527fad3228b676f7d3cd4284a5443f17f1962b36e491b30a40b2405849e597ba5fb5602052604081205460ff16156119c85750565b3360009081527fee6598bb9d8813ec5dcf0988fbc9935f3bd23c22de3e37b2654f2216372e6c0860205260409020547f7fee0d6ae731e4c26a7bffbf1bb702cb3aaa110506f5b2a78cc9372669d439ae9060ff16156119c85750565b80600052600060205260406000203360005260205260ff60406000205416156119c85750565b9060009180835282602052604083209160018060a01b03169182845260205260ff60408420541615600014611b1b57808352826020526040832082845260205260408320600160ff198254161790557f2f8788117e7eff1d82e926ec794901d17c78024a50270940304540a733656f0d339380a4600190565b505090565b9060009180835282602052604083209160018060a01b03169182845260205260ff604084205416600014611b1b5780835282602052604083208284526020526040832060ff1981541690557ff6391f5c32d9c69d2a47ea670b442974b53935d1edc7fd64eb21e047a839171b339380a4600190565b67ffffffffffffffff8111611ba957604052565b634e487b7160e01b600052604160045260246000fd5b90601f8019910116810190811067ffffffffffffffff821117611ba957604052565b51906001600160a01b038216820361055e57565b919082604091031261055e576020611c0c83611be1565b92015190565b9081602091031261055e5751801515810361055e5790565b91908203918211611c3757565b634e487b7160e01b600052601160045260246000fd5b6040516323b872dd60e01b60208201526001600160a01b03928316602482015292909116604483015260648083019390935291815260a081019181831067ffffffffffffffff841117611ba957611ca692604052611ca8565b565b906000602091828151910182855af115611d04576000513d611cfb57506001600160a01b0381163b155b611cd95750565b604051635274afe760e01b81526001600160a01b039091166004820152602490fd5b60011415611cd2565b6040513d6000823e3d90fd5b60405163a9059cbb60e01b60208201526001600160a01b03929092166024830152604480830193909352918152611ca691611d4c606483611bbf565b611ca856fea2646970667358221220bc79f504db43edcf4b54b83fc451d4fa8439153e6b0b8274f50b63228fb95bab64736f6c634300081400332f8788117e7eff1d82e926ec794901d17c78024a50270940304540a733656f0d",
  "devdoc": {
    "details": "Interacts with the DStakeToken, DStakeCollateralVault, and various IDStableConversionAdapters.      This contract is non-upgradeable but replaceable via DStakeToken governance.      Relies on the associated DStakeToken for role management.",
    "errors": {
      "AccessControlBadConfirmation()": [
        {
          "details": "The caller of a function is not the expected one. NOTE: Don't confuse with {AccessControlUnauthorizedAccount}."
        }
      ],
      "AccessControlUnauthorizedAccount(address,bytes32)": [
        {
          "details": "The `account` is missing a role."
        }
      ],
      "SafeERC20FailedOperation(address)": [
        {
          "details": "An operation with an ERC-20 token failed."
        }
      ]
    },
    "events": {
      "RoleAdminChanged(bytes32,bytes32,bytes32)": {
        "details": "Emitted when `newAdminRole` is set as ``role``'s admin role, replacing `previousAdminRole` `DEFAULT_ADMIN_ROLE` is the starting admin for all roles, despite {RoleAdminChanged} not being emitted to signal this."
      },
      "RoleGranted(bytes32,address,address)": {
        "details": "Emitted when `account` is granted `role`. `sender` is the account that originated the contract call. This account bears the admin role (for the granted role). Expected in cases where the role was granted using the internal {AccessControl-_grantRole}."
      },
      "RoleRevoked(bytes32,address,address)": {
        "details": "Emitted when `account` is revoked `role`. `sender` is the account that originated the contract call:   - if using `revokeRole`, it is the admin role bearer   - if using `renounceRole`, it is the role bearer (i.e. `account`)"
      }
    },
    "kind": "dev",
    "methods": {
      "addAdapter(address,address)": {
        "details": "Only callable by an address with DEFAULT_ADMIN_ROLE.",
        "params": {
          "adapterAddress": "The address of the new adapter contract.",
          "vaultAsset": "The address of the vault asset."
        }
      },
      "deposit(uint256,address)": {
        "details": "Called by `DStakeToken._deposit()` after the token has received the dStable asset.The router MUST pull `dStableAmount` from the caller (`DStakeToken`).",
        "params": {
          "dStableAmount": "The amount of dStable asset deposited by the user into the DStakeToken.",
          "receiver": "The ultimate receiver of the minted dSTAKE shares (passed through for potential future use/events)."
        }
      },
      "exchangeAssets(address,address,uint256,uint256)": {
        "details": "Pulls `fromVaultAsset` from the solver (`msg.sender`) and sends `toVaultAsset` from the vault to the solver.      Requires COLLATERAL_EXCHANGER_ROLE.",
        "params": {
          "fromVaultAsset": "The address of the asset the solver is providing.",
          "fromVaultAssetAmount": "The amount of `fromVaultAsset` provided by the solver.",
          "minToVaultAssetAmount": "The minimum amount of `toVaultAsset` the solver is willing to accept.",
          "toVaultAsset": "The address of the asset the solver will receive from the vault."
        }
      },
      "exchangeAssetsUsingAdapters(address,address,uint256,uint256)": {
        "details": "Uses dSTABLE as the intermediary asset. Requires COLLATERAL_EXCHANGER_ROLE.",
        "params": {
          "fromVaultAsset": "The address of the asset to sell.",
          "fromVaultAssetAmount": "The amount of the `fromVaultAsset` to exchange.",
          "minToVaultAssetAmount": "The minimum amount of `toVaultAsset` the solver is willing to accept.",
          "toVaultAsset": "The address of the asset to buy."
        }
      },
      "getRoleAdmin(bytes32)": {
        "details": "Returns the admin role that controls `role`. See {grantRole} and {revokeRole}. To change a role's admin, use {_setRoleAdmin}."
      },
      "grantRole(bytes32,address)": {
        "details": "Grants `role` to `account`. If `account` had not been already granted `role`, emits a {RoleGranted} event. Requirements: - the caller must have ``role``'s admin role. May emit a {RoleGranted} event."
      },
      "hasRole(bytes32,address)": {
        "details": "Returns `true` if `account` has been granted `role`."
      },
      "removeAdapter(address)": {
        "details": "Only callable by an address with DEFAULT_ADMIN_ROLE.Does not automatically migrate funds. Ensure assets managed by this adapter are zero      in the collateral vault or migrated via exchangeAssets before calling.",
        "params": {
          "vaultAsset": "The address of the vault asset to remove."
        }
      },
      "renounceRole(bytes32,address)": {
        "details": "Revokes `role` from the calling account. Roles are often managed via {grantRole} and {revokeRole}: this function's purpose is to provide a mechanism for accounts to lose their privileges if they are compromised (such as when a trusted device is misplaced). If the calling account had been revoked `role`, emits a {RoleRevoked} event. Requirements: - the caller must be `callerConfirmation`. May emit a {RoleRevoked} event."
      },
      "revokeRole(bytes32,address)": {
        "details": "Revokes `role` from `account`. If `account` had been granted `role`, emits a {RoleRevoked} event. Requirements: - the caller must have ``role``'s admin role. May emit a {RoleRevoked} event."
      },
      "setDefaultDepositVaultAsset(address)": {
        "details": "Only callable by an address with DEFAULT_ADMIN_ROLE.",
        "params": {
          "vaultAsset": "The address of the vault asset to set as default."
        }
      },
      "setDustTolerance(uint256)": {
        "details": "Only callable by DEFAULT_ADMIN_ROLE.",
        "params": {
          "_dustTolerance": "The new tolerance value in wei of dStable."
        }
      },
      "supportsInterface(bytes4)": {
        "details": "See {IERC165-supportsInterface}."
      },
      "withdraw(uint256,address,address)": {
        "details": "Called by `DStakeToken._withdraw()`.The router coordinates pulling the required `vaultAsset` from the collateral vault      and ensuring the converted dStable asset is sent to the `receiver`.",
        "params": {
          "dStableAmount": "The amount of dStable asset to be withdrawn to the `receiver` (after vault fees).",
          "owner": "The original owner initiating the withdrawal (typically the user burning shares).",
          "receiver": "The address that will receive the withdrawn dStable asset."
        }
      }
    },
    "title": "DStakeRouterDLend",
    "version": 1
  },
  "userdoc": {
    "kind": "user",
    "methods": {
      "addAdapter(address,address)": {
        "notice": "Adds or updates a conversion adapter for a given vault asset."
      },
      "deposit(uint256,address)": {
        "notice": "Handles the conversion of deposited dStable asset into a chosen `vaultAsset`         and informs the collateral vault."
      },
      "exchangeAssets(address,address,uint256,uint256)": {
        "notice": "Exchanges assets between the collateral vault and an external solver."
      },
      "exchangeAssetsUsingAdapters(address,address,uint256,uint256)": {
        "notice": "Exchanges `fromVaultAssetAmount` of one vault asset for another via their adapters."
      },
      "removeAdapter(address)": {
        "notice": "Removes a conversion adapter for a given vault asset."
      },
      "setDefaultDepositVaultAsset(address)": {
        "notice": "Sets the default vault asset to use for new deposits."
      },
      "setDustTolerance(uint256)": {
        "notice": "Updates the `dustTolerance` used for value-parity checks."
      },
      "withdraw(uint256,address,address)": {
        "notice": "Handles the conversion of a `vaultAsset` back into the dStable asset for withdrawal."
      }
    },
    "notice": "Orchestrates deposits, withdrawals, and asset exchanges for a DStakeToken vault.",
    "version": 1
  },
  "storageLayout": {
    "storage": [
      {
        "astId": 26,
        "contract": "contracts/vaults/dstake/DStakeRouterDLend.sol:DStakeRouterDLend",
        "label": "_roles",
        "offset": 0,
        "slot": "0",
        "type": "t_mapping(t_bytes32,t_struct(RoleData)21_storage)"
      },
      {
        "astId": 8851,
        "contract": "contracts/vaults/dstake/DStakeRouterDLend.sol:DStakeRouterDLend",
        "label": "dustTolerance",
        "offset": 0,
        "slot": "1",
        "type": "t_uint256"
      },
      {
        "astId": 8855,
        "contract": "contracts/vaults/dstake/DStakeRouterDLend.sol:DStakeRouterDLend",
        "label": "vaultAssetToAdapter",
        "offset": 0,
        "slot": "2",
        "type": "t_mapping(t_address,t_address)"
      },
      {
        "astId": 8857,
        "contract": "contracts/vaults/dstake/DStakeRouterDLend.sol:DStakeRouterDLend",
        "label": "defaultDepositVaultAsset",
        "offset": 0,
        "slot": "3",
        "type": "t_address"
      }
    ],
    "types": {
      "t_address": {
        "encoding": "inplace",
        "label": "address",
        "numberOfBytes": "20"
      },
      "t_bool": {
        "encoding": "inplace",
        "label": "bool",
        "numberOfBytes": "1"
      },
      "t_bytes32": {
        "encoding": "inplace",
        "label": "bytes32",
        "numberOfBytes": "32"
      },
      "t_mapping(t_address,t_address)": {
        "encoding": "mapping",
        "key": "t_address",
        "label": "mapping(address => address)",
        "numberOfBytes": "32",
        "value": "t_address"
      },
      "t_mapping(t_address,t_bool)": {
        "encoding": "mapping",
        "key": "t_address",
        "label": "mapping(address => bool)",
        "numberOfBytes": "32",
        "value": "t_bool"
      },
      "t_mapping(t_bytes32,t_struct(RoleData)21_storage)": {
        "encoding": "mapping",
        "key": "t_bytes32",
        "label": "mapping(bytes32 => struct AccessControl.RoleData)",
        "numberOfBytes": "32",
        "value": "t_struct(RoleData)21_storage"
      },
      "t_struct(RoleData)21_storage": {
        "encoding": "inplace",
        "label": "struct AccessControl.RoleData",
        "members": [
          {
            "astId": 18,
            "contract": "contracts/vaults/dstake/DStakeRouterDLend.sol:DStakeRouterDLend",
            "label": "hasRole",
            "offset": 0,
            "slot": "0",
            "type": "t_mapping(t_address,t_bool)"
          },
          {
            "astId": 20,
            "contract": "contracts/vaults/dstake/DStakeRouterDLend.sol:DStakeRouterDLend",
            "label": "adminRole",
            "offset": 0,
            "slot": "1",
            "type": "t_bytes32"
          }
        ],
        "numberOfBytes": "64"
      },
      "t_uint256": {
        "encoding": "inplace",
        "label": "uint256",
        "numberOfBytes": "32"
      }
    }
  }
}