{
  "address": "0x25593eC0Ff6c3c48663eC240E34Fb6d3aBEa654C",
  "abi": [
    {
      "inputs": [],
      "stateMutability": "nonpayable",
      "type": "constructor"
    },
    {
      "inputs": [],
      "name": "AccessControlBadConfirmation",
      "type": "error"
    },
    {
      "inputs": [
        {
          "internalType": "address",
          "name": "account",
          "type": "address"
        },
        {
          "internalType": "bytes32",
          "name": "neededRole",
          "type": "bytes32"
        }
      ],
      "name": "AccessControlUnauthorizedAccount",
      "type": "error"
    },
    {
      "inputs": [
        {
          "internalType": "address",
          "name": "spender",
          "type": "address"
        },
        {
          "internalType": "uint256",
          "name": "allowance",
          "type": "uint256"
        },
        {
          "internalType": "uint256",
          "name": "needed",
          "type": "uint256"
        }
      ],
      "name": "ERC20InsufficientAllowance",
      "type": "error"
    },
    {
      "inputs": [
        {
          "internalType": "address",
          "name": "sender",
          "type": "address"
        },
        {
          "internalType": "uint256",
          "name": "balance",
          "type": "uint256"
        },
        {
          "internalType": "uint256",
          "name": "needed",
          "type": "uint256"
        }
      ],
      "name": "ERC20InsufficientBalance",
      "type": "error"
    },
    {
      "inputs": [
        {
          "internalType": "address",
          "name": "approver",
          "type": "address"
        }
      ],
      "name": "ERC20InvalidApprover",
      "type": "error"
    },
    {
      "inputs": [
        {
          "internalType": "address",
          "name": "receiver",
          "type": "address"
        }
      ],
      "name": "ERC20InvalidReceiver",
      "type": "error"
    },
    {
      "inputs": [
        {
          "internalType": "address",
          "name": "sender",
          "type": "address"
        }
      ],
      "name": "ERC20InvalidSender",
      "type": "error"
    },
    {
      "inputs": [
        {
          "internalType": "address",
          "name": "spender",
          "type": "address"
        }
      ],
      "name": "ERC20InvalidSpender",
      "type": "error"
    },
    {
      "inputs": [
        {
          "internalType": "address",
          "name": "receiver",
          "type": "address"
        },
        {
          "internalType": "uint256",
          "name": "assets",
          "type": "uint256"
        },
        {
          "internalType": "uint256",
          "name": "max",
          "type": "uint256"
        }
      ],
      "name": "ERC4626ExceededMaxDeposit",
      "type": "error"
    },
    {
      "inputs": [
        {
          "internalType": "address",
          "name": "receiver",
          "type": "address"
        },
        {
          "internalType": "uint256",
          "name": "shares",
          "type": "uint256"
        },
        {
          "internalType": "uint256",
          "name": "max",
          "type": "uint256"
        }
      ],
      "name": "ERC4626ExceededMaxMint",
      "type": "error"
    },
    {
      "inputs": [
        {
          "internalType": "address",
          "name": "owner",
          "type": "address"
        },
        {
          "internalType": "uint256",
          "name": "shares",
          "type": "uint256"
        },
        {
          "internalType": "uint256",
          "name": "max",
          "type": "uint256"
        }
      ],
      "name": "ERC4626ExceededMaxRedeem",
      "type": "error"
    },
    {
      "inputs": [
        {
          "internalType": "address",
          "name": "owner",
          "type": "address"
        },
        {
          "internalType": "uint256",
          "name": "assets",
          "type": "uint256"
        },
        {
          "internalType": "uint256",
          "name": "max",
          "type": "uint256"
        }
      ],
      "name": "ERC4626ExceededMaxWithdraw",
      "type": "error"
    },
    {
      "inputs": [
        {
          "internalType": "uint256",
          "name": "feeBps",
          "type": "uint256"
        },
        {
          "internalType": "uint256",
          "name": "maxFeeBps",
          "type": "uint256"
        }
      ],
      "name": "InitialFeeExceedsMaxFee",
      "type": "error"
    },
    {
      "inputs": [
        {
          "internalType": "uint256",
          "name": "feeBps",
          "type": "uint256"
        },
        {
          "internalType": "uint256",
          "name": "maxFeeBps",
          "type": "uint256"
        }
      ],
      "name": "InvalidFeeBps",
      "type": "error"
    },
    {
      "inputs": [],
      "name": "InvalidInitialization",
      "type": "error"
    },
    {
      "inputs": [],
      "name": "NotInitializing",
      "type": "error"
    },
    {
      "inputs": [
        {
          "internalType": "address",
          "name": "token",
          "type": "address"
        }
      ],
      "name": "SafeERC20FailedOperation",
      "type": "error"
    },
    {
      "inputs": [],
      "name": "ZeroAddress",
      "type": "error"
    },
    {
      "anonymous": false,
      "inputs": [
        {
          "indexed": true,
          "internalType": "address",
          "name": "owner",
          "type": "address"
        },
        {
          "indexed": true,
          "internalType": "address",
          "name": "spender",
          "type": "address"
        },
        {
          "indexed": false,
          "internalType": "uint256",
          "name": "value",
          "type": "uint256"
        }
      ],
      "name": "Approval",
      "type": "event"
    },
    {
      "anonymous": false,
      "inputs": [
        {
          "indexed": true,
          "internalType": "address",
          "name": "collateralVault",
          "type": "address"
        }
      ],
      "name": "CollateralVaultSet",
      "type": "event"
    },
    {
      "anonymous": false,
      "inputs": [
        {
          "indexed": true,
          "internalType": "address",
          "name": "sender",
          "type": "address"
        },
        {
          "indexed": true,
          "internalType": "address",
          "name": "owner",
          "type": "address"
        },
        {
          "indexed": false,
          "internalType": "uint256",
          "name": "assets",
          "type": "uint256"
        },
        {
          "indexed": false,
          "internalType": "uint256",
          "name": "shares",
          "type": "uint256"
        }
      ],
      "name": "Deposit",
      "type": "event"
    },
    {
      "anonymous": false,
      "inputs": [
        {
          "indexed": false,
          "internalType": "uint64",
          "name": "version",
          "type": "uint64"
        }
      ],
      "name": "Initialized",
      "type": "event"
    },
    {
      "anonymous": false,
      "inputs": [
        {
          "indexed": true,
          "internalType": "bytes32",
          "name": "role",
          "type": "bytes32"
        },
        {
          "indexed": true,
          "internalType": "bytes32",
          "name": "previousAdminRole",
          "type": "bytes32"
        },
        {
          "indexed": true,
          "internalType": "bytes32",
          "name": "newAdminRole",
          "type": "bytes32"
        }
      ],
      "name": "RoleAdminChanged",
      "type": "event"
    },
    {
      "anonymous": false,
      "inputs": [
        {
          "indexed": true,
          "internalType": "bytes32",
          "name": "role",
          "type": "bytes32"
        },
        {
          "indexed": true,
          "internalType": "address",
          "name": "account",
          "type": "address"
        },
        {
          "indexed": true,
          "internalType": "address",
          "name": "sender",
          "type": "address"
        }
      ],
      "name": "RoleGranted",
      "type": "event"
    },
    {
      "anonymous": false,
      "inputs": [
        {
          "indexed": true,
          "internalType": "bytes32",
          "name": "role",
          "type": "bytes32"
        },
        {
          "indexed": true,
          "internalType": "address",
          "name": "account",
          "type": "address"
        },
        {
          "indexed": true,
          "internalType": "address",
          "name": "sender",
          "type": "address"
        }
      ],
      "name": "RoleRevoked",
      "type": "event"
    },
    {
      "anonymous": false,
      "inputs": [
        {
          "indexed": true,
          "internalType": "address",
          "name": "router",
          "type": "address"
        }
      ],
      "name": "RouterSet",
      "type": "event"
    },
    {
      "anonymous": false,
      "inputs": [
        {
          "indexed": true,
          "internalType": "address",
          "name": "from",
          "type": "address"
        },
        {
          "indexed": true,
          "internalType": "address",
          "name": "to",
          "type": "address"
        },
        {
          "indexed": false,
          "internalType": "uint256",
          "name": "value",
          "type": "uint256"
        }
      ],
      "name": "Transfer",
      "type": "event"
    },
    {
      "anonymous": false,
      "inputs": [
        {
          "indexed": true,
          "internalType": "address",
          "name": "sender",
          "type": "address"
        },
        {
          "indexed": true,
          "internalType": "address",
          "name": "receiver",
          "type": "address"
        },
        {
          "indexed": true,
          "internalType": "address",
          "name": "owner",
          "type": "address"
        },
        {
          "indexed": false,
          "internalType": "uint256",
          "name": "assets",
          "type": "uint256"
        },
        {
          "indexed": false,
          "internalType": "uint256",
          "name": "shares",
          "type": "uint256"
        }
      ],
      "name": "Withdraw",
      "type": "event"
    },
    {
      "anonymous": false,
      "inputs": [
        {
          "indexed": true,
          "internalType": "address",
          "name": "owner",
          "type": "address"
        },
        {
          "indexed": true,
          "internalType": "address",
          "name": "receiver",
          "type": "address"
        },
        {
          "indexed": false,
          "internalType": "uint256",
          "name": "feeAmount",
          "type": "uint256"
        }
      ],
      "name": "WithdrawalFee",
      "type": "event"
    },
    {
      "anonymous": false,
      "inputs": [
        {
          "indexed": false,
          "internalType": "uint256",
          "name": "newFeeBps",
          "type": "uint256"
        }
      ],
      "name": "WithdrawalFeeSet",
      "type": "event"
    },
    {
      "inputs": [],
      "name": "DEFAULT_ADMIN_ROLE",
      "outputs": [
        {
          "internalType": "bytes32",
          "name": "",
          "type": "bytes32"
        }
      ],
      "stateMutability": "view",
      "type": "function"
    },
    {
      "inputs": [],
      "name": "FEE_MANAGER_ROLE",
      "outputs": [
        {
          "internalType": "bytes32",
          "name": "",
          "type": "bytes32"
        }
      ],
      "stateMutability": "view",
      "type": "function"
    },
    {
      "inputs": [],
      "name": "MAX_WITHDRAWAL_FEE_BPS",
      "outputs": [
        {
          "internalType": "uint256",
          "name": "",
          "type": "uint256"
        }
      ],
      "stateMutability": "view",
      "type": "function"
    },
    {
      "inputs": [
        {
          "internalType": "address",
          "name": "owner",
          "type": "address"
        },
        {
          "internalType": "address",
          "name": "spender",
          "type": "address"
        }
      ],
      "name": "allowance",
      "outputs": [
        {
          "internalType": "uint256",
          "name": "",
          "type": "uint256"
        }
      ],
      "stateMutability": "view",
      "type": "function"
    },
    {
      "inputs": [
        {
          "internalType": "address",
          "name": "spender",
          "type": "address"
        },
        {
          "internalType": "uint256",
          "name": "value",
          "type": "uint256"
        }
      ],
      "name": "approve",
      "outputs": [
        {
          "internalType": "bool",
          "name": "",
          "type": "bool"
        }
      ],
      "stateMutability": "nonpayable",
      "type": "function"
    },
    {
      "inputs": [],
      "name": "asset",
      "outputs": [
        {
          "internalType": "address",
          "name": "",
          "type": "address"
        }
      ],
      "stateMutability": "view",
      "type": "function"
    },
    {
      "inputs": [
        {
          "internalType": "address",
          "name": "account",
          "type": "address"
        }
      ],
      "name": "balanceOf",
      "outputs": [
        {
          "internalType": "uint256",
          "name": "",
          "type": "uint256"
        }
      ],
      "stateMutability": "view",
      "type": "function"
    },
    {
      "inputs": [],
      "name": "collateralVault",
      "outputs": [
        {
          "internalType": "contract IDStakeCollateralVault",
          "name": "",
          "type": "address"
        }
      ],
      "stateMutability": "view",
      "type": "function"
    },
    {
      "inputs": [
        {
          "internalType": "uint256",
          "name": "shares",
          "type": "uint256"
        }
      ],
      "name": "convertToAssets",
      "outputs": [
        {
          "internalType": "uint256",
          "name": "",
          "type": "uint256"
        }
      ],
      "stateMutability": "view",
      "type": "function"
    },
    {
      "inputs": [
        {
          "internalType": "uint256",
          "name": "assets",
          "type": "uint256"
        }
      ],
      "name": "convertToShares",
      "outputs": [
        {
          "internalType": "uint256",
          "name": "",
          "type": "uint256"
        }
      ],
      "stateMutability": "view",
      "type": "function"
    },
    {
      "inputs": [],
      "name": "decimals",
      "outputs": [
        {
          "internalType": "uint8",
          "name": "",
          "type": "uint8"
        }
      ],
      "stateMutability": "view",
      "type": "function"
    },
    {
      "inputs": [
        {
          "internalType": "uint256",
          "name": "assets",
          "type": "uint256"
        },
        {
          "internalType": "address",
          "name": "receiver",
          "type": "address"
        }
      ],
      "name": "deposit",
      "outputs": [
        {
          "internalType": "uint256",
          "name": "",
          "type": "uint256"
        }
      ],
      "stateMutability": "nonpayable",
      "type": "function"
    },
    {
      "inputs": [
        {
          "internalType": "bytes32",
          "name": "role",
          "type": "bytes32"
        }
      ],
      "name": "getRoleAdmin",
      "outputs": [
        {
          "internalType": "bytes32",
          "name": "",
          "type": "bytes32"
        }
      ],
      "stateMutability": "view",
      "type": "function"
    },
    {
      "inputs": [],
      "name": "getWithdrawalFeeBps",
      "outputs": [
        {
          "internalType": "uint256",
          "name": "",
          "type": "uint256"
        }
      ],
      "stateMutability": "view",
      "type": "function"
    },
    {
      "inputs": [
        {
          "internalType": "bytes32",
          "name": "role",
          "type": "bytes32"
        },
        {
          "internalType": "address",
          "name": "account",
          "type": "address"
        }
      ],
      "name": "grantRole",
      "outputs": [],
      "stateMutability": "nonpayable",
      "type": "function"
    },
    {
      "inputs": [
        {
          "internalType": "bytes32",
          "name": "role",
          "type": "bytes32"
        },
        {
          "internalType": "address",
          "name": "account",
          "type": "address"
        }
      ],
      "name": "hasRole",
      "outputs": [
        {
          "internalType": "bool",
          "name": "",
          "type": "bool"
        }
      ],
      "stateMutability": "view",
      "type": "function"
    },
    {
      "inputs": [
        {
          "internalType": "contract IERC20",
          "name": "_dStable",
          "type": "address"
        },
        {
          "internalType": "string",
          "name": "_name",
          "type": "string"
        },
        {
          "internalType": "string",
          "name": "_symbol",
          "type": "string"
        },
        {
          "internalType": "address",
          "name": "_initialAdmin",
          "type": "address"
        },
        {
          "internalType": "address",
          "name": "_initialFeeManager",
          "type": "address"
        }
      ],
      "name": "initialize",
      "outputs": [],
      "stateMutability": "nonpayable",
      "type": "function"
    },
    {
      "inputs": [
        {
          "internalType": "address",
          "name": "",
          "type": "address"
        }
      ],
      "name": "maxDeposit",
      "outputs": [
        {
          "internalType": "uint256",
          "name": "",
          "type": "uint256"
        }
      ],
      "stateMutability": "view",
      "type": "function"
    },
    {
      "inputs": [
        {
          "internalType": "address",
          "name": "",
          "type": "address"
        }
      ],
      "name": "maxMint",
      "outputs": [
        {
          "internalType": "uint256",
          "name": "",
          "type": "uint256"
        }
      ],
      "stateMutability": "view",
      "type": "function"
    },
    {
      "inputs": [
        {
          "internalType": "address",
          "name": "owner",
          "type": "address"
        }
      ],
      "name": "maxRedeem",
      "outputs": [
        {
          "internalType": "uint256",
          "name": "",
          "type": "uint256"
        }
      ],
      "stateMutability": "view",
      "type": "function"
    },
    {
      "inputs": [
        {
          "internalType": "address",
          "name": "owner",
          "type": "address"
        }
      ],
      "name": "maxWithdraw",
      "outputs": [
        {
          "internalType": "uint256",
          "name": "",
          "type": "uint256"
        }
      ],
      "stateMutability": "view",
      "type": "function"
    },
    {
      "inputs": [],
      "name": "maxWithdrawalFeeBps",
      "outputs": [
        {
          "internalType": "uint256",
          "name": "",
          "type": "uint256"
        }
      ],
      "stateMutability": "view",
      "type": "function"
    },
    {
      "inputs": [
        {
          "internalType": "uint256",
          "name": "shares",
          "type": "uint256"
        },
        {
          "internalType": "address",
          "name": "receiver",
          "type": "address"
        }
      ],
      "name": "mint",
      "outputs": [
        {
          "internalType": "uint256",
          "name": "",
          "type": "uint256"
        }
      ],
      "stateMutability": "nonpayable",
      "type": "function"
    },
    {
      "inputs": [],
      "name": "name",
      "outputs": [
        {
          "internalType": "string",
          "name": "",
          "type": "string"
        }
      ],
      "stateMutability": "view",
      "type": "function"
    },
    {
      "inputs": [
        {
          "internalType": "uint256",
          "name": "assets",
          "type": "uint256"
        }
      ],
      "name": "previewDeposit",
      "outputs": [
        {
          "internalType": "uint256",
          "name": "",
          "type": "uint256"
        }
      ],
      "stateMutability": "view",
      "type": "function"
    },
    {
      "inputs": [
        {
          "internalType": "uint256",
          "name": "shares",
          "type": "uint256"
        }
      ],
      "name": "previewMint",
      "outputs": [
        {
          "internalType": "uint256",
          "name": "",
          "type": "uint256"
        }
      ],
      "stateMutability": "view",
      "type": "function"
    },
    {
      "inputs": [
        {
          "internalType": "uint256",
          "name": "shares",
          "type": "uint256"
        }
      ],
      "name": "previewRedeem",
      "outputs": [
        {
          "internalType": "uint256",
          "name": "",
          "type": "uint256"
        }
      ],
      "stateMutability": "view",
      "type": "function"
    },
    {
      "inputs": [
        {
          "internalType": "uint256",
          "name": "assets",
          "type": "uint256"
        }
      ],
      "name": "previewWithdraw",
      "outputs": [
        {
          "internalType": "uint256",
          "name": "",
          "type": "uint256"
        }
      ],
      "stateMutability": "view",
      "type": "function"
    },
    {
      "inputs": [
        {
          "internalType": "uint256",
          "name": "shares",
          "type": "uint256"
        },
        {
          "internalType": "address",
          "name": "receiver",
          "type": "address"
        },
        {
          "internalType": "address",
          "name": "owner",
          "type": "address"
        }
      ],
      "name": "redeem",
      "outputs": [
        {
          "internalType": "uint256",
          "name": "assets",
          "type": "uint256"
        }
      ],
      "stateMutability": "nonpayable",
      "type": "function"
    },
    {
      "inputs": [
        {
          "internalType": "bytes32",
          "name": "role",
          "type": "bytes32"
        },
        {
          "internalType": "address",
          "name": "callerConfirmation",
          "type": "address"
        }
      ],
      "name": "renounceRole",
      "outputs": [],
      "stateMutability": "nonpayable",
      "type": "function"
    },
    {
      "inputs": [
        {
          "internalType": "bytes32",
          "name": "role",
          "type": "bytes32"
        },
        {
          "internalType": "address",
          "name": "account",
          "type": "address"
        }
      ],
      "name": "revokeRole",
      "outputs": [],
      "stateMutability": "nonpayable",
      "type": "function"
    },
    {
      "inputs": [],
      "name": "router",
      "outputs": [
        {
          "internalType": "contract IDStakeRouter",
          "name": "",
          "type": "address"
        }
      ],
      "stateMutability": "view",
      "type": "function"
    },
    {
      "inputs": [
        {
          "internalType": "address",
          "name": "_collateralVault",
          "type": "address"
        }
      ],
      "name": "setCollateralVault",
      "outputs": [],
      "stateMutability": "nonpayable",
      "type": "function"
    },
    {
      "inputs": [
        {
          "internalType": "address",
          "name": "_router",
          "type": "address"
        }
      ],
      "name": "setRouter",
      "outputs": [],
      "stateMutability": "nonpayable",
      "type": "function"
    },
    {
      "inputs": [
        {
          "internalType": "uint256",
          "name": "_feeBps",
          "type": "uint256"
        }
      ],
      "name": "setWithdrawalFee",
      "outputs": [],
      "stateMutability": "nonpayable",
      "type": "function"
    },
    {
      "inputs": [
        {
          "internalType": "bytes4",
          "name": "interfaceId",
          "type": "bytes4"
        }
      ],
      "name": "supportsInterface",
      "outputs": [
        {
          "internalType": "bool",
          "name": "",
          "type": "bool"
        }
      ],
      "stateMutability": "view",
      "type": "function"
    },
    {
      "inputs": [],
      "name": "symbol",
      "outputs": [
        {
          "internalType": "string",
          "name": "",
          "type": "string"
        }
      ],
      "stateMutability": "view",
      "type": "function"
    },
    {
      "inputs": [],
      "name": "totalAssets",
      "outputs": [
        {
          "internalType": "uint256",
          "name": "",
          "type": "uint256"
        }
      ],
      "stateMutability": "view",
      "type": "function"
    },
    {
      "inputs": [],
      "name": "totalSupply",
      "outputs": [
        {
          "internalType": "uint256",
          "name": "",
          "type": "uint256"
        }
      ],
      "stateMutability": "view",
      "type": "function"
    },
    {
      "inputs": [
        {
          "internalType": "address",
          "name": "to",
          "type": "address"
        },
        {
          "internalType": "uint256",
          "name": "value",
          "type": "uint256"
        }
      ],
      "name": "transfer",
      "outputs": [
        {
          "internalType": "bool",
          "name": "",
          "type": "bool"
        }
      ],
      "stateMutability": "nonpayable",
      "type": "function"
    },
    {
      "inputs": [
        {
          "internalType": "address",
          "name": "from",
          "type": "address"
        },
        {
          "internalType": "address",
          "name": "to",
          "type": "address"
        },
        {
          "internalType": "uint256",
          "name": "value",
          "type": "uint256"
        }
      ],
      "name": "transferFrom",
      "outputs": [
        {
          "internalType": "bool",
          "name": "",
          "type": "bool"
        }
      ],
      "stateMutability": "nonpayable",
      "type": "function"
    },
    {
      "inputs": [
        {
          "internalType": "uint256",
          "name": "assets",
          "type": "uint256"
        },
        {
          "internalType": "address",
          "name": "receiver",
          "type": "address"
        },
        {
          "internalType": "address",
          "name": "owner",
          "type": "address"
        }
      ],
      "name": "withdraw",
      "outputs": [
        {
          "internalType": "uint256",
          "name": "shares",
          "type": "uint256"
        }
      ],
      "stateMutability": "nonpayable",
      "type": "function"
    },
    {
      "inputs": [],
      "name": "withdrawalFeeBps",
      "outputs": [
        {
          "internalType": "uint256",
          "name": "",
          "type": "uint256"
        }
      ],
      "stateMutability": "view",
      "type": "function"
    }
  ],
  "transactionHash": "0xb4a7985fd1cf2e51fb1c250ac11fc6f3ae342f7d115032c02efe87ec6392897b",
  "args": [],
  "numDeployments": 1,
  "solcInputHash": "7cc74618afe6f8af476aa833093a177e",
  "bytecode": "0x608080604052346100b8577ff0c57e16840df040f15088dc2f81fe391c3923bec73e23a9662efc9c229c6a009081549060ff8260401c166100a957506001600160401b036002600160401b031982821601610064575b60405161227b90816100be8239f35b6001600160401b031990911681179091556040519081527fc7f505b2f371ae2175ee4913f4499e1f2633a7b5936321eed1cdaeb6115181d290602090a1388080610055565b63f92ee8a960e01b8152600490fd5b600080fdfe6080604052600436101561001257600080fd5b60003560e01c806301e1d1141461125457806301ffc9a7146111fe57806304336bb3146107bd57806305db2f41146111c357806306fdde031461111f57806307a2d13a14611101578063095ea7b31461104e5780630a28a4771461102d5780630bece79c1461100457806318160ddd14610fd95780631bbf12241461044657806323b872dd14610fa1578063248a9ca314610f655780632f2ff15d14610f19578063313ce56714610ec957806336568abe14610e8257806338d52e0f14610e4c578063402d267d146103315780634cdad50614610e2b57806368a806c414610dc25780636cf1dbed1461080e5780636e553f65146107db57806370a082311461027157806387451437146107bd57806391d148541461076357806394bf804d1461073057806395d89b411461064e578063a217fddf14610632578063a9059cbb14610601578063ac1e50251461051a578063b3d7f6b9146104fc578063b460af9414610463578063b6783edd14610446578063ba087652146103b1578063c0d7865514610336578063c63d75b614610331578063c6e6f59214610223578063ce96cb77146102ea578063d547741f1461029c578063d905777e14610271578063dd62ed3e14610228578063ef8b30f7146102235763f887ea40146101f557600080fd5b3461021e57600036600319011261021e576002546040516001600160a01b039091168152602090f35b600080fd5b6113d8565b3461021e57604036600319011261021e576102416112b8565b61025261024c6112ce565b916114ad565b9060018060a01b03166000526020526020604060002054604051908152f35b3461021e57602036600319011261021e57602061029461028f6112b8565b6114e6565b604051908152f35b3461021e57604036600319011261021e576102e86004356102bb6112ce565b90806000526000805160206121c68339815191526020526102e3600160406000200154611801565b611a1d565b005b3461021e57602036600319011261021e576001600160a01b0361030b6112b8565b16600052600080516020612166833981519152602052602061029460406000205461151b565b6112e4565b3461021e57602036600319011261021e5761034f6112b8565b6103576117c7565b6001600160a01b0316801561039f57600280546001600160a01b031916821790557fc6b438e6a8a59579ce6a4406cbd203b740e0d47b458aae6596339bcd40c40d15600080a2005b60405163d92e233d60e01b8152600490fd5b3461021e576103bf366113a3565b6103c88361151b565b906103d2816114e6565b841161040157602093826103ea926102949533611d08565b620f42406103fa6000548361158e565b04906115a1565b60405162461bcd60e51b815260206004820152601d60248201527f455243343632363a2072656465656d206d6f7265207468616e206d61780000006044820152606490fd5b3461021e57600036600319011261021e5760206040516127108152f35b3461021e57610481610486610477366113a3565b92919390936115ce565b611f14565b906104908261151b565b926104a261049d836114e6565b61151b565b84116104b75760209361029492849233611d08565b60405162461bcd60e51b815260206004820152601f60248201527f455243343632363a207769746864726177206d6f7265207468616e206d6178006044820152606490fd5b3461021e57602036600319011261021e576020610294600435611556565b3461021e57602036600319011261021e573360009081527f294f263e68a44628370ca7eca46e11f3043892ee36ff7375f356adc9c81178056020526040902054600435907f6c0757dc3e6b28b2580c03fd9e96c274acf4f99d91fbec9b418fa1d70604ff1c9060ff16156105e357506127108082116105c4577f48dcfdaa10944928da945a9017941a9e4118df541fb7d429104f5372e9eb994f60208380600055604051908152a1005b60405163080b349760e01b815260048101929092526024820152604490fd5b6044906040519063e2517d3f60e01b82523360048301526024820152fd5b3461021e57604036600319011261021e5761062761061d6112b8565b60243590336116d9565b602060405160018152f35b3461021e57600036600319011261021e57602060405160008152f35b3461021e57600036600319011261021e57604051600060008051602061218683398151915280549061067f82611473565b8085529160209160019182811690811561070357506001146106bc575b6106b8866106ac8188038261131e565b6040519182918261126f565b0390f35b600090815293506000805160206122068339815191525b8385106106f0575050505081016020016106ac826106b88561069c565b80548686018401529382019381016106d3565b90508695506106b8969350602092506106ac94915060ff191682840152151560051b82010192938561069c565b3461021e57604036600319011261021e5760206004356102946107516112ce565b9161075b81611556565b809333611aa0565b3461021e57604036600319011261021e5761077c6112ce565b6004356000526000805160206121c683398151915260205260406000209060018060a01b0316600052602052602060ff604060002054166040519015158152f35b3461021e57600036600319011261021e576020600054604051908152f35b3461021e57604036600319011261021e5760206004356102946107fc6112ce565b61080583611f4c565b92839133611aa0565b3461021e5760a036600319011261021e576001600160a01b03600435808216900361021e5760243567ffffffffffffffff811161021e5761085390369060040161135c565b9060443567ffffffffffffffff811161021e5761087490369060040161135c565b9080606435166064350361021e5780608435166084350361021e57600080516020612226833981519152549067ffffffffffffffff821680159081610db2575b6001149081610da8575b159081610d9f575b50610d8d57600167ffffffffffffffff198316176000805160206122268339815191525560ff8260401c1615610d60575b6108ff611fa4565b610907611fa4565b835167ffffffffffffffff8111610c3a5761093060008051602061214683398151915254611473565b601f8111610cea575b506020601f8211600114610c5b578192939495600092610c50575b50508160011b916000199060031b1c191617600080516020612146833981519152555b825167ffffffffffffffff8111610c3a576109a060008051602061218683398151915254611473565b601f8111610bc4575b506020601f8211600114610b385781929394600092610b2d575b50508160011b916000199060031b1c191617600080516020612186833981519152555b6109ee611fa4565b6109f6611fa4565b610a01600435612070565b9015610b25575b6000805160206121e683398151915280546001600160a81b03191660a09290921b60ff60a01b16919091176004358316179055610a43611fa4565b600080557f48dcfdaa10944928da945a9017941a9e4118df541fb7d429104f5372e9eb994f602060405160008152a1806004351615908115610b18575b8115610b0b575b5061039f5760ff90610a9a606435611834565b50610aa66084356118d4565b5060401c1615610ab257005b68ff0000000000000000196000805160206122268339815191525416600080516020612226833981519152557fc7f505b2f371ae2175ee4913f4499e1f2633a7b5936321eed1cdaeb6115181d2602060405160018152a1005b9050608435161582610a87565b6064358116159150610a80565b506012610a08565b0151905084806109c3565b601f198216906000805160206121868339815191526000526000805160206122068339815191529160005b818110610bac57509583600195969710610b93575b505050811b01600080516020612186833981519152556109e6565b015160001960f88460031b161c19169055848080610b78565b9192602060018192868b015181550194019201610b63565b600080516020612186833981519152600052601f820160051c6000805160206122068339815191520160208310610c25575b601f820160051c600080516020612206833981519152018110610c1957506109a9565b60008155600101610bf6565b50600080516020612206833981519152610bf6565b634e487b7160e01b600052604160045260246000fd5b015190508580610954565b6000805160206121468339815191526000526000805160206121268339815191529060005b601f1984168110610cd2575060019394959683601f19811610610cb9575b505050811b0160008051602061214683398151915255610977565b015160001960f88460031b161c19169055858080610c9e565b9091602060018192858b015181550193019101610c80565b600080516020612146833981519152600052601f820160051c6000805160206121268339815191520160208310610d4b575b601f820160051c600080516020612126833981519152018110610d3f5750610939565b60008155600101610d1c565b50600080516020612126833981519152610d1c565b68ffffffffffffffffff1982166801000000000000000117600080516020612226833981519152556108f7565b60405163f92ee8a960e01b8152600490fd5b905015856108c6565b303b1591506108be565b604084901c60ff161591506108b4565b3461021e57602036600319011261021e57610ddb6112b8565b610de36117c7565b6001600160a01b0316801561039f57600180546001600160a01b031916821790557fc92ec24b34ad9d3aa14cd5be87b888d7790d40903da5f44c6367b2fb6cdb2083600080a2005b3461021e57602036600319011261021e5760206102946103ea60043561151b565b3461021e57600036600319011261021e576000805160206121e6833981519152546040516001600160a01b039091168152602090f35b3461021e57604036600319011261021e57610e9b6112ce565b336001600160a01b03821603610eb7576102e890600435611a1d565b60405163334bd91960e11b8152600490fd5b3461021e57600036600319011261021e5760ff6000805160206121e68339815191525460a01c1660ff8111610f0357602090604051908152f35b634e487b7160e01b600052601160045260246000fd5b3461021e57604036600319011261021e576102e8600435610f386112ce565b90806000526000805160206121c6833981519152602052610f60600160406000200154611801565b611996565b3461021e57602036600319011261021e576004356000526000805160206121c68339815191526020526020600160406000200154604051908152f35b3461021e57606036600319011261021e57610627610fbd6112b8565b610fc56112ce565b60443591610fd4833383611603565b6116d9565b3461021e57600036600319011261021e5760206000805160206121a683398151915254604051908152f35b3461021e57600036600319011261021e576001546040516001600160a01b039091168152602090f35b3461021e57602036600319011261021e5760206102946104816004356115ce565b3461021e57604036600319011261021e576110676112b8565b6024359033156110e8576001600160a01b03169081156110cf5761108a336114ad565b82600052602052806040600020556040519081527f8c5be1e5ebec7d5bd14f71427d1e84f3dd0314c0f7b2291e5b200ac8c7c3b92560203392a3602060405160018152f35b604051634a1406b160e11b815260006004820152602490fd5b60405163e602df0560e01b815260006004820152602490fd5b3461021e57602036600319011261021e57602061029460043561151b565b3461021e57600036600319011261021e57604051600060008051602061214683398151915280549061115082611473565b80855291602091600191828116908115610703575060011461117c576106b8866106ac8188038261131e565b600090815293506000805160206121268339815191525b8385106111b0575050505081016020016106ac826106b88561069c565b8054868601840152938201938101611193565b3461021e57600036600319011261021e5760206040517f6c0757dc3e6b28b2580c03fd9e96c274acf4f99d91fbec9b418fa1d70604ff1c8152f35b3461021e57602036600319011261021e5760043563ffffffff60e01b811680910361021e57602090637965db0b60e01b8114908115611243575b506040519015158152f35b6301ffc9a760e01b14905082611238565b3461021e57600036600319011261021e5760206102946113f6565b6020808252825181830181905290939260005b8281106112a457505060409293506000838284010152601f8019910116010190565b818101860151848201604001528501611282565b600435906001600160a01b038216820361021e57565b602435906001600160a01b038216820361021e57565b3461021e57602036600319011261021e576112fd6112b8565b5060206040516000198152f35b67ffffffffffffffff8111610c3a57604052565b90601f8019910116810190811067ffffffffffffffff821117610c3a57604052565b67ffffffffffffffff8111610c3a57601f01601f191660200190565b81601f8201121561021e5780359061137382611340565b92611381604051948561131e565b8284526020838301011161021e57816000926020809301838601378301015290565b606090600319011261021e57600435906001600160a01b0390602435828116810361021e5791604435908116810361021e5790565b3461021e57602036600319011261021e576020610294600435611f4c565b6001546001600160a01b0316801561146d5760206004916040519283809263700af38360e11b82525afa90811561146157600091611432575090565b90506020813d602011611459575b8161144d6020938361131e565b8101031261021e575190565b3d9150611440565b6040513d6000823e3d90fd5b50600090565b90600182811c921680156114a3575b602083101461148d57565b634e487b7160e01b600052602260045260246000fd5b91607f1691611482565b6001600160a01b031660009081527f52c63247e1f47db19d5ce0460030c497f067ca4cebf71ba98eeadabe20bace016020526040902090565b6001600160a01b03166000908152600080516020612166833981519152602052604090205490565b91908201809211610f0357565b6115236113f6565b60018101809111610f03576000805160206121a6833981519152549060018201809211610f035761155392611fd3565b90565b61155e6113f6565b60018101809111610f03576000805160206121a6833981519152549060018201809211610f035761155392611f84565b81810292918115918404141715610f0357565b91908203918211610f0357565b81156115b8570490565b634e487b7160e01b600052601260045260246000fd5b60005480156115ff57620f42409081830292808404831490151715610f03578103908111610f0357611553916115ae565b5090565b919061160e836114ad565b9260018060a01b039081831691600095838752602052604086205493600019851061163d575b50505050505050565b8585106116a8575081161561168f578115611676579061166060409493926114ad565b9085526020520391205538808080808080611634565b604051634a1406b160e11b815260048101869052602490fd5b60405163e602df0560e01b815260048101869052602490fd5b604051637dc7a0d960e11b81526001600160a01b039190911660048201526024810185905260448101869052606490fd5b916001600160a01b038084169283156117ae57169283156117955760009083825260008051602061216683398151915280602052604083205491848310611762575082847fddf252ad1be2c89b69c2b068fc378daa952ba7f163c4a11628f55a4df523b3ef959360409388602097528652038282205586815220818154019055604051908152a3565b60405163391434e360e21b81526001600160a01b0391909116600482015260248101929092525060448101839052606490fd5b60405163ec442f0560e01b815260006004820152602490fd5b604051634b637e8f60e11b815260006004820152602490fd5b3360009081527fb7db2dd08fcb62d0c9e08c51941cae53c267786a0b75803fb7960902fc8ef97d602052604081205460ff16156105e35750565b806000526000805160206121c683398151915260205260406000203360005260205260ff60406000205416156105e35750565b6001600160a01b031660008181527fb7db2dd08fcb62d0c9e08c51941cae53c267786a0b75803fb7960902fc8ef97d60205260408120549091906000805160206121c68339815191529060ff166118cf578280526020526040822081835260205260408220600160ff1982541617905533917f2f8788117e7eff1d82e926ec794901d17c78024a50270940304540a733656f0d8180a4600190565b505090565b6001600160a01b031660008181527f294f263e68a44628370ca7eca46e11f3043892ee36ff7375f356adc9c811780560205260408120549091907f6c0757dc3e6b28b2580c03fd9e96c274acf4f99d91fbec9b418fa1d70604ff1c906000805160206121c68339815191529060ff16611990578184526020526040832082845260205260408320600160ff198254161790557f2f8788117e7eff1d82e926ec794901d17c78024a50270940304540a733656f0d339380a4600190565b50505090565b906000918083526000805160206121c683398151915280602052604084209260018060a01b03169283855260205260ff60408520541615600014611990578184526020526040832082845260205260408320600160ff198254161790557f2f8788117e7eff1d82e926ec794901d17c78024a50270940304540a733656f0d339380a4600190565b906000918083526000805160206121c683398151915280602052604084209260018060a01b03169283855260205260ff60408520541660001461199057818452602052604083208284526020526040832060ff1981541690557ff6391f5c32d9c69d2a47ea670b442974b53935d1edc7fd64eb21e047a839171b339380a4600190565b6002546001600160a01b0393908416158015611cfc575b61039f576000805160206121e68339815191529380855416936040958651602092838201976323b872dd60e01b895285602498169283898201523060448201528760648201526064815260a0810181811067ffffffffffffffff821117611ce7578b525160009986918b9182855af115611cdd5788513d611cd45750803b155b611cbe57508416988915611ca75783928a8995937fdcbc1c05240f31ff3ad067ef1ee35ce4997762752e3a095284754544f4c709d78c89956000805160206121a6833981519152611b8982825461150e565b9055848a526000805160206121668339815191528852818a20818154019055848a7fddf252ad1be2c89b69c2b068fc378daa952ba7f163c4a11628f55a4df523b3ef8a8551858152a38151908c825288820152a35416604485600254168a51958693849263095ea7b360e01b84526004840152898b8401525af18015611c9d57611c66575b505060025416803b15611c62578392918360449287519889958694636e553f6560e01b865260048601528401525af1918215611c58575050611c4d5750565b611c569061130a565b565b51903d90823e3d90fd5b8380fd5b81813d8311611c96575b611c7a818361131e565b81010312611c92575180151503611c62573880611c0e565b8480fd5b503d611c70565b87513d88823e3d90fd5b885163ec442f0560e01b8152600481018990528790fd5b87908a5190635274afe760e01b82526004820152fd5b60011415611b37565b89513d8a823e3d90fd5b89634e487b7160e01b60005260416004526000fd5b50836001541615611ab7565b90936001600160a01b0380841694909392848116929081878503611f03575b50508460025416158015611ef7575b61039f57600094620f4240611d4c87548561158e565b0495611d5887856115a1565b988815611ede5788825260008051602061216683398151915296876020526040978884205491868310611eac57509085918b855260205203878320556000805160206121a683398151915284815403905581897fddf252ad1be2c89b69c2b068fc378daa952ba7f163c4a11628f55a4df523b3ef60208a51888152a38260025416998a3b15611ea8579060648392838a519687948593632d182be560e21b85526004850152169d8e60248401528d60448401525af1908115611e9d575088938895937ffbde797d201c681b91056529119e0b02407c7bb96a4a2c75c01fc9667232c8db938893611e8e575b5082519182526020820152a481611e5b575b50505050565b7f78218b0264705ffc55d5d90ef489f17bfc4791b7314660e867f94f2f0b3a59249160209151908152a338808080611e55565b611e979061130a565b38611e43565b8651903d90823e3d90fd5b8280fd5b895163391434e360e21b81526001600160a01b0391909116600482015260248101929092525060448101859052606490fd5b604051634b637e8f60e11b815260048101839052602490fd5b50846001541615611d36565b611f0d9186611603565b3881611d27565b6000805160206121a68339815191525460018101809111610f0357611f376113f6565b9060018201809211610f035761155392611f84565b6000805160206121a68339815191525460018101809111610f0357611f6f6113f6565b9060018201809211610f035761155392611fd3565b91611f90818385611fd3565b9181156115b857611553930915159061150e565b60ff6000805160206122268339815191525460401c1615611fc157565b604051631afcd79f60e31b8152600490fd5b90916000198383099280830292838086109503948086039514612063578483111561204a579082910981600003821680920460028082600302188083028203028083028203028083028203028083028203028083028203028092029003029360018380600003040190848311900302920304170290565b82634e487b71600052156003026011186020526024601cfd5b50509061155392506115ae565b90604051602081019063313ce56760e01b8252600481526040810181811067ffffffffffffffff821117610c3a576040525160009384928392916001600160a01b03165afa3d1561211d573d906120c682611340565b916120d4604051938461131e565b82523d84602084013e5b80612111575b6120ee575b508190565b602081805181010312611ea8576020015160ff81116120e9576001925060ff1690565b506020815110156120e4565b6060906120de56fe2ae08a8e29253f69ac5d979a101956ab8f8d9d7ded63fa7a83b16fc47648eab052c63247e1f47db19d5ce0460030c497f067ca4cebf71ba98eeadabe20bace0352c63247e1f47db19d5ce0460030c497f067ca4cebf71ba98eeadabe20bace0052c63247e1f47db19d5ce0460030c497f067ca4cebf71ba98eeadabe20bace0452c63247e1f47db19d5ce0460030c497f067ca4cebf71ba98eeadabe20bace0202dd7bc7dec4dceedda775e58dd541e08a116c6c53815c0bd028192f7b6268000773e532dfede91f04b12a73d3d2acd361424f41f76b4fb79f090161e36b4e0046a2803e59a4de4e7a4c574b1243f25977ac4c77d5a1a4a609b5394cebb4a2aaf0c57e16840df040f15088dc2f81fe391c3923bec73e23a9662efc9c229c6a00a264697066735822122072238913ee18391d6f2493a1d83f3161bd2b4bca428348987952d4a5ff30b5a664736f6c63430008160033",
  "devdoc": {
    "details": "ERC4626-compliant token representing shares in the DStakeCollateralVault.",
    "errors": {
      "AccessControlBadConfirmation()": [
        {
          "details": "The caller of a function is not the expected one. NOTE: Don't confuse with {AccessControlUnauthorizedAccount}."
        }
      ],
      "AccessControlUnauthorizedAccount(address,bytes32)": [
        {
          "details": "The `account` is missing a role."
        }
      ],
      "ERC20InsufficientAllowance(address,uint256,uint256)": [
        {
          "details": "Indicates a failure with the `spender`s `allowance`. Used in transfers.",
          "params": {
            "allowance": "Amount of tokens a `spender` is allowed to operate with.",
            "needed": "Minimum amount required to perform a transfer.",
            "spender": "Address that may be allowed to operate on tokens without being their owner."
          }
        }
      ],
      "ERC20InsufficientBalance(address,uint256,uint256)": [
        {
          "details": "Indicates an error related to the current `balance` of a `sender`. Used in transfers.",
          "params": {
            "balance": "Current balance for the interacting account.",
            "needed": "Minimum amount required to perform a transfer.",
            "sender": "Address whose tokens are being transferred."
          }
        }
      ],
      "ERC20InvalidApprover(address)": [
        {
          "details": "Indicates a failure with the `approver` of a token to be approved. Used in approvals.",
          "params": {
            "approver": "Address initiating an approval operation."
          }
        }
      ],
      "ERC20InvalidReceiver(address)": [
        {
          "details": "Indicates a failure with the token `receiver`. Used in transfers.",
          "params": {
            "receiver": "Address to which tokens are being transferred."
          }
        }
      ],
      "ERC20InvalidSender(address)": [
        {
          "details": "Indicates a failure with the token `sender`. Used in transfers.",
          "params": {
            "sender": "Address whose tokens are being transferred."
          }
        }
      ],
      "ERC20InvalidSpender(address)": [
        {
          "details": "Indicates a failure with the `spender` to be approved. Used in approvals.",
          "params": {
            "spender": "Address that may be allowed to operate on tokens without being their owner."
          }
        }
      ],
      "ERC4626ExceededMaxDeposit(address,uint256,uint256)": [
        {
          "details": "Attempted to deposit more assets than the max amount for `receiver`."
        }
      ],
      "ERC4626ExceededMaxMint(address,uint256,uint256)": [
        {
          "details": "Attempted to mint more shares than the max amount for `receiver`."
        }
      ],
      "ERC4626ExceededMaxRedeem(address,uint256,uint256)": [
        {
          "details": "Attempted to redeem more shares than the max amount for `receiver`."
        }
      ],
      "ERC4626ExceededMaxWithdraw(address,uint256,uint256)": [
        {
          "details": "Attempted to withdraw more assets than the max amount for `receiver`."
        }
      ],
      "InvalidInitialization()": [
        {
          "details": "The contract is already initialized."
        }
      ],
      "NotInitializing()": [
        {
          "details": "The contract is not initializing."
        }
      ],
      "SafeERC20FailedOperation(address)": [
        {
          "details": "An operation with an ERC-20 token failed."
        }
      ]
    },
    "events": {
      "Approval(address,address,uint256)": {
        "details": "Emitted when the allowance of a `spender` for an `owner` is set by a call to {approve}. `value` is the new allowance."
      },
      "Initialized(uint64)": {
        "details": "Triggered when the contract has been initialized or reinitialized."
      },
      "RoleAdminChanged(bytes32,bytes32,bytes32)": {
        "details": "Emitted when `newAdminRole` is set as ``role``'s admin role, replacing `previousAdminRole` `DEFAULT_ADMIN_ROLE` is the starting admin for all roles, despite {RoleAdminChanged} not being emitted to signal this."
      },
      "RoleGranted(bytes32,address,address)": {
        "details": "Emitted when `account` is granted `role`. `sender` is the account that originated the contract call. This account bears the admin role (for the granted role). Expected in cases where the role was granted using the internal {AccessControl-_grantRole}."
      },
      "RoleRevoked(bytes32,address,address)": {
        "details": "Emitted when `account` is revoked `role`. `sender` is the account that originated the contract call:   - if using `revokeRole`, it is the admin role bearer   - if using `renounceRole`, it is the role bearer (i.e. `account`)"
      },
      "Transfer(address,address,uint256)": {
        "details": "Emitted when `value` tokens are moved from one account (`from`) to another (`to`). Note that `value` may be zero."
      }
    },
    "kind": "dev",
    "methods": {
      "allowance(address,address)": {
        "details": "See {IERC20-allowance}."
      },
      "approve(address,uint256)": {
        "details": "See {IERC20-approve}. NOTE: If `value` is the maximum `uint256`, the allowance is not updated on `transferFrom`. This is semantically equivalent to an infinite approval. Requirements: - `spender` cannot be the zero address."
      },
      "asset()": {
        "details": "See {IERC4626-asset}. "
      },
      "balanceOf(address)": {
        "details": "See {IERC20-balanceOf}."
      },
      "constructor": {
        "custom:oz-upgrades-unsafe-allow": "constructor"
      },
      "convertToAssets(uint256)": {
        "details": "See {IERC4626-convertToAssets}. "
      },
      "convertToShares(uint256)": {
        "details": "See {IERC4626-convertToShares}. "
      },
      "decimals()": {
        "details": "Decimals are computed by adding the decimal offset on top of the underlying asset's decimals. This \"original\" value is cached during construction of the vault contract. If this read operation fails (e.g., the asset has not been created yet), a default of 18 is used to represent the underlying asset's decimals. See {IERC20Metadata-decimals}."
      },
      "deposit(uint256,address)": {
        "details": "See {IERC4626-deposit}. "
      },
      "getRoleAdmin(bytes32)": {
        "details": "Returns the admin role that controls `role`. See {grantRole} and {revokeRole}. To change a role's admin, use {_setRoleAdmin}."
      },
      "getWithdrawalFeeBps()": {
        "returns": {
          "_0": "The withdrawal fee in basis points."
        }
      },
      "grantRole(bytes32,address)": {
        "details": "Grants `role` to `account`. If `account` had not been already granted `role`, emits a {RoleGranted} event. Requirements: - the caller must have ``role``'s admin role. May emit a {RoleGranted} event."
      },
      "hasRole(bytes32,address)": {
        "details": "Returns `true` if `account` has been granted `role`."
      },
      "maxDeposit(address)": {
        "details": "See {IERC4626-maxDeposit}. "
      },
      "maxMint(address)": {
        "details": "See {IERC4626-maxMint}. "
      },
      "maxRedeem(address)": {
        "details": "See {IERC4626-maxRedeem}. "
      },
      "maxWithdraw(address)": {
        "details": "See {IERC4626-maxWithdraw}. "
      },
      "mint(uint256,address)": {
        "details": "See {IERC4626-mint}. "
      },
      "name()": {
        "details": "Returns the name of the token."
      },
      "previewDeposit(uint256)": {
        "details": "See {IERC4626-previewDeposit}. "
      },
      "previewMint(uint256)": {
        "details": "See {IERC4626-previewMint}. "
      },
      "previewRedeem(uint256)": {
        "details": "Preview redeem including withdrawal fee."
      },
      "previewWithdraw(uint256)": {
        "details": "Preview withdraw including withdrawal fee."
      },
      "redeem(uint256,address,address)": {
        "details": "Override to ensure the withdrawal fee is deducted only once.      The `shares` parameter is converted to its equivalent gross asset value, then the      internal _withdraw handles fee calculation. The returned value is the net assets      actually received by the `receiver`, matching previewRedeem()."
      },
      "renounceRole(bytes32,address)": {
        "details": "Revokes `role` from the calling account. Roles are often managed via {grantRole} and {revokeRole}: this function's purpose is to provide a mechanism for accounts to lose their privileges if they are compromised (such as when a trusted device is misplaced). If the calling account had been revoked `role`, emits a {RoleRevoked} event. Requirements: - the caller must be `callerConfirmation`. May emit a {RoleRevoked} event."
      },
      "revokeRole(bytes32,address)": {
        "details": "Revokes `role` from `account`. If `account` had been granted `role`, emits a {RoleRevoked} event. Requirements: - the caller must have ``role``'s admin role. May emit a {RoleRevoked} event."
      },
      "setCollateralVault(address)": {
        "details": "Only callable by DEFAULT_ADMIN_ROLE.",
        "params": {
          "_collateralVault": "The address of the new collateral vault contract."
        }
      },
      "setRouter(address)": {
        "details": "Only callable by DEFAULT_ADMIN_ROLE.",
        "params": {
          "_router": "The address of the new router contract."
        }
      },
      "setWithdrawalFee(uint256)": {
        "details": "Requires FEE_MANAGER_ROLE.",
        "params": {
          "_feeBps": "The new withdrawal fee (e.g., 10 = 0.1%)."
        }
      },
      "supportsInterface(bytes4)": {
        "details": "See {IERC165-supportsInterface}."
      },
      "symbol()": {
        "details": "Returns the symbol of the token, usually a shorter version of the name."
      },
      "totalAssets()": {
        "details": "Delegates call to the collateralVault to get the total value of managed assets."
      },
      "totalSupply()": {
        "details": "See {IERC20-totalSupply}."
      },
      "transfer(address,uint256)": {
        "details": "See {IERC20-transfer}. Requirements: - `to` cannot be the zero address. - the caller must have a balance of at least `value`."
      },
      "transferFrom(address,address,uint256)": {
        "details": "See {IERC20-transferFrom}. Skips emitting an {Approval} event indicating an allowance update. This is not required by the ERC. See {xref-ERC20-_approve-address-address-uint256-bool-}[_approve]. NOTE: Does not update the allowance if the current allowance is the maximum `uint256`. Requirements: - `from` and `to` cannot be the zero address. - `from` must have a balance of at least `value`. - the caller must have allowance for ``from``'s tokens of at least `value`."
      },
      "withdraw(uint256,address,address)": {
        "details": "Override to handle withdrawals with fees correctly.      The `assets` parameter is the net amount of assets the user wants to receive."
      }
    },
    "title": "DStakeToken",
    "version": 1
  },
  "userdoc": {
    "kind": "user",
    "methods": {
      "getWithdrawalFeeBps()": {
        "notice": "Get the current withdrawal fee in basis points."
      },
      "maxWithdrawalFeeBps()": {
        "notice": "Public getter for the maximum withdrawal fee in basis points."
      },
      "setCollateralVault(address)": {
        "notice": "Sets the address of the DStakeCollateralVault contract."
      },
      "setRouter(address)": {
        "notice": "Sets the address of the DStakeRouter contract."
      },
      "setWithdrawalFee(uint256)": {
        "notice": "Sets the withdrawal fee in basis points."
      },
      "withdrawalFeeBps()": {
        "notice": "Public getter for the current withdrawal fee in basis points."
      }
    },
    "version": 1
  },
  "storageLayout": {
    "storage": [
      {
        "astId": 25453,
        "contract": "contracts/vaults/dstake/DStakeToken.sol:DStakeToken",
        "label": "withdrawalFeeBps_",
        "offset": 0,
        "slot": "0",
        "type": "t_uint256"
      },
      {
        "astId": 87391,
        "contract": "contracts/vaults/dstake/DStakeToken.sol:DStakeToken",
        "label": "collateralVault",
        "offset": 0,
        "slot": "1",
        "type": "t_contract(IDStakeCollateralVault)88399"
      },
      {
        "astId": 87394,
        "contract": "contracts/vaults/dstake/DStakeToken.sol:DStakeToken",
        "label": "router",
        "offset": 0,
        "slot": "2",
        "type": "t_contract(IDStakeRouter)88421"
      }
    ],
    "types": {
      "t_contract(IDStakeCollateralVault)88399": {
        "encoding": "inplace",
        "label": "contract IDStakeCollateralVault",
        "numberOfBytes": "20"
      },
      "t_contract(IDStakeRouter)88421": {
        "encoding": "inplace",
        "label": "contract IDStakeRouter",
        "numberOfBytes": "20"
      },
      "t_uint256": {
        "encoding": "inplace",
        "label": "uint256",
        "numberOfBytes": "32"
      }
    }
  }
}