{
  "address": "0xc9116e27D924F73486910f50f0da008EEcF24370",
  "abi": [
    {
      "inputs": [
        {
          "internalType": "string",
          "name": "_name",
          "type": "string"
        },
        {
          "internalType": "string",
          "name": "_symbol",
          "type": "string"
        },
        {
          "internalType": "address",
          "name": "_dstakeToken",
          "type": "address"
        },
        {
          "internalType": "uint256",
          "name": "_vestingPeriod",
          "type": "uint256"
        },
        {
          "internalType": "uint256",
          "name": "_maxTotalSupply",
          "type": "uint256"
        },
        {
          "internalType": "uint256",
          "name": "_minDepositAmount",
          "type": "uint256"
        },
        {
          "internalType": "address",
          "name": "_initialOwner",
          "type": "address"
        }
      ],
      "stateMutability": "nonpayable",
      "type": "constructor"
    },
    {
      "inputs": [],
      "name": "DepositBelowMinimum",
      "type": "error"
    },
    {
      "inputs": [],
      "name": "DepositsDisabled",
      "type": "error"
    },
    {
      "inputs": [],
      "name": "ERC721EnumerableForbiddenBatchMint",
      "type": "error"
    },
    {
      "inputs": [
        {
          "internalType": "address",
          "name": "sender",
          "type": "address"
        },
        {
          "internalType": "uint256",
          "name": "tokenId",
          "type": "uint256"
        },
        {
          "internalType": "address",
          "name": "owner",
          "type": "address"
        }
      ],
      "name": "ERC721IncorrectOwner",
      "type": "error"
    },
    {
      "inputs": [
        {
          "internalType": "address",
          "name": "operator",
          "type": "address"
        },
        {
          "internalType": "uint256",
          "name": "tokenId",
          "type": "uint256"
        }
      ],
      "name": "ERC721InsufficientApproval",
      "type": "error"
    },
    {
      "inputs": [
        {
          "internalType": "address",
          "name": "approver",
          "type": "address"
        }
      ],
      "name": "ERC721InvalidApprover",
      "type": "error"
    },
    {
      "inputs": [
        {
          "internalType": "address",
          "name": "operator",
          "type": "address"
        }
      ],
      "name": "ERC721InvalidOperator",
      "type": "error"
    },
    {
      "inputs": [
        {
          "internalType": "address",
          "name": "owner",
          "type": "address"
        }
      ],
      "name": "ERC721InvalidOwner",
      "type": "error"
    },
    {
      "inputs": [
        {
          "internalType": "address",
          "name": "receiver",
          "type": "address"
        }
      ],
      "name": "ERC721InvalidReceiver",
      "type": "error"
    },
    {
      "inputs": [
        {
          "internalType": "address",
          "name": "sender",
          "type": "address"
        }
      ],
      "name": "ERC721InvalidSender",
      "type": "error"
    },
    {
      "inputs": [
        {
          "internalType": "uint256",
          "name": "tokenId",
          "type": "uint256"
        }
      ],
      "name": "ERC721NonexistentToken",
      "type": "error"
    },
    {
      "inputs": [
        {
          "internalType": "address",
          "name": "owner",
          "type": "address"
        },
        {
          "internalType": "uint256",
          "name": "index",
          "type": "uint256"
        }
      ],
      "name": "ERC721OutOfBoundsIndex",
      "type": "error"
    },
    {
      "inputs": [],
      "name": "MaxSupplyExceeded",
      "type": "error"
    },
    {
      "inputs": [],
      "name": "NotTokenOwner",
      "type": "error"
    },
    {
      "inputs": [
        {
          "internalType": "address",
          "name": "owner",
          "type": "address"
        }
      ],
      "name": "OwnableInvalidOwner",
      "type": "error"
    },
    {
      "inputs": [
        {
          "internalType": "address",
          "name": "account",
          "type": "address"
        }
      ],
      "name": "OwnableUnauthorizedAccount",
      "type": "error"
    },
    {
      "inputs": [],
      "name": "ReentrancyGuardReentrantCall",
      "type": "error"
    },
    {
      "inputs": [
        {
          "internalType": "address",
          "name": "token",
          "type": "address"
        }
      ],
      "name": "SafeERC20FailedOperation",
      "type": "error"
    },
    {
      "inputs": [],
      "name": "TokenAlreadyMatured",
      "type": "error"
    },
    {
      "inputs": [],
      "name": "TokenNotExists",
      "type": "error"
    },
    {
      "inputs": [],
      "name": "TransferOfMaturedToken",
      "type": "error"
    },
    {
      "inputs": [],
      "name": "VestingAlreadyComplete",
      "type": "error"
    },
    {
      "inputs": [],
      "name": "VestingNotComplete",
      "type": "error"
    },
    {
      "inputs": [],
      "name": "ZeroAddress",
      "type": "error"
    },
    {
      "inputs": [],
      "name": "ZeroAmount",
      "type": "error"
    },
    {
      "anonymous": false,
      "inputs": [
        {
          "indexed": true,
          "internalType": "address",
          "name": "owner",
          "type": "address"
        },
        {
          "indexed": true,
          "internalType": "address",
          "name": "approved",
          "type": "address"
        },
        {
          "indexed": true,
          "internalType": "uint256",
          "name": "tokenId",
          "type": "uint256"
        }
      ],
      "name": "Approval",
      "type": "event"
    },
    {
      "anonymous": false,
      "inputs": [
        {
          "indexed": true,
          "internalType": "address",
          "name": "owner",
          "type": "address"
        },
        {
          "indexed": true,
          "internalType": "address",
          "name": "operator",
          "type": "address"
        },
        {
          "indexed": false,
          "internalType": "bool",
          "name": "approved",
          "type": "bool"
        }
      ],
      "name": "ApprovalForAll",
      "type": "event"
    },
    {
      "anonymous": false,
      "inputs": [
        {
          "indexed": true,
          "internalType": "address",
          "name": "user",
          "type": "address"
        },
        {
          "indexed": true,
          "internalType": "uint256",
          "name": "tokenId",
          "type": "uint256"
        },
        {
          "indexed": false,
          "internalType": "uint256",
          "name": "amount",
          "type": "uint256"
        }
      ],
      "name": "Deposited",
      "type": "event"
    },
    {
      "anonymous": false,
      "inputs": [
        {
          "indexed": false,
          "internalType": "bool",
          "name": "enabled",
          "type": "bool"
        }
      ],
      "name": "DepositsToggled",
      "type": "event"
    },
    {
      "anonymous": false,
      "inputs": [
        {
          "indexed": false,
          "internalType": "uint256",
          "name": "newMaxSupply",
          "type": "uint256"
        }
      ],
      "name": "MaxTotalSupplyUpdated",
      "type": "event"
    },
    {
      "anonymous": false,
      "inputs": [
        {
          "indexed": true,
          "internalType": "uint256",
          "name": "tokenId",
          "type": "uint256"
        }
      ],
      "name": "MetadataUpdate",
      "type": "event"
    },
    {
      "anonymous": false,
      "inputs": [
        {
          "indexed": false,
          "internalType": "uint256",
          "name": "newMinDepositAmount",
          "type": "uint256"
        }
      ],
      "name": "MinDepositAmountUpdated",
      "type": "event"
    },
    {
      "anonymous": false,
      "inputs": [
        {
          "indexed": true,
          "internalType": "address",
          "name": "previousOwner",
          "type": "address"
        },
        {
          "indexed": true,
          "internalType": "address",
          "name": "newOwner",
          "type": "address"
        }
      ],
      "name": "OwnershipTransferred",
      "type": "event"
    },
    {
      "anonymous": false,
      "inputs": [
        {
          "indexed": true,
          "internalType": "address",
          "name": "user",
          "type": "address"
        },
        {
          "indexed": true,
          "internalType": "uint256",
          "name": "tokenId",
          "type": "uint256"
        },
        {
          "indexed": false,
          "internalType": "uint256",
          "name": "amount",
          "type": "uint256"
        }
      ],
      "name": "RedeemedEarly",
      "type": "event"
    },
    {
      "anonymous": false,
      "inputs": [
        {
          "indexed": true,
          "internalType": "address",
          "name": "from",
          "type": "address"
        },
        {
          "indexed": true,
          "internalType": "address",
          "name": "to",
          "type": "address"
        },
        {
          "indexed": true,
          "internalType": "uint256",
          "name": "tokenId",
          "type": "uint256"
        }
      ],
      "name": "Transfer",
      "type": "event"
    },
    {
      "anonymous": false,
      "inputs": [
        {
          "indexed": true,
          "internalType": "address",
          "name": "user",
          "type": "address"
        },
        {
          "indexed": true,
          "internalType": "uint256",
          "name": "tokenId",
          "type": "uint256"
        },
        {
          "indexed": false,
          "internalType": "uint256",
          "name": "amount",
          "type": "uint256"
        }
      ],
      "name": "WithdrawnMatured",
      "type": "event"
    },
    {
      "inputs": [
        {
          "internalType": "address",
          "name": "to",
          "type": "address"
        },
        {
          "internalType": "uint256",
          "name": "tokenId",
          "type": "uint256"
        }
      ],
      "name": "approve",
      "outputs": [],
      "stateMutability": "nonpayable",
      "type": "function"
    },
    {
      "inputs": [
        {
          "internalType": "address",
          "name": "owner",
          "type": "address"
        }
      ],
      "name": "balanceOf",
      "outputs": [
        {
          "internalType": "uint256",
          "name": "",
          "type": "uint256"
        }
      ],
      "stateMutability": "view",
      "type": "function"
    },
    {
      "inputs": [
        {
          "internalType": "uint256",
          "name": "amount",
          "type": "uint256"
        }
      ],
      "name": "deposit",
      "outputs": [
        {
          "internalType": "uint256",
          "name": "tokenId",
          "type": "uint256"
        }
      ],
      "stateMutability": "nonpayable",
      "type": "function"
    },
    {
      "inputs": [],
      "name": "depositsEnabled",
      "outputs": [
        {
          "internalType": "bool",
          "name": "",
          "type": "bool"
        }
      ],
      "stateMutability": "view",
      "type": "function"
    },
    {
      "inputs": [],
      "name": "dstakeToken",
      "outputs": [
        {
          "internalType": "contract IERC20",
          "name": "",
          "type": "address"
        }
      ],
      "stateMutability": "view",
      "type": "function"
    },
    {
      "inputs": [
        {
          "internalType": "uint256",
          "name": "tokenId",
          "type": "uint256"
        }
      ],
      "name": "getApproved",
      "outputs": [
        {
          "internalType": "address",
          "name": "",
          "type": "address"
        }
      ],
      "stateMutability": "view",
      "type": "function"
    },
    {
      "inputs": [
        {
          "internalType": "uint256",
          "name": "tokenId",
          "type": "uint256"
        }
      ],
      "name": "getRemainingVestingTime",
      "outputs": [
        {
          "internalType": "uint256",
          "name": "",
          "type": "uint256"
        }
      ],
      "stateMutability": "view",
      "type": "function"
    },
    {
      "inputs": [
        {
          "internalType": "uint256",
          "name": "tokenId",
          "type": "uint256"
        }
      ],
      "name": "getVestingPosition",
      "outputs": [
        {
          "internalType": "uint256",
          "name": "amount",
          "type": "uint256"
        },
        {
          "internalType": "uint256",
          "name": "depositTime",
          "type": "uint256"
        },
        {
          "internalType": "bool",
          "name": "matured",
          "type": "bool"
        },
        {
          "internalType": "bool",
          "name": "vestingComplete",
          "type": "bool"
        }
      ],
      "stateMutability": "view",
      "type": "function"
    },
    {
      "inputs": [
        {
          "internalType": "address",
          "name": "owner",
          "type": "address"
        },
        {
          "internalType": "address",
          "name": "operator",
          "type": "address"
        }
      ],
      "name": "isApprovedForAll",
      "outputs": [
        {
          "internalType": "bool",
          "name": "",
          "type": "bool"
        }
      ],
      "stateMutability": "view",
      "type": "function"
    },
    {
      "inputs": [
        {
          "internalType": "uint256",
          "name": "tokenId",
          "type": "uint256"
        }
      ],
      "name": "isVestingComplete",
      "outputs": [
        {
          "internalType": "bool",
          "name": "",
          "type": "bool"
        }
      ],
      "stateMutability": "view",
      "type": "function"
    },
    {
      "inputs": [],
      "name": "maxTotalSupply",
      "outputs": [
        {
          "internalType": "uint256",
          "name": "",
          "type": "uint256"
        }
      ],
      "stateMutability": "view",
      "type": "function"
    },
    {
      "inputs": [],
      "name": "minDepositAmount",
      "outputs": [
        {
          "internalType": "uint256",
          "name": "",
          "type": "uint256"
        }
      ],
      "stateMutability": "view",
      "type": "function"
    },
    {
      "inputs": [],
      "name": "name",
      "outputs": [
        {
          "internalType": "string",
          "name": "",
          "type": "string"
        }
      ],
      "stateMutability": "view",
      "type": "function"
    },
    {
      "inputs": [],
      "name": "owner",
      "outputs": [
        {
          "internalType": "address",
          "name": "",
          "type": "address"
        }
      ],
      "stateMutability": "view",
      "type": "function"
    },
    {
      "inputs": [
        {
          "internalType": "uint256",
          "name": "tokenId",
          "type": "uint256"
        }
      ],
      "name": "ownerOf",
      "outputs": [
        {
          "internalType": "address",
          "name": "",
          "type": "address"
        }
      ],
      "stateMutability": "view",
      "type": "function"
    },
    {
      "inputs": [
        {
          "internalType": "uint256",
          "name": "tokenId",
          "type": "uint256"
        }
      ],
      "name": "redeemEarly",
      "outputs": [],
      "stateMutability": "nonpayable",
      "type": "function"
    },
    {
      "inputs": [],
      "name": "renounceOwnership",
      "outputs": [],
      "stateMutability": "nonpayable",
      "type": "function"
    },
    {
      "inputs": [
        {
          "internalType": "address",
          "name": "from",
          "type": "address"
        },
        {
          "internalType": "address",
          "name": "to",
          "type": "address"
        },
        {
          "internalType": "uint256",
          "name": "tokenId",
          "type": "uint256"
        }
      ],
      "name": "safeTransferFrom",
      "outputs": [],
      "stateMutability": "nonpayable",
      "type": "function"
    },
    {
      "inputs": [
        {
          "internalType": "address",
          "name": "from",
          "type": "address"
        },
        {
          "internalType": "address",
          "name": "to",
          "type": "address"
        },
        {
          "internalType": "uint256",
          "name": "tokenId",
          "type": "uint256"
        },
        {
          "internalType": "bytes",
          "name": "data",
          "type": "bytes"
        }
      ],
      "name": "safeTransferFrom",
      "outputs": [],
      "stateMutability": "nonpayable",
      "type": "function"
    },
    {
      "inputs": [
        {
          "internalType": "address",
          "name": "operator",
          "type": "address"
        },
        {
          "internalType": "bool",
          "name": "approved",
          "type": "bool"
        }
      ],
      "name": "setApprovalForAll",
      "outputs": [],
      "stateMutability": "nonpayable",
      "type": "function"
    },
    {
      "inputs": [
        {
          "internalType": "bool",
          "name": "enabled",
          "type": "bool"
        }
      ],
      "name": "setDepositsEnabled",
      "outputs": [],
      "stateMutability": "nonpayable",
      "type": "function"
    },
    {
      "inputs": [
        {
          "internalType": "uint256",
          "name": "newMaxSupply",
          "type": "uint256"
        }
      ],
      "name": "setMaxTotalSupply",
      "outputs": [],
      "stateMutability": "nonpayable",
      "type": "function"
    },
    {
      "inputs": [
        {
          "internalType": "uint256",
          "name": "newMinDepositAmount",
          "type": "uint256"
        }
      ],
      "name": "setMinDepositAmount",
      "outputs": [],
      "stateMutability": "nonpayable",
      "type": "function"
    },
    {
      "inputs": [
        {
          "internalType": "bytes4",
          "name": "interfaceId",
          "type": "bytes4"
        }
      ],
      "name": "supportsInterface",
      "outputs": [
        {
          "internalType": "bool",
          "name": "",
          "type": "bool"
        }
      ],
      "stateMutability": "view",
      "type": "function"
    },
    {
      "inputs": [],
      "name": "symbol",
      "outputs": [
        {
          "internalType": "string",
          "name": "",
          "type": "string"
        }
      ],
      "stateMutability": "view",
      "type": "function"
    },
    {
      "inputs": [
        {
          "internalType": "uint256",
          "name": "index",
          "type": "uint256"
        }
      ],
      "name": "tokenByIndex",
      "outputs": [
        {
          "internalType": "uint256",
          "name": "",
          "type": "uint256"
        }
      ],
      "stateMutability": "view",
      "type": "function"
    },
    {
      "inputs": [
        {
          "internalType": "address",
          "name": "owner",
          "type": "address"
        },
        {
          "internalType": "uint256",
          "name": "index",
          "type": "uint256"
        }
      ],
      "name": "tokenOfOwnerByIndex",
      "outputs": [
        {
          "internalType": "uint256",
          "name": "",
          "type": "uint256"
        }
      ],
      "stateMutability": "view",
      "type": "function"
    },
    {
      "inputs": [
        {
          "internalType": "uint256",
          "name": "tokenId",
          "type": "uint256"
        }
      ],
      "name": "tokenURI",
      "outputs": [
        {
          "internalType": "string",
          "name": "",
          "type": "string"
        }
      ],
      "stateMutability": "view",
      "type": "function"
    },
    {
      "inputs": [],
      "name": "totalDeposited",
      "outputs": [
        {
          "internalType": "uint256",
          "name": "",
          "type": "uint256"
        }
      ],
      "stateMutability": "view",
      "type": "function"
    },
    {
      "inputs": [],
      "name": "totalSupply",
      "outputs": [
        {
          "internalType": "uint256",
          "name": "",
          "type": "uint256"
        }
      ],
      "stateMutability": "view",
      "type": "function"
    },
    {
      "inputs": [
        {
          "internalType": "address",
          "name": "from",
          "type": "address"
        },
        {
          "internalType": "address",
          "name": "to",
          "type": "address"
        },
        {
          "internalType": "uint256",
          "name": "tokenId",
          "type": "uint256"
        }
      ],
      "name": "transferFrom",
      "outputs": [],
      "stateMutability": "nonpayable",
      "type": "function"
    },
    {
      "inputs": [
        {
          "internalType": "address",
          "name": "newOwner",
          "type": "address"
        }
      ],
      "name": "transferOwnership",
      "outputs": [],
      "stateMutability": "nonpayable",
      "type": "function"
    },
    {
      "inputs": [],
      "name": "vestingPeriod",
      "outputs": [
        {
          "internalType": "uint256",
          "name": "",
          "type": "uint256"
        }
      ],
      "stateMutability": "view",
      "type": "function"
    },
    {
      "inputs": [
        {
          "internalType": "uint256",
          "name": "",
          "type": "uint256"
        }
      ],
      "name": "vestingPositions",
      "outputs": [
        {
          "internalType": "uint256",
          "name": "amount",
          "type": "uint256"
        },
        {
          "internalType": "uint256",
          "name": "depositTime",
          "type": "uint256"
        },
        {
          "internalType": "bool",
          "name": "matured",
          "type": "bool"
        }
      ],
      "stateMutability": "view",
      "type": "function"
    },
    {
      "inputs": [
        {
          "internalType": "uint256",
          "name": "tokenId",
          "type": "uint256"
        }
      ],
      "name": "withdrawMatured",
      "outputs": [],
      "stateMutability": "nonpayable",
      "type": "function"
    }
  ],
  "transactionHash": "0x919cc8129cabfa4b3e39a074aeae157e760e74be5029016c22edf948e1859f4c",
  "args": [
    "dBOOST sdUSD Season 1",
    "sdUSD-S1",
    "0x6048283a47b5387cF469CC5667e8ae839283A13D",
    15552000,
    "20000000000000000000000000",
    "250000000000000000000000",
    "0xd2f775Ff2cD41bfe43C7A8c016eD10393553fe44"
  ],
  "numDeployments": 1,
  "solcInputHash": "fa9a7b16c434144dd607a28e5d62c03b",
  "bytecode": "0x604060c0815234620004c857620032e3803803806200001e81620004cd565b928339810160e082820312620004c85781516001600160401b038111620004c857816200004d918401620004f3565b602083015190916001600160401b038211620004c85762000070918401620004f3565b906200007e84840162000565565b6060840151916080850151936200009d60c060a0880151970162000565565b825190926001600160401b038211620003c05760005490600182811c92168015620004bd575b60208310146200039f5781601f8493116200045a575b50602090601f8311600114620003e257600092620003d6575b50508160011b916000199060031b1c1916176000555b8051906001600160401b038211620003c05760015490600182811c92168015620003b5575b60208310146200039f5781601f8493116200033b575b50602090601f8311600114620002c157600092620002b5575b50508160011b916000199060031b1c1916176001555b6001600160a01b039081169182156200029d57600a80546001600160a01b0319811685179091558751939083167f8be0079c531659141344cd1fd0a4f28419497f9722a3daafe3b4186f6b6457e0600080a36001600b55169081156200028e57508115801562000285575b620002745760805260a052600d55600e55600160ff19600c541617600c55600160105551612d2890816200057b823960805181818161035201528181610e1d0152818161173b015281816119010152611ce7015260a0518181816103140152818161081a01528181610b7501528181610bb2015281816115d7015281816118b301528181611b3b015281816128e701526129c20152f35b8451631f2a200560e01b8152600490fd5b508215620001dd565b63d92e233d60e01b8152600490fd5b8651631e4fbdf760e01b815260006004820152602490fd5b0151905038806200015c565b60016000908152600080516020620032c38339815191529350601f198516905b81811062000322575090846001959493921062000308575b505050811b0160015562000172565b015160001960f88460031b161c19169055388080620002f9565b92936020600181928786015181550195019301620002e1565b6001600052909150600080516020620032c3833981519152601f840160051c8101916020851062000394575b90601f859493920160051c01905b81811062000384575062000143565b6000815584935060010162000375565b909150819062000367565b634e487b7160e01b600052602260045260246000fd5b91607f16916200012d565b634e487b7160e01b600052604160045260246000fd5b015190503880620000f2565b6000808052600080516020620032a38339815191529350601f198516905b81811062000441575090846001959493921062000427575b505050811b0160005562000108565b015160001960f88460031b161c1916905538808062000418565b9293602060018192878601518155019501930162000400565b60008052909150600080516020620032a3833981519152601f840160051c81019160208510620004b2575b90601f859493920160051c01905b818110620004a25750620000d9565b6000815584935060010162000493565b909150819062000485565b91607f1691620000c3565b600080fd5b6040519190601f01601f191682016001600160401b03811183821017620003c057604052565b919080601f84011215620004c85782516001600160401b038111620003c05760209062000529601f8201601f19168301620004cd565b92818452828287010111620004c85760005b8181106200055157508260009394955001015290565b85810183015184820184015282016200053b565b51906001600160a01b0382168203620004c85756fe608080604052600436101561001357600080fd5b60003560e01c90816301ffc9a714611fe25750806306fdde0314611fb2578063081812fc14611f74578063095ea7b314611e8d57806318160ddd14611e6f57806323b872dd14611e585780632706cab414611aa15780632a80cda314611a555780632ab4d05214611a375780632f745c59146119b35780633cd636051461183a5780633f3e4c11146117ee57806342842e0e146117c05780634f6ccce71461176a5780635133a8d1146117255780635392fd1c1461170257806362325b40146116c85780636352211e14611698578063645006ca1461167a57806370a0823114611657578063715018a6146115fa5780637313ee5a146115bf5780637f09d23e146115775780638da5cb5b1461154e57806395d89b41146114435780639f04586c146113e1578063a22cb46514611333578063adfde2511461130b578063b6b55f2514610d88578063b88d4fde14610cf1578063bfe455fb14610ccb578063c87b56dd146102a2578063e985e9c51461024c578063f2fde38b146101c35763ff50abdc146101a057600080fd5b346101be5760003660031901126101be576020600f54604051908152f35b600080fd5b346101be5760203660031901126101be576101dc6120af565b6101e46121a2565b6001600160a01b0390811690811561023357600a54826001600160601b0360a01b821617600a55167f8be0079c531659141344cd1fd0a4f28419497f9722a3daafe3b4186f6b6457e0600080a3005b604051631e4fbdf760e01b815260006004820152602490fd5b346101be5760403660031901126101be576102656120af565b61026d6120c5565b9060018060a01b03809116600052600560205260406000209116600052602052602060ff604060002054166040519015158152f35b346101be5760203660031901126101be576102cc6004356000526011602052604060002054151590565b15610cba5760043560005260116020526040600020604051906102ee82612110565b8054825260ff6002600183015492836020860152015416151560408301526103396000917f0000000000000000000000000000000000000000000000000000000000000000906127b5565b804210610ca8575b506040516395d89b4160e01b8152907f00000000000000000000000000000000000000000000000000000000000000006001600160a01b0316600083600481845afa928315610c1957600093610c25575b5060206004916040519283809263313ce56760e01b82525afa908115610c1957600091610bdd575b5060ff84519116604d8111610b57576103df916103da91600a0a90612a00565b612baf565b926000928151610b6d575b6103f2612207565b916103fe600435612baf565b61040786612baf565b9561014a81029080820461014a1490151715610b57576064900461042a90612baf565b936040518091602082017f3c73766720786d6c6e733d22687474703a2f2f7777772e77332e6f72672f32309052604082017f30302f737667222077696474683d2233353022206865696768743d22323030229052606082017f2076696577426f783d223020302033353020323030223e0000000000000000009052607782017f3c7374796c653e2e62617365207b2066696c6c3a2077686974653b20666f6e749052609782017f2d66616d696c793a206d6f6e6f73706163653b20666f6e742d73697a653a2031905260b782016d1a383c1d903e9e17b9ba3cb6329f60911b905260c582017f3c726563742077696474683d223130302522206865696768743d223130302522905270103334b6361e911198b099199bb291179f60791b60e583015260f682017f3c7465787420783d2231302220793d2233302220636c6173733d22626173652290526101168201601f60f91b9052805190816101178401916020019161059692612067565b8082016101170161202360f01b90528351906101199482868386010191602001916105c092612067565b82010195661e17ba32bc3a1f60c91b809488015261012087017f3c7465787420783d2231302220793d2235352220636c6173733d226261736522905261014087016801f20b6b7bab73a1d160bd1b905289519860208b0199610149988b828b830161062a92612067565b0194600160fd1b8099870152875160208901968161014a82019061064e918a612067565b019061014a82015261015181017f3c7465787420783d2231302220793d2238302220636c6173733d226261736522905261017181016a01f283937b3b932b9b99d160ad1b905281519061017c928284830191602001916106ad92612067565b67129e17ba32bc3a1f60c11b9101918201527f3c7265637420783d2231302220793d22313030222077696474683d22333330226101848201527f206865696768743d223230222066696c6c3d2223333934396162222f3e0000006101a48201527f3c7265637420783d2231302220793d22313030222077696474683d22000000006101c182015281516101dd9290919061074f90839085840190602001612067565b019081017f22206865696768743d223230222066696c6c3d2223376535376332222f3e000090526101fb8101651e17b9bb339f60d11b9052036101e1810182526102010161079d9082612164565b6107a690612a20565b93604051938460208101967f646174613a696d6167652f7376672b786d6c3b6261736536342c000000000000885280519081603a840191602001916107ea92612067565b810103601a81018652603a016108009086612164565b610808612207565b97610814600435612baf565b9961083e7f0000000000000000000000000000000000000000000000000000000000000000612baf565b60409096015115610b305761086f60405161085881612148565b60048152637472756560e01b602082015299612baf565b956040519b8c809c683d913730b6b2911d1160b91b602083015280516029819301916020019161089e92612067565b8c016029810161202360f01b905281519182602b830191602001916108c292612067565b01602b81017f222c226465736372697074696f6e223a22436f6e7461696e732000000000000090528451908160458201906108fd918a612067565b0160458101670103bb4ba341030960c51b905281519182604d8301916020019161092692612067565b0190604d82017f207365636f6e642076657374696e6720706572696f642e222c0000000000000090526d2261747472696275746573223a5b60901b6066830152607482017f7b2274726169745f74797065223a22416d6f756e74222c2276616c7565223a2290525191826094830161099d92612067565b01916094830152519182609583016109b492612067565b019361227d60f01b94856095820152609781017f2c7b2274726169745f74797065223a224d617475726564222c2276616c7565229052611d1160f11b60b78201528151918260b983019160200191610a0b92612067565b018460b982015260bb81017f2c7b2274726169745f74797065223a2252656d61696e696e67205365636f6e6490526b399116113b30b63ab2911d1160a11b60db8201528151918260e783019160200191610a6492612067565b01908360e783015260e9820161174b60f21b9052681134b6b0b3b2911d1160b91b60eb83015251918260f48301610a9a92612067565b019060f48201520360d68101825260f601610ab59082612164565b610abe90612a20565b6040518091602082017f646174613a6170706c69636174696f6e2f6a736f6e3b6261736536342c000000905280519081603d84019160200191610b0092612067565b810103601d81018252603d01610b169082612164565b60405180916020825260208201610b2c9161208a565b0390f35b61086f604051610b3f81612148565b600581526466616c736560d81b602082015299612baf565b634e487b7160e01b600052601160045260246000fd5b9250610b99827f0000000000000000000000000000000000000000000000000000000000000000612841565b606481029080820460641490151715610b5757610bd7907f000000000000000000000000000000000000000000000000000000000000000090612a00565b926103ea565b90506020813d602011610c11575b81610bf860209383612164565b810103126101be575160ff811681036101be57846103ba565b3d9150610beb565b6040513d6000823e3d90fd5b9092503d806000833e610c388183612164565b8101906020818303126101be5780519067ffffffffffffffff82116101be57019080601f830112156101be57815190610c7082612186565b90610c7e6040519283612164565b828252602083850101116101be57610ca0602092600494848085019101612067565b939150610392565b610cb491504290612841565b82610341565b604051626f708760e21b8152600490fd5b346101be5760203660031901126101be576020610ce9600435612918565b604051908152f35b346101be5760803660031901126101be57610d0a6120af565b610d126120c5565b906044356064359267ffffffffffffffff84116101be57366023850112156101be57836004013592610d4384612186565b93610d516040519586612164565b80855236602482880101116101be576020816000926024610d8699018389013786010152610d808383836122ee565b33612667565b005b346101be576020806003193601126101be5760043590610da661281e565b81156112f95760ff600c5416156112e757600e5482106112d557610dcc82600f546127b5565b600d54106112c357604051916323b872dd60e01b8284015260249233848201523060448201528160648201526064815260a081019080821067ffffffffffffffff8311176112ae57610e41916040527f00000000000000000000000000000000000000000000000000000000000000006127c2565b60105490600019908183146112995760019182840160105560405190610e668261212c565b6000825233156112815760008581526002875260409020546001600160a01b0390811615158061127a575b611253575b856000526002875260406000205416908115918215928361121f575b3360005260038952604060002087815401905587600052600289526040600020336001600160601b0360a01b8254161790558733837fddf252ad1be2c89b69c2b068fc378daa952ba7f163c4a11628f55a4df523b3ef600080a41561119e57600854876000526009895280604060002055600160401b8110156111895787610f428289610f5b940160085561261a565b90919082549060031b91821b91600019901b1916179055565b3303611133575b5061111b57333b611005575b508290610fc0604051610f8081612110565b82815260028782014281526040830190600082528660005260118a52604060002093518455518784015551151591019060ff801983541691151516179055565b610fcc81600f546127b5565b600f556040519081527f73a19dd210f1a7f902193214c0ee91dd35ee5b4d920cba8d519eca65a7b488ca853392a3600b55604051908152f35b60405185818061103d630a85bd0160e11b9586835233600484015260008c84015289604484015260806064840152608483019061208a565b03816000335af1600091816110db575b506110a75786863d1561109f573d9061106582612186565b916110736040519384612164565b82523d60008284013e5b8151918261109c57604051633250574960e11b81523360048201528490fd5b01fd5b60609061107d565b63ffffffff60e09793949596971b16036110c657508392919082610f6e565b604051633250574960e11b8152336004820152fd5b9091508681813d8311611114575b6110f38183612164565b810103126101be57516001600160e01b0319811681036101be57908861104d565b503d6110e9565b6040516339e3563760e11b8152600060048201528690fd5b61113c336121ce565b908101908111611174573360005260068752604060002081600052875285604060002055856000526007875260406000205587610f62565b87634e487b7160e01b60005260116004526000fd5b89634e487b7160e01b60005260416004526000fd5b338114610f5b576111ae816121ce565b8760005260078952604060002054908260005260068a526040600020918181036111f4575b508860005260078a5260006040812055600052885260006040812055610f5b565b81600052828b52604060002054816000528060406000205560005260078b526040600020558b6111d3565b600088815260046020526040902080546001600160a01b031916905581600052600389526040600020838154019055610eb2565b6011875260ff6002604060002001541615610e965760405163917640c160e01b8152600490fd5b5084610e91565b604051633250574960e11b8152600060048201528790fd5b84634e487b7160e01b60005260116004526000fd5b84634e487b7160e01b60005260416004526000fd5b604051638a164f6360e01b8152600490fd5b60405163c24b1b6160e01b8152600490fd5b604051630e2f42c960e31b8152600490fd5b604051631f2a200560e01b8152600490fd5b346101be5760203660031901126101be57602061132960043561288f565b6040519015158152f35b346101be5760403660031901126101be5761134c6120af565b60243590811515908183036101be576001600160a01b03169182156113c85761139a9033600052600560205260406000208460005260205260406000209060ff801983541691151516179055565b6040519081527f17307eab39ab6107e8899845ad3d59bd9653f200f220920489ca2b5937696c3160203392a3005b604051630b61174360e31b815260048101849052602490fd5b346101be5760203660031901126101be576004358015158091036101be5760207f79a0d73b50e293c1e17b973f07d567c5a14399afb5e2373c44a82e9f9109d7169161142b6121a2565b60ff19600c541660ff821617600c55604051908152a1005b346101be5760003660031901126101be57604051600060019081549182811c91818416918215611544575b602094858510841461152e57858794868652918260001461150e5750506001146114b4575b506114a092500383612164565b610b2c60405192828493845283019061208a565b6000818152859250907fb10e2d527612073b26eecdfd717e6a320cf44b4afac2b0732d9fcbe2b7fa0cf65b8583106114f65750506114a0935082010185611493565b805483890185015287945086939092019181016114df565b60ff1916858201526114a095151560051b85010192508791506114939050565b634e487b7160e01b600052602260045260246000fd5b92607f169261146e565b346101be5760003660031901126101be57600a546040516001600160a01b039091168152602090f35b346101be5760203660031901126101be5760043560005260116020526060604060002080549060ff600260018301549201541690604051928352602083015215156040820152f35b346101be5760003660031901126101be5760206040517f00000000000000000000000000000000000000000000000000000000000000008152f35b346101be5760003660031901126101be576116136121a2565b600a80546001600160a01b031981169091556000906001600160a01b03167f8be0079c531659141344cd1fd0a4f28419497f9722a3daafe3b4186f6b6457e08280a3005b346101be5760203660031901126101be576020610ce96116756120af565b6121ce565b346101be5760003660031901126101be576020600e54604051908152f35b346101be5760203660031901126101be5760206116b66004356125df565b6040516001600160a01b039091168152f35b346101be5760203660031901126101be5760806116e6600435612966565b9160405193845260208401521515604083015215156060820152f35b346101be5760003660031901126101be57602060ff600c54166040519015158152f35b346101be5760003660031901126101be576040517f00000000000000000000000000000000000000000000000000000000000000006001600160a01b03168152602090f35b346101be5760203660031901126101be576004356008548110156117a15761179360209161261a565b90546040519160031b1c8152f35b6044906040519063295f44f760e21b8252600060048301526024820152fd5b346101be57610d866117d1366120db565b90604051926117df8461212c565b60008452610d808383836122ee565b346101be5760203660031901126101be577ff2672935fc79f5237559e2e2999dbe743bf65430894ac2b37666890e7c69e1af602060043561182d6121a2565b80600d55604051908152a1005b346101be5760203660031901126101be5760043561185661281e565b61186d816000526011602052604060002054151590565b15610cba5761187b816125df565b336001600160a01b03909116036119a15780600052601160205260406000206002810180549060ff821661198f576118d860018401547f0000000000000000000000000000000000000000000000000000000000000000906127b5565b421061197d5760018493549260ff19161790556118f781600f54612841565b600f5561192581337f000000000000000000000000000000000000000000000000000000000000000061284e565b6040519081527fde14d3a993ebba9de27f7a134bdd279ee01d1183b8ec5cf2f39f217ea2ed41ee60203392a37ff8e1a15aba9398e019f0b49df1a4fde98ee17ae345cb5f6b5e2c27f5033e8ce7600080a26001600b55005b604051631393ba7760e31b8152600490fd5b6040516316d2aca560e11b8152600490fd5b6040516359dc379f60e01b8152600490fd5b346101be5760403660031901126101be576119cc6120af565b602435906119d9816121ce565b821015611a0c5760018060a01b031660005260066020526040600020906000526020526020604060002054604051908152f35b60405163295f44f760e21b81526001600160a01b039190911660048201526024810191909152604490fd5b346101be5760003660031901126101be576020600d54604051908152f35b346101be5760203660031901126101be577fb443c8bd39a1b60d415144f9148c6f90c2b68a553eb90c62cef5e44979db009d6020600435611a946121a2565b80600e55604051908152a1005b346101be576020806003193601126101be5760043590611abf61281e565b611ad6826000526011602052604060002054151590565b15610cba57611ae4826125df565b6001600160a01b03919033908316036119a15782600052601181526040600020604051611b1081612110565b81548152600182015483820190815260ff60028094015416151580604084015261198f57611b6090517f0000000000000000000000000000000000000000000000000000000000000000906127b5565b421015611e4657519284600052601183526000826040822082815582600182015501558183528060406000205416151580611e3e575b611e18575b846000528183526040600020541680159182159081611de5575b86600052845260406000206001600160601b0360a01b8154169055856000837fddf252ad1be2c89b69c2b068fc378daa952ba7f163c4a11628f55a4df523b3ef8280a48215611d60575050600854846000526009835280604060002055600160401b811015611d4a5784610f42826001611c32940160085561261a565b60085460001990818101908111610b57578560005260098452611c5a6040600020549161261a565b90549060031b1c611c6e81610f428461261a565b6000526009845260406000205584600052600060408120556008548015611d3457810190611c9b8261261a565b909182549160031b1b19169055600855611d1b577febf47017a067c68a7c7762b292827c94b5b6b769078ef61648a51e7c9535b28c90611cdd83600f54612841565b600f55611d0b83337f000000000000000000000000000000000000000000000000000000000000000061284e565b6040519283523392a36001600b55005b604051637e27328960e01b815260048101849052602490fd5b634e487b7160e01b600052603160045260246000fd5b634e487b7160e01b600052604160045260246000fd5b611d6b575b50611c32565b611d74816121ce565b85600052600784526040600020549160005260068452604060002091818103611dba575b5085600052600784526000604081205560005282526000604081205584611d65565b8160005282855260406000205481600052806040600020556000526007855260406000205586611d98565b60008781526004602052604080822080546001600160a01b03191690558482526003875290208054600019019055611bb5565b6011835260ff82604060002001541615611b9b5760405163917640c160e01b8152600490fd5b506000611b96565b60405163239debe960e21b8152600490fd5b346101be57610d86611e69366120db565b916122ee565b346101be5760003660031901126101be576020600854604051908152f35b346101be5760403660031901126101be57611ea66120af565b602435611eb2816125df565b33151580611f61575b80611f34575b611f1c576001600160a01b039283169282918491167f8c5be1e5ebec7d5bd14f71427d1e84f3dd0314c0f7b2291e5b200ac8c7c3b925600080a4600090815260046020526040902080546001600160a01b0319169091179055005b60405163a9fbf51f60e01b8152336004820152602490fd5b5060018060a01b038116600052600560205260406000203360005260205260ff6040600020541615611ec1565b506001600160a01b038116331415611ebb565b346101be5760203660031901126101be57600435611f91816125df565b506000526004602052602060018060a01b0360406000205416604051908152f35b346101be5760003660031901126101be57610b2c611fce612207565b60405191829160208352602083019061208a565b346101be5760203660031901126101be576004359063ffffffff60e01b82168092036101be5760209163780e9d6360e01b8114908115612024575b5015158152f35b6380ac58cd60e01b811491508115612056575b8115612045575b508361201d565b6301ffc9a760e01b1490508361203e565b635b5e139f60e01b81149150612037565b60005b83811061207a5750506000910152565b818101518382015260200161206a565b906020916120a381518092818552858086019101612067565b601f01601f1916010190565b600435906001600160a01b03821682036101be57565b602435906001600160a01b03821682036101be57565b60609060031901126101be576001600160a01b039060043582811681036101be579160243590811681036101be579060443590565b6060810190811067ffffffffffffffff821117611d4a57604052565b6020810190811067ffffffffffffffff821117611d4a57604052565b6040810190811067ffffffffffffffff821117611d4a57604052565b90601f8019910116810190811067ffffffffffffffff821117611d4a57604052565b67ffffffffffffffff8111611d4a57601f01601f191660200190565b600a546001600160a01b031633036121b657565b60405163118cdaa760e01b8152336004820152602490fd5b6001600160a01b031680156121ee57600052600360205260406000205490565b6040516322718ad960e21b815260006004820152602490fd5b604051906000805490600182811c908084169384156122e4575b60209485841081146122d057838852879493929181156122b05750600114612254575b505061225292500383612164565b565b60008080527f290decd9548b62a8d60345a988386fc84ba6bc95484008f6362f93160ef3e56395935091905b81831061229857505061225293508201013880612244565b85548884018501529485019487945091830191612280565b91505061225294925060ff191682840152151560051b8201013880612244565b634e487b7160e01b85526022600452602485fd5b91607f1691612221565b6001600160a01b03828116939184156125c657600094838652602095600287526040968488832054161515806125be575b61259a575b85825260028152848883205416963315158061250c575b50871580156124d9575b84845260038352898420805460010190558784526002835289842080546001600160a01b0319168617905587858a7fddf252ad1be2c89b69c2b068fc378daa952ba7f163c4a11628f55a4df523b3ef8780a41561246d5760085487845260098352808a852055600160401b8110156124595787610f428260016123cb940160085561261a565b838803612407575b5050505016928383036123e65750505050565b6064945051926364283d7b60e01b8452600484015260248301526044820152fd5b612410906121ce565b6000198101939084116124455782916007918a94526006815283832085845281528784842055878352522055388080806123d3565b634e487b7160e01b83526011600452602483fd5b634e487b7160e01b84526041600452602484fd5b8784146123cb5761247d886121ce565b878452600783528984205490898552600684528a8520918181036124b7575b5088855260078452848b8120558452825282898120556123cb565b8186528285528b862054818752808d8820558652600785528b8620553861249c565b600088815260046020526040902080546001600160a01b0319169055888452600383528984208054600019019055612345565b80612559575b1561251d573861233b565b88878961253a576024915190637e27328960e01b82526004820152fd5b905163177e802f60e01b81523360048201526024810191909152604490fd5b50338814801561257e575b8061251257508683526004825233868a8520541614612512565b5087835260058252888320338452825260ff8984205416612564565b6011815260ff60028984200154161561232457875163917640c160e01b8152600490fd5b50600161231f565b604051633250574960e11b815260006004820152602490fd5b6000818152600260205260409020546001600160a01b0316908115612602575090565b60249060405190637e27328960e01b82526004820152fd5b6008548110156126515760086000527ff3f7a9fe364faab93b216da50a3214154f22a0a2b415b23a84c8169e8b636ee30190600090565b634e487b7160e01b600052603260045260246000fd5b90939192833b612679575b5050505050565b604051630a85bd0160e11b8082526001600160a01b0393841660048301529583166024820152604481019190915260806064820152949216926020929185906126c690608483019061208a565b039483816000978189895af1869181612771575b5061273b575050503d600014612732573d6126f481612186565b906127026040519283612164565b81528093823d92013e5b8251928361272d57604051633250574960e11b815260048101849052602490fd5b019050fd5b6060925061270c565b919450915063ffffffff60e01b160361275957503880808080612672565b60249060405190633250574960e11b82526004820152fd5b9091508481813d83116127ae575b6127898183612164565b810103126127aa57516001600160e01b0319811681036127aa5790386126da565b8680fd5b503d61277f565b91908201809211610b5757565b906000602091828151910182855af115610c19576000513d61281557506001600160a01b0381163b155b6127f35750565b604051635274afe760e01b81526001600160a01b039091166004820152602490fd5b600114156127ec565b6002600b541461282f576002600b55565b604051633ee5aeb560e01b8152600490fd5b91908203918211610b5757565b60405163a9059cbb60e01b60208201526001600160a01b039290921660248301526044808301939093529181526122529161288a606483612164565b6127c2565b6128a6816000526011602052604060002054151590565b1561291257600052601160205261290c60406000206040516128c781612110565b81548152604060ff600260018501549485602086015201541615159101527f0000000000000000000000000000000000000000000000000000000000000000906127b5565b42101590565b50600090565b61292f816000526011602052604060002054151590565b15610cba57600052601160205261295060406000206040516128c781612110565b8042101561291257612963904290612841565b90565b61297d816000526011602052604060002054151590565b156129f15760005260116020526040806000209181519061299d82612110565b83549182815260ff6002600187015496876020850152015416151593849101526129e77f0000000000000000000000000000000000000000000000000000000000000000856127b5565b4210159193929190565b50600090600090600090600090565b8115612a0a570490565b634e487b7160e01b600052601260045260246000fd5b60405161296391612a3082612110565b604082527f4142434445464748494a4b4c4d4e4f505152535455565758595a61626364656660208301527f6768696a6b6c6d6e6f707172737475767778797a303132333435363738392b2f6040830152612ab7565b90612a8f82612186565b612a9c6040519182612164565b8281528092612aad601f1991612186565b0190602036910137565b805115612b9a578051600291828201809211610b57576003918290046001600160fe1b0381168103610b5757612af0908495941b612a85565b936020850193829183518401906020820192835194600085525b838110612b49575050505052510680600114612b3657600214612b2b575090565b603d90600019015390565b50603d9081600019820153600119015390565b87600491999293949901918251600190603f9082828260121c16880101518453828282600c1c16880101518385015382828260061c1688010151888501531685010151898201530197929190612b0a565b5050604051612ba88161212c565b6000815290565b806000917a184f03e93ff9f4daa797ed6e38ed64bf6a1f01000000000000000080821015612ce4575b506d04ee2d6d415b85acef810000000080831015612cd5575b50662386f26fc1000080831015612cc6575b506305f5e10080831015612cb7575b5061271080831015612ca8575b506064821015612c98575b600a80921015612c8e575b600190816021612c46828701612a85565b95860101905b612c58575b5050505090565b600019019083906f181899199a1a9b1b9c1cb0b131b232b360811b8282061a835304918215612c8957919082612c4c565b612c51565b9160010191612c35565b9190606460029104910191612c2a565b60049193920491019138612c1f565b60089193920491019138612c12565b60109193920491019138612c03565b60209193920491019138612bf1565b604093508104915038612bd856fea2646970667358221220defd952a785ba80be01fb1e140105742c7b3082a4d1a4352feb7431e92d23aa664736f6c63430008140033290decd9548b62a8d60345a988386fc84ba6bc95484008f6362f93160ef3e563b10e2d527612073b26eecdfd717e6a320cf44b4afac2b0732d9fcbe2b7fa0cf6"
}