{
  "address": "0xc65F6b9dBAFa2A9243CeceDbf80EE9a79d6ADf09",
  "abi": [
    {
      "inputs": [
        {
          "internalType": "address",
          "name": "_sourceFeed",
          "type": "address"
        },
        {
          "internalType": "uint8",
          "name": "_targetDecimals",
          "type": "uint8"
        }
      ],
      "stateMutability": "nonpayable",
      "type": "constructor"
    },
    {
      "inputs": [],
      "name": "InvalidDecimalsUpscaleNotSupported",
      "type": "error"
    },
    {
      "inputs": [],
      "name": "decimals",
      "outputs": [
        {
          "internalType": "uint8",
          "name": "",
          "type": "uint8"
        }
      ],
      "stateMutability": "view",
      "type": "function"
    },
    {
      "inputs": [],
      "name": "description",
      "outputs": [
        {
          "internalType": "string",
          "name": "",
          "type": "string"
        }
      ],
      "stateMutability": "view",
      "type": "function"
    },
    {
      "inputs": [
        {
          "internalType": "uint80",
          "name": "_roundId",
          "type": "uint80"
        }
      ],
      "name": "getRoundData",
      "outputs": [
        {
          "internalType": "uint80",
          "name": "roundId",
          "type": "uint80"
        },
        {
          "internalType": "int256",
          "name": "answer",
          "type": "int256"
        },
        {
          "internalType": "uint256",
          "name": "startedAt",
          "type": "uint256"
        },
        {
          "internalType": "uint256",
          "name": "updatedAt",
          "type": "uint256"
        },
        {
          "internalType": "uint80",
          "name": "answeredInRound",
          "type": "uint80"
        }
      ],
      "stateMutability": "view",
      "type": "function"
    },
    {
      "inputs": [],
      "name": "latestRoundData",
      "outputs": [
        {
          "internalType": "uint80",
          "name": "roundId",
          "type": "uint80"
        },
        {
          "internalType": "int256",
          "name": "answer",
          "type": "int256"
        },
        {
          "internalType": "uint256",
          "name": "startedAt",
          "type": "uint256"
        },
        {
          "internalType": "uint256",
          "name": "updatedAt",
          "type": "uint256"
        },
        {
          "internalType": "uint80",
          "name": "answeredInRound",
          "type": "uint80"
        }
      ],
      "stateMutability": "view",
      "type": "function"
    },
    {
      "inputs": [],
      "name": "sourceDecimals",
      "outputs": [
        {
          "internalType": "uint8",
          "name": "",
          "type": "uint8"
        }
      ],
      "stateMutability": "view",
      "type": "function"
    },
    {
      "inputs": [],
      "name": "sourceFeed",
      "outputs": [
        {
          "internalType": "contract AggregatorV3Interface",
          "name": "",
          "type": "address"
        }
      ],
      "stateMutability": "view",
      "type": "function"
    },
    {
      "inputs": [],
      "name": "version",
      "outputs": [
        {
          "internalType": "uint256",
          "name": "",
          "type": "uint256"
        }
      ],
      "stateMutability": "view",
      "type": "function"
    }
  ],
  "transactionHash": "0xb5d2374d0fbd69716c70208a3108f1ebcd9596ead6c52065be967de59a8c5aa8",
  "args": [
    "0x11229A18BC7Db1508f4cfe776ccD9875588EF1a6",
    8
  ],
  "numDeployments": 1,
  "solcInputHash": "06cb4ec3b947291c33c6354d22c04593",
  "bytecode": "0x610100604090808252346101705781816107c280380380916100218285610175565b8339810103126101705780516001600160a01b0381169081900361017057602061004e81600494016101ae565b918060805284519384809263313ce56760e01b82525afa91821561016557600092610123575b5060ff80918360a0528060c05216911681116101125760ff60a051160360ff81116100fc5760ff16604d81116100fc57600a0a60e0525161060590816101bd82396080518181816097015281816101e00152818161024f015281816102df015261041c015260a051816101a3015260c051816104b8015260e05181818160de01526102950152f35b634e487b7160e01b600052601160045260246000fd5b815163f00f549960e01b8152600490fd5b90916020823d821161015d575b8161013d60209383610175565b8101031261015a575060ff61015281926101ae565b929150610074565b80fd5b3d9150610130565b83513d6000823e3d90fd5b600080fd5b601f909101601f19168101906001600160401b0382119082101761019857604052565b634e487b7160e01b600052604160045260246000fd5b519060ff821682036101705756fe60806040908082526004908136101561001757600080fd5b600090813560e01c908163313ce5671461049f5750806354fd4d50146103f55780637284e416146102ba5780639a6fc8f51461020f578063a1a927b1146101cb578063be231cb3146101895763feaf968c1461007257600080fd5b346101865780600319360112610186578251633fabe5a360e21b81529160a0908390817f00000000000000000000000000000000000000000000000000000000000000006001600160a01b03165afa801561017a5781808190829361013c575b610138949550610103907f000000000000000000000000000000000000000000000000000000000000000090610588565b955169ffffffffffffffffffff95861681526020810196909652604086015260608501529091166080830152819060a0820190565b0390f35b50505050506101386101676101039260a03d8111610173575b61015f81836104ff565b810190610553565b939550859450916100d2565b503d610155565b508251903d90823e3d90fd5b80fd5b5082346101c757816003193601126101c7576020905160ff7f0000000000000000000000000000000000000000000000000000000000000000168152f35b5080fd5b5082346101c757816003193601126101c757517f00000000000000000000000000000000000000000000000000000000000000006001600160a01b03168152602090f35b503461018657602036600319011261018657813569ffffffffffffffffffff81168091036101c7578351639a6fc8f560e01b81529283015260a0826024817f00000000000000000000000000000000000000000000000000000000000000006001600160a01b03165afa801561017a5781808190829361013c57610138949550610103907f000000000000000000000000000000000000000000000000000000000000000090610588565b508290346101865780600319360112610186578151633942720b60e11b8152818185817f00000000000000000000000000000000000000000000000000000000000000006001600160a01b03165afa9384156103eb578294610349575b505050805180926020825261033b81518092816020860152602086860191016104dc565b601f01601f19168101030190f35b90919293503d8084843e61035d81846104ff565b82019260208385031261018657825167ffffffffffffffff938482116103e757019184601f840112156101c75782519384116103d457508451936103ab601f8501601f1916602001866104ff565b838552602084840101116101865750906103cb91602080850191016104dc565b90828080610317565b634e487b7160e01b825260419052602490fd5b8280fd5b83513d84823e3d90fd5b5091346103e757826003193601126103e757805163054fd4d560e41b8152916020908390817f00000000000000000000000000000000000000000000000000000000000000006001600160a01b03165afa91821561049557839261045e575b6020838351908152f35b9091506020813d821161048d575b81610479602093836104ff565b810103126103e75760209250519038610454565b3d915061046c565b81513d85823e3d90fd5b9050346101c757816003193601126101c75760209060ff7f0000000000000000000000000000000000000000000000000000000000000000168152f35b60005b8381106104ef5750506000910152565b81810151838201526020016104df565b90601f8019910116810190811067ffffffffffffffff82111761052157604052565b634e487b7160e01b600052604160045260246000fd5b519069ffffffffffffffffffff8216820361054e57565b600080fd5b908160a091031261054e5761056781610537565b91602082015191604081015191610585608060608401519301610537565b90565b81156105b957600160ff1b81146000198314166105a3570590565b634e487b7160e01b600052601160045260246000fd5b634e487b7160e01b600052601260045260246000fdfea2646970667358221220940e3db10cf8561524daf9359d104095bbd8904cf6b5c9382936abe2b240757d64736f6c63430008140033",
  "devdoc": {
    "details": "Implements AggregatorV3Interface to mimic being a Chainlink price feed",
    "kind": "dev",
    "methods": {
      "constructor": {
        "params": {
          "_sourceFeed": "Address of the source Chainlink price feed",
          "_targetDecimals": "Target decimal precision (must be less than or equal to source decimals)"
        }
      },
      "description()": {
        "returns": {
          "_0": "Description string"
        }
      },
      "getRoundData(uint80)": {
        "params": {
          "_roundId": "The round ID to retrieve data for"
        },
        "returns": {
          "answer": "The price with adjusted decimals",
          "answeredInRound": "The round in which the answer was computed",
          "roundId": "The round ID",
          "startedAt": "The timestamp when the round started",
          "updatedAt": "The timestamp when the round was updated"
        }
      },
      "latestRoundData()": {
        "returns": {
          "answer": "The price with adjusted decimals",
          "answeredInRound": "The round in which the answer was computed",
          "roundId": "The round ID",
          "startedAt": "The timestamp when the round started",
          "updatedAt": "The timestamp when the round was updated"
        }
      },
      "version()": {
        "returns": {
          "_0": "Version number"
        }
      }
    },
    "title": "ChainlinkDecimalConverter",
    "version": 1
  },
  "userdoc": {
    "errors": {
      "InvalidDecimalsUpscaleNotSupported()": [
        {
          "notice": "Error thrown when target decimals exceed source decimals"
        }
      ]
    },
    "kind": "user",
    "methods": {
      "constructor": {
        "notice": "Constructor to initialize the decimal converter"
      },
      "decimals()": {
        "notice": "Target decimals for price conversion"
      },
      "description()": {
        "notice": "Returns the description of the original feed"
      },
      "getRoundData(uint80)": {
        "notice": "Gets data for a specific round"
      },
      "latestRoundData()": {
        "notice": "Gets data for the latest round"
      },
      "sourceDecimals()": {
        "notice": "Original decimals from the source feed"
      },
      "sourceFeed()": {
        "notice": "Original Chainlink price feed"
      },
      "version()": {
        "notice": "Returns the version of the original feed"
      }
    },
    "notice": "Converts between Chainlink price feeds with different decimal precisions",
    "version": 1
  },
  "storageLayout": {
    "storage": [],
    "types": null
  }
}