{
  "address": "0x0373d0ae1A68C7b2Bd2b62B4C9eeeeaa5831290d",
  "abi": [
    {
      "inputs": [
        {
          "internalType": "contract IERC3156FlashLender",
          "name": "_flashLender",
          "type": "address"
        },
        {
          "internalType": "contract IOdosRouterV2",
          "name": "_odosRouter",
          "type": "address"
        }
      ],
      "stateMutability": "nonpayable",
      "type": "constructor"
    },
    {
      "inputs": [
        {
          "internalType": "uint256",
          "name": "currentCollateralTokenAmount",
          "type": "uint256"
        },
        {
          "internalType": "uint256",
          "name": "minOutputCollateralAmount",
          "type": "uint256"
        }
      ],
      "name": "EstimatedCollateralTokenAmountLessThanMinOutputCollateralAmount",
      "type": "error"
    },
    {
      "inputs": [
        {
          "internalType": "address",
          "name": "flashLender",
          "type": "address"
        },
        {
          "internalType": "address",
          "name": "debtToken",
          "type": "address"
        }
      ],
      "name": "FlashLenderNotSameAsDebtToken",
      "type": "error"
    },
    {
      "inputs": [
        {
          "internalType": "address",
          "name": "currentDebtToken",
          "type": "address"
        },
        {
          "internalType": "address",
          "name": "dLoopCoreDebtToken",
          "type": "address"
        }
      ],
      "name": "IncompatibleDLoopCoreDebtToken",
      "type": "error"
    },
    {
      "inputs": [
        {
          "internalType": "uint256",
          "name": "expected",
          "type": "uint256"
        },
        {
          "internalType": "uint256",
          "name": "actual",
          "type": "uint256"
        }
      ],
      "name": "IncorrectSharesBurned",
      "type": "error"
    },
    {
      "inputs": [
        {
          "internalType": "uint256",
          "name": "received",
          "type": "uint256"
        },
        {
          "internalType": "uint256",
          "name": "expected",
          "type": "uint256"
        }
      ],
      "name": "InsufficientOutput",
      "type": "error"
    },
    {
      "inputs": [
        {
          "internalType": "uint256",
          "name": "outputTokenBalanceBefore",
          "type": "uint256"
        },
        {
          "internalType": "uint256",
          "name": "outputTokenBalanceAfter",
          "type": "uint256"
        }
      ],
      "name": "OutputTokenBalanceNotIncreasedAfterSwap",
      "type": "error"
    },
    {
      "inputs": [
        {
          "internalType": "address",
          "name": "owner",
          "type": "address"
        }
      ],
      "name": "OwnableInvalidOwner",
      "type": "error"
    },
    {
      "inputs": [
        {
          "internalType": "address",
          "name": "account",
          "type": "address"
        }
      ],
      "name": "OwnableUnauthorizedAccount",
      "type": "error"
    },
    {
      "inputs": [
        {
          "internalType": "uint256",
          "name": "receivedOutputTokenAmount",
          "type": "uint256"
        },
        {
          "internalType": "uint256",
          "name": "amountOut",
          "type": "uint256"
        }
      ],
      "name": "ReceivedOutputTokenAmountNotEqualAmountOut",
      "type": "error"
    },
    {
      "inputs": [],
      "name": "ReentrancyGuardReentrantCall",
      "type": "error"
    },
    {
      "inputs": [
        {
          "internalType": "address",
          "name": "token",
          "type": "address"
        }
      ],
      "name": "SafeERC20FailedOperation",
      "type": "error"
    },
    {
      "inputs": [
        {
          "internalType": "uint256",
          "name": "sharesBeforeWithdraw",
          "type": "uint256"
        },
        {
          "internalType": "uint256",
          "name": "sharesAfterWithdraw",
          "type": "uint256"
        }
      ],
      "name": "SharesNotDecreasedAfterFlashLoan",
      "type": "error"
    },
    {
      "inputs": [
        {
          "internalType": "uint256",
          "name": "slippageBps",
          "type": "uint256"
        }
      ],
      "name": "SlippageBpsCannotExceedOneHundredPercent",
      "type": "error"
    },
    {
      "inputs": [
        {
          "internalType": "uint256",
          "name": "spentInputTokenAmount",
          "type": "uint256"
        },
        {
          "internalType": "uint256",
          "name": "amountInMaximum",
          "type": "uint256"
        }
      ],
      "name": "SpentInputTokenAmountGreaterThanAmountInMaximum",
      "type": "error"
    },
    {
      "inputs": [
        {
          "internalType": "uint256",
          "name": "spentInputTokenAmount",
          "type": "uint256"
        },
        {
          "internalType": "uint256",
          "name": "returnedAmountIn",
          "type": "uint256"
        }
      ],
      "name": "SpentInputTokenAmountNotEqualReturnedAmountIn",
      "type": "error"
    },
    {
      "inputs": [
        {
          "internalType": "uint256",
          "name": "collateralTokenBalanceBefore",
          "type": "uint256"
        },
        {
          "internalType": "uint256",
          "name": "collateralTokenBalanceAfter",
          "type": "uint256"
        }
      ],
      "name": "UnexpectedDecreaseInCollateralToken",
      "type": "error"
    },
    {
      "inputs": [
        {
          "internalType": "uint256",
          "name": "collateralTokenBalanceBefore",
          "type": "uint256"
        },
        {
          "internalType": "uint256",
          "name": "collateralTokenBalanceAfter",
          "type": "uint256"
        }
      ],
      "name": "UnexpectedDecreaseInCollateralTokenAfterFlashLoan",
      "type": "error"
    },
    {
      "inputs": [
        {
          "internalType": "uint256",
          "name": "debtTokenBalanceBefore",
          "type": "uint256"
        },
        {
          "internalType": "uint256",
          "name": "debtTokenBalanceAfter",
          "type": "uint256"
        }
      ],
      "name": "UnexpectedIncreaseInDebtToken",
      "type": "error"
    },
    {
      "inputs": [
        {
          "internalType": "address",
          "name": "initiator",
          "type": "address"
        },
        {
          "internalType": "address",
          "name": "thisContract",
          "type": "address"
        }
      ],
      "name": "UnknownInitiator",
      "type": "error"
    },
    {
      "inputs": [
        {
          "internalType": "address",
          "name": "msgSender",
          "type": "address"
        },
        {
          "internalType": "address",
          "name": "flashLender",
          "type": "address"
        }
      ],
      "name": "UnknownLender",
      "type": "error"
    },
    {
      "inputs": [
        {
          "internalType": "uint256",
          "name": "withdrawnCollateralTokenAmount",
          "type": "uint256"
        },
        {
          "internalType": "uint256",
          "name": "minReceiveCollateralTokenAmount",
          "type": "uint256"
        }
      ],
      "name": "WithdrawnCollateralTokenAmountNotMetMinReceiveAmount",
      "type": "error"
    },
    {
      "anonymous": false,
      "inputs": [
        {
          "indexed": true,
          "internalType": "address",
          "name": "collateralToken",
          "type": "address"
        },
        {
          "indexed": false,
          "internalType": "uint256",
          "name": "amount",
          "type": "uint256"
        },
        {
          "indexed": true,
          "internalType": "address",
          "name": "receiver",
          "type": "address"
        }
      ],
      "name": "LeftoverCollateralTokensTransferred",
      "type": "event"
    },
    {
      "anonymous": false,
      "inputs": [
        {
          "indexed": true,
          "internalType": "address",
          "name": "debtToken",
          "type": "address"
        },
        {
          "indexed": false,
          "internalType": "uint256",
          "name": "amount",
          "type": "uint256"
        },
        {
          "indexed": true,
          "internalType": "address",
          "name": "receiver",
          "type": "address"
        }
      ],
      "name": "LeftoverDebtTokensTransferred",
      "type": "event"
    },
    {
      "anonymous": false,
      "inputs": [
        {
          "indexed": true,
          "internalType": "address",
          "name": "previousOwner",
          "type": "address"
        },
        {
          "indexed": true,
          "internalType": "address",
          "name": "newOwner",
          "type": "address"
        }
      ],
      "name": "OwnershipTransferred",
      "type": "event"
    },
    {
      "inputs": [],
      "name": "BALANCE_DIFF_TOLERANCE",
      "outputs": [
        {
          "internalType": "uint256",
          "name": "",
          "type": "uint256"
        }
      ],
      "stateMutability": "view",
      "type": "function"
    },
    {
      "inputs": [],
      "name": "FLASHLOAN_CALLBACK",
      "outputs": [
        {
          "internalType": "bytes32",
          "name": "",
          "type": "bytes32"
        }
      ],
      "stateMutability": "view",
      "type": "function"
    },
    {
      "inputs": [
        {
          "internalType": "uint256",
          "name": "shares",
          "type": "uint256"
        },
        {
          "internalType": "uint256",
          "name": "slippageBps",
          "type": "uint256"
        },
        {
          "internalType": "contract DLoopCoreBase",
          "name": "dLoopCore",
          "type": "address"
        }
      ],
      "name": "calculateMinOutputCollateral",
      "outputs": [
        {
          "internalType": "uint256",
          "name": "",
          "type": "uint256"
        }
      ],
      "stateMutability": "view",
      "type": "function"
    },
    {
      "inputs": [
        {
          "internalType": "uint256",
          "name": "shares",
          "type": "uint256"
        },
        {
          "internalType": "contract DLoopCoreBase",
          "name": "dLoopCore",
          "type": "address"
        }
      ],
      "name": "estimateFlashLoanSwapOutputDebtAmount",
      "outputs": [
        {
          "internalType": "uint256",
          "name": "",
          "type": "uint256"
        }
      ],
      "stateMutability": "view",
      "type": "function"
    },
    {
      "inputs": [],
      "name": "flashLender",
      "outputs": [
        {
          "internalType": "contract IERC3156FlashLender",
          "name": "",
          "type": "address"
        }
      ],
      "stateMutability": "view",
      "type": "function"
    },
    {
      "inputs": [],
      "name": "getRestrictedRescueTokens",
      "outputs": [
        {
          "internalType": "address[]",
          "name": "restrictedTokens",
          "type": "address[]"
        }
      ],
      "stateMutability": "view",
      "type": "function"
    },
    {
      "inputs": [
        {
          "internalType": "uint256",
          "name": "leveragedAssets",
          "type": "uint256"
        },
        {
          "internalType": "contract DLoopCoreBase",
          "name": "dLoopCore",
          "type": "address"
        }
      ],
      "name": "getUnleveragedAssets",
      "outputs": [
        {
          "internalType": "uint256",
          "name": "",
          "type": "uint256"
        }
      ],
      "stateMutability": "view",
      "type": "function"
    },
    {
      "inputs": [],
      "name": "odosRouter",
      "outputs": [
        {
          "internalType": "contract IOdosRouterV2",
          "name": "",
          "type": "address"
        }
      ],
      "stateMutability": "view",
      "type": "function"
    },
    {
      "inputs": [
        {
          "internalType": "address",
          "name": "initiator",
          "type": "address"
        },
        {
          "internalType": "address",
          "name": "token",
          "type": "address"
        },
        {
          "internalType": "uint256",
          "name": "",
          "type": "uint256"
        },
        {
          "internalType": "uint256",
          "name": "flashLoanFee",
          "type": "uint256"
        },
        {
          "internalType": "bytes",
          "name": "data",
          "type": "bytes"
        }
      ],
      "name": "onFlashLoan",
      "outputs": [
        {
          "internalType": "bytes32",
          "name": "",
          "type": "bytes32"
        }
      ],
      "stateMutability": "nonpayable",
      "type": "function"
    },
    {
      "inputs": [],
      "name": "owner",
      "outputs": [
        {
          "internalType": "address",
          "name": "",
          "type": "address"
        }
      ],
      "stateMutability": "view",
      "type": "function"
    },
    {
      "inputs": [
        {
          "internalType": "uint256",
          "name": "shares",
          "type": "uint256"
        },
        {
          "internalType": "address",
          "name": "receiver",
          "type": "address"
        },
        {
          "internalType": "uint256",
          "name": "minOutputCollateralAmount",
          "type": "uint256"
        },
        {
          "internalType": "bytes",
          "name": "collateralToDebtTokenSwapData",
          "type": "bytes"
        },
        {
          "internalType": "contract DLoopCoreBase",
          "name": "dLoopCore",
          "type": "address"
        }
      ],
      "name": "redeem",
      "outputs": [
        {
          "internalType": "uint256",
          "name": "assets",
          "type": "uint256"
        }
      ],
      "stateMutability": "nonpayable",
      "type": "function"
    },
    {
      "inputs": [],
      "name": "renounceOwnership",
      "outputs": [],
      "stateMutability": "nonpayable",
      "type": "function"
    },
    {
      "inputs": [
        {
          "internalType": "address",
          "name": "token",
          "type": "address"
        },
        {
          "internalType": "address",
          "name": "receiver",
          "type": "address"
        },
        {
          "internalType": "uint256",
          "name": "amount",
          "type": "uint256"
        }
      ],
      "name": "rescueToken",
      "outputs": [],
      "stateMutability": "nonpayable",
      "type": "function"
    },
    {
      "inputs": [
        {
          "internalType": "uint256",
          "name": "expectedOutputAmount",
          "type": "uint256"
        }
      ],
      "name": "swappedOutputDifferenceToleranceAmount",
      "outputs": [
        {
          "internalType": "uint256",
          "name": "",
          "type": "uint256"
        }
      ],
      "stateMutability": "pure",
      "type": "function"
    },
    {
      "inputs": [
        {
          "internalType": "address",
          "name": "newOwner",
          "type": "address"
        }
      ],
      "name": "transferOwnership",
      "outputs": [],
      "stateMutability": "nonpayable",
      "type": "function"
    }
  ],
  "transactionHash": "0xa85a78743ff8bbdcc58f62480fe966050129668852526a35eeba41681c62b329",
  "args": [
    "0x53a6aBb52B2F968fA80dF6A894e4f1b1020DA975",
    "0xaC041Df48dF9791B0654f1Dbbf2CC8450C5f2e9D"
  ],
  "numDeployments": 1,
  "solcInputHash": "afcb8a30a97d2ce5764ec16a27626e94",
  "bytecode": "0x60c03461012557601f620023e938819003918201601f19168301916001600160401b0383118484101761012a5780849260409485528339810103126101255780516001600160a01b03918282168203610125576020015190828216820361012557331561010c576000543360018060a01b0319821617600055604051933391167f8be0079c531659141344cd1fd0a4f28419497f9722a3daafe3b4186f6b6457e0600080a36001805560805260a0526122a89081620001418239608051818181610680015281816109da01528181610a6f01528181610ace01528181610b4001528181610bb301528181610f0f01528181610f530152611236015260a05181818161070801526116230152f35b604051631e4fbdf760e01b815260006004820152602490fd5b600080fd5b634e487b7160e01b600052604160045260246000fdfe6080604052600436101561001257600080fd5b6000803560e01c80630a4fdcde14611b0157806323e30c8b146111ee5780632ae18104146111b3578063500fc4341461114d57806357ae0a7214610791578063715018a6146107375780638321928d146106f25780638da5cb5b146106cb5780639d00f108146106af578063a77144581461066a578063a94067e11461035b578063aee5ae6a1461033c578063e5711e8b14610256578063e7a41486146101545763f2fde38b146100c257600080fd5b34610151576020366003190112610151576100db611b3e565b6100e3611b82565b6001600160a01b0390811690811561013857600054826bffffffffffffffffffffffff60a01b821617600055167f8be0079c531659141344cd1fd0a4f28419497f9722a3daafe3b4186f6b6457e0600080a380f35b604051631e4fbdf760e01b815260048101849052602490fd5b80fd5b5034610151576060366003190112610151576044356001600160a01b03811691602435919083820361022457620f42409384841161023d57906020602493926040519485809263266d6a8360e11b825260043560048301525afa90811561023157906101f9575b6101c59250612021565b9082039182116101e3576020916101db91611d2c565b604051908152f35b634e487b7160e01b600052601160045260246000fd5b506020823d8211610229575b8161021260209383611be6565b81010312610224576101c591516101bb565b600080fd5b3d9150610205565b604051903d90823e3d90fd5b60405163103b7d4960e11b815260048101859052602490fd5b503461015157606036600319011261015157610270611b3e565b90610279611b28565b91610282611b82565b61028a611cb3565b610292611cd6565b906001600160a01b0390811690835b835181101561032757602082818360051b870101511684146102e3575060001981146102cf576001016102a1565b634e487b7160e01b85526011600452602485fd5b6064906040519062461bcd60e51b82526004820152601e60248201527f43616e6e6f7420726573637565207265737472696374656420746f6b656e00006044820152fd5b846103356044358886611c08565b6001805580f35b50346101515760203660031901126101515760206101db600435612255565b5034610151576040366003190112610151576001600160a01b038061037e611b28565b16916040519263266d6a8360e11b845260043560048501526020938481602481855afa90811561065f578391610632575b5060405163415c506960e01b8152908582600481865afa9182156106275784926105f8575b50604051632c805af560e21b8152918683600481875afa9283156105ed5785936105ce575b50604051631f1b131360e31b8152928784600481885afa9384156105c3579087918795610594575b5016936040519463313ce56760e01b978887528987600481855afa968715610530578897610575575b50604051956363880e0960e11b9283885260048801528a87602481875afa96871561056a57899761053b575b5016906040519889528989600481855afa98891561053057908a9291899a6104fe575b506024906040519485938492835260048301525afa95861561023157956104cc575b5060ff806101db97169416916121f4565b9594508686813d83116104f7575b6104e48183611be6565b81010312610224579451939460ff6104bb565b503d6104da565b6024919a5061052290843d8611610529575b61051a8183611be6565b8101906121db565b9990610499565b503d610510565b6040513d8a823e3d90fd5b9096508a81813d8311610563575b6105538183611be6565b8101031261022457519538610476565b503d610549565b6040513d8b823e3d90fd5b61058d9197508a3d8c116105295761051a8183611be6565b953861044a565b6105b5919550893d8b116105bc575b6105ad8183611be6565b810190611ec3565b9338610421565b503d6105a3565b6040513d88823e3d90fd5b6105e6919350873d89116105bc576105ad8183611be6565b91386103f9565b6040513d87823e3d90fd5b9091508581813d8311610620575b6106108183611be6565b81010312610224575190386103d4565b503d610606565b6040513d86823e3d90fd5b90508481813d8311610658575b6106498183611be6565b810103126102245751386103af565b503d61063f565b6040513d85823e3d90fd5b50346101515780600319360112610151576040517f00000000000000000000000000000000000000000000000000000000000000006001600160a01b03168152602090f35b5034610151578060031936011261015157602060405160018152f35b5034610151578060031936011261015157546040516001600160a01b039091168152602090f35b50346101515780600319360112610151576040517f00000000000000000000000000000000000000000000000000000000000000006001600160a01b03168152602090f35b5034610151578060031936011261015157610750611b82565b600080546001600160a01b0319811682556001600160a01b03167f8be0079c531659141344cd1fd0a4f28419497f9722a3daafe3b4186f6b6457e08280a380f35b50346101515760a0366003190112610151576107ab611b28565b9060643567ffffffffffffffff8111611149576107cc903690600401611b54565b608435939192906001600160a01b0385168503610224576107eb611cb3565b604051632c805af560e21b81526020816004816001600160a01b038a165afa90811561065f57839161112a575b50604051631f1b131360e31b8152916020836004816001600160a01b038b165afa928315610627578493611109575b50610850611ee2565b96610859611ee2565b6001600160a01b038416808a526040516370a0823160e01b815230600482015291989190602090829060249082905afa9081156110505787916110d7575b5060208a8101919091526001600160a01b038616808a526040516370a0823160e01b81523060048201529190829060249082905afa9081156110505787916110a5575b5060208901526040516323b872dd60e01b60208201523360248201523060448201526004356064820152606481528060a081011067ffffffffffffffff60a08301111761108f5760a081016040526109ae9161095c91610943906001600160a01b038616611c4b565b6040519461095086611bae565b60043586523691611f1d565b9283602082015260018060a01b0383166040820152516109916040519485926020840152606060408401526080830190611f84565b6001600160a01b038416606083015203601f198101845283611be6565b60405163613255ab60e01b81526001600160a01b038581166004830152909290602090849060249082907f0000000000000000000000000000000000000000000000000000000000000000165afa9283156105c357869361105b575b506040516370a0823160e01b8152306004820152926020846024816001600160a01b0387165afa93841561105057879461101c575b50604051633676633960e21b81526001600160a01b038716600482015260248101829052602081806044810103817f00000000000000000000000000000000000000000000000000000000000000006001600160a01b03165afa8015610530578890610fe8575b610ab1915082611f54565b60405163095ea7b360e01b60208083019182526001600160a01b037f0000000000000000000000000000000000000000000000000000000000000000166024840152604480840194909452928252909190600090610b10606485611be6565b835190826001600160a01b038c165af16000513d82610fc3575b505015610f41575b506001600160a01b038681167f000000000000000000000000000000000000000000000000000000000000000090911603610ef857604051632e7ff4ef60e11b81523060048201526001600160a01b03871660248201526044810191909152608060648201529060209082908190610bae906084830190611f84565b0381897f00000000000000000000000000000000000000000000000000000000000000006001600160a01b03165af180156105c357610eb8575b506040516370a0823160e01b81523060048201529190602090839060249082906001600160a01b03165afa9182156105ed578592610e84575b5080821015610e675790610c3491611cff565b6004358103610e4757506040516370a0823160e01b8152306004820152929190602090849060249082906001600160a01b03165afa928315610e3c578293610e07575b506040868101938452516370a0823160e01b815230600482015290602090829060249082906001600160a01b03165afa9182156102315791610dd5575b5060408401528051602085015190818110610db7575050516020840151610cda91611cff565b91604435808410610d995750610d44602094610d00858560018060a01b03845116611c08565b516040518581526001600160a01b03858116959286929116907f21fa991d1ca60543187d2a0de62e5ea0ce1a703a3f0021354ae2f9a75dc0e34d908990a38261218b565b919091610d5b575b50505060018055604051908152f35b516040519182526001600160a01b0316907f858a27e141780954fe5d38ba55127b6c35f8f5904c3a088438a18578d5d71eee908590a3388080610d4c565b83604491604051916347247e7760e11b835260048301526024820152fd5b6044925060405191637506a25d60e11b835260048301526024820152fd5b90506020813d602011610dff575b81610df060209383611be6565b81010312610224575138610cb4565b3d9150610de3565b9092506020813d602011610e34575b81610e2360209383611be6565b810103126102245751916020610c77565b3d9150610e16565b6040513d84823e3d90fd5b604490604051906302d753ed60e61b825260043560048301526024820152fd5b60449160405191632b9e770560e11b835260048301526024820152fd5b9091506020813d602011610eb0575b81610ea060209383611be6565b8101031261022457519038610c21565b3d9150610e93565b6020813d602011610ef0575b81610ed160209383611be6565b81010312610eec575180151503610ee85738610be8565b8480fd5b8580fd5b3d9150610ec4565b60405163aaae67a160e01b81526001600160a01b037f00000000000000000000000000000000000000000000000000000000000000008116600483015287166024820152604490fd5b60405163095ea7b360e01b60208201527f00000000000000000000000000000000000000000000000000000000000000006001600160a01b0316602482015260006044808301919091528152610fbd9190610fae90610f9f81611bca565b6001600160a01b038a16611c4b565b6001600160a01b038816611c4b565b38610b32565b909150610fe057506001600160a01b0387163b15155b3880610b2a565b600114610fd9565b506020813d602011611014575b8161100260209383611be6565b8101031261022457610ab19051610aa6565b3d9150610ff5565b9093506020813d602011611048575b8161103860209383611be6565b8101031261022457519238610a3f565b3d915061102b565b6040513d89823e3d90fd5b9092506020813d602011611087575b8161107760209383611be6565b8101031261022457519138610a0a565b3d915061106a565b634e487b7160e01b600052604160045260246000fd5b90506020813d6020116110cf575b816110c060209383611be6565b810103126102245751386108da565b3d91506110b3565b90506020813d602011611101575b816110f260209383611be6565b81010312610224575138610897565b3d91506110e5565b61112391935060203d6020116105bc576105ad8183611be6565b9138610847565b611143915060203d6020116105bc576105ad8183611be6565b38610818565b5080fd5b5034610151578060031936011261015157611166611cd6565b90604051918291602080840190808552835180925280604086019401925b82811061119357505050500390f35b83516001600160a01b031685528695509381019392810192600101611184565b503461015157806003193601126101515760206040517f439148f0bbc682ca079e46d6e2c2f0c1e3b820f1a291b069d8882abf8cf18dd98152f35b50346101515760a036600319011261015157611208611b3e565b90611211611b28565b9160843567ffffffffffffffff811161189d57611232903690600401611b54565b90917f00000000000000000000000000000000000000000000000000000000000000006001600160a01b031633819003611ad85750306001600160a01b03821603611aaf575090611284913691611f1d565b6040519161129183611bae565b808352606060208401526040830191818352805181016060826020830192031261189d57602082015191604081015167ffffffffffffffff8111610ee857810182603f82011215610ee8576020810151906112eb82611f01565b936112f96040519586611be6565b82855260408383010111610eec576060929161131c916040602087019101611f61565b0151936001600160a01b0385168503611865576001600160a01b03851690819052602086810192909252918552604051632c805af560e21b81529391849060049082905afa928315610e3c578293611a8e575b50604051631f1b131360e31b8152946020866004816001600160a01b0386165afa95861561065f578396611a6d575b506001600160a01b0386811690821603611a4357506040516370a0823160e01b8152306004820152906020826024816001600160a01b038a165afa91821561065f578392611a0f575b5060405163095ea7b360e01b60208201526001600160a01b0382166024820152600019604480830191909152815261141e81611bca565b80516020908590838301826001600160a01b038c165af184513d826119ea575b5050156119a9575b508451604051635d043b2960e11b8152600481019190915230602482018190526044820152602081606481876001600160a01b0387165af180156106275761197e575b5060405163095ea7b360e01b60208083019182526001600160a01b0384166024840152604480840187905283529085906114c284611bca565b835190826001600160a01b038c165af184513d82611959575b5050156118f9575b50506040516370a0823160e01b81523060048201526020816024816001600160a01b038a165afa90811561065f5783916118c7575b508181116118a9576020916115336115389260643592611cff565b611f54565b9301516040516370a0823160e01b815230600482015290946020826024816001600160a01b0388165afa91821561065f578392611871575b506040516370a0823160e01b8152306004820152936020856024816001600160a01b0386165afa948515610627578495611839575b5073C57fB4fD13CF690F61D2Fade1681c9154A8198e8803b15610ee8576040516304ecaec960e31b81526001600160a01b038381166004830152841660248201526044810188905260001960648201523060848201524260a482015261010060c482015297859189918290819061162190610104830190611f84565b7f00000000000000000000000000000000000000000000000000000000000000006001600160a01b031660e483015203915af496871561062757602497611809575b506040516370a0823160e01b81523060048201529660209188919082906001600160a01b03165afa95861561065f5783966117d4575b506040516370a0823160e01b81523060048201529590602090879060249082906001600160a01b03165afa95861561065f5783966117a0575b5081811015611799576116e491611cff565b505b6116ef83612255565b6001019081600111611785575061170890838584611fa9565b928351156117685750506040820151156117465760206040517f439148f0bbc682ca079e46d6e2c2f0c1e3b820f1a291b069d8882abf8cf18dd98152f35b602060449201519060405191638919e25360e01b835260048301526024820152fd5b60449250604051916204bb6760e81b835260048301526024820152fd5b634e487b7160e01b81526011600452602490fd5b50506116e6565b9095506020813d6020116117cc575b816117bc60209383611be6565b81010312610224575194386116d2565b3d91506117af565b95506020863d602011611801575b816117ef60209383611be6565b81010312610224579451946020611699565b3d91506117e2565b67ffffffffffffffff819592951161182657604052926020611663565b634e487b7160e01b825260416004528782fd5b9094506020813d602011611869575b8161185560209383611be6565b81010312611865575193386115a5565b8380fd5b3d9150611848565b9091506020813d6020116118a1575b8161188d60209383611be6565b8101031261189d57519038611570565b8280fd5b3d9150611880565b604492506040519163a40ed01360e01b835260048301526024820152fd5b90506020813d6020116118f1575b816118e260209383611be6565b8101031261189d575138611518565b3d91506118d5565b60405163095ea7b360e01b60208201526001600160a01b03909216602483015260448083018590528252611952916119439061193481611bca565b6001600160a01b038916611c4b565b6001600160a01b038716611c4b565b38806114e3565b90915061197657506001600160a01b0387163b15155b38806114db565b60011461196f565b602090813d83116119a2575b6119948183611be6565b8101031261189d5738611489565b503d61198a565b60405163095ea7b360e01b60208201526001600160a01b0383166024820152604480820186905281526119e49190610fae90610f9f81611bca565b38611446565b909150611a0757506001600160a01b0387163b15155b388061143e565b600114611a00565b9091506020813d602011611a3b575b81611a2b60209383611be6565b8101031261189d575190386113e7565b3d9150611a1e565b60405163c7f1118d60e01b81526001600160a01b0391821660048201529086166024820152604490fd5b611a8791965060203d6020116105bc576105ad8183611be6565b943861139e565b611aa891935060203d6020116105bc576105ad8183611be6565b913861136f565b604051636705ec4760e11b81526001600160a01b03919091166004820152306024820152604490fd5b604051631a01026f60e01b81523360048201526001600160a01b03919091166024820152604490fd5b50346101515760403660031901126101515760206101db611b20611b28565b600435612021565b602435906001600160a01b038216820361022457565b600435906001600160a01b038216820361022457565b9181601f840112156102245782359167ffffffffffffffff8311610224576020838186019501011161022457565b6000546001600160a01b03163303611b9657565b60405163118cdaa760e01b8152336004820152602490fd5b6060810190811067ffffffffffffffff82111761108f57604052565b6080810190811067ffffffffffffffff82111761108f57604052565b90601f8019910116810190811067ffffffffffffffff82111761108f57604052565b60405163a9059cbb60e01b60208201526001600160a01b03929092166024830152604480830193909352918152611c4991611c44606483611be6565b611c4b565b565b906000602091828151910182855af115611ca7576000513d611c9e57506001600160a01b0381163b155b611c7c5750565b604051635274afe760e01b81526001600160a01b039091166004820152602490fd5b60011415611c75565b6040513d6000823e3d90fd5b600260015414611cc4576002600155565b604051633ee5aeb560e01b8152600490fd5b6040516020810181811067ffffffffffffffff82111761108f5760405260008152906000368137565b919082039182116101e357565b8115611d16570490565b634e487b7160e01b600052601260045260246000fd5b9060001981830981830291828083109203918083039214611d9d57620f42409082821115611d8a577fde8f6cefed634549b62c77574f722e1ac57e23f24d8fd5cb790fb65668c26139940990828211900360fa1b910360061c170290565b634e487b7160005260116020526024601cfd5b5050620f424091500490565b620f4240916000198383099280830292838086109503948086039514611e3c5784831115611e23579082910981600003821680920460028082600302188083028203028083028203028083028203028083028203028083028203028092029003029360018380600003040190848311900302920304170290565b82634e487b71600052156003026011186020526024601cfd5b505090611e499250611d0c565b90565b90916000198383099280830292838086109503948086039514611e3c5784831115611e23579082910981600003821680920460028082600302188083028203028083028203028083028203028083028203028083028203028092029003029360018380600003040190848311900302920304170290565b9081602091031261022457516001600160a01b03811681036102245790565b60405190611eef82611bae565b60006040838281528260208201520152565b67ffffffffffffffff811161108f57601f01601f191660200190565b929192611f2982611f01565b91611f376040519384611be6565b829481845281830111610224578281602093846000960137010152565b919082018092116101e357565b60005b838110611f745750506000910152565b8181015183820152602001611f64565b90602091611f9d81518092818552858086019101611f61565b601f01601f1916010190565b9290611fb3611ee2565b93808211808652611fec575b5050825115611fe057611fd6916020840151612001565b1515604082015290565b50506000604082015290565b611ff591611cff565b60208401523880611fbf565b90808211612018579061201391611cff565b111590565b61201391611cff565b6040805163415c506960e01b8082529194936001600160a01b0316916020918281600481875afa90811561218057600091612153575b50600090156120c557508190600487518095819382525afa9485156120bb575060009461208c575b505091611e499192611da9565b81813d83116120b4575b6120a08183611be6565b8101031261186557519250611e493861207f565b503d612096565b513d6000823e3d90fd5b9282915091600492879596975193848092637aa7c3c160e01b82525afa93841561214a57508293612105575b5050509063ffffffff611e49921690611da9565b9080929350813d8311612143575b61211d8183611be6565b8101031261114957519063ffffffff82168203610151575063ffffffff611e49386120f1565b503d612113565b513d84823e3d90fd5b908382813d8311612179575b6121698183611be6565b8101031261015157505138612057565b503d61215f565b87513d6000823e3d90fd5b6040810151602082015181039081111593929084029184806121d2575b6121b9575050509050600090600090565b516121ce9183916001600160a01b0316611c08565b9190565b508215156121a8565b90816020910312610224575160ff811681036102245790565b90949392851561223c5761220a61221093612247565b91611e4c565b620f423f198401908482116101e357611e49946122369261223092611e4c565b91612247565b90611e4c565b505050505050600090565b604d81116101e357600a0a90565b612710908181029181830414901517156101e357620f424090049056fea26469706673582212204cea2dc63a4ab864233927155bf4228049710a3a2b2e23f797162b4aa1ed111564736f6c63430008140033",
  "deployedBytecode": "0x6080604052600436101561001257600080fd5b6000803560e01c80630a4fdcde14611b0157806323e30c8b146111ee5780632ae18104146111b3578063500fc4341461114d57806357ae0a7214610791578063715018a6146107375780638321928d146106f25780638da5cb5b146106cb5780639d00f108146106af578063a77144581461066a578063a94067e11461035b578063aee5ae6a1461033c578063e5711e8b14610256578063e7a41486146101545763f2fde38b146100c257600080fd5b34610151576020366003190112610151576100db611b3e565b6100e3611b82565b6001600160a01b0390811690811561013857600054826bffffffffffffffffffffffff60a01b821617600055167f8be0079c531659141344cd1fd0a4f28419497f9722a3daafe3b4186f6b6457e0600080a380f35b604051631e4fbdf760e01b815260048101849052602490fd5b80fd5b5034610151576060366003190112610151576044356001600160a01b03811691602435919083820361022457620f42409384841161023d57906020602493926040519485809263266d6a8360e11b825260043560048301525afa90811561023157906101f9575b6101c59250612021565b9082039182116101e3576020916101db91611d2c565b604051908152f35b634e487b7160e01b600052601160045260246000fd5b506020823d8211610229575b8161021260209383611be6565b81010312610224576101c591516101bb565b600080fd5b3d9150610205565b604051903d90823e3d90fd5b60405163103b7d4960e11b815260048101859052602490fd5b503461015157606036600319011261015157610270611b3e565b90610279611b28565b91610282611b82565b61028a611cb3565b610292611cd6565b906001600160a01b0390811690835b835181101561032757602082818360051b870101511684146102e3575060001981146102cf576001016102a1565b634e487b7160e01b85526011600452602485fd5b6064906040519062461bcd60e51b82526004820152601e60248201527f43616e6e6f7420726573637565207265737472696374656420746f6b656e00006044820152fd5b846103356044358886611c08565b6001805580f35b50346101515760203660031901126101515760206101db600435612255565b5034610151576040366003190112610151576001600160a01b038061037e611b28565b16916040519263266d6a8360e11b845260043560048501526020938481602481855afa90811561065f578391610632575b5060405163415c506960e01b8152908582600481865afa9182156106275784926105f8575b50604051632c805af560e21b8152918683600481875afa9283156105ed5785936105ce575b50604051631f1b131360e31b8152928784600481885afa9384156105c3579087918795610594575b5016936040519463313ce56760e01b978887528987600481855afa968715610530578897610575575b50604051956363880e0960e11b9283885260048801528a87602481875afa96871561056a57899761053b575b5016906040519889528989600481855afa98891561053057908a9291899a6104fe575b506024906040519485938492835260048301525afa95861561023157956104cc575b5060ff806101db97169416916121f4565b9594508686813d83116104f7575b6104e48183611be6565b81010312610224579451939460ff6104bb565b503d6104da565b6024919a5061052290843d8611610529575b61051a8183611be6565b8101906121db565b9990610499565b503d610510565b6040513d8a823e3d90fd5b9096508a81813d8311610563575b6105538183611be6565b8101031261022457519538610476565b503d610549565b6040513d8b823e3d90fd5b61058d9197508a3d8c116105295761051a8183611be6565b953861044a565b6105b5919550893d8b116105bc575b6105ad8183611be6565b810190611ec3565b9338610421565b503d6105a3565b6040513d88823e3d90fd5b6105e6919350873d89116105bc576105ad8183611be6565b91386103f9565b6040513d87823e3d90fd5b9091508581813d8311610620575b6106108183611be6565b81010312610224575190386103d4565b503d610606565b6040513d86823e3d90fd5b90508481813d8311610658575b6106498183611be6565b810103126102245751386103af565b503d61063f565b6040513d85823e3d90fd5b50346101515780600319360112610151576040517f00000000000000000000000000000000000000000000000000000000000000006001600160a01b03168152602090f35b5034610151578060031936011261015157602060405160018152f35b5034610151578060031936011261015157546040516001600160a01b039091168152602090f35b50346101515780600319360112610151576040517f00000000000000000000000000000000000000000000000000000000000000006001600160a01b03168152602090f35b5034610151578060031936011261015157610750611b82565b600080546001600160a01b0319811682556001600160a01b03167f8be0079c531659141344cd1fd0a4f28419497f9722a3daafe3b4186f6b6457e08280a380f35b50346101515760a0366003190112610151576107ab611b28565b9060643567ffffffffffffffff8111611149576107cc903690600401611b54565b608435939192906001600160a01b0385168503610224576107eb611cb3565b604051632c805af560e21b81526020816004816001600160a01b038a165afa90811561065f57839161112a575b50604051631f1b131360e31b8152916020836004816001600160a01b038b165afa928315610627578493611109575b50610850611ee2565b96610859611ee2565b6001600160a01b038416808a526040516370a0823160e01b815230600482015291989190602090829060249082905afa9081156110505787916110d7575b5060208a8101919091526001600160a01b038616808a526040516370a0823160e01b81523060048201529190829060249082905afa9081156110505787916110a5575b5060208901526040516323b872dd60e01b60208201523360248201523060448201526004356064820152606481528060a081011067ffffffffffffffff60a08301111761108f5760a081016040526109ae9161095c91610943906001600160a01b038616611c4b565b6040519461095086611bae565b60043586523691611f1d565b9283602082015260018060a01b0383166040820152516109916040519485926020840152606060408401526080830190611f84565b6001600160a01b038416606083015203601f198101845283611be6565b60405163613255ab60e01b81526001600160a01b038581166004830152909290602090849060249082907f0000000000000000000000000000000000000000000000000000000000000000165afa9283156105c357869361105b575b506040516370a0823160e01b8152306004820152926020846024816001600160a01b0387165afa93841561105057879461101c575b50604051633676633960e21b81526001600160a01b038716600482015260248101829052602081806044810103817f00000000000000000000000000000000000000000000000000000000000000006001600160a01b03165afa8015610530578890610fe8575b610ab1915082611f54565b60405163095ea7b360e01b60208083019182526001600160a01b037f0000000000000000000000000000000000000000000000000000000000000000166024840152604480840194909452928252909190600090610b10606485611be6565b835190826001600160a01b038c165af16000513d82610fc3575b505015610f41575b506001600160a01b038681167f000000000000000000000000000000000000000000000000000000000000000090911603610ef857604051632e7ff4ef60e11b81523060048201526001600160a01b03871660248201526044810191909152608060648201529060209082908190610bae906084830190611f84565b0381897f00000000000000000000000000000000000000000000000000000000000000006001600160a01b03165af180156105c357610eb8575b506040516370a0823160e01b81523060048201529190602090839060249082906001600160a01b03165afa9182156105ed578592610e84575b5080821015610e675790610c3491611cff565b6004358103610e4757506040516370a0823160e01b8152306004820152929190602090849060249082906001600160a01b03165afa928315610e3c578293610e07575b506040868101938452516370a0823160e01b815230600482015290602090829060249082906001600160a01b03165afa9182156102315791610dd5575b5060408401528051602085015190818110610db7575050516020840151610cda91611cff565b91604435808410610d995750610d44602094610d00858560018060a01b03845116611c08565b516040518581526001600160a01b03858116959286929116907f21fa991d1ca60543187d2a0de62e5ea0ce1a703a3f0021354ae2f9a75dc0e34d908990a38261218b565b919091610d5b575b50505060018055604051908152f35b516040519182526001600160a01b0316907f858a27e141780954fe5d38ba55127b6c35f8f5904c3a088438a18578d5d71eee908590a3388080610d4c565b83604491604051916347247e7760e11b835260048301526024820152fd5b6044925060405191637506a25d60e11b835260048301526024820152fd5b90506020813d602011610dff575b81610df060209383611be6565b81010312610224575138610cb4565b3d9150610de3565b9092506020813d602011610e34575b81610e2360209383611be6565b810103126102245751916020610c77565b3d9150610e16565b6040513d84823e3d90fd5b604490604051906302d753ed60e61b825260043560048301526024820152fd5b60449160405191632b9e770560e11b835260048301526024820152fd5b9091506020813d602011610eb0575b81610ea060209383611be6565b8101031261022457519038610c21565b3d9150610e93565b6020813d602011610ef0575b81610ed160209383611be6565b81010312610eec575180151503610ee85738610be8565b8480fd5b8580fd5b3d9150610ec4565b60405163aaae67a160e01b81526001600160a01b037f00000000000000000000000000000000000000000000000000000000000000008116600483015287166024820152604490fd5b60405163095ea7b360e01b60208201527f00000000000000000000000000000000000000000000000000000000000000006001600160a01b0316602482015260006044808301919091528152610fbd9190610fae90610f9f81611bca565b6001600160a01b038a16611c4b565b6001600160a01b038816611c4b565b38610b32565b909150610fe057506001600160a01b0387163b15155b3880610b2a565b600114610fd9565b506020813d602011611014575b8161100260209383611be6565b8101031261022457610ab19051610aa6565b3d9150610ff5565b9093506020813d602011611048575b8161103860209383611be6565b8101031261022457519238610a3f565b3d915061102b565b6040513d89823e3d90fd5b9092506020813d602011611087575b8161107760209383611be6565b8101031261022457519138610a0a565b3d915061106a565b634e487b7160e01b600052604160045260246000fd5b90506020813d6020116110cf575b816110c060209383611be6565b810103126102245751386108da565b3d91506110b3565b90506020813d602011611101575b816110f260209383611be6565b81010312610224575138610897565b3d91506110e5565b61112391935060203d6020116105bc576105ad8183611be6565b9138610847565b611143915060203d6020116105bc576105ad8183611be6565b38610818565b5080fd5b5034610151578060031936011261015157611166611cd6565b90604051918291602080840190808552835180925280604086019401925b82811061119357505050500390f35b83516001600160a01b031685528695509381019392810192600101611184565b503461015157806003193601126101515760206040517f439148f0bbc682ca079e46d6e2c2f0c1e3b820f1a291b069d8882abf8cf18dd98152f35b50346101515760a036600319011261015157611208611b3e565b90611211611b28565b9160843567ffffffffffffffff811161189d57611232903690600401611b54565b90917f00000000000000000000000000000000000000000000000000000000000000006001600160a01b031633819003611ad85750306001600160a01b03821603611aaf575090611284913691611f1d565b6040519161129183611bae565b808352606060208401526040830191818352805181016060826020830192031261189d57602082015191604081015167ffffffffffffffff8111610ee857810182603f82011215610ee8576020810151906112eb82611f01565b936112f96040519586611be6565b82855260408383010111610eec576060929161131c916040602087019101611f61565b0151936001600160a01b0385168503611865576001600160a01b03851690819052602086810192909252918552604051632c805af560e21b81529391849060049082905afa928315610e3c578293611a8e575b50604051631f1b131360e31b8152946020866004816001600160a01b0386165afa95861561065f578396611a6d575b506001600160a01b0386811690821603611a4357506040516370a0823160e01b8152306004820152906020826024816001600160a01b038a165afa91821561065f578392611a0f575b5060405163095ea7b360e01b60208201526001600160a01b0382166024820152600019604480830191909152815261141e81611bca565b80516020908590838301826001600160a01b038c165af184513d826119ea575b5050156119a9575b508451604051635d043b2960e11b8152600481019190915230602482018190526044820152602081606481876001600160a01b0387165af180156106275761197e575b5060405163095ea7b360e01b60208083019182526001600160a01b0384166024840152604480840187905283529085906114c284611bca565b835190826001600160a01b038c165af184513d82611959575b5050156118f9575b50506040516370a0823160e01b81523060048201526020816024816001600160a01b038a165afa90811561065f5783916118c7575b508181116118a9576020916115336115389260643592611cff565b611f54565b9301516040516370a0823160e01b815230600482015290946020826024816001600160a01b0388165afa91821561065f578392611871575b506040516370a0823160e01b8152306004820152936020856024816001600160a01b0386165afa948515610627578495611839575b5073__$73ace4aa8e5f9c1a2b48f796123ca85165$__803b15610ee8576040516304ecaec960e31b81526001600160a01b038381166004830152841660248201526044810188905260001960648201523060848201524260a482015261010060c482015297859189918290819061162190610104830190611f84565b7f00000000000000000000000000000000000000000000000000000000000000006001600160a01b031660e483015203915af496871561062757602497611809575b506040516370a0823160e01b81523060048201529660209188919082906001600160a01b03165afa95861561065f5783966117d4575b506040516370a0823160e01b81523060048201529590602090879060249082906001600160a01b03165afa95861561065f5783966117a0575b5081811015611799576116e491611cff565b505b6116ef83612255565b6001019081600111611785575061170890838584611fa9565b928351156117685750506040820151156117465760206040517f439148f0bbc682ca079e46d6e2c2f0c1e3b820f1a291b069d8882abf8cf18dd98152f35b602060449201519060405191638919e25360e01b835260048301526024820152fd5b60449250604051916204bb6760e81b835260048301526024820152fd5b634e487b7160e01b81526011600452602490fd5b50506116e6565b9095506020813d6020116117cc575b816117bc60209383611be6565b81010312610224575194386116d2565b3d91506117af565b95506020863d602011611801575b816117ef60209383611be6565b81010312610224579451946020611699565b3d91506117e2565b67ffffffffffffffff819592951161182657604052926020611663565b634e487b7160e01b825260416004528782fd5b9094506020813d602011611869575b8161185560209383611be6565b81010312611865575193386115a5565b8380fd5b3d9150611848565b9091506020813d6020116118a1575b8161188d60209383611be6565b8101031261189d57519038611570565b8280fd5b3d9150611880565b604492506040519163a40ed01360e01b835260048301526024820152fd5b90506020813d6020116118f1575b816118e260209383611be6565b8101031261189d575138611518565b3d91506118d5565b60405163095ea7b360e01b60208201526001600160a01b03909216602483015260448083018590528252611952916119439061193481611bca565b6001600160a01b038916611c4b565b6001600160a01b038716611c4b565b38806114e3565b90915061197657506001600160a01b0387163b15155b38806114db565b60011461196f565b602090813d83116119a2575b6119948183611be6565b8101031261189d5738611489565b503d61198a565b60405163095ea7b360e01b60208201526001600160a01b0383166024820152604480820186905281526119e49190610fae90610f9f81611bca565b38611446565b909150611a0757506001600160a01b0387163b15155b388061143e565b600114611a00565b9091506020813d602011611a3b575b81611a2b60209383611be6565b8101031261189d575190386113e7565b3d9150611a1e565b60405163c7f1118d60e01b81526001600160a01b0391821660048201529086166024820152604490fd5b611a8791965060203d6020116105bc576105ad8183611be6565b943861139e565b611aa891935060203d6020116105bc576105ad8183611be6565b913861136f565b604051636705ec4760e11b81526001600160a01b03919091166004820152306024820152604490fd5b604051631a01026f60e01b81523360048201526001600160a01b03919091166024820152604490fd5b50346101515760403660031901126101515760206101db611b20611b28565b600435612021565b602435906001600160a01b038216820361022457565b600435906001600160a01b038216820361022457565b9181601f840112156102245782359167ffffffffffffffff8311610224576020838186019501011161022457565b6000546001600160a01b03163303611b9657565b60405163118cdaa760e01b8152336004820152602490fd5b6060810190811067ffffffffffffffff82111761108f57604052565b6080810190811067ffffffffffffffff82111761108f57604052565b90601f8019910116810190811067ffffffffffffffff82111761108f57604052565b60405163a9059cbb60e01b60208201526001600160a01b03929092166024830152604480830193909352918152611c4991611c44606483611be6565b611c4b565b565b906000602091828151910182855af115611ca7576000513d611c9e57506001600160a01b0381163b155b611c7c5750565b604051635274afe760e01b81526001600160a01b039091166004820152602490fd5b60011415611c75565b6040513d6000823e3d90fd5b600260015414611cc4576002600155565b604051633ee5aeb560e01b8152600490fd5b6040516020810181811067ffffffffffffffff82111761108f5760405260008152906000368137565b919082039182116101e357565b8115611d16570490565b634e487b7160e01b600052601260045260246000fd5b9060001981830981830291828083109203918083039214611d9d57620f42409082821115611d8a577fde8f6cefed634549b62c77574f722e1ac57e23f24d8fd5cb790fb65668c26139940990828211900360fa1b910360061c170290565b634e487b7160005260116020526024601cfd5b5050620f424091500490565b620f4240916000198383099280830292838086109503948086039514611e3c5784831115611e23579082910981600003821680920460028082600302188083028203028083028203028083028203028083028203028083028203028092029003029360018380600003040190848311900302920304170290565b82634e487b71600052156003026011186020526024601cfd5b505090611e499250611d0c565b90565b90916000198383099280830292838086109503948086039514611e3c5784831115611e23579082910981600003821680920460028082600302188083028203028083028203028083028203028083028203028083028203028092029003029360018380600003040190848311900302920304170290565b9081602091031261022457516001600160a01b03811681036102245790565b60405190611eef82611bae565b60006040838281528260208201520152565b67ffffffffffffffff811161108f57601f01601f191660200190565b929192611f2982611f01565b91611f376040519384611be6565b829481845281830111610224578281602093846000960137010152565b919082018092116101e357565b60005b838110611f745750506000910152565b8181015183820152602001611f64565b90602091611f9d81518092818552858086019101611f61565b601f01601f1916010190565b9290611fb3611ee2565b93808211808652611fec575b5050825115611fe057611fd6916020840151612001565b1515604082015290565b50506000604082015290565b611ff591611cff565b60208401523880611fbf565b90808211612018579061201391611cff565b111590565b61201391611cff565b6040805163415c506960e01b8082529194936001600160a01b0316916020918281600481875afa90811561218057600091612153575b50600090156120c557508190600487518095819382525afa9485156120bb575060009461208c575b505091611e499192611da9565b81813d83116120b4575b6120a08183611be6565b8101031261186557519250611e493861207f565b503d612096565b513d6000823e3d90fd5b9282915091600492879596975193848092637aa7c3c160e01b82525afa93841561214a57508293612105575b5050509063ffffffff611e49921690611da9565b9080929350813d8311612143575b61211d8183611be6565b8101031261114957519063ffffffff82168203610151575063ffffffff611e49386120f1565b503d612113565b513d84823e3d90fd5b908382813d8311612179575b6121698183611be6565b8101031261015157505138612057565b503d61215f565b87513d6000823e3d90fd5b6040810151602082015181039081111593929084029184806121d2575b6121b9575050509050600090600090565b516121ce9183916001600160a01b0316611c08565b9190565b508215156121a8565b90816020910312610224575160ff811681036102245790565b90949392851561223c5761220a61221093612247565b91611e4c565b620f423f198401908482116101e357611e49946122369261223092611e4c565b91612247565b90611e4c565b505050505050600090565b604d81116101e357600a0a90565b612710908181029181830414901517156101e357620f424090049056fea26469706673582212204cea2dc63a4ab864233927155bf4228049710a3a2b2e23f797162b4aa1ed111564736f6c63430008140033",
  "libraries": {
    "OdosSwapLogic": "0xC57fB4fD13CF690F61D2Fade1681c9154A8198e8"
  }
}