{
  "address": "0x6568B2A898e9a87F8fA66773A7E1759214E7641B",
  "abi": [
    {
      "inputs": [
        {
          "internalType": "contract IERC3156FlashLender",
          "name": "_flashLender",
          "type": "address"
        },
        {
          "internalType": "contract IOdosRouterV2",
          "name": "_odosRouter",
          "type": "address"
        }
      ],
      "stateMutability": "nonpayable",
      "type": "constructor"
    },
    {
      "inputs": [
        {
          "internalType": "uint256",
          "name": "currentCollateralTokenAmount",
          "type": "uint256"
        },
        {
          "internalType": "uint256",
          "name": "minOutputCollateralAmount",
          "type": "uint256"
        }
      ],
      "name": "EstimatedCollateralTokenAmountLessThanMinOutputCollateralAmount",
      "type": "error"
    },
    {
      "inputs": [
        {
          "internalType": "address",
          "name": "flashLender",
          "type": "address"
        },
        {
          "internalType": "address",
          "name": "debtToken",
          "type": "address"
        }
      ],
      "name": "FlashLenderNotSameAsDebtToken",
      "type": "error"
    },
    {
      "inputs": [
        {
          "internalType": "address",
          "name": "currentDebtToken",
          "type": "address"
        },
        {
          "internalType": "address",
          "name": "dLoopCoreDebtToken",
          "type": "address"
        }
      ],
      "name": "IncompatibleDLoopCoreDebtToken",
      "type": "error"
    },
    {
      "inputs": [
        {
          "internalType": "uint256",
          "name": "expected",
          "type": "uint256"
        },
        {
          "internalType": "uint256",
          "name": "actual",
          "type": "uint256"
        }
      ],
      "name": "IncorrectSharesBurned",
      "type": "error"
    },
    {
      "inputs": [
        {
          "internalType": "uint256",
          "name": "received",
          "type": "uint256"
        },
        {
          "internalType": "uint256",
          "name": "expected",
          "type": "uint256"
        }
      ],
      "name": "InsufficientOutput",
      "type": "error"
    },
    {
      "inputs": [
        {
          "internalType": "uint256",
          "name": "outputTokenBalanceBefore",
          "type": "uint256"
        },
        {
          "internalType": "uint256",
          "name": "outputTokenBalanceAfter",
          "type": "uint256"
        }
      ],
      "name": "OutputTokenBalanceNotIncreasedAfterSwap",
      "type": "error"
    },
    {
      "inputs": [
        {
          "internalType": "address",
          "name": "owner",
          "type": "address"
        }
      ],
      "name": "OwnableInvalidOwner",
      "type": "error"
    },
    {
      "inputs": [
        {
          "internalType": "address",
          "name": "account",
          "type": "address"
        }
      ],
      "name": "OwnableUnauthorizedAccount",
      "type": "error"
    },
    {
      "inputs": [
        {
          "internalType": "uint256",
          "name": "receivedOutputTokenAmount",
          "type": "uint256"
        },
        {
          "internalType": "uint256",
          "name": "amountOut",
          "type": "uint256"
        }
      ],
      "name": "ReceivedOutputTokenAmountNotEqualAmountOut",
      "type": "error"
    },
    {
      "inputs": [],
      "name": "ReentrancyGuardReentrantCall",
      "type": "error"
    },
    {
      "inputs": [
        {
          "internalType": "address",
          "name": "token",
          "type": "address"
        }
      ],
      "name": "SafeERC20FailedOperation",
      "type": "error"
    },
    {
      "inputs": [
        {
          "internalType": "uint256",
          "name": "sharesBeforeWithdraw",
          "type": "uint256"
        },
        {
          "internalType": "uint256",
          "name": "sharesAfterWithdraw",
          "type": "uint256"
        }
      ],
      "name": "SharesNotDecreasedAfterFlashLoan",
      "type": "error"
    },
    {
      "inputs": [
        {
          "internalType": "uint256",
          "name": "slippageBps",
          "type": "uint256"
        }
      ],
      "name": "SlippageBpsCannotExceedOneHundredPercent",
      "type": "error"
    },
    {
      "inputs": [
        {
          "internalType": "uint256",
          "name": "spentInputTokenAmount",
          "type": "uint256"
        },
        {
          "internalType": "uint256",
          "name": "amountInMaximum",
          "type": "uint256"
        }
      ],
      "name": "SpentInputTokenAmountGreaterThanAmountInMaximum",
      "type": "error"
    },
    {
      "inputs": [
        {
          "internalType": "uint256",
          "name": "spentInputTokenAmount",
          "type": "uint256"
        },
        {
          "internalType": "uint256",
          "name": "returnedAmountIn",
          "type": "uint256"
        }
      ],
      "name": "SpentInputTokenAmountNotEqualReturnedAmountIn",
      "type": "error"
    },
    {
      "inputs": [
        {
          "internalType": "uint256",
          "name": "collateralTokenBalanceBefore",
          "type": "uint256"
        },
        {
          "internalType": "uint256",
          "name": "collateralTokenBalanceAfter",
          "type": "uint256"
        }
      ],
      "name": "UnexpectedDecreaseInCollateralToken",
      "type": "error"
    },
    {
      "inputs": [
        {
          "internalType": "uint256",
          "name": "collateralTokenBalanceBefore",
          "type": "uint256"
        },
        {
          "internalType": "uint256",
          "name": "collateralTokenBalanceAfter",
          "type": "uint256"
        }
      ],
      "name": "UnexpectedDecreaseInCollateralTokenAfterFlashLoan",
      "type": "error"
    },
    {
      "inputs": [
        {
          "internalType": "uint256",
          "name": "debtTokenBalanceBefore",
          "type": "uint256"
        },
        {
          "internalType": "uint256",
          "name": "debtTokenBalanceAfter",
          "type": "uint256"
        }
      ],
      "name": "UnexpectedIncreaseInDebtToken",
      "type": "error"
    },
    {
      "inputs": [
        {
          "internalType": "address",
          "name": "initiator",
          "type": "address"
        },
        {
          "internalType": "address",
          "name": "thisContract",
          "type": "address"
        }
      ],
      "name": "UnknownInitiator",
      "type": "error"
    },
    {
      "inputs": [
        {
          "internalType": "address",
          "name": "msgSender",
          "type": "address"
        },
        {
          "internalType": "address",
          "name": "flashLender",
          "type": "address"
        }
      ],
      "name": "UnknownLender",
      "type": "error"
    },
    {
      "inputs": [
        {
          "internalType": "uint256",
          "name": "withdrawnCollateralTokenAmount",
          "type": "uint256"
        },
        {
          "internalType": "uint256",
          "name": "minReceiveCollateralTokenAmount",
          "type": "uint256"
        }
      ],
      "name": "WithdrawnCollateralTokenAmountNotMetMinReceiveAmount",
      "type": "error"
    },
    {
      "anonymous": false,
      "inputs": [
        {
          "indexed": true,
          "internalType": "address",
          "name": "collateralToken",
          "type": "address"
        },
        {
          "indexed": false,
          "internalType": "uint256",
          "name": "amount",
          "type": "uint256"
        },
        {
          "indexed": true,
          "internalType": "address",
          "name": "receiver",
          "type": "address"
        }
      ],
      "name": "LeftoverCollateralTokensTransferred",
      "type": "event"
    },
    {
      "anonymous": false,
      "inputs": [
        {
          "indexed": true,
          "internalType": "address",
          "name": "previousOwner",
          "type": "address"
        },
        {
          "indexed": true,
          "internalType": "address",
          "name": "newOwner",
          "type": "address"
        }
      ],
      "name": "OwnershipTransferred",
      "type": "event"
    },
    {
      "inputs": [],
      "name": "BALANCE_DIFF_TOLERANCE",
      "outputs": [
        {
          "internalType": "uint256",
          "name": "",
          "type": "uint256"
        }
      ],
      "stateMutability": "view",
      "type": "function"
    },
    {
      "inputs": [],
      "name": "FLASHLOAN_CALLBACK",
      "outputs": [
        {
          "internalType": "bytes32",
          "name": "",
          "type": "bytes32"
        }
      ],
      "stateMutability": "view",
      "type": "function"
    },
    {
      "inputs": [
        {
          "internalType": "uint256",
          "name": "shares",
          "type": "uint256"
        },
        {
          "internalType": "uint256",
          "name": "slippageBps",
          "type": "uint256"
        },
        {
          "internalType": "contract DLoopCoreBase",
          "name": "dLoopCore",
          "type": "address"
        }
      ],
      "name": "calculateMinOutputCollateral",
      "outputs": [
        {
          "internalType": "uint256",
          "name": "",
          "type": "uint256"
        }
      ],
      "stateMutability": "view",
      "type": "function"
    },
    {
      "inputs": [],
      "name": "flashLender",
      "outputs": [
        {
          "internalType": "contract IERC3156FlashLender",
          "name": "",
          "type": "address"
        }
      ],
      "stateMutability": "view",
      "type": "function"
    },
    {
      "inputs": [],
      "name": "getRestrictedRescueTokens",
      "outputs": [
        {
          "internalType": "address[]",
          "name": "restrictedTokens",
          "type": "address[]"
        }
      ],
      "stateMutability": "view",
      "type": "function"
    },
    {
      "inputs": [
        {
          "internalType": "uint256",
          "name": "leveragedAssets",
          "type": "uint256"
        },
        {
          "internalType": "contract DLoopCoreBase",
          "name": "dLoopCore",
          "type": "address"
        }
      ],
      "name": "getUnleveragedAssets",
      "outputs": [
        {
          "internalType": "uint256",
          "name": "",
          "type": "uint256"
        }
      ],
      "stateMutability": "view",
      "type": "function"
    },
    {
      "inputs": [],
      "name": "odosRouter",
      "outputs": [
        {
          "internalType": "contract IOdosRouterV2",
          "name": "",
          "type": "address"
        }
      ],
      "stateMutability": "view",
      "type": "function"
    },
    {
      "inputs": [
        {
          "internalType": "address",
          "name": "initiator",
          "type": "address"
        },
        {
          "internalType": "address",
          "name": "token",
          "type": "address"
        },
        {
          "internalType": "uint256",
          "name": "",
          "type": "uint256"
        },
        {
          "internalType": "uint256",
          "name": "flashLoanFee",
          "type": "uint256"
        },
        {
          "internalType": "bytes",
          "name": "data",
          "type": "bytes"
        }
      ],
      "name": "onFlashLoan",
      "outputs": [
        {
          "internalType": "bytes32",
          "name": "",
          "type": "bytes32"
        }
      ],
      "stateMutability": "nonpayable",
      "type": "function"
    },
    {
      "inputs": [],
      "name": "owner",
      "outputs": [
        {
          "internalType": "address",
          "name": "",
          "type": "address"
        }
      ],
      "stateMutability": "view",
      "type": "function"
    },
    {
      "inputs": [
        {
          "internalType": "uint256",
          "name": "shares",
          "type": "uint256"
        },
        {
          "internalType": "address",
          "name": "receiver",
          "type": "address"
        },
        {
          "internalType": "uint256",
          "name": "minOutputCollateralAmount",
          "type": "uint256"
        },
        {
          "internalType": "bytes",
          "name": "collateralToDebtTokenSwapData",
          "type": "bytes"
        },
        {
          "internalType": "contract DLoopCoreBase",
          "name": "dLoopCore",
          "type": "address"
        }
      ],
      "name": "redeem",
      "outputs": [
        {
          "internalType": "uint256",
          "name": "assets",
          "type": "uint256"
        }
      ],
      "stateMutability": "nonpayable",
      "type": "function"
    },
    {
      "inputs": [],
      "name": "renounceOwnership",
      "outputs": [],
      "stateMutability": "nonpayable",
      "type": "function"
    },
    {
      "inputs": [
        {
          "internalType": "address",
          "name": "token",
          "type": "address"
        },
        {
          "internalType": "address",
          "name": "receiver",
          "type": "address"
        },
        {
          "internalType": "uint256",
          "name": "amount",
          "type": "uint256"
        }
      ],
      "name": "rescueToken",
      "outputs": [],
      "stateMutability": "nonpayable",
      "type": "function"
    },
    {
      "inputs": [
        {
          "internalType": "address",
          "name": "newOwner",
          "type": "address"
        }
      ],
      "name": "transferOwnership",
      "outputs": [],
      "stateMutability": "nonpayable",
      "type": "function"
    }
  ],
  "transactionHash": "0x4ed488baf328f8bba3000c76093bc012b366bf3713e9857bf49c624b8fb62e79",
  "args": [
    "0x53a6aBb52B2F968fA80dF6A894e4f1b1020DA975",
    "0xaC041Df48dF9791B0654f1Dbbf2CC8450C5f2e9D"
  ],
  "numDeployments": 1,
  "solcInputHash": "487873b61525cf59b6844be4ff31a5a1",
  "bytecode": "0x60c03461012357601f611e6d38819003918201601f19168301916001600160401b038311848410176101285780849260409485528339810103126101235780516001600160a01b03918282168203610123576020015190828216820361012357331561010a576000543360018060a01b0319821617600055604051933391167f8be0079c531659141344cd1fd0a4f28419497f9722a3daafe3b4186f6b6457e0600080a36001805560805260a052611d2e908161013f823960805181818161031e015281816105d4015281816106a10152818161070101528181610773015281816107e801528181610ae001528181610b2d0152610dd0015260a0518181816103a801526111a70152f35b604051631e4fbdf760e01b815260006004820152602490fd5b600080fd5b634e487b7160e01b600052604160045260246000fdfe6080604052600436101561001257600080fd5b60003560e01c80630a4fdcde146116b457806323e30c8b14610d885780632ae1810414610d4d578063500fc43414610ce857806357ae0a7214610430578063715018a6146103d75780638321928d146103925780638da5cb5b146103695780639d00f1081461034d578063a771445814610308578063e5711e8b14610239578063e7a414861461013e5763f2fde38b146100ab57600080fd5b34610139576020366003190112610139576100c46116f0565b6100cc611734565b6001600160a01b0390811690811561012057600054826bffffffffffffffffffffffff60a01b821617600055167f8be0079c531659141344cd1fd0a4f28419497f9722a3daafe3b4186f6b6457e0600080a3005b604051631e4fbdf760e01b815260006004820152602490fd5b600080fd5b34610139576060366003190112610139576044356001600160a01b038116906024359082810361013957620f424092838311610220579060206024926040519384809263266d6a8360e11b825260043560048301525afa8015610214576000906101e1575b6101ad9250611b80565b9082039182116101cb576020916101c3916118b2565b604051908152f35b634e487b7160e01b600052601160045260246000fd5b506020823d821161020c575b816101fa60209383611798565b81010312610139576101ad91516101a3565b3d91506101ed565b6040513d6000823e3d90fd5b60405163103b7d4960e11b815260048101849052602490fd5b34610139576060366003190112610139576102526116f0565b61025a6116da565b90610263611734565b61026b611859565b61027361187c565b906001600160a01b039081169060005b83518110156102f557602082818360051b870101511684146102b1575060001981146101cb57600101610283565b6064906040519062461bcd60e51b82526004820152601e60248201527f43616e6e6f7420726573637565207265737472696374656420746f6b656e00006044820152fd5b61030260443586856117ba565b60018055005b34610139576000366003190112610139576040517f00000000000000000000000000000000000000000000000000000000000000006001600160a01b03168152602090f35b3461013957600036600319011261013957602060405160018152f35b34610139576000366003190112610139576000546040516001600160a01b039091168152602090f35b34610139576000366003190112610139576040517f00000000000000000000000000000000000000000000000000000000000000006001600160a01b03168152602090f35b34610139576000366003190112610139576103f0611734565b600080546001600160a01b0319811682556001600160a01b03167f8be0079c531659141344cd1fd0a4f28419497f9722a3daafe3b4186f6b6457e08280a3005b346101395760a0366003190112610139576104496116da565b67ffffffffffffffff6064358181116101395761046a903690600401611706565b6084359290916001600160a01b038416840361013957610488611859565b604051906323b872dd60e01b602083015233602483015230604483015260043560648301526064825260a082019282841090841117610cd2576104dd6104f6926105489460405260018060a01b0387166117fd565b604051936104ea85611760565b60043585523691611a02565b9182602082015260018060a01b03841660408201525161052b6040519384926020840152606060408401526080830190611a88565b6001600160a01b038516606083015203601f198101835282611798565b604051632c805af560e21b8152916020836004816001600160a01b0385165afa92831561021457600093610cb1575b50604051631f1b131360e31b8152916020836004816001600160a01b0386165afa92831561021457600093610c80575b5060405163613255ab60e01b81526001600160a01b038481166004830152909190602090839060249082907f0000000000000000000000000000000000000000000000000000000000000000165afa91821561021457600092610c4c575b506040516370a0823160e01b8152306004820152916020836024816001600160a01b0388165afa92831561021457600093610c18575b506040516370a0823160e01b8152306004820152946020866024816001600160a01b038b165afa95861561021457600096610be4575b50604051633676633960e21b81526001600160a01b038216600482015260248101839052602081806044810103817f00000000000000000000000000000000000000000000000000000000000000006001600160a01b03165afa801561021457600090610bb0575b6106e4915083611a58565b60405163095ea7b360e01b60208083018281526001600160a01b037f00000000000000000000000000000000000000000000000000000000000000001660248501526044808501959095529383529092600090610742606485611798565b835190826001600160a01b0388165af16000513d82610b8b575b505015610b14575b50506001600160a01b038181167f000000000000000000000000000000000000000000000000000000000000000090911603610ac957604051632e7ff4ef60e11b81523060048201526001600160a01b03909116602482015260448101919091526080606482015290602090829081906107e2906084830190611a88565b038160007f00000000000000000000000000000000000000000000000000000000000000006001600160a01b03165af1801561021457610a91575b506040516370a0823160e01b815230600482015291602090839060249082906001600160a01b03165afa91821561021457600092610a5d575b5080821015610a405790610869916118a5565b6004358103610a2057506040516370a0823160e01b81523060048201526020816024816001600160a01b0387165afa908115610214576000916109ee575b50818111156109d057906108ba916118a5565b906044358083106109b257506108da82846001600160a01b0384166117ba565b6040516370a0823160e01b8152306004820152926020846024816001600160a01b0386165afa9081156102145760009161097d575b6020945081610928575b50505060018055604051908152f35b7f21fa991d1ca60543187d2a0de62e5ea0ce1a703a3f0021354ae2f9a75dc0e34d90859061096084826001600160a01b0388166117ba565b6040519384526001600160a01b03908116941692a3828080610919565b90506020843d6020116109aa575b8161099860209383611798565b8101031261013957602093519061090f565b3d915061098b565b82604491604051916347247e7760e11b835260048301526024820152fd5b6044925060405191637506a25d60e11b835260048301526024820152fd5b90506020813d602011610a18575b81610a0960209383611798565b810103126101395751846108a7565b3d91506109fc565b604490604051906302d753ed60e61b825260043560048301526024820152fd5b60449160405191632b9e770560e11b835260048301526024820152fd5b9091506020813d602011610a89575b81610a7960209383611798565b8101031261013957519085610856565b3d9150610a6c565b6020813d602011610ac1575b81610aaa60209383611798565b81010312610139575180151503610139578561081d565b3d9150610a9d565b60405163aaae67a160e01b81526001600160a01b037f000000000000000000000000000000000000000000000000000000000000000081166004830152919091166024820152604490fd5b610b75610b849260405190602082015260018060a01b037f00000000000000000000000000000000000000000000000000000000000000001660248201526000604482015260448152610b668161177c565b6001600160a01b0385166117fd565b6001600160a01b0383166117fd565b8880610764565b909150610ba857506001600160a01b0383163b15155b8b8061075c565b600114610ba1565b506020813d602011610bdc575b81610bca60209383611798565b81010312610139576106e490516106d9565b3d9150610bbd565b9095506020813d602011610c10575b81610c0060209383611798565b8101031261013957519488610671565b3d9150610bf3565b9092506020813d602011610c44575b81610c3460209383611798565b810103126101395751918761063b565b3d9150610c27565b9091506020813d602011610c78575b81610c6860209383611798565b8101031261013957519086610605565b3d9150610c5b565b610ca391935060203d602011610caa575b610c9b8183611798565b810190611a39565b91856105a7565b503d610c91565b610ccb91935060203d602011610caa57610c9b8183611798565b9184610577565b634e487b7160e01b600052604160045260246000fd5b3461013957600036600319011261013957610d0161187c565b604051809160208083018184528251809152816040850193019160005b828110610d2d57505050500390f35b83516001600160a01b031685528695509381019392810192600101610d1e565b346101395760003660031901126101395760206040517f439148f0bbc682ca079e46d6e2c2f0c1e3b820f1a291b069d8882abf8cf18dd98152f35b346101395760a036600319011261013957610da16116f0565b610da96116da565b9067ffffffffffffffff9060843582811161013957610dcc903690600401611706565b90917f00000000000000000000000000000000000000000000000000000000000000006001600160a01b03163381900361168b5750306001600160a01b03821603611662575090610e1e913691611a02565b60405191610e2b83611760565b60008352606060208401526040830191600083528051810190606081602084019303126101395760208101519260408201519081116101395781019082603f8301121561013957602082015191610e81836119e6565b93610e8f6040519586611798565b8385526040848301011161013957606092610eb1916040602087019101611a65565b0151926001600160a01b0384168403610139576001600160a01b03841690819052602085810192909252918452604051632c805af560e21b81529291839060049082905afa91821561021457600092611641575b50604051631f1b131360e31b8152936020856004816001600160a01b0386165afa94851561021457600095611620575b506001600160a01b03858116908216036115f657506040516370a0823160e01b8152306004820152906020826024816001600160a01b0389165afa918215610214576000926115c2575b5060405163095ea7b360e01b60208201526001600160a01b03821660248201526000196044808301919091528152610fb68161177c565b8051602090600090838301826001600160a01b038b165af16000513d8261159d575b50501561153b575b508351604051635d043b2960e11b815260048101919091523060248201819052604482015260208160648160006001600160a01b0387165af1801561021457611510575b5060405163095ea7b360e01b60208083019182526001600160a01b0384166024840152600060448085018290528452909161105e8461177c565b835190826001600160a01b038b165af16000513d826114eb575b505015611488575b50506040516370a0823160e01b81523060048201526020816024816001600160a01b0389165afa90811561021457600091611456575b50818111611438576020916110d16110d692606435926118a5565b611a58565b9201516040516370a0823160e01b815230600482015290916001600160a01b031690602081602481855afa90811561021457600091611406575b506040516370a0823160e01b8152306004820152926020846024816001600160a01b038a165afa938415610214576000946113cf575b506040516304ecaec960e31b8152600481018490526001600160a01b03871660248201526044810186905260001960648201523060848201524260a482015261010060c48201529190602090839081906111a590610104830190611a88565b7f00000000000000000000000000000000000000000000000000000000000000006001600160a01b031660e48301520381736F3902372976e91BBCA5F85914016fB74e9Da5EE5af49182156102145760009261139a575b50602060249293604051938480926370a0823160e01b82523060048301525afa91821561021457600092611363575b506040516370a0823160e01b815230600482015295602090879060249082906001600160a01b03165afa9586156102145760009661132d575b50611270918391611aad565b8051611301575b5050611284828483611b1c565b928351156112e45750506040820151156112c25760206040517f439148f0bbc682ca079e46d6e2c2f0c1e3b820f1a291b069d8882abf8cf18dd98152f35b602060449201519060405191638919e25360e01b835260048301526024820152fd5b60449250604051916204bb6760e81b835260048301526024820152fd5b60408101516112775790602060449201519060405191637654e04760e11b835260048301526024820152fd5b9095506020813d60201161135b575b8161134960209383611798565b81010312610139575194611270611264565b3d915061133c565b9591506020863d602011611392575b8161137f60209383611798565b810103126101395794519094602061122b565b3d9150611372565b91506020823d6020116113c7575b816113b560209383611798565b810103126101395790519060206111fc565b3d91506113a8565b919093506020823d6020116113fe575b816113ec60209383611798565b81010312610139579051926020611146565b3d91506113df565b90506020813d602011611430575b8161142160209383611798565b81010312610139575185611110565b3d9150611414565b604492506040519163a40ed01360e01b835260048301526024820152fd5b90506020813d602011611480575b8161147160209383611798565b810103126101395751856110b6565b3d9150611464565b60405163095ea7b360e01b60208201526001600160a01b039092166024830152600060448084019190915282526114e4916114d5906114c68161177c565b6001600160a01b0388166117fd565b6001600160a01b0386166117fd565b8480611080565b90915061150857506001600160a01b0386163b15155b8780611078565b600114611501565b602090813d8311611534575b6115268183611798565b810103126101395785611024565b503d61151c565b60405163095ea7b360e01b60208201526001600160a01b0383166024820152600060448083019190915281526115979190611588906115798161177c565b6001600160a01b0389166117fd565b6001600160a01b0387166117fd565b85610fe0565b9091506115ba57506001600160a01b0386163b15155b8780610fd8565b6001146115b3565b9091506020813d6020116115ee575b816115de60209383611798565b8101031261013957519085610f7f565b3d91506115d1565b60405163c7f1118d60e01b81526001600160a01b0391821660048201529085166024820152604490fd5b61163a91955060203d602011610caa57610c9b8183611798565b9385610f35565b61165b91925060203d602011610caa57610c9b8183611798565b9084610f05565b604051636705ec4760e11b81526001600160a01b03919091166004820152306024820152604490fd5b604051631a01026f60e01b81523360048201526001600160a01b03919091166024820152604490fd5b346101395760403660031901126101395760206101c36116d26116da565b600435611b80565b602435906001600160a01b038216820361013957565b600435906001600160a01b038216820361013957565b9181601f840112156101395782359167ffffffffffffffff8311610139576020838186019501011161013957565b6000546001600160a01b0316330361174857565b60405163118cdaa760e01b8152336004820152602490fd5b6060810190811067ffffffffffffffff821117610cd257604052565b6080810190811067ffffffffffffffff821117610cd257604052565b90601f8019910116810190811067ffffffffffffffff821117610cd257604052565b60405163a9059cbb60e01b60208201526001600160a01b039290921660248301526044808301939093529181526117fb916117f6606483611798565b6117fd565b565b906000602091828151910182855af115610214576000513d61185057506001600160a01b0381163b155b61182e5750565b604051635274afe760e01b81526001600160a01b039091166004820152602490fd5b60011415611827565b60026001541461186a576002600155565b604051633ee5aeb560e01b8152600490fd5b6040516020810181811067ffffffffffffffff821117610cd25760405260008152906000368137565b919082039182116101cb57565b906000198183098183029182808310920391808303921461192357620f42409082821115611910577fde8f6cefed634549b62c77574f722e1ac57e23f24d8fd5cb790fb65668c26139940990828211900360fa1b910360061c170290565b634e487b7160005260116020526024601cfd5b5050620f424091500490565b620f42409160001983830992808302928380861095039480860395146119c257848311156119a9579082910981600003821680920460028082600302188083028203028083028203028083028203028083028203028083028203028092029003029360018380600003040190848311900302920304170290565b82634e487b71600052156003026011186020526024601cfd5b5050809250156119d0570490565b634e487b7160e01b600052601260045260246000fd5b67ffffffffffffffff8111610cd257601f01601f191660200190565b929192611a0e826119e6565b91611a1c6040519384611798565b829481845281830111610139578281602093846000960137010152565b9081602091031261013957516001600160a01b03811681036101395790565b919082018092116101cb57565b60005b838110611a785750506000910152565b8181015183820152602001611a68565b90602091611aa181518092818552858086019101611a65565b601f01601f1916010190565b91909160405190611abd82611760565b60208201600081526040830191600083528395818110808652611b09575b505050815115611aff575050611af5906020830151611b5e565b1515604082015290565b6000905292915050565b611b12916118a5565b9052388080611adb565b919060405190611b2b82611760565b60208201600081526040830191600083528395808211808652611b0957505050815115611aff575050611af59060208301515b600191808211611b775790611b72916118a5565b111590565b611b72916118a5565b6040805163415c506960e01b8082529194936001600160a01b0316916020918281600481875afa908115611ced57600091611cc0575b5060009015611c2b57508190600487518095819382525afa948515611c215750600094611bee575b505091611beb919261192f565b90565b81813d8311611c1a575b611c028183611798565b81010312611c1657519250611beb38611bde565b8380fd5b503d611bf8565b513d6000823e3d90fd5b9282915091600492879596975193848092637aa7c3c160e01b82525afa938415611cb757508293611c6b575b5050509063ffffffff611beb92169061192f565b9080929350813d8311611cb0575b611c838183611798565b81010312611cac57519063ffffffff82168203611ca9575063ffffffff611beb38611c57565b80fd5b5080fd5b503d611c79565b513d84823e3d90fd5b908382813d8311611ce6575b611cd68183611798565b81010312611ca957505138611bb6565b503d611ccc565b87513d6000823e3d90fdfea2646970667358221220ef1fc1591fefd9a5b67ee139fdadaadd693d3c4dcb707d26a02d638ce88aa84664736f6c63430008140033",
  "deployedBytecode": "0x6080604052600436101561001257600080fd5b60003560e01c80630a4fdcde146116b457806323e30c8b14610d885780632ae1810414610d4d578063500fc43414610ce857806357ae0a7214610430578063715018a6146103d75780638321928d146103925780638da5cb5b146103695780639d00f1081461034d578063a771445814610308578063e5711e8b14610239578063e7a414861461013e5763f2fde38b146100ab57600080fd5b34610139576020366003190112610139576100c46116f0565b6100cc611734565b6001600160a01b0390811690811561012057600054826bffffffffffffffffffffffff60a01b821617600055167f8be0079c531659141344cd1fd0a4f28419497f9722a3daafe3b4186f6b6457e0600080a3005b604051631e4fbdf760e01b815260006004820152602490fd5b600080fd5b34610139576060366003190112610139576044356001600160a01b038116906024359082810361013957620f424092838311610220579060206024926040519384809263266d6a8360e11b825260043560048301525afa8015610214576000906101e1575b6101ad9250611b80565b9082039182116101cb576020916101c3916118b2565b604051908152f35b634e487b7160e01b600052601160045260246000fd5b506020823d821161020c575b816101fa60209383611798565b81010312610139576101ad91516101a3565b3d91506101ed565b6040513d6000823e3d90fd5b60405163103b7d4960e11b815260048101849052602490fd5b34610139576060366003190112610139576102526116f0565b61025a6116da565b90610263611734565b61026b611859565b61027361187c565b906001600160a01b039081169060005b83518110156102f557602082818360051b870101511684146102b1575060001981146101cb57600101610283565b6064906040519062461bcd60e51b82526004820152601e60248201527f43616e6e6f7420726573637565207265737472696374656420746f6b656e00006044820152fd5b61030260443586856117ba565b60018055005b34610139576000366003190112610139576040517f00000000000000000000000000000000000000000000000000000000000000006001600160a01b03168152602090f35b3461013957600036600319011261013957602060405160018152f35b34610139576000366003190112610139576000546040516001600160a01b039091168152602090f35b34610139576000366003190112610139576040517f00000000000000000000000000000000000000000000000000000000000000006001600160a01b03168152602090f35b34610139576000366003190112610139576103f0611734565b600080546001600160a01b0319811682556001600160a01b03167f8be0079c531659141344cd1fd0a4f28419497f9722a3daafe3b4186f6b6457e08280a3005b346101395760a0366003190112610139576104496116da565b67ffffffffffffffff6064358181116101395761046a903690600401611706565b6084359290916001600160a01b038416840361013957610488611859565b604051906323b872dd60e01b602083015233602483015230604483015260043560648301526064825260a082019282841090841117610cd2576104dd6104f6926105489460405260018060a01b0387166117fd565b604051936104ea85611760565b60043585523691611a02565b9182602082015260018060a01b03841660408201525161052b6040519384926020840152606060408401526080830190611a88565b6001600160a01b038516606083015203601f198101835282611798565b604051632c805af560e21b8152916020836004816001600160a01b0385165afa92831561021457600093610cb1575b50604051631f1b131360e31b8152916020836004816001600160a01b0386165afa92831561021457600093610c80575b5060405163613255ab60e01b81526001600160a01b038481166004830152909190602090839060249082907f0000000000000000000000000000000000000000000000000000000000000000165afa91821561021457600092610c4c575b506040516370a0823160e01b8152306004820152916020836024816001600160a01b0388165afa92831561021457600093610c18575b506040516370a0823160e01b8152306004820152946020866024816001600160a01b038b165afa95861561021457600096610be4575b50604051633676633960e21b81526001600160a01b038216600482015260248101839052602081806044810103817f00000000000000000000000000000000000000000000000000000000000000006001600160a01b03165afa801561021457600090610bb0575b6106e4915083611a58565b60405163095ea7b360e01b60208083018281526001600160a01b037f00000000000000000000000000000000000000000000000000000000000000001660248501526044808501959095529383529092600090610742606485611798565b835190826001600160a01b0388165af16000513d82610b8b575b505015610b14575b50506001600160a01b038181167f000000000000000000000000000000000000000000000000000000000000000090911603610ac957604051632e7ff4ef60e11b81523060048201526001600160a01b03909116602482015260448101919091526080606482015290602090829081906107e2906084830190611a88565b038160007f00000000000000000000000000000000000000000000000000000000000000006001600160a01b03165af1801561021457610a91575b506040516370a0823160e01b815230600482015291602090839060249082906001600160a01b03165afa91821561021457600092610a5d575b5080821015610a405790610869916118a5565b6004358103610a2057506040516370a0823160e01b81523060048201526020816024816001600160a01b0387165afa908115610214576000916109ee575b50818111156109d057906108ba916118a5565b906044358083106109b257506108da82846001600160a01b0384166117ba565b6040516370a0823160e01b8152306004820152926020846024816001600160a01b0386165afa9081156102145760009161097d575b6020945081610928575b50505060018055604051908152f35b7f21fa991d1ca60543187d2a0de62e5ea0ce1a703a3f0021354ae2f9a75dc0e34d90859061096084826001600160a01b0388166117ba565b6040519384526001600160a01b03908116941692a3828080610919565b90506020843d6020116109aa575b8161099860209383611798565b8101031261013957602093519061090f565b3d915061098b565b82604491604051916347247e7760e11b835260048301526024820152fd5b6044925060405191637506a25d60e11b835260048301526024820152fd5b90506020813d602011610a18575b81610a0960209383611798565b810103126101395751846108a7565b3d91506109fc565b604490604051906302d753ed60e61b825260043560048301526024820152fd5b60449160405191632b9e770560e11b835260048301526024820152fd5b9091506020813d602011610a89575b81610a7960209383611798565b8101031261013957519085610856565b3d9150610a6c565b6020813d602011610ac1575b81610aaa60209383611798565b81010312610139575180151503610139578561081d565b3d9150610a9d565b60405163aaae67a160e01b81526001600160a01b037f000000000000000000000000000000000000000000000000000000000000000081166004830152919091166024820152604490fd5b610b75610b849260405190602082015260018060a01b037f00000000000000000000000000000000000000000000000000000000000000001660248201526000604482015260448152610b668161177c565b6001600160a01b0385166117fd565b6001600160a01b0383166117fd565b8880610764565b909150610ba857506001600160a01b0383163b15155b8b8061075c565b600114610ba1565b506020813d602011610bdc575b81610bca60209383611798565b81010312610139576106e490516106d9565b3d9150610bbd565b9095506020813d602011610c10575b81610c0060209383611798565b8101031261013957519488610671565b3d9150610bf3565b9092506020813d602011610c44575b81610c3460209383611798565b810103126101395751918761063b565b3d9150610c27565b9091506020813d602011610c78575b81610c6860209383611798565b8101031261013957519086610605565b3d9150610c5b565b610ca391935060203d602011610caa575b610c9b8183611798565b810190611a39565b91856105a7565b503d610c91565b610ccb91935060203d602011610caa57610c9b8183611798565b9184610577565b634e487b7160e01b600052604160045260246000fd5b3461013957600036600319011261013957610d0161187c565b604051809160208083018184528251809152816040850193019160005b828110610d2d57505050500390f35b83516001600160a01b031685528695509381019392810192600101610d1e565b346101395760003660031901126101395760206040517f439148f0bbc682ca079e46d6e2c2f0c1e3b820f1a291b069d8882abf8cf18dd98152f35b346101395760a036600319011261013957610da16116f0565b610da96116da565b9067ffffffffffffffff9060843582811161013957610dcc903690600401611706565b90917f00000000000000000000000000000000000000000000000000000000000000006001600160a01b03163381900361168b5750306001600160a01b03821603611662575090610e1e913691611a02565b60405191610e2b83611760565b60008352606060208401526040830191600083528051810190606081602084019303126101395760208101519260408201519081116101395781019082603f8301121561013957602082015191610e81836119e6565b93610e8f6040519586611798565b8385526040848301011161013957606092610eb1916040602087019101611a65565b0151926001600160a01b0384168403610139576001600160a01b03841690819052602085810192909252918452604051632c805af560e21b81529291839060049082905afa91821561021457600092611641575b50604051631f1b131360e31b8152936020856004816001600160a01b0386165afa94851561021457600095611620575b506001600160a01b03858116908216036115f657506040516370a0823160e01b8152306004820152906020826024816001600160a01b0389165afa918215610214576000926115c2575b5060405163095ea7b360e01b60208201526001600160a01b03821660248201526000196044808301919091528152610fb68161177c565b8051602090600090838301826001600160a01b038b165af16000513d8261159d575b50501561153b575b508351604051635d043b2960e11b815260048101919091523060248201819052604482015260208160648160006001600160a01b0387165af1801561021457611510575b5060405163095ea7b360e01b60208083019182526001600160a01b0384166024840152600060448085018290528452909161105e8461177c565b835190826001600160a01b038b165af16000513d826114eb575b505015611488575b50506040516370a0823160e01b81523060048201526020816024816001600160a01b0389165afa90811561021457600091611456575b50818111611438576020916110d16110d692606435926118a5565b611a58565b9201516040516370a0823160e01b815230600482015290916001600160a01b031690602081602481855afa90811561021457600091611406575b506040516370a0823160e01b8152306004820152926020846024816001600160a01b038a165afa938415610214576000946113cf575b506040516304ecaec960e31b8152600481018490526001600160a01b03871660248201526044810186905260001960648201523060848201524260a482015261010060c48201529190602090839081906111a590610104830190611a88565b7f00000000000000000000000000000000000000000000000000000000000000006001600160a01b031660e4830152038173__$73ace4aa8e5f9c1a2b48f796123ca85165$__5af49182156102145760009261139a575b50602060249293604051938480926370a0823160e01b82523060048301525afa91821561021457600092611363575b506040516370a0823160e01b815230600482015295602090879060249082906001600160a01b03165afa9586156102145760009661132d575b50611270918391611aad565b8051611301575b5050611284828483611b1c565b928351156112e45750506040820151156112c25760206040517f439148f0bbc682ca079e46d6e2c2f0c1e3b820f1a291b069d8882abf8cf18dd98152f35b602060449201519060405191638919e25360e01b835260048301526024820152fd5b60449250604051916204bb6760e81b835260048301526024820152fd5b60408101516112775790602060449201519060405191637654e04760e11b835260048301526024820152fd5b9095506020813d60201161135b575b8161134960209383611798565b81010312610139575194611270611264565b3d915061133c565b9591506020863d602011611392575b8161137f60209383611798565b810103126101395794519094602061122b565b3d9150611372565b91506020823d6020116113c7575b816113b560209383611798565b810103126101395790519060206111fc565b3d91506113a8565b919093506020823d6020116113fe575b816113ec60209383611798565b81010312610139579051926020611146565b3d91506113df565b90506020813d602011611430575b8161142160209383611798565b81010312610139575185611110565b3d9150611414565b604492506040519163a40ed01360e01b835260048301526024820152fd5b90506020813d602011611480575b8161147160209383611798565b810103126101395751856110b6565b3d9150611464565b60405163095ea7b360e01b60208201526001600160a01b039092166024830152600060448084019190915282526114e4916114d5906114c68161177c565b6001600160a01b0388166117fd565b6001600160a01b0386166117fd565b8480611080565b90915061150857506001600160a01b0386163b15155b8780611078565b600114611501565b602090813d8311611534575b6115268183611798565b810103126101395785611024565b503d61151c565b60405163095ea7b360e01b60208201526001600160a01b0383166024820152600060448083019190915281526115979190611588906115798161177c565b6001600160a01b0389166117fd565b6001600160a01b0387166117fd565b85610fe0565b9091506115ba57506001600160a01b0386163b15155b8780610fd8565b6001146115b3565b9091506020813d6020116115ee575b816115de60209383611798565b8101031261013957519085610f7f565b3d91506115d1565b60405163c7f1118d60e01b81526001600160a01b0391821660048201529085166024820152604490fd5b61163a91955060203d602011610caa57610c9b8183611798565b9385610f35565b61165b91925060203d602011610caa57610c9b8183611798565b9084610f05565b604051636705ec4760e11b81526001600160a01b03919091166004820152306024820152604490fd5b604051631a01026f60e01b81523360048201526001600160a01b03919091166024820152604490fd5b346101395760403660031901126101395760206101c36116d26116da565b600435611b80565b602435906001600160a01b038216820361013957565b600435906001600160a01b038216820361013957565b9181601f840112156101395782359167ffffffffffffffff8311610139576020838186019501011161013957565b6000546001600160a01b0316330361174857565b60405163118cdaa760e01b8152336004820152602490fd5b6060810190811067ffffffffffffffff821117610cd257604052565b6080810190811067ffffffffffffffff821117610cd257604052565b90601f8019910116810190811067ffffffffffffffff821117610cd257604052565b60405163a9059cbb60e01b60208201526001600160a01b039290921660248301526044808301939093529181526117fb916117f6606483611798565b6117fd565b565b906000602091828151910182855af115610214576000513d61185057506001600160a01b0381163b155b61182e5750565b604051635274afe760e01b81526001600160a01b039091166004820152602490fd5b60011415611827565b60026001541461186a576002600155565b604051633ee5aeb560e01b8152600490fd5b6040516020810181811067ffffffffffffffff821117610cd25760405260008152906000368137565b919082039182116101cb57565b906000198183098183029182808310920391808303921461192357620f42409082821115611910577fde8f6cefed634549b62c77574f722e1ac57e23f24d8fd5cb790fb65668c26139940990828211900360fa1b910360061c170290565b634e487b7160005260116020526024601cfd5b5050620f424091500490565b620f42409160001983830992808302928380861095039480860395146119c257848311156119a9579082910981600003821680920460028082600302188083028203028083028203028083028203028083028203028083028203028092029003029360018380600003040190848311900302920304170290565b82634e487b71600052156003026011186020526024601cfd5b5050809250156119d0570490565b634e487b7160e01b600052601260045260246000fd5b67ffffffffffffffff8111610cd257601f01601f191660200190565b929192611a0e826119e6565b91611a1c6040519384611798565b829481845281830111610139578281602093846000960137010152565b9081602091031261013957516001600160a01b03811681036101395790565b919082018092116101cb57565b60005b838110611a785750506000910152565b8181015183820152602001611a68565b90602091611aa181518092818552858086019101611a65565b601f01601f1916010190565b91909160405190611abd82611760565b60208201600081526040830191600083528395818110808652611b09575b505050815115611aff575050611af5906020830151611b5e565b1515604082015290565b6000905292915050565b611b12916118a5565b9052388080611adb565b919060405190611b2b82611760565b60208201600081526040830191600083528395808211808652611b0957505050815115611aff575050611af59060208301515b600191808211611b775790611b72916118a5565b111590565b611b72916118a5565b6040805163415c506960e01b8082529194936001600160a01b0316916020918281600481875afa908115611ced57600091611cc0575b5060009015611c2b57508190600487518095819382525afa948515611c215750600094611bee575b505091611beb919261192f565b90565b81813d8311611c1a575b611c028183611798565b81010312611c1657519250611beb38611bde565b8380fd5b503d611bf8565b513d6000823e3d90fd5b9282915091600492879596975193848092637aa7c3c160e01b82525afa938415611cb757508293611c6b575b5050509063ffffffff611beb92169061192f565b9080929350813d8311611cb0575b611c838183611798565b81010312611cac57519063ffffffff82168203611ca9575063ffffffff611beb38611c57565b80fd5b5080fd5b503d611c79565b513d84823e3d90fd5b908382813d8311611ce6575b611cd68183611798565b81010312611ca957505138611bb6565b503d611ccc565b87513d6000823e3d90fdfea2646970667358221220ef1fc1591fefd9a5b67ee139fdadaadd693d3c4dcb707d26a02d638ce88aa84664736f6c63430008140033",
  "libraries": {
    "OdosSwapLogic": "0x6F3902372976e91BBCA5F85914016fB74e9Da5EE"
  }
}