{
  "address": "0x793037226cA2a9e6C606Be5d78d84f565f82EE45",
  "abi": [
    {
      "inputs": [
        {
          "internalType": "contract IERC3156FlashLender",
          "name": "_flashLender",
          "type": "address"
        },
        {
          "internalType": "contract IOdosRouterV2",
          "name": "_odosRouter",
          "type": "address"
        }
      ],
      "stateMutability": "nonpayable",
      "type": "constructor"
    },
    {
      "inputs": [
        {
          "internalType": "uint256",
          "name": "currentCollateralTokenAmount",
          "type": "uint256"
        },
        {
          "internalType": "uint256",
          "name": "minOutputCollateralAmount",
          "type": "uint256"
        }
      ],
      "name": "EstimatedCollateralTokenAmountLessThanMinOutputCollateralAmount",
      "type": "error"
    },
    {
      "inputs": [
        {
          "internalType": "address",
          "name": "flashLender",
          "type": "address"
        },
        {
          "internalType": "address",
          "name": "debtToken",
          "type": "address"
        }
      ],
      "name": "FlashLenderNotSameAsDebtToken",
      "type": "error"
    },
    {
      "inputs": [
        {
          "internalType": "address",
          "name": "currentDebtToken",
          "type": "address"
        },
        {
          "internalType": "address",
          "name": "dLoopCoreDebtToken",
          "type": "address"
        }
      ],
      "name": "IncompatibleDLoopCoreDebtToken",
      "type": "error"
    },
    {
      "inputs": [
        {
          "internalType": "uint256",
          "name": "expected",
          "type": "uint256"
        },
        {
          "internalType": "uint256",
          "name": "actual",
          "type": "uint256"
        }
      ],
      "name": "IncorrectSharesBurned",
      "type": "error"
    },
    {
      "inputs": [
        {
          "internalType": "uint256",
          "name": "inputTokenBalanceBefore",
          "type": "uint256"
        },
        {
          "internalType": "uint256",
          "name": "inputTokenBalanceAfter",
          "type": "uint256"
        }
      ],
      "name": "InputTokenBalanceDoesNotDecreaseAfterSwap",
      "type": "error"
    },
    {
      "inputs": [
        {
          "internalType": "uint256",
          "name": "received",
          "type": "uint256"
        },
        {
          "internalType": "uint256",
          "name": "expected",
          "type": "uint256"
        }
      ],
      "name": "InsufficientOutput",
      "type": "error"
    },
    {
      "inputs": [
        {
          "internalType": "uint256",
          "name": "outputTokenBalanceBefore",
          "type": "uint256"
        },
        {
          "internalType": "uint256",
          "name": "outputTokenBalanceAfter",
          "type": "uint256"
        }
      ],
      "name": "OutputTokenBalanceNotIncreasedAfterSwap",
      "type": "error"
    },
    {
      "inputs": [
        {
          "internalType": "address",
          "name": "owner",
          "type": "address"
        }
      ],
      "name": "OwnableInvalidOwner",
      "type": "error"
    },
    {
      "inputs": [
        {
          "internalType": "address",
          "name": "account",
          "type": "address"
        }
      ],
      "name": "OwnableUnauthorizedAccount",
      "type": "error"
    },
    {
      "inputs": [
        {
          "internalType": "uint256",
          "name": "receivedOutputTokenAmount",
          "type": "uint256"
        },
        {
          "internalType": "uint256",
          "name": "amountOut",
          "type": "uint256"
        }
      ],
      "name": "ReceivedOutputTokenAmountNotEqualAmountOut",
      "type": "error"
    },
    {
      "inputs": [],
      "name": "ReentrancyGuardReentrantCall",
      "type": "error"
    },
    {
      "inputs": [
        {
          "internalType": "address",
          "name": "token",
          "type": "address"
        }
      ],
      "name": "SafeERC20FailedOperation",
      "type": "error"
    },
    {
      "inputs": [
        {
          "internalType": "uint256",
          "name": "sharesBeforeWithdraw",
          "type": "uint256"
        },
        {
          "internalType": "uint256",
          "name": "sharesAfterWithdraw",
          "type": "uint256"
        }
      ],
      "name": "SharesNotDecreasedAfterFlashLoan",
      "type": "error"
    },
    {
      "inputs": [
        {
          "internalType": "uint256",
          "name": "slippageBps",
          "type": "uint256"
        }
      ],
      "name": "SlippageBpsCannotExceedOneHundredPercent",
      "type": "error"
    },
    {
      "inputs": [
        {
          "internalType": "uint256",
          "name": "spentInputTokenAmount",
          "type": "uint256"
        },
        {
          "internalType": "uint256",
          "name": "amountInMaximum",
          "type": "uint256"
        }
      ],
      "name": "SpentInputTokenAmountGreaterThanAmountInMaximum",
      "type": "error"
    },
    {
      "inputs": [
        {
          "internalType": "uint256",
          "name": "spentInputTokenAmount",
          "type": "uint256"
        },
        {
          "internalType": "uint256",
          "name": "returnedAmountIn",
          "type": "uint256"
        }
      ],
      "name": "SpentInputTokenAmountNotEqualReturnedAmountIn",
      "type": "error"
    },
    {
      "inputs": [
        {
          "internalType": "uint256",
          "name": "collateralTokenBalanceBefore",
          "type": "uint256"
        },
        {
          "internalType": "uint256",
          "name": "collateralTokenBalanceAfter",
          "type": "uint256"
        }
      ],
      "name": "UnexpectedDecreaseInCollateralToken",
      "type": "error"
    },
    {
      "inputs": [
        {
          "internalType": "uint256",
          "name": "collateralTokenBalanceBefore",
          "type": "uint256"
        },
        {
          "internalType": "uint256",
          "name": "collateralTokenBalanceAfter",
          "type": "uint256"
        }
      ],
      "name": "UnexpectedDecreaseInCollateralTokenAfterFlashLoan",
      "type": "error"
    },
    {
      "inputs": [
        {
          "internalType": "uint256",
          "name": "debtTokenBalanceBefore",
          "type": "uint256"
        },
        {
          "internalType": "uint256",
          "name": "debtTokenBalanceAfter",
          "type": "uint256"
        }
      ],
      "name": "UnexpectedIncreaseInDebtToken",
      "type": "error"
    },
    {
      "inputs": [
        {
          "internalType": "address",
          "name": "initiator",
          "type": "address"
        },
        {
          "internalType": "address",
          "name": "thisContract",
          "type": "address"
        }
      ],
      "name": "UnknownInitiator",
      "type": "error"
    },
    {
      "inputs": [
        {
          "internalType": "address",
          "name": "msgSender",
          "type": "address"
        },
        {
          "internalType": "address",
          "name": "flashLender",
          "type": "address"
        }
      ],
      "name": "UnknownLender",
      "type": "error"
    },
    {
      "inputs": [
        {
          "internalType": "uint256",
          "name": "withdrawnCollateralTokenAmount",
          "type": "uint256"
        },
        {
          "internalType": "uint256",
          "name": "minReceiveCollateralTokenAmount",
          "type": "uint256"
        }
      ],
      "name": "WithdrawnCollateralTokenAmountNotMetMinReceiveAmount",
      "type": "error"
    },
    {
      "anonymous": false,
      "inputs": [
        {
          "indexed": true,
          "internalType": "address",
          "name": "collateralToken",
          "type": "address"
        },
        {
          "indexed": false,
          "internalType": "uint256",
          "name": "amount",
          "type": "uint256"
        },
        {
          "indexed": true,
          "internalType": "address",
          "name": "receiver",
          "type": "address"
        }
      ],
      "name": "LeftoverCollateralTokensTransferred",
      "type": "event"
    },
    {
      "anonymous": false,
      "inputs": [
        {
          "indexed": true,
          "internalType": "address",
          "name": "debtToken",
          "type": "address"
        },
        {
          "indexed": false,
          "internalType": "uint256",
          "name": "amount",
          "type": "uint256"
        },
        {
          "indexed": true,
          "internalType": "address",
          "name": "receiver",
          "type": "address"
        }
      ],
      "name": "LeftoverDebtTokensTransferred",
      "type": "event"
    },
    {
      "anonymous": false,
      "inputs": [
        {
          "indexed": true,
          "internalType": "address",
          "name": "previousOwner",
          "type": "address"
        },
        {
          "indexed": true,
          "internalType": "address",
          "name": "newOwner",
          "type": "address"
        }
      ],
      "name": "OwnershipTransferred",
      "type": "event"
    },
    {
      "inputs": [],
      "name": "BALANCE_DIFF_TOLERANCE",
      "outputs": [
        {
          "internalType": "uint256",
          "name": "",
          "type": "uint256"
        }
      ],
      "stateMutability": "view",
      "type": "function"
    },
    {
      "inputs": [],
      "name": "FLASHLOAN_CALLBACK",
      "outputs": [
        {
          "internalType": "bytes32",
          "name": "",
          "type": "bytes32"
        }
      ],
      "stateMutability": "view",
      "type": "function"
    },
    {
      "inputs": [
        {
          "internalType": "uint256",
          "name": "shares",
          "type": "uint256"
        },
        {
          "internalType": "uint256",
          "name": "slippageBps",
          "type": "uint256"
        },
        {
          "internalType": "contract DLoopCoreBase",
          "name": "dLoopCore",
          "type": "address"
        }
      ],
      "name": "calculateMinOutputCollateral",
      "outputs": [
        {
          "internalType": "uint256",
          "name": "",
          "type": "uint256"
        }
      ],
      "stateMutability": "view",
      "type": "function"
    },
    {
      "inputs": [
        {
          "internalType": "uint256",
          "name": "shares",
          "type": "uint256"
        },
        {
          "internalType": "contract DLoopCoreBase",
          "name": "dLoopCore",
          "type": "address"
        }
      ],
      "name": "estimateFlashLoanSwapOutputDebtAmount",
      "outputs": [
        {
          "internalType": "uint256",
          "name": "",
          "type": "uint256"
        }
      ],
      "stateMutability": "view",
      "type": "function"
    },
    {
      "inputs": [],
      "name": "flashLender",
      "outputs": [
        {
          "internalType": "contract IERC3156FlashLender",
          "name": "",
          "type": "address"
        }
      ],
      "stateMutability": "view",
      "type": "function"
    },
    {
      "inputs": [],
      "name": "getRestrictedRescueTokens",
      "outputs": [
        {
          "internalType": "address[]",
          "name": "restrictedTokens",
          "type": "address[]"
        }
      ],
      "stateMutability": "view",
      "type": "function"
    },
    {
      "inputs": [
        {
          "internalType": "uint256",
          "name": "leveragedAssets",
          "type": "uint256"
        },
        {
          "internalType": "contract DLoopCoreBase",
          "name": "dLoopCore",
          "type": "address"
        }
      ],
      "name": "getUnleveragedAssets",
      "outputs": [
        {
          "internalType": "uint256",
          "name": "",
          "type": "uint256"
        }
      ],
      "stateMutability": "view",
      "type": "function"
    },
    {
      "inputs": [],
      "name": "odosRouter",
      "outputs": [
        {
          "internalType": "contract IOdosRouterV2",
          "name": "",
          "type": "address"
        }
      ],
      "stateMutability": "view",
      "type": "function"
    },
    {
      "inputs": [
        {
          "internalType": "address",
          "name": "initiator",
          "type": "address"
        },
        {
          "internalType": "address",
          "name": "token",
          "type": "address"
        },
        {
          "internalType": "uint256",
          "name": "",
          "type": "uint256"
        },
        {
          "internalType": "uint256",
          "name": "flashLoanFee",
          "type": "uint256"
        },
        {
          "internalType": "bytes",
          "name": "data",
          "type": "bytes"
        }
      ],
      "name": "onFlashLoan",
      "outputs": [
        {
          "internalType": "bytes32",
          "name": "",
          "type": "bytes32"
        }
      ],
      "stateMutability": "nonpayable",
      "type": "function"
    },
    {
      "inputs": [],
      "name": "owner",
      "outputs": [
        {
          "internalType": "address",
          "name": "",
          "type": "address"
        }
      ],
      "stateMutability": "view",
      "type": "function"
    },
    {
      "inputs": [
        {
          "internalType": "uint256",
          "name": "shares",
          "type": "uint256"
        },
        {
          "internalType": "address",
          "name": "receiver",
          "type": "address"
        },
        {
          "internalType": "uint256",
          "name": "minOutputCollateralAmount",
          "type": "uint256"
        },
        {
          "internalType": "bytes",
          "name": "collateralToDebtTokenSwapData",
          "type": "bytes"
        },
        {
          "internalType": "contract DLoopCoreBase",
          "name": "dLoopCore",
          "type": "address"
        }
      ],
      "name": "redeem",
      "outputs": [
        {
          "internalType": "uint256",
          "name": "assets",
          "type": "uint256"
        }
      ],
      "stateMutability": "nonpayable",
      "type": "function"
    },
    {
      "inputs": [],
      "name": "renounceOwnership",
      "outputs": [],
      "stateMutability": "nonpayable",
      "type": "function"
    },
    {
      "inputs": [
        {
          "internalType": "address",
          "name": "token",
          "type": "address"
        },
        {
          "internalType": "address",
          "name": "receiver",
          "type": "address"
        },
        {
          "internalType": "uint256",
          "name": "amount",
          "type": "uint256"
        }
      ],
      "name": "rescueToken",
      "outputs": [],
      "stateMutability": "nonpayable",
      "type": "function"
    },
    {
      "inputs": [
        {
          "internalType": "uint256",
          "name": "expectedOutputAmount",
          "type": "uint256"
        }
      ],
      "name": "swappedOutputDifferenceToleranceAmount",
      "outputs": [
        {
          "internalType": "uint256",
          "name": "",
          "type": "uint256"
        }
      ],
      "stateMutability": "pure",
      "type": "function"
    },
    {
      "inputs": [
        {
          "internalType": "address",
          "name": "newOwner",
          "type": "address"
        }
      ],
      "name": "transferOwnership",
      "outputs": [],
      "stateMutability": "nonpayable",
      "type": "function"
    }
  ],
  "transactionHash": "0x3a12256b9193d100b64a89c2d8b5fc8916ca42f41ad68cce3a694a166d17fabf",
  "args": [
    "0x53a6aBb52B2F968fA80dF6A894e4f1b1020DA975",
    "0xaC041Df48dF9791B0654f1Dbbf2CC8450C5f2e9D"
  ],
  "numDeployments": 1,
  "solcInputHash": "f9873e034d6a4e069dec40f85f6362ea",
  "bytecode": "0x60c03461012557601f6200250c38819003918201601f19168301916001600160401b0383118484101761012a5780849260409485528339810103126101255780516001600160a01b03918282168203610125576020015190828216820361012557331561010c576000543360018060a01b0319821617600055604051933391167f8be0079c531659141344cd1fd0a4f28419497f9722a3daafe3b4186f6b6457e0600080a36001805560805260a0526123cb90816200014182396080518181816106230152818161098101528181610a1801528181610a7801528181610aea01528181610b5e01528181610ed101528181610f1501526111ea015260a0518181816106ad01526115f70152f35b604051631e4fbdf760e01b815260006004820152602490fd5b600080fd5b634e487b7160e01b600052604160045260246000fdfe6080604052600436101561001257600080fd5b60003560e01c80630a4fdcde14611bc457806323e30c8b146111a25780632ae1810414611167578063500fc4341461110257806357ae0a7214610735578063715018a6146106dc5780638321928d146106975780638da5cb5b1461066e5780639d00f10814610652578063a77144581461060d578063a94067e11461033c578063aee5ae6a1461031e578063e5711e8b1461024f578063e7a41486146101545763f2fde38b146100c157600080fd5b3461014f57602036600319011261014f576100da611c00565b6100e2611c44565b6001600160a01b0390811690811561013657600054826bffffffffffffffffffffffff60a01b821617600055167f8be0079c531659141344cd1fd0a4f28419497f9722a3daafe3b4186f6b6457e0600080a3005b604051631e4fbdf760e01b815260006004820152602490fd5b600080fd5b3461014f57606036600319011261014f576044356001600160a01b038116906024359082810361014f57620f424092838311610236579060206024926040519384809263266d6a8360e11b825260043560048301525afa801561022a576000906101f7575b6101c39250612139565b9082039182116101e1576020916101d991611de2565b604051908152f35b634e487b7160e01b600052601160045260246000fd5b506020823d8211610222575b8161021060209383611ca8565b8101031261014f576101c391516101b9565b3d9150610203565b6040513d6000823e3d90fd5b60405163103b7d4960e11b815260048101849052602490fd5b3461014f57606036600319011261014f57610268611c00565b610270611bea565b90610279611c44565b610281611d69565b610289611d8c565b906001600160a01b039081169060005b835181101561030b57602082818360051b870101511684146102c7575060001981146101e157600101610299565b6064906040519062461bcd60e51b82526004820152601e60248201527f43616e6e6f7420726573637565207265737472696374656420746f6b656e00006044820152fd5b6103186044358685611cca565b60018055005b3461014f57602036600319011261014f5760206101d9600435612378565b3461014f57604036600319011261014f576001600160a01b038061035e611bea565b166040519063266d6a8360e11b825260043560048301526020928383602481855afa92831561022a576000936105de575b5060405163415c506960e01b8152928484600481865afa93841561022a576000946105af575b50604051632c805af560e21b8152908582600481875afa91821561022a57600092610590575b50604051631f1b131360e31b81528681600481885afa92831561022a578491600094610561575b5016946040519363313ce56760e01b9081865288866004818b5afa95861561022a57600096610542575b50604051946363880e0960e11b98898752600487015289866024818b5afa95861561022a57600096610513575b50166040519182528882600481845afa97881561022a5789926000996104e1575b506024906040519889938492835260048301525afa94851561022a576000956104af575b5060ff806101d99716941691612317565b9594508686813d83116104da575b6104c78183611ca8565b8101031261014f579451939460ff61049e565b503d6104bd565b602491995061050590843d861161050c575b6104fd8183611ca8565b8101906122fe565b989061047a565b503d6104f3565b9095508981813d831161053b575b61052b8183611ca8565b8101031261014f5751948a610459565b503d610521565b61055a919650893d8b1161050c576104fd8183611ca8565b948961042c565b610582919450883d8a11610589575b61057a8183611ca8565b810190611f79565b9288610402565b503d610570565b6105a8919250863d88116105895761057a8183611ca8565b90866103db565b9093508481813d83116105d7575b6105c78183611ca8565b8101031261014f575192856103b5565b503d6105bd565b9092508381813d8311610606575b6105f68183611ca8565b8101031261014f5751918461038f565b503d6105ec565b3461014f57600036600319011261014f576040517f00000000000000000000000000000000000000000000000000000000000000006001600160a01b03168152602090f35b3461014f57600036600319011261014f57602060405160018152f35b3461014f57600036600319011261014f576000546040516001600160a01b039091168152602090f35b3461014f57600036600319011261014f576040517f00000000000000000000000000000000000000000000000000000000000000006001600160a01b03168152602090f35b3461014f57600036600319011261014f576106f5611c44565b600080546001600160a01b0319811682556001600160a01b03167f8be0079c531659141344cd1fd0a4f28419497f9722a3daafe3b4186f6b6457e08280a3005b3461014f5760a036600319011261014f5761074e611bea565b60643567ffffffffffffffff811161014f5761076e903690600401611c16565b608435929091906001600160a01b038416840361014f5761078d611d69565b604051632c805af560e21b8152936020856004816001600160a01b0385165afa94851561022a576000956110e1575b50604051631f1b131360e31b8152906020826004816001600160a01b0385165afa91821561022a576000926110c0575b506107f5611f98565b946107fe611f98565b6001600160a01b0388168088526040516370a0823160e01b815230600482015291969190602090829060249082905afa90811561022a5760009161108e575b506020888101919091526001600160a01b0385168088526040516370a0823160e01b81523060048201529190829060249082905afa90811561022a5760009161105c575b5060208701526040516323b872dd60e01b60208201523360248201523060448201526004356064820152606481528060a081011067ffffffffffffffff60a0830111176110465760a0810160405261095591610903916108ea906001600160a01b038716611d0d565b604051936108f785611c70565b60043585523691611fd3565b9182602082015260018060a01b038416604082015251610938604051938492602084015260606040840152608083019061203a565b6001600160a01b038516606083015203601f198101835282611ca8565b60405163613255ab60e01b81526001600160a01b038481166004830152909190602090839060249082907f0000000000000000000000000000000000000000000000000000000000000000165afa91821561022a57600092611012575b506040516370a0823160e01b8152306004820152916020836024816001600160a01b0388165afa92831561022a57600093610fde575b50604051633676633960e21b81526001600160a01b038616600482015260248101829052602081806044810103817f00000000000000000000000000000000000000000000000000000000000000006001600160a01b03165afa801561022a57600090610faa575b610a5b91508261200a565b60405163095ea7b360e01b60208083019182526001600160a01b037f0000000000000000000000000000000000000000000000000000000000000000166024840152604480840194909452928252909190600090610aba606485611ca8565b835190826001600160a01b038b165af16000513d82610f85575b505015610f03575b506001600160a01b038581167f000000000000000000000000000000000000000000000000000000000000000090911603610eba57604051632e7ff4ef60e11b81523060048201526001600160a01b03861660248201526044810191909152608060648201529060209082908190610b5890608483019061203a565b038160007f00000000000000000000000000000000000000000000000000000000000000006001600160a01b03165af1801561022a57610e82575b506040516370a0823160e01b815230600482015291602090839060249082906001600160a01b03165afa91821561022a57600092610e4e575b5080821015610e315790610bdf91611db5565b6004358103610e1157506040516370a0823160e01b81523060048201529394602090859060249082906001600160a01b03165afa93841561022a57600094610ddc575b506040858101948552516370a0823160e01b815230600482015290602090829060249082906001600160a01b03165afa90811561022a57600091610daa575b506040830152825160208501519081811115610d8c575050610c898351602086015190611db5565b92604435808510610d6e5750610c9f82866122ae565b90919015610d4a575093516040519485526020946001600160a01b038381169216907f21fa991d1ca60543187d2a0de62e5ea0ce1a703a3f0021354ae2f9a75dc0e34d908790a3610cf081836122ae565b929092610d07575b50505060018055604051908152f35b516040519283526001600160a01b03918216929116907f858a27e141780954fe5d38ba55127b6c35f8f5904c3a088438a18578d5d71eee908590a3828080610cf8565b6044906020870151905160405191639b4a973b60e01b835260048301526024820152fd5b84604491604051916347247e7760e11b835260048301526024820152fd5b6044925060405191637506a25d60e11b835260048301526024820152fd5b90506020813d602011610dd4575b81610dc560209383611ca8565b8101031261014f575185610c61565b3d9150610db8565b9093506020813d602011610e09575b81610df860209383611ca8565b8101031261014f5751926020610c22565b3d9150610deb565b604490604051906302d753ed60e61b825260043560048301526024820152fd5b60449160405191632b9e770560e11b835260048301526024820152fd5b9091506020813d602011610e7a575b81610e6a60209383611ca8565b8101031261014f57519087610bcc565b3d9150610e5d565b6020813d602011610eb2575b81610e9b60209383611ca8565b8101031261014f57518015150361014f5787610b93565b3d9150610e8e565b60405163aaae67a160e01b81526001600160a01b037f00000000000000000000000000000000000000000000000000000000000000008116600483015286166024820152604490fd5b60405163095ea7b360e01b60208201527f00000000000000000000000000000000000000000000000000000000000000006001600160a01b0316602482015260006044808301919091528152610f7f9190610f7090610f6181611c8c565b6001600160a01b038916611d0d565b6001600160a01b038716611d0d565b89610adc565b909150610fa257506001600160a01b0386163b15155b8b80610ad4565b600114610f9b565b506020813d602011610fd6575b81610fc460209383611ca8565b8101031261014f57610a5b9051610a50565b3d9150610fb7565b9092506020813d60201161100a575b81610ffa60209383611ca8565b8101031261014f575191896109e8565b3d9150610fed565b9091506020813d60201161103e575b8161102e60209383611ca8565b8101031261014f575190886109b2565b3d9150611021565b634e487b7160e01b600052604160045260246000fd5b90506020813d602011611086575b8161107760209383611ca8565b8101031261014f575189610881565b3d915061106a565b90506020813d6020116110b8575b816110a960209383611ca8565b8101031261014f57518961083d565b3d915061109c565b6110da91925060203d6020116105895761057a8183611ca8565b90866107ec565b6110fb91955060203d6020116105895761057a8183611ca8565b93856107bc565b3461014f57600036600319011261014f5761111b611d8c565b604051809160208083018184528251809152816040850193019160005b82811061114757505050500390f35b83516001600160a01b031685528695509381019392810192600101611138565b3461014f57600036600319011261014f5760206040517f439148f0bbc682ca079e46d6e2c2f0c1e3b820f1a291b069d8882abf8cf18dd98152f35b3461014f5760a036600319011261014f576111bb611c00565b6111c3611bea565b9067ffffffffffffffff9060843582811161014f576111e6903690600401611c16565b90917f00000000000000000000000000000000000000000000000000000000000000006001600160a01b031633819003611b9b5750306001600160a01b03821603611b72575090611238913691611fd3565b6040519161124583611c70565b600083526060602084015260408301916000835280518101906060816020840193031261014f57602081015192604082015190811161014f5781019082603f8301121561014f5760208201519161129b83611fb7565b936112a96040519586611ca8565b8385526040848301011161014f576060926112cb916040602087019101612017565b0151926001600160a01b038416840361014f576001600160a01b03841690819052602085810192909252918452604051632c805af560e21b81529291839060049082905afa91821561022a57600092611b51575b50604051631f1b131360e31b8152936020856004816001600160a01b0386165afa94851561022a57600095611b30575b506001600160a01b0385811690821603611b0657506040516370a0823160e01b8152306004820152906020826024816001600160a01b0389165afa91821561022a57600092611ad2575b5060405163095ea7b360e01b60208201526001600160a01b038216602482015260001960448083019190915281526113d081611c8c565b8051602090600090838301826001600160a01b038b165af16000513d82611aad575b505015611a69575b508351604051635d043b2960e11b815260048101919091523060248201819052604482015260208160648160006001600160a01b0387165af1801561022a57611a3e575b5060405163095ea7b360e01b60208083019182526001600160a01b0384166024840152600060448085018290528452909161147884611c8c565b835190826001600160a01b038b165af16000513d82611a19575b5050156119b6575b50506040516370a0823160e01b81523060048201526020816024816001600160a01b0389165afa90811561022a57600091611984575b50818111611966576020916114eb6114f09260643592611db5565b61200a565b9201516040516370a0823160e01b81523060048201529091906020816024816001600160a01b0386165afa90811561022a57600091611934575b506040516370a0823160e01b8152306004820152926020846024816001600160a01b038a165afa93841561022a57600094611900575b506040516370a0823160e01b8152306004820152906020826024816001600160a01b0388165afa91821561022a576000926118cb575b506040516304ecaec960e31b81526001600160a01b038581166004830152881660248201526044810187905260001960648201523060848201524260a482015261010060c482015290602090829081906115f59061010483019061203a565b7f00000000000000000000000000000000000000000000000000000000000000006001600160a01b031660e4830152038173555cD8Ab1933a97D26821823693F974abe144Cf25af4801561022a576118a0575b506040516370a0823160e01b8152306004820152906020826024816001600160a01b0388165afa91821561022a5760009261186c575b508082101561184f5761169660249392602092611db5565b6040516370a0823160e01b815230600482015290949093849182906001600160a01b03165afa91821561022a57600092611818575b506040516370a0823160e01b815230600482015295602090879060249082906001600160a01b03165afa95861561022a576000966117e2575b5061171091839161205f565b80516117b6575b505061172282612378565b600101806001116101e157611739908385846120b7565b928351156117995750506040820151156117775760206040517f439148f0bbc682ca079e46d6e2c2f0c1e3b820f1a291b069d8882abf8cf18dd98152f35b602060449201519060405191638919e25360e01b835260048301526024820152fd5b60449250604051916204bb6760e81b835260048301526024820152fd5b60408101516117175790602060449201519060405191637654e04760e11b835260048301526024820152fd5b9095506020813d602011611810575b816117fe60209383611ca8565b8101031261014f575194611710611704565b3d91506117f1565b9591506020863d602011611847575b8161183460209383611ca8565b8101031261014f579451909460206116cb565b3d9150611827565b6044916040519163b9a3476560e01b835260048301526024820152fd5b9091506020813d602011611898575b8161188860209383611ca8565b8101031261014f5751908761167e565b3d915061187b565b602090813d83116118c4575b6118b68183611ca8565b8101031261014f5786611648565b503d6118ac565b9091506020813d6020116118f8575b816118e760209383611ca8565b8101031261014f5751906020611596565b3d91506118da565b9093506020813d60201161192c575b8161191c60209383611ca8565b8101031261014f57519286611560565b3d915061190f565b90506020813d60201161195e575b8161194f60209383611ca8565b8101031261014f57518561152a565b3d9150611942565b604492506040519163a40ed01360e01b835260048301526024820152fd5b90506020813d6020116119ae575b8161199f60209383611ca8565b8101031261014f5751856114d0565b3d9150611992565b60405163095ea7b360e01b60208201526001600160a01b03909216602483015260006044808401919091528252611a1291611a03906119f481611c8c565b6001600160a01b038816611d0d565b6001600160a01b038616611d0d565b848061149a565b909150611a3657506001600160a01b0386163b15155b8780611492565b600114611a2f565b602090813d8311611a62575b611a548183611ca8565b8101031261014f578561143e565b503d611a4a565b60405163095ea7b360e01b60208201526001600160a01b038316602482015260006044808301919091528152611aa79190610f7090610f6181611c8c565b856113fa565b909150611aca57506001600160a01b0386163b15155b87806113f2565b600114611ac3565b9091506020813d602011611afe575b81611aee60209383611ca8565b8101031261014f57519085611399565b3d9150611ae1565b60405163c7f1118d60e01b81526001600160a01b0391821660048201529085166024820152604490fd5b611b4a91955060203d6020116105895761057a8183611ca8565b938561134f565b611b6b91925060203d6020116105895761057a8183611ca8565b908461131f565b604051636705ec4760e11b81526001600160a01b03919091166004820152306024820152604490fd5b604051631a01026f60e01b81523360048201526001600160a01b03919091166024820152604490fd5b3461014f57604036600319011261014f5760206101d9611be2611bea565b600435612139565b602435906001600160a01b038216820361014f57565b600435906001600160a01b038216820361014f57565b9181601f8401121561014f5782359167ffffffffffffffff831161014f576020838186019501011161014f57565b6000546001600160a01b03163303611c5857565b60405163118cdaa760e01b8152336004820152602490fd5b6060810190811067ffffffffffffffff82111761104657604052565b6080810190811067ffffffffffffffff82111761104657604052565b90601f8019910116810190811067ffffffffffffffff82111761104657604052565b60405163a9059cbb60e01b60208201526001600160a01b03929092166024830152604480830193909352918152611d0b91611d06606483611ca8565b611d0d565b565b906000602091828151910182855af11561022a576000513d611d6057506001600160a01b0381163b155b611d3e5750565b604051635274afe760e01b81526001600160a01b039091166004820152602490fd5b60011415611d37565b600260015414611d7a576002600155565b604051633ee5aeb560e01b8152600490fd5b6040516020810181811067ffffffffffffffff8211176110465760405260008152906000368137565b919082039182116101e157565b8115611dcc570490565b634e487b7160e01b600052601260045260246000fd5b9060001981830981830291828083109203918083039214611e5357620f42409082821115611e40577fde8f6cefed634549b62c77574f722e1ac57e23f24d8fd5cb790fb65668c26139940990828211900360fa1b910360061c170290565b634e487b7160005260116020526024601cfd5b5050620f424091500490565b620f4240916000198383099280830292838086109503948086039514611ef25784831115611ed9579082910981600003821680920460028082600302188083028203028083028203028083028203028083028203028083028203028092029003029360018380600003040190848311900302920304170290565b82634e487b71600052156003026011186020526024601cfd5b505090611eff9250611dc2565b90565b90916000198383099280830292838086109503948086039514611ef25784831115611ed9579082910981600003821680920460028082600302188083028203028083028203028083028203028083028203028083028203028092029003029360018380600003040190848311900302920304170290565b9081602091031261014f57516001600160a01b038116810361014f5790565b60405190611fa582611c70565b60006040838281528260208201520152565b67ffffffffffffffff811161104657601f01601f191660200190565b929192611fdf82611fb7565b91611fed6040519384611ca8565b82948184528183011161014f578281602093846000960137010152565b919082018092116101e157565b60005b83811061202a5750506000910152565b818101518382015260200161201a565b9060209161205381518092818552858086019101612017565b601f01601f1916010190565b91909161206a611f98565b928181108085526120a2575b50508151156120975761208d906020830151612105565b1515604082015290565b506000604082015290565b6120ab91611db5565b60208301523880612076565b92906120c1611f98565b938082118086526120f0575b50508251156120e45761208d916020840151612127565b50506000604082015290565b6120f991611db5565b602084015238806120cd565b60019180821161211e579061211991611db5565b111590565b61211991611db5565b9080821161211e579061211991611db5565b6040805163415c506960e01b8082529194936001600160a01b0316916020918281600481875afa9081156122a357600091612276575b50600090156121e157508190600487518095819382525afa9485156121d757506000946121a4575b505091611eff9192611e5f565b81813d83116121d0575b6121b88183611ca8565b810103126121cc57519250611eff38612197565b8380fd5b503d6121ae565b513d6000823e3d90fd5b9282915091600492879596975193848092637aa7c3c160e01b82525afa93841561226d57508293612221575b5050509063ffffffff611eff921690611e5f565b9080929350813d8311612266575b6122398183611ca8565b8101031261226257519063ffffffff8216820361225f575063ffffffff611eff3861220d565b80fd5b5080fd5b503d61222f565b513d84823e3d90fd5b908382813d831161229c575b61228c8183611ca8565b8101031261225f5750513861216f565b503d612282565b87513d6000823e3d90fd5b6040810151602082015181039081111593929084029184806122f5575b6122dc575050509050600090600090565b516122f19183916001600160a01b0316611cca565b9190565b508215156122cb565b9081602091031261014f575160ff8116810361014f5790565b90949392851561235f5761232d6123339361236a565b91611f02565b620f423f198401908482116101e157611eff946123599261235392611f02565b9161236a565b90611f02565b505050505050600090565b604d81116101e157600a0a90565b612710908181029181830414901517156101e157620f424090049056fea2646970667358221220c59aec234e84045fff2a2537931e1632537b6fe7abb1c229cb519b1d6188603264736f6c63430008140033",
  "deployedBytecode": "0x6080604052600436101561001257600080fd5b60003560e01c80630a4fdcde14611bc457806323e30c8b146111a25780632ae1810414611167578063500fc4341461110257806357ae0a7214610735578063715018a6146106dc5780638321928d146106975780638da5cb5b1461066e5780639d00f10814610652578063a77144581461060d578063a94067e11461033c578063aee5ae6a1461031e578063e5711e8b1461024f578063e7a41486146101545763f2fde38b146100c157600080fd5b3461014f57602036600319011261014f576100da611c00565b6100e2611c44565b6001600160a01b0390811690811561013657600054826bffffffffffffffffffffffff60a01b821617600055167f8be0079c531659141344cd1fd0a4f28419497f9722a3daafe3b4186f6b6457e0600080a3005b604051631e4fbdf760e01b815260006004820152602490fd5b600080fd5b3461014f57606036600319011261014f576044356001600160a01b038116906024359082810361014f57620f424092838311610236579060206024926040519384809263266d6a8360e11b825260043560048301525afa801561022a576000906101f7575b6101c39250612139565b9082039182116101e1576020916101d991611de2565b604051908152f35b634e487b7160e01b600052601160045260246000fd5b506020823d8211610222575b8161021060209383611ca8565b8101031261014f576101c391516101b9565b3d9150610203565b6040513d6000823e3d90fd5b60405163103b7d4960e11b815260048101849052602490fd5b3461014f57606036600319011261014f57610268611c00565b610270611bea565b90610279611c44565b610281611d69565b610289611d8c565b906001600160a01b039081169060005b835181101561030b57602082818360051b870101511684146102c7575060001981146101e157600101610299565b6064906040519062461bcd60e51b82526004820152601e60248201527f43616e6e6f7420726573637565207265737472696374656420746f6b656e00006044820152fd5b6103186044358685611cca565b60018055005b3461014f57602036600319011261014f5760206101d9600435612378565b3461014f57604036600319011261014f576001600160a01b038061035e611bea565b166040519063266d6a8360e11b825260043560048301526020928383602481855afa92831561022a576000936105de575b5060405163415c506960e01b8152928484600481865afa93841561022a576000946105af575b50604051632c805af560e21b8152908582600481875afa91821561022a57600092610590575b50604051631f1b131360e31b81528681600481885afa92831561022a578491600094610561575b5016946040519363313ce56760e01b9081865288866004818b5afa95861561022a57600096610542575b50604051946363880e0960e11b98898752600487015289866024818b5afa95861561022a57600096610513575b50166040519182528882600481845afa97881561022a5789926000996104e1575b506024906040519889938492835260048301525afa94851561022a576000956104af575b5060ff806101d99716941691612317565b9594508686813d83116104da575b6104c78183611ca8565b8101031261014f579451939460ff61049e565b503d6104bd565b602491995061050590843d861161050c575b6104fd8183611ca8565b8101906122fe565b989061047a565b503d6104f3565b9095508981813d831161053b575b61052b8183611ca8565b8101031261014f5751948a610459565b503d610521565b61055a919650893d8b1161050c576104fd8183611ca8565b948961042c565b610582919450883d8a11610589575b61057a8183611ca8565b810190611f79565b9288610402565b503d610570565b6105a8919250863d88116105895761057a8183611ca8565b90866103db565b9093508481813d83116105d7575b6105c78183611ca8565b8101031261014f575192856103b5565b503d6105bd565b9092508381813d8311610606575b6105f68183611ca8565b8101031261014f5751918461038f565b503d6105ec565b3461014f57600036600319011261014f576040517f00000000000000000000000000000000000000000000000000000000000000006001600160a01b03168152602090f35b3461014f57600036600319011261014f57602060405160018152f35b3461014f57600036600319011261014f576000546040516001600160a01b039091168152602090f35b3461014f57600036600319011261014f576040517f00000000000000000000000000000000000000000000000000000000000000006001600160a01b03168152602090f35b3461014f57600036600319011261014f576106f5611c44565b600080546001600160a01b0319811682556001600160a01b03167f8be0079c531659141344cd1fd0a4f28419497f9722a3daafe3b4186f6b6457e08280a3005b3461014f5760a036600319011261014f5761074e611bea565b60643567ffffffffffffffff811161014f5761076e903690600401611c16565b608435929091906001600160a01b038416840361014f5761078d611d69565b604051632c805af560e21b8152936020856004816001600160a01b0385165afa94851561022a576000956110e1575b50604051631f1b131360e31b8152906020826004816001600160a01b0385165afa91821561022a576000926110c0575b506107f5611f98565b946107fe611f98565b6001600160a01b0388168088526040516370a0823160e01b815230600482015291969190602090829060249082905afa90811561022a5760009161108e575b506020888101919091526001600160a01b0385168088526040516370a0823160e01b81523060048201529190829060249082905afa90811561022a5760009161105c575b5060208701526040516323b872dd60e01b60208201523360248201523060448201526004356064820152606481528060a081011067ffffffffffffffff60a0830111176110465760a0810160405261095591610903916108ea906001600160a01b038716611d0d565b604051936108f785611c70565b60043585523691611fd3565b9182602082015260018060a01b038416604082015251610938604051938492602084015260606040840152608083019061203a565b6001600160a01b038516606083015203601f198101835282611ca8565b60405163613255ab60e01b81526001600160a01b038481166004830152909190602090839060249082907f0000000000000000000000000000000000000000000000000000000000000000165afa91821561022a57600092611012575b506040516370a0823160e01b8152306004820152916020836024816001600160a01b0388165afa92831561022a57600093610fde575b50604051633676633960e21b81526001600160a01b038616600482015260248101829052602081806044810103817f00000000000000000000000000000000000000000000000000000000000000006001600160a01b03165afa801561022a57600090610faa575b610a5b91508261200a565b60405163095ea7b360e01b60208083019182526001600160a01b037f0000000000000000000000000000000000000000000000000000000000000000166024840152604480840194909452928252909190600090610aba606485611ca8565b835190826001600160a01b038b165af16000513d82610f85575b505015610f03575b506001600160a01b038581167f000000000000000000000000000000000000000000000000000000000000000090911603610eba57604051632e7ff4ef60e11b81523060048201526001600160a01b03861660248201526044810191909152608060648201529060209082908190610b5890608483019061203a565b038160007f00000000000000000000000000000000000000000000000000000000000000006001600160a01b03165af1801561022a57610e82575b506040516370a0823160e01b815230600482015291602090839060249082906001600160a01b03165afa91821561022a57600092610e4e575b5080821015610e315790610bdf91611db5565b6004358103610e1157506040516370a0823160e01b81523060048201529394602090859060249082906001600160a01b03165afa93841561022a57600094610ddc575b506040858101948552516370a0823160e01b815230600482015290602090829060249082906001600160a01b03165afa90811561022a57600091610daa575b506040830152825160208501519081811115610d8c575050610c898351602086015190611db5565b92604435808510610d6e5750610c9f82866122ae565b90919015610d4a575093516040519485526020946001600160a01b038381169216907f21fa991d1ca60543187d2a0de62e5ea0ce1a703a3f0021354ae2f9a75dc0e34d908790a3610cf081836122ae565b929092610d07575b50505060018055604051908152f35b516040519283526001600160a01b03918216929116907f858a27e141780954fe5d38ba55127b6c35f8f5904c3a088438a18578d5d71eee908590a3828080610cf8565b6044906020870151905160405191639b4a973b60e01b835260048301526024820152fd5b84604491604051916347247e7760e11b835260048301526024820152fd5b6044925060405191637506a25d60e11b835260048301526024820152fd5b90506020813d602011610dd4575b81610dc560209383611ca8565b8101031261014f575185610c61565b3d9150610db8565b9093506020813d602011610e09575b81610df860209383611ca8565b8101031261014f5751926020610c22565b3d9150610deb565b604490604051906302d753ed60e61b825260043560048301526024820152fd5b60449160405191632b9e770560e11b835260048301526024820152fd5b9091506020813d602011610e7a575b81610e6a60209383611ca8565b8101031261014f57519087610bcc565b3d9150610e5d565b6020813d602011610eb2575b81610e9b60209383611ca8565b8101031261014f57518015150361014f5787610b93565b3d9150610e8e565b60405163aaae67a160e01b81526001600160a01b037f00000000000000000000000000000000000000000000000000000000000000008116600483015286166024820152604490fd5b60405163095ea7b360e01b60208201527f00000000000000000000000000000000000000000000000000000000000000006001600160a01b0316602482015260006044808301919091528152610f7f9190610f7090610f6181611c8c565b6001600160a01b038916611d0d565b6001600160a01b038716611d0d565b89610adc565b909150610fa257506001600160a01b0386163b15155b8b80610ad4565b600114610f9b565b506020813d602011610fd6575b81610fc460209383611ca8565b8101031261014f57610a5b9051610a50565b3d9150610fb7565b9092506020813d60201161100a575b81610ffa60209383611ca8565b8101031261014f575191896109e8565b3d9150610fed565b9091506020813d60201161103e575b8161102e60209383611ca8565b8101031261014f575190886109b2565b3d9150611021565b634e487b7160e01b600052604160045260246000fd5b90506020813d602011611086575b8161107760209383611ca8565b8101031261014f575189610881565b3d915061106a565b90506020813d6020116110b8575b816110a960209383611ca8565b8101031261014f57518961083d565b3d915061109c565b6110da91925060203d6020116105895761057a8183611ca8565b90866107ec565b6110fb91955060203d6020116105895761057a8183611ca8565b93856107bc565b3461014f57600036600319011261014f5761111b611d8c565b604051809160208083018184528251809152816040850193019160005b82811061114757505050500390f35b83516001600160a01b031685528695509381019392810192600101611138565b3461014f57600036600319011261014f5760206040517f439148f0bbc682ca079e46d6e2c2f0c1e3b820f1a291b069d8882abf8cf18dd98152f35b3461014f5760a036600319011261014f576111bb611c00565b6111c3611bea565b9067ffffffffffffffff9060843582811161014f576111e6903690600401611c16565b90917f00000000000000000000000000000000000000000000000000000000000000006001600160a01b031633819003611b9b5750306001600160a01b03821603611b72575090611238913691611fd3565b6040519161124583611c70565b600083526060602084015260408301916000835280518101906060816020840193031261014f57602081015192604082015190811161014f5781019082603f8301121561014f5760208201519161129b83611fb7565b936112a96040519586611ca8565b8385526040848301011161014f576060926112cb916040602087019101612017565b0151926001600160a01b038416840361014f576001600160a01b03841690819052602085810192909252918452604051632c805af560e21b81529291839060049082905afa91821561022a57600092611b51575b50604051631f1b131360e31b8152936020856004816001600160a01b0386165afa94851561022a57600095611b30575b506001600160a01b0385811690821603611b0657506040516370a0823160e01b8152306004820152906020826024816001600160a01b0389165afa91821561022a57600092611ad2575b5060405163095ea7b360e01b60208201526001600160a01b038216602482015260001960448083019190915281526113d081611c8c565b8051602090600090838301826001600160a01b038b165af16000513d82611aad575b505015611a69575b508351604051635d043b2960e11b815260048101919091523060248201819052604482015260208160648160006001600160a01b0387165af1801561022a57611a3e575b5060405163095ea7b360e01b60208083019182526001600160a01b0384166024840152600060448085018290528452909161147884611c8c565b835190826001600160a01b038b165af16000513d82611a19575b5050156119b6575b50506040516370a0823160e01b81523060048201526020816024816001600160a01b0389165afa90811561022a57600091611984575b50818111611966576020916114eb6114f09260643592611db5565b61200a565b9201516040516370a0823160e01b81523060048201529091906020816024816001600160a01b0386165afa90811561022a57600091611934575b506040516370a0823160e01b8152306004820152926020846024816001600160a01b038a165afa93841561022a57600094611900575b506040516370a0823160e01b8152306004820152906020826024816001600160a01b0388165afa91821561022a576000926118cb575b506040516304ecaec960e31b81526001600160a01b038581166004830152881660248201526044810187905260001960648201523060848201524260a482015261010060c482015290602090829081906115f59061010483019061203a565b7f00000000000000000000000000000000000000000000000000000000000000006001600160a01b031660e4830152038173__$73ace4aa8e5f9c1a2b48f796123ca85165$__5af4801561022a576118a0575b506040516370a0823160e01b8152306004820152906020826024816001600160a01b0388165afa91821561022a5760009261186c575b508082101561184f5761169660249392602092611db5565b6040516370a0823160e01b815230600482015290949093849182906001600160a01b03165afa91821561022a57600092611818575b506040516370a0823160e01b815230600482015295602090879060249082906001600160a01b03165afa95861561022a576000966117e2575b5061171091839161205f565b80516117b6575b505061172282612378565b600101806001116101e157611739908385846120b7565b928351156117995750506040820151156117775760206040517f439148f0bbc682ca079e46d6e2c2f0c1e3b820f1a291b069d8882abf8cf18dd98152f35b602060449201519060405191638919e25360e01b835260048301526024820152fd5b60449250604051916204bb6760e81b835260048301526024820152fd5b60408101516117175790602060449201519060405191637654e04760e11b835260048301526024820152fd5b9095506020813d602011611810575b816117fe60209383611ca8565b8101031261014f575194611710611704565b3d91506117f1565b9591506020863d602011611847575b8161183460209383611ca8565b8101031261014f579451909460206116cb565b3d9150611827565b6044916040519163b9a3476560e01b835260048301526024820152fd5b9091506020813d602011611898575b8161188860209383611ca8565b8101031261014f5751908761167e565b3d915061187b565b602090813d83116118c4575b6118b68183611ca8565b8101031261014f5786611648565b503d6118ac565b9091506020813d6020116118f8575b816118e760209383611ca8565b8101031261014f5751906020611596565b3d91506118da565b9093506020813d60201161192c575b8161191c60209383611ca8565b8101031261014f57519286611560565b3d915061190f565b90506020813d60201161195e575b8161194f60209383611ca8565b8101031261014f57518561152a565b3d9150611942565b604492506040519163a40ed01360e01b835260048301526024820152fd5b90506020813d6020116119ae575b8161199f60209383611ca8565b8101031261014f5751856114d0565b3d9150611992565b60405163095ea7b360e01b60208201526001600160a01b03909216602483015260006044808401919091528252611a1291611a03906119f481611c8c565b6001600160a01b038816611d0d565b6001600160a01b038616611d0d565b848061149a565b909150611a3657506001600160a01b0386163b15155b8780611492565b600114611a2f565b602090813d8311611a62575b611a548183611ca8565b8101031261014f578561143e565b503d611a4a565b60405163095ea7b360e01b60208201526001600160a01b038316602482015260006044808301919091528152611aa79190610f7090610f6181611c8c565b856113fa565b909150611aca57506001600160a01b0386163b15155b87806113f2565b600114611ac3565b9091506020813d602011611afe575b81611aee60209383611ca8565b8101031261014f57519085611399565b3d9150611ae1565b60405163c7f1118d60e01b81526001600160a01b0391821660048201529085166024820152604490fd5b611b4a91955060203d6020116105895761057a8183611ca8565b938561134f565b611b6b91925060203d6020116105895761057a8183611ca8565b908461131f565b604051636705ec4760e11b81526001600160a01b03919091166004820152306024820152604490fd5b604051631a01026f60e01b81523360048201526001600160a01b03919091166024820152604490fd5b3461014f57604036600319011261014f5760206101d9611be2611bea565b600435612139565b602435906001600160a01b038216820361014f57565b600435906001600160a01b038216820361014f57565b9181601f8401121561014f5782359167ffffffffffffffff831161014f576020838186019501011161014f57565b6000546001600160a01b03163303611c5857565b60405163118cdaa760e01b8152336004820152602490fd5b6060810190811067ffffffffffffffff82111761104657604052565b6080810190811067ffffffffffffffff82111761104657604052565b90601f8019910116810190811067ffffffffffffffff82111761104657604052565b60405163a9059cbb60e01b60208201526001600160a01b03929092166024830152604480830193909352918152611d0b91611d06606483611ca8565b611d0d565b565b906000602091828151910182855af11561022a576000513d611d6057506001600160a01b0381163b155b611d3e5750565b604051635274afe760e01b81526001600160a01b039091166004820152602490fd5b60011415611d37565b600260015414611d7a576002600155565b604051633ee5aeb560e01b8152600490fd5b6040516020810181811067ffffffffffffffff8211176110465760405260008152906000368137565b919082039182116101e157565b8115611dcc570490565b634e487b7160e01b600052601260045260246000fd5b9060001981830981830291828083109203918083039214611e5357620f42409082821115611e40577fde8f6cefed634549b62c77574f722e1ac57e23f24d8fd5cb790fb65668c26139940990828211900360fa1b910360061c170290565b634e487b7160005260116020526024601cfd5b5050620f424091500490565b620f4240916000198383099280830292838086109503948086039514611ef25784831115611ed9579082910981600003821680920460028082600302188083028203028083028203028083028203028083028203028083028203028092029003029360018380600003040190848311900302920304170290565b82634e487b71600052156003026011186020526024601cfd5b505090611eff9250611dc2565b90565b90916000198383099280830292838086109503948086039514611ef25784831115611ed9579082910981600003821680920460028082600302188083028203028083028203028083028203028083028203028083028203028092029003029360018380600003040190848311900302920304170290565b9081602091031261014f57516001600160a01b038116810361014f5790565b60405190611fa582611c70565b60006040838281528260208201520152565b67ffffffffffffffff811161104657601f01601f191660200190565b929192611fdf82611fb7565b91611fed6040519384611ca8565b82948184528183011161014f578281602093846000960137010152565b919082018092116101e157565b60005b83811061202a5750506000910152565b818101518382015260200161201a565b9060209161205381518092818552858086019101612017565b601f01601f1916010190565b91909161206a611f98565b928181108085526120a2575b50508151156120975761208d906020830151612105565b1515604082015290565b506000604082015290565b6120ab91611db5565b60208301523880612076565b92906120c1611f98565b938082118086526120f0575b50508251156120e45761208d916020840151612127565b50506000604082015290565b6120f991611db5565b602084015238806120cd565b60019180821161211e579061211991611db5565b111590565b61211991611db5565b9080821161211e579061211991611db5565b6040805163415c506960e01b8082529194936001600160a01b0316916020918281600481875afa9081156122a357600091612276575b50600090156121e157508190600487518095819382525afa9485156121d757506000946121a4575b505091611eff9192611e5f565b81813d83116121d0575b6121b88183611ca8565b810103126121cc57519250611eff38612197565b8380fd5b503d6121ae565b513d6000823e3d90fd5b9282915091600492879596975193848092637aa7c3c160e01b82525afa93841561226d57508293612221575b5050509063ffffffff611eff921690611e5f565b9080929350813d8311612266575b6122398183611ca8565b8101031261226257519063ffffffff8216820361225f575063ffffffff611eff3861220d565b80fd5b5080fd5b503d61222f565b513d84823e3d90fd5b908382813d831161229c575b61228c8183611ca8565b8101031261225f5750513861216f565b503d612282565b87513d6000823e3d90fd5b6040810151602082015181039081111593929084029184806122f5575b6122dc575050509050600090600090565b516122f19183916001600160a01b0316611cca565b9190565b508215156122cb565b9081602091031261014f575160ff8116810361014f5790565b90949392851561235f5761232d6123339361236a565b91611f02565b620f423f198401908482116101e157611eff946123599261235392611f02565b9161236a565b90611f02565b505050505050600090565b604d81116101e157600a0a90565b612710908181029181830414901517156101e157620f424090049056fea2646970667358221220c59aec234e84045fff2a2537931e1632537b6fe7abb1c229cb519b1d6188603264736f6c63430008140033",
  "libraries": {
    "OdosSwapLogic": "0x555cD8Ab1933a97D26821823693F974abe144Cf2"
  }
}