{
  "address": "0x635A923E869485Ff5f6c2d8338E5cfa380a61e13",
  "abi": [
    {
      "inputs": [
        {
          "internalType": "contract IERC3156FlashLender",
          "name": "_flashLender",
          "type": "address"
        },
        {
          "internalType": "contract IOdosRouterV2",
          "name": "_odosRouter",
          "type": "address"
        }
      ],
      "stateMutability": "nonpayable",
      "type": "constructor"
    },
    {
      "inputs": [
        {
          "internalType": "uint256",
          "name": "received",
          "type": "uint256"
        },
        {
          "internalType": "uint256",
          "name": "expected",
          "type": "uint256"
        }
      ],
      "name": "InsufficientOutput",
      "type": "error"
    },
    {
      "inputs": [
        {
          "internalType": "address",
          "name": "owner",
          "type": "address"
        }
      ],
      "name": "OwnableInvalidOwner",
      "type": "error"
    },
    {
      "inputs": [
        {
          "internalType": "address",
          "name": "account",
          "type": "address"
        }
      ],
      "name": "OwnableUnauthorizedAccount",
      "type": "error"
    },
    {
      "inputs": [
        {
          "internalType": "address",
          "name": "token",
          "type": "address"
        }
      ],
      "name": "SafeERC20FailedOperation",
      "type": "error"
    },
    {
      "inputs": [
        {
          "internalType": "uint256",
          "name": "sharesBeforeWithdraw",
          "type": "uint256"
        },
        {
          "internalType": "uint256",
          "name": "sharesAfterWithdraw",
          "type": "uint256"
        }
      ],
      "name": "SharesNotDecreasedAfterFlashLoan",
      "type": "error"
    },
    {
      "inputs": [
        {
          "internalType": "uint256",
          "name": "underlyingAssetBalanceBefore",
          "type": "uint256"
        },
        {
          "internalType": "uint256",
          "name": "underlyingAssetBalanceAfter",
          "type": "uint256"
        }
      ],
      "name": "UnexpectedDecreaseInUnderlyingAsset",
      "type": "error"
    },
    {
      "inputs": [
        {
          "internalType": "uint256",
          "name": "dStableBalanceBefore",
          "type": "uint256"
        },
        {
          "internalType": "uint256",
          "name": "dStableBalanceAfter",
          "type": "uint256"
        }
      ],
      "name": "UnexpectedIncreaseInDStable",
      "type": "error"
    },
    {
      "inputs": [
        {
          "internalType": "address",
          "name": "initiator",
          "type": "address"
        },
        {
          "internalType": "address",
          "name": "thisContract",
          "type": "address"
        }
      ],
      "name": "UnknownInitiator",
      "type": "error"
    },
    {
      "inputs": [
        {
          "internalType": "address",
          "name": "msgSender",
          "type": "address"
        },
        {
          "internalType": "address",
          "name": "flashLender",
          "type": "address"
        }
      ],
      "name": "UnknownLender",
      "type": "error"
    },
    {
      "inputs": [
        {
          "internalType": "address",
          "name": "token",
          "type": "address"
        },
        {
          "internalType": "address",
          "name": "dStable",
          "type": "address"
        }
      ],
      "name": "UnknownToken",
      "type": "error"
    },
    {
      "anonymous": false,
      "inputs": [
        {
          "indexed": true,
          "internalType": "address",
          "name": "previousOwner",
          "type": "address"
        },
        {
          "indexed": true,
          "internalType": "address",
          "name": "newOwner",
          "type": "address"
        }
      ],
      "name": "OwnershipTransferred",
      "type": "event"
    },
    {
      "inputs": [],
      "name": "FLASHLOAN_CALLBACK",
      "outputs": [
        {
          "internalType": "bytes32",
          "name": "",
          "type": "bytes32"
        }
      ],
      "stateMutability": "view",
      "type": "function"
    },
    {
      "inputs": [],
      "name": "flashLender",
      "outputs": [
        {
          "internalType": "contract IERC3156FlashLender",
          "name": "",
          "type": "address"
        }
      ],
      "stateMutability": "view",
      "type": "function"
    },
    {
      "inputs": [],
      "name": "odosRouter",
      "outputs": [
        {
          "internalType": "contract IOdosRouterV2",
          "name": "",
          "type": "address"
        }
      ],
      "stateMutability": "view",
      "type": "function"
    },
    {
      "inputs": [
        {
          "internalType": "address",
          "name": "initiator",
          "type": "address"
        },
        {
          "internalType": "address",
          "name": "token",
          "type": "address"
        },
        {
          "internalType": "uint256",
          "name": "",
          "type": "uint256"
        },
        {
          "internalType": "uint256",
          "name": "",
          "type": "uint256"
        },
        {
          "internalType": "bytes",
          "name": "data",
          "type": "bytes"
        }
      ],
      "name": "onFlashLoan",
      "outputs": [
        {
          "internalType": "bytes32",
          "name": "",
          "type": "bytes32"
        }
      ],
      "stateMutability": "nonpayable",
      "type": "function"
    },
    {
      "inputs": [],
      "name": "owner",
      "outputs": [
        {
          "internalType": "address",
          "name": "",
          "type": "address"
        }
      ],
      "stateMutability": "view",
      "type": "function"
    },
    {
      "inputs": [
        {
          "internalType": "uint256",
          "name": "shares",
          "type": "uint256"
        },
        {
          "internalType": "address",
          "name": "receiver",
          "type": "address"
        },
        {
          "internalType": "address",
          "name": "owner",
          "type": "address"
        },
        {
          "internalType": "uint256",
          "name": "slippageTolerance",
          "type": "uint256"
        },
        {
          "internalType": "uint256",
          "name": "minReceiveAmount",
          "type": "uint256"
        },
        {
          "internalType": "bytes",
          "name": "underlyingToDStableSwapData",
          "type": "bytes"
        },
        {
          "internalType": "contract DLoopCoreBase",
          "name": "dLoopCore",
          "type": "address"
        }
      ],
      "name": "redeem",
      "outputs": [
        {
          "internalType": "uint256",
          "name": "assets",
          "type": "uint256"
        }
      ],
      "stateMutability": "nonpayable",
      "type": "function"
    },
    {
      "inputs": [],
      "name": "renounceOwnership",
      "outputs": [],
      "stateMutability": "nonpayable",
      "type": "function"
    },
    {
      "inputs": [
        {
          "internalType": "address",
          "name": "token",
          "type": "address"
        },
        {
          "internalType": "address",
          "name": "receiver",
          "type": "address"
        }
      ],
      "name": "rescueToken",
      "outputs": [],
      "stateMutability": "nonpayable",
      "type": "function"
    },
    {
      "inputs": [
        {
          "internalType": "address",
          "name": "newOwner",
          "type": "address"
        }
      ],
      "name": "transferOwnership",
      "outputs": [],
      "stateMutability": "nonpayable",
      "type": "function"
    },
    {
      "inputs": [
        {
          "internalType": "uint256",
          "name": "assets",
          "type": "uint256"
        },
        {
          "internalType": "address",
          "name": "receiver",
          "type": "address"
        },
        {
          "internalType": "address",
          "name": "owner",
          "type": "address"
        },
        {
          "internalType": "uint256",
          "name": "slippageTolerance",
          "type": "uint256"
        },
        {
          "internalType": "uint256",
          "name": "minReceiveAmount",
          "type": "uint256"
        },
        {
          "internalType": "bytes",
          "name": "underlyingToDStableSwapData",
          "type": "bytes"
        },
        {
          "internalType": "contract DLoopCoreBase",
          "name": "dLoopCore",
          "type": "address"
        }
      ],
      "name": "withdraw",
      "outputs": [
        {
          "internalType": "uint256",
          "name": "shares",
          "type": "uint256"
        }
      ],
      "stateMutability": "nonpayable",
      "type": "function"
    }
  ],
  "transactionHash": "0x88e439c81482457520fd497123e865fcfb01b8f395a83c3d4cc76c768392e21e",
  "args": [
    "0x53a6aBb52B2F968fA80dF6A894e4f1b1020DA975",
    "0xaC041Df48dF9791B0654f1Dbbf2CC8450C5f2e9D"
  ],
  "numDeployments": 1,
  "solcInputHash": "b617ad13192586c0c27ecb291c5ad8c9",
  "bytecode": "0x60c0346100f557601f61172438819003918201601f19168301916001600160401b038311848410176100fa5780849260409485528339810103126100f55780516001600160a01b039182821682036100f557602001519082821682036100f55733156100dc576000543360018060a01b0319821617600055604051933391167f8be0079c531659141344cd1fd0a4f28419497f9722a3daafe3b4186f6b6457e0600080a360805260a05261161390816101118239608051818181610136015281816104470152611117015260a0518181816101cb01526109550152f35b604051631e4fbdf760e01b815260006004820152602490fd5b600080fd5b634e487b7160e01b600052604160045260246000fdfe608080604052600436101561001357600080fd5b60003560e01c90816323e30c8b146103e3575080632ae18104146103a85780634707d00014610304578063577228b114610253578063715018a6146101fa5780638321928d146101b55780638da5cb5b1461018c578063999fedd014610165578063a7714458146101205763f2fde38b1461008d57600080fd5b3461011b57602036600319011261011b576100a6610d2b565b6100ae610e7a565b6001600160a01b0390811690811561010257600054826bffffffffffffffffffffffff60a01b821617600055167f8be0079c531659141344cd1fd0a4f28419497f9722a3daafe3b4186f6b6457e0600080a3005b604051631e4fbdf760e01b815260006004820152602490fd5b600080fd5b3461011b57600036600319011261011b576040517f00000000000000000000000000000000000000000000000000000000000000006001600160a01b03168152602090f35b3461011b57602061018461017836610dff565b95949094939193610fcb565b604051908152f35b3461011b57600036600319011261011b576000546040516001600160a01b039091168152602090f35b3461011b57600036600319011261011b576040517f00000000000000000000000000000000000000000000000000000000000000006001600160a01b03168152602090f35b3461011b57600036600319011261011b57610213610e7a565b600080546001600160a01b0319811682556001600160a01b03167f8be0079c531659141344cd1fd0a4f28419497f9722a3daafe3b4186f6b6457e08280a3005b3461011b5761026136610dff565b6040516363737ac960e11b815260048101979097529395949092906020866024816001600160a01b0389165afa9586156102f8576000966102b8575b50906020966102af9594939287610fcb565b50604051908152f35b949392919095506020853d82116102f0575b816102d760209383610d8a565b8101031261011b5793519492939192909190602061029d565b3d91506102ca565b6040513d6000823e3d90fd5b3461011b57604036600319011261011b5761031d610d2b565b610325610d41565b9061032e610e7a565b6040516370a0823160e01b8152306004820152916001600160a01b039190911690602083602481855afa9182156102f857600092610373575b6103719350610ea6565b005b91506020833d82116103a0575b8161038d60209383610d8a565b8101031261011b57610371925191610367565b3d9150610380565b3461011b57600036600319011261011b5760206040517f439148f0bbc682ca079e46d6e2c2f0c1e3b820f1a291b069d8882abf8cf18dd98152f35b3461011b5760a036600319011261011b576103fc610d2b565b90610405610d41565b906084359067ffffffffffffffff821161011b573660238301121561011b5781600401359067ffffffffffffffff821161011b57366024838501011161011b577f00000000000000000000000000000000000000000000000000000000000000006001600160a01b031633819003610d08575050306001600160a01b03851603610ce15790610498916024369201610dc8565b90604051906104a682610d57565b6000825260006020830152600060408301526000606083015260006080830152600060a0830152606060c0830152600060e083015282518301926101008185031261011b576104f7602082016115c9565b90610504604082016115c9565b9060608101519060808101519060a08101519060c08101519060e08101519067ffffffffffffffff821161011b5760208b01603f83830101121561011b57818101602001519161055383610dac565b9b6040519c610562908e610d8a565b838d5260200183828401016040011161011b576101009261058c91604060208f0191850101610f83565b0151986001600160a01b038a168a0361011b5760018060a01b038a1660e08a015260c089015260a088015260808701526060860152604085015260018060a01b0316602084015260018060a01b03168252604051631c56369f60e21b815260208160048160018060a01b0388165afa9081156102f857600091610cc2575b506040516306617c6960e11b8152916020836004816001600160a01b0389165afa9283156102f857600093610c91575b506001600160a01b0383811690821603610c6757506040516370a0823160e01b8152306004820152936020856024816001600160a01b0386165afa9485156102f857600095610c33575b506040516370a0823160e01b81523060048201526020816024816001600160a01b0388165afa9081156102f857600091610c01575b50604085015160018060a01b0386511660405191635d043b2960e11b835260048301523060248301526044820152602081606481600060018060a01b0388165af180156102f857610bd6575b506040516370a0823160e01b8152306004820152956020876024816001600160a01b0388165afa9687156102f857600097610ba2575b506040516370a0823160e01b8152306004820152966020886024816001600160a01b038a165afa9788156102f857600098610b6e575b50828811610b5057818110610b3257610794929161078e91611592565b96611592565b9460a0850151808210610b14575060208501516107bf91906001600160a01b03908116908516610ea6565b6040516363880e0960e11b81526001600160a01b0384811660048301526020908290602490829086165afa9081156102f857600091610ae2575b5060405163313ce56760e01b8152906020826004816001600160a01b0388165afa9182156102f85761084560209261083f60249561084b94600091610ac5575b506115b8565b90610f70565b88610f70565b6040516363880e0960e11b81526001600160a01b03868116600483015291949093849290918391165afa9081156102f857600091610a93575b5060405163313ce56760e01b8152906020826004816001600160a01b0389165afa9182156102f8576108c19261083f91600091610a6457506115b8565b908115610a4e57608085015191620f424092830190818411610a38576108e79204610f70565b049283156109fb5760c001516040516304ecaec960e31b81526001600160a01b039283166004820152919092166024820152604481019390935260648301919091523060848301524260a483015261010060c48301526020908290819061095390610104830190610fa6565b7f00000000000000000000000000000000000000000000000000000000000000006001600160a01b031660e4830152038173753cb23485Ec4982ca709DD4A79Eb839508FB1C15af480156102f8576109d0575b60206040517f439148f0bbc682ca079e46d6e2c2f0c1e3b820f1a291b069d8882abf8cf18dd98152f35b602090813d83116109f4575b6109e68183610d8a565b8101031261011b57806109a6565b503d6109dc565b60405162461bcd60e51b81526020600482015260156024820152746d6178496e206973206e6f7420706f73697469766560581b6044820152606490fd5b634e487b7160e01b600052601160045260246000fd5b634e487b7160e01b600052601260045260246000fd5b610a86915060203d602011610a8c575b610a7e8183610d8a565b81019061159f565b89610839565b503d610a74565b90506020813d602011610abd575b81610aae60209383610d8a565b8101031261011b575186610884565b3d9150610aa1565b610adc9150863d8811610a8c57610a7e8183610d8a565b8c610839565b90506020813d602011610b0c575b81610afd60209383610d8a565b8101031261011b5751866107f9565b3d9150610af0565b6044925060405191630583371760e31b835260048301526024820152fd5b6044925060405191636e9b3f0360e11b835260048301526024820152fd5b60448389604051916306c0820760e21b835260048301526024820152fd5b9097506020813d602011610b9a575b81610b8a60209383610d8a565b8101031261011b57519688610771565b3d9150610b7d565b9096506020813d602011610bce575b81610bbe60209383610d8a565b8101031261011b5751958761073b565b3d9150610bb1565b602090813d8311610bfa575b610bec8183610d8a565b8101031261011b5786610705565b503d610be2565b90506020813d602011610c2b575b81610c1c60209383610d8a565b8101031261011b5751866106b9565b3d9150610c0f565b9094506020813d602011610c5f575b81610c4f60209383610d8a565b8101031261011b57519385610684565b3d9150610c42565b604051633a559e9f60e21b81526001600160a01b0391821660048201529083166024820152604490fd5b610cb491935060203d602011610cbb575b610cac8183610d8a565b810190610f39565b918561063a565b503d610ca2565b610cdb915060203d602011610cbb57610cac8183610d8a565b8461060a565b604051636705ec4760e11b81526001600160a01b0385166004820152306024820152604490fd5b631a01026f60e01b82523360048301526001600160a01b03166024820152604490fd5b600435906001600160a01b038216820361011b57565b602435906001600160a01b038216820361011b57565b610100810190811067ffffffffffffffff821117610d7457604052565b634e487b7160e01b600052604160045260246000fd5b90601f8019910116810190811067ffffffffffffffff821117610d7457604052565b67ffffffffffffffff8111610d7457601f01601f191660200190565b929192610dd482610dac565b91610de26040519384610d8a565b82948184528183011161011b578281602093846000960137010152565b60e060031982011261011b57600435916001600160a01b0390602435828116810361011b5792604435838116810361011b5792606435926084359260a4359067ffffffffffffffff821161011b578060238301121561011b57816024610e6a93600401359101610dc8565b9160c435908116810361011b5790565b6000546001600160a01b03163303610e8e57565b60405163118cdaa760e01b8152336004820152602490fd5b60405163a9059cbb60e01b60208083019182526001600160a01b039490941660248301526044808301959095529381529092600091610ee6606482610d8a565b519082855af1156102f8576000513d610f3057506001600160a01b0381163b155b610f0e5750565b604051635274afe760e01b81526001600160a01b039091166004820152602490fd5b60011415610f07565b9081602091031261011b57516001600160a01b038116810361011b5790565b9081602091031261011b5751801515810361011b5790565b81810292918115918404141715610a3857565b60005b838110610f965750506000910152565b8181015183820152602001610f86565b90602091610fbf81518092818552858086019101610f83565b601f01601f1916010190565b604080516306617c6960e11b815292976004976020979396949592946001600160a01b0392831694909389888c81895afa97881561158757600098611566575b5083169333850361150e575b86516303d1689d60e11b81528b81018a90529b6024998b8e8c818b5afa9d8e156113a35760009e6114df575b5088516375ba52c960e01b81528c818f818c5afa9081156114d457928f9795928b8f96938c908c9a97600091611475575b508a848b620f42406111149d9e9f6110959063ffffffff60e0971690610f70565b04978651936110a385610d57565b84521694858c8401528201528560608201528660808201528760a08201528860c082015201528c51998a978801528c8701526060860152608085015260a084015260c083015286611102610100928360e0860152610120850190610fa6565b9183015203601f198101845283610d8a565b807f000000000000000000000000000000000000000000000000000000000000000016951684519063613255ab60e01b8252808a830152888289818a5afa91821561146a5760009261143b575b508551966370a0823160e01b93848952858c8a01528a898b818a5afa988915611430576000996113ef575b508751633676633960e21b81526001600160a01b038416818e01908152602081018690528c90829081906040010381865afa9081156113a3576000916113c2575b5084018085116113ae57885163095ea7b360e01b81526001600160a01b038416818f019081526020810192909252908c908290819060400103816000885af19081156113a357600091611386575b501561133257908960008d61125d8e96958c5198899788968795632e7ff4ef60e11b875230908701528501526044840152608060648401526084830190610fa6565b03925af18015611327579187918994936112fa575b508551948593849283528b8301525afa9485156112ef576000956112bb575b5050818410156112a357505050505090565b51632b9e770560e11b81529384015282015260449150fd5b8181969293963d83116112e8575b6112d38183610d8a565b810103126112e5575051923880611291565b80fd5b503d6112c9565b82513d6000823e3d90fd5b61131990853d8711611320575b6113118183610d8a565b810190610f58565b5038611272565b503d611307565b85513d6000823e3d90fd5b875162461bcd60e51b8152808d018c90526029818c01527f617070726f7665206661696c656420666f7220666c617368206c656e64657220604482015268696e2072656465656d60b81b6064820152608490fd5b61139d91508c8d3d10611320576113118183610d8a565b3861121b565b89513d6000823e3d90fd5b8a60118e634e487b7160e01b600052526000fd5b908c82813d83116113e8575b6113d88183610d8a565b810103126112e5575051386111cd565b503d6113ce565b8b809b9a9f9e9d9c82903d8311611429575b61140b8183610d8a565b8101031261142557519c9d509a9b999a989997988361118c565b8e80fd5b503d611401565b88513d6000823e3d90fd5b90918982813d8311611463575b6114528183610d8a565b810103126112e55750519038611161565b503d611448565b86513d6000823e3d90fd5b94979a5094979295989a50505081813d83116114cd575b6114968183610d8a565b810103126114c957519063ffffffff821682036112e557508e96889690958e959194909391929091908c908c908a611074565b5080fd5b503d61148c565b8a513d6000823e3d90fd5b909d8c82813d8311611507575b6114f68183610d8a565b810103126112e55750519c38611043565b503d6114ec565b865163095ea7b360e01b815230818d01908152602081018b90528b9082908190604001038160008b5af1801561143057611549575b50611017565b61155f908b3d8d11611320576113118183610d8a565b5038611543565b84919850611580908b3d8d11610cbb57610cac8183610d8a565b979061100b565b87513d6000823e3d90fd5b91908203918211610a3857565b9081602091031261011b575160ff8116810361011b5790565b60ff16604d8111610a3857600a0a90565b51906001600160a01b038216820361011b5756fea26469706673582212209a88c4a2328d119b8930f783027dab5b327fce40497eef859a2877d45943f33164736f6c63430008140033",
  "deployedBytecode": "0x608080604052600436101561001357600080fd5b60003560e01c90816323e30c8b146103e3575080632ae18104146103a85780634707d00014610304578063577228b114610253578063715018a6146101fa5780638321928d146101b55780638da5cb5b1461018c578063999fedd014610165578063a7714458146101205763f2fde38b1461008d57600080fd5b3461011b57602036600319011261011b576100a6610d2b565b6100ae610e7a565b6001600160a01b0390811690811561010257600054826bffffffffffffffffffffffff60a01b821617600055167f8be0079c531659141344cd1fd0a4f28419497f9722a3daafe3b4186f6b6457e0600080a3005b604051631e4fbdf760e01b815260006004820152602490fd5b600080fd5b3461011b57600036600319011261011b576040517f00000000000000000000000000000000000000000000000000000000000000006001600160a01b03168152602090f35b3461011b57602061018461017836610dff565b95949094939193610fcb565b604051908152f35b3461011b57600036600319011261011b576000546040516001600160a01b039091168152602090f35b3461011b57600036600319011261011b576040517f00000000000000000000000000000000000000000000000000000000000000006001600160a01b03168152602090f35b3461011b57600036600319011261011b57610213610e7a565b600080546001600160a01b0319811682556001600160a01b03167f8be0079c531659141344cd1fd0a4f28419497f9722a3daafe3b4186f6b6457e08280a3005b3461011b5761026136610dff565b6040516363737ac960e11b815260048101979097529395949092906020866024816001600160a01b0389165afa9586156102f8576000966102b8575b50906020966102af9594939287610fcb565b50604051908152f35b949392919095506020853d82116102f0575b816102d760209383610d8a565b8101031261011b5793519492939192909190602061029d565b3d91506102ca565b6040513d6000823e3d90fd5b3461011b57604036600319011261011b5761031d610d2b565b610325610d41565b9061032e610e7a565b6040516370a0823160e01b8152306004820152916001600160a01b039190911690602083602481855afa9182156102f857600092610373575b6103719350610ea6565b005b91506020833d82116103a0575b8161038d60209383610d8a565b8101031261011b57610371925191610367565b3d9150610380565b3461011b57600036600319011261011b5760206040517f439148f0bbc682ca079e46d6e2c2f0c1e3b820f1a291b069d8882abf8cf18dd98152f35b3461011b5760a036600319011261011b576103fc610d2b565b90610405610d41565b906084359067ffffffffffffffff821161011b573660238301121561011b5781600401359067ffffffffffffffff821161011b57366024838501011161011b577f00000000000000000000000000000000000000000000000000000000000000006001600160a01b031633819003610d08575050306001600160a01b03851603610ce15790610498916024369201610dc8565b90604051906104a682610d57565b6000825260006020830152600060408301526000606083015260006080830152600060a0830152606060c0830152600060e083015282518301926101008185031261011b576104f7602082016115c9565b90610504604082016115c9565b9060608101519060808101519060a08101519060c08101519060e08101519067ffffffffffffffff821161011b5760208b01603f83830101121561011b57818101602001519161055383610dac565b9b6040519c610562908e610d8a565b838d5260200183828401016040011161011b576101009261058c91604060208f0191850101610f83565b0151986001600160a01b038a168a0361011b5760018060a01b038a1660e08a015260c089015260a088015260808701526060860152604085015260018060a01b0316602084015260018060a01b03168252604051631c56369f60e21b815260208160048160018060a01b0388165afa9081156102f857600091610cc2575b506040516306617c6960e11b8152916020836004816001600160a01b0389165afa9283156102f857600093610c91575b506001600160a01b0383811690821603610c6757506040516370a0823160e01b8152306004820152936020856024816001600160a01b0386165afa9485156102f857600095610c33575b506040516370a0823160e01b81523060048201526020816024816001600160a01b0388165afa9081156102f857600091610c01575b50604085015160018060a01b0386511660405191635d043b2960e11b835260048301523060248301526044820152602081606481600060018060a01b0388165af180156102f857610bd6575b506040516370a0823160e01b8152306004820152956020876024816001600160a01b0388165afa9687156102f857600097610ba2575b506040516370a0823160e01b8152306004820152966020886024816001600160a01b038a165afa9788156102f857600098610b6e575b50828811610b5057818110610b3257610794929161078e91611592565b96611592565b9460a0850151808210610b14575060208501516107bf91906001600160a01b03908116908516610ea6565b6040516363880e0960e11b81526001600160a01b0384811660048301526020908290602490829086165afa9081156102f857600091610ae2575b5060405163313ce56760e01b8152906020826004816001600160a01b0388165afa9182156102f85761084560209261083f60249561084b94600091610ac5575b506115b8565b90610f70565b88610f70565b6040516363880e0960e11b81526001600160a01b03868116600483015291949093849290918391165afa9081156102f857600091610a93575b5060405163313ce56760e01b8152906020826004816001600160a01b0389165afa9182156102f8576108c19261083f91600091610a6457506115b8565b908115610a4e57608085015191620f424092830190818411610a38576108e79204610f70565b049283156109fb5760c001516040516304ecaec960e31b81526001600160a01b039283166004820152919092166024820152604481019390935260648301919091523060848301524260a483015261010060c48301526020908290819061095390610104830190610fa6565b7f00000000000000000000000000000000000000000000000000000000000000006001600160a01b031660e4830152038173__$03334cd4b7dfa52e5ea3c3fdbc704ea56d$__5af480156102f8576109d0575b60206040517f439148f0bbc682ca079e46d6e2c2f0c1e3b820f1a291b069d8882abf8cf18dd98152f35b602090813d83116109f4575b6109e68183610d8a565b8101031261011b57806109a6565b503d6109dc565b60405162461bcd60e51b81526020600482015260156024820152746d6178496e206973206e6f7420706f73697469766560581b6044820152606490fd5b634e487b7160e01b600052601160045260246000fd5b634e487b7160e01b600052601260045260246000fd5b610a86915060203d602011610a8c575b610a7e8183610d8a565b81019061159f565b89610839565b503d610a74565b90506020813d602011610abd575b81610aae60209383610d8a565b8101031261011b575186610884565b3d9150610aa1565b610adc9150863d8811610a8c57610a7e8183610d8a565b8c610839565b90506020813d602011610b0c575b81610afd60209383610d8a565b8101031261011b5751866107f9565b3d9150610af0565b6044925060405191630583371760e31b835260048301526024820152fd5b6044925060405191636e9b3f0360e11b835260048301526024820152fd5b60448389604051916306c0820760e21b835260048301526024820152fd5b9097506020813d602011610b9a575b81610b8a60209383610d8a565b8101031261011b57519688610771565b3d9150610b7d565b9096506020813d602011610bce575b81610bbe60209383610d8a565b8101031261011b5751958761073b565b3d9150610bb1565b602090813d8311610bfa575b610bec8183610d8a565b8101031261011b5786610705565b503d610be2565b90506020813d602011610c2b575b81610c1c60209383610d8a565b8101031261011b5751866106b9565b3d9150610c0f565b9094506020813d602011610c5f575b81610c4f60209383610d8a565b8101031261011b57519385610684565b3d9150610c42565b604051633a559e9f60e21b81526001600160a01b0391821660048201529083166024820152604490fd5b610cb491935060203d602011610cbb575b610cac8183610d8a565b810190610f39565b918561063a565b503d610ca2565b610cdb915060203d602011610cbb57610cac8183610d8a565b8461060a565b604051636705ec4760e11b81526001600160a01b0385166004820152306024820152604490fd5b631a01026f60e01b82523360048301526001600160a01b03166024820152604490fd5b600435906001600160a01b038216820361011b57565b602435906001600160a01b038216820361011b57565b610100810190811067ffffffffffffffff821117610d7457604052565b634e487b7160e01b600052604160045260246000fd5b90601f8019910116810190811067ffffffffffffffff821117610d7457604052565b67ffffffffffffffff8111610d7457601f01601f191660200190565b929192610dd482610dac565b91610de26040519384610d8a565b82948184528183011161011b578281602093846000960137010152565b60e060031982011261011b57600435916001600160a01b0390602435828116810361011b5792604435838116810361011b5792606435926084359260a4359067ffffffffffffffff821161011b578060238301121561011b57816024610e6a93600401359101610dc8565b9160c435908116810361011b5790565b6000546001600160a01b03163303610e8e57565b60405163118cdaa760e01b8152336004820152602490fd5b60405163a9059cbb60e01b60208083019182526001600160a01b039490941660248301526044808301959095529381529092600091610ee6606482610d8a565b519082855af1156102f8576000513d610f3057506001600160a01b0381163b155b610f0e5750565b604051635274afe760e01b81526001600160a01b039091166004820152602490fd5b60011415610f07565b9081602091031261011b57516001600160a01b038116810361011b5790565b9081602091031261011b5751801515810361011b5790565b81810292918115918404141715610a3857565b60005b838110610f965750506000910152565b8181015183820152602001610f86565b90602091610fbf81518092818552858086019101610f83565b601f01601f1916010190565b604080516306617c6960e11b815292976004976020979396949592946001600160a01b0392831694909389888c81895afa97881561158757600098611566575b5083169333850361150e575b86516303d1689d60e11b81528b81018a90529b6024998b8e8c818b5afa9d8e156113a35760009e6114df575b5088516375ba52c960e01b81528c818f818c5afa9081156114d457928f9795928b8f96938c908c9a97600091611475575b508a848b620f42406111149d9e9f6110959063ffffffff60e0971690610f70565b04978651936110a385610d57565b84521694858c8401528201528560608201528660808201528760a08201528860c082015201528c51998a978801528c8701526060860152608085015260a084015260c083015286611102610100928360e0860152610120850190610fa6565b9183015203601f198101845283610d8a565b807f000000000000000000000000000000000000000000000000000000000000000016951684519063613255ab60e01b8252808a830152888289818a5afa91821561146a5760009261143b575b508551966370a0823160e01b93848952858c8a01528a898b818a5afa988915611430576000996113ef575b508751633676633960e21b81526001600160a01b038416818e01908152602081018690528c90829081906040010381865afa9081156113a3576000916113c2575b5084018085116113ae57885163095ea7b360e01b81526001600160a01b038416818f019081526020810192909252908c908290819060400103816000885af19081156113a357600091611386575b501561133257908960008d61125d8e96958c5198899788968795632e7ff4ef60e11b875230908701528501526044840152608060648401526084830190610fa6565b03925af18015611327579187918994936112fa575b508551948593849283528b8301525afa9485156112ef576000956112bb575b5050818410156112a357505050505090565b51632b9e770560e11b81529384015282015260449150fd5b8181969293963d83116112e8575b6112d38183610d8a565b810103126112e5575051923880611291565b80fd5b503d6112c9565b82513d6000823e3d90fd5b61131990853d8711611320575b6113118183610d8a565b810190610f58565b5038611272565b503d611307565b85513d6000823e3d90fd5b875162461bcd60e51b8152808d018c90526029818c01527f617070726f7665206661696c656420666f7220666c617368206c656e64657220604482015268696e2072656465656d60b81b6064820152608490fd5b61139d91508c8d3d10611320576113118183610d8a565b3861121b565b89513d6000823e3d90fd5b8a60118e634e487b7160e01b600052526000fd5b908c82813d83116113e8575b6113d88183610d8a565b810103126112e5575051386111cd565b503d6113ce565b8b809b9a9f9e9d9c82903d8311611429575b61140b8183610d8a565b8101031261142557519c9d509a9b999a989997988361118c565b8e80fd5b503d611401565b88513d6000823e3d90fd5b90918982813d8311611463575b6114528183610d8a565b810103126112e55750519038611161565b503d611448565b86513d6000823e3d90fd5b94979a5094979295989a50505081813d83116114cd575b6114968183610d8a565b810103126114c957519063ffffffff821682036112e557508e96889690958e959194909391929091908c908c908a611074565b5080fd5b503d61148c565b8a513d6000823e3d90fd5b909d8c82813d8311611507575b6114f68183610d8a565b810103126112e55750519c38611043565b503d6114ec565b865163095ea7b360e01b815230818d01908152602081018b90528b9082908190604001038160008b5af1801561143057611549575b50611017565b61155f908b3d8d11611320576113118183610d8a565b5038611543565b84919850611580908b3d8d11610cbb57610cac8183610d8a565b979061100b565b87513d6000823e3d90fd5b91908203918211610a3857565b9081602091031261011b575160ff8116810361011b5790565b60ff16604d8111610a3857600a0a90565b51906001600160a01b038216820361011b5756fea26469706673582212209a88c4a2328d119b8930f783027dab5b327fce40497eef859a2877d45943f33164736f6c63430008140033",
  "libraries": {
    "OdosSwapLogic": "0x753cb23485Ec4982ca709DD4A79Eb839508FB1C1"
  },
  "devdoc": {
    "details": "Implementation of DLoopWithdrawerBase with Odos swap functionality",
    "errors": {
      "OwnableInvalidOwner(address)": [
        {
          "details": "The owner is not a valid owner account. (eg. `address(0)`)"
        }
      ],
      "OwnableUnauthorizedAccount(address)": [
        {
          "details": "The caller account is not authorized to perform an operation."
        }
      ],
      "SafeERC20FailedOperation(address)": [
        {
          "details": "An operation with an ERC-20 token failed."
        }
      ]
    },
    "kind": "dev",
    "methods": {
      "constructor": {
        "details": "Constructor for the DLoopWithdrawerOdos contract",
        "params": {
          "_flashLender": "Address of the flash loan provider",
          "_odosRouter": "Address of the Odos router"
        }
      },
      "onFlashLoan(address,address,uint256,uint256,bytes)": {
        "details": "Callback function for flash loans",
        "params": {
          "data": "Encoded flash loan parameters",
          "initiator": "Address that initiated the flash loan",
          "token": "Address of the flash-borrowed token"
        },
        "returns": {
          "_0": "bytes32 The flash loan callback success bytes"
        }
      },
      "owner()": {
        "details": "Returns the address of the current owner."
      },
      "redeem(uint256,address,address,uint256,uint256,bytes,address)": {
        "details": "Redeems shares from the core vault",
        "params": {
          "dLoopCore": "Address of the DLoopCore contract to use",
          "minReceiveAmount": "Minimum amount of assets to receive",
          "owner": "Address that owns the shares",
          "receiver": "Address to receive the assets",
          "shares": "Amount of shares to redeem",
          "slippageTolerance": "Slippage tolerance for the swap",
          "underlyingToDStableSwapData": "Swap data from underlying asset to dStable"
        },
        "returns": {
          "assets": "Amount of assets redeemed"
        }
      },
      "renounceOwnership()": {
        "details": "Leaves the contract without owner. It will not be possible to call `onlyOwner` functions. Can only be called by the current owner. NOTE: Renouncing ownership will leave the contract without an owner, thereby disabling any functionality that is only available to the owner."
      },
      "rescueToken(address,address)": {
        "details": "Rescues tokens accidentally sent to the contract",
        "params": {
          "receiver": "Address to receive the rescued tokens",
          "token": "Address of the token to rescue"
        }
      },
      "transferOwnership(address)": {
        "details": "Transfers ownership of the contract to a new account (`newOwner`). Can only be called by the current owner."
      },
      "withdraw(uint256,address,address,uint256,uint256,bytes,address)": {
        "details": "Withdraws assets from the core vault",
        "params": {
          "assets": "Amount of assets to withdraw",
          "dLoopCore": "Address of the DLoopCore contract to use",
          "minReceiveAmount": "Minimum amount of assets to receive",
          "owner": "Address that owns the shares",
          "receiver": "Address to receive the assets",
          "slippageTolerance": "Slippage tolerance for the swap",
          "underlyingToDStableSwapData": "Swap data from underlying asset to dStable"
        },
        "returns": {
          "shares": "Amount of shares burned"
        }
      }
    },
    "title": "DLoopWithdrawerOdos",
    "version": 1
  },
  "userdoc": {
    "kind": "user",
    "methods": {},
    "version": 1
  },
  "storageLayout": {
    "storage": [
      {
        "astId": 2877,
        "contract": "contracts/dloop/periphery/venue/odos/DLoopWithdrawerOdos.sol:DLoopWithdrawerOdos",
        "label": "_owner",
        "offset": 0,
        "slot": "0",
        "type": "t_address"
      }
    ],
    "types": {
      "t_address": {
        "encoding": "inplace",
        "label": "address",
        "numberOfBytes": "20"
      }
    }
  }
}