{
  "address": "0x98b656Ab246b6E04b17F878b8814e419DbA3A570",
  "abi": [
    {
      "inputs": [
        {
          "internalType": "contract IERC3156FlashLender",
          "name": "_flashLender",
          "type": "address"
        },
        {
          "internalType": "contract IOdosRouterV2",
          "name": "_odosRouter",
          "type": "address"
        }
      ],
      "stateMutability": "nonpayable",
      "type": "constructor"
    },
    {
      "inputs": [
        {
          "internalType": "uint256",
          "name": "debtTokenBalanceBeforeDeposit",
          "type": "uint256"
        },
        {
          "internalType": "uint256",
          "name": "debtTokenBalanceAfterDeposit",
          "type": "uint256"
        }
      ],
      "name": "DebtTokenBalanceNotIncreasedAfterDeposit",
      "type": "error"
    },
    {
      "inputs": [
        {
          "internalType": "uint256",
          "name": "debtTokenReceived",
          "type": "uint256"
        },
        {
          "internalType": "uint256",
          "name": "debtTokenUsed",
          "type": "uint256"
        },
        {
          "internalType": "uint256",
          "name": "flashLoanFee",
          "type": "uint256"
        }
      ],
      "name": "DebtTokenReceivedNotMetUsedAmountWithFlashLoanFee",
      "type": "error"
    },
    {
      "inputs": [
        {
          "internalType": "uint256",
          "name": "estimatedOverallSlippageBps",
          "type": "uint256"
        }
      ],
      "name": "EstimatedOverallSlippageBpsCannotExceedOneHundredPercent",
      "type": "error"
    },
    {
      "inputs": [
        {
          "internalType": "uint256",
          "name": "currentEstimatedShares",
          "type": "uint256"
        },
        {
          "internalType": "uint256",
          "name": "minOutputShares",
          "type": "uint256"
        }
      ],
      "name": "EstimatedSharesLessThanMinOutputShares",
      "type": "error"
    },
    {
      "inputs": [
        {
          "internalType": "address",
          "name": "flashLender",
          "type": "address"
        },
        {
          "internalType": "address",
          "name": "debtToken",
          "type": "address"
        }
      ],
      "name": "FlashLenderNotSameAsDebtToken",
      "type": "error"
    },
    {
      "inputs": [
        {
          "internalType": "address",
          "name": "currentDebtToken",
          "type": "address"
        },
        {
          "internalType": "address",
          "name": "dLoopCoreDebtToken",
          "type": "address"
        }
      ],
      "name": "IncompatibleDLoopCoreDebtToken",
      "type": "error"
    },
    {
      "inputs": [
        {
          "internalType": "uint256",
          "name": "inputTokenBalanceBefore",
          "type": "uint256"
        },
        {
          "internalType": "uint256",
          "name": "inputTokenBalanceAfter",
          "type": "uint256"
        }
      ],
      "name": "InputTokenBalanceDoesNotDecreaseAfterSwap",
      "type": "error"
    },
    {
      "inputs": [
        {
          "internalType": "uint256",
          "name": "leveragedCollateralAmount",
          "type": "uint256"
        },
        {
          "internalType": "uint256",
          "name": "assets",
          "type": "uint256"
        }
      ],
      "name": "LeveragedCollateralAmountLessThanAssets",
      "type": "error"
    },
    {
      "inputs": [
        {
          "internalType": "uint256",
          "name": "leveragedCollateralAmount",
          "type": "uint256"
        },
        {
          "internalType": "uint256",
          "name": "depositCollateralAmount",
          "type": "uint256"
        }
      ],
      "name": "LeveragedCollateralAmountLessThanDepositCollateralAmount",
      "type": "error"
    },
    {
      "inputs": [
        {
          "internalType": "uint256",
          "name": "outputTokenBalanceBefore",
          "type": "uint256"
        },
        {
          "internalType": "uint256",
          "name": "outputTokenBalanceAfter",
          "type": "uint256"
        }
      ],
      "name": "OutputTokenBalanceNotIncreasedAfterSwap",
      "type": "error"
    },
    {
      "inputs": [
        {
          "internalType": "address",
          "name": "owner",
          "type": "address"
        }
      ],
      "name": "OwnableInvalidOwner",
      "type": "error"
    },
    {
      "inputs": [
        {
          "internalType": "address",
          "name": "account",
          "type": "address"
        }
      ],
      "name": "OwnableUnauthorizedAccount",
      "type": "error"
    },
    {
      "inputs": [
        {
          "internalType": "uint256",
          "name": "receivedOutputTokenAmount",
          "type": "uint256"
        },
        {
          "internalType": "uint256",
          "name": "amountOut",
          "type": "uint256"
        }
      ],
      "name": "ReceivedOutputTokenAmountNotEqualAmountOut",
      "type": "error"
    },
    {
      "inputs": [
        {
          "internalType": "uint256",
          "name": "receivedShares",
          "type": "uint256"
        },
        {
          "internalType": "uint256",
          "name": "minOutputShares",
          "type": "uint256"
        }
      ],
      "name": "ReceivedSharesNotMetMinReceiveAmount",
      "type": "error"
    },
    {
      "inputs": [],
      "name": "ReentrancyGuardReentrantCall",
      "type": "error"
    },
    {
      "inputs": [
        {
          "internalType": "address",
          "name": "token",
          "type": "address"
        }
      ],
      "name": "SafeERC20FailedOperation",
      "type": "error"
    },
    {
      "inputs": [
        {
          "internalType": "uint256",
          "name": "sharesBeforeDeposit",
          "type": "uint256"
        },
        {
          "internalType": "uint256",
          "name": "sharesAfterDeposit",
          "type": "uint256"
        }
      ],
      "name": "SharesNotIncreasedAfterFlashLoan",
      "type": "error"
    },
    {
      "inputs": [
        {
          "internalType": "uint256",
          "name": "slippageBps",
          "type": "uint256"
        }
      ],
      "name": "SlippageBpsCannotExceedOneHundredPercent",
      "type": "error"
    },
    {
      "inputs": [
        {
          "internalType": "uint256",
          "name": "spentInputTokenAmount",
          "type": "uint256"
        },
        {
          "internalType": "uint256",
          "name": "amountInMaximum",
          "type": "uint256"
        }
      ],
      "name": "SpentInputTokenAmountGreaterThanAmountInMaximum",
      "type": "error"
    },
    {
      "inputs": [
        {
          "internalType": "uint256",
          "name": "spentInputTokenAmount",
          "type": "uint256"
        },
        {
          "internalType": "uint256",
          "name": "returnedAmountIn",
          "type": "uint256"
        }
      ],
      "name": "SpentInputTokenAmountNotEqualReturnedAmountIn",
      "type": "error"
    },
    {
      "inputs": [
        {
          "internalType": "address",
          "name": "initiator",
          "type": "address"
        },
        {
          "internalType": "address",
          "name": "thisContract",
          "type": "address"
        }
      ],
      "name": "UnknownInitiator",
      "type": "error"
    },
    {
      "inputs": [
        {
          "internalType": "address",
          "name": "msgSender",
          "type": "address"
        },
        {
          "internalType": "address",
          "name": "flashLender",
          "type": "address"
        }
      ],
      "name": "UnknownLender",
      "type": "error"
    },
    {
      "anonymous": false,
      "inputs": [
        {
          "indexed": true,
          "internalType": "address",
          "name": "debtToken",
          "type": "address"
        },
        {
          "indexed": false,
          "internalType": "uint256",
          "name": "amount",
          "type": "uint256"
        },
        {
          "indexed": true,
          "internalType": "address",
          "name": "receiver",
          "type": "address"
        }
      ],
      "name": "LeftoverDebtTokensTransferred",
      "type": "event"
    },
    {
      "anonymous": false,
      "inputs": [
        {
          "indexed": true,
          "internalType": "address",
          "name": "previousOwner",
          "type": "address"
        },
        {
          "indexed": true,
          "internalType": "address",
          "name": "newOwner",
          "type": "address"
        }
      ],
      "name": "OwnershipTransferred",
      "type": "event"
    },
    {
      "inputs": [],
      "name": "BALANCE_DIFF_TOLERANCE",
      "outputs": [
        {
          "internalType": "uint256",
          "name": "",
          "type": "uint256"
        }
      ],
      "stateMutability": "view",
      "type": "function"
    },
    {
      "inputs": [],
      "name": "FLASHLOAN_CALLBACK",
      "outputs": [
        {
          "internalType": "bytes32",
          "name": "",
          "type": "bytes32"
        }
      ],
      "stateMutability": "view",
      "type": "function"
    },
    {
      "inputs": [],
      "name": "breakPoint",
      "outputs": [
        {
          "internalType": "uint256",
          "name": "",
          "type": "uint256"
        }
      ],
      "stateMutability": "view",
      "type": "function"
    },
    {
      "inputs": [],
      "name": "breakPoint2",
      "outputs": [
        {
          "internalType": "uint256",
          "name": "",
          "type": "uint256"
        }
      ],
      "stateMutability": "view",
      "type": "function"
    },
    {
      "inputs": [
        {
          "internalType": "uint256",
          "name": "depositAmount",
          "type": "uint256"
        },
        {
          "internalType": "uint256",
          "name": "slippageBps",
          "type": "uint256"
        },
        {
          "internalType": "contract DLoopCoreBase",
          "name": "dLoopCore",
          "type": "address"
        }
      ],
      "name": "calculateMinOutputShares",
      "outputs": [
        {
          "internalType": "uint256",
          "name": "",
          "type": "uint256"
        }
      ],
      "stateMutability": "view",
      "type": "function"
    },
    {
      "inputs": [
        {
          "internalType": "uint256",
          "name": "assets",
          "type": "uint256"
        },
        {
          "internalType": "address",
          "name": "receiver",
          "type": "address"
        },
        {
          "internalType": "uint256",
          "name": "minOutputShares",
          "type": "uint256"
        },
        {
          "internalType": "bytes",
          "name": "debtTokenToCollateralSwapData",
          "type": "bytes"
        },
        {
          "internalType": "contract DLoopCoreBase",
          "name": "dLoopCore",
          "type": "address"
        }
      ],
      "name": "deposit",
      "outputs": [
        {
          "internalType": "uint256",
          "name": "shares",
          "type": "uint256"
        }
      ],
      "stateMutability": "nonpayable",
      "type": "function"
    },
    {
      "inputs": [
        {
          "internalType": "uint256",
          "name": "assets",
          "type": "uint256"
        },
        {
          "internalType": "uint256",
          "name": "minOutputShares",
          "type": "uint256"
        },
        {
          "internalType": "contract DLoopCoreBase",
          "name": "dLoopCore",
          "type": "address"
        }
      ],
      "name": "estimateFlashLoanSwapOutputCollateralAmount",
      "outputs": [
        {
          "internalType": "uint256",
          "name": "",
          "type": "uint256"
        }
      ],
      "stateMutability": "view",
      "type": "function"
    },
    {
      "inputs": [],
      "name": "flashLender",
      "outputs": [
        {
          "internalType": "contract IERC3156FlashLender",
          "name": "",
          "type": "address"
        }
      ],
      "stateMutability": "view",
      "type": "function"
    },
    {
      "inputs": [],
      "name": "getRestrictedRescueTokens",
      "outputs": [
        {
          "internalType": "address[]",
          "name": "restrictedTokens",
          "type": "address[]"
        }
      ],
      "stateMutability": "view",
      "type": "function"
    },
    {
      "inputs": [],
      "name": "odosRouter",
      "outputs": [
        {
          "internalType": "contract IOdosRouterV2",
          "name": "",
          "type": "address"
        }
      ],
      "stateMutability": "view",
      "type": "function"
    },
    {
      "inputs": [
        {
          "internalType": "address",
          "name": "initiator",
          "type": "address"
        },
        {
          "internalType": "address",
          "name": "token",
          "type": "address"
        },
        {
          "internalType": "uint256",
          "name": "",
          "type": "uint256"
        },
        {
          "internalType": "uint256",
          "name": "flashLoanFee",
          "type": "uint256"
        },
        {
          "internalType": "bytes",
          "name": "data",
          "type": "bytes"
        }
      ],
      "name": "onFlashLoan",
      "outputs": [
        {
          "internalType": "bytes32",
          "name": "",
          "type": "bytes32"
        }
      ],
      "stateMutability": "nonpayable",
      "type": "function"
    },
    {
      "inputs": [],
      "name": "owner",
      "outputs": [
        {
          "internalType": "address",
          "name": "",
          "type": "address"
        }
      ],
      "stateMutability": "view",
      "type": "function"
    },
    {
      "inputs": [],
      "name": "renounceOwnership",
      "outputs": [],
      "stateMutability": "nonpayable",
      "type": "function"
    },
    {
      "inputs": [
        {
          "internalType": "address",
          "name": "token",
          "type": "address"
        },
        {
          "internalType": "address",
          "name": "receiver",
          "type": "address"
        },
        {
          "internalType": "uint256",
          "name": "amount",
          "type": "uint256"
        }
      ],
      "name": "rescueToken",
      "outputs": [],
      "stateMutability": "nonpayable",
      "type": "function"
    },
    {
      "inputs": [
        {
          "internalType": "uint256",
          "name": "_breakPoint",
          "type": "uint256"
        }
      ],
      "name": "setBreakPoint",
      "outputs": [],
      "stateMutability": "nonpayable",
      "type": "function"
    },
    {
      "inputs": [
        {
          "internalType": "uint256",
          "name": "_breakPoint2",
          "type": "uint256"
        }
      ],
      "name": "setBreakPoint2",
      "outputs": [],
      "stateMutability": "nonpayable",
      "type": "function"
    },
    {
      "inputs": [
        {
          "internalType": "uint256",
          "name": "expectedOutputAmount",
          "type": "uint256"
        }
      ],
      "name": "swappedOutputDifferenceToleranceAmount",
      "outputs": [
        {
          "internalType": "uint256",
          "name": "",
          "type": "uint256"
        }
      ],
      "stateMutability": "pure",
      "type": "function"
    },
    {
      "inputs": [
        {
          "internalType": "address",
          "name": "newOwner",
          "type": "address"
        }
      ],
      "name": "transferOwnership",
      "outputs": [],
      "stateMutability": "nonpayable",
      "type": "function"
    }
  ],
  "transactionHash": "0x4a82d6b8d75ed175377dc13555add6e4d49252299edb5fd3019e3fdb44d19eb2",
  "args": [
    "0x53a6aBb52B2F968fA80dF6A894e4f1b1020DA975",
    "0xaC041Df48dF9791B0654f1Dbbf2CC8450C5f2e9D"
  ],
  "numDeployments": 1,
  "solcInputHash": "dad495a4ec4205f4453ee1a05159e8d2",
  "bytecode": "0x60c0346200012457601f62002dd438819003918201601f19168301916001600160401b0383118484101762000129578084926040948552833981010312620001245780516001600160a01b03918282168203620001245760200151908282168203620001245733156200010b576000543360018060a01b0319821617600055604051933391167f8be0079c531659141344cd1fd0a4f28419497f9722a3daafe3b4186f6b6457e0600080a36001805560805260a052612c9490816200014082396080518181816102ca015281816106e20152818161077b015281816107cc015281816108020152818161088101528181610bf60152610ef9015260a051818181610d3601526112b30152f35b604051631e4fbdf760e01b815260006004820152602490fd5b600080fd5b634e487b7160e01b600052604160045260246000fdfe608080604052600436101561001357600080fd5b60003560e01c90816323e30c8b14610eae575080632ae1810414610e73578063500fc43414610e0e5780635124756414610df5578063715018a614610d9c5780637ff2aa1414610d7e57806380799b5814610d655780638321928d14610d2057806387438b6a146104255780638b7a6dba1461035c5780638da5cb5b146103335780639d00f10814610317578063a3f06593146102f9578063a7714458146102b4578063aee5ae6a14610296578063cc66363614610244578063e5711e8b146101785763f2fde38b146100e557600080fd5b34610173576020366003190112610173576100fe6122b2565b610106612336565b6001600160a01b0390811690811561015a57600054826bffffffffffffffffffffffff60a01b821617600055167f8be0079c531659141344cd1fd0a4f28419497f9722a3daafe3b4186f6b6457e0600080a3005b604051631e4fbdf760e01b815260006004820152602490fd5b600080fd5b34610173576060366003190112610173576101916122b2565b6101996122c8565b906101a2612336565b6101aa612480565b6101b26124a3565b906001600160a01b039081169060005b835181101561023157602082818360051b870101511684146101ed57506101e890612362565b6101c2565b6064906040519062461bcd60e51b82526004820152601e60248201527f43616e6e6f7420726573637565207265737472696374656420746f6b656e00006044820152fd5b61023e60443586856123e1565b60018055005b346101735761025e6102553661230c565b90829392612b5c565b81811061027957602091610271916124dd565b604051908152f35b604491604051916346652e4760e11b835260048301526024820152fd5b34610173576020366003190112610173576020610271600435612c41565b34610173576000366003190112610173576040517f00000000000000000000000000000000000000000000000000000000000000006001600160a01b03168152602090f35b34610173576000366003190112610173576020600354604051908152f35b3461017357600036600319011261017357602060405160018152f35b34610173576000366003190112610173576000546040516001600160a01b039091168152602090f35b346101735761036a3661230c565b9091620f4240831161040c57610382826020926129e4565b6040516363737ac960e11b8152600481019190915291829060249082906001600160a01b03165afa908115610400576000916103ce575b6020610271836103c8866124cc565b906124ea565b90506020813d82116103f8575b816103e8602093836123bf565b81010312610173575160206103b9565b3d91506103db565b6040513d6000823e3d90fd5b60405163103b7d4960e11b815260048101849052602490fd5b346101735760a03660031901126101735761043e6122c8565b60643567ffffffffffffffff81116101735761045e9036906004016122de565b9091906084356001600160a01b03811690036101735761047c612480565b604051632c805af560e21b8152906020826004816084356001600160a01b03165afa91821561040057600092610cff575b50604051631f1b131360e31b8152906020826004816084356001600160a01b03165afa91821561040057600092610cc8575b506105286106b69293604051906323b872dd60e01b602083015233602483015230604483015260043560648301526064825261051a82612371565b6001600160a01b0316612424565b61069761053c608435604435600435612b5c565b95610617611fbb600354141561055189612804565b906106126059610562600435612804565b9361056e604435612804565b6040519586927f383132333a206c6576657261676564436f6c6c61746572616c416d6f756e743a60208501526105ae81518092602060408801910161263d565b8301671630b9b9b2ba399d60c11b60408201526105d582518093602060488501910161263d565b01701636b4b727baba383aba29b430b932b99d60791b6048820152610603825180936020878501910161263d565b010360398101855201836123bf565b612685565b61064c6040519161062783612371565b6001600160a01b03881683526004356020840190815260408401998a529436916126cd565b9081606082015260018060a01b0360843516608082015260018060a01b039051169251965160405197889460208601526040850152606084015260a0608084015260c0830190612660565b6001600160a01b036084351660a083015203601f1981018552846123bf565b60405163613255ab60e01b81526001600160a01b038281166004830152909390602090859060249082907f0000000000000000000000000000000000000000000000000000000000000000165afa93841561040057600094610c94575b506040516370a0823160e01b8152306004820152936020856024816084356001600160a01b03165afa94851561040057600095610c60575b50604051633676633960e21b81526001600160a01b038416600482015260248101829052602081806044810103817f00000000000000000000000000000000000000000000000000000000000000006001600160a01b03165afa90811561040057600091610c2c575b506107c26107f59183612704565b6001600160a01b037f00000000000000000000000000000000000000000000000000000000000000008116908616612711565b6001600160a01b038381167f000000000000000000000000000000000000000000000000000000000000000090911603610bdf5761271a60035414610bb257604051632e7ff4ef60e11b81523060048201526001600160a01b0384166024820152604481019190915260806064820152906020908290819061087b906084830190612660565b038160007f00000000000000000000000000000000000000000000000000000000000000006001600160a01b03165af1801561040057610b7a575b506003549261271b8414610b4d576040516370a0823160e01b8152306004820152906020826024816084356001600160a01b03165afa91821561040057600092610b19575b5080821115610afc5761271c8514610acf57610916916124dd565b926044358410610aaf5761271d14610a82576040516370a0823160e01b81523060048201526020816024816001600160a01b0386165afa90811561040057600091610a50575b50806109fb575b505061271e600354146109ce576109879082906084356001600160a01b03166123e1565b61271f600354146109a15760209060018055604051908152f35b60405162461bcd60e51b8152602060048201526005602482015264313030313560d81b6044820152606490fd5b60405162461bcd60e51b81526020600482015260056024820152640c4c0c0c4d60da1b6044820152606490fd5b610a0f81846001600160a01b0385166123e1565b6040519081526001600160a01b038381169216907f858a27e141780954fe5d38ba55127b6c35f8f5904c3a088438a18578d5d71eee90602090a38280610963565b90506020813d602011610a7a575b81610a6b602093836123bf565b8101031261017357518461095c565b3d9150610a5e565b60405162461bcd60e51b8152602060048201526005602482015264313030313360d81b6044820152606490fd5b6040516330cfb95f60e11b81526004810185905260448035602483015290fd5b60405162461bcd60e51b8152602060048201526005602482015264189818189960d91b6044820152606490fd5b6044916040519163f51cd51560e01b835260048301526024820152fd5b9091506020813d602011610b45575b81610b35602093836123bf565b81010312610173575190856108fb565b3d9150610b28565b60405162461bcd60e51b8152602060048201526005602482015264313030313160d81b6044820152606490fd5b6020813d602011610baa575b81610b93602093836123bf565b8101031261017357518015150361017357836108b6565b3d9150610b86565b60405162461bcd60e51b8152602060048201526005602482015264031303031360dc1b6044820152606490fd5b60405163aaae67a160e01b81526001600160a01b037f00000000000000000000000000000000000000000000000000000000000000008116600483015284166024820152604490fd5b0390fd5b90506020813d602011610c58575b81610c47602093836123bf565b8101031261017357516107c26107b4565b3d9150610c3a565b9094506020813d602011610c8c575b81610c7c602093836123bf565b810103126101735751938561074b565b3d9150610c6f565b9093506020813d602011610cc0575b81610cb0602093836123bf565b8101031261017357519284610713565b3d9150610ca3565b6106b69250610cf16105289160203d602011610cf8575b610ce981836123bf565b81019061261e565b92506104df565b503d610cdf565b610d1991925060203d602011610cf857610ce981836123bf565b90846104ad565b34610173576000366003190112610173576040517f00000000000000000000000000000000000000000000000000000000000000006001600160a01b03168152602090f35b3461017357602036600319011261017357600435600255005b34610173576000366003190112610173576020600254604051908152f35b3461017357600036600319011261017357610db5612336565b600080546001600160a01b0319811682556001600160a01b03167f8be0079c531659141344cd1fd0a4f28419497f9722a3daafe3b4186f6b6457e08280a3005b3461017357602036600319011261017357600435600355005b3461017357600036600319011261017357610e276124a3565b604051809160208083018184528251809152816040850193019160005b828110610e5357505050500390f35b83516001600160a01b031685528695509381019392810192600101610e44565b346101735760003660031901126101735760206040517f439148f0bbc682ca079e46d6e2c2f0c1e3b820f1a291b069d8882abf8cf18dd98152f35b346101735760a036600319011261017357610ec76122b2565b610ecf6122c8565b9167ffffffffffffffff9160843583811161017357610ef29036906004016122de565b90929091907f00000000000000000000000000000000000000000000000000000000000000006001600160a01b03163381900361228f575050306001600160a01b03821603612266575090610f489136916126cd565b9060405191610f5683612371565b60008352600060208401526000604084015260608084015260006080840152805181019160a082840312610173576020820151916001600160a01b03831683036101735760408101519160608201519160808101519182116101735760208601603f8383010112156101735760208282010151916020610fd5846126b1565b97610fe3604051998a6123bf565b848952016040848385010101116101735760a09261100a91604060208a019185010161263d565b01516001600160a01b03811694908590036101735784608087015260608601526040850152602084015260018060a01b0316825260405192632c805af560e21b8452602084600481855afa91821561040057600494600093612244575b5060209060405195868092631f1b131360e31b82525afa93841561040057600094612223575b506001600160a01b03848116908216036121f95750604082015160208301518082106121db5750506110c860408301516020840151906124dd565b6003546111486110d783612804565b61113d604a60405180937f32303030363a2072657175697265644164646974696f6e616c436f6c6c6174656020830152693930b620b6b7bab73a1d60b11b604083015261112d815180926020868601910161263d565b810103602a8101845201826123bf565b614e26831415612685565b600281905560608401516040516370a0823160e01b815230600482015292906020846024816001600160a01b038b165afa938415610400576000946121a7575b506040516370a0823160e01b8152306004820152926020846024816001600160a01b038a165afa93841561040057600094612173575b5061121d6111cb84612804565b61121260316040518093701a181818189d1030b6b7bab73a27baba1d60791b6020830152611202815180926020868601910161263d565b81010360118101845201826123bf565b619c41831415612685565b6040516370a0823160e01b8152306004820152916020836024816001600160a01b038d165afa9283156104005760009361213d575b5060405163e49524df60e01b81526001600160a01b03808b166004830152881660248201526044810185905260001960648201523060848201524260a482015261012060c482015291602091839182916112b190610124840190612660565b7f00000000000000000000000000000000000000000000000000000000000000006001600160a01b031660e4840152610104830191909152038173890338BC6C47b28751aB8FA19A6F58fFecAFF4c65af4801561040057612112575b506040516370a0823160e01b8152306004820152906020826024816001600160a01b038c165afa918215610400576000926120de575b50808210156120c15790611356916124dd565b9260025492619c428414612094576040516370a0823160e01b8152306004820152906020826024816001600160a01b038d165afa91821561040057600092612060575b506040516370a0823160e01b8152306004820152906020826024816001600160a01b038c165afa9182156104005760009261202c575b50619c438614611fff576113e48784866128d9565b619c448714611fd2578051611cb7575b50619c468614611c8a5761140785612c41565b60010180600111611c165761141e90868484612948565b93619c488714611c5d57845115611c405761143886612804565b926114466020870151612804565b946000936001805b611c2c575061145c856126b1565b9461146a60405196876123bf565b808652601f19611479826126b1565b013660208801376001805b611bb75750509261160f9695926114bb6114b661160497946114b06114aa609499612804565b94612804565b946124dd565b612804565b92604051978895701a1818181c9d1030b6b7bab73a27baba1d60791b60208801526114f081518092602060318b01910161263d565b86016e1637b139b2b93b32b22232b63a309d60891b603182015261151e82518093602060408501910161263d565b017f2c42414c414e43455f444946465f544f4c4552414e43453a0000000000000000604082015261155982518093602060588501910161263d565b017f2c6f7574707574546f6b656e42616c616e63654265666f72653a000000000000605882015261159482518093602060728501910161263d565b017f2c6f7574707574546f6b656e42616c616e636541667465723a0000000000000060728201526115cf825180936020608b8501910161263d565b01681634b72232b63a309d60b91b608b8201526115f5825180936020878501910161263d565b010360748101845201826123bf565b619c49851415612685565b604081015115611b94575050619c4a14611b6757614e2760035414611b3a576040516370a0823160e01b8152306004820152916020836024816001600160a01b0389165afa92831561040057600093611b06575b506040516370a0823160e01b8152306004820152936020856024816001600160a01b0386165afa94851561040057600095611ad1575b506080810151604082015160009260209290916116c3916001600160a01b03908116908716612711565b6044604060018060a01b036080840151169201516040519485938492636e553f6560e01b845260048401523060248401525af1801561040057611aa6575b506040516370a0823160e01b815230600482015294602090869060249082906001600160a01b03165afa94851561040057600095611a71575b506040516370a0823160e01b815230600482015290602090829060249082906001600160a01b03165afa90811561040057600091611a3f575b5082851115611a21576117936119589161178d85886124dd565b956124dd565b9261194d60c56117ae6117a860035499612804565b93612804565b926117b888612804565b6117c187612804565b97606435986117d86117d28b612804565b92612804565b926040519788957f33303030343a2064656274546f6b656e42616c616e636541667465724465706f60208801526339b4ba1d60e11b604088015261182681518092602060448b01910161263d565b86017f2c64656274546f6b656e42616c616e63654265666f72654465706f7369743a00604482015261186282518093602060638501910161263d565b017f2c64656274546f6b656e526563656976656441667465724465706f7369743a00606382015261189d82518093602060828501910161263d565b017f2c64656274546f6b656e416d6f756e7455736564496e537761703a000000000060828201526118d8825180936020609d8501910161263d565b016d16333630b9b42637b0b72332b29d60911b609d82015261190482518093602060ab8501910161263d565b017f2c636f6c6c61746572616c546f6b656e4465706f73697465643a00000000000060ab82015261193e825180936020878501910161263d565b010360a58101845201826123bf565b617534861415612685565b6119628282612704565b83106119fe578361753581146119d157614e28146119a45760206040517f439148f0bbc682ca079e46d6e2c2f0c1e3b820f1a291b069d8882abf8cf18dd98152f35b60405162461bcd60e51b8152602060048201526005602482015264064606060760db1b6044820152606490fd5b60405162461bcd60e51b8152602060048201526005602482015264333030303560d81b6044820152606490fd5b6064935060405192630901cbd360e21b8452600484015260248301526044820152fd5b6044838660405191633780efc760e21b835260048301526024820152fd5b90506020813d602011611a69575b81611a5a602093836123bf565b81010312610173575185611773565b3d9150611a4d565b9094506020813d602011611a9e575b81611a8d602093836123bf565b81010312610173575193602061173a565b3d9150611a80565b602090813d8311611aca575b611abc81836123bf565b810103126101735785611701565b503d611ab2565b9094506020813d602011611afe575b81611aed602093836123bf565b810103126101735751936020611699565b3d9150611ae0565b9092506020813d602011611b32575b81611b22602093836123bf565b8101031261017357519185611663565b3d9150611b15565b60405162461bcd60e51b8152602060048201526005602482015264323030303760d81b6044820152606490fd5b60405162461bcd60e51b8152602060048201526005602482015264034303031360dc1b6044820152606490fd5b90602060449201519060405191638919e25360e01b835260048301526024820152fd5b8190600a9160309383830685018511611c16578015611c165760001901938951851015611c00578383060160f81b6001600160f81b03191660001a908901601f01530480611484565b634e487b7160e01b600052603260045260246000fd5b634e487b7160e01b600052601160045260246000fd5b94611c38600a91612362565b95048061144e565b50604491604051916204bb6760e81b835260048301526024820152fd5b60405162461bcd60e51b8152602060048201526005602482015264068606060760db1b6044820152606490fd5b60405162461bcd60e51b81526020600482015260056024820152641a1818181b60d91b6044820152606490fd5b96929894909793611cca84979397612804565b99600097600019805b611fbe5750611ce1896126b1565b98611cef6040519a8b6123bf565b808a52601f19611cfe826126b1565b013660208c013760001990815b611f73575050611d1e60208b0151612804565b9a60009a6001805b611f5f5750611d348c6126b1565b9b611d426040519d8e6123bf565b808d52601f19611d51826126b1565b013660208f01379a60015b8c908015611dac57603091600a820683018311611c16578e15611c16578f9e600019019e8f90511115611c00578f90601f90600a9460ff60f81b908686060160f81b1660001a9201015304611d5c565b505092969a5093979b611f289195999d609891611f3395999d611dce8c612804565b90611dd88c612804565b926040519788956f1a1818181a9d1030b6b7bab73a24b71d60811b6020880152611e0c81518092602060308b01910161263d565b8601701630b6b7bab73a24b726b0bc34b6bab69d60791b6030820152611e3c82518093602060418501910161263d565b016e1637b139b2b93b32b22232b63a309d60891b6041820152611e6982518093602060508501910161263d565b017f42414c414e43455f444946465f544f4c4552414e43453a0000000000000000006050820152611ea482518093602060678501910161263d565b017f2c696e707574546f6b656e42616c616e63654265666f72653a000000000000006067820152611edf82518093602060808501910161263d565b017f2c696e707574546f6b656e42616c616e636541667465723a00000000000000006080820152611f19825180936020878501910161263d565b010360788101845201826123bf565b619c45891415612685565b60408101516113f45787602060449201519060405191637654e04760e11b835260048301526024820152fd5b9b611f6b600a91612362565b9c0480611d26565b8091603091600a820683018311611c16578015611c165760001901928c51841015611c0057600a928383060160f81b6001600160f81b03191660001a908d01601f0153049081611d0b565b98611fca600a91612362565b990480611cd3565b60405162461bcd60e51b81526020600482015260056024820152640d0c0c0c0d60da1b6044820152606490fd5b60405162461bcd60e51b8152602060048201526005602482015264343030303360d81b6044820152606490fd5b9091506020813d602011612058575b81612048602093836123bf565b810103126101735751908a6113cf565b3d915061203b565b9091506020813d60201161208c575b8161207c602093836123bf565b8101031261017357519089611399565b3d915061206f565b60405162461bcd60e51b81526020600482015260056024820152641a1818181960d91b6044820152606490fd5b6044916040519163b9a3476560e01b835260048301526024820152fd5b9091506020813d60201161210a575b816120fa602093836123bf565b8101031261017357519088611343565b3d91506120ed565b602090813d8311612136575b61212881836123bf565b81010312610173578761130d565b503d61211e565b9092506020813d60201161216b575b81612159602093836123bf565b810103126101735751916112b1611252565b3d915061214c565b9093506020813d60201161219f575b8161218f602093836123bf565b81010312610173575192886111be565b3d9150612182565b9093506020813d6020116121d3575b816121c3602093836123bf565b8101031261017357519287611188565b3d91506121b6565b6044925060405191635195adaf60e11b835260048301526024820152fd5b60405163c7f1118d60e01b81526001600160a01b0391821660048201529084166024820152604490fd5b61223d91945060203d602011610cf857610ce981836123bf565b928461108d565b602091935061225f90823d8411610cf857610ce981836123bf565b9290611067565b604051636705ec4760e11b81526001600160a01b03919091166004820152306024820152604490fd5b631a01026f60e01b82523360048301526001600160a01b03166024820152604490fd5b600435906001600160a01b038216820361017357565b602435906001600160a01b038216820361017357565b9181601f840112156101735782359167ffffffffffffffff8311610173576020838186019501011161017357565b60609060031901126101735760043590602435906044356001600160a01b03811681036101735790565b6000546001600160a01b0316330361234a57565b60405163118cdaa760e01b8152336004820152602490fd5b6000198114611c165760010190565b60a0810190811067ffffffffffffffff82111761238d57604052565b634e487b7160e01b600052604160045260246000fd5b6060810190811067ffffffffffffffff82111761238d57604052565b90601f8019910116810190811067ffffffffffffffff82111761238d57604052565b60405163a9059cbb60e01b60208201526001600160a01b039290921660248301526044808301939093529181526124229161241d6064836123bf565b612424565b565b906000602091828151910182855af115610400576000513d61247757506001600160a01b0381163b155b6124555750565b604051635274afe760e01b81526001600160a01b039091166004820152602490fd5b6001141561244e565b600260015414612491576002600155565b604051633ee5aeb560e01b8152600490fd5b6040516020810181811067ffffffffffffffff82111761238d5760405260008152906000368137565b90620f4240918203918211611c1657565b91908203918211611c1657565b906000198183098183029182808310920391808303921461255b57620f42409082821115612548577fde8f6cefed634549b62c77574f722e1ac57e23f24d8fd5cb790fb65668c26139940990828211900360fa1b910360061c170290565b634e487b7160005260116020526024601cfd5b5050620f424091500490565b620f42409160001983830992808302928380861095039480860395146125fa57848311156125e1579082910981600003821680920460028082600302188083028203028083028203028083028203028083028203028083028203028092029003029360018380600003040190848311900302920304170290565b82634e487b71600052156003026011186020526024601cfd5b505080925015612608570490565b634e487b7160e01b600052601260045260246000fd5b9081602091031261017357516001600160a01b03811681036101735790565b60005b8381106126505750506000910152565b8181015183820152602001612640565b906020916126798151809281855285808601910161263d565b601f01601f1916010190565b1561268d5750565b60405162461bcd60e51b815260206004820152908190610c28906024830190612660565b67ffffffffffffffff811161238d57601f01601f191660200190565b9291926126d9826126b1565b916126e760405193846123bf565b829481845281830111610173578281602093846000960137010152565b91908201809211611c1657565b60405163095ea7b360e01b602082018181526001600160a01b03851660248401526044808401969096529482529493909261274d6064856123bf565b60206000809386519082875af182513d826127df575b505015612773575b505050509050565b60405160208101969096526001600160a01b0316602486015260448086018290528552608085019067ffffffffffffffff8211868310176127cb57506127c1939461241d9160405282612424565b803880808061276b565b634e487b7160e01b81526041600452602490fd5b9091506127fc57506001600160a01b0383163b15155b3880612763565b6001146127f5565b80156128aa5780816000925b612896575061281e826126b1565b9161282c60405193846123bf565b808352601f1961283b826126b1565b0190602091368386013791805b6128525750505090565b600a906030938282068501809511611c16578015611c16576000190180948651821015611c005760f81b6001600160f81b03191660001a9086018401530480612848565b916128a2600a91612362565b920480612810565b506040516040810181811067ffffffffffffffff82111761238d5760405260018152600360fc1b602082015290565b919091604051906128e9826123a3565b60208201600081526040830191600083528395818110808652612935575b50505081511561292b5750506129219060208301516129b0565b1515604082015290565b6000905292915050565b61293e916124dd565b9052388080612907565b9192909260405193612959856123a3565b6020850160008152604086019160008352869580821180895261299d575b505050845115612992575082935060206129219301516129d2565b915050600091505290565b6129a6916124dd565b9052388080612977565b6001918082116129c957906129c4916124dd565b111590565b6129c4916124dd565b908082116129c957906129c4916124dd565b6040805163415c506960e01b8082529194936001600160a01b0316916020918281600481875afa908115612b5157600091612b24575b5060009015612a8f57508190600487518095819382525afa948515612a855750600094612a52575b505091612a4f91926124ea565b90565b81813d8311612a7e575b612a6681836123bf565b81010312612a7a57519250612a4f38612a42565b8380fd5b503d612a5c565b513d6000823e3d90fd5b9282915091600492879596975193848092637aa7c3c160e01b82525afa938415612b1b57508293612acf575b5050509063ffffffff612a4f9216906124ea565b9080929350813d8311612b14575b612ae781836123bf565b81010312612b1057519063ffffffff82168203612b0d575063ffffffff612a4f38612abb565b80fd5b5080fd5b503d612add565b513d84823e3d90fd5b908382813d8311612b4a575b612b3a81836123bf565b81010312612b0d57505138612a1a565b503d612b30565b87513d6000823e3d90fd5b906020612b6e846024949695966129e4565b6040516363737ac960e11b81526004810182905290959093849182906001600160a01b03165afa91821561040057600092612c0e575b50808210612bf05790612bba612bbf92826124dd565b612567565b91620f42408311612bd7576103c8612a4f92936124cc565b60405163cc1d13b160e01b815260048101849052602490fd5b60449250604051916303a4989b60e21b835260048301526024820152fd5b90916020823d8211612c39575b81612c28602093836123bf565b81010312612b0d5750519038612ba4565b3d9150612c1b565b61271090818102918183041490151715611c1657620f424090049056fea26469706673582212204b3c416d3a747076e59f4f1b45d8990464c68a1165ed3cb464e3ce46b27d0d8864736f6c63430008140033",
  "deployedBytecode": "0x608080604052600436101561001357600080fd5b60003560e01c90816323e30c8b14610eae575080632ae1810414610e73578063500fc43414610e0e5780635124756414610df5578063715018a614610d9c5780637ff2aa1414610d7e57806380799b5814610d655780638321928d14610d2057806387438b6a146104255780638b7a6dba1461035c5780638da5cb5b146103335780639d00f10814610317578063a3f06593146102f9578063a7714458146102b4578063aee5ae6a14610296578063cc66363614610244578063e5711e8b146101785763f2fde38b146100e557600080fd5b34610173576020366003190112610173576100fe6122b2565b610106612336565b6001600160a01b0390811690811561015a57600054826bffffffffffffffffffffffff60a01b821617600055167f8be0079c531659141344cd1fd0a4f28419497f9722a3daafe3b4186f6b6457e0600080a3005b604051631e4fbdf760e01b815260006004820152602490fd5b600080fd5b34610173576060366003190112610173576101916122b2565b6101996122c8565b906101a2612336565b6101aa612480565b6101b26124a3565b906001600160a01b039081169060005b835181101561023157602082818360051b870101511684146101ed57506101e890612362565b6101c2565b6064906040519062461bcd60e51b82526004820152601e60248201527f43616e6e6f7420726573637565207265737472696374656420746f6b656e00006044820152fd5b61023e60443586856123e1565b60018055005b346101735761025e6102553661230c565b90829392612b5c565b81811061027957602091610271916124dd565b604051908152f35b604491604051916346652e4760e11b835260048301526024820152fd5b34610173576020366003190112610173576020610271600435612c41565b34610173576000366003190112610173576040517f00000000000000000000000000000000000000000000000000000000000000006001600160a01b03168152602090f35b34610173576000366003190112610173576020600354604051908152f35b3461017357600036600319011261017357602060405160018152f35b34610173576000366003190112610173576000546040516001600160a01b039091168152602090f35b346101735761036a3661230c565b9091620f4240831161040c57610382826020926129e4565b6040516363737ac960e11b8152600481019190915291829060249082906001600160a01b03165afa908115610400576000916103ce575b6020610271836103c8866124cc565b906124ea565b90506020813d82116103f8575b816103e8602093836123bf565b81010312610173575160206103b9565b3d91506103db565b6040513d6000823e3d90fd5b60405163103b7d4960e11b815260048101849052602490fd5b346101735760a03660031901126101735761043e6122c8565b60643567ffffffffffffffff81116101735761045e9036906004016122de565b9091906084356001600160a01b03811690036101735761047c612480565b604051632c805af560e21b8152906020826004816084356001600160a01b03165afa91821561040057600092610cff575b50604051631f1b131360e31b8152906020826004816084356001600160a01b03165afa91821561040057600092610cc8575b506105286106b69293604051906323b872dd60e01b602083015233602483015230604483015260043560648301526064825261051a82612371565b6001600160a01b0316612424565b61069761053c608435604435600435612b5c565b95610617611fbb600354141561055189612804565b906106126059610562600435612804565b9361056e604435612804565b6040519586927f383132333a206c6576657261676564436f6c6c61746572616c416d6f756e743a60208501526105ae81518092602060408801910161263d565b8301671630b9b9b2ba399d60c11b60408201526105d582518093602060488501910161263d565b01701636b4b727baba383aba29b430b932b99d60791b6048820152610603825180936020878501910161263d565b010360398101855201836123bf565b612685565b61064c6040519161062783612371565b6001600160a01b03881683526004356020840190815260408401998a529436916126cd565b9081606082015260018060a01b0360843516608082015260018060a01b039051169251965160405197889460208601526040850152606084015260a0608084015260c0830190612660565b6001600160a01b036084351660a083015203601f1981018552846123bf565b60405163613255ab60e01b81526001600160a01b038281166004830152909390602090859060249082907f0000000000000000000000000000000000000000000000000000000000000000165afa93841561040057600094610c94575b506040516370a0823160e01b8152306004820152936020856024816084356001600160a01b03165afa94851561040057600095610c60575b50604051633676633960e21b81526001600160a01b038416600482015260248101829052602081806044810103817f00000000000000000000000000000000000000000000000000000000000000006001600160a01b03165afa90811561040057600091610c2c575b506107c26107f59183612704565b6001600160a01b037f00000000000000000000000000000000000000000000000000000000000000008116908616612711565b6001600160a01b038381167f000000000000000000000000000000000000000000000000000000000000000090911603610bdf5761271a60035414610bb257604051632e7ff4ef60e11b81523060048201526001600160a01b0384166024820152604481019190915260806064820152906020908290819061087b906084830190612660565b038160007f00000000000000000000000000000000000000000000000000000000000000006001600160a01b03165af1801561040057610b7a575b506003549261271b8414610b4d576040516370a0823160e01b8152306004820152906020826024816084356001600160a01b03165afa91821561040057600092610b19575b5080821115610afc5761271c8514610acf57610916916124dd565b926044358410610aaf5761271d14610a82576040516370a0823160e01b81523060048201526020816024816001600160a01b0386165afa90811561040057600091610a50575b50806109fb575b505061271e600354146109ce576109879082906084356001600160a01b03166123e1565b61271f600354146109a15760209060018055604051908152f35b60405162461bcd60e51b8152602060048201526005602482015264313030313560d81b6044820152606490fd5b60405162461bcd60e51b81526020600482015260056024820152640c4c0c0c4d60da1b6044820152606490fd5b610a0f81846001600160a01b0385166123e1565b6040519081526001600160a01b038381169216907f858a27e141780954fe5d38ba55127b6c35f8f5904c3a088438a18578d5d71eee90602090a38280610963565b90506020813d602011610a7a575b81610a6b602093836123bf565b8101031261017357518461095c565b3d9150610a5e565b60405162461bcd60e51b8152602060048201526005602482015264313030313360d81b6044820152606490fd5b6040516330cfb95f60e11b81526004810185905260448035602483015290fd5b60405162461bcd60e51b8152602060048201526005602482015264189818189960d91b6044820152606490fd5b6044916040519163f51cd51560e01b835260048301526024820152fd5b9091506020813d602011610b45575b81610b35602093836123bf565b81010312610173575190856108fb565b3d9150610b28565b60405162461bcd60e51b8152602060048201526005602482015264313030313160d81b6044820152606490fd5b6020813d602011610baa575b81610b93602093836123bf565b8101031261017357518015150361017357836108b6565b3d9150610b86565b60405162461bcd60e51b8152602060048201526005602482015264031303031360dc1b6044820152606490fd5b60405163aaae67a160e01b81526001600160a01b037f00000000000000000000000000000000000000000000000000000000000000008116600483015284166024820152604490fd5b0390fd5b90506020813d602011610c58575b81610c47602093836123bf565b8101031261017357516107c26107b4565b3d9150610c3a565b9094506020813d602011610c8c575b81610c7c602093836123bf565b810103126101735751938561074b565b3d9150610c6f565b9093506020813d602011610cc0575b81610cb0602093836123bf565b8101031261017357519284610713565b3d9150610ca3565b6106b69250610cf16105289160203d602011610cf8575b610ce981836123bf565b81019061261e565b92506104df565b503d610cdf565b610d1991925060203d602011610cf857610ce981836123bf565b90846104ad565b34610173576000366003190112610173576040517f00000000000000000000000000000000000000000000000000000000000000006001600160a01b03168152602090f35b3461017357602036600319011261017357600435600255005b34610173576000366003190112610173576020600254604051908152f35b3461017357600036600319011261017357610db5612336565b600080546001600160a01b0319811682556001600160a01b03167f8be0079c531659141344cd1fd0a4f28419497f9722a3daafe3b4186f6b6457e08280a3005b3461017357602036600319011261017357600435600355005b3461017357600036600319011261017357610e276124a3565b604051809160208083018184528251809152816040850193019160005b828110610e5357505050500390f35b83516001600160a01b031685528695509381019392810192600101610e44565b346101735760003660031901126101735760206040517f439148f0bbc682ca079e46d6e2c2f0c1e3b820f1a291b069d8882abf8cf18dd98152f35b346101735760a036600319011261017357610ec76122b2565b610ecf6122c8565b9167ffffffffffffffff9160843583811161017357610ef29036906004016122de565b90929091907f00000000000000000000000000000000000000000000000000000000000000006001600160a01b03163381900361228f575050306001600160a01b03821603612266575090610f489136916126cd565b9060405191610f5683612371565b60008352600060208401526000604084015260608084015260006080840152805181019160a082840312610173576020820151916001600160a01b03831683036101735760408101519160608201519160808101519182116101735760208601603f8383010112156101735760208282010151916020610fd5846126b1565b97610fe3604051998a6123bf565b848952016040848385010101116101735760a09261100a91604060208a019185010161263d565b01516001600160a01b03811694908590036101735784608087015260608601526040850152602084015260018060a01b0316825260405192632c805af560e21b8452602084600481855afa91821561040057600494600093612244575b5060209060405195868092631f1b131360e31b82525afa93841561040057600094612223575b506001600160a01b03848116908216036121f95750604082015160208301518082106121db5750506110c860408301516020840151906124dd565b6003546111486110d783612804565b61113d604a60405180937f32303030363a2072657175697265644164646974696f6e616c436f6c6c6174656020830152693930b620b6b7bab73a1d60b11b604083015261112d815180926020868601910161263d565b810103602a8101845201826123bf565b614e26831415612685565b600281905560608401516040516370a0823160e01b815230600482015292906020846024816001600160a01b038b165afa938415610400576000946121a7575b506040516370a0823160e01b8152306004820152926020846024816001600160a01b038a165afa93841561040057600094612173575b5061121d6111cb84612804565b61121260316040518093701a181818189d1030b6b7bab73a27baba1d60791b6020830152611202815180926020868601910161263d565b81010360118101845201826123bf565b619c41831415612685565b6040516370a0823160e01b8152306004820152916020836024816001600160a01b038d165afa9283156104005760009361213d575b5060405163e49524df60e01b81526001600160a01b03808b166004830152881660248201526044810185905260001960648201523060848201524260a482015261012060c482015291602091839182916112b190610124840190612660565b7f00000000000000000000000000000000000000000000000000000000000000006001600160a01b031660e4840152610104830191909152038173__$73ace4aa8e5f9c1a2b48f796123ca85165$__5af4801561040057612112575b506040516370a0823160e01b8152306004820152906020826024816001600160a01b038c165afa918215610400576000926120de575b50808210156120c15790611356916124dd565b9260025492619c428414612094576040516370a0823160e01b8152306004820152906020826024816001600160a01b038d165afa91821561040057600092612060575b506040516370a0823160e01b8152306004820152906020826024816001600160a01b038c165afa9182156104005760009261202c575b50619c438614611fff576113e48784866128d9565b619c448714611fd2578051611cb7575b50619c468614611c8a5761140785612c41565b60010180600111611c165761141e90868484612948565b93619c488714611c5d57845115611c405761143886612804565b926114466020870151612804565b946000936001805b611c2c575061145c856126b1565b9461146a60405196876123bf565b808652601f19611479826126b1565b013660208801376001805b611bb75750509261160f9695926114bb6114b661160497946114b06114aa609499612804565b94612804565b946124dd565b612804565b92604051978895701a1818181c9d1030b6b7bab73a27baba1d60791b60208801526114f081518092602060318b01910161263d565b86016e1637b139b2b93b32b22232b63a309d60891b603182015261151e82518093602060408501910161263d565b017f2c42414c414e43455f444946465f544f4c4552414e43453a0000000000000000604082015261155982518093602060588501910161263d565b017f2c6f7574707574546f6b656e42616c616e63654265666f72653a000000000000605882015261159482518093602060728501910161263d565b017f2c6f7574707574546f6b656e42616c616e636541667465723a0000000000000060728201526115cf825180936020608b8501910161263d565b01681634b72232b63a309d60b91b608b8201526115f5825180936020878501910161263d565b010360748101845201826123bf565b619c49851415612685565b604081015115611b94575050619c4a14611b6757614e2760035414611b3a576040516370a0823160e01b8152306004820152916020836024816001600160a01b0389165afa92831561040057600093611b06575b506040516370a0823160e01b8152306004820152936020856024816001600160a01b0386165afa94851561040057600095611ad1575b506080810151604082015160009260209290916116c3916001600160a01b03908116908716612711565b6044604060018060a01b036080840151169201516040519485938492636e553f6560e01b845260048401523060248401525af1801561040057611aa6575b506040516370a0823160e01b815230600482015294602090869060249082906001600160a01b03165afa94851561040057600095611a71575b506040516370a0823160e01b815230600482015290602090829060249082906001600160a01b03165afa90811561040057600091611a3f575b5082851115611a21576117936119589161178d85886124dd565b956124dd565b9261194d60c56117ae6117a860035499612804565b93612804565b926117b888612804565b6117c187612804565b97606435986117d86117d28b612804565b92612804565b926040519788957f33303030343a2064656274546f6b656e42616c616e636541667465724465706f60208801526339b4ba1d60e11b604088015261182681518092602060448b01910161263d565b86017f2c64656274546f6b656e42616c616e63654265666f72654465706f7369743a00604482015261186282518093602060638501910161263d565b017f2c64656274546f6b656e526563656976656441667465724465706f7369743a00606382015261189d82518093602060828501910161263d565b017f2c64656274546f6b656e416d6f756e7455736564496e537761703a000000000060828201526118d8825180936020609d8501910161263d565b016d16333630b9b42637b0b72332b29d60911b609d82015261190482518093602060ab8501910161263d565b017f2c636f6c6c61746572616c546f6b656e4465706f73697465643a00000000000060ab82015261193e825180936020878501910161263d565b010360a58101845201826123bf565b617534861415612685565b6119628282612704565b83106119fe578361753581146119d157614e28146119a45760206040517f439148f0bbc682ca079e46d6e2c2f0c1e3b820f1a291b069d8882abf8cf18dd98152f35b60405162461bcd60e51b8152602060048201526005602482015264064606060760db1b6044820152606490fd5b60405162461bcd60e51b8152602060048201526005602482015264333030303560d81b6044820152606490fd5b6064935060405192630901cbd360e21b8452600484015260248301526044820152fd5b6044838660405191633780efc760e21b835260048301526024820152fd5b90506020813d602011611a69575b81611a5a602093836123bf565b81010312610173575185611773565b3d9150611a4d565b9094506020813d602011611a9e575b81611a8d602093836123bf565b81010312610173575193602061173a565b3d9150611a80565b602090813d8311611aca575b611abc81836123bf565b810103126101735785611701565b503d611ab2565b9094506020813d602011611afe575b81611aed602093836123bf565b810103126101735751936020611699565b3d9150611ae0565b9092506020813d602011611b32575b81611b22602093836123bf565b8101031261017357519185611663565b3d9150611b15565b60405162461bcd60e51b8152602060048201526005602482015264323030303760d81b6044820152606490fd5b60405162461bcd60e51b8152602060048201526005602482015264034303031360dc1b6044820152606490fd5b90602060449201519060405191638919e25360e01b835260048301526024820152fd5b8190600a9160309383830685018511611c16578015611c165760001901938951851015611c00578383060160f81b6001600160f81b03191660001a908901601f01530480611484565b634e487b7160e01b600052603260045260246000fd5b634e487b7160e01b600052601160045260246000fd5b94611c38600a91612362565b95048061144e565b50604491604051916204bb6760e81b835260048301526024820152fd5b60405162461bcd60e51b8152602060048201526005602482015264068606060760db1b6044820152606490fd5b60405162461bcd60e51b81526020600482015260056024820152641a1818181b60d91b6044820152606490fd5b96929894909793611cca84979397612804565b99600097600019805b611fbe5750611ce1896126b1565b98611cef6040519a8b6123bf565b808a52601f19611cfe826126b1565b013660208c013760001990815b611f73575050611d1e60208b0151612804565b9a60009a6001805b611f5f5750611d348c6126b1565b9b611d426040519d8e6123bf565b808d52601f19611d51826126b1565b013660208f01379a60015b8c908015611dac57603091600a820683018311611c16578e15611c16578f9e600019019e8f90511115611c00578f90601f90600a9460ff60f81b908686060160f81b1660001a9201015304611d5c565b505092969a5093979b611f289195999d609891611f3395999d611dce8c612804565b90611dd88c612804565b926040519788956f1a1818181a9d1030b6b7bab73a24b71d60811b6020880152611e0c81518092602060308b01910161263d565b8601701630b6b7bab73a24b726b0bc34b6bab69d60791b6030820152611e3c82518093602060418501910161263d565b016e1637b139b2b93b32b22232b63a309d60891b6041820152611e6982518093602060508501910161263d565b017f42414c414e43455f444946465f544f4c4552414e43453a0000000000000000006050820152611ea482518093602060678501910161263d565b017f2c696e707574546f6b656e42616c616e63654265666f72653a000000000000006067820152611edf82518093602060808501910161263d565b017f2c696e707574546f6b656e42616c616e636541667465723a00000000000000006080820152611f19825180936020878501910161263d565b010360788101845201826123bf565b619c45891415612685565b60408101516113f45787602060449201519060405191637654e04760e11b835260048301526024820152fd5b9b611f6b600a91612362565b9c0480611d26565b8091603091600a820683018311611c16578015611c165760001901928c51841015611c0057600a928383060160f81b6001600160f81b03191660001a908d01601f0153049081611d0b565b98611fca600a91612362565b990480611cd3565b60405162461bcd60e51b81526020600482015260056024820152640d0c0c0c0d60da1b6044820152606490fd5b60405162461bcd60e51b8152602060048201526005602482015264343030303360d81b6044820152606490fd5b9091506020813d602011612058575b81612048602093836123bf565b810103126101735751908a6113cf565b3d915061203b565b9091506020813d60201161208c575b8161207c602093836123bf565b8101031261017357519089611399565b3d915061206f565b60405162461bcd60e51b81526020600482015260056024820152641a1818181960d91b6044820152606490fd5b6044916040519163b9a3476560e01b835260048301526024820152fd5b9091506020813d60201161210a575b816120fa602093836123bf565b8101031261017357519088611343565b3d91506120ed565b602090813d8311612136575b61212881836123bf565b81010312610173578761130d565b503d61211e565b9092506020813d60201161216b575b81612159602093836123bf565b810103126101735751916112b1611252565b3d915061214c565b9093506020813d60201161219f575b8161218f602093836123bf565b81010312610173575192886111be565b3d9150612182565b9093506020813d6020116121d3575b816121c3602093836123bf565b8101031261017357519287611188565b3d91506121b6565b6044925060405191635195adaf60e11b835260048301526024820152fd5b60405163c7f1118d60e01b81526001600160a01b0391821660048201529084166024820152604490fd5b61223d91945060203d602011610cf857610ce981836123bf565b928461108d565b602091935061225f90823d8411610cf857610ce981836123bf565b9290611067565b604051636705ec4760e11b81526001600160a01b03919091166004820152306024820152604490fd5b631a01026f60e01b82523360048301526001600160a01b03166024820152604490fd5b600435906001600160a01b038216820361017357565b602435906001600160a01b038216820361017357565b9181601f840112156101735782359167ffffffffffffffff8311610173576020838186019501011161017357565b60609060031901126101735760043590602435906044356001600160a01b03811681036101735790565b6000546001600160a01b0316330361234a57565b60405163118cdaa760e01b8152336004820152602490fd5b6000198114611c165760010190565b60a0810190811067ffffffffffffffff82111761238d57604052565b634e487b7160e01b600052604160045260246000fd5b6060810190811067ffffffffffffffff82111761238d57604052565b90601f8019910116810190811067ffffffffffffffff82111761238d57604052565b60405163a9059cbb60e01b60208201526001600160a01b039290921660248301526044808301939093529181526124229161241d6064836123bf565b612424565b565b906000602091828151910182855af115610400576000513d61247757506001600160a01b0381163b155b6124555750565b604051635274afe760e01b81526001600160a01b039091166004820152602490fd5b6001141561244e565b600260015414612491576002600155565b604051633ee5aeb560e01b8152600490fd5b6040516020810181811067ffffffffffffffff82111761238d5760405260008152906000368137565b90620f4240918203918211611c1657565b91908203918211611c1657565b906000198183098183029182808310920391808303921461255b57620f42409082821115612548577fde8f6cefed634549b62c77574f722e1ac57e23f24d8fd5cb790fb65668c26139940990828211900360fa1b910360061c170290565b634e487b7160005260116020526024601cfd5b5050620f424091500490565b620f42409160001983830992808302928380861095039480860395146125fa57848311156125e1579082910981600003821680920460028082600302188083028203028083028203028083028203028083028203028083028203028092029003029360018380600003040190848311900302920304170290565b82634e487b71600052156003026011186020526024601cfd5b505080925015612608570490565b634e487b7160e01b600052601260045260246000fd5b9081602091031261017357516001600160a01b03811681036101735790565b60005b8381106126505750506000910152565b8181015183820152602001612640565b906020916126798151809281855285808601910161263d565b601f01601f1916010190565b1561268d5750565b60405162461bcd60e51b815260206004820152908190610c28906024830190612660565b67ffffffffffffffff811161238d57601f01601f191660200190565b9291926126d9826126b1565b916126e760405193846123bf565b829481845281830111610173578281602093846000960137010152565b91908201809211611c1657565b60405163095ea7b360e01b602082018181526001600160a01b03851660248401526044808401969096529482529493909261274d6064856123bf565b60206000809386519082875af182513d826127df575b505015612773575b505050509050565b60405160208101969096526001600160a01b0316602486015260448086018290528552608085019067ffffffffffffffff8211868310176127cb57506127c1939461241d9160405282612424565b803880808061276b565b634e487b7160e01b81526041600452602490fd5b9091506127fc57506001600160a01b0383163b15155b3880612763565b6001146127f5565b80156128aa5780816000925b612896575061281e826126b1565b9161282c60405193846123bf565b808352601f1961283b826126b1565b0190602091368386013791805b6128525750505090565b600a906030938282068501809511611c16578015611c16576000190180948651821015611c005760f81b6001600160f81b03191660001a9086018401530480612848565b916128a2600a91612362565b920480612810565b506040516040810181811067ffffffffffffffff82111761238d5760405260018152600360fc1b602082015290565b919091604051906128e9826123a3565b60208201600081526040830191600083528395818110808652612935575b50505081511561292b5750506129219060208301516129b0565b1515604082015290565b6000905292915050565b61293e916124dd565b9052388080612907565b9192909260405193612959856123a3565b6020850160008152604086019160008352869580821180895261299d575b505050845115612992575082935060206129219301516129d2565b915050600091505290565b6129a6916124dd565b9052388080612977565b6001918082116129c957906129c4916124dd565b111590565b6129c4916124dd565b908082116129c957906129c4916124dd565b6040805163415c506960e01b8082529194936001600160a01b0316916020918281600481875afa908115612b5157600091612b24575b5060009015612a8f57508190600487518095819382525afa948515612a855750600094612a52575b505091612a4f91926124ea565b90565b81813d8311612a7e575b612a6681836123bf565b81010312612a7a57519250612a4f38612a42565b8380fd5b503d612a5c565b513d6000823e3d90fd5b9282915091600492879596975193848092637aa7c3c160e01b82525afa938415612b1b57508293612acf575b5050509063ffffffff612a4f9216906124ea565b9080929350813d8311612b14575b612ae781836123bf565b81010312612b1057519063ffffffff82168203612b0d575063ffffffff612a4f38612abb565b80fd5b5080fd5b503d612add565b513d84823e3d90fd5b908382813d8311612b4a575b612b3a81836123bf565b81010312612b0d57505138612a1a565b503d612b30565b87513d6000823e3d90fd5b906020612b6e846024949695966129e4565b6040516363737ac960e11b81526004810182905290959093849182906001600160a01b03165afa91821561040057600092612c0e575b50808210612bf05790612bba612bbf92826124dd565b612567565b91620f42408311612bd7576103c8612a4f92936124cc565b60405163cc1d13b160e01b815260048101849052602490fd5b60449250604051916303a4989b60e21b835260048301526024820152fd5b90916020823d8211612c39575b81612c28602093836123bf565b81010312612b0d5750519038612ba4565b3d9150612c1b565b61271090818102918183041490151715611c1657620f424090049056fea26469706673582212204b3c416d3a747076e59f4f1b45d8990464c68a1165ed3cb464e3ce46b27d0d8864736f6c63430008140033",
  "libraries": {
    "OdosSwapLogic": "0x890338BC6C47b28751aB8FA19A6F58fFecAFF4c6"
  }
}