{
  "address": "0xb69423F8EC3E313C14A32962B93F8C0Dd8593FA5",
  "abi": [
    {
      "inputs": [
        {
          "internalType": "contract IERC3156FlashLender",
          "name": "_flashLender",
          "type": "address"
        },
        {
          "internalType": "contract IOdosRouterV2",
          "name": "_odosRouter",
          "type": "address"
        }
      ],
      "stateMutability": "nonpayable",
      "type": "constructor"
    },
    {
      "inputs": [
        {
          "internalType": "uint256",
          "name": "debtTokenBalanceBeforeDeposit",
          "type": "uint256"
        },
        {
          "internalType": "uint256",
          "name": "debtTokenBalanceAfterDeposit",
          "type": "uint256"
        }
      ],
      "name": "DebtTokenBalanceNotIncreasedAfterDeposit",
      "type": "error"
    },
    {
      "inputs": [
        {
          "internalType": "uint256",
          "name": "debtTokenReceived",
          "type": "uint256"
        },
        {
          "internalType": "uint256",
          "name": "debtTokenUsed",
          "type": "uint256"
        },
        {
          "internalType": "uint256",
          "name": "flashLoanFee",
          "type": "uint256"
        }
      ],
      "name": "DebtTokenReceivedNotMetUsedAmountWithFlashLoanFee",
      "type": "error"
    },
    {
      "inputs": [
        {
          "internalType": "uint256",
          "name": "estimatedOverallSlippageBps",
          "type": "uint256"
        }
      ],
      "name": "EstimatedOverallSlippageBpsCannotExceedOneHundredPercent",
      "type": "error"
    },
    {
      "inputs": [
        {
          "internalType": "uint256",
          "name": "currentEstimatedShares",
          "type": "uint256"
        },
        {
          "internalType": "uint256",
          "name": "minOutputShares",
          "type": "uint256"
        }
      ],
      "name": "EstimatedSharesLessThanMinOutputShares",
      "type": "error"
    },
    {
      "inputs": [
        {
          "internalType": "address",
          "name": "flashLender",
          "type": "address"
        },
        {
          "internalType": "address",
          "name": "debtToken",
          "type": "address"
        }
      ],
      "name": "FlashLenderNotSameAsDebtToken",
      "type": "error"
    },
    {
      "inputs": [
        {
          "internalType": "address",
          "name": "currentDebtToken",
          "type": "address"
        },
        {
          "internalType": "address",
          "name": "dLoopCoreDebtToken",
          "type": "address"
        }
      ],
      "name": "IncompatibleDLoopCoreDebtToken",
      "type": "error"
    },
    {
      "inputs": [
        {
          "internalType": "uint256",
          "name": "leveragedCollateralAmount",
          "type": "uint256"
        },
        {
          "internalType": "uint256",
          "name": "depositCollateralAmount",
          "type": "uint256"
        }
      ],
      "name": "LeveragedCollateralAmountLessThanDepositCollateralAmount",
      "type": "error"
    },
    {
      "inputs": [
        {
          "internalType": "uint256",
          "name": "outputTokenBalanceBefore",
          "type": "uint256"
        },
        {
          "internalType": "uint256",
          "name": "outputTokenBalanceAfter",
          "type": "uint256"
        }
      ],
      "name": "OutputTokenBalanceNotIncreasedAfterSwap",
      "type": "error"
    },
    {
      "inputs": [
        {
          "internalType": "address",
          "name": "owner",
          "type": "address"
        }
      ],
      "name": "OwnableInvalidOwner",
      "type": "error"
    },
    {
      "inputs": [
        {
          "internalType": "address",
          "name": "account",
          "type": "address"
        }
      ],
      "name": "OwnableUnauthorizedAccount",
      "type": "error"
    },
    {
      "inputs": [
        {
          "internalType": "uint256",
          "name": "receivedOutputTokenAmount",
          "type": "uint256"
        },
        {
          "internalType": "uint256",
          "name": "amountOut",
          "type": "uint256"
        }
      ],
      "name": "ReceivedOutputTokenAmountNotEqualAmountOut",
      "type": "error"
    },
    {
      "inputs": [
        {
          "internalType": "uint256",
          "name": "receivedShares",
          "type": "uint256"
        },
        {
          "internalType": "uint256",
          "name": "minOutputShares",
          "type": "uint256"
        }
      ],
      "name": "ReceivedSharesNotMetMinReceiveAmount",
      "type": "error"
    },
    {
      "inputs": [],
      "name": "ReentrancyGuardReentrantCall",
      "type": "error"
    },
    {
      "inputs": [
        {
          "internalType": "address",
          "name": "token",
          "type": "address"
        }
      ],
      "name": "SafeERC20FailedOperation",
      "type": "error"
    },
    {
      "inputs": [
        {
          "internalType": "uint256",
          "name": "sharesBeforeDeposit",
          "type": "uint256"
        },
        {
          "internalType": "uint256",
          "name": "sharesAfterDeposit",
          "type": "uint256"
        }
      ],
      "name": "SharesNotIncreasedAfterFlashLoan",
      "type": "error"
    },
    {
      "inputs": [
        {
          "internalType": "uint256",
          "name": "slippageBps",
          "type": "uint256"
        }
      ],
      "name": "SlippageBpsCannotExceedOneHundredPercent",
      "type": "error"
    },
    {
      "inputs": [
        {
          "internalType": "uint256",
          "name": "spentInputTokenAmount",
          "type": "uint256"
        },
        {
          "internalType": "uint256",
          "name": "amountInMaximum",
          "type": "uint256"
        }
      ],
      "name": "SpentInputTokenAmountGreaterThanAmountInMaximum",
      "type": "error"
    },
    {
      "inputs": [
        {
          "internalType": "uint256",
          "name": "spentInputTokenAmount",
          "type": "uint256"
        },
        {
          "internalType": "uint256",
          "name": "returnedAmountIn",
          "type": "uint256"
        }
      ],
      "name": "SpentInputTokenAmountNotEqualReturnedAmountIn",
      "type": "error"
    },
    {
      "inputs": [
        {
          "internalType": "address",
          "name": "initiator",
          "type": "address"
        },
        {
          "internalType": "address",
          "name": "thisContract",
          "type": "address"
        }
      ],
      "name": "UnknownInitiator",
      "type": "error"
    },
    {
      "inputs": [
        {
          "internalType": "address",
          "name": "msgSender",
          "type": "address"
        },
        {
          "internalType": "address",
          "name": "flashLender",
          "type": "address"
        }
      ],
      "name": "UnknownLender",
      "type": "error"
    },
    {
      "anonymous": false,
      "inputs": [
        {
          "indexed": true,
          "internalType": "address",
          "name": "debtToken",
          "type": "address"
        },
        {
          "indexed": false,
          "internalType": "uint256",
          "name": "amount",
          "type": "uint256"
        },
        {
          "indexed": true,
          "internalType": "address",
          "name": "receiver",
          "type": "address"
        }
      ],
      "name": "LeftoverDebtTokensTransferred",
      "type": "event"
    },
    {
      "anonymous": false,
      "inputs": [
        {
          "indexed": true,
          "internalType": "address",
          "name": "previousOwner",
          "type": "address"
        },
        {
          "indexed": true,
          "internalType": "address",
          "name": "newOwner",
          "type": "address"
        }
      ],
      "name": "OwnershipTransferred",
      "type": "event"
    },
    {
      "inputs": [],
      "name": "BALANCE_DIFF_TOLERANCE",
      "outputs": [
        {
          "internalType": "uint256",
          "name": "",
          "type": "uint256"
        }
      ],
      "stateMutability": "view",
      "type": "function"
    },
    {
      "inputs": [],
      "name": "FLASHLOAN_CALLBACK",
      "outputs": [
        {
          "internalType": "bytes32",
          "name": "",
          "type": "bytes32"
        }
      ],
      "stateMutability": "view",
      "type": "function"
    },
    {
      "inputs": [
        {
          "internalType": "uint256",
          "name": "depositAmount",
          "type": "uint256"
        },
        {
          "internalType": "uint256",
          "name": "slippageBps",
          "type": "uint256"
        },
        {
          "internalType": "contract DLoopCoreBase",
          "name": "dLoopCore",
          "type": "address"
        }
      ],
      "name": "calculateMinOutputShares",
      "outputs": [
        {
          "internalType": "uint256",
          "name": "",
          "type": "uint256"
        }
      ],
      "stateMutability": "view",
      "type": "function"
    },
    {
      "inputs": [
        {
          "internalType": "uint256",
          "name": "assets",
          "type": "uint256"
        },
        {
          "internalType": "address",
          "name": "receiver",
          "type": "address"
        },
        {
          "internalType": "uint256",
          "name": "minOutputShares",
          "type": "uint256"
        },
        {
          "internalType": "bytes",
          "name": "debtTokenToCollateralSwapData",
          "type": "bytes"
        },
        {
          "internalType": "contract DLoopCoreBase",
          "name": "dLoopCore",
          "type": "address"
        }
      ],
      "name": "deposit",
      "outputs": [
        {
          "internalType": "uint256",
          "name": "shares",
          "type": "uint256"
        }
      ],
      "stateMutability": "nonpayable",
      "type": "function"
    },
    {
      "inputs": [],
      "name": "flashLender",
      "outputs": [
        {
          "internalType": "contract IERC3156FlashLender",
          "name": "",
          "type": "address"
        }
      ],
      "stateMutability": "view",
      "type": "function"
    },
    {
      "inputs": [
        {
          "internalType": "uint256",
          "name": "assets",
          "type": "uint256"
        },
        {
          "internalType": "contract DLoopCoreBase",
          "name": "dLoopCore",
          "type": "address"
        }
      ],
      "name": "getLeveragedAssets",
      "outputs": [
        {
          "internalType": "uint256",
          "name": "",
          "type": "uint256"
        }
      ],
      "stateMutability": "view",
      "type": "function"
    },
    {
      "inputs": [],
      "name": "getRestrictedRescueTokens",
      "outputs": [
        {
          "internalType": "address[]",
          "name": "restrictedTokens",
          "type": "address[]"
        }
      ],
      "stateMutability": "view",
      "type": "function"
    },
    {
      "inputs": [],
      "name": "odosRouter",
      "outputs": [
        {
          "internalType": "contract IOdosRouterV2",
          "name": "",
          "type": "address"
        }
      ],
      "stateMutability": "view",
      "type": "function"
    },
    {
      "inputs": [
        {
          "internalType": "address",
          "name": "initiator",
          "type": "address"
        },
        {
          "internalType": "address",
          "name": "token",
          "type": "address"
        },
        {
          "internalType": "uint256",
          "name": "",
          "type": "uint256"
        },
        {
          "internalType": "uint256",
          "name": "flashLoanFee",
          "type": "uint256"
        },
        {
          "internalType": "bytes",
          "name": "data",
          "type": "bytes"
        }
      ],
      "name": "onFlashLoan",
      "outputs": [
        {
          "internalType": "bytes32",
          "name": "",
          "type": "bytes32"
        }
      ],
      "stateMutability": "nonpayable",
      "type": "function"
    },
    {
      "inputs": [],
      "name": "owner",
      "outputs": [
        {
          "internalType": "address",
          "name": "",
          "type": "address"
        }
      ],
      "stateMutability": "view",
      "type": "function"
    },
    {
      "inputs": [],
      "name": "renounceOwnership",
      "outputs": [],
      "stateMutability": "nonpayable",
      "type": "function"
    },
    {
      "inputs": [
        {
          "internalType": "address",
          "name": "token",
          "type": "address"
        },
        {
          "internalType": "address",
          "name": "receiver",
          "type": "address"
        },
        {
          "internalType": "uint256",
          "name": "amount",
          "type": "uint256"
        }
      ],
      "name": "rescueToken",
      "outputs": [],
      "stateMutability": "nonpayable",
      "type": "function"
    },
    {
      "inputs": [
        {
          "internalType": "address",
          "name": "newOwner",
          "type": "address"
        }
      ],
      "name": "transferOwnership",
      "outputs": [],
      "stateMutability": "nonpayable",
      "type": "function"
    }
  ],
  "transactionHash": "0x7c3c395761f610c74af4d0b3a2f768e9ebe88872ae8a0f8a91a878da64b6cb41",
  "args": [
    "0x53a6aBb52B2F968fA80dF6A894e4f1b1020DA975",
    "0xaC041Df48dF9791B0654f1Dbbf2CC8450C5f2e9D"
  ],
  "numDeployments": 1,
  "solcInputHash": "564bdf0a1c1d16a234f92ea255a70b01",
  "bytecode": "0x60c03461011c57601f611cb438819003918201601f19168301916001600160401b0383118484101761012157808492604094855283398101031261011c5780516001600160a01b0391828216820361011c576020015190828216820361011c573315610103576000543360018060a01b0319821617600055604051933391167f8be0079c531659141344cd1fd0a4f28419497f9722a3daafe3b4186f6b6457e0600080a36001805560805260a052611b7c9081610138823960805181818161026a015281816105ab0152818161063a0152818161067d015281816106ab015281816107140152818161091e0152610c32015260a051818181610abf0152610ed40152f35b604051631e4fbdf760e01b815260006004820152602490fd5b600080fd5b634e487b7160e01b600052604160045260246000fdfe608080604052600436101561001357600080fd5b60003560e01c90816323e30c8b14610be7575080632ae1810414610bac578063500fc43414610b47578063715018a614610aee5780638321928d14610aa957806387438b6a146103b45780638b7a6dba146102de5780638da5cb5b146102b55780639d00f10814610299578063a771445814610254578063df195e9b14610226578063e5711e8b146101415763f2fde38b146100ae57600080fd5b3461013c57602036600319011261013c576100c761140e565b6100cf611468565b6001600160a01b0390811690811561012357600054826bffffffffffffffffffffffff60a01b821617600055167f8be0079c531659141344cd1fd0a4f28419497f9722a3daafe3b4186f6b6457e0600080a3005b604051631e4fbdf760e01b815260006004820152602490fd5b600080fd5b3461013c57606036600319011261013c5761015a61140e565b610162611424565b9061016b611468565b6101736115a3565b61017b6115c6565b906001600160a01b039081169060005b835181101561021357602082818360051b870101511684146101cf575060001981146101b95760010161018b565b634e487b7160e01b600052601160045260246000fd5b6064906040519062461bcd60e51b82526004820152601e60248201527f43616e6e6f7420726573637565207265737472696374656420746f6b656e00006044820152fd5b6102206044358685611504565b60018055005b3461013c57604036600319011261013c57602061024c610244611424565b6004356119ce565b604051908152f35b3461013c57600036600319011261013c576040517f00000000000000000000000000000000000000000000000000000000000000006001600160a01b03168152602090f35b3461013c57600036600319011261013c57602060405160018152f35b3461013c57600036600319011261013c576000546040516001600160a01b039091168152602090f35b3461013c57606036600319011261013c576024356044356001600160a01b0381169081810361013c57620f4240831161039b5761031f6020916004356119ce565b6024604051809481936363737ac960e11b835260048301525afa90811561038f5760009161035d575b602061024c83610357866115ef565b906116c4565b90506020813d8211610387575b81610377602093836114e2565b8101031261013c57516020610348565b3d915061036a565b6040513d6000823e3d90fd5b60405163103b7d4960e11b815260048101849052602490fd5b3461013c5760a036600319011261013c576103cd611424565b60643567ffffffffffffffff811161013c576103ed90369060040161143a565b906001600160a01b039060843590828216820361013c5761040c6115a3565b604051632c805af560e21b81526020816004818688165afa90811561038f57600091610a8a575b50604051631f1b131360e31b8152946020866004818789165afa95861561038f57600096610a59575b5061049a6040516323b872dd60e01b602082015233602482015230604482015286600435948560648401526064835261049483611494565b16611547565b6104a484836119ce565b6040516363737ac960e11b815260048101829052602081602481898b165afa90811561038f57600091610a27575b506044358110610a08576104f1906104ec60443582611600565b61160d565b620f424081116109f057918661053c6105146105779461035761058d98976115ef565b966040519361052285611494565b838d1685526020850196875260408501988952369161177c565b91826060820152818816608082015251169251945160405195869460208601526040850152606084015260a0608084015260c08301906117e3565b85851660a083015203601f1981018352826114e2565b60405163613255ab60e01b81528484166004820152906020826024817f000000000000000000000000000000000000000000000000000000000000000088165afa91821561038f576000926109bc575b506040516370a0823160e01b8152306004820152916020836024818789165afa92831561038f57600093610988575b50604051633676633960e21b81528587166001600160a01b03166004820152602481018290526020816044817f00000000000000000000000000000000000000000000000000000000000000008a165afa90811561038f57600091610954575b5061067a6106a591836117b3565b867f000000000000000000000000000000000000000000000000000000000000000016878916611808565b848616857f000000000000000000000000000000000000000000000000000000000000000016036109075761070d916020916040519384928392632e7ff4ef60e11b8452306004850152898b16602485015260448401526080606484015260848301906117e3565b03816000887f0000000000000000000000000000000000000000000000000000000000000000165af1801561038f576108cf575b506040516370a0823160e01b81523060048201526020816024818688165afa90811561038f5760009161089d575b508181111561087f579061078291611600565b92604435841061085f576040516370a0823160e01b81523060048201526020816024818588165afa90811561038f57600091610823575b5092849260209692856107d3966107df575b505016611504565b60018055604051908152f35b6107ec8186868516611504565b6040519081527f858a27e141780954fe5d38ba55127b6c35f8f5904c3a088438a18578d5d71eee8985808816941692a387806107cb565b9295919390506020833d602011610857575b81610842602093836114e2565b8101031261013c5791519094919290846107b9565b3d9150610835565b6040516330cfb95f60e11b81526004810185905260448035602483015290fd5b604492506040519163f51cd51560e01b835260048301526024820152fd5b90506020813d6020116108c7575b816108b8602093836114e2565b8101031261013c57518661076f565b3d91506108ab565b6020813d6020116108ff575b816108e8602093836114e2565b8101031261013c57518015150361013c5785610741565b3d91506108db565b60405163aaae67a160e01b81526001600160a01b037f0000000000000000000000000000000000000000000000000000000000000000871681166004830152878716166024820152604490fd5b90506020813d602011610980575b8161096f602093836114e2565b8101031261013c575161067a61066c565b3d9150610962565b9092506020813d6020116109b4575b816109a4602093836114e2565b8101031261013c5751918761060c565b3d9150610997565b9091506020813d6020116109e8575b816109d8602093836114e2565b8101031261013c575190866105dd565b3d91506109cb565b6024906040519063cc1d13b160e01b82526004820152fd5b604490604051906303a4989b60e21b8252600482015281356024820152fd5b90506020813d602011610a51575b81610a42602093836114e2565b8101031261013c5751896104d2565b3d9150610a35565b610a7c91965060203d602011610a83575b610a7481836114e2565b810190611741565b948761045c565b503d610a6a565b610aa3915060203d602011610a8357610a7481836114e2565b86610433565b3461013c57600036600319011261013c576040517f00000000000000000000000000000000000000000000000000000000000000006001600160a01b03168152602090f35b3461013c57600036600319011261013c57610b07611468565b600080546001600160a01b0319811682556001600160a01b03167f8be0079c531659141344cd1fd0a4f28419497f9722a3daafe3b4186f6b6457e08280a3005b3461013c57600036600319011261013c57610b606115c6565b604051809160208083018184528251809152816040850193019160005b828110610b8c57505050500390f35b83516001600160a01b031685528695509381019392810192600101610b7d565b3461013c57600036600319011261013c5760206040517f439148f0bbc682ca079e46d6e2c2f0c1e3b820f1a291b069d8882abf8cf18dd98152f35b3461013c5760a036600319011261013c57610c0061140e565b610c08611424565b9167ffffffffffffffff9160843583811161013c57610c2b90369060040161143a565b90929091907f00000000000000000000000000000000000000000000000000000000000000006001600160a01b0316338190036113eb575050306001600160a01b038216036113c2575090610c8191369161177c565b9160405192610c8f84611494565b60008452600060208501526000604085015260608085015260006080850152805181019260a0826020860195031261013c576020820151916001600160a01b038316830361013c57604081015191606082015191608081015191821161013c5786603f83830101121561013c576020828201015191610d0d83611760565b97610d1b604051998a6114e2565b83895260408483850101011161013c5760a092610d4191604060208b01918501016117c0565b01516001600160a01b038116959086900361013c5785608088015260608701526040860152602085015260018060a01b0316835260405190632c805af560e21b8252602082600481865afa91821561038f5760009261139f575b5060206004929360405193848092631f1b131360e31b82525afa91821561038f5760009261137e575b506001600160a01b0382811690821603611355575060408301516020840151808210611337575050610dff6040840151602085015190611600565b60608401516040516370a0823160e01b8152306004820152909491906020816024816001600160a01b0388165afa90811561038f57600091611305575b506040516370a0823160e01b8152306004820152956020876024816001600160a01b038a165afa96871561038f576000976112d0575b506040516304ecaec960e31b81526001600160a01b038681166004830152871660248201526044810184905260001960648201523060848201524260a482015261010060c4820152969060209088908190610ed2906101048301906117e3565b7f00000000000000000000000000000000000000000000000000000000000000006001600160a01b031660e48301520381736F3902372976e91BBCA5F85914016fB74e9Da5EE5af496871561038f5760009761129c575b506040516370a0823160e01b81523060048201526020816024816001600160a01b038a165afa90811561038f5760009161126a575b506040516370a0823160e01b8152306004820152906020826024816001600160a01b038c165afa93841561038f57899260009561122f575b5090610fa292916118fb565b8051611203575b50610fb583838361196a565b918251156111e65750506040810151156111c35750506040516370a0823160e01b8152306004820152926020846024816001600160a01b0387165afa93841561038f5760009461118e575b5060808201516040830151600093602093909261102a92916001600160a01b039182169116611808565b6044604060018060a01b036080840151169201516040519485938492636e553f6560e01b845260048401523060248401525af1801561038f57611163575b506040516370a0823160e01b815230600482015290602090829060249082906001600160a01b03165afa90811561038f57600091611131575b508181111561111357906110b491611600565b6064356110c181846117b3565b82106110f15760206040517f439148f0bbc682ca079e46d6e2c2f0c1e3b820f1a291b069d8882abf8cf18dd98152f35b60649260405192630901cbd360e21b8452600484015260248301526044820152fd5b6044925060405191633780efc760e21b835260048301526024820152fd5b90506020813d60201161115b575b8161114c602093836114e2565b8101031261013c5751836110a1565b3d915061113f565b602090813d8311611187575b61117981836114e2565b8101031261013c5783611068565b503d61116f565b9093506020813d6020116111bb575b816111aa602093836114e2565b8101031261013c5751926000611000565b3d915061119d565b90602060449201519060405191638919e25360e01b835260048301526024820152fd5b60449250604051916204bb6760e81b835260048301526024820152fd5b6040810151610fa95787602060449201519060405191637654e04760e11b835260048301526024820152fd5b91925093506020813d602011611262575b8161124d602093836114e2565b8101031261013c575192889190610fa2610f96565b3d9150611240565b90506020813d602011611294575b81611285602093836114e2565b8101031261013c575188610f5e565b3d9150611278565b9096506020813d6020116112c8575b816112b8602093836114e2565b8101031261013c57519587610f29565b3d91506112ab565b96506020873d6020116112fd575b816112eb602093836114e2565b8101031261013c579551956020610e72565b3d91506112de565b90506020813d60201161132f575b81611320602093836114e2565b8101031261013c575186610e3c565b3d9150611313565b6044925060405191635195adaf60e11b835260048301526024820152fd5b60405163c7f1118d60e01b81526001600160a01b03918216600482015291166024820152604490fd5b61139891925060203d602011610a8357610a7481836114e2565b9084610dc4565b600492506113bb602091823d8411610a8357610a7481836114e2565b9250610d9b565b604051636705ec4760e11b81526001600160a01b03919091166004820152306024820152604490fd5b631a01026f60e01b82523360048301526001600160a01b03166024820152604490fd5b600435906001600160a01b038216820361013c57565b602435906001600160a01b038216820361013c57565b9181601f8401121561013c5782359167ffffffffffffffff831161013c576020838186019501011161013c57565b6000546001600160a01b0316330361147c57565b60405163118cdaa760e01b8152336004820152602490fd5b60a0810190811067ffffffffffffffff8211176114b057604052565b634e487b7160e01b600052604160045260246000fd5b6060810190811067ffffffffffffffff8211176114b057604052565b90601f8019910116810190811067ffffffffffffffff8211176114b057604052565b60405163a9059cbb60e01b60208201526001600160a01b03929092166024830152604480830193909352918152611545916115406064836114e2565b611547565b565b906000602091828151910182855af11561038f576000513d61159a57506001600160a01b0381163b155b6115785750565b604051635274afe760e01b81526001600160a01b039091166004820152602490fd5b60011415611571565b6002600154146115b4576002600155565b604051633ee5aeb560e01b8152600490fd5b6040516020810181811067ffffffffffffffff8211176114b05760405260008152906000368137565b90620f42409182039182116101b957565b919082039182116101b957565b620f42409160001983830992808302928380861095039480860395146116a05784831115611687579082910981600003821680920460028082600302188083028203028083028203028083028203028083028203028083028203028092029003029360018380600003040190848311900302920304170290565b82634e487b71600052156003026011186020526024601cfd5b5050809250156116ae570490565b634e487b7160e01b600052601260045260246000fd5b906000198183098183029182808310920391808303921461173557620f42409082821115611722577fde8f6cefed634549b62c77574f722e1ac57e23f24d8fd5cb790fb65668c26139940990828211900360fa1b910360061c170290565b634e487b7160005260116020526024601cfd5b5050620f424091500490565b9081602091031261013c57516001600160a01b038116810361013c5790565b67ffffffffffffffff81116114b057601f01601f191660200190565b92919261178882611760565b9161179660405193846114e2565b82948184528183011161013c578281602093846000960137010152565b919082018092116101b957565b60005b8381106117d35750506000910152565b81810151838201526020016117c3565b906020916117fc815180928185528580860191016117c0565b601f01601f1916010190565b60405163095ea7b360e01b602082018181526001600160a01b0385166024840152604480840196909652948252949390926118446064856114e2565b60206000809386519082875af182513d826118d6575b50501561186a575b505050509050565b60405160208101969096526001600160a01b0316602486015260448086018290528552608085019067ffffffffffffffff8211868310176118c257506118b893946115409160405282611547565b8038808080611862565b634e487b7160e01b81526041600452602490fd5b9091506118f357506001600160a01b0383163b15155b388061185a565b6001146118ec565b9190916040519061190b826114c6565b60208201600081526040830191600083528395818110808652611957575b50505081511561194d5750506119439060208301516119ac565b1515604082015290565b6000905292915050565b61196091611600565b9052388080611929565b919060405190611979826114c6565b602082016000815260408301916000835283958082118086526119575750505081511561194d5750506119439060208301515b6001918082116119c557906119c091611600565b111590565b6119c091611600565b6040805163415c506960e01b8082529194936001600160a01b0316916020918281600481875afa908115611b3b57600091611b0e575b5060009015611a7957508190600487518095819382525afa948515611a6f5750600094611a3c575b505091611a3991926116c4565b90565b81813d8311611a68575b611a5081836114e2565b81010312611a6457519250611a3938611a2c565b8380fd5b503d611a46565b513d6000823e3d90fd5b9282915091600492879596975193848092637aa7c3c160e01b82525afa938415611b0557508293611ab9575b5050509063ffffffff611a399216906116c4565b9080929350813d8311611afe575b611ad181836114e2565b81010312611afa57519063ffffffff82168203611af7575063ffffffff611a3938611aa5565b80fd5b5080fd5b503d611ac7565b513d84823e3d90fd5b908382813d8311611b34575b611b2481836114e2565b81010312611af757505138611a04565b503d611b1a565b87513d6000823e3d90fdfea264697066735822122025e7e03c958435a5b108a391e5b8fb61caeae09371811a1fdc7160281636b7cc64736f6c63430008140033",
  "deployedBytecode": "0x608080604052600436101561001357600080fd5b60003560e01c90816323e30c8b14610be7575080632ae1810414610bac578063500fc43414610b47578063715018a614610aee5780638321928d14610aa957806387438b6a146103b45780638b7a6dba146102de5780638da5cb5b146102b55780639d00f10814610299578063a771445814610254578063df195e9b14610226578063e5711e8b146101415763f2fde38b146100ae57600080fd5b3461013c57602036600319011261013c576100c761140e565b6100cf611468565b6001600160a01b0390811690811561012357600054826bffffffffffffffffffffffff60a01b821617600055167f8be0079c531659141344cd1fd0a4f28419497f9722a3daafe3b4186f6b6457e0600080a3005b604051631e4fbdf760e01b815260006004820152602490fd5b600080fd5b3461013c57606036600319011261013c5761015a61140e565b610162611424565b9061016b611468565b6101736115a3565b61017b6115c6565b906001600160a01b039081169060005b835181101561021357602082818360051b870101511684146101cf575060001981146101b95760010161018b565b634e487b7160e01b600052601160045260246000fd5b6064906040519062461bcd60e51b82526004820152601e60248201527f43616e6e6f7420726573637565207265737472696374656420746f6b656e00006044820152fd5b6102206044358685611504565b60018055005b3461013c57604036600319011261013c57602061024c610244611424565b6004356119ce565b604051908152f35b3461013c57600036600319011261013c576040517f00000000000000000000000000000000000000000000000000000000000000006001600160a01b03168152602090f35b3461013c57600036600319011261013c57602060405160018152f35b3461013c57600036600319011261013c576000546040516001600160a01b039091168152602090f35b3461013c57606036600319011261013c576024356044356001600160a01b0381169081810361013c57620f4240831161039b5761031f6020916004356119ce565b6024604051809481936363737ac960e11b835260048301525afa90811561038f5760009161035d575b602061024c83610357866115ef565b906116c4565b90506020813d8211610387575b81610377602093836114e2565b8101031261013c57516020610348565b3d915061036a565b6040513d6000823e3d90fd5b60405163103b7d4960e11b815260048101849052602490fd5b3461013c5760a036600319011261013c576103cd611424565b60643567ffffffffffffffff811161013c576103ed90369060040161143a565b906001600160a01b039060843590828216820361013c5761040c6115a3565b604051632c805af560e21b81526020816004818688165afa90811561038f57600091610a8a575b50604051631f1b131360e31b8152946020866004818789165afa95861561038f57600096610a59575b5061049a6040516323b872dd60e01b602082015233602482015230604482015286600435948560648401526064835261049483611494565b16611547565b6104a484836119ce565b6040516363737ac960e11b815260048101829052602081602481898b165afa90811561038f57600091610a27575b506044358110610a08576104f1906104ec60443582611600565b61160d565b620f424081116109f057918661053c6105146105779461035761058d98976115ef565b966040519361052285611494565b838d1685526020850196875260408501988952369161177c565b91826060820152818816608082015251169251945160405195869460208601526040850152606084015260a0608084015260c08301906117e3565b85851660a083015203601f1981018352826114e2565b60405163613255ab60e01b81528484166004820152906020826024817f000000000000000000000000000000000000000000000000000000000000000088165afa91821561038f576000926109bc575b506040516370a0823160e01b8152306004820152916020836024818789165afa92831561038f57600093610988575b50604051633676633960e21b81528587166001600160a01b03166004820152602481018290526020816044817f00000000000000000000000000000000000000000000000000000000000000008a165afa90811561038f57600091610954575b5061067a6106a591836117b3565b867f000000000000000000000000000000000000000000000000000000000000000016878916611808565b848616857f000000000000000000000000000000000000000000000000000000000000000016036109075761070d916020916040519384928392632e7ff4ef60e11b8452306004850152898b16602485015260448401526080606484015260848301906117e3565b03816000887f0000000000000000000000000000000000000000000000000000000000000000165af1801561038f576108cf575b506040516370a0823160e01b81523060048201526020816024818688165afa90811561038f5760009161089d575b508181111561087f579061078291611600565b92604435841061085f576040516370a0823160e01b81523060048201526020816024818588165afa90811561038f57600091610823575b5092849260209692856107d3966107df575b505016611504565b60018055604051908152f35b6107ec8186868516611504565b6040519081527f858a27e141780954fe5d38ba55127b6c35f8f5904c3a088438a18578d5d71eee8985808816941692a387806107cb565b9295919390506020833d602011610857575b81610842602093836114e2565b8101031261013c5791519094919290846107b9565b3d9150610835565b6040516330cfb95f60e11b81526004810185905260448035602483015290fd5b604492506040519163f51cd51560e01b835260048301526024820152fd5b90506020813d6020116108c7575b816108b8602093836114e2565b8101031261013c57518661076f565b3d91506108ab565b6020813d6020116108ff575b816108e8602093836114e2565b8101031261013c57518015150361013c5785610741565b3d91506108db565b60405163aaae67a160e01b81526001600160a01b037f0000000000000000000000000000000000000000000000000000000000000000871681166004830152878716166024820152604490fd5b90506020813d602011610980575b8161096f602093836114e2565b8101031261013c575161067a61066c565b3d9150610962565b9092506020813d6020116109b4575b816109a4602093836114e2565b8101031261013c5751918761060c565b3d9150610997565b9091506020813d6020116109e8575b816109d8602093836114e2565b8101031261013c575190866105dd565b3d91506109cb565b6024906040519063cc1d13b160e01b82526004820152fd5b604490604051906303a4989b60e21b8252600482015281356024820152fd5b90506020813d602011610a51575b81610a42602093836114e2565b8101031261013c5751896104d2565b3d9150610a35565b610a7c91965060203d602011610a83575b610a7481836114e2565b810190611741565b948761045c565b503d610a6a565b610aa3915060203d602011610a8357610a7481836114e2565b86610433565b3461013c57600036600319011261013c576040517f00000000000000000000000000000000000000000000000000000000000000006001600160a01b03168152602090f35b3461013c57600036600319011261013c57610b07611468565b600080546001600160a01b0319811682556001600160a01b03167f8be0079c531659141344cd1fd0a4f28419497f9722a3daafe3b4186f6b6457e08280a3005b3461013c57600036600319011261013c57610b606115c6565b604051809160208083018184528251809152816040850193019160005b828110610b8c57505050500390f35b83516001600160a01b031685528695509381019392810192600101610b7d565b3461013c57600036600319011261013c5760206040517f439148f0bbc682ca079e46d6e2c2f0c1e3b820f1a291b069d8882abf8cf18dd98152f35b3461013c5760a036600319011261013c57610c0061140e565b610c08611424565b9167ffffffffffffffff9160843583811161013c57610c2b90369060040161143a565b90929091907f00000000000000000000000000000000000000000000000000000000000000006001600160a01b0316338190036113eb575050306001600160a01b038216036113c2575090610c8191369161177c565b9160405192610c8f84611494565b60008452600060208501526000604085015260608085015260006080850152805181019260a0826020860195031261013c576020820151916001600160a01b038316830361013c57604081015191606082015191608081015191821161013c5786603f83830101121561013c576020828201015191610d0d83611760565b97610d1b604051998a6114e2565b83895260408483850101011161013c5760a092610d4191604060208b01918501016117c0565b01516001600160a01b038116959086900361013c5785608088015260608701526040860152602085015260018060a01b0316835260405190632c805af560e21b8252602082600481865afa91821561038f5760009261139f575b5060206004929360405193848092631f1b131360e31b82525afa91821561038f5760009261137e575b506001600160a01b0382811690821603611355575060408301516020840151808210611337575050610dff6040840151602085015190611600565b60608401516040516370a0823160e01b8152306004820152909491906020816024816001600160a01b0388165afa90811561038f57600091611305575b506040516370a0823160e01b8152306004820152956020876024816001600160a01b038a165afa96871561038f576000976112d0575b506040516304ecaec960e31b81526001600160a01b038681166004830152871660248201526044810184905260001960648201523060848201524260a482015261010060c4820152969060209088908190610ed2906101048301906117e3565b7f00000000000000000000000000000000000000000000000000000000000000006001600160a01b031660e4830152038173__$73ace4aa8e5f9c1a2b48f796123ca85165$__5af496871561038f5760009761129c575b506040516370a0823160e01b81523060048201526020816024816001600160a01b038a165afa90811561038f5760009161126a575b506040516370a0823160e01b8152306004820152906020826024816001600160a01b038c165afa93841561038f57899260009561122f575b5090610fa292916118fb565b8051611203575b50610fb583838361196a565b918251156111e65750506040810151156111c35750506040516370a0823160e01b8152306004820152926020846024816001600160a01b0387165afa93841561038f5760009461118e575b5060808201516040830151600093602093909261102a92916001600160a01b039182169116611808565b6044604060018060a01b036080840151169201516040519485938492636e553f6560e01b845260048401523060248401525af1801561038f57611163575b506040516370a0823160e01b815230600482015290602090829060249082906001600160a01b03165afa90811561038f57600091611131575b508181111561111357906110b491611600565b6064356110c181846117b3565b82106110f15760206040517f439148f0bbc682ca079e46d6e2c2f0c1e3b820f1a291b069d8882abf8cf18dd98152f35b60649260405192630901cbd360e21b8452600484015260248301526044820152fd5b6044925060405191633780efc760e21b835260048301526024820152fd5b90506020813d60201161115b575b8161114c602093836114e2565b8101031261013c5751836110a1565b3d915061113f565b602090813d8311611187575b61117981836114e2565b8101031261013c5783611068565b503d61116f565b9093506020813d6020116111bb575b816111aa602093836114e2565b8101031261013c5751926000611000565b3d915061119d565b90602060449201519060405191638919e25360e01b835260048301526024820152fd5b60449250604051916204bb6760e81b835260048301526024820152fd5b6040810151610fa95787602060449201519060405191637654e04760e11b835260048301526024820152fd5b91925093506020813d602011611262575b8161124d602093836114e2565b8101031261013c575192889190610fa2610f96565b3d9150611240565b90506020813d602011611294575b81611285602093836114e2565b8101031261013c575188610f5e565b3d9150611278565b9096506020813d6020116112c8575b816112b8602093836114e2565b8101031261013c57519587610f29565b3d91506112ab565b96506020873d6020116112fd575b816112eb602093836114e2565b8101031261013c579551956020610e72565b3d91506112de565b90506020813d60201161132f575b81611320602093836114e2565b8101031261013c575186610e3c565b3d9150611313565b6044925060405191635195adaf60e11b835260048301526024820152fd5b60405163c7f1118d60e01b81526001600160a01b03918216600482015291166024820152604490fd5b61139891925060203d602011610a8357610a7481836114e2565b9084610dc4565b600492506113bb602091823d8411610a8357610a7481836114e2565b9250610d9b565b604051636705ec4760e11b81526001600160a01b03919091166004820152306024820152604490fd5b631a01026f60e01b82523360048301526001600160a01b03166024820152604490fd5b600435906001600160a01b038216820361013c57565b602435906001600160a01b038216820361013c57565b9181601f8401121561013c5782359167ffffffffffffffff831161013c576020838186019501011161013c57565b6000546001600160a01b0316330361147c57565b60405163118cdaa760e01b8152336004820152602490fd5b60a0810190811067ffffffffffffffff8211176114b057604052565b634e487b7160e01b600052604160045260246000fd5b6060810190811067ffffffffffffffff8211176114b057604052565b90601f8019910116810190811067ffffffffffffffff8211176114b057604052565b60405163a9059cbb60e01b60208201526001600160a01b03929092166024830152604480830193909352918152611545916115406064836114e2565b611547565b565b906000602091828151910182855af11561038f576000513d61159a57506001600160a01b0381163b155b6115785750565b604051635274afe760e01b81526001600160a01b039091166004820152602490fd5b60011415611571565b6002600154146115b4576002600155565b604051633ee5aeb560e01b8152600490fd5b6040516020810181811067ffffffffffffffff8211176114b05760405260008152906000368137565b90620f42409182039182116101b957565b919082039182116101b957565b620f42409160001983830992808302928380861095039480860395146116a05784831115611687579082910981600003821680920460028082600302188083028203028083028203028083028203028083028203028083028203028092029003029360018380600003040190848311900302920304170290565b82634e487b71600052156003026011186020526024601cfd5b5050809250156116ae570490565b634e487b7160e01b600052601260045260246000fd5b906000198183098183029182808310920391808303921461173557620f42409082821115611722577fde8f6cefed634549b62c77574f722e1ac57e23f24d8fd5cb790fb65668c26139940990828211900360fa1b910360061c170290565b634e487b7160005260116020526024601cfd5b5050620f424091500490565b9081602091031261013c57516001600160a01b038116810361013c5790565b67ffffffffffffffff81116114b057601f01601f191660200190565b92919261178882611760565b9161179660405193846114e2565b82948184528183011161013c578281602093846000960137010152565b919082018092116101b957565b60005b8381106117d35750506000910152565b81810151838201526020016117c3565b906020916117fc815180928185528580860191016117c0565b601f01601f1916010190565b60405163095ea7b360e01b602082018181526001600160a01b0385166024840152604480840196909652948252949390926118446064856114e2565b60206000809386519082875af182513d826118d6575b50501561186a575b505050509050565b60405160208101969096526001600160a01b0316602486015260448086018290528552608085019067ffffffffffffffff8211868310176118c257506118b893946115409160405282611547565b8038808080611862565b634e487b7160e01b81526041600452602490fd5b9091506118f357506001600160a01b0383163b15155b388061185a565b6001146118ec565b9190916040519061190b826114c6565b60208201600081526040830191600083528395818110808652611957575b50505081511561194d5750506119439060208301516119ac565b1515604082015290565b6000905292915050565b61196091611600565b9052388080611929565b919060405190611979826114c6565b602082016000815260408301916000835283958082118086526119575750505081511561194d5750506119439060208301515b6001918082116119c557906119c091611600565b111590565b6119c091611600565b6040805163415c506960e01b8082529194936001600160a01b0316916020918281600481875afa908115611b3b57600091611b0e575b5060009015611a7957508190600487518095819382525afa948515611a6f5750600094611a3c575b505091611a3991926116c4565b90565b81813d8311611a68575b611a5081836114e2565b81010312611a6457519250611a3938611a2c565b8380fd5b503d611a46565b513d6000823e3d90fd5b9282915091600492879596975193848092637aa7c3c160e01b82525afa938415611b0557508293611ab9575b5050509063ffffffff611a399216906116c4565b9080929350813d8311611afe575b611ad181836114e2565b81010312611afa57519063ffffffff82168203611af7575063ffffffff611a3938611aa5565b80fd5b5080fd5b503d611ac7565b513d84823e3d90fd5b908382813d8311611b34575b611b2481836114e2565b81010312611af757505138611a04565b503d611b1a565b87513d6000823e3d90fdfea264697066735822122025e7e03c958435a5b108a391e5b8fb61caeae09371811a1fdc7160281636b7cc64736f6c63430008140033",
  "libraries": {
    "OdosSwapLogic": "0x6F3902372976e91BBCA5F85914016fB74e9Da5EE"
  }
}