{
  "address": "0x27E19D5f9f5F9d8c8Fa81Fd39c7f131aF52eeC34",
  "abi": [
    {
      "inputs": [
        {
          "components": [
            {
              "internalType": "string",
              "name": "name",
              "type": "string"
            },
            {
              "internalType": "string",
              "name": "symbol",
              "type": "string"
            },
            {
              "internalType": "contract ERC20",
              "name": "collateralToken",
              "type": "address"
            },
            {
              "internalType": "contract ERC20",
              "name": "debtToken",
              "type": "address"
            },
            {
              "internalType": "contract IPoolAddressesProvider",
              "name": "lendingPoolAddressesProvider",
              "type": "address"
            },
            {
              "internalType": "uint32",
              "name": "targetLeverageBps",
              "type": "uint32"
            },
            {
              "internalType": "uint32",
              "name": "lowerBoundTargetLeverageBps",
              "type": "uint32"
            },
            {
              "internalType": "uint32",
              "name": "upperBoundTargetLeverageBps",
              "type": "uint32"
            },
            {
              "internalType": "uint256",
              "name": "maxSubsidyBps",
              "type": "uint256"
            },
            {
              "internalType": "uint256",
              "name": "minDeviationBps",
              "type": "uint256"
            },
            {
              "internalType": "uint256",
              "name": "withdrawalFeeBps",
              "type": "uint256"
            },
            {
              "internalType": "contract IRewardsController",
              "name": "rewardsController",
              "type": "address"
            },
            {
              "internalType": "address",
              "name": "dLendAssetToClaimFor",
              "type": "address"
            },
            {
              "internalType": "address",
              "name": "targetStaticATokenWrapper",
              "type": "address"
            },
            {
              "internalType": "address",
              "name": "treasury",
              "type": "address"
            },
            {
              "internalType": "uint256",
              "name": "maxTreasuryFeeBps",
              "type": "uint256"
            },
            {
              "internalType": "uint256",
              "name": "initialTreasuryFeeBps",
              "type": "uint256"
            },
            {
              "internalType": "uint256",
              "name": "initialExchangeThreshold",
              "type": "uint256"
            }
          ],
          "internalType": "struct DLoopCoreDLend.InitParams",
          "name": "p",
          "type": "tuple"
        }
      ],
      "stateMutability": "nonpayable",
      "type": "constructor"
    },
    {
      "inputs": [],
      "name": "AccessControlBadConfirmation",
      "type": "error"
    },
    {
      "inputs": [
        {
          "internalType": "address",
          "name": "account",
          "type": "address"
        },
        {
          "internalType": "bytes32",
          "name": "neededRole",
          "type": "bytes32"
        }
      ],
      "name": "AccessControlUnauthorizedAccount",
      "type": "error"
    },
    {
      "inputs": [
        {
          "internalType": "address",
          "name": "asset",
          "type": "address"
        }
      ],
      "name": "AssetPriceIsZero",
      "type": "error"
    },
    {
      "inputs": [
        {
          "internalType": "address",
          "name": "token",
          "type": "address"
        }
      ],
      "name": "CannotRescueRestrictedToken",
      "type": "error"
    },
    {
      "inputs": [
        {
          "internalType": "uint256",
          "name": "totalCollateralBase",
          "type": "uint256"
        },
        {
          "internalType": "uint256",
          "name": "totalDebtBase",
          "type": "uint256"
        }
      ],
      "name": "CollateralLessThanDebt",
      "type": "error"
    },
    {
      "inputs": [
        {
          "internalType": "uint256",
          "name": "newLeverageBps",
          "type": "uint256"
        },
        {
          "internalType": "uint256",
          "name": "targetLeverageBps",
          "type": "uint256"
        },
        {
          "internalType": "uint256",
          "name": "currentLeverageBps",
          "type": "uint256"
        }
      ],
      "name": "DecreaseLeverageOutOfRange",
      "type": "error"
    },
    {
      "inputs": [
        {
          "internalType": "uint256",
          "name": "receivedCollateralTokenAmount",
          "type": "uint256"
        },
        {
          "internalType": "uint256",
          "name": "minReceivedCollateralTokenAmount",
          "type": "uint256"
        }
      ],
      "name": "DecreaseLeverageReceiveLessThanMinAmount",
      "type": "error"
    },
    {
      "inputs": [
        {
          "internalType": "address",
          "name": "spender",
          "type": "address"
        },
        {
          "internalType": "uint256",
          "name": "allowance",
          "type": "uint256"
        },
        {
          "internalType": "uint256",
          "name": "needed",
          "type": "uint256"
        }
      ],
      "name": "ERC20InsufficientAllowance",
      "type": "error"
    },
    {
      "inputs": [
        {
          "internalType": "address",
          "name": "sender",
          "type": "address"
        },
        {
          "internalType": "uint256",
          "name": "balance",
          "type": "uint256"
        },
        {
          "internalType": "uint256",
          "name": "needed",
          "type": "uint256"
        }
      ],
      "name": "ERC20InsufficientBalance",
      "type": "error"
    },
    {
      "inputs": [
        {
          "internalType": "address",
          "name": "approver",
          "type": "address"
        }
      ],
      "name": "ERC20InvalidApprover",
      "type": "error"
    },
    {
      "inputs": [
        {
          "internalType": "address",
          "name": "receiver",
          "type": "address"
        }
      ],
      "name": "ERC20InvalidReceiver",
      "type": "error"
    },
    {
      "inputs": [
        {
          "internalType": "address",
          "name": "sender",
          "type": "address"
        }
      ],
      "name": "ERC20InvalidSender",
      "type": "error"
    },
    {
      "inputs": [
        {
          "internalType": "address",
          "name": "spender",
          "type": "address"
        }
      ],
      "name": "ERC20InvalidSpender",
      "type": "error"
    },
    {
      "inputs": [
        {
          "internalType": "address",
          "name": "receiver",
          "type": "address"
        },
        {
          "internalType": "uint256",
          "name": "assets",
          "type": "uint256"
        },
        {
          "internalType": "uint256",
          "name": "max",
          "type": "uint256"
        }
      ],
      "name": "ERC4626ExceededMaxDeposit",
      "type": "error"
    },
    {
      "inputs": [
        {
          "internalType": "address",
          "name": "receiver",
          "type": "address"
        },
        {
          "internalType": "uint256",
          "name": "shares",
          "type": "uint256"
        },
        {
          "internalType": "uint256",
          "name": "max",
          "type": "uint256"
        }
      ],
      "name": "ERC4626ExceededMaxMint",
      "type": "error"
    },
    {
      "inputs": [
        {
          "internalType": "address",
          "name": "owner",
          "type": "address"
        },
        {
          "internalType": "uint256",
          "name": "shares",
          "type": "uint256"
        },
        {
          "internalType": "uint256",
          "name": "max",
          "type": "uint256"
        }
      ],
      "name": "ERC4626ExceededMaxRedeem",
      "type": "error"
    },
    {
      "inputs": [
        {
          "internalType": "address",
          "name": "owner",
          "type": "address"
        },
        {
          "internalType": "uint256",
          "name": "assets",
          "type": "uint256"
        },
        {
          "internalType": "uint256",
          "name": "max",
          "type": "uint256"
        }
      ],
      "name": "ERC4626ExceededMaxWithdraw",
      "type": "error"
    },
    {
      "inputs": [],
      "name": "EnforcedPause",
      "type": "error"
    },
    {
      "inputs": [
        {
          "internalType": "uint256",
          "name": "amount",
          "type": "uint256"
        },
        {
          "internalType": "uint256",
          "name": "threshold",
          "type": "uint256"
        }
      ],
      "name": "ExchangeAmountTooLow",
      "type": "error"
    },
    {
      "inputs": [],
      "name": "ExpectedPause",
      "type": "error"
    },
    {
      "inputs": [],
      "name": "FailedCall",
      "type": "error"
    },
    {
      "inputs": [
        {
          "internalType": "uint256",
          "name": "feeBps",
          "type": "uint256"
        },
        {
          "internalType": "uint256",
          "name": "maxFeeBps",
          "type": "uint256"
        }
      ],
      "name": "FeeTooHigh",
      "type": "error"
    },
    {
      "inputs": [
        {
          "internalType": "uint256",
          "name": "newLeverageBps",
          "type": "uint256"
        },
        {
          "internalType": "uint256",
          "name": "targetLeverageBps",
          "type": "uint256"
        },
        {
          "internalType": "uint256",
          "name": "currentLeverageBps",
          "type": "uint256"
        }
      ],
      "name": "IncreaseLeverageOutOfRange",
      "type": "error"
    },
    {
      "inputs": [
        {
          "internalType": "uint256",
          "name": "receivedDebtTokenAmount",
          "type": "uint256"
        },
        {
          "internalType": "uint256",
          "name": "minReceivedDebtTokenAmount",
          "type": "uint256"
        }
      ],
      "name": "IncreaseLeverageReceiveLessThanMinAmount",
      "type": "error"
    },
    {
      "inputs": [],
      "name": "InputCollateralTokenAmountIsZero",
      "type": "error"
    },
    {
      "inputs": [],
      "name": "InputDebtTokenAmountIsZero",
      "type": "error"
    },
    {
      "inputs": [
        {
          "internalType": "address",
          "name": "owner",
          "type": "address"
        },
        {
          "internalType": "address",
          "name": "spender",
          "type": "address"
        },
        {
          "internalType": "address",
          "name": "collateralAsset",
          "type": "address"
        },
        {
          "internalType": "uint256",
          "name": "requiredAllowance",
          "type": "uint256"
        }
      ],
      "name": "InsufficientAllowanceOfCollateralAssetToSupply",
      "type": "error"
    },
    {
      "inputs": [
        {
          "internalType": "address",
          "name": "owner",
          "type": "address"
        },
        {
          "internalType": "address",
          "name": "spender",
          "type": "address"
        },
        {
          "internalType": "address",
          "name": "debtAsset",
          "type": "address"
        },
        {
          "internalType": "uint256",
          "name": "requiredAllowance",
          "type": "uint256"
        }
      ],
      "name": "InsufficientAllowanceOfDebtAssetToRepay",
      "type": "error"
    },
    {
      "inputs": [
        {
          "internalType": "uint256",
          "name": "balance",
          "type": "uint256"
        },
        {
          "internalType": "uint256",
          "name": "needed",
          "type": "uint256"
        }
      ],
      "name": "InsufficientBalance",
      "type": "error"
    },
    {
      "inputs": [
        {
          "internalType": "address",
          "name": "token",
          "type": "address"
        }
      ],
      "name": "InvalidCollateralToken",
      "type": "error"
    },
    {
      "inputs": [
        {
          "internalType": "address",
          "name": "token",
          "type": "address"
        }
      ],
      "name": "InvalidDebtToken",
      "type": "error"
    },
    {
      "inputs": [
        {
          "internalType": "uint256",
          "name": "leverageBps",
          "type": "uint256"
        }
      ],
      "name": "InvalidLeverage",
      "type": "error"
    },
    {
      "inputs": [
        {
          "internalType": "uint256",
          "name": "lowerBound",
          "type": "uint256"
        },
        {
          "internalType": "uint256",
          "name": "targetLeverage",
          "type": "uint256"
        },
        {
          "internalType": "uint256",
          "name": "upperBound",
          "type": "uint256"
        }
      ],
      "name": "InvalidLeverageBounds",
      "type": "error"
    },
    {
      "inputs": [],
      "name": "InvalidRewardsController",
      "type": "error"
    },
    {
      "inputs": [
        {
          "internalType": "uint256",
          "name": "targetLeverageBps",
          "type": "uint256"
        }
      ],
      "name": "InvalidTargetLeverage",
      "type": "error"
    },
    {
      "inputs": [
        {
          "internalType": "uint256",
          "name": "withdrawalFeeBps",
          "type": "uint256"
        }
      ],
      "name": "InvalidWithdrawalFeeBps",
      "type": "error"
    },
    {
      "inputs": [
        {
          "internalType": "uint256",
          "name": "currentLeverageBps",
          "type": "uint256"
        },
        {
          "internalType": "uint256",
          "name": "targetLeverageBps",
          "type": "uint256"
        }
      ],
      "name": "LeverageBelowTarget",
      "type": "error"
    },
    {
      "inputs": [
        {
          "internalType": "uint256",
          "name": "currentLeverageBps",
          "type": "uint256"
        },
        {
          "internalType": "uint256",
          "name": "targetLeverageBps",
          "type": "uint256"
        }
      ],
      "name": "LeverageExceedsTarget",
      "type": "error"
    },
    {
      "inputs": [
        {
          "internalType": "uint256",
          "name": "maxTreasuryFeeBps",
          "type": "uint256"
        }
      ],
      "name": "MaxTreasuryFeeTooHigh",
      "type": "error"
    },
    {
      "inputs": [],
      "name": "ReentrancyGuardReentrantCall",
      "type": "error"
    },
    {
      "inputs": [
        {
          "internalType": "uint256",
          "name": "claimedAmountsLength",
          "type": "uint256"
        },
        {
          "internalType": "uint256",
          "name": "rewardTokensLength",
          "type": "uint256"
        }
      ],
      "name": "RewardAmountsLengthMismatch",
      "type": "error"
    },
    {
      "inputs": [
        {
          "internalType": "address",
          "name": "token",
          "type": "address"
        }
      ],
      "name": "SafeERC20FailedOperation",
      "type": "error"
    },
    {
      "inputs": [
        {
          "internalType": "address",
          "name": "token",
          "type": "address"
        },
        {
          "internalType": "uint256",
          "name": "tokenBalanceBefore",
          "type": "uint256"
        },
        {
          "internalType": "uint256",
          "name": "tokenBalanceAfter",
          "type": "uint256"
        },
        {
          "internalType": "uint256",
          "name": "expectedTokenBalance",
          "type": "uint256"
        }
      ],
      "name": "TokenBalanceNotDecreasedAfterRepay",
      "type": "error"
    },
    {
      "inputs": [
        {
          "internalType": "address",
          "name": "token",
          "type": "address"
        },
        {
          "internalType": "uint256",
          "name": "tokenBalanceBefore",
          "type": "uint256"
        },
        {
          "internalType": "uint256",
          "name": "tokenBalanceAfter",
          "type": "uint256"
        },
        {
          "internalType": "uint256",
          "name": "expectedTokenBalance",
          "type": "uint256"
        }
      ],
      "name": "TokenBalanceNotDecreasedAfterSupply",
      "type": "error"
    },
    {
      "inputs": [
        {
          "internalType": "address",
          "name": "token",
          "type": "address"
        },
        {
          "internalType": "uint256",
          "name": "tokenBalanceBefore",
          "type": "uint256"
        },
        {
          "internalType": "uint256",
          "name": "tokenBalanceAfter",
          "type": "uint256"
        },
        {
          "internalType": "uint256",
          "name": "expectedTokenBalance",
          "type": "uint256"
        }
      ],
      "name": "TokenBalanceNotIncreasedAfterBorrow",
      "type": "error"
    },
    {
      "inputs": [
        {
          "internalType": "address",
          "name": "token",
          "type": "address"
        },
        {
          "internalType": "uint256",
          "name": "tokenBalanceBefore",
          "type": "uint256"
        },
        {
          "internalType": "uint256",
          "name": "tokenBalanceAfter",
          "type": "uint256"
        },
        {
          "internalType": "uint256",
          "name": "expectedTokenBalance",
          "type": "uint256"
        }
      ],
      "name": "TokenBalanceNotIncreasedAfterWithdraw",
      "type": "error"
    },
    {
      "inputs": [
        {
          "internalType": "uint256",
          "name": "currentLeverageBps",
          "type": "uint256"
        },
        {
          "internalType": "uint256",
          "name": "lowerBoundTargetLeverageBps",
          "type": "uint256"
        },
        {
          "internalType": "uint256",
          "name": "upperBoundTargetLeverageBps",
          "type": "uint256"
        }
      ],
      "name": "TooImbalanced",
      "type": "error"
    },
    {
      "inputs": [
        {
          "internalType": "uint256",
          "name": "treasuryFee",
          "type": "uint256"
        },
        {
          "internalType": "uint256",
          "name": "rewardAmount",
          "type": "uint256"
        }
      ],
      "name": "TreasuryFeeExceedsRewardAmount",
      "type": "error"
    },
    {
      "inputs": [
        {
          "internalType": "uint256",
          "name": "treasuryFeeBps",
          "type": "uint256"
        },
        {
          "internalType": "uint256",
          "name": "maxTreasuryFeeBps",
          "type": "uint256"
        }
      ],
      "name": "TreasuryFeeTooHigh",
      "type": "error"
    },
    {
      "inputs": [
        {
          "internalType": "address",
          "name": "token",
          "type": "address"
        },
        {
          "internalType": "uint256",
          "name": "borrowedAmountBefore",
          "type": "uint256"
        },
        {
          "internalType": "uint256",
          "name": "borrowedAmountAfter",
          "type": "uint256"
        },
        {
          "internalType": "uint256",
          "name": "expectedBorrowedAmount",
          "type": "uint256"
        }
      ],
      "name": "UnexpectedBorrowAmountFromPool",
      "type": "error"
    },
    {
      "inputs": [
        {
          "internalType": "address",
          "name": "token",
          "type": "address"
        },
        {
          "internalType": "uint256",
          "name": "tokenBalanceBefore",
          "type": "uint256"
        },
        {
          "internalType": "uint256",
          "name": "tokenBalanceAfter",
          "type": "uint256"
        },
        {
          "internalType": "uint256",
          "name": "expectedTokenBalance",
          "type": "uint256"
        }
      ],
      "name": "UnexpectedRepayAmountToPool",
      "type": "error"
    },
    {
      "inputs": [
        {
          "internalType": "address",
          "name": "token",
          "type": "address"
        },
        {
          "internalType": "uint256",
          "name": "tokenBalanceBefore",
          "type": "uint256"
        },
        {
          "internalType": "uint256",
          "name": "tokenBalanceAfter",
          "type": "uint256"
        },
        {
          "internalType": "uint256",
          "name": "expectedTokenBalance",
          "type": "uint256"
        }
      ],
      "name": "UnexpectedSupplyAmountToPool",
      "type": "error"
    },
    {
      "inputs": [
        {
          "internalType": "address",
          "name": "token",
          "type": "address"
        },
        {
          "internalType": "uint256",
          "name": "withdrawableAmountBefore",
          "type": "uint256"
        },
        {
          "internalType": "uint256",
          "name": "withdrawableAmountAfter",
          "type": "uint256"
        },
        {
          "internalType": "uint256",
          "name": "expectedWithdrawableAmount",
          "type": "uint256"
        }
      ],
      "name": "UnexpectedWithdrawAmountFromPool",
      "type": "error"
    },
    {
      "inputs": [
        {
          "internalType": "uint256",
          "name": "withdrawalFeeBps",
          "type": "uint256"
        },
        {
          "internalType": "uint256",
          "name": "maxWithdrawalFeeBps",
          "type": "uint256"
        }
      ],
      "name": "WithdrawalFeeIsGreaterThanMaxFee",
      "type": "error"
    },
    {
      "inputs": [],
      "name": "ZeroAddress",
      "type": "error"
    },
    {
      "inputs": [],
      "name": "ZeroExchangeAssetAddress",
      "type": "error"
    },
    {
      "inputs": [],
      "name": "ZeroExchangeThreshold",
      "type": "error"
    },
    {
      "inputs": [],
      "name": "ZeroReceiverAddress",
      "type": "error"
    },
    {
      "inputs": [],
      "name": "ZeroRewardTokens",
      "type": "error"
    },
    {
      "inputs": [],
      "name": "ZeroShares",
      "type": "error"
    },
    {
      "inputs": [],
      "name": "ZeroTreasuryAddress",
      "type": "error"
    },
    {
      "anonymous": false,
      "inputs": [
        {
          "indexed": true,
          "internalType": "address",
          "name": "owner",
          "type": "address"
        },
        {
          "indexed": true,
          "internalType": "address",
          "name": "spender",
          "type": "address"
        },
        {
          "indexed": false,
          "internalType": "uint256",
          "name": "value",
          "type": "uint256"
        }
      ],
      "name": "Approval",
      "type": "event"
    },
    {
      "anonymous": false,
      "inputs": [
        {
          "indexed": true,
          "internalType": "address",
          "name": "oldController",
          "type": "address"
        },
        {
          "indexed": true,
          "internalType": "address",
          "name": "newController",
          "type": "address"
        }
      ],
      "name": "DLendRewardsControllerUpdated",
      "type": "event"
    },
    {
      "anonymous": false,
      "inputs": [
        {
          "indexed": true,
          "internalType": "address",
          "name": "caller",
          "type": "address"
        },
        {
          "indexed": false,
          "internalType": "uint256",
          "name": "inputDebtTokenAmount",
          "type": "uint256"
        },
        {
          "indexed": false,
          "internalType": "uint256",
          "name": "minReceivedCollateralTokenAmount",
          "type": "uint256"
        },
        {
          "indexed": false,
          "internalType": "uint256",
          "name": "repaidDebtTokenAmount",
          "type": "uint256"
        },
        {
          "indexed": false,
          "internalType": "uint256",
          "name": "withdrawnCollateralTokenAmount",
          "type": "uint256"
        }
      ],
      "name": "DecreaseLeverage",
      "type": "event"
    },
    {
      "anonymous": false,
      "inputs": [
        {
          "indexed": true,
          "internalType": "address",
          "name": "sender",
          "type": "address"
        },
        {
          "indexed": true,
          "internalType": "address",
          "name": "owner",
          "type": "address"
        },
        {
          "indexed": false,
          "internalType": "uint256",
          "name": "assets",
          "type": "uint256"
        },
        {
          "indexed": false,
          "internalType": "uint256",
          "name": "shares",
          "type": "uint256"
        }
      ],
      "name": "Deposit",
      "type": "event"
    },
    {
      "anonymous": false,
      "inputs": [
        {
          "indexed": false,
          "internalType": "uint256",
          "name": "oldExchangeThreshold",
          "type": "uint256"
        },
        {
          "indexed": false,
          "internalType": "uint256",
          "name": "newExchangeThreshold",
          "type": "uint256"
        }
      ],
      "name": "ExchangeThresholdUpdated",
      "type": "event"
    },
    {
      "anonymous": false,
      "inputs": [
        {
          "indexed": false,
          "internalType": "uint256",
          "name": "oldFeeBps",
          "type": "uint256"
        },
        {
          "indexed": false,
          "internalType": "uint256",
          "name": "newFeeBps",
          "type": "uint256"
        }
      ],
      "name": "FeeBpsSet",
      "type": "event"
    },
    {
      "anonymous": false,
      "inputs": [
        {
          "indexed": true,
          "internalType": "address",
          "name": "caller",
          "type": "address"
        },
        {
          "indexed": false,
          "internalType": "uint256",
          "name": "inputCollateralTokenAmount",
          "type": "uint256"
        },
        {
          "indexed": false,
          "internalType": "uint256",
          "name": "minReceivedDebtTokenAmount",
          "type": "uint256"
        },
        {
          "indexed": false,
          "internalType": "uint256",
          "name": "suppliedCollateralTokenAmount",
          "type": "uint256"
        },
        {
          "indexed": false,
          "internalType": "uint256",
          "name": "borrowedDebtTokenAmount",
          "type": "uint256"
        }
      ],
      "name": "IncreaseLeverage",
      "type": "event"
    },
    {
      "anonymous": false,
      "inputs": [
        {
          "indexed": true,
          "internalType": "address",
          "name": "token",
          "type": "address"
        },
        {
          "indexed": false,
          "internalType": "uint256",
          "name": "amount",
          "type": "uint256"
        },
        {
          "indexed": true,
          "internalType": "address",
          "name": "receiver",
          "type": "address"
        }
      ],
      "name": "LeftoverCollateralTokensTransferred",
      "type": "event"
    },
    {
      "anonymous": false,
      "inputs": [
        {
          "indexed": true,
          "internalType": "address",
          "name": "token",
          "type": "address"
        },
        {
          "indexed": false,
          "internalType": "uint256",
          "name": "amount",
          "type": "uint256"
        },
        {
          "indexed": true,
          "internalType": "address",
          "name": "receiver",
          "type": "address"
        }
      ],
      "name": "LeftoverDebtTokensTransferred",
      "type": "event"
    },
    {
      "anonymous": false,
      "inputs": [
        {
          "indexed": false,
          "internalType": "uint32",
          "name": "lowerBoundTargetLeverageBps",
          "type": "uint32"
        },
        {
          "indexed": false,
          "internalType": "uint32",
          "name": "upperBoundTargetLeverageBps",
          "type": "uint32"
        }
      ],
      "name": "LeverageBoundsSet",
      "type": "event"
    },
    {
      "anonymous": false,
      "inputs": [
        {
          "indexed": false,
          "internalType": "uint256",
          "name": "oldMaxSubsidyBps",
          "type": "uint256"
        },
        {
          "indexed": false,
          "internalType": "uint256",
          "name": "newMaxSubsidyBps",
          "type": "uint256"
        }
      ],
      "name": "MaxSubsidyBpsSet",
      "type": "event"
    },
    {
      "anonymous": false,
      "inputs": [
        {
          "indexed": false,
          "internalType": "uint256",
          "name": "oldMinDeviationBps",
          "type": "uint256"
        },
        {
          "indexed": false,
          "internalType": "uint256",
          "name": "newMinDeviationBps",
          "type": "uint256"
        }
      ],
      "name": "MinDeviationBpsSet",
      "type": "event"
    },
    {
      "anonymous": false,
      "inputs": [
        {
          "indexed": false,
          "internalType": "address",
          "name": "account",
          "type": "address"
        }
      ],
      "name": "Paused",
      "type": "event"
    },
    {
      "anonymous": false,
      "inputs": [
        {
          "indexed": false,
          "internalType": "address",
          "name": "exchangeAsset",
          "type": "address"
        },
        {
          "indexed": false,
          "internalType": "uint256",
          "name": "amount",
          "type": "uint256"
        },
        {
          "indexed": false,
          "internalType": "address[]",
          "name": "rewardTokens",
          "type": "address[]"
        }
      ],
      "name": "RewardCompounded",
      "type": "event"
    },
    {
      "anonymous": false,
      "inputs": [
        {
          "indexed": true,
          "internalType": "bytes32",
          "name": "role",
          "type": "bytes32"
        },
        {
          "indexed": true,
          "internalType": "bytes32",
          "name": "previousAdminRole",
          "type": "bytes32"
        },
        {
          "indexed": true,
          "internalType": "bytes32",
          "name": "newAdminRole",
          "type": "bytes32"
        }
      ],
      "name": "RoleAdminChanged",
      "type": "event"
    },
    {
      "anonymous": false,
      "inputs": [
        {
          "indexed": true,
          "internalType": "bytes32",
          "name": "role",
          "type": "bytes32"
        },
        {
          "indexed": true,
          "internalType": "address",
          "name": "account",
          "type": "address"
        },
        {
          "indexed": true,
          "internalType": "address",
          "name": "sender",
          "type": "address"
        }
      ],
      "name": "RoleGranted",
      "type": "event"
    },
    {
      "anonymous": false,
      "inputs": [
        {
          "indexed": true,
          "internalType": "bytes32",
          "name": "role",
          "type": "bytes32"
        },
        {
          "indexed": true,
          "internalType": "address",
          "name": "account",
          "type": "address"
        },
        {
          "indexed": true,
          "internalType": "address",
          "name": "sender",
          "type": "address"
        }
      ],
      "name": "RoleRevoked",
      "type": "event"
    },
    {
      "anonymous": false,
      "inputs": [
        {
          "indexed": true,
          "internalType": "address",
          "name": "from",
          "type": "address"
        },
        {
          "indexed": true,
          "internalType": "address",
          "name": "to",
          "type": "address"
        },
        {
          "indexed": false,
          "internalType": "uint256",
          "name": "value",
          "type": "uint256"
        }
      ],
      "name": "Transfer",
      "type": "event"
    },
    {
      "anonymous": false,
      "inputs": [
        {
          "indexed": false,
          "internalType": "uint256",
          "name": "oldTreasuryFeeBps",
          "type": "uint256"
        },
        {
          "indexed": false,
          "internalType": "uint256",
          "name": "newTreasuryFeeBps",
          "type": "uint256"
        }
      ],
      "name": "TreasuryFeeBpsUpdated",
      "type": "event"
    },
    {
      "anonymous": false,
      "inputs": [
        {
          "indexed": false,
          "internalType": "address",
          "name": "oldTreasury",
          "type": "address"
        },
        {
          "indexed": false,
          "internalType": "address",
          "name": "newTreasury",
          "type": "address"
        }
      ],
      "name": "TreasuryUpdated",
      "type": "event"
    },
    {
      "anonymous": false,
      "inputs": [
        {
          "indexed": false,
          "internalType": "address",
          "name": "account",
          "type": "address"
        }
      ],
      "name": "Unpaused",
      "type": "event"
    },
    {
      "anonymous": false,
      "inputs": [
        {
          "indexed": true,
          "internalType": "address",
          "name": "sender",
          "type": "address"
        },
        {
          "indexed": true,
          "internalType": "address",
          "name": "receiver",
          "type": "address"
        },
        {
          "indexed": true,
          "internalType": "address",
          "name": "owner",
          "type": "address"
        },
        {
          "indexed": false,
          "internalType": "uint256",
          "name": "assets",
          "type": "uint256"
        },
        {
          "indexed": false,
          "internalType": "uint256",
          "name": "shares",
          "type": "uint256"
        }
      ],
      "name": "Withdraw",
      "type": "event"
    },
    {
      "anonymous": false,
      "inputs": [
        {
          "indexed": false,
          "internalType": "uint256",
          "name": "oldWithdrawalFeeBps",
          "type": "uint256"
        },
        {
          "indexed": false,
          "internalType": "uint256",
          "name": "newWithdrawalFeeBps",
          "type": "uint256"
        }
      ],
      "name": "WithdrawalFeeBpsSet",
      "type": "event"
    },
    {
      "inputs": [],
      "name": "AAVE_PRICE_ORACLE_DECIMALS",
      "outputs": [
        {
          "internalType": "uint8",
          "name": "",
          "type": "uint8"
        }
      ],
      "stateMutability": "view",
      "type": "function"
    },
    {
      "inputs": [],
      "name": "BALANCE_DIFF_TOLERANCE",
      "outputs": [
        {
          "internalType": "uint256",
          "name": "",
          "type": "uint256"
        }
      ],
      "stateMutability": "view",
      "type": "function"
    },
    {
      "inputs": [],
      "name": "DEFAULT_ADMIN_ROLE",
      "outputs": [
        {
          "internalType": "bytes32",
          "name": "",
          "type": "bytes32"
        }
      ],
      "stateMutability": "view",
      "type": "function"
    },
    {
      "inputs": [],
      "name": "DLOOP_ADMIN_ROLE",
      "outputs": [
        {
          "internalType": "bytes32",
          "name": "",
          "type": "bytes32"
        }
      ],
      "stateMutability": "view",
      "type": "function"
    },
    {
      "inputs": [],
      "name": "LEVERAGE_DIFF_TOLERANCE",
      "outputs": [
        {
          "internalType": "uint256",
          "name": "",
          "type": "uint256"
        }
      ],
      "stateMutability": "view",
      "type": "function"
    },
    {
      "inputs": [],
      "name": "MAX_WITHDRAWAL_FEE_BPS",
      "outputs": [
        {
          "internalType": "uint256",
          "name": "",
          "type": "uint256"
        }
      ],
      "stateMutability": "view",
      "type": "function"
    },
    {
      "inputs": [],
      "name": "PAUSER_ROLE",
      "outputs": [
        {
          "internalType": "bytes32",
          "name": "",
          "type": "bytes32"
        }
      ],
      "stateMutability": "view",
      "type": "function"
    },
    {
      "inputs": [],
      "name": "RESCUER_ADMIN_ROLE",
      "outputs": [
        {
          "internalType": "bytes32",
          "name": "",
          "type": "bytes32"
        }
      ],
      "stateMutability": "view",
      "type": "function"
    },
    {
      "inputs": [],
      "name": "RESCUER_ROLE",
      "outputs": [
        {
          "internalType": "bytes32",
          "name": "",
          "type": "bytes32"
        }
      ],
      "stateMutability": "view",
      "type": "function"
    },
    {
      "inputs": [],
      "name": "REWARDS_MANAGER_ROLE",
      "outputs": [
        {
          "internalType": "bytes32",
          "name": "",
          "type": "bytes32"
        }
      ],
      "stateMutability": "view",
      "type": "function"
    },
    {
      "inputs": [],
      "name": "VARIABLE_LENDING_INTERST_RATE_MODE",
      "outputs": [
        {
          "internalType": "uint256",
          "name": "",
          "type": "uint256"
        }
      ],
      "stateMutability": "view",
      "type": "function"
    },
    {
      "inputs": [
        {
          "internalType": "address",
          "name": "owner",
          "type": "address"
        },
        {
          "internalType": "address",
          "name": "spender",
          "type": "address"
        }
      ],
      "name": "allowance",
      "outputs": [
        {
          "internalType": "uint256",
          "name": "",
          "type": "uint256"
        }
      ],
      "stateMutability": "view",
      "type": "function"
    },
    {
      "inputs": [
        {
          "internalType": "address",
          "name": "spender",
          "type": "address"
        },
        {
          "internalType": "uint256",
          "name": "value",
          "type": "uint256"
        }
      ],
      "name": "approve",
      "outputs": [
        {
          "internalType": "bool",
          "name": "",
          "type": "bool"
        }
      ],
      "stateMutability": "nonpayable",
      "type": "function"
    },
    {
      "inputs": [],
      "name": "asset",
      "outputs": [
        {
          "internalType": "address",
          "name": "",
          "type": "address"
        }
      ],
      "stateMutability": "view",
      "type": "function"
    },
    {
      "inputs": [
        {
          "internalType": "address",
          "name": "account",
          "type": "address"
        }
      ],
      "name": "balanceOf",
      "outputs": [
        {
          "internalType": "uint256",
          "name": "",
          "type": "uint256"
        }
      ],
      "stateMutability": "view",
      "type": "function"
    },
    {
      "inputs": [],
      "name": "collateralToken",
      "outputs": [
        {
          "internalType": "contract ERC20",
          "name": "",
          "type": "address"
        }
      ],
      "stateMutability": "view",
      "type": "function"
    },
    {
      "inputs": [
        {
          "internalType": "uint256",
          "name": "amount",
          "type": "uint256"
        },
        {
          "internalType": "address[]",
          "name": "rewardTokens",
          "type": "address[]"
        },
        {
          "internalType": "address",
          "name": "receiver",
          "type": "address"
        }
      ],
      "name": "compoundRewards",
      "outputs": [],
      "stateMutability": "nonpayable",
      "type": "function"
    },
    {
      "inputs": [
        {
          "internalType": "uint256",
          "name": "amountInBase",
          "type": "uint256"
        },
        {
          "internalType": "address",
          "name": "token",
          "type": "address"
        }
      ],
      "name": "convertFromBaseCurrencyToToken",
      "outputs": [
        {
          "internalType": "uint256",
          "name": "",
          "type": "uint256"
        }
      ],
      "stateMutability": "view",
      "type": "function"
    },
    {
      "inputs": [
        {
          "internalType": "uint256",
          "name": "amountInToken",
          "type": "uint256"
        },
        {
          "internalType": "address",
          "name": "token",
          "type": "address"
        }
      ],
      "name": "convertFromTokenAmountToBaseCurrency",
      "outputs": [
        {
          "internalType": "uint256",
          "name": "",
          "type": "uint256"
        }
      ],
      "stateMutability": "view",
      "type": "function"
    },
    {
      "inputs": [
        {
          "internalType": "uint256",
          "name": "shares",
          "type": "uint256"
        }
      ],
      "name": "convertToAssets",
      "outputs": [
        {
          "internalType": "uint256",
          "name": "",
          "type": "uint256"
        }
      ],
      "stateMutability": "view",
      "type": "function"
    },
    {
      "inputs": [
        {
          "internalType": "uint256",
          "name": "assets",
          "type": "uint256"
        }
      ],
      "name": "convertToShares",
      "outputs": [
        {
          "internalType": "uint256",
          "name": "",
          "type": "uint256"
        }
      ],
      "stateMutability": "view",
      "type": "function"
    },
    {
      "inputs": [],
      "name": "coreState",
      "outputs": [
        {
          "internalType": "contract IPoolAddressesProvider",
          "name": "lendingPoolAddressesProvider",
          "type": "address"
        },
        {
          "internalType": "address",
          "name": "dLendAssetToClaimFor",
          "type": "address"
        },
        {
          "internalType": "address",
          "name": "targetStaticATokenWrapper",
          "type": "address"
        },
        {
          "internalType": "contract IRewardsController",
          "name": "dLendRewardsController",
          "type": "address"
        }
      ],
      "stateMutability": "view",
      "type": "function"
    },
    {
      "inputs": [],
      "name": "debtToken",
      "outputs": [
        {
          "internalType": "contract ERC20",
          "name": "",
          "type": "address"
        }
      ],
      "stateMutability": "view",
      "type": "function"
    },
    {
      "inputs": [],
      "name": "decimals",
      "outputs": [
        {
          "internalType": "uint8",
          "name": "",
          "type": "uint8"
        }
      ],
      "stateMutability": "view",
      "type": "function"
    },
    {
      "inputs": [
        {
          "internalType": "uint256",
          "name": "inputDebtTokenAmount",
          "type": "uint256"
        },
        {
          "internalType": "uint256",
          "name": "minReceivedCollateralTokenAmount",
          "type": "uint256"
        }
      ],
      "name": "decreaseLeverage",
      "outputs": [],
      "stateMutability": "nonpayable",
      "type": "function"
    },
    {
      "inputs": [
        {
          "internalType": "uint256",
          "name": "assets",
          "type": "uint256"
        },
        {
          "internalType": "address",
          "name": "receiver",
          "type": "address"
        }
      ],
      "name": "deposit",
      "outputs": [
        {
          "internalType": "uint256",
          "name": "",
          "type": "uint256"
        }
      ],
      "stateMutability": "nonpayable",
      "type": "function"
    },
    {
      "inputs": [],
      "name": "exchangeAsset",
      "outputs": [
        {
          "internalType": "address",
          "name": "",
          "type": "address"
        }
      ],
      "stateMutability": "view",
      "type": "function"
    },
    {
      "inputs": [],
      "name": "exchangeThreshold",
      "outputs": [
        {
          "internalType": "uint256",
          "name": "",
          "type": "uint256"
        }
      ],
      "stateMutability": "view",
      "type": "function"
    },
    {
      "inputs": [
        {
          "internalType": "address",
          "name": "asset",
          "type": "address"
        }
      ],
      "name": "getAssetPriceFromOracle",
      "outputs": [
        {
          "internalType": "uint256",
          "name": "",
          "type": "uint256"
        }
      ],
      "stateMutability": "view",
      "type": "function"
    },
    {
      "inputs": [],
      "name": "getCollateralTokenAddress",
      "outputs": [
        {
          "internalType": "address",
          "name": "",
          "type": "address"
        }
      ],
      "stateMutability": "view",
      "type": "function"
    },
    {
      "inputs": [
        {
          "internalType": "address",
          "name": "token",
          "type": "address"
        },
        {
          "internalType": "address",
          "name": "user",
          "type": "address"
        }
      ],
      "name": "getCollateralValueInTokenAmount",
      "outputs": [
        {
          "internalType": "uint256",
          "name": "collateralTokenAmount",
          "type": "uint256"
        }
      ],
      "stateMutability": "view",
      "type": "function"
    },
    {
      "inputs": [],
      "name": "getCurrentLeverageBps",
      "outputs": [
        {
          "internalType": "uint256",
          "name": "",
          "type": "uint256"
        }
      ],
      "stateMutability": "view",
      "type": "function"
    },
    {
      "inputs": [],
      "name": "getCurrentSubsidyBps",
      "outputs": [
        {
          "internalType": "uint256",
          "name": "",
          "type": "uint256"
        }
      ],
      "stateMutability": "view",
      "type": "function"
    },
    {
      "inputs": [],
      "name": "getDebtTokenAddress",
      "outputs": [
        {
          "internalType": "address",
          "name": "",
          "type": "address"
        }
      ],
      "stateMutability": "view",
      "type": "function"
    },
    {
      "inputs": [
        {
          "internalType": "address",
          "name": "token",
          "type": "address"
        },
        {
          "internalType": "address",
          "name": "user",
          "type": "address"
        }
      ],
      "name": "getDebtValueInTokenAmount",
      "outputs": [
        {
          "internalType": "uint256",
          "name": "debtTokenAmount",
          "type": "uint256"
        }
      ],
      "stateMutability": "view",
      "type": "function"
    },
    {
      "inputs": [],
      "name": "getDefaultMaxSubsidyBps",
      "outputs": [
        {
          "internalType": "uint256",
          "name": "",
          "type": "uint256"
        }
      ],
      "stateMutability": "view",
      "type": "function"
    },
    {
      "inputs": [],
      "name": "getLendingOracle",
      "outputs": [
        {
          "internalType": "contract IPriceOracleGetter",
          "name": "",
          "type": "address"
        }
      ],
      "stateMutability": "view",
      "type": "function"
    },
    {
      "inputs": [],
      "name": "getLendingPool",
      "outputs": [
        {
          "internalType": "contract IPool",
          "name": "",
          "type": "address"
        }
      ],
      "stateMutability": "view",
      "type": "function"
    },
    {
      "inputs": [],
      "name": "getLendingPoolAddress",
      "outputs": [
        {
          "internalType": "address",
          "name": "",
          "type": "address"
        }
      ],
      "stateMutability": "view",
      "type": "function"
    },
    {
      "inputs": [],
      "name": "getOracleAddress",
      "outputs": [
        {
          "internalType": "address",
          "name": "",
          "type": "address"
        }
      ],
      "stateMutability": "view",
      "type": "function"
    },
    {
      "inputs": [
        {
          "internalType": "bytes32",
          "name": "role",
          "type": "bytes32"
        }
      ],
      "name": "getRoleAdmin",
      "outputs": [
        {
          "internalType": "bytes32",
          "name": "",
          "type": "bytes32"
        }
      ],
      "stateMutability": "view",
      "type": "function"
    },
    {
      "inputs": [
        {
          "internalType": "address",
          "name": "user",
          "type": "address"
        }
      ],
      "name": "getTotalCollateralAndDebtOfUserInBase",
      "outputs": [
        {
          "internalType": "uint256",
          "name": "totalCollateralBase",
          "type": "uint256"
        },
        {
          "internalType": "uint256",
          "name": "totalDebtBase",
          "type": "uint256"
        }
      ],
      "stateMutability": "view",
      "type": "function"
    },
    {
      "inputs": [
        {
          "internalType": "uint256",
          "name": "amount",
          "type": "uint256"
        }
      ],
      "name": "getTreasuryFee",
      "outputs": [
        {
          "internalType": "uint256",
          "name": "",
          "type": "uint256"
        }
      ],
      "stateMutability": "view",
      "type": "function"
    },
    {
      "inputs": [
        {
          "internalType": "bytes32",
          "name": "role",
          "type": "bytes32"
        },
        {
          "internalType": "address",
          "name": "account",
          "type": "address"
        }
      ],
      "name": "grantRole",
      "outputs": [],
      "stateMutability": "nonpayable",
      "type": "function"
    },
    {
      "inputs": [
        {
          "internalType": "bytes32",
          "name": "role",
          "type": "bytes32"
        },
        {
          "internalType": "address",
          "name": "account",
          "type": "address"
        }
      ],
      "name": "hasRole",
      "outputs": [
        {
          "internalType": "bool",
          "name": "",
          "type": "bool"
        }
      ],
      "stateMutability": "view",
      "type": "function"
    },
    {
      "inputs": [
        {
          "internalType": "uint256",
          "name": "inputCollateralTokenAmount",
          "type": "uint256"
        },
        {
          "internalType": "uint256",
          "name": "minReceivedDebtTokenAmount",
          "type": "uint256"
        }
      ],
      "name": "increaseLeverage",
      "outputs": [],
      "stateMutability": "nonpayable",
      "type": "function"
    },
    {
      "inputs": [
        {
          "internalType": "address",
          "name": "token",
          "type": "address"
        }
      ],
      "name": "isRescuableToken",
      "outputs": [
        {
          "internalType": "bool",
          "name": "",
          "type": "bool"
        }
      ],
      "stateMutability": "view",
      "type": "function"
    },
    {
      "inputs": [],
      "name": "isTooImbalanced",
      "outputs": [
        {
          "internalType": "bool",
          "name": "",
          "type": "bool"
        }
      ],
      "stateMutability": "view",
      "type": "function"
    },
    {
      "inputs": [],
      "name": "lowerBoundTargetLeverageBps",
      "outputs": [
        {
          "internalType": "uint32",
          "name": "",
          "type": "uint32"
        }
      ],
      "stateMutability": "view",
      "type": "function"
    },
    {
      "inputs": [
        {
          "internalType": "address",
          "name": "_user",
          "type": "address"
        }
      ],
      "name": "maxDeposit",
      "outputs": [
        {
          "internalType": "uint256",
          "name": "",
          "type": "uint256"
        }
      ],
      "stateMutability": "view",
      "type": "function"
    },
    {
      "inputs": [
        {
          "internalType": "address",
          "name": "_user",
          "type": "address"
        }
      ],
      "name": "maxMint",
      "outputs": [
        {
          "internalType": "uint256",
          "name": "",
          "type": "uint256"
        }
      ],
      "stateMutability": "view",
      "type": "function"
    },
    {
      "inputs": [
        {
          "internalType": "address",
          "name": "_user",
          "type": "address"
        }
      ],
      "name": "maxRedeem",
      "outputs": [
        {
          "internalType": "uint256",
          "name": "",
          "type": "uint256"
        }
      ],
      "stateMutability": "view",
      "type": "function"
    },
    {
      "inputs": [],
      "name": "maxSubsidyBps",
      "outputs": [
        {
          "internalType": "uint256",
          "name": "",
          "type": "uint256"
        }
      ],
      "stateMutability": "view",
      "type": "function"
    },
    {
      "inputs": [],
      "name": "maxTreasuryFeeBps",
      "outputs": [
        {
          "internalType": "uint256",
          "name": "",
          "type": "uint256"
        }
      ],
      "stateMutability": "view",
      "type": "function"
    },
    {
      "inputs": [
        {
          "internalType": "address",
          "name": "_user",
          "type": "address"
        }
      ],
      "name": "maxWithdraw",
      "outputs": [
        {
          "internalType": "uint256",
          "name": "",
          "type": "uint256"
        }
      ],
      "stateMutability": "view",
      "type": "function"
    },
    {
      "inputs": [],
      "name": "minDeviationBps",
      "outputs": [
        {
          "internalType": "uint256",
          "name": "",
          "type": "uint256"
        }
      ],
      "stateMutability": "view",
      "type": "function"
    },
    {
      "inputs": [
        {
          "internalType": "uint256",
          "name": "shares",
          "type": "uint256"
        },
        {
          "internalType": "address",
          "name": "receiver",
          "type": "address"
        }
      ],
      "name": "mint",
      "outputs": [
        {
          "internalType": "uint256",
          "name": "",
          "type": "uint256"
        }
      ],
      "stateMutability": "nonpayable",
      "type": "function"
    },
    {
      "inputs": [],
      "name": "name",
      "outputs": [
        {
          "internalType": "string",
          "name": "",
          "type": "string"
        }
      ],
      "stateMutability": "view",
      "type": "function"
    },
    {
      "inputs": [],
      "name": "pause",
      "outputs": [],
      "stateMutability": "nonpayable",
      "type": "function"
    },
    {
      "inputs": [],
      "name": "paused",
      "outputs": [
        {
          "internalType": "bool",
          "name": "",
          "type": "bool"
        }
      ],
      "stateMutability": "view",
      "type": "function"
    },
    {
      "inputs": [
        {
          "internalType": "uint256",
          "name": "assets",
          "type": "uint256"
        }
      ],
      "name": "previewDeposit",
      "outputs": [
        {
          "internalType": "uint256",
          "name": "",
          "type": "uint256"
        }
      ],
      "stateMutability": "view",
      "type": "function"
    },
    {
      "inputs": [
        {
          "internalType": "uint256",
          "name": "shares",
          "type": "uint256"
        }
      ],
      "name": "previewMint",
      "outputs": [
        {
          "internalType": "uint256",
          "name": "",
          "type": "uint256"
        }
      ],
      "stateMutability": "view",
      "type": "function"
    },
    {
      "inputs": [
        {
          "internalType": "uint256",
          "name": "shares",
          "type": "uint256"
        }
      ],
      "name": "previewRedeem",
      "outputs": [
        {
          "internalType": "uint256",
          "name": "",
          "type": "uint256"
        }
      ],
      "stateMutability": "view",
      "type": "function"
    },
    {
      "inputs": [
        {
          "internalType": "uint256",
          "name": "assets",
          "type": "uint256"
        }
      ],
      "name": "previewWithdraw",
      "outputs": [
        {
          "internalType": "uint256",
          "name": "",
          "type": "uint256"
        }
      ],
      "stateMutability": "view",
      "type": "function"
    },
    {
      "inputs": [
        {
          "internalType": "uint256",
          "name": "shares",
          "type": "uint256"
        },
        {
          "internalType": "address",
          "name": "receiver",
          "type": "address"
        },
        {
          "internalType": "address",
          "name": "owner",
          "type": "address"
        }
      ],
      "name": "redeem",
      "outputs": [
        {
          "internalType": "uint256",
          "name": "",
          "type": "uint256"
        }
      ],
      "stateMutability": "nonpayable",
      "type": "function"
    },
    {
      "inputs": [
        {
          "internalType": "bytes32",
          "name": "role",
          "type": "bytes32"
        },
        {
          "internalType": "address",
          "name": "callerConfirmation",
          "type": "address"
        }
      ],
      "name": "renounceRole",
      "outputs": [],
      "stateMutability": "nonpayable",
      "type": "function"
    },
    {
      "inputs": [
        {
          "internalType": "address",
          "name": "receiver",
          "type": "address"
        },
        {
          "internalType": "uint256",
          "name": "amount",
          "type": "uint256"
        }
      ],
      "name": "rescueNative",
      "outputs": [],
      "stateMutability": "nonpayable",
      "type": "function"
    },
    {
      "inputs": [
        {
          "internalType": "address",
          "name": "token",
          "type": "address"
        },
        {
          "internalType": "address",
          "name": "receiver",
          "type": "address"
        },
        {
          "internalType": "uint256",
          "name": "amount",
          "type": "uint256"
        }
      ],
      "name": "rescueToken",
      "outputs": [],
      "stateMutability": "nonpayable",
      "type": "function"
    },
    {
      "inputs": [
        {
          "internalType": "bytes32",
          "name": "role",
          "type": "bytes32"
        },
        {
          "internalType": "address",
          "name": "account",
          "type": "address"
        }
      ],
      "name": "revokeRole",
      "outputs": [],
      "stateMutability": "nonpayable",
      "type": "function"
    },
    {
      "inputs": [
        {
          "internalType": "address",
          "name": "_newDLendRewardsController",
          "type": "address"
        }
      ],
      "name": "setDLendRewardsController",
      "outputs": [],
      "stateMutability": "nonpayable",
      "type": "function"
    },
    {
      "inputs": [
        {
          "internalType": "uint256",
          "name": "newExchangeThreshold",
          "type": "uint256"
        }
      ],
      "name": "setExchangeThreshold",
      "outputs": [],
      "stateMutability": "nonpayable",
      "type": "function"
    },
    {
      "inputs": [
        {
          "internalType": "uint32",
          "name": "_lowerBoundTargetLeverageBps",
          "type": "uint32"
        },
        {
          "internalType": "uint32",
          "name": "_upperBoundTargetLeverageBps",
          "type": "uint32"
        }
      ],
      "name": "setLeverageBounds",
      "outputs": [],
      "stateMutability": "nonpayable",
      "type": "function"
    },
    {
      "inputs": [
        {
          "internalType": "uint256",
          "name": "_maxSubsidyBps",
          "type": "uint256"
        }
      ],
      "name": "setMaxSubsidyBps",
      "outputs": [],
      "stateMutability": "nonpayable",
      "type": "function"
    },
    {
      "inputs": [
        {
          "internalType": "uint256",
          "name": "_minDeviationBps",
          "type": "uint256"
        }
      ],
      "name": "setMinDeviationBps",
      "outputs": [],
      "stateMutability": "nonpayable",
      "type": "function"
    },
    {
      "inputs": [
        {
          "internalType": "address",
          "name": "newTreasury",
          "type": "address"
        }
      ],
      "name": "setTreasury",
      "outputs": [],
      "stateMutability": "nonpayable",
      "type": "function"
    },
    {
      "inputs": [
        {
          "internalType": "uint256",
          "name": "newTreasuryFeeBps",
          "type": "uint256"
        }
      ],
      "name": "setTreasuryFeeBps",
      "outputs": [],
      "stateMutability": "nonpayable",
      "type": "function"
    },
    {
      "inputs": [
        {
          "internalType": "uint256",
          "name": "newWithdrawalFeeBps",
          "type": "uint256"
        }
      ],
      "name": "setWithdrawalFeeBps",
      "outputs": [],
      "stateMutability": "nonpayable",
      "type": "function"
    },
    {
      "inputs": [
        {
          "internalType": "bytes4",
          "name": "interfaceId",
          "type": "bytes4"
        }
      ],
      "name": "supportsInterface",
      "outputs": [
        {
          "internalType": "bool",
          "name": "",
          "type": "bool"
        }
      ],
      "stateMutability": "view",
      "type": "function"
    },
    {
      "inputs": [],
      "name": "symbol",
      "outputs": [
        {
          "internalType": "string",
          "name": "",
          "type": "string"
        }
      ],
      "stateMutability": "view",
      "type": "function"
    },
    {
      "inputs": [],
      "name": "targetLeverageBps",
      "outputs": [
        {
          "internalType": "uint32",
          "name": "",
          "type": "uint32"
        }
      ],
      "stateMutability": "view",
      "type": "function"
    },
    {
      "inputs": [],
      "name": "totalAssets",
      "outputs": [
        {
          "internalType": "uint256",
          "name": "",
          "type": "uint256"
        }
      ],
      "stateMutability": "view",
      "type": "function"
    },
    {
      "inputs": [],
      "name": "totalSupply",
      "outputs": [
        {
          "internalType": "uint256",
          "name": "",
          "type": "uint256"
        }
      ],
      "stateMutability": "view",
      "type": "function"
    },
    {
      "inputs": [
        {
          "internalType": "address",
          "name": "to",
          "type": "address"
        },
        {
          "internalType": "uint256",
          "name": "value",
          "type": "uint256"
        }
      ],
      "name": "transfer",
      "outputs": [
        {
          "internalType": "bool",
          "name": "",
          "type": "bool"
        }
      ],
      "stateMutability": "nonpayable",
      "type": "function"
    },
    {
      "inputs": [
        {
          "internalType": "address",
          "name": "from",
          "type": "address"
        },
        {
          "internalType": "address",
          "name": "to",
          "type": "address"
        },
        {
          "internalType": "uint256",
          "name": "value",
          "type": "uint256"
        }
      ],
      "name": "transferFrom",
      "outputs": [
        {
          "internalType": "bool",
          "name": "",
          "type": "bool"
        }
      ],
      "stateMutability": "nonpayable",
      "type": "function"
    },
    {
      "inputs": [],
      "name": "treasury",
      "outputs": [
        {
          "internalType": "address",
          "name": "",
          "type": "address"
        }
      ],
      "stateMutability": "view",
      "type": "function"
    },
    {
      "inputs": [],
      "name": "treasuryFeeBps",
      "outputs": [
        {
          "internalType": "uint256",
          "name": "",
          "type": "uint256"
        }
      ],
      "stateMutability": "view",
      "type": "function"
    },
    {
      "inputs": [],
      "name": "unpause",
      "outputs": [],
      "stateMutability": "nonpayable",
      "type": "function"
    },
    {
      "inputs": [],
      "name": "upperBoundTargetLeverageBps",
      "outputs": [
        {
          "internalType": "uint32",
          "name": "",
          "type": "uint32"
        }
      ],
      "stateMutability": "view",
      "type": "function"
    },
    {
      "inputs": [
        {
          "internalType": "uint256",
          "name": "assets",
          "type": "uint256"
        },
        {
          "internalType": "address",
          "name": "receiver",
          "type": "address"
        },
        {
          "internalType": "address",
          "name": "owner",
          "type": "address"
        }
      ],
      "name": "withdraw",
      "outputs": [
        {
          "internalType": "uint256",
          "name": "",
          "type": "uint256"
        }
      ],
      "stateMutability": "nonpayable",
      "type": "function"
    },
    {
      "inputs": [],
      "name": "withdrawalFeeBps",
      "outputs": [
        {
          "internalType": "uint256",
          "name": "",
          "type": "uint256"
        }
      ],
      "stateMutability": "view",
      "type": "function"
    }
  ],
  "transactionHash": "0x5137978b32853bf59bb1cd7e0801b5af003e6dd9c7941ce63a9062b9a6ab38de",
  "args": [
    {
      "name": "dLOOP 3X sfrxUSD dLEND",
      "symbol": "3X-sfrxUSD",
      "collateralToken": "0x5Bff88cA1442c2496f7E475E9e7786383Bc070c0",
      "debtToken": "0x53a6aBb52B2F968fA80dF6A894e4f1b1020DA975",
      "lendingPoolAddressesProvider": "0x1f8d8a3575d049aA0C195AA947483738811bAdcb",
      "targetLeverageBps": 3000000,
      "lowerBoundTargetLeverageBps": 2000000,
      "upperBoundTargetLeverageBps": 4000000,
      "maxSubsidyBps": 20000,
      "minDeviationBps": 20000,
      "withdrawalFeeBps": 4000,
      "rewardsController": "0xCBCab2e82F1377d2cc5c2682d135c38E17FEbe65",
      "dLendAssetToClaimFor": "0x8dBf873B77280333a0328cf12d9e93d1A3AC1c06",
      "targetStaticATokenWrapper": "0x36E178ba804514D80EA87D78B96db87408B8059e",
      "treasury": "0xE83c188a7BE46B90715C757A06cF917175f30262",
      "maxTreasuryFeeBps": "1000",
      "initialTreasuryFeeBps": "500",
      "initialExchangeThreshold": "10000000000000000000"
    }
  ],
  "numDeployments": 1,
  "solcInputHash": "98ba743570b2b0c089d12aa2e805891b",
  "bytecode": "0x6101606040523480156200001257600080fd5b5060405162006a7838038062006a78833981016040819052620000359162000b56565b30816101c00151826101e0015183610200015184610220015185600001518660200151876040015188606001518960a001518a60c001518b60e001518c61010001518d61012001518e6101400151878a8a816003908162000097919062000d8d565b506004620000a6828262000d8d565b505050600080620000bd83620006db60201b60201c565b9150915081620000cf576012620000d1565b805b60ff1660a05250506001600160a01b03908116608052600160065587811661010052881660e0526200010560648062000e6f565b620001169061ffff16606462000e98565b63ffffffff168663ffffffff1610156200015057604051632d7e79d160e21b815263ffffffff871660048201526024015b60405180910390fd5b8563ffffffff168563ffffffff161015806200017857508363ffffffff168663ffffffff1610155b15620001b05760405163b857eea760e01b815263ffffffff808716600483015280881660248301528516604482015260640162000147565b620001bb88620007c0565b620001e55760405163c47118b160e01b81526001600160a01b038916600482015260240162000147565b620001f087620007c0565b6200021a5760405163a830a4a160e01b81526001600160a01b038816600482015260240162000147565b63ffffffff86811660c05260078054610100600160481b0319166101008884160263ffffffff60281b191617650100000000009287169290920291909117905560088390556009829055600a8190556200028460008051602062006a3883398151915280620008ae565b620002ae60008051602062006a5883398151915260008051602062006a38833981519152620008ae565b620002c960008051602062006a3883398151915233620008f9565b50620002e560008051602062006a5883398151915233620008f9565b5050506001600160a01b038d1697506200031a965050505050505057604051631810b12760e21b815260040160405180910390fd5b6001600160a01b03841662000342576040516351dc806d60e11b815260040160405180910390fd5b6200034f60648062000e6f565b620003609061ffff16606462000e98565b63ffffffff168311156200038b5760405163a7519f3f60e01b81526004810184905260240162000147565b82821115620003b857604051636cef961f60e11b8152600481018390526024810184905260440162000147565b80600003620003da576040516354a62ce560e01b815260040160405180910390fd5b6001600160a01b0385811661012052600b80546001600160a01b031916918616919091179055610140839052600c829055600d8190556200041d600033620008f9565b506200044a7f51785d261c3b3e8c2cfe2d0e108b9ab2b1fb703ff9e9e49aba4ebdc85c36152b33620008f9565b5050505050506200047160008051602062006a1883398151915280620008ae60201b60201c565b6200049b600080516020620069f883398151915260008051602062006a18833981519152620008ae565b620004b660008051602062006a1883398151915233620008f9565b50620004d2600080516020620069f883398151915233620008f9565b506080810151600e80546001600160a01b039283166001600160a01b031991821617909155610180830151600f80549184169183169190911790556101a08301516010805491841691831691909117905561016083015160118054919093169116179055600062000542620009ac565b6001600160a01b031663e19f47006040518163ffffffff1660e01b8152600401602060405180830381865afa15801562000580573d6000803e3d6000fd5b505050506040513d601f19601f82011682018060405250810190620005a6919062000ebb565b6001600160a01b031614620006095760405162461bcd60e51b815260206004820152602260248201527f496e76616c6964207072696365206f7261636c6520626173652063757272656e604482015261637960f01b606482015260840162000147565b620006176008600a62000fdf565b62000621620009ac565b6001600160a01b0316638c89b64f6040518163ffffffff1660e01b8152600401602060405180830381865afa1580156200065f573d6000803e3d6000fd5b505050506040513d601f19601f8201168201806040525081019062000685919062000ff0565b14620006d45760405162461bcd60e51b815260206004820152601960248201527f496e76616c6964207072696365206f7261636c6520756e697400000000000000604482015260640162000147565b5062001028565b60408051600481526024810182526020810180516001600160e01b031663313ce56760e01b17905290516000918291829182916001600160a01b0387169162000724916200100a565b600060405180830381855afa9150503d806000811462000761576040519150601f19603f3d011682016040523d82523d6000602084013e62000766565b606091505b50915091508180156200077b57506020815110155b15620007b35760008180602001905181019062000799919062000ff0565b905060ff8111620007b1576001969095509350505050565b505b5060009485945092505050565b6000816001600160a01b03166318160ddd6040518163ffffffff1660e01b8152600401602060405180830381865afa9250505080156200081f575060408051601f3d908101601f191682019092526200081c9181019062000ff0565b60015b6200082c57506000919050565b6040516370a0823160e01b81523060048201526001600160a01b038416906370a0823190602401602060405180830381865afa9250505080156200088f575060408051601f3d908101601f191682019092526200088c9181019062000ff0565b60015b6200089d5750600092915050565b5060019392505050565b505b919050565b600082815260056020526040808220600101805490849055905190918391839186917fbd79b86ffe0ab8e8776151514217cd7cacd52c909f66475c3af44e129f0b00ff9190a4505050565b60008281526005602090815260408083206001600160a01b038516845290915281205460ff16620009a25760008381526005602090815260408083206001600160a01b03861684529091529020805460ff19166001179055620009593390565b6001600160a01b0316826001600160a01b0316847f2f8788117e7eff1d82e926ec794901d17c78024a50270940304540a733656f0d60405160405180910390a4506001620009a6565b5060005b92915050565b600e5460408051631f94a27560e31b815290516000926001600160a01b03169163fca513a89160048083019260209291908290030181865afa158015620009f7573d6000803e3d6000fd5b505050506040513d601f19601f8201168201806040525081019062000a1d919062000ebb565b905090565b634e487b7160e01b600052604160045260246000fd5b60405161024081016001600160401b038111828210171562000a5e5762000a5e62000a22565b60405290565b60005b8381101562000a8157818101518382015260200162000a67565b50506000910152565b600082601f83011262000a9c57600080fd5b81516001600160401b038082111562000ab95762000ab962000a22565b604051601f8301601f19908116603f0116810190828211818310171562000ae45762000ae462000a22565b8160405283815286602085880101111562000afe57600080fd5b62000b1184602083016020890162000a64565b9695505050505050565b6001600160a01b038116811462000b3157600080fd5b50565b8051620008a98162000b1b565b805163ffffffff81168114620008a957600080fd5b60006020828403121562000b6957600080fd5b81516001600160401b038082111562000b8157600080fd5b90830190610240828603121562000b9757600080fd5b62000ba162000a38565b82518281111562000bb157600080fd5b62000bbf8782860162000a8a565b82525060208301518281111562000bd557600080fd5b62000be38782860162000a8a565b60208301525062000bf76040840162000b34565b604082015262000c0a6060840162000b34565b606082015262000c1d6080840162000b34565b608082015262000c3060a0840162000b41565b60a082015262000c4360c0840162000b41565b60c082015262000c5660e0840162000b41565b60e0820152610100838101519082015261012080840151908201526101408084015190820152610160915062000c8e82840162000b34565b82820152610180915062000ca482840162000b34565b828201526101a0915062000cba82840162000b34565b828201526101c0915062000cd082840162000b34565b918101919091526101e08281015190820152610200808301519082015261022091820151918101919091529392505050565b600181811c9082168062000d1757607f821691505b602082108103620008a757634e487b7160e01b600052602260045260246000fd5b601f82111562000d88576000816000526020600020601f850160051c8101602086101562000d635750805b601f850160051c820191505b8181101562000d845782815560010162000d6f565b5050505b505050565b81516001600160401b0381111562000da95762000da962000a22565b62000dc18162000dba845462000d02565b8462000d38565b602080601f83116001811462000df9576000841562000de05750858301515b600019600386901b1c1916600185901b17855562000d84565b600085815260208120601f198616915b8281101562000e2a5788860151825594840194600190910190840162000e09565b508582101562000e495787850151600019600388901b60f8161c191681555b5050505050600190811b01905550565b634e487b7160e01b600052601160045260246000fd5b61ffff81811683821602808216919082811462000e905762000e9062000e59565b505092915050565b63ffffffff81811683821602808216919082811462000e905762000e9062000e59565b60006020828403121562000ece57600080fd5b815162000edb8162000b1b565b9392505050565b600181815b8085111562000f2357816000190482111562000f075762000f0762000e59565b8085161562000f1557918102915b93841c939080029062000ee7565b509250929050565b60008262000f3c57506001620009a6565b8162000f4b57506000620009a6565b816001811462000f64576002811462000f6f5762000f8f565b6001915050620009a6565b60ff84111562000f835762000f8362000e59565b50506001821b620009a6565b5060208310610133831016604e8410600b841016171562000fb4575081810a620009a6565b62000fc0838362000ee2565b806000190482111562000fd75762000fd762000e59565b029392505050565b600062000edb60ff84168362000f2b565b6000602082840312156200100357600080fd5b5051919050565b600082516200101e81846020870162000a64565b9190910192915050565b60805160a05160c05160e0516101005161012051610140516157ae6200124a60003960008181610916015281816116f2015261172e0152600081816107d6015281816118da0152611925015260008181610ad001528181610c2b0152818161117c015281816112040152818161129a0152818161139401528181611aff01528181611b2c01528181611df801528181611e8001528181611eb801528181611ee501528181613384015281816144940152818161451c0152818161454c015281816148cb01528181614953015281816149a601528181614a3c01528181614a7d01528181614aaa01528181614b2c0152614b5f01526000818161083b01528181610a0a01528181610c62015281816110ce015281816111560152818161123c0152818161126b01528181611aa501528181611ad201528181611d4a01528181611dd201528181611f130152818161200d015281816124f3015281816138aa015281816142880152818161431e0152818161435f0152818161438e015281816143e60152818161446e015281816145a1015281816145d40152818161481d015281816148a50152614ad70152600081816108da015281816110460152818161108c015281816112fb0152818161134d0152818161154501528181611582015281816115cb01528181611cc701528181611d0d01528181611f7401528181611fc6015281816120cd01526143bf015260006116b4015260006106c701526157ae6000f3fe608060405234801561001057600080fd5b50600436106104ee5760003560e01c80637aa7c3c11161028e578063ba08765211610167578063dde35bfd116100d9578063e80cfa5e11610092578063e80cfa5e14610be4578063eaff459214610bed578063edea1d4814610c00578063ef8b30f714610a6d578063f0f4426014610c13578063f8d8989814610c2657600080fd5b8063dde35bfd14610b53578063dde51e1714610b5b578063e0dd245714610b6e578063e5711e8b14610b83578063e63ab1e914610b96578063e78a4fe014610bbd57600080fd5b8063cd1692691161012b578063cd16926914610aa8578063ce96cb7714610abb578063d267974c14610ace578063d547741f14610af4578063d905777e14610b07578063dd62ed3e14610b1a57600080fd5b8063ba08765214610a5a578063c63d75b6146106f3578063c6e6f59214610a6d578063c7101c1214610a80578063cabe9fd914610a9357600080fd5b80639d00f10811610200578063a9f1a798116101c4578063a9f1a798146109f5578063b18b78dd146109fd578063b2016bd414610a05578063b3d7f6b914610a2c578063b460af9414610a3f578063b6783edd14610a5257600080fd5b80639d00f10814610620578063a0a94526146109b4578063a1b2736a146109c7578063a217fddf146109da578063a9059cbb146109e257600080fd5b8063863df9e711610252578063863df9e71461095e5780638bc4ec9b1461096657806391d148541461097d57806394bf804d1461099057806395d89b41146109a357806395e6a3ba146109ab57600080fd5b80637aa7c3c1146108d55780637dd38d9a1461091157806380fbf1dd146109385780638456cb591461094d57806385bf8b771461095557600080fd5b8063331fb00f116103cb57806356d1d4a21161033d57806361d027b3116102f657806361d027b3146108265780636d483fe6146108395780636e553f651461085f57806370a0823114610872578063713725441461089b578063776efe47146108c257600080fd5b806356d1d4a2146107be5780635898ec3b146107d157806359757aa5146107f85780635b3f05491461080b5780635c975abb146108135780635f36a7421461081e57600080fd5b8063415c50691161038f578063415c5069146107065780634603be6f1461070e57806349b40402146107215780634cdad5061461072a5780635033def71461073d5780635679f9341461076557600080fd5b8063331fb00f1461069f57806336568abe146106b257806338d52e0f146106c55780633f4ba83a146106eb578063402d267d146106f357600080fd5b80631291f79d1161046457806323b872dd1161042857806323b872dd14610628578063241675241461063b578063248a9ca31461064e5780632f293a20146106715780632f2ff15d14610684578063313ce5671461069757600080fd5b80631291f79d146105dd57806314cecfbd146105f257806318160ddd146106055780631dc8d8181461060d5780631ff2d5e31461062057600080fd5b806305eee57e116104b657806305eee57e1461056d57806306fdde031461058757806307a2d13a1461059c57806309344c9c146105af578063095ea7b3146105b75780630a28a477146105ca57600080fd5b806301e1d114146104f357806301ffc9a71461050e5780630261bf8b14610531578063031c53ef1461055157806304336bb314610564575b600080fd5b6104fb610c4d565b6040519081526020015b60405180910390f35b61052161051c366004614e79565b610c8c565b6040519015158152602001610505565b610539610cc3565b6040516001600160a01b039091168152602001610505565b6104fb61055f366004614eb8565b610d36565b6104fb600a5481565b610575600881565b60405160ff9091168152602001610505565b61058f610db6565b6040516105059190614ee8565b6104fb6105aa366004614f37565b610e48565b610539610e55565b6105216105c5366004614f50565b610e9f565b6104fb6105d8366004614f37565b610eb7565b6105f06105eb366004614f50565b610ecd565b005b6104fb610600366004614f7c565b610f18565b6002546104fb565b6105f061061b366004614faa565b611028565b6104fb600181565b610521610636366004614fcc565b611418565b6105f0610649366004614f37565b61143c565b6104fb61065c366004614f37565b60009081526005602052604090206001015490565b6105f061067f366004615026565b61151b565b6105f0610692366004614eb8565b611681565b6105756116ac565b6105f06106ad366004614f37565b6116d8565b6105f06106c0366004614eb8565b6117a1565b7f0000000000000000000000000000000000000000000000000000000000000000610539565b6105f06117d4565b6104fb610701366004615059565b611809565b6104fb611828565b6105f061071c366004615076565b61184b565b6104fb600d5481565b6104fb610738366004614f37565b611a85565b61075061074b366004615059565b611a9b565b60408051928352602083019190915201610505565b600e54600f5460105460115461078b936001600160a01b03908116938116928116911684565b604080516001600160a01b0395861681529385166020850152918416918301919091529091166060820152608001610505565b6105f06107cc366004614f37565b611b59565b6105397f000000000000000000000000000000000000000000000000000000000000000081565b6104fb610806366004614eb8565b611bd0565b6104fb600281565b60075460ff16610521565b610539611c49565b600b54610539906001600160a01b031681565b7f0000000000000000000000000000000000000000000000000000000000000000610539565b6104fb61086d366004614eb8565b611c53565b6104fb610880366004615059565b6001600160a01b031660009081526020819052604090205490565b6104fb7fcf6f9f892731e14b8859835f2ff35575f447fb501f46243c4eb8bac19e31a05081565b6105f06108d0366004614faa565b611ca9565b6108fc7f000000000000000000000000000000000000000000000000000000000000000081565b60405163ffffffff9091168152602001610505565b6104fb7f000000000000000000000000000000000000000000000000000000000000000081565b6007546108fc90610100900463ffffffff1681565b6105f061208c565b6104fb60085481565b6104fb6120be565b6007546108fc90600160281b900463ffffffff1681565b61052161098b366004614eb8565b6120fd565b6104fb61099e366004614eb8565b612128565b61058f612176565b6104fb60095481565b6105f06109c2366004614f37565b612185565b6105f06109d5366004615059565b6121eb565b6104fb600081565b6105216109f0366004614f50565b6122a8565b6105216122b6565b6105396122e0565b6105397f000000000000000000000000000000000000000000000000000000000000000081565b6104fb610a3a366004614f37565b6122ea565b6104fb610a4d366004615108565b6122f7565b6104fb61234f565b6104fb610a68366004615108565b612372565b6104fb610a7b366004614f37565b6123c1565b6104fb610a8e366004615059565b6123ce565b6104fb60008051602061573983398151915281565b6104fb610ab6366004614f7c565b612408565b6104fb610ac9366004615059565b612483565b7f0000000000000000000000000000000000000000000000000000000000000000610539565b6105f0610b02366004614eb8565b6124a6565b6104fb610b15366004615059565b6124cb565b6104fb610b28366004614f7c565b6001600160a01b03918216600090815260016020908152604080832093909416825291909152205490565b6008546104fb565b610521610b69366004615059565b6124eb565b6104fb60008051602061575983398151915281565b6105f0610b91366004614fcc565b61257b565b6104fb7f65d7a28e3265b37a6474929f336521b332c1681b933f6cb9f3376673440d862a81565b6104fb7f8879d5d645eb76dcb2fbe49d1d300cf073cc071082c27a267e488d83d176b40381565b6104fb600c5481565b6104fb610bfb366004614f37565b6125c2565b6105f0610c0e366004614f37565b6125f2565b6105f0610c21366004615059565b612658565b6105397f000000000000000000000000000000000000000000000000000000000000000081565b600080610c5930611a9b565b509050610c86817f0000000000000000000000000000000000000000000000000000000000000000611bd0565b91505090565b60006001600160e01b03198216637965db0b60e01b1480610cbd57506301ffc9a760e01b6001600160e01b03198316145b92915050565b600e546040805163026b1d5f60e01b815290516000926001600160a01b03169163026b1d5f9160048083019260209291908290030181865afa158015610d0d573d6000803e3d6000fd5b505050506040513d601f19601f82011682018060405250810190610d319190615155565b905090565b6000610daf83836001600160a01b031663313ce5676040518163ffffffff1660e01b8152600401602060405180830381865afa158015610d7a573d6000803e3d6000fd5b505050506040513d601f19601f82011682018060405250810190610d9e9190615172565b60ff16610daa856123ce565b6126f1565b9392505050565b606060038054610dc590615195565b80601f0160208091040260200160405190810160405280929190818152602001828054610df190615195565b8015610e3e5780601f10610e1357610100808354040283529160200191610e3e565b820191906000526020600020905b815481529060010190602001808311610e2157829003601f168201915b5050505050905090565b6000610cbd826000612708565b600e5460408051631f94a27560e31b815290516000926001600160a01b03169163fca513a89160048083019260209291908290030181865afa158015610d0d573d6000803e3d6000fd5b600033610ead818585612742565b5060019392505050565b6000610cbd610ec883600a5461274f565b61279d565b7fcf6f9f892731e14b8859835f2ff35575f447fb501f46243c4eb8bac19e31a050610ef7816127aa565b610eff6127b4565b610f0983836127de565b610f136001600655565b505050565b600080610f24846127e8565b6101408101516040516370a0823160e01b81526001600160a01b038681166004830152929350600092909116906370a0823190602401602060405180830381865afa158015610f77573d6000803e3d6000fd5b505050506040513d601f19601f82011682018060405250810190610f9b91906151cf565b6101208301516040516370a0823160e01b81526001600160a01b038781166004830152929350600092909116906370a0823190602401602060405180830381865afa158015610fee573d6000803e3d6000fd5b505050506040513d601f19601f8201168201806040525081019061101291906151cf565b905061101e81836151fe565b9695505050505050565b6110306127b4565b6110386128dd565b6000611042611828565b90507f000000000000000000000000000000000000000000000000000000000000000063ffffffff1681106110be576040516312e9fceb60e21b81526004810182905263ffffffff7f00000000000000000000000000000000000000000000000000000000000000001660248201526044015b60405180910390fd5b600061122d846110cc6120be565b7f00000000000000000000000000000000000000000000000000000000000000006001600160a01b031663313ce5676040518163ffffffff1660e01b8152600401602060405180830381865afa15801561112a573d6000803e3d6000fd5b505050506040513d601f19601f8201168201806040525081019061114e9190615172565b60ff1661117a7f00000000000000000000000000000000000000000000000000000000000000006123ce565b7f00000000000000000000000000000000000000000000000000000000000000006001600160a01b031663313ce5676040518163ffffffff1660e01b8152600401602060405180830381865afa1580156111d8573d6000803e3d6000fd5b505050506040513d601f19601f820116820180604052508101906111fc9190615172565b60ff166112287f00000000000000000000000000000000000000000000000000000000000000006123ce565b612903565b90506112646001600160a01b037f00000000000000000000000000000000000000000000000000000000000000001633308761295b565b60006112917f000000000000000000000000000000000000000000000000000000000000000086306129c2565b905060006112c07f00000000000000000000000000000000000000000000000000000000000000008430612b20565b9050848110156112ed5760405163ec02e43f60e01b815260048101829052602481018690526044016110b5565b60006112f7611828565b90507f000000000000000000000000000000000000000000000000000000000000000063ffffffff1681118061132d5750848111155b1561138157604051630262805f60e11b81526004810182905263ffffffff7f0000000000000000000000000000000000000000000000000000000000000000166024820152604481018690526064016110b5565b81156113bb576113bb6001600160a01b037f0000000000000000000000000000000000000000000000000000000000000000163384612c71565b60408051888152602081018890529081018490526060810183905233907f72b9341ae324ee7e9a41986f370caf7ffb0c989c3c5d7be4b0d94b93bec5a2869060800160405180910390a250505050506114146001600655565b5050565b600033611426858285612ca2565b611431858585612d08565b506001949350505050565b600080516020615739833981519152611454816127aa565b61145c6127b4565b6114646128dd565b61146f606480615211565b61147e9061ffff16600a615237565b63ffffffff168211156114ce5781611497606480615211565b6114a69061ffff16600a615237565b604051630e037d7560e41b8152600481019290925263ffffffff1660248201526044016110b5565b600a80549083905560408051828152602081018590527fe07cd71654bf041221cc79adf2c12d88abbc33e847b9a2ac73c4e1002628a7d591015b60405180910390a1506114146001600655565b600080516020615739833981519152611533816127aa565b61153b6127b4565b6115436128dd565b7f000000000000000000000000000000000000000000000000000000000000000063ffffffff168363ffffffff161015806115aa57508163ffffffff167f000000000000000000000000000000000000000000000000000000000000000063ffffffff1610155b156116005760405163b857eea760e01b815263ffffffff80851660048301527f000000000000000000000000000000000000000000000000000000000000000081166024830152831660448201526064016110b5565b6007805468ffffffffffffffff00191661010063ffffffff86811691820268ffffffff0000000000191692909217600160281b928616928302179092556040805192835260208301919091527fe181be2639e8d7c912d71af8c1c57c83a06fe411204b0bc3fdeb64c935ccd4cf910160405180910390a1610f136001600655565b60008281526005602052604090206001015461169c816127aa565b6116a68383612d67565b50505050565b6000610d31817f0000000000000000000000000000000000000000000000000000000000000000615257565b6000805160206157598339815191526116f0816127aa565b7f000000000000000000000000000000000000000000000000000000000000000082111561175a57604051636cef961f60e11b8152600481018390527f000000000000000000000000000000000000000000000000000000000000000060248201526044016110b5565b600c80549083905560408051828152602081018590527f7af7c1a20ca2d95ef775c520be0e875415f760d01d8ab209ad45bfe84839d68e91015b60405180910390a1505050565b6001600160a01b03811633146117ca5760405163334bd91960e11b815260040160405180910390fd5b610f138282612dfb565b7f65d7a28e3265b37a6474929f336521b332c1681b933f6cb9f3376673440d862a6117fe816127aa565b611806612e68565b50565b60006118136122b6565b1561182057506000919050565b600019610cbd565b600080600061183630611a9b565b915091506118448282612eba565b9250505090565b6118536127b4565b600d5484101561188457600d546040516301959e9f60e51b81526110b5918691600401918252602082015260400190565b6001600160a01b0381166118ab576040516313e6c64360e31b815260040160405180910390fd5b60008290036118cd57604051633ce287ef60e21b815260040160405180910390fd5b6119026001600160a01b037f00000000000000000000000000000000000000000000000000000000000000001633308761295b565b7fc8efbc392b57771291983f003bd32ae9dc5e87ff1388a259b9acf272db4531d87f00000000000000000000000000000000000000000000000000000000000000008585856040516119579493929190615270565b60405180910390a1600061196c848430612f8c565b8051909150831461199d578051604051631aff8a1160e01b81526004810191909152602481018490526044016110b5565b60005b83811015611a705760008282815181106119bc576119bc6152d3565b6020026020010151905060006119d1826125c2565b9050818111156119fe5760405163270c46bf60e01b815260048101829052602481018390526044016110b5565b600b54611a46906001600160a01b031682898987818110611a2157611a216152d3565b9050602002016020810190611a369190615059565b6001600160a01b03169190612c71565b611a6685611a5483856152e9565b898987818110611a2157611a216152d3565b50506001016119a0565b50611a7a8561327c565b506116a66001600655565b6000610cbd611a9383610e48565b600a54613286565b6000806000611aca7f000000000000000000000000000000000000000000000000000000000000000085612408565b9050611af6817f0000000000000000000000000000000000000000000000000000000000000000610d36565b92506000611b247f000000000000000000000000000000000000000000000000000000000000000086610f18565b9050611b50817f0000000000000000000000000000000000000000000000000000000000000000610d36565b92505050915091565b600080516020615759833981519152611b71816127aa565b81600003611b92576040516354a62ce560e01b815260040160405180910390fd5b600d80549083905560408051828152602081018590527f46c287b860f967b39d89a1692e6486d60e4d66ea2cde369816239edaf4e065699101611794565b6000610daf83836001600160a01b031663313ce5676040518163ffffffff1660e01b8152600401602060405180830381865afa158015611c14573d6000803e3d6000fd5b505050506040513d601f19601f82011682018060405250810190611c389190615172565b60ff16611c44856123ce565b6132d5565b6000610d31610cc3565b600080611c5f83611809565b905080841115611c8857828482604051633c8097d960e11b81526004016110b5939291906152fc565b6000611c93856123c1565b9050611ca1338587846132ec565b949350505050565b611cb16127b4565b611cb96128dd565b6000611cc3611828565b90507f000000000000000000000000000000000000000000000000000000000000000063ffffffff168111611d3a5760405163de9f90d760e01b81526004810182905263ffffffff7f00000000000000000000000000000000000000000000000000000000000000001660248201526044016110b5565b6000611ea984611d486120be565b7f00000000000000000000000000000000000000000000000000000000000000006001600160a01b031663313ce5676040518163ffffffff1660e01b8152600401602060405180830381865afa158015611da6573d6000803e3d6000fd5b505050506040513d601f19601f82011682018060405250810190611dca9190615172565b60ff16611df67f00000000000000000000000000000000000000000000000000000000000000006123ce565b7f00000000000000000000000000000000000000000000000000000000000000006001600160a01b031663313ce5676040518163ffffffff1660e01b8152600401602060405180830381865afa158015611e54573d6000803e3d6000fd5b505050506040513d601f19601f82011682018060405250810190611e789190615172565b60ff16611ea47f00000000000000000000000000000000000000000000000000000000000000006123ce565b613416565b9050611ee06001600160a01b037f00000000000000000000000000000000000000000000000000000000000000001633308761295b565b611f0b7f00000000000000000000000000000000000000000000000000000000000000008530613461565b506000611f397f000000000000000000000000000000000000000000000000000000000000000083306135da565b905083811015611f6657604051636fe9fab760e01b815260048101829052602481018590526044016110b5565b6000611f70611828565b90507f000000000000000000000000000000000000000000000000000000000000000063ffffffff16811080611fa65750838110155b15611ffa57604051636a3f633560e11b81526004810182905263ffffffff7f0000000000000000000000000000000000000000000000000000000000000000166024820152604481018590526064016110b5565b8115612034576120346001600160a01b037f0000000000000000000000000000000000000000000000000000000000000000163384612c71565b60408051878152602081018790529081018790526060810183905233907fae5e19ae4628c7ce8fe13292352b899b81124046fe5f2bb08004d24866fd45c89060800160405180910390a2505050506114146001600655565b7f65d7a28e3265b37a6474929f336521b332c1681b933f6cb9f3376673440d862a6120b6816127aa565b611806613745565b6000610d316120cb611828565b7f000000000000000000000000000000000000000000000000000000000000000063ffffffff16600854600954613782565b60009182526005602090815260408084206001600160a01b0393909316845291905290205460ff1690565b60008061213483611809565b90508084111561215d5782848260405163284ff66760e01b81526004016110b5939291906152fc565b6000612168856122ea565b9050611ca1338583886132ec565b606060048054610dc590615195565b60008051602061573983398151915261219d816127aa565b6121a56127b4565b6121ad6128dd565b600880549083905560408051828152602081018590527f67fef5f7f784ddd197d63c3a14901057b9271a11b8b97a118471777da6fede4c9101611508565b600080516020615739833981519152612203816127aa565b6001600160a01b03821661222a5760405163d92e233d60e01b815260040160405180910390fd5b816001600160a01b03163b600003612255576040516309c7768560e41b815260040160405180910390fd5b601180546001600160a01b038481166001600160a01b0319831681179093556040519116919082907fd41ddf0add6cf5f4e7067e117b677c4bf3a6b26973090e908241a081fae54a4b90600090a3505050565b600033610ead818585612d08565b6000610d316122c3611828565b60075463ffffffff6101008204811691600160281b900416613825565b6000610d31610e55565b6000610cbd826001612708565b60008061230383612483565b90508085111561232c57828582604051633fa733bb60e21b81526004016110b5939291906152fc565b600061233786610eb7565b90506123463386868985613843565b95945050505050565b61235a606480615211565b6123699061ffff16600a615237565b63ffffffff1681565b60008061237e836124cb565b9050808511156123a757828582604051632e52afbb60e21b81526004016110b5939291906152fc565b60006123b286611a85565b9050612346338686848a613843565b6000610cbd826000613943565b6000806123da83613973565b905080600003610cbd5760405163339c9fa160e21b81526001600160a01b03841660048201526024016110b5565b6000612413836127e8565b61010001516040516370a0823160e01b81526001600160a01b038481166004830152909116906370a0823190602401602060405180830381865afa15801561245f573d6000803e3d6000fd5b505050506040513d601f19601f82011682018060405250810190610daf91906151cf565b600061248d6122b6565b1561249a57506000919050565b610cbd611a93836139e9565b6000828152600560205260409020600101546124c1816127aa565b6116a68383612dfb565b60006124d56122b6565b156124e257506000919050565b610cbd82613a0d565b6000806125177f00000000000000000000000000000000000000000000000000000000000000006127e8565b90508061010001516001600160a01b0316836001600160a01b0316148061255457508061014001516001600160a01b0316836001600160a01b0316145b80610daf57508061012001516001600160a01b0316836001600160a01b0316149392505050565b7fcf6f9f892731e14b8859835f2ff35575f447fb501f46243c4eb8bac19e31a0506125a5816127aa565b6125ad6127b4565b6125b8848484613a2b565b6116a66001600655565b6000610cbd82600c546064806125d89190615211565b6125e79061ffff166064615237565b63ffffffff16613a71565b60008051602061573983398151915261260a816127aa565b6126126127b4565b61261a6128dd565b600980549083905560408051828152602081018590527fffac9ebcb954b47fd18acb3426a66b70dcb4c43c237303630c568d0062d8db1a9101611508565b600080516020615759833981519152612670816127aa565b6001600160a01b038216612697576040516351dc806d60e11b815260040160405180910390fd5b600b80546001600160a01b038481166001600160a01b031983168117909355604080519190921680825260208201939093527f4ab5be82436d353e61ca18726e984e561f5c1cc7c6d38b29d2553c790434705a9101611794565b6000611ca1848361270386600a615401565b613a71565b6000610daf612715610c4d565b6127209060016151fe565b61272c6000600a61540d565b60025461273991906151fe565b85919085613b26565b610f138383836001613b6a565b600061275c606480615211565b61276b9061ffff166064615237565b63ffffffff16821061279357604051634d97211f60e01b8152600481018390526024016110b5565b610daf8383613c3f565b6000610cbd826001613943565b6118068133613d1b565b6002600654036127d757604051633ee5aeb560e01b815260040160405180910390fd5b6002600655565b6114148282613d54565b604080516102008101825260006101e08201818152825260208201819052918101829052606081018290526080810182905260a0810182905260c0810182905260e08101829052610100810182905261012081018290526101408101829052610160810182905261018081018290526101a081018290526101c0810191909152612870610cc3565b6040516335ea6a7560e01b81526001600160a01b03848116600483015291909116906335ea6a75906024016101e060405180830381865afa1580156128b9573d6000803e3d6000fd5b505050506040513d601f19601f82011682018060405250810190610cbd9190615501565b60075460ff16156129015760405163d93c066560e01b815260040160405180910390fd5b565b60008660000361292657604051631501bbed60e31b815260040160405180910390fd5b60006129338887876126f1565b905060006129418289613de4565b905061294e8186866132d5565b9998505050505050505050565b6040516001600160a01b0384811660248301528381166044830152606482018390526116a69186918216906323b872dd906084015b604051602081830303815290604052915060e01b6020820180516001600160e01b038381831617835250505050613e3c565b6040516370a0823160e01b81526001600160a01b03828116600483015260009182918616906370a0823190602401602060405180830381865afa158015612a0d573d6000803e3d6000fd5b505050506040513d601f19601f82011682018060405250810190612a3191906151cf565b9050612a3e858585613ead565b6040516370a0823160e01b81526001600160a01b038481166004830152600091908716906370a0823190602401602060405180830381865afa158015612a88573d6000803e3d6000fd5b505050506040513d601f19601f82011682018060405250810190612aac91906151cf565b90506000612abe838388600180613f44565b8051909150612ae8578683838860405163648195a560e11b81526004016110b59493929190615624565b8060400151612b12578683838860405163758ad4e760e01b81526004016110b59493929190615624565b602001519695505050505050565b6040516370a0823160e01b81526001600160a01b03828116600483015260009182918616906370a0823190602401602060405180830381865afa158015612b6b573d6000803e3d6000fd5b505050506040513d601f19601f82011682018060405250810190612b8f91906151cf565b9050612b9c858585613fe4565b6040516370a0823160e01b81526001600160a01b038481166004830152600091908716906370a0823190602401602060405180830381865afa158015612be6573d6000803e3d6000fd5b505050506040513d601f19601f82011682018060405250810190612c0a91906151cf565b90506000612c1d83838860016000613f44565b8051909150612c475786838388604051631216cb9b60e11b81526004016110b59493929190615624565b8060400151612b1257868383886040516371e5ed5360e01b81526004016110b59493929190615624565b6040516001600160a01b03838116602483015260448201839052610f1391859182169063a9059cbb90606401612990565b6001600160a01b038381166000908152600160209081526040808320938616835292905220546000198110156116a65781811015612cf957828183604051637dc7a0d960e11b81526004016110b5939291906152fc565b6116a684848484036000613b6a565b6001600160a01b038316612d3257604051634b637e8f60e11b8152600060048201526024016110b5565b6001600160a01b038216612d5c5760405163ec442f0560e01b8152600060048201526024016110b5565b610f1383838361406b565b6000612d7383836120fd565b612df35760008381526005602090815260408083206001600160a01b03861684529091529020805460ff19166001179055612dab3390565b6001600160a01b0316826001600160a01b0316847f2f8788117e7eff1d82e926ec794901d17c78024a50270940304540a733656f0d60405160405180910390a4506001610cbd565b506000610cbd565b6000612e0783836120fd565b15612df35760008381526005602090815260408083206001600160a01b0386168085529252808320805460ff1916905551339286917ff6391f5c32d9c69d2a47ea670b442974b53935d1edc7fd64eb21e047a839171b9190a4506001610cbd565b612e70614182565b6007805460ff191690557f5db9ee0a495bf2e6ff9c91a7834c1ba4fdd244a5e8aa4e537bd38aeae4b073aa335b6040516001600160a01b03909116815260200160405180910390a1565b600081831015612ee7576040516378ea417b60e11b815260048101849052602481018390526044016110b5565b82600003612ef757506000610cbd565b818303612f075750600019610cbd565b6000612f1383856152e9565b612f1e606480615211565b612f2d9061ffff166064615237565b612f3d9063ffffffff168661564a565b612f479190615677565b9050612f54606480615211565b612f639061ffff166064615237565b63ffffffff16811015610daf576040516369bb335560e01b8152600481018290526024016110b5565b60606000839003612fb057604051633ce287ef60e21b815260040160405180910390fd5b6001600160a01b038216612fd7576040516313e6c64360e31b815260040160405180910390fd5b8267ffffffffffffffff811115612ff057612ff061541c565b604051908082528060200260200182016040528015613019578160200160208202803683370190505b5060408051600180825281830190925291925060009190602080830190803683375050600f5482519293506001600160a01b031691839150600090613060576130606152d3565b60200260200101906001600160a01b031690816001600160a01b03168152505060005b8481101561327357600086868381811061309f5761309f6152d3565b90506020020160208101906130b49190615059565b90506001600160a01b0381166130dd5760405163d92e233d60e01b815260040160405180910390fd5b6040516370a0823160e01b81526001600160a01b038681166004830152600091908316906370a0823190602401602060405180830381865afa158015613127573d6000803e3d6000fd5b505050506040513d601f19601f8201168201806040525081019061314b91906151cf565b6011546010546040516333028b9960e01b81529293506001600160a01b03918216926333028b999261318d92899260001992909116908c90899060040161568b565b6020604051808303816000875af11580156131ac573d6000803e3d6000fd5b505050506040513d601f19601f820116820180604052508101906131d091906151cf565b506040516370a0823160e01b81526001600160a01b038781166004830152600091908416906370a0823190602401602060405180830381865afa15801561321b573d6000803e3d6000fd5b505050506040513d601f19601f8201168201806040525081019061323f91906151cf565b905061324b82826152e9565b86858151811061325d5761325d6152d3565b6020908102919091010152505050600101613083565b50509392505050565b61180630826141a5565b6000613293606480615211565b6132a29061ffff166064615237565b63ffffffff168211156132cb57604051634d97211f60e01b8152600481018390526024016110b5565b610daf83836141db565b6000611ca1846132e685600a615401565b84613a71565b6132f46127b4565b8060000361331557604051639811e0c760e01b815260040160405180910390fd5b61331d6122b6565b156133695761332a611828565b60075460405163391f5eb560e01b8152600481019290925263ffffffff610100820481166024840152600160281b9091041660448201526064016110b5565b60006133758584614253565b90506133ab6001600160a01b037f0000000000000000000000000000000000000000000000000000000000000000168583612c71565b6133b58483614640565b836001600160a01b0316856001600160a01b03167fdcbc1c05240f31ff3ad067ef1ee35ce4997762752e3a095284754544f4c709d78585604051613403929190918252602082015260400190565b60405180910390a3506116a66001600655565b6000866000036134395760405163681b8c4360e01b815260040160405180910390fd5b60006134468885856126f1565b905060006134548289614676565b905061294e8188886132d5565b60008061346e8584610f18565b905061347a84826146ce565b6040516370a0823160e01b81526001600160a01b0385811660048301529195506000918716906370a0823190602401602060405180830381865afa1580156134c6573d6000803e3d6000fd5b505050506040513d601f19601f820116820180604052508101906134ea91906151cf565b90506134f78686866146de565b6040516370a0823160e01b81526001600160a01b038581166004830152600091908816906370a0823190602401602060405180830381865afa158015613541573d6000803e3d6000fd5b505050506040513d601f19601f8201168201806040525081019061356591906151cf565b90506000613577838389600180613f44565b80519091506135a157878383896040516301b6cca560e11b81526004016110b59493929190615624565b80604001516135cb5787838389604051634023dad760e11b81526004016110b59493929190615624565b60200151979650505050505050565b6000806135e78584612408565b90506135f384826146ce565b6040516370a0823160e01b81526001600160a01b0385811660048301529195506000918716906370a0823190602401602060405180830381865afa15801561363f573d6000803e3d6000fd5b505050506040513d601f19601f8201168201806040525081019061366391906151cf565b9050613670868686614780565b6040516370a0823160e01b81526001600160a01b038581166004830152600091908816906370a0823190602401602060405180830381865afa1580156136ba573d6000803e3d6000fd5b505050506040513d601f19601f820116820180604052508101906136de91906151cf565b905060006136f183838960016000613f44565b805190915061371b578783838960405163eefde95560e01b81526004016110b59493929190615624565b80604001516135cb5787838389604051633b6d51ff60e21b81526004016110b59493929190615624565b61374d6128dd565b6007805460ff191660011790557f62e78cea01bee320cd4e420270b5ea74000d11b0c9f74754ebdbfc544b05a258612e9d3390565b600080848611156137e057600061379986886152e9565b9050838110156137ae57600092505050611ca1565b6137d8816137bd606480615211565b6137cc9061ffff166064615237565b63ffffffff1688613a71565b915050613814565b60006137ec87876152e9565b90508381101561380157600092505050611ca1565b613810816137bd606480615211565b9150505b838111156123465783915050611ca1565b60008315801590611ca1575082841080611ca1575050909111919050565b61384b6127b4565b846001600160a01b0316836001600160a01b03161461386f5761386f838683612ca2565b61387983826141a5565b6138816122b6565b1561388e5761332a611828565b600061389a8684614805565b5090506138d16001600160a01b037f0000000000000000000000000000000000000000000000000000000000000000168683612c71565b836001600160a01b0316856001600160a01b0316876001600160a01b03167ffbde797d201c681b91056529119e0b02407c7bb96a4a2c75c01fc9667232c8db8486604051613929929190918252602082015260400190565b60405180910390a45061393c6001600655565b5050505050565b6000610daf61395382600a61540d565b60025461396091906151fe565b613968610c4d565b6127399060016151fe565b600061397d610e55565b60405163b3596f0760e01b81526001600160a01b038481166004830152919091169063b3596f0790602401602060405180830381865afa1580156139c5573d6000803e3d6000fd5b505050506040513d601f19601f82011682018060405250810190610cbd91906151cf565b6001600160a01b038116600090815260208190526040812054610cbd906000612708565b6001600160a01b038116600090815260208190526040812054610cbd565b613a34836124eb565b15613a5d576040516341d6bb6960e01b81526001600160a01b03841660048201526024016110b5565b610f136001600160a01b0384168383612c71565b6000806000613a808686614bcb565b9150915081600003613aa557838181613a9b57613a9b615661565b0492505050610daf565b818411613abc57613abc6003851502601118614be9565b6000848688096000868103871696879004966002600389028118808a02820302808a02820302808a02820302808a02820302808a02820302808a02909103029181900381900460010185841190960395909502919093039390930492909217029150509392505050565b6000613b55613b3483614bfb565b8015613b50575060008480613b4b57613b4b615661565b868809115b151590565b613b60868686613a71565b61234691906151fe565b6001600160a01b038416613b945760405163e602df0560e01b8152600060048201526024016110b5565b6001600160a01b038316613bbe57604051634a1406b160e11b8152600060048201526024016110b5565b6001600160a01b03808516600090815260016020908152604080832093871683529290522082905580156116a657826001600160a01b0316846001600160a01b03167f8c5be1e5ebec7d5bd14f71427d1e84f3dd0314c0f7b2291e5b200ac8c7c3b92584604051613c3191815260200190565b60405180910390a350505050565b6000821580613c4c575081155b15613c58575081610cbd565b613c63606480615211565b613c729061ffff166064615237565b63ffffffff168210613c8657506000610cbd565b6000613cde84613c97606480615211565b613ca69061ffff166064615237565b63ffffffff1685613cb8606480615211565b613cc79061ffff166064615237565b63ffffffff16613cd791906152e9565b6001613b26565b90508015610daf576000613cfc613cf66001846152e9565b856141db565b9050848110613d1357613d106001836152e9565b91505b509392505050565b613d2582826120fd565b6114145760405163e2517d3f60e01b81526001600160a01b0382166004820152602481018390526044016110b5565b80471015613d7e5760405163cf47918160e01b8152476004820152602481018290526044016110b5565b600080836001600160a01b03168360405160006040518083038185875af1925050503d8060008114613dcc576040519150601f19603f3d011682016040523d82523d6000602084013e613dd1565b606091505b5091509150816116a6576116a681614c28565b6000610daf8383613df6606480615211565b613e059061ffff166064615237565b63ffffffff16613e1591906151fe565b613e20606480615211565b613e2f9061ffff166064615237565b63ffffffff166000613b26565b600080602060008451602086016000885af180613e5f576040513d6000823e3d81fd5b50506000513d91508115613e77578060011415613e84565b6001600160a01b0384163b155b156116a657604051635274afe760e01b81526001600160a01b03851660048201526024016110b5565b6000613eb7610cc3565b9050613ecd6001600160a01b0385168285614c50565b60405163617ba03760e01b81526001600160a01b0385811660048301526024820185905283811660448301526000606483015282169063617ba03790608401600060405180830381600087803b158015613f2657600080fd5b505af1158015613f3a573d6000803e3d6000fd5b5050505050505050565b6040805160608101825260008082526020820181905291810182905290826001811115613f7357613f73615700565b03613f985785851180825215613f9357613f8d86866152e9565b60208201525b613fb3565b85851080825215613fb357613fad85876152e9565b60208201525b8051613fc55760006040820152612346565b613fd481602001518585614ce0565b1515604082015295945050505050565b613fec610cc3565b60405163a415bcad60e01b81526001600160a01b0385811660048301526024820185905260026044830152600060648301528381166084830152919091169063a415bcad9060a401600060405180830381600087803b15801561404e57600080fd5b505af1158015614062573d6000803e3d6000fd5b50505050505050565b6001600160a01b03831661409657806002600082825461408b91906151fe565b909155506140f59050565b6001600160a01b038316600090815260208190526040902054818110156140d65783818360405163391434e360e21b81526004016110b5939291906152fc565b6001600160a01b03841660009081526020819052604090209082900390555b6001600160a01b03821661411157600280548290039055614130565b6001600160a01b03821660009081526020819052604090208054820190555b816001600160a01b0316836001600160a01b03167fddf252ad1be2c89b69c2b068fc378daa952ba7f163c4a11628f55a4df523b3ef8360405161417591815260200190565b60405180910390a3505050565b60075460ff1661290157604051638dfc202b60e01b815260040160405180910390fd5b6001600160a01b0382166141cf57604051634b637e8f60e11b8152600060048201526024016110b5565b6114148260008361406b565b6000826000036141ed57506000610cbd565b816000036141fc575081610cbd565b614207606480615211565b6142169061ffff166064615237565b63ffffffff16821061422a57506000610cbd565b60006142368484614d13565b9050838110614249576000915050610cbd565b611ca181856152e9565b60008061425e611828565b604051636eb1769f60e11b81526001600160a01b03868116600483015230602483015291925084917f0000000000000000000000000000000000000000000000000000000000000000169063dd62ed3e90604401602060405180830381865afa1580156142cf573d6000803e3d6000fd5b505050506040513d601f19601f820116820180604052508101906142f391906151cf565b101561435257604051631518e3a360e01b81526001600160a01b0380861660048301523060248301527f0000000000000000000000000000000000000000000000000000000000000000166044820152606481018490526084016110b5565b6143876001600160a01b037f00000000000000000000000000000000000000000000000000000000000000001685308661295b565b60006143b47f000000000000000000000000000000000000000000000000000000000000000085306129c2565b9050600061454582847f000000000000000000000000000000000000000000000000000000000000000063ffffffff167f00000000000000000000000000000000000000000000000000000000000000006001600160a01b031663313ce5676040518163ffffffff1660e01b8152600401602060405180830381865afa158015614442573d6000803e3d6000fd5b505050506040513d601f19601f820116820180604052508101906144669190615172565b60ff166144927f00000000000000000000000000000000000000000000000000000000000000006123ce565b7f00000000000000000000000000000000000000000000000000000000000000006001600160a01b031663313ce5676040518163ffffffff1660e01b8152600401602060405180830381865afa1580156144f0573d6000803e3d6000fd5b505050506040513d601f19601f820116820180604052508101906145149190615172565b60ff166145407f00000000000000000000000000000000000000000000000000000000000000006123ce565b614d6a565b90506145727f00000000000000000000000000000000000000000000000000000000000000008230612b20565b935061457f6001866152e9565b82101561463757600061459283876152e9565b90506145c86001600160a01b037f0000000000000000000000000000000000000000000000000000000000000000168883612c71565b866001600160a01b03167f00000000000000000000000000000000000000000000000000000000000000006001600160a01b03167f21fa991d1ca60543187d2a0de62e5ea0ce1a703a3f0021354ae2f9a75dc0e34d8360405161462d91815260200190565b60405180910390a3505b50505092915050565b6001600160a01b03821661466a5760405163ec442f0560e01b8152600060048201526024016110b5565b6114146000838361406b565b6000610daf8383614688606480615211565b6146979061ffff166064615237565b63ffffffff166146a791906151fe565b6146b2606480615211565b6146c19061ffff166064615237565b63ffffffff166001613b26565b6000828218828410028218610daf565b60006146e8610cc3565b90506146fe6001600160a01b0385168285614c50565b60405163573ade8160e01b81526001600160a01b0385811660048301526024820185905260026044830152838116606483015282169063573ade81906084016020604051808303816000875af115801561475c573d6000803e3d6000fd5b505050506040513d601f19601f8201168201806040525081019061393c91906151cf565b614788610cc3565b604051631a4ca37b60e21b81526001600160a01b03858116600483015260248201859052838116604483015291909116906369328dec906064016020604051808303816000875af11580156147e1573d6000803e3d6000fd5b505050506040513d601f19601f820116820180604052508101906116a691906151cf565b6000806000614812611828565b9050600061497c85837f00000000000000000000000000000000000000000000000000000000000000006001600160a01b031663313ce5676040518163ffffffff1660e01b8152600401602060405180830381865afa158015614879573d6000803e3d6000fd5b505050506040513d601f19601f8201168201806040525081019061489d9190615172565b60ff166148c97f00000000000000000000000000000000000000000000000000000000000000006123ce565b7f00000000000000000000000000000000000000000000000000000000000000006001600160a01b031663313ce5676040518163ffffffff1660e01b8152600401602060405180830381865afa158015614927573d6000803e3d6000fd5b505050506040513d601f19601f8201168201806040525081019061494b9190615172565b60ff166149777f00000000000000000000000000000000000000000000000000000000000000006123ce565b614dd8565b604051636eb1769f60e11b81526001600160a01b03888116600483015230602483015291925082917f0000000000000000000000000000000000000000000000000000000000000000169063dd62ed3e90604401602060405180830381865afa1580156149ed573d6000803e3d6000fd5b505050506040513d601f19601f82011682018060405250810190614a1191906151cf565b1015614a70576040516326938fb560e01b81526001600160a01b0380881660048301523060248301527f0000000000000000000000000000000000000000000000000000000000000000166044820152606481018290526084016110b5565b614aa56001600160a01b037f00000000000000000000000000000000000000000000000000000000000000001687308461295b565b614ad07f00000000000000000000000000000000000000000000000000000000000000008230613461565b9250614afd7f000000000000000000000000000000000000000000000000000000000000000086306135da565b9350614b0a6001826152e9565b831015614bc2576000614b1d84836152e9565b9050614b536001600160a01b037f0000000000000000000000000000000000000000000000000000000000000000168883612c71565b866001600160a01b03167f00000000000000000000000000000000000000000000000000000000000000006001600160a01b03167f858a27e141780954fe5d38ba55127b6c35f8f5904c3a088438a18578d5d71eee83604051614bb891815260200190565b60405180910390a3505b50509250929050565b60008060001983850993909202808410938190039390930393915050565b634e487b71600052806020526024601cfd5b60006002826003811115614c1157614c11615700565b614c1b9190615716565b60ff166001149050919050565b805115614c3757805160208201fd5b60405163d6bda27560e01b815260040160405180910390fd5b604080516001600160a01b038416602482015260448082018490528251808303909101815260649091019091526020810180516001600160e01b031663095ea7b360e01b179052614ca18482614e2f565b6116a6576040516001600160a01b03848116602483015260006044830152614cd691869182169063095ea7b390606401612990565b6116a68482613e3c565b600082841115614cfe5781614cf584866152e9565b11159050610daf565b81614d0985856152e9565b1115949350505050565b6000821580614d20575081155b15614d2d57506000610cbd565b614d38606480615211565b614d479061ffff166064615237565b63ffffffff168210614d5a575081610cbd565b610daf83836125d8606480615211565b600086600003614d78578596505b6000614d858987876126f1565b90506000614dbd82614d98606480615211565b614da79061ffff166064615237565b614db79063ffffffff168c6152e9565b8b613a71565b9050614dca8186866132d5565b9a9950505050505050505050565b600085600003614dea5750600061101e565b6000614df78887876126f1565b9050600061294182614e0a606480615211565b614e199061ffff166064615237565b614e299063ffffffff168b6152e9565b8a613a71565b6000806000806020600086516020880160008a5af192503d9150600051905082801561101e57508115614e65578060011461101e565b50505050506001600160a01b03163b151590565b600060208284031215614e8b57600080fd5b81356001600160e01b031981168114610daf57600080fd5b6001600160a01b038116811461180657600080fd5b60008060408385031215614ecb57600080fd5b823591506020830135614edd81614ea3565b809150509250929050565b60006020808352835180602085015260005b81811015614f1657858101830151858201604001528201614efa565b506000604082860101526040601f19601f8301168501019250505092915050565b600060208284031215614f4957600080fd5b5035919050565b60008060408385031215614f6357600080fd5b8235614f6e81614ea3565b946020939093013593505050565b60008060408385031215614f8f57600080fd5b8235614f9a81614ea3565b91506020830135614edd81614ea3565b60008060408385031215614fbd57600080fd5b50508035926020909101359150565b600080600060608486031215614fe157600080fd5b8335614fec81614ea3565b92506020840135614ffc81614ea3565b929592945050506040919091013590565b803563ffffffff8116811461502157600080fd5b919050565b6000806040838503121561503957600080fd5b6150428361500d565b91506150506020840161500d565b90509250929050565b60006020828403121561506b57600080fd5b8135610daf81614ea3565b6000806000806060858703121561508c57600080fd5b84359350602085013567ffffffffffffffff808211156150ab57600080fd5b818701915087601f8301126150bf57600080fd5b8135818111156150ce57600080fd5b8860208260051b85010111156150e357600080fd5b60208301955080945050505060408501356150fd81614ea3565b939692955090935050565b60008060006060848603121561511d57600080fd5b83359250602084013561512f81614ea3565b9150604084013561513f81614ea3565b809150509250925092565b805161502181614ea3565b60006020828403121561516757600080fd5b8151610daf81614ea3565b60006020828403121561518457600080fd5b815160ff81168114610daf57600080fd5b600181811c908216806151a957607f821691505b6020821081036151c957634e487b7160e01b600052602260045260246000fd5b50919050565b6000602082840312156151e157600080fd5b5051919050565b634e487b7160e01b600052601160045260246000fd5b80820180821115610cbd57610cbd6151e8565b61ffff81811683821602808216919082811461522f5761522f6151e8565b505092915050565b63ffffffff81811683821602808216919082811461522f5761522f6151e8565b60ff8181168382160190811115610cbd57610cbd6151e8565b6001600160a01b03858116825260208083018690526060604084018190528301849052600091859160808501845b878110156152c55784356152b181614ea3565b84168252938201939082019060010161529e565b509998505050505050505050565b634e487b7160e01b600052603260045260246000fd5b81810381811115610cbd57610cbd6151e8565b6001600160a01b039390931683526020830191909152604082015260600190565b600181815b8085111561535857816000190482111561533e5761533e6151e8565b8085161561534b57918102915b93841c9390800290615322565b509250929050565b60008261536f57506001610cbd565b8161537c57506000610cbd565b8160018114615392576002811461539c576153b8565b6001915050610cbd565b60ff8411156153ad576153ad6151e8565b50506001821b610cbd565b5060208310610133831016604e8410600b84101617156153db575081810a610cbd565b6153e5838361531d565b80600019048211156153f9576153f96151e8565b029392505050565b6000610daf8383615360565b6000610daf60ff841683615360565b634e487b7160e01b600052604160045260246000fd5b6040516101e0810167ffffffffffffffff8111828210171561546457634e487b7160e01b600052604160045260246000fd5b60405290565b60006020828403121561547c57600080fd5b6040516020810181811067ffffffffffffffff821117156154ad57634e487b7160e01b600052604160045260246000fd5b6040529151825250919050565b80516fffffffffffffffffffffffffffffffff8116811461502157600080fd5b805164ffffffffff8116811461502157600080fd5b805161ffff8116811461502157600080fd5b60006101e0828403121561551457600080fd5b61551c615432565b615526848461546a565b8152615534602084016154ba565b6020820152615545604084016154ba565b6040820152615556606084016154ba565b6060820152615567608084016154ba565b608082015261557860a084016154ba565b60a082015261558960c084016154da565b60c082015261559a60e084016154ef565b60e08201526101006155ad81850161514a565b908201526101206155bf84820161514a565b908201526101406155d184820161514a565b908201526101606155e384820161514a565b908201526101806155f58482016154ba565b908201526101a06156078482016154ba565b908201526101c06156198482016154ba565b908201529392505050565b6001600160a01b0394909416845260208401929092526040830152606082015260800190565b8082028115828204841417610cbd57610cbd6151e8565b634e487b7160e01b600052601260045260246000fd5b60008261568657615686615661565b500490565b60a0808252865190820181905260009060209060c0840190828a01845b828110156156cd5781516001600160a01b0316845292840192908401906001016156a8565b505050602084019790975250506001600160a01b0393841660408201529183166060830152909116608090910152919050565b634e487b7160e01b600052602160045260246000fd5b600060ff83168061572957615729615661565b8060ff8416069150509291505056fe6e3aaeed2986e1faf3948bf7432f5c2ebcf5848384724380cff0b38c1bf05ded51785d261c3b3e8c2cfe2d0e108b9ab2b1fb703ff9e9e49aba4ebdc85c36152ba26469706673582212209c3593478683df39a05d1184ff4c3c05d5142ae6b6f743b99e2f7d294c55909664736f6c63430008160033cf6f9f892731e14b8859835f2ff35575f447fb501f46243c4eb8bac19e31a0508879d5d645eb76dcb2fbe49d1d300cf073cc071082c27a267e488d83d176b4036e3aaeed2986e1faf3948bf7432f5c2ebcf5848384724380cff0b38c1bf05ded65d7a28e3265b37a6474929f336521b332c1681b933f6cb9f3376673440d862a",
  "libraries": {
    "DLoopCoreLogic": "0xCBfe96823292253239ea719eb538ec2DAA83Fb6A"
  },
  "devdoc": {
    "details": "Read the documentation of DLoopCoreBase for more details      - This contract implement dLEND-specific lending operations for DLoopCoreBase",
    "errors": {
      "AccessControlBadConfirmation()": [
        {
          "details": "The caller of a function is not the expected one. NOTE: Don't confuse with {AccessControlUnauthorizedAccount}."
        }
      ],
      "AccessControlUnauthorizedAccount(address,bytes32)": [
        {
          "details": "The `account` is missing a role."
        }
      ],
      "ERC20InsufficientAllowance(address,uint256,uint256)": [
        {
          "details": "Indicates a failure with the `spender`s `allowance`. Used in transfers.",
          "params": {
            "allowance": "Amount of tokens a `spender` is allowed to operate with.",
            "needed": "Minimum amount required to perform a transfer.",
            "spender": "Address that may be allowed to operate on tokens without being their owner."
          }
        }
      ],
      "ERC20InsufficientBalance(address,uint256,uint256)": [
        {
          "details": "Indicates an error related to the current `balance` of a `sender`. Used in transfers.",
          "params": {
            "balance": "Current balance for the interacting account.",
            "needed": "Minimum amount required to perform a transfer.",
            "sender": "Address whose tokens are being transferred."
          }
        }
      ],
      "ERC20InvalidApprover(address)": [
        {
          "details": "Indicates a failure with the `approver` of a token to be approved. Used in approvals.",
          "params": {
            "approver": "Address initiating an approval operation."
          }
        }
      ],
      "ERC20InvalidReceiver(address)": [
        {
          "details": "Indicates a failure with the token `receiver`. Used in transfers.",
          "params": {
            "receiver": "Address to which tokens are being transferred."
          }
        }
      ],
      "ERC20InvalidSender(address)": [
        {
          "details": "Indicates a failure with the token `sender`. Used in transfers.",
          "params": {
            "sender": "Address whose tokens are being transferred."
          }
        }
      ],
      "ERC20InvalidSpender(address)": [
        {
          "details": "Indicates a failure with the `spender` to be approved. Used in approvals.",
          "params": {
            "spender": "Address that may be allowed to operate on tokens without being their owner."
          }
        }
      ],
      "ERC4626ExceededMaxDeposit(address,uint256,uint256)": [
        {
          "details": "Attempted to deposit more assets than the max amount for `receiver`."
        }
      ],
      "ERC4626ExceededMaxMint(address,uint256,uint256)": [
        {
          "details": "Attempted to mint more shares than the max amount for `receiver`."
        }
      ],
      "ERC4626ExceededMaxRedeem(address,uint256,uint256)": [
        {
          "details": "Attempted to redeem more shares than the max amount for `receiver`."
        }
      ],
      "ERC4626ExceededMaxWithdraw(address,uint256,uint256)": [
        {
          "details": "Attempted to withdraw more assets than the max amount for `receiver`."
        }
      ],
      "EnforcedPause()": [
        {
          "details": "The operation failed because the contract is paused."
        }
      ],
      "ExpectedPause()": [
        {
          "details": "The operation failed because the contract is not paused."
        }
      ],
      "FailedCall()": [
        {
          "details": "A call to an address target failed. The target may have reverted."
        }
      ],
      "InsufficientBalance(uint256,uint256)": [
        {
          "details": "The ETH balance of the account is not enough to perform the operation."
        }
      ],
      "ReentrancyGuardReentrantCall()": [
        {
          "details": "Unauthorized reentrant call."
        }
      ],
      "SafeERC20FailedOperation(address)": [
        {
          "details": "An operation with an ERC-20 token failed."
        }
      ]
    },
    "events": {
      "Approval(address,address,uint256)": {
        "details": "Emitted when the allowance of a `spender` for an `owner` is set by a call to {approve}. `value` is the new allowance."
      },
      "Paused(address)": {
        "details": "Emitted when the pause is triggered by `account`."
      },
      "RoleAdminChanged(bytes32,bytes32,bytes32)": {
        "details": "Emitted when `newAdminRole` is set as ``role``'s admin role, replacing `previousAdminRole` `DEFAULT_ADMIN_ROLE` is the starting admin for all roles, despite {RoleAdminChanged} not being emitted to signal this."
      },
      "RoleGranted(bytes32,address,address)": {
        "details": "Emitted when `account` is granted `role`. `sender` is the account that originated the contract call. This account bears the admin role (for the granted role). Expected in cases where the role was granted using the internal {AccessControl-_grantRole}."
      },
      "RoleRevoked(bytes32,address,address)": {
        "details": "Emitted when `account` is revoked `role`. `sender` is the account that originated the contract call:   - if using `revokeRole`, it is the admin role bearer   - if using `renounceRole`, it is the role bearer (i.e. `account`)"
      },
      "Transfer(address,address,uint256)": {
        "details": "Emitted when `value` tokens are moved from one account (`from`) to another (`to`). Note that `value` may be zero."
      },
      "Unpaused(address)": {
        "details": "Emitted when the pause is lifted by `account`."
      }
    },
    "kind": "dev",
    "methods": {
      "allowance(address,address)": {
        "details": "Returns the remaining number of tokens that `spender` will be allowed to spend on behalf of `owner` through {transferFrom}. This is zero by default. This value changes when {approve} or {transferFrom} are called."
      },
      "approve(address,uint256)": {
        "details": "See {IERC20-approve}. NOTE: If `value` is the maximum `uint256`, the allowance is not updated on `transferFrom`. This is semantically equivalent to an infinite approval. Requirements: - `spender` cannot be the zero address."
      },
      "asset()": {
        "details": "Returns the address of the underlying token used for the Vault for accounting, depositing, and withdrawing. - MUST be an ERC-20 token contract. - MUST NOT revert."
      },
      "balanceOf(address)": {
        "details": "Returns the value of tokens owned by `account`."
      },
      "compoundRewards(uint256,address[],address)": {
        "details": "Compounds multiple rewards",
        "params": {
          "amount": "The amount to compound",
          "receiver": "The address to receive the compounded rewards",
          "rewardTokens": "The reward tokens to claim"
        }
      },
      "constructor": {
        "details": "Constructor for the DLoopCoreDLend contract using struct to avoid stack-too-deep"
      },
      "convertFromBaseCurrencyToToken(uint256,address)": {
        "details": "Converts an amount in base currency to the actual amount in the token",
        "params": {
          "amountInBase": "Amount in base currency",
          "token": "Address of the token"
        },
        "returns": {
          "_0": "amountInToken Amount in the token"
        }
      },
      "convertFromTokenAmountToBaseCurrency(uint256,address)": {
        "details": "Converts an amount in the token to the actual amount in base currency",
        "params": {
          "amountInToken": "Amount in the token",
          "token": "Address of the token"
        },
        "returns": {
          "_0": "amountInBase Amount in base currency"
        }
      },
      "convertToAssets(uint256)": {
        "details": "Returns the amount of assets that the Vault would exchange for the amount of shares provided, in an ideal scenario where all the conditions are met. - MUST NOT be inclusive of any fees that are charged against assets in the Vault. - MUST NOT show any variations depending on the caller. - MUST NOT reflect slippage or other on-chain conditions, when performing the actual exchange. - MUST NOT revert. NOTE: This calculation MAY NOT reflect the per-user price-per-share, and instead should reflect the average-users price-per-share, meaning what the average user should expect to see when exchanging to and from."
      },
      "convertToShares(uint256)": {
        "details": "Returns the amount of shares that the Vault would exchange for the amount of assets provided, in an ideal scenario where all the conditions are met. - MUST NOT be inclusive of any fees that are charged against assets in the Vault. - MUST NOT show any variations depending on the caller. - MUST NOT reflect slippage or other on-chain conditions, when performing the actual exchange. - MUST NOT revert. NOTE: This calculation MAY NOT reflect the per-user price-per-share, and instead should reflect the average-users price-per-share, meaning what the average user should expect to see when exchanging to and from."
      },
      "decimals()": {
        "details": "Decimals are computed by adding the decimal offset on top of the underlying asset's decimals. This \"original\" value is cached during construction of the vault contract. If this read operation fails (e.g., the asset has not been created yet), a default of 18 is used to represent the underlying asset's decimals. See {IERC20Metadata-decimals}."
      },
      "decreaseLeverage(uint256,uint256)": {
        "details": "Requires spending debt token from the user's wallet to repay debt to the pool.      Will send the withdrawn collateral asset to the user's wallet.",
        "params": {
          "inputDebtTokenAmount": "The amount of debt token to repay",
          "minReceivedCollateralTokenAmount": "The minimum amount of collateral asset to receive"
        }
      },
      "deposit(uint256,address)": {
        "details": "Mints shares Vault shares to receiver by depositing exactly amount of underlying tokens. - MUST emit the Deposit event. - MAY support an additional flow in which the underlying tokens are owned by the Vault contract before the   deposit execution, and are accounted for during deposit. - MUST revert if all of assets cannot be deposited (due to deposit limit being reached, slippage, the user not   approving enough underlying tokens to the Vault contract, etc). NOTE: most implementations will require pre-approval of the Vault with the Vaults underlying asset token."
      },
      "getAssetPriceFromOracle(address)": {
        "details": "Gets the asset price from the oracle",
        "params": {
          "asset": "Address of the asset"
        },
        "returns": {
          "_0": "uint256 Price of the asset"
        }
      },
      "getCollateralTokenAddress()": {
        "returns": {
          "_0": "address The address of the collateral token"
        }
      },
      "getCollateralValueInTokenAmount(address,address)": {
        "details": "Get the collateral value in token amount in the underlying pool",
        "params": {
          "token": "The address of the token",
          "user": "The address of the user"
        },
        "returns": {
          "collateralTokenAmount": "The collateral token amount"
        }
      },
      "getCurrentLeverageBps()": {
        "details": "Calculates leverage based on total collateral and debt values",
        "returns": {
          "_0": "uint256 The current leverage in basis points"
        }
      },
      "getCurrentSubsidyBps()": {
        "details": "Calculates subsidy based on leverage deviation from target",
        "returns": {
          "_0": "uint256 The current subsidy in basis points"
        }
      },
      "getDebtTokenAddress()": {
        "returns": {
          "_0": "address The address of the debt token"
        }
      },
      "getDebtValueInTokenAmount(address,address)": {
        "details": "Get the debt value in token amount in the underlying pool",
        "params": {
          "token": "The address of the token",
          "user": "The address of the user"
        },
        "returns": {
          "debtTokenAmount": "The debt token amount"
        }
      },
      "getDefaultMaxSubsidyBps()": {
        "returns": {
          "_0": "uint256 The default maximum subsidy in basis points"
        }
      },
      "getLendingOracle()": {
        "details": "Gets the lending oracle",
        "returns": {
          "_0": "IPriceOracleGetter The lending oracle interface"
        }
      },
      "getLendingPool()": {
        "details": "Gets the lending pool",
        "returns": {
          "_0": "ILendingPool The lending pool interface"
        }
      },
      "getLendingPoolAddress()": {
        "details": "Gets the lending pool address",
        "returns": {
          "_0": "address The lending pool address"
        }
      },
      "getOracleAddress()": {
        "details": "Gets the oracle address",
        "returns": {
          "_0": "address The oracle address"
        }
      },
      "getRoleAdmin(bytes32)": {
        "details": "Returns the admin role that controls `role`. See {grantRole} and {revokeRole}. To change a role's admin, use {_setRoleAdmin}."
      },
      "getTotalCollateralAndDebtOfUserInBase(address)": {
        "details": "Gets the total collateral and debt of a user in base currency",
        "params": {
          "user": "Address of the user"
        },
        "returns": {
          "totalCollateralBase": "Total collateral in base currency",
          "totalDebtBase": "Total debt in base currency"
        }
      },
      "getTreasuryFee(uint256)": {
        "details": "Calculates the treasury fee for a given amount",
        "params": {
          "amount": "The amount to calculate the treasury fee for"
        },
        "returns": {
          "_0": "The treasury fee in the same unit as the amount"
        }
      },
      "grantRole(bytes32,address)": {
        "details": "Grants `role` to `account`. If `account` had not been already granted `role`, emits a {RoleGranted} event. Requirements: - the caller must have ``role``'s admin role. May emit a {RoleGranted} event."
      },
      "hasRole(bytes32,address)": {
        "details": "Returns `true` if `account` has been granted `role`."
      },
      "increaseLeverage(uint256,uint256)": {
        "details": "Requires spending collateral token from the user's wallet to supply to the pool.      Will send the borrowed debt token to the user's wallet.",
        "params": {
          "inputCollateralTokenAmount": "The amount of collateral token to deposit",
          "minReceivedDebtTokenAmount": "The minimum amount of debt token to receive"
        }
      },
      "isRescuableToken(address)": {
        "details": "Do not rescue the aToken, variable debt token and stable debt token of the collateral token      - Implement this method from RescuableVault",
        "params": {
          "token": "Address of the token to check"
        },
        "returns": {
          "_0": "bool True if the token is a restricted rescue token, false otherwise"
        }
      },
      "isTooImbalanced()": {
        "details": "Returns whether the current leverage is too imbalanced",
        "returns": {
          "_0": "bool True if leverage is too imbalanced, false otherwise"
        }
      },
      "maxDeposit(address)": {
        "details": "See {IERC4626-maxDeposit}."
      },
      "maxMint(address)": {
        "details": "See {IERC4626-maxMint}."
      },
      "maxRedeem(address)": {
        "details": "See {IERC4626-maxRedeem}."
      },
      "maxWithdraw(address)": {
        "details": "See {IERC4626-maxWithdraw}."
      },
      "mint(uint256,address)": {
        "details": "Mints exactly shares Vault shares to receiver by depositing amount of underlying tokens. - MUST emit the Deposit event. - MAY support an additional flow in which the underlying tokens are owned by the Vault contract before the mint   execution, and are accounted for during mint. - MUST revert if all of shares cannot be minted (due to deposit limit being reached, slippage, the user not   approving enough underlying tokens to the Vault contract, etc). NOTE: most implementations will require pre-approval of the Vault with the Vaults underlying asset token."
      },
      "name()": {
        "details": "Returns the name of the token."
      },
      "pause()": {
        "details": "Only callable by accounts with the pauser role"
      },
      "paused()": {
        "details": "Returns true if the contract is paused, and false otherwise."
      },
      "previewDeposit(uint256)": {
        "details": "Allows an on-chain or off-chain user to simulate the effects of their deposit at the current block, given current on-chain conditions. - MUST return as close to and no more than the exact amount of Vault shares that would be minted in a deposit   call in the same transaction. I.e. deposit should return the same or more shares as previewDeposit if called   in the same transaction. - MUST NOT account for deposit limits like those returned from maxDeposit and should always act as though the   deposit would be accepted, regardless if the user has enough tokens approved, etc. - MUST be inclusive of deposit fees. Integrators should be aware of the existence of deposit fees. - MUST NOT revert. NOTE: any unfavorable discrepancy between convertToShares and previewDeposit SHOULD be considered slippage in share price or some other type of condition, meaning the depositor will lose assets by depositing."
      },
      "previewMint(uint256)": {
        "details": "Allows an on-chain or off-chain user to simulate the effects of their mint at the current block, given current on-chain conditions. - MUST return as close to and no fewer than the exact amount of assets that would be deposited in a mint call   in the same transaction. I.e. mint should return the same or fewer assets as previewMint if called in the   same transaction. - MUST NOT account for mint limits like those returned from maxMint and should always act as though the mint   would be accepted, regardless if the user has enough tokens approved, etc. - MUST be inclusive of deposit fees. Integrators should be aware of the existence of deposit fees. - MUST NOT revert. NOTE: any unfavorable discrepancy between convertToAssets and previewMint SHOULD be considered slippage in share price or some other type of condition, meaning the depositor will lose assets by minting."
      },
      "previewRedeem(uint256)": {
        "details": "See {IERC4626-previewRedeem}."
      },
      "previewWithdraw(uint256)": {
        "details": "See {IERC4626-previewWithdraw}."
      },
      "redeem(uint256,address,address)": {
        "details": "Burns exactly shares from owner and sends assets of underlying tokens to receiver. - MUST emit the Withdraw event. - MAY support an additional flow in which the underlying tokens are owned by the Vault contract before the   redeem execution, and are accounted for during redeem. - MUST revert if all of shares cannot be redeemed (due to withdrawal limit being reached, slippage, the owner   not having enough shares, etc). NOTE: some implementations will require pre-requesting to the Vault before a withdrawal may be performed. Those methods should be performed separately."
      },
      "renounceRole(bytes32,address)": {
        "details": "Revokes `role` from the calling account. Roles are often managed via {grantRole} and {revokeRole}: this function's purpose is to provide a mechanism for accounts to lose their privileges if they are compromised (such as when a trusted device is misplaced). If the calling account had been revoked `role`, emits a {RoleRevoked} event. Requirements: - the caller must be `callerConfirmation`. May emit a {RoleRevoked} event."
      },
      "rescueToken(address,address,uint256)": {
        "details": "Rescues tokens accidentally sent to the contract (except for the collateral token and debt token)",
        "params": {
          "amount": "Amount of tokens to rescue",
          "receiver": "Address to receive the rescued tokens",
          "token": "Address of the token to rescue"
        }
      },
      "revokeRole(bytes32,address)": {
        "details": "Revokes `role` from `account`. If `account` had been granted `role`, emits a {RoleRevoked} event. Requirements: - the caller must have ``role``'s admin role. May emit a {RoleRevoked} event."
      },
      "setDLendRewardsController(address)": {
        "details": "Only callable by accounts with the dLoop admin role.",
        "params": {
          "_newDLendRewardsController": "The address of the new rewards controller."
        }
      },
      "setExchangeThreshold(uint256)": {
        "details": "Sets the minimum threshold for exchange operations",
        "params": {
          "newExchangeThreshold": "New minimum threshold amount"
        }
      },
      "setLeverageBounds(uint32,uint32)": {
        "details": "Sets the lower and upper bounds of target leverage",
        "params": {
          "_lowerBoundTargetLeverageBps": "New lower bound of target leverage in basis points",
          "_upperBoundTargetLeverageBps": "New upper bound of target leverage in basis points"
        }
      },
      "setMaxSubsidyBps(uint256)": {
        "details": "Only callable by accounts with the admin role",
        "params": {
          "_maxSubsidyBps": "New maximum subsidy in basis points"
        }
      },
      "setMinDeviationBps(uint256)": {
        "details": "Only callable by accounts with the admin role",
        "params": {
          "_minDeviationBps": "New minimum deviation of leverage from the target leverage in basis points"
        }
      },
      "setTreasury(address)": {
        "details": "Sets the treasury address",
        "params": {
          "newTreasury": "The new treasury address"
        }
      },
      "setTreasuryFeeBps(uint256)": {
        "details": "Sets the treasury fee in basis points",
        "params": {
          "newTreasuryFeeBps": "New treasury fee in basis points (100 = 1bps = 0.01%)"
        }
      },
      "setWithdrawalFeeBps(uint256)": {
        "details": "Only callable by accounts with the admin role",
        "params": {
          "newWithdrawalFeeBps": "The new withdrawal fee in basis points"
        }
      },
      "supportsInterface(bytes4)": {
        "details": "Returns true if this contract implements the interface defined by `interfaceId`. See the corresponding https://eips.ethereum.org/EIPS/eip-165#how-interfaces-are-identified[ERC section] to learn more about how these ids are created. This function call must use less than 30 000 gas."
      },
      "symbol()": {
        "details": "Returns the symbol of the token, usually a shorter version of the name."
      },
      "totalAssets()": {
        "details": "Override of totalAssets from ERC4626",
        "returns": {
          "_0": "uint256 Total assets in the vault"
        }
      },
      "totalSupply()": {
        "details": "Returns the value of tokens in existence."
      },
      "transfer(address,uint256)": {
        "details": "See {IERC20-transfer}. Requirements: - `to` cannot be the zero address. - the caller must have a balance of at least `value`."
      },
      "transferFrom(address,address,uint256)": {
        "details": "See {IERC20-transferFrom}. Skips emitting an {Approval} event indicating an allowance update. This is not required by the ERC. See {xref-ERC20-_approve-address-address-uint256-bool-}[_approve]. NOTE: Does not update the allowance if the current allowance is the maximum `uint256`. Requirements: - `from` and `to` cannot be the zero address. - `from` must have a balance of at least `value`. - the caller must have allowance for ``from``'s tokens of at least `value`."
      },
      "unpause()": {
        "details": "Only callable by accounts with the pauser role"
      },
      "withdraw(uint256,address,address)": {
        "details": "Burns shares from owner and sends exactly assets of underlying tokens to receiver. - MUST emit the Withdraw event. - MAY support an additional flow in which the underlying tokens are owned by the Vault contract before the   withdraw execution, and are accounted for during withdraw. - MUST revert if all of assets cannot be withdrawn (due to withdrawal limit being reached, slippage, the owner   not having enough shares, etc). Note that some implementations will require pre-requesting to the Vault before a withdrawal may be performed. Those methods should be performed separately."
      }
    },
    "title": "DLoopCoreDLend",
    "version": 1
  },
  "userdoc": {
    "kind": "user",
    "methods": {
      "decreaseLeverage(uint256,uint256)": {
        "notice": "Decreases the leverage of the user by repaying debt and withdrawing collateral"
      },
      "getCollateralTokenAddress()": {
        "notice": "Gets the address of the collateral token"
      },
      "getCurrentLeverageBps()": {
        "notice": "Gets the current leverage in basis points"
      },
      "getCurrentSubsidyBps()": {
        "notice": "Gets the current subsidy in basis points"
      },
      "getDebtTokenAddress()": {
        "notice": "Gets the address of the debt token"
      },
      "getDefaultMaxSubsidyBps()": {
        "notice": "Gets the default maximum subsidy in basis points"
      },
      "increaseLeverage(uint256,uint256)": {
        "notice": "Increases the leverage of the user by supplying collateral token and borrowing more debt token"
      },
      "pause()": {
        "notice": "Pauses the contract"
      },
      "setDLendRewardsController(address)": {
        "notice": "Sets the address of the dLEND RewardsController contract."
      },
      "setMaxSubsidyBps(uint256)": {
        "notice": "Sets the maximum subsidy in basis points"
      },
      "setMinDeviationBps(uint256)": {
        "notice": "Sets the minimum deviation of leverage from the target leverage in basis points"
      },
      "setWithdrawalFeeBps(uint256)": {
        "notice": "Sets the withdrawal fee in basis points"
      },
      "unpause()": {
        "notice": "Unpauses the contract"
      }
    },
    "version": 1
  },
  "storageLayout": {
    "storage": [
      {
        "astId": 799,
        "contract": "contracts/vaults/dloop/core/venue/dlend/DLoopCoreDLend.sol:DLoopCoreDLend",
        "label": "_balances",
        "offset": 0,
        "slot": "0",
        "type": "t_mapping(t_address,t_uint256)"
      },
      {
        "astId": 805,
        "contract": "contracts/vaults/dloop/core/venue/dlend/DLoopCoreDLend.sol:DLoopCoreDLend",
        "label": "_allowances",
        "offset": 0,
        "slot": "1",
        "type": "t_mapping(t_address,t_mapping(t_address,t_uint256))"
      },
      {
        "astId": 807,
        "contract": "contracts/vaults/dloop/core/venue/dlend/DLoopCoreDLend.sol:DLoopCoreDLend",
        "label": "_totalSupply",
        "offset": 0,
        "slot": "2",
        "type": "t_uint256"
      },
      {
        "astId": 809,
        "contract": "contracts/vaults/dloop/core/venue/dlend/DLoopCoreDLend.sol:DLoopCoreDLend",
        "label": "_name",
        "offset": 0,
        "slot": "3",
        "type": "t_string_storage"
      },
      {
        "astId": 811,
        "contract": "contracts/vaults/dloop/core/venue/dlend/DLoopCoreDLend.sol:DLoopCoreDLend",
        "label": "_symbol",
        "offset": 0,
        "slot": "4",
        "type": "t_string_storage"
      },
      {
        "astId": 27,
        "contract": "contracts/vaults/dloop/core/venue/dlend/DLoopCoreDLend.sol:DLoopCoreDLend",
        "label": "_roles",
        "offset": 0,
        "slot": "5",
        "type": "t_mapping(t_bytes32,t_struct(RoleData)22_storage)"
      },
      {
        "astId": 3036,
        "contract": "contracts/vaults/dloop/core/venue/dlend/DLoopCoreDLend.sol:DLoopCoreDLend",
        "label": "_status",
        "offset": 0,
        "slot": "6",
        "type": "t_uint256"
      },
      {
        "astId": 2926,
        "contract": "contracts/vaults/dloop/core/venue/dlend/DLoopCoreDLend.sol:DLoopCoreDLend",
        "label": "_paused",
        "offset": 0,
        "slot": "7",
        "type": "t_bool"
      },
      {
        "astId": 8641,
        "contract": "contracts/vaults/dloop/core/venue/dlend/DLoopCoreDLend.sol:DLoopCoreDLend",
        "label": "lowerBoundTargetLeverageBps",
        "offset": 1,
        "slot": "7",
        "type": "t_uint32"
      },
      {
        "astId": 8643,
        "contract": "contracts/vaults/dloop/core/venue/dlend/DLoopCoreDLend.sol:DLoopCoreDLend",
        "label": "upperBoundTargetLeverageBps",
        "offset": 5,
        "slot": "7",
        "type": "t_uint32"
      },
      {
        "astId": 8645,
        "contract": "contracts/vaults/dloop/core/venue/dlend/DLoopCoreDLend.sol:DLoopCoreDLend",
        "label": "maxSubsidyBps",
        "offset": 0,
        "slot": "8",
        "type": "t_uint256"
      },
      {
        "astId": 8647,
        "contract": "contracts/vaults/dloop/core/venue/dlend/DLoopCoreDLend.sol:DLoopCoreDLend",
        "label": "minDeviationBps",
        "offset": 0,
        "slot": "9",
        "type": "t_uint256"
      },
      {
        "astId": 8649,
        "contract": "contracts/vaults/dloop/core/venue/dlend/DLoopCoreDLend.sol:DLoopCoreDLend",
        "label": "withdrawalFeeBps",
        "offset": 0,
        "slot": "10",
        "type": "t_uint256"
      },
      {
        "astId": 17995,
        "contract": "contracts/vaults/dloop/core/venue/dlend/DLoopCoreDLend.sol:DLoopCoreDLend",
        "label": "treasury",
        "offset": 0,
        "slot": "11",
        "type": "t_address"
      },
      {
        "astId": 17997,
        "contract": "contracts/vaults/dloop/core/venue/dlend/DLoopCoreDLend.sol:DLoopCoreDLend",
        "label": "treasuryFeeBps",
        "offset": 0,
        "slot": "12",
        "type": "t_uint256"
      },
      {
        "astId": 17999,
        "contract": "contracts/vaults/dloop/core/venue/dlend/DLoopCoreDLend.sol:DLoopCoreDLend",
        "label": "exchangeThreshold",
        "offset": 0,
        "slot": "13",
        "type": "t_uint256"
      },
      {
        "astId": 11932,
        "contract": "contracts/vaults/dloop/core/venue/dlend/DLoopCoreDLend.sol:DLoopCoreDLend",
        "label": "coreState",
        "offset": 0,
        "slot": "14",
        "type": "t_struct(CoreState)11929_storage"
      }
    ],
    "types": {
      "t_address": {
        "encoding": "inplace",
        "label": "address",
        "numberOfBytes": "20"
      },
      "t_bool": {
        "encoding": "inplace",
        "label": "bool",
        "numberOfBytes": "1"
      },
      "t_bytes32": {
        "encoding": "inplace",
        "label": "bytes32",
        "numberOfBytes": "32"
      },
      "t_contract(IPoolAddressesProvider)13468": {
        "encoding": "inplace",
        "label": "contract IPoolAddressesProvider",
        "numberOfBytes": "20"
      },
      "t_contract(IRewardsController)13586": {
        "encoding": "inplace",
        "label": "contract IRewardsController",
        "numberOfBytes": "20"
      },
      "t_mapping(t_address,t_bool)": {
        "encoding": "mapping",
        "key": "t_address",
        "label": "mapping(address => bool)",
        "numberOfBytes": "32",
        "value": "t_bool"
      },
      "t_mapping(t_address,t_mapping(t_address,t_uint256))": {
        "encoding": "mapping",
        "key": "t_address",
        "label": "mapping(address => mapping(address => uint256))",
        "numberOfBytes": "32",
        "value": "t_mapping(t_address,t_uint256)"
      },
      "t_mapping(t_address,t_uint256)": {
        "encoding": "mapping",
        "key": "t_address",
        "label": "mapping(address => uint256)",
        "numberOfBytes": "32",
        "value": "t_uint256"
      },
      "t_mapping(t_bytes32,t_struct(RoleData)22_storage)": {
        "encoding": "mapping",
        "key": "t_bytes32",
        "label": "mapping(bytes32 => struct AccessControl.RoleData)",
        "numberOfBytes": "32",
        "value": "t_struct(RoleData)22_storage"
      },
      "t_string_storage": {
        "encoding": "bytes",
        "label": "string",
        "numberOfBytes": "32"
      },
      "t_struct(CoreState)11929_storage": {
        "encoding": "inplace",
        "label": "struct DLoopCoreDLend.CoreState",
        "members": [
          {
            "astId": 11921,
            "contract": "contracts/vaults/dloop/core/venue/dlend/DLoopCoreDLend.sol:DLoopCoreDLend",
            "label": "lendingPoolAddressesProvider",
            "offset": 0,
            "slot": "0",
            "type": "t_contract(IPoolAddressesProvider)13468"
          },
          {
            "astId": 11923,
            "contract": "contracts/vaults/dloop/core/venue/dlend/DLoopCoreDLend.sol:DLoopCoreDLend",
            "label": "dLendAssetToClaimFor",
            "offset": 0,
            "slot": "1",
            "type": "t_address"
          },
          {
            "astId": 11925,
            "contract": "contracts/vaults/dloop/core/venue/dlend/DLoopCoreDLend.sol:DLoopCoreDLend",
            "label": "targetStaticATokenWrapper",
            "offset": 0,
            "slot": "2",
            "type": "t_address"
          },
          {
            "astId": 11928,
            "contract": "contracts/vaults/dloop/core/venue/dlend/DLoopCoreDLend.sol:DLoopCoreDLend",
            "label": "dLendRewardsController",
            "offset": 0,
            "slot": "3",
            "type": "t_contract(IRewardsController)13586"
          }
        ],
        "numberOfBytes": "128"
      },
      "t_struct(RoleData)22_storage": {
        "encoding": "inplace",
        "label": "struct AccessControl.RoleData",
        "members": [
          {
            "astId": 19,
            "contract": "contracts/vaults/dloop/core/venue/dlend/DLoopCoreDLend.sol:DLoopCoreDLend",
            "label": "hasRole",
            "offset": 0,
            "slot": "0",
            "type": "t_mapping(t_address,t_bool)"
          },
          {
            "astId": 21,
            "contract": "contracts/vaults/dloop/core/venue/dlend/DLoopCoreDLend.sol:DLoopCoreDLend",
            "label": "adminRole",
            "offset": 0,
            "slot": "1",
            "type": "t_bytes32"
          }
        ],
        "numberOfBytes": "64"
      },
      "t_uint256": {
        "encoding": "inplace",
        "label": "uint256",
        "numberOfBytes": "32"
      },
      "t_uint32": {
        "encoding": "inplace",
        "label": "uint32",
        "numberOfBytes": "4"
      }
    }
  }
}