{
  "address": "0x3409736eEC8EBA0A4bec98cC01d521068090d03B",
  "abi": [
    {
      "inputs": [
        {
          "internalType": "contract DLoopCoreBase",
          "name": "dLoopCore",
          "type": "address"
        }
      ],
      "name": "quoteRebalanceAmountToReachTargetLeverage",
      "outputs": [
        {
          "internalType": "uint256",
          "name": "inputTokenAmount",
          "type": "uint256"
        },
        {
          "internalType": "uint256",
          "name": "estimatedOutputTokenAmount",
          "type": "uint256"
        },
        {
          "internalType": "int8",
          "name": "direction",
          "type": "int8"
        }
      ],
      "stateMutability": "view",
      "type": "function"
    }
  ],
  "transactionHash": "0xe387e836254c37ad7d2256582407a3c7dd08d464de65fc194ae74d3349268bc9",
  "args": [],
  "numDeployments": 1,
  "solcInputHash": "2e64db1d033303f8e1ce98635b465fd1",
  "bytecode": "0x60808060405234610016576105de908161001c8239f35b600080fdfe608080604052600436101561001357600080fd5b60003560e01c6326b597061461002857600080fd5b34610327576020366003190112610327576004356001600160a01b038116810361032757635033def760e01b82526001600160a01b03811660048301819052604090839060249082905afa908115610334576000926000926104fd575b50604051632c805af560e21b81526020816004816001600160a01b0386165afa908115610334576000916104de575b50604051631f1b131360e31b8152906020826004816001600160a01b0387165afa918215610334576000926104ad575b5060405163415c506960e01b8152916020836004816001600160a01b0388165afa92831561033457600093610479575b50604051637aa7c3c160e01b8152916020836004816001600160a01b0389165afa92831561033457600093610438575b5060405163863df9e760e01b8152906020826004816001600160a01b038a165afa91821561033457600092610404575b5060405163313ce56760e01b81526001600160a01b0391909116939092602084600481885afa938415610334576000946103e3575b506040516363880e0960e11b815260048101959095526020856024816001600160a01b038b165afa948515610334576000956103af575b5060405163313ce56760e01b815295906001600160a01b0316602087600481845afa9687156103345760009761037d575b506040516363880e0960e11b8152600481019190915296602090889060249082906001600160a01b03165afa96871561033457600097610340575b5060ff96979163ffffffff91889594936040519b63c9a47a9b60e01b8d5260048d015260248c015260448b015216606489015260848801521660a486015260c48501521660e4830152610104820152606081610124817306195AD2BD969C69b8eBEECd0c3823682cb6a90B5af4801561033457600090600080916102e4575b60609350604051928352602083015260000b6040820152f35b5050506060813d821161032c575b816102ff60609383610538565b8101031261032757805190604060208201519101518060000b810361032757606092916102cb565b600080fd5b3d91506102f2565b6040513d6000823e3d90fd5b9093929196506020813d602011610375575b8161035f60209383610538565b81010312610327575195919290919060ff61024c565b3d9150610352565b60209197506103a190823d84116103a8575b6103998183610538565b81019061058f565b9690610211565b503d61038f565b9094506020813d6020116103db575b816103cb60209383610538565b81010312610327575193386101e0565b3d91506103be565b6103fd91945060203d6020116103a8576103998183610538565b92386101a9565b9091506020813d602011610430575b8161042060209383610538565b8101031261032757519038610174565b3d9150610413565b9092506020813d602011610471575b8161045460209383610538565b81010312610327575163ffffffff81168103610327579138610144565b3d9150610447565b9092506020813d6020116104a5575b8161049560209383610538565b8101031261032757519138610114565b3d9150610488565b6104d091925060203d6020116104d7575b6104c88183610538565b810190610570565b90386100e4565b503d6104be565b6104f7915060203d6020116104d7576104c88183610538565b386100b4565b925090506040823d604011610530575b8161051a60409383610538565b8101031261032757602082519201519038610085565b3d915061050d565b90601f8019910116810190811067ffffffffffffffff82111761055a57604052565b634e487b7160e01b600052604160045260246000fd5b9081602091031261032757516001600160a01b03811681036103275790565b90816020910312610327575160ff81168103610327579056fea2646970667358221220bc03a09c44fa41f6c65dc680575f66f3130dff731ceabc825a4c511d7339c83f64736f6c63430008140033",
  "deployedBytecode": "0x608080604052600436101561001357600080fd5b60003560e01c6326b597061461002857600080fd5b34610327576020366003190112610327576004356001600160a01b038116810361032757635033def760e01b82526001600160a01b03811660048301819052604090839060249082905afa908115610334576000926000926104fd575b50604051632c805af560e21b81526020816004816001600160a01b0386165afa908115610334576000916104de575b50604051631f1b131360e31b8152906020826004816001600160a01b0387165afa918215610334576000926104ad575b5060405163415c506960e01b8152916020836004816001600160a01b0388165afa92831561033457600093610479575b50604051637aa7c3c160e01b8152916020836004816001600160a01b0389165afa92831561033457600093610438575b5060405163863df9e760e01b8152906020826004816001600160a01b038a165afa91821561033457600092610404575b5060405163313ce56760e01b81526001600160a01b0391909116939092602084600481885afa938415610334576000946103e3575b506040516363880e0960e11b815260048101959095526020856024816001600160a01b038b165afa948515610334576000956103af575b5060405163313ce56760e01b815295906001600160a01b0316602087600481845afa9687156103345760009761037d575b506040516363880e0960e11b8152600481019190915296602090889060249082906001600160a01b03165afa96871561033457600097610340575b5060ff96979163ffffffff91889594936040519b63c9a47a9b60e01b8d5260048d015260248c015260448b015216606489015260848801521660a486015260c48501521660e48301526101048201526060816101248173__$38db3340cd8a046b928a070cd02a24807d$__5af4801561033457600090600080916102e4575b60609350604051928352602083015260000b6040820152f35b5050506060813d821161032c575b816102ff60609383610538565b8101031261032757805190604060208201519101518060000b810361032757606092916102cb565b600080fd5b3d91506102f2565b6040513d6000823e3d90fd5b9093929196506020813d602011610375575b8161035f60209383610538565b81010312610327575195919290919060ff61024c565b3d9150610352565b60209197506103a190823d84116103a8575b6103998183610538565b81019061058f565b9690610211565b503d61038f565b9094506020813d6020116103db575b816103cb60209383610538565b81010312610327575193386101e0565b3d91506103be565b6103fd91945060203d6020116103a8576103998183610538565b92386101a9565b9091506020813d602011610430575b8161042060209383610538565b8101031261032757519038610174565b3d9150610413565b9092506020813d602011610471575b8161045460209383610538565b81010312610327575163ffffffff81168103610327579138610144565b3d9150610447565b9092506020813d6020116104a5575b8161049560209383610538565b8101031261032757519138610114565b3d9150610488565b6104d091925060203d6020116104d7575b6104c88183610538565b810190610570565b90386100e4565b503d6104be565b6104f7915060203d6020116104d7576104c88183610538565b386100b4565b925090506040823d604011610530575b8161051a60409383610538565b8101031261032757602082519201519038610085565b3d915061050d565b90601f8019910116810190811067ffffffffffffffff82111761055a57604052565b634e487b7160e01b600052604160045260246000fd5b9081602091031261032757516001600160a01b03811681036103275790565b90816020910312610327575160ff81168103610327579056fea2646970667358221220bc03a09c44fa41f6c65dc680575f66f3130dff731ceabc825a4c511d7339c83f64736f6c63430008140033",
  "libraries": {
    "DLoopCoreLogic": "0x06195AD2BD969C69b8eBEECd0c3823682cb6a90B"
  }
}