{
  "address": "0x91303aD1b6F01F1C85C7096b4b16ad18DD27B401",
  "abi": [
    {
      "inputs": [
        {
          "internalType": "contract IERC3156FlashLender",
          "name": "_flashLender",
          "type": "address"
        },
        {
          "internalType": "contract IOdosRouterV2",
          "name": "_odosRouter",
          "type": "address"
        }
      ],
      "stateMutability": "nonpayable",
      "type": "constructor"
    },
    {
      "inputs": [],
      "name": "AccessControlBadConfirmation",
      "type": "error"
    },
    {
      "inputs": [
        {
          "internalType": "address",
          "name": "account",
          "type": "address"
        },
        {
          "internalType": "bytes32",
          "name": "neededRole",
          "type": "bytes32"
        }
      ],
      "name": "AccessControlUnauthorizedAccount",
      "type": "error"
    },
    {
      "inputs": [
        {
          "internalType": "address",
          "name": "token",
          "type": "address"
        }
      ],
      "name": "CannotRescueRestrictedToken",
      "type": "error"
    },
    {
      "inputs": [
        {
          "internalType": "uint256",
          "name": "debtTokenBalanceBeforeDeposit",
          "type": "uint256"
        },
        {
          "internalType": "uint256",
          "name": "debtTokenBalanceAfterDeposit",
          "type": "uint256"
        }
      ],
      "name": "DebtTokenBalanceNotIncreasedAfterDeposit",
      "type": "error"
    },
    {
      "inputs": [
        {
          "internalType": "uint256",
          "name": "debtTokenReceived",
          "type": "uint256"
        },
        {
          "internalType": "uint256",
          "name": "debtTokenUsed",
          "type": "uint256"
        },
        {
          "internalType": "uint256",
          "name": "flashLoanFee",
          "type": "uint256"
        }
      ],
      "name": "DebtTokenReceivedNotMetUsedAmountWithFlashLoanFee",
      "type": "error"
    },
    {
      "inputs": [],
      "name": "EnforcedPause",
      "type": "error"
    },
    {
      "inputs": [
        {
          "internalType": "uint256",
          "name": "estimatedOverallSlippageBps",
          "type": "uint256"
        }
      ],
      "name": "EstimatedOverallSlippageBpsCannotExceedOneHundredPercent",
      "type": "error"
    },
    {
      "inputs": [
        {
          "internalType": "uint256",
          "name": "currentEstimatedShares",
          "type": "uint256"
        },
        {
          "internalType": "uint256",
          "name": "minOutputShares",
          "type": "uint256"
        }
      ],
      "name": "EstimatedSharesLessThanMinOutputShares",
      "type": "error"
    },
    {
      "inputs": [],
      "name": "ExpectedPause",
      "type": "error"
    },
    {
      "inputs": [],
      "name": "FailedCall",
      "type": "error"
    },
    {
      "inputs": [
        {
          "internalType": "address",
          "name": "flashLender",
          "type": "address"
        },
        {
          "internalType": "address",
          "name": "debtToken",
          "type": "address"
        }
      ],
      "name": "FlashLenderNotSameAsDebtToken",
      "type": "error"
    },
    {
      "inputs": [
        {
          "internalType": "address",
          "name": "currentDebtToken",
          "type": "address"
        },
        {
          "internalType": "address",
          "name": "dLoopCoreDebtToken",
          "type": "address"
        }
      ],
      "name": "IncompatibleDLoopCoreDebtToken",
      "type": "error"
    },
    {
      "inputs": [
        {
          "internalType": "uint256",
          "name": "balance",
          "type": "uint256"
        },
        {
          "internalType": "uint256",
          "name": "needed",
          "type": "uint256"
        }
      ],
      "name": "InsufficientBalance",
      "type": "error"
    },
    {
      "inputs": [
        {
          "internalType": "uint256",
          "name": "leveragedCollateralAmount",
          "type": "uint256"
        },
        {
          "internalType": "uint256",
          "name": "assets",
          "type": "uint256"
        }
      ],
      "name": "LeveragedCollateralAmountLessThanAssets",
      "type": "error"
    },
    {
      "inputs": [
        {
          "internalType": "uint256",
          "name": "leveragedCollateralAmount",
          "type": "uint256"
        },
        {
          "internalType": "uint256",
          "name": "depositCollateralAmount",
          "type": "uint256"
        }
      ],
      "name": "LeveragedCollateralAmountLessThanDepositCollateralAmount",
      "type": "error"
    },
    {
      "inputs": [
        {
          "internalType": "uint256",
          "name": "outputTokenBalanceBefore",
          "type": "uint256"
        },
        {
          "internalType": "uint256",
          "name": "outputTokenBalanceAfter",
          "type": "uint256"
        }
      ],
      "name": "OutputTokenBalanceNotIncreasedAfterSwap",
      "type": "error"
    },
    {
      "inputs": [
        {
          "internalType": "uint256",
          "name": "receivedOutputTokenAmount",
          "type": "uint256"
        },
        {
          "internalType": "uint256",
          "name": "amountOut",
          "type": "uint256"
        }
      ],
      "name": "ReceivedOutputTokenAmountNotEqualAmountOut",
      "type": "error"
    },
    {
      "inputs": [
        {
          "internalType": "uint256",
          "name": "receivedShares",
          "type": "uint256"
        },
        {
          "internalType": "uint256",
          "name": "minOutputShares",
          "type": "uint256"
        }
      ],
      "name": "ReceivedSharesNotMetMinReceiveAmount",
      "type": "error"
    },
    {
      "inputs": [],
      "name": "ReentrancyGuardReentrantCall",
      "type": "error"
    },
    {
      "inputs": [
        {
          "internalType": "address",
          "name": "token",
          "type": "address"
        }
      ],
      "name": "SafeERC20FailedOperation",
      "type": "error"
    },
    {
      "inputs": [
        {
          "internalType": "uint256",
          "name": "sharesBeforeDeposit",
          "type": "uint256"
        },
        {
          "internalType": "uint256",
          "name": "sharesAfterDeposit",
          "type": "uint256"
        }
      ],
      "name": "SharesNotIncreasedAfterFlashLoan",
      "type": "error"
    },
    {
      "inputs": [
        {
          "internalType": "uint256",
          "name": "slippageBps",
          "type": "uint256"
        }
      ],
      "name": "SlippageBpsCannotExceedOneHundredPercent",
      "type": "error"
    },
    {
      "inputs": [
        {
          "internalType": "uint256",
          "name": "spentInputTokenAmount",
          "type": "uint256"
        },
        {
          "internalType": "uint256",
          "name": "amountInMaximum",
          "type": "uint256"
        }
      ],
      "name": "SpentInputTokenAmountGreaterThanAmountInMaximum",
      "type": "error"
    },
    {
      "inputs": [
        {
          "internalType": "address",
          "name": "initiator",
          "type": "address"
        },
        {
          "internalType": "address",
          "name": "thisContract",
          "type": "address"
        }
      ],
      "name": "UnknownInitiator",
      "type": "error"
    },
    {
      "inputs": [
        {
          "internalType": "address",
          "name": "msgSender",
          "type": "address"
        },
        {
          "internalType": "address",
          "name": "flashLender",
          "type": "address"
        }
      ],
      "name": "UnknownLender",
      "type": "error"
    },
    {
      "anonymous": false,
      "inputs": [
        {
          "indexed": true,
          "internalType": "address",
          "name": "collateralToken",
          "type": "address"
        },
        {
          "indexed": false,
          "internalType": "uint256",
          "name": "amount",
          "type": "uint256"
        },
        {
          "indexed": true,
          "internalType": "address",
          "name": "receiver",
          "type": "address"
        }
      ],
      "name": "LeftoverCollateralTokensTransferred",
      "type": "event"
    },
    {
      "anonymous": false,
      "inputs": [
        {
          "indexed": true,
          "internalType": "address",
          "name": "debtToken",
          "type": "address"
        },
        {
          "indexed": false,
          "internalType": "uint256",
          "name": "amount",
          "type": "uint256"
        },
        {
          "indexed": true,
          "internalType": "address",
          "name": "receiver",
          "type": "address"
        }
      ],
      "name": "LeftoverDebtTokensTransferred",
      "type": "event"
    },
    {
      "anonymous": false,
      "inputs": [
        {
          "indexed": false,
          "internalType": "address",
          "name": "account",
          "type": "address"
        }
      ],
      "name": "Paused",
      "type": "event"
    },
    {
      "anonymous": false,
      "inputs": [
        {
          "indexed": true,
          "internalType": "bytes32",
          "name": "role",
          "type": "bytes32"
        },
        {
          "indexed": true,
          "internalType": "bytes32",
          "name": "previousAdminRole",
          "type": "bytes32"
        },
        {
          "indexed": true,
          "internalType": "bytes32",
          "name": "newAdminRole",
          "type": "bytes32"
        }
      ],
      "name": "RoleAdminChanged",
      "type": "event"
    },
    {
      "anonymous": false,
      "inputs": [
        {
          "indexed": true,
          "internalType": "bytes32",
          "name": "role",
          "type": "bytes32"
        },
        {
          "indexed": true,
          "internalType": "address",
          "name": "account",
          "type": "address"
        },
        {
          "indexed": true,
          "internalType": "address",
          "name": "sender",
          "type": "address"
        }
      ],
      "name": "RoleGranted",
      "type": "event"
    },
    {
      "anonymous": false,
      "inputs": [
        {
          "indexed": true,
          "internalType": "bytes32",
          "name": "role",
          "type": "bytes32"
        },
        {
          "indexed": true,
          "internalType": "address",
          "name": "account",
          "type": "address"
        },
        {
          "indexed": true,
          "internalType": "address",
          "name": "sender",
          "type": "address"
        }
      ],
      "name": "RoleRevoked",
      "type": "event"
    },
    {
      "anonymous": false,
      "inputs": [
        {
          "indexed": false,
          "internalType": "address",
          "name": "account",
          "type": "address"
        }
      ],
      "name": "Unpaused",
      "type": "event"
    },
    {
      "inputs": [],
      "name": "BALANCE_DIFF_TOLERANCE",
      "outputs": [
        {
          "internalType": "uint256",
          "name": "",
          "type": "uint256"
        }
      ],
      "stateMutability": "view",
      "type": "function"
    },
    {
      "inputs": [],
      "name": "DEFAULT_ADMIN_ROLE",
      "outputs": [
        {
          "internalType": "bytes32",
          "name": "",
          "type": "bytes32"
        }
      ],
      "stateMutability": "view",
      "type": "function"
    },
    {
      "inputs": [],
      "name": "DLOOP_ADMIN_ROLE",
      "outputs": [
        {
          "internalType": "bytes32",
          "name": "",
          "type": "bytes32"
        }
      ],
      "stateMutability": "view",
      "type": "function"
    },
    {
      "inputs": [],
      "name": "FLASHLOAN_CALLBACK",
      "outputs": [
        {
          "internalType": "bytes32",
          "name": "",
          "type": "bytes32"
        }
      ],
      "stateMutability": "view",
      "type": "function"
    },
    {
      "inputs": [],
      "name": "PAUSER_ROLE",
      "outputs": [
        {
          "internalType": "bytes32",
          "name": "",
          "type": "bytes32"
        }
      ],
      "stateMutability": "view",
      "type": "function"
    },
    {
      "inputs": [],
      "name": "RESCUER_ADMIN_ROLE",
      "outputs": [
        {
          "internalType": "bytes32",
          "name": "",
          "type": "bytes32"
        }
      ],
      "stateMutability": "view",
      "type": "function"
    },
    {
      "inputs": [],
      "name": "RESCUER_ROLE",
      "outputs": [
        {
          "internalType": "bytes32",
          "name": "",
          "type": "bytes32"
        }
      ],
      "stateMutability": "view",
      "type": "function"
    },
    {
      "inputs": [
        {
          "internalType": "uint256",
          "name": "depositAmount",
          "type": "uint256"
        },
        {
          "internalType": "uint256",
          "name": "slippageBps",
          "type": "uint256"
        },
        {
          "internalType": "contract DLoopCoreBase",
          "name": "dLoopCore",
          "type": "address"
        }
      ],
      "name": "calculateMinOutputShares",
      "outputs": [
        {
          "internalType": "uint256",
          "name": "",
          "type": "uint256"
        }
      ],
      "stateMutability": "view",
      "type": "function"
    },
    {
      "inputs": [
        {
          "internalType": "uint256",
          "name": "assets",
          "type": "uint256"
        },
        {
          "internalType": "address",
          "name": "receiver",
          "type": "address"
        },
        {
          "internalType": "uint256",
          "name": "minOutputShares",
          "type": "uint256"
        },
        {
          "internalType": "bytes",
          "name": "debtTokenToCollateralSwapData",
          "type": "bytes"
        },
        {
          "internalType": "contract DLoopCoreBase",
          "name": "dLoopCore",
          "type": "address"
        }
      ],
      "name": "deposit",
      "outputs": [
        {
          "internalType": "uint256",
          "name": "shares",
          "type": "uint256"
        }
      ],
      "stateMutability": "nonpayable",
      "type": "function"
    },
    {
      "inputs": [
        {
          "internalType": "uint256",
          "name": "assets",
          "type": "uint256"
        },
        {
          "internalType": "uint256",
          "name": "minOutputShares",
          "type": "uint256"
        },
        {
          "internalType": "contract DLoopCoreBase",
          "name": "dLoopCore",
          "type": "address"
        }
      ],
      "name": "estimateFlashLoanSwapOutputCollateralAmount",
      "outputs": [
        {
          "internalType": "uint256",
          "name": "",
          "type": "uint256"
        }
      ],
      "stateMutability": "view",
      "type": "function"
    },
    {
      "inputs": [],
      "name": "flashLender",
      "outputs": [
        {
          "internalType": "contract IERC3156FlashLender",
          "name": "",
          "type": "address"
        }
      ],
      "stateMutability": "view",
      "type": "function"
    },
    {
      "inputs": [
        {
          "internalType": "bytes32",
          "name": "role",
          "type": "bytes32"
        }
      ],
      "name": "getRoleAdmin",
      "outputs": [
        {
          "internalType": "bytes32",
          "name": "",
          "type": "bytes32"
        }
      ],
      "stateMutability": "view",
      "type": "function"
    },
    {
      "inputs": [
        {
          "internalType": "bytes32",
          "name": "role",
          "type": "bytes32"
        },
        {
          "internalType": "address",
          "name": "account",
          "type": "address"
        }
      ],
      "name": "grantRole",
      "outputs": [],
      "stateMutability": "nonpayable",
      "type": "function"
    },
    {
      "inputs": [
        {
          "internalType": "bytes32",
          "name": "role",
          "type": "bytes32"
        },
        {
          "internalType": "address",
          "name": "account",
          "type": "address"
        }
      ],
      "name": "hasRole",
      "outputs": [
        {
          "internalType": "bool",
          "name": "",
          "type": "bool"
        }
      ],
      "stateMutability": "view",
      "type": "function"
    },
    {
      "inputs": [
        {
          "internalType": "address",
          "name": "",
          "type": "address"
        }
      ],
      "name": "isRescuableToken",
      "outputs": [
        {
          "internalType": "bool",
          "name": "",
          "type": "bool"
        }
      ],
      "stateMutability": "view",
      "type": "function"
    },
    {
      "inputs": [],
      "name": "odosRouter",
      "outputs": [
        {
          "internalType": "contract IOdosRouterV2",
          "name": "",
          "type": "address"
        }
      ],
      "stateMutability": "view",
      "type": "function"
    },
    {
      "inputs": [
        {
          "internalType": "address",
          "name": "initiator",
          "type": "address"
        },
        {
          "internalType": "address",
          "name": "token",
          "type": "address"
        },
        {
          "internalType": "uint256",
          "name": "",
          "type": "uint256"
        },
        {
          "internalType": "uint256",
          "name": "flashLoanFee",
          "type": "uint256"
        },
        {
          "internalType": "bytes",
          "name": "data",
          "type": "bytes"
        }
      ],
      "name": "onFlashLoan",
      "outputs": [
        {
          "internalType": "bytes32",
          "name": "",
          "type": "bytes32"
        }
      ],
      "stateMutability": "nonpayable",
      "type": "function"
    },
    {
      "inputs": [],
      "name": "pause",
      "outputs": [],
      "stateMutability": "nonpayable",
      "type": "function"
    },
    {
      "inputs": [],
      "name": "paused",
      "outputs": [
        {
          "internalType": "bool",
          "name": "",
          "type": "bool"
        }
      ],
      "stateMutability": "view",
      "type": "function"
    },
    {
      "inputs": [
        {
          "internalType": "bytes32",
          "name": "role",
          "type": "bytes32"
        },
        {
          "internalType": "address",
          "name": "callerConfirmation",
          "type": "address"
        }
      ],
      "name": "renounceRole",
      "outputs": [],
      "stateMutability": "nonpayable",
      "type": "function"
    },
    {
      "inputs": [
        {
          "internalType": "address",
          "name": "receiver",
          "type": "address"
        },
        {
          "internalType": "uint256",
          "name": "amount",
          "type": "uint256"
        }
      ],
      "name": "rescueNative",
      "outputs": [],
      "stateMutability": "nonpayable",
      "type": "function"
    },
    {
      "inputs": [
        {
          "internalType": "address",
          "name": "token",
          "type": "address"
        },
        {
          "internalType": "address",
          "name": "receiver",
          "type": "address"
        },
        {
          "internalType": "uint256",
          "name": "amount",
          "type": "uint256"
        }
      ],
      "name": "rescueToken",
      "outputs": [],
      "stateMutability": "nonpayable",
      "type": "function"
    },
    {
      "inputs": [
        {
          "internalType": "bytes32",
          "name": "role",
          "type": "bytes32"
        },
        {
          "internalType": "address",
          "name": "account",
          "type": "address"
        }
      ],
      "name": "revokeRole",
      "outputs": [],
      "stateMutability": "nonpayable",
      "type": "function"
    },
    {
      "inputs": [
        {
          "internalType": "bytes4",
          "name": "interfaceId",
          "type": "bytes4"
        }
      ],
      "name": "supportsInterface",
      "outputs": [
        {
          "internalType": "bool",
          "name": "",
          "type": "bool"
        }
      ],
      "stateMutability": "view",
      "type": "function"
    },
    {
      "inputs": [
        {
          "internalType": "uint256",
          "name": "expectedOutputAmount",
          "type": "uint256"
        }
      ],
      "name": "swappedOutputDifferenceToleranceAmount",
      "outputs": [
        {
          "internalType": "uint256",
          "name": "",
          "type": "uint256"
        }
      ],
      "stateMutability": "pure",
      "type": "function"
    },
    {
      "inputs": [],
      "name": "unpause",
      "outputs": [],
      "stateMutability": "nonpayable",
      "type": "function"
    }
  ],
  "transactionHash": "0xa8d9247a60bc1cdb8f1951b88fb71afc0e7032708dd6c323ea9d0e59e4a2a590",
  "args": [
    "0x53a6aBb52B2F968fA80dF6A894e4f1b1020DA975",
    "0xaC041Df48dF9791B0654f1Dbbf2CC8450C5f2e9D"
  ],
  "numDeployments": 1,
  "solcInputHash": "fd2bf7088fac64ce41e6c1daa3ca1cf0",
  "bytecode": "0x60c034620001b3576200288d90601f38839003908101601f19168201906001600160401b03821183831017620001b85780839160409586948552833981010312620001b35780516001600160a01b03918282168203620001b357602001519182168203620001b3576001908180556080526000805160206200284d83398151915290600090828252816020528085832001928084549455807fbd79b86ffe0ab8e8776151514217cd7cacd52c909f66475c3af44e129f0b00ff9481868680a46000805160206200286d8339815191528084528287852001908282549255858580a4620000eb33620001ce565b50620000f7336200025f565b506000805160206200282d8339815191529283835282602052838287852001818154915581838680a46000805160206200280d833981519152918284528684200192848454945580a46200014b33620002eb565b50620001573362000377565b5060a052516123e9908162000404823960805181818161032f0152818161072f015281816107c6015281816108160152818161084c015281816108bf01528181610bcb0152611019015260a051818181610de501526112ef0152f35b600080fd5b634e487b7160e01b600052604160045260246000fd5b6001600160a01b031660008181527f9f9e11c3ce0ebbce9a6c4b18e4e8934770504a6e246eaa53358b1243e9871b1b60205260408120549091906000805160206200284d8339815191529060ff166200025a57808352826020526040832082845260205260408320600160ff19825416179055600080516020620027ed833981519152339380a4600190565b505090565b6001600160a01b031660008181527ff7c9542c591017a21c74b6f3fab6263c7952fc0aaf9db4c22a2a04ddc7f8674f60205260408120549091906000805160206200286d8339815191529060ff166200025a57808352826020526040832082845260205260408320600160ff19825416179055600080516020620027ed833981519152339380a4600190565b6001600160a01b031660008181527f486d1f80445358c0ebf0389403e8d16010b75d17de21bc93f6de9aed8909dbd260205260408120549091906000805160206200282d8339815191529060ff166200025a57808352826020526040832082845260205260408320600160ff19825416179055600080516020620027ed833981519152339380a4600190565b6001600160a01b031660008181527f35be12757faf39521ceabc5bcd76ad643125bff13e41131da81a236ed69872a860205260408120549091906000805160206200280d8339815191529060ff166200025a57808352826020526040832082845260205260408320600160ff19825416179055600080516020620027ed833981519152339380a460019056fe608080604052600436101561001357600080fd5b600090813560e01c90816301ffc9a714611922575080631291f79d1461185c57806323e30c8b14610fc9578063248a9ca314610f9d5780632ae1810414610f625780632f2ff15d14610f2557806336568abe14610edd5780633f4ba83a14610e725780635c975abb14610e4f5780637137254414610e145780638321928d14610dcf5780638456cb5914610d7457806387438b6a146104af5780638b7a6dba146103e157806391d14854146103965780639d00f1081461037a578063a217fddf1461035e578063a771445814610319578063aee5ae6a146102fa578063cabe9fd9146102bf578063cc6636361461026c578063d547741f1461022b578063dde51e1714610205578063e5711e8b146101b7578063e63ab1e91461017c5763e78a4fe01461013f57600080fd5b3461017957806003193601126101795760206040517f8879d5d645eb76dcb2fbe49d1d300cf073cc071082c27a267e488d83d176b4038152f35b80fd5b503461017957806003193601126101795760206040517f65d7a28e3265b37a6474929f336521b332c1681b933f6cb9f3376673440d862a8152f35b5034610179576060366003190112610179576101fe6101d4611977565b6101dc61198d565b6101e46119fb565b6101ec61201b565b604435916001600160a01b03166120b6565b6001805580f35b503461017957602036600319011261017957602090610222611977565b50604051908152f35b50346101795760403660031901126101795761026860043561024b61198d565b90808452836020526102636001604086200154611ad1565b611b75565b5080f35b50346101795761028761027e366119d1565b90829392612261565b8181106102a25760209161029a91611c83565b604051908152f35b604491604051916346652e4760e11b835260048301526024820152fd5b503461017957806003193601126101795760206040517f6e3aaeed2986e1faf3948bf7432f5c2ebcf5848384724380cff0b38c1bf05ded8152f35b503461017957602036600319011261017957602061029a600435612396565b50346101795780600319360112610179576040517f00000000000000000000000000000000000000000000000000000000000000006001600160a01b03168152602090f35b5034610179578060031936011261017957602090604051908152f35b5034610179578060031936011261017957602060405160018152f35b50346101795760403660031901126101795760406103b261198d565b91600435815280602052209060018060a01b0316600052602052602060ff604060002054166040519015158152f35b5034610179576103f0366119d1565b909291620f4240841161049657610409826020926120f4565b6040516363737ac960e11b8152600481019190915291829060249082906001600160a01b03165afa91821561048a5791610453575b602061029a8361044d86611c5c565b90611c90565b90506020813d8211610482575b8161046d60209383611c3a565b8101031261047d5751602061043e565b600080fd5b3d9150610460565b604051903d90823e3d90fd5b60405163103b7d4960e11b815260048101859052602490fd5b50346101795760a0366003190112610179576104c961198d565b9060643567ffffffffffffffff8111610ba8576104ea9036906004016119a3565b916084356001600160a01b038116900361047d5761050661201b565b61050e611bea565b604051632c805af560e21b8152906020826004816084356001600160a01b03165afa918215610d67578192610d46575b50604051631f1b131360e31b8152936020856004816084356001600160a01b03165afa948515610b1b578295610d15575b50610578611de3565b91610581611de3565b6001600160a01b0385168085526040516370a0823160e01b815230600482015291939190602090829060249082905afa908115610c70578391610ce3575b506020858101919091526001600160a01b0388168085526040516370a0823160e01b8152306004820152929190839060249082905afa8015610c70578390610caf575b6107039250602085015261064f6040516323b872dd60e01b602082015233602482015230604482015260043560648201526064815261064081611c08565b6001600160a01b038816611fb3565b6106e4610663608435604435600435612261565b976106996040519161067483611c08565b6001600160a01b038d16835260043560208401908152604084019b8c52943691611e2f565b9081606082015260018060a01b0360843516608082015260018060a01b0390511692519851604051998a9460208601526040850152606084015260a0608084015260c0830190611e96565b6001600160a01b036084351660a083015203601f198101875286611c3a565b60405163613255ab60e01b81526001600160a01b038781166004830152909590602090879060249082907f0000000000000000000000000000000000000000000000000000000000000000165afa958615610b1b578296610c7b575b506040516370a0823160e01b8152306004820152956020876024816084356001600160a01b03165afa968715610c70578397610c3c575b50604051633676633960e21b81526001600160a01b038916600482015260248101829052602081806044810103817f00000000000000000000000000000000000000000000000000000000000000006001600160a01b03165afa908115610c31578491610bfd575b5061080c61083f9183611e66565b6001600160a01b037f00000000000000000000000000000000000000000000000000000000000000008116908b16611ebb565b6001600160a01b038881167f000000000000000000000000000000000000000000000000000000000000000090911603610bb457604051632e7ff4ef60e11b81523060048201526001600160a01b038916602482015260448101919091526080606482015290602090829081906108ba906084830190611e96565b0381857f00000000000000000000000000000000000000000000000000000000000000006001600160a01b03165af18015610b1b57610b78575b506040516370a0823160e01b8152306004820152936020856024816084356001600160a01b03165afa948515610b1b578295610b44575b5085851115610b26576040516370a0823160e01b815230600482015290602090829060249082906001600160a01b03165afa908115610b1b578291610ae8575b50604084810191909152516370a0823160e01b815230600482015295602090879060249082906001600160a01b03165afa90811561048a5790610ab4575b6109e0955060408201526109bd8682612346565b919091610a71575b50506109d18582612346565b919091610a2e575b5050611c83565b6044358110610a0f57602091610a039082906084356001600160a01b03166120b6565b60018055604051908152f35b604490604051906330cfb95f60e11b8252600482015281356024820152fd5b516040519182526001600160a01b03868116929116907f21fa991d1ca60543187d2a0de62e5ea0ce1a703a3f0021354ae2f9a75dc0e34d90602090a338806109d9565b516040519182526001600160a01b03878116929116907f858a27e141780954fe5d38ba55127b6c35f8f5904c3a088438a18578d5d71eee90602090a338806109c5565b506020853d602011610ae0575b81610ace60209383611c3a565b8101031261047d576109e094516109a9565b3d9150610ac1565b90506020813d602011610b13575b81610b0360209383611c3a565b8101031261047d5751602461096b565b3d9150610af6565b6040513d84823e3d90fd5b604486866040519163f51cd51560e01b835260048301526024820152fd5b9094506020813d602011610b70575b81610b6060209383611c3a565b8101031261047d5751933861092b565b3d9150610b53565b6020813d602011610bac575b81610b9160209383611c3a565b81010312610ba857518015150361017957386108f4565b5080fd5b3d9150610b84565b60405163aaae67a160e01b81526001600160a01b037f00000000000000000000000000000000000000000000000000000000000000008116600483015289166024820152604490fd5b90506020813d602011610c29575b81610c1860209383611c3a565b8101031261047d575161080c6107fe565b3d9150610c0b565b6040513d86823e3d90fd5b9096506020813d602011610c68575b81610c5860209383611c3a565b8101031261047d57519538610796565b3d9150610c4b565b6040513d85823e3d90fd5b9095506020813d602011610ca7575b81610c9760209383611c3a565b8101031261047d5751943861075f565b3d9150610c8a565b506020823d602011610cdb575b81610cc960209383611c3a565b8101031261047d576107039151610602565b3d9150610cbc565b90506020813d602011610d0d575b81610cfe60209383611c3a565b8101031261047d5751386105bf565b3d9150610cf1565b610d3891955060203d602011610d3f575b610d308183611c3a565b810190611dc4565b933861056f565b503d610d26565b610d6091925060203d602011610d3f57610d308183611c3a565b903861053e565b50604051903d90823e3d90fd5b5034610179578060031936011261017957610d8d611a75565b610d95611bea565b600160ff1960025416176002557f62e78cea01bee320cd4e420270b5ea74000d11b0c9f74754ebdbfc544b05a2586020604051338152a180f35b50346101795780600319360112610179576040517f00000000000000000000000000000000000000000000000000000000000000006001600160a01b03168152602090f35b503461017957806003193601126101795760206040517fcf6f9f892731e14b8859835f2ff35575f447fb501f46243c4eb8bac19e31a0508152f35b5034610179578060031936011261017957602060ff600254166040519015158152f35b5034610179578060031936011261017957610e8b611a75565b60025460ff811615610ecb5760ff19166002557f5db9ee0a495bf2e6ff9c91a7834c1ba4fdd244a5e8aa4e537bd38aeae4b073aa6020604051338152a180f35b604051638dfc202b60e01b8152600490fd5b503461017957604036600319011261017957610ef761198d565b336001600160a01b03821603610f135761026890600435611b75565b60405163334bd91960e11b8152600490fd5b503461017957604036600319011261017957610268600435610f4561198d565b9080845283602052610f5d6001604086200154611ad1565b611af7565b503461017957806003193601126101795760206040517f439148f0bbc682ca079e46d6e2c2f0c1e3b820f1a291b069d8882abf8cf18dd98152f35b503461017957602036600319011261017957600160406020926004358152808452200154604051908152f35b50346101795760a036600319011261017957610fe3611977565b90610fec61198d565b9160843567ffffffffffffffff81116118065761100d9036906004016119a3565b9091611017611bea565b7f00000000000000000000000000000000000000000000000000000000000000006001600160a01b0316338190036118335750306001600160a01b0382160361180a575090611067913691611e2f565b906040519261107584611c08565b818452816020850152816040850152606080850152816080850152825183019260a081850312611806576020810151906001600160a01b038216820361180257604081015190606081015190608081015167ffffffffffffffff81116117fe5760208801603f8284010112156117fe57602081830101519060206110f883611e13565b996111066040519b8c611c3a565b838b52016040838386010101116117fa5760a0929161112e91604060208c0191850101611e73565b0151956001600160a01b03871687036116f25760018060a01b038716608089015260608801526040870152602086015260018060a01b0316845260405192632c805af560e21b845260208460048160018060a01b0385165afa938415610c705783946117d3575b50604051631f1b131360e31b81529190602090839060049082906001600160a01b03165afa918215610c705783926117b2575b506001600160a01b038281169082160361178957506040840151602085015180821061176b5750506112036040850151602086015190611c83565b60608501516040516370a0823160e01b8152306004820152909591906020816024816001600160a01b0388165afa90811561176057859161172a575b506040516370a0823160e01b8152306004820152966020886024816001600160a01b038b165afa9788156116b75786986116f6575b507317466f973F9aED85Ab9e730a8824F24F00Df2Fb53b156116f2576040516304ecaec960e31b81526001600160a01b038681166004830152881660248201526044810184905260001960648201523060848201524260a482015261010060c4820152908690829081906112ed90610104830190611e96565b7f00000000000000000000000000000000000000000000000000000000000000006001600160a01b031660e483015203817317466f973F9aED85Ab9e730a8824F24F00Df2Fb55af480156116b7576116c2575b506040516370a0823160e01b8152306004820152906020826024816001600160a01b0389165afa9182156116b7578692611683575b506040516370a0823160e01b8152306004820152916020836024816001600160a01b038c165afa928315611678578793611644575b508181101561163b576113bc91611c83565b965b6113c783612396565b60010180600111611627576113de9084848461203e565b9182511561160a5750506040810151156115e75750506040516370a0823160e01b8152306004820152936020856024816001600160a01b0387165afa948515610c315784956115b3575b50608082015160408301518593602093909261145192916001600160a01b039182169116611ebb565b6044604060018060a01b036080840151169201516040519485938492636e553f6560e01b845260048401523060248401525af18015610c7057611588575b506040516370a0823160e01b815230600482015290602090829060249082906001600160a01b03165afa91821561048a5791611556575b508181111561153857906114d991611c83565b6064356114e68184611e66565b82106115165760206040517f439148f0bbc682ca079e46d6e2c2f0c1e3b820f1a291b069d8882abf8cf18dd98152f35b60649260405192630901cbd360e21b8452600484015260248301526044820152fd5b6044925060405191633780efc760e21b835260048301526024820152fd5b90506020813d602011611580575b8161157160209383611c3a565b8101031261047d5751386114c6565b3d9150611564565b602090813d83116115ac575b61159e8183611c3a565b8101031261047d573861148f565b503d611594565b9094506020813d6020116115df575b816115cf60209383611c3a565b8101031261047d57519383611428565b3d91506115c2565b90602060449201519060405191638919e25360e01b835260048301526024820152fd5b60449250604051916204bb6760e81b835260048301526024820152fd5b634e487b7160e01b87526011600452602487fd5b505084966113be565b9092506020813d602011611670575b8161166060209383611c3a565b8101031261047d575191386113aa565b3d9150611653565b6040513d89823e3d90fd5b9091506020813d6020116116af575b8161169f60209383611c3a565b8101031261047d57519038611375565b3d9150611692565b6040513d88823e3d90fd5b67ffffffffffffffff81969296116116de576040529338611340565b634e487b7160e01b82526041600452602482fd5b8580fd5b9097506020813d602011611722575b8161171260209383611c3a565b810103126116f257519638611274565b3d9150611705565b90506020813d602011611758575b8161174560209383611c3a565b8101031261175457513861123f565b8480fd5b3d9150611738565b6040513d87823e3d90fd5b6044925060405191635195adaf60e11b835260048301526024820152fd5b60405163c7f1118d60e01b81526001600160a01b03918216600482015291166024820152604490fd5b6117cc91925060203d602011610d3f57610d308183611c3a565b90386111c8565b6004929194506117f1602091823d8411610d3f57610d308183611c3a565b94919250611195565b8780fd5b8680fd5b8380fd5b8280fd5b604051636705ec4760e11b81526001600160a01b03919091166004820152306024820152604490fd5b604051631a01026f60e01b81523360048201526001600160a01b03919091166024820152604490fd5b503461017957604036600319011261017957611876611977565b602435906118826119fb565b61188a61201b565b8147106119035782918291829182916001600160a01b03165af13d156118fb573d906118b582611e13565b916118c36040519384611c3a565b82523d83602084013e5b156118da57506001805580f35b8051156118e957602081519101fd5b60405163d6bda27560e01b8152600490fd5b6060906118cd565b60405163cf47918160e01b815247600482015260248101839052604490fd5b905034610ba8576020366003190112610ba85760043563ffffffff60e01b81168091036118065760209250637965db0b60e01b8114908115611966575b5015158152f35b6301ffc9a760e01b1490503861195f565b600435906001600160a01b038216820361047d57565b602435906001600160a01b038216820361047d57565b9181601f8401121561047d5782359167ffffffffffffffff831161047d576020838186019501011161047d57565b606090600319011261047d5760043590602435906044356001600160a01b038116810361047d5790565b3360009081527f35be12757faf39521ceabc5bcd76ad643125bff13e41131da81a236ed69872a860205260409020547fcf6f9f892731e14b8859835f2ff35575f447fb501f46243c4eb8bac19e31a0509060ff1615611a575750565b6044906040519063e2517d3f60e01b82523360048301526024820152fd5b3360009081527ff7c9542c591017a21c74b6f3fab6263c7952fc0aaf9db4c22a2a04ddc7f8674f60205260409020547f65d7a28e3265b37a6474929f336521b332c1681b933f6cb9f3376673440d862a9060ff1615611a575750565b80600052600060205260406000203360005260205260ff6040600020541615611a575750565b9060009180835282602052604083209160018060a01b03169182845260205260ff60408420541615600014611b7057808352826020526040832082845260205260408320600160ff198254161790557f2f8788117e7eff1d82e926ec794901d17c78024a50270940304540a733656f0d339380a4600190565b505090565b9060009180835282602052604083209160018060a01b03169182845260205260ff604084205416600014611b705780835282602052604083208284526020526040832060ff1981541690557ff6391f5c32d9c69d2a47ea670b442974b53935d1edc7fd64eb21e047a839171b339380a4600190565b60ff60025416611bf657565b60405163d93c066560e01b8152600490fd5b60a0810190811067ffffffffffffffff821117611c2457604052565b634e487b7160e01b600052604160045260246000fd5b90601f8019910116810190811067ffffffffffffffff821117611c2457604052565b90620f4240918203918211611c6d57565b634e487b7160e01b600052601160045260246000fd5b91908203918211611c6d57565b9060001981830981830291828083109203918083039214611d0157620f42409082821115611cee577fde8f6cefed634549b62c77574f722e1ac57e23f24d8fd5cb790fb65668c26139940990828211900360fa1b910360061c170290565b634e487b7160005260116020526024601cfd5b5050620f424091500490565b620f4240916000198383099280830292838086109503948086039514611da05784831115611d87579082910981600003821680920460028082600302188083028203028083028203028083028203028083028203028083028203028092029003029360018380600003040190848311900302920304170290565b82634e487b71600052156003026011186020526024601cfd5b505080925015611dae570490565b634e487b7160e01b600052601260045260246000fd5b9081602091031261047d57516001600160a01b038116810361047d5790565b604051906060820182811067ffffffffffffffff821117611c245760405260006040838281528260208201520152565b67ffffffffffffffff8111611c2457601f01601f191660200190565b929192611e3b82611e13565b91611e496040519384611c3a565b82948184528183011161047d578281602093846000960137010152565b91908201809211611c6d57565b60005b838110611e865750506000910152565b8181015183820152602001611e76565b90602091611eaf81518092818552858086019101611e73565b601f01601f1916010190565b60405163095ea7b360e01b602082018181526001600160a01b038516602484015260448084019690965294825294939092611ef7606485611c3a565b60206000809386519082875af182513d82611f8e575b505015611f1d575b505050509050565b60405160208101969096526001600160a01b0316602486015260448086018290528552608085019067ffffffffffffffff821186831017611f7a5750611f709394611f6b9160405282611fb3565b611fb3565b8038808080611f15565b634e487b7160e01b81526041600452602490fd5b909150611fab57506001600160a01b0383163b15155b3880611f0d565b600114611fa4565b906000602091828151910182855af11561200f576000513d61200657506001600160a01b0381163b155b611fe45750565b604051635274afe760e01b81526001600160a01b039091166004820152602490fd5b60011415611fdd565b6040513d6000823e3d90fd5b60026001541461202c576002600155565b604051633ee5aeb560e01b8152600490fd5b9290612048611de3565b93808211808652612081575b50508251156120755761206b916020840151612096565b1515604082015290565b50506000604082015290565b61208a91611c83565b60208401523880612054565b908082116120ad57906120a891611c83565b111590565b6120a891611c83565b60405163a9059cbb60e01b60208201526001600160a01b039290921660248301526044808301939093529181526120f291611f6b606483611c3a565b565b6040805163415c506960e01b8082529194936001600160a01b0316916020918281600481875afa90811561225657600091612229575b506000901561219b57508190600487518095819382525afa9485156121915750600094612162575b50509161215f9192611c90565b90565b81813d831161218a575b6121768183611c3a565b810103126118025751925061215f38612152565b503d61216c565b513d6000823e3d90fd5b9282915091600492879596975193848092637aa7c3c160e01b82525afa938415612220575082936121db575b5050509063ffffffff61215f921690611c90565b9080929350813d8311612219575b6121f38183611c3a565b81010312610ba857519063ffffffff82168203610179575063ffffffff61215f386121c7565b503d6121e9565b513d84823e3d90fd5b908382813d831161224f575b61223f8183611c3a565b810103126101795750513861212a565b503d612235565b87513d6000823e3d90fd5b906020612273846024949695966120f4565b6040516363737ac960e11b81526004810182905290959093849182906001600160a01b03165afa91821561200f57600092612313575b508082106122f557906122bf6122c49282611c83565b611d0d565b91620f424083116122dc5761044d61215f9293611c5c565b60405163cc1d13b160e01b815260048101849052602490fd5b60449250604051916303a4989b60e21b835260048301526024820152fd5b90916020823d821161233e575b8161232d60209383611c3a565b8101031261017957505190386122a9565b3d9150612320565b60408101516020820151810390811115939290840291848061238d575b612374575050509050600090600090565b516123899183916001600160a01b03166120b6565b9190565b50821515612363565b61271090818102918183041490151715611c6d57620f424090049056fea2646970667358221220b2a53f8ec2efd7d39e3dfc5b491875eef8382a9d1166e4beadfa8169a0c0457a64736f6c634300081400332f8788117e7eff1d82e926ec794901d17c78024a50270940304540a733656f0dcf6f9f892731e14b8859835f2ff35575f447fb501f46243c4eb8bac19e31a0508879d5d645eb76dcb2fbe49d1d300cf073cc071082c27a267e488d83d176b4036e3aaeed2986e1faf3948bf7432f5c2ebcf5848384724380cff0b38c1bf05ded65d7a28e3265b37a6474929f336521b332c1681b933f6cb9f3376673440d862a",
  "deployedBytecode": "0x608080604052600436101561001357600080fd5b600090813560e01c90816301ffc9a714611922575080631291f79d1461185c57806323e30c8b14610fc9578063248a9ca314610f9d5780632ae1810414610f625780632f2ff15d14610f2557806336568abe14610edd5780633f4ba83a14610e725780635c975abb14610e4f5780637137254414610e145780638321928d14610dcf5780638456cb5914610d7457806387438b6a146104af5780638b7a6dba146103e157806391d14854146103965780639d00f1081461037a578063a217fddf1461035e578063a771445814610319578063aee5ae6a146102fa578063cabe9fd9146102bf578063cc6636361461026c578063d547741f1461022b578063dde51e1714610205578063e5711e8b146101b7578063e63ab1e91461017c5763e78a4fe01461013f57600080fd5b3461017957806003193601126101795760206040517f8879d5d645eb76dcb2fbe49d1d300cf073cc071082c27a267e488d83d176b4038152f35b80fd5b503461017957806003193601126101795760206040517f65d7a28e3265b37a6474929f336521b332c1681b933f6cb9f3376673440d862a8152f35b5034610179576060366003190112610179576101fe6101d4611977565b6101dc61198d565b6101e46119fb565b6101ec61201b565b604435916001600160a01b03166120b6565b6001805580f35b503461017957602036600319011261017957602090610222611977565b50604051908152f35b50346101795760403660031901126101795761026860043561024b61198d565b90808452836020526102636001604086200154611ad1565b611b75565b5080f35b50346101795761028761027e366119d1565b90829392612261565b8181106102a25760209161029a91611c83565b604051908152f35b604491604051916346652e4760e11b835260048301526024820152fd5b503461017957806003193601126101795760206040517f6e3aaeed2986e1faf3948bf7432f5c2ebcf5848384724380cff0b38c1bf05ded8152f35b503461017957602036600319011261017957602061029a600435612396565b50346101795780600319360112610179576040517f00000000000000000000000000000000000000000000000000000000000000006001600160a01b03168152602090f35b5034610179578060031936011261017957602090604051908152f35b5034610179578060031936011261017957602060405160018152f35b50346101795760403660031901126101795760406103b261198d565b91600435815280602052209060018060a01b0316600052602052602060ff604060002054166040519015158152f35b5034610179576103f0366119d1565b909291620f4240841161049657610409826020926120f4565b6040516363737ac960e11b8152600481019190915291829060249082906001600160a01b03165afa91821561048a5791610453575b602061029a8361044d86611c5c565b90611c90565b90506020813d8211610482575b8161046d60209383611c3a565b8101031261047d5751602061043e565b600080fd5b3d9150610460565b604051903d90823e3d90fd5b60405163103b7d4960e11b815260048101859052602490fd5b50346101795760a0366003190112610179576104c961198d565b9060643567ffffffffffffffff8111610ba8576104ea9036906004016119a3565b916084356001600160a01b038116900361047d5761050661201b565b61050e611bea565b604051632c805af560e21b8152906020826004816084356001600160a01b03165afa918215610d67578192610d46575b50604051631f1b131360e31b8152936020856004816084356001600160a01b03165afa948515610b1b578295610d15575b50610578611de3565b91610581611de3565b6001600160a01b0385168085526040516370a0823160e01b815230600482015291939190602090829060249082905afa908115610c70578391610ce3575b506020858101919091526001600160a01b0388168085526040516370a0823160e01b8152306004820152929190839060249082905afa8015610c70578390610caf575b6107039250602085015261064f6040516323b872dd60e01b602082015233602482015230604482015260043560648201526064815261064081611c08565b6001600160a01b038816611fb3565b6106e4610663608435604435600435612261565b976106996040519161067483611c08565b6001600160a01b038d16835260043560208401908152604084019b8c52943691611e2f565b9081606082015260018060a01b0360843516608082015260018060a01b0390511692519851604051998a9460208601526040850152606084015260a0608084015260c0830190611e96565b6001600160a01b036084351660a083015203601f198101875286611c3a565b60405163613255ab60e01b81526001600160a01b038781166004830152909590602090879060249082907f0000000000000000000000000000000000000000000000000000000000000000165afa958615610b1b578296610c7b575b506040516370a0823160e01b8152306004820152956020876024816084356001600160a01b03165afa968715610c70578397610c3c575b50604051633676633960e21b81526001600160a01b038916600482015260248101829052602081806044810103817f00000000000000000000000000000000000000000000000000000000000000006001600160a01b03165afa908115610c31578491610bfd575b5061080c61083f9183611e66565b6001600160a01b037f00000000000000000000000000000000000000000000000000000000000000008116908b16611ebb565b6001600160a01b038881167f000000000000000000000000000000000000000000000000000000000000000090911603610bb457604051632e7ff4ef60e11b81523060048201526001600160a01b038916602482015260448101919091526080606482015290602090829081906108ba906084830190611e96565b0381857f00000000000000000000000000000000000000000000000000000000000000006001600160a01b03165af18015610b1b57610b78575b506040516370a0823160e01b8152306004820152936020856024816084356001600160a01b03165afa948515610b1b578295610b44575b5085851115610b26576040516370a0823160e01b815230600482015290602090829060249082906001600160a01b03165afa908115610b1b578291610ae8575b50604084810191909152516370a0823160e01b815230600482015295602090879060249082906001600160a01b03165afa90811561048a5790610ab4575b6109e0955060408201526109bd8682612346565b919091610a71575b50506109d18582612346565b919091610a2e575b5050611c83565b6044358110610a0f57602091610a039082906084356001600160a01b03166120b6565b60018055604051908152f35b604490604051906330cfb95f60e11b8252600482015281356024820152fd5b516040519182526001600160a01b03868116929116907f21fa991d1ca60543187d2a0de62e5ea0ce1a703a3f0021354ae2f9a75dc0e34d90602090a338806109d9565b516040519182526001600160a01b03878116929116907f858a27e141780954fe5d38ba55127b6c35f8f5904c3a088438a18578d5d71eee90602090a338806109c5565b506020853d602011610ae0575b81610ace60209383611c3a565b8101031261047d576109e094516109a9565b3d9150610ac1565b90506020813d602011610b13575b81610b0360209383611c3a565b8101031261047d5751602461096b565b3d9150610af6565b6040513d84823e3d90fd5b604486866040519163f51cd51560e01b835260048301526024820152fd5b9094506020813d602011610b70575b81610b6060209383611c3a565b8101031261047d5751933861092b565b3d9150610b53565b6020813d602011610bac575b81610b9160209383611c3a565b81010312610ba857518015150361017957386108f4565b5080fd5b3d9150610b84565b60405163aaae67a160e01b81526001600160a01b037f00000000000000000000000000000000000000000000000000000000000000008116600483015289166024820152604490fd5b90506020813d602011610c29575b81610c1860209383611c3a565b8101031261047d575161080c6107fe565b3d9150610c0b565b6040513d86823e3d90fd5b9096506020813d602011610c68575b81610c5860209383611c3a565b8101031261047d57519538610796565b3d9150610c4b565b6040513d85823e3d90fd5b9095506020813d602011610ca7575b81610c9760209383611c3a565b8101031261047d5751943861075f565b3d9150610c8a565b506020823d602011610cdb575b81610cc960209383611c3a565b8101031261047d576107039151610602565b3d9150610cbc565b90506020813d602011610d0d575b81610cfe60209383611c3a565b8101031261047d5751386105bf565b3d9150610cf1565b610d3891955060203d602011610d3f575b610d308183611c3a565b810190611dc4565b933861056f565b503d610d26565b610d6091925060203d602011610d3f57610d308183611c3a565b903861053e565b50604051903d90823e3d90fd5b5034610179578060031936011261017957610d8d611a75565b610d95611bea565b600160ff1960025416176002557f62e78cea01bee320cd4e420270b5ea74000d11b0c9f74754ebdbfc544b05a2586020604051338152a180f35b50346101795780600319360112610179576040517f00000000000000000000000000000000000000000000000000000000000000006001600160a01b03168152602090f35b503461017957806003193601126101795760206040517fcf6f9f892731e14b8859835f2ff35575f447fb501f46243c4eb8bac19e31a0508152f35b5034610179578060031936011261017957602060ff600254166040519015158152f35b5034610179578060031936011261017957610e8b611a75565b60025460ff811615610ecb5760ff19166002557f5db9ee0a495bf2e6ff9c91a7834c1ba4fdd244a5e8aa4e537bd38aeae4b073aa6020604051338152a180f35b604051638dfc202b60e01b8152600490fd5b503461017957604036600319011261017957610ef761198d565b336001600160a01b03821603610f135761026890600435611b75565b60405163334bd91960e11b8152600490fd5b503461017957604036600319011261017957610268600435610f4561198d565b9080845283602052610f5d6001604086200154611ad1565b611af7565b503461017957806003193601126101795760206040517f439148f0bbc682ca079e46d6e2c2f0c1e3b820f1a291b069d8882abf8cf18dd98152f35b503461017957602036600319011261017957600160406020926004358152808452200154604051908152f35b50346101795760a036600319011261017957610fe3611977565b90610fec61198d565b9160843567ffffffffffffffff81116118065761100d9036906004016119a3565b9091611017611bea565b7f00000000000000000000000000000000000000000000000000000000000000006001600160a01b0316338190036118335750306001600160a01b0382160361180a575090611067913691611e2f565b906040519261107584611c08565b818452816020850152816040850152606080850152816080850152825183019260a081850312611806576020810151906001600160a01b038216820361180257604081015190606081015190608081015167ffffffffffffffff81116117fe5760208801603f8284010112156117fe57602081830101519060206110f883611e13565b996111066040519b8c611c3a565b838b52016040838386010101116117fa5760a0929161112e91604060208c0191850101611e73565b0151956001600160a01b03871687036116f25760018060a01b038716608089015260608801526040870152602086015260018060a01b0316845260405192632c805af560e21b845260208460048160018060a01b0385165afa938415610c705783946117d3575b50604051631f1b131360e31b81529190602090839060049082906001600160a01b03165afa918215610c705783926117b2575b506001600160a01b038281169082160361178957506040840151602085015180821061176b5750506112036040850151602086015190611c83565b60608501516040516370a0823160e01b8152306004820152909591906020816024816001600160a01b0388165afa90811561176057859161172a575b506040516370a0823160e01b8152306004820152966020886024816001600160a01b038b165afa9788156116b75786986116f6575b5073__$73ace4aa8e5f9c1a2b48f796123ca85165$__3b156116f2576040516304ecaec960e31b81526001600160a01b038681166004830152881660248201526044810184905260001960648201523060848201524260a482015261010060c4820152908690829081906112ed90610104830190611e96565b7f00000000000000000000000000000000000000000000000000000000000000006001600160a01b031660e4830152038173__$73ace4aa8e5f9c1a2b48f796123ca85165$__5af480156116b7576116c2575b506040516370a0823160e01b8152306004820152906020826024816001600160a01b0389165afa9182156116b7578692611683575b506040516370a0823160e01b8152306004820152916020836024816001600160a01b038c165afa928315611678578793611644575b508181101561163b576113bc91611c83565b965b6113c783612396565b60010180600111611627576113de9084848461203e565b9182511561160a5750506040810151156115e75750506040516370a0823160e01b8152306004820152936020856024816001600160a01b0387165afa948515610c315784956115b3575b50608082015160408301518593602093909261145192916001600160a01b039182169116611ebb565b6044604060018060a01b036080840151169201516040519485938492636e553f6560e01b845260048401523060248401525af18015610c7057611588575b506040516370a0823160e01b815230600482015290602090829060249082906001600160a01b03165afa91821561048a5791611556575b508181111561153857906114d991611c83565b6064356114e68184611e66565b82106115165760206040517f439148f0bbc682ca079e46d6e2c2f0c1e3b820f1a291b069d8882abf8cf18dd98152f35b60649260405192630901cbd360e21b8452600484015260248301526044820152fd5b6044925060405191633780efc760e21b835260048301526024820152fd5b90506020813d602011611580575b8161157160209383611c3a565b8101031261047d5751386114c6565b3d9150611564565b602090813d83116115ac575b61159e8183611c3a565b8101031261047d573861148f565b503d611594565b9094506020813d6020116115df575b816115cf60209383611c3a565b8101031261047d57519383611428565b3d91506115c2565b90602060449201519060405191638919e25360e01b835260048301526024820152fd5b60449250604051916204bb6760e81b835260048301526024820152fd5b634e487b7160e01b87526011600452602487fd5b505084966113be565b9092506020813d602011611670575b8161166060209383611c3a565b8101031261047d575191386113aa565b3d9150611653565b6040513d89823e3d90fd5b9091506020813d6020116116af575b8161169f60209383611c3a565b8101031261047d57519038611375565b3d9150611692565b6040513d88823e3d90fd5b67ffffffffffffffff81969296116116de576040529338611340565b634e487b7160e01b82526041600452602482fd5b8580fd5b9097506020813d602011611722575b8161171260209383611c3a565b810103126116f257519638611274565b3d9150611705565b90506020813d602011611758575b8161174560209383611c3a565b8101031261175457513861123f565b8480fd5b3d9150611738565b6040513d87823e3d90fd5b6044925060405191635195adaf60e11b835260048301526024820152fd5b60405163c7f1118d60e01b81526001600160a01b03918216600482015291166024820152604490fd5b6117cc91925060203d602011610d3f57610d308183611c3a565b90386111c8565b6004929194506117f1602091823d8411610d3f57610d308183611c3a565b94919250611195565b8780fd5b8680fd5b8380fd5b8280fd5b604051636705ec4760e11b81526001600160a01b03919091166004820152306024820152604490fd5b604051631a01026f60e01b81523360048201526001600160a01b03919091166024820152604490fd5b503461017957604036600319011261017957611876611977565b602435906118826119fb565b61188a61201b565b8147106119035782918291829182916001600160a01b03165af13d156118fb573d906118b582611e13565b916118c36040519384611c3a565b82523d83602084013e5b156118da57506001805580f35b8051156118e957602081519101fd5b60405163d6bda27560e01b8152600490fd5b6060906118cd565b60405163cf47918160e01b815247600482015260248101839052604490fd5b905034610ba8576020366003190112610ba85760043563ffffffff60e01b81168091036118065760209250637965db0b60e01b8114908115611966575b5015158152f35b6301ffc9a760e01b1490503861195f565b600435906001600160a01b038216820361047d57565b602435906001600160a01b038216820361047d57565b9181601f8401121561047d5782359167ffffffffffffffff831161047d576020838186019501011161047d57565b606090600319011261047d5760043590602435906044356001600160a01b038116810361047d5790565b3360009081527f35be12757faf39521ceabc5bcd76ad643125bff13e41131da81a236ed69872a860205260409020547fcf6f9f892731e14b8859835f2ff35575f447fb501f46243c4eb8bac19e31a0509060ff1615611a575750565b6044906040519063e2517d3f60e01b82523360048301526024820152fd5b3360009081527ff7c9542c591017a21c74b6f3fab6263c7952fc0aaf9db4c22a2a04ddc7f8674f60205260409020547f65d7a28e3265b37a6474929f336521b332c1681b933f6cb9f3376673440d862a9060ff1615611a575750565b80600052600060205260406000203360005260205260ff6040600020541615611a575750565b9060009180835282602052604083209160018060a01b03169182845260205260ff60408420541615600014611b7057808352826020526040832082845260205260408320600160ff198254161790557f2f8788117e7eff1d82e926ec794901d17c78024a50270940304540a733656f0d339380a4600190565b505090565b9060009180835282602052604083209160018060a01b03169182845260205260ff604084205416600014611b705780835282602052604083208284526020526040832060ff1981541690557ff6391f5c32d9c69d2a47ea670b442974b53935d1edc7fd64eb21e047a839171b339380a4600190565b60ff60025416611bf657565b60405163d93c066560e01b8152600490fd5b60a0810190811067ffffffffffffffff821117611c2457604052565b634e487b7160e01b600052604160045260246000fd5b90601f8019910116810190811067ffffffffffffffff821117611c2457604052565b90620f4240918203918211611c6d57565b634e487b7160e01b600052601160045260246000fd5b91908203918211611c6d57565b9060001981830981830291828083109203918083039214611d0157620f42409082821115611cee577fde8f6cefed634549b62c77574f722e1ac57e23f24d8fd5cb790fb65668c26139940990828211900360fa1b910360061c170290565b634e487b7160005260116020526024601cfd5b5050620f424091500490565b620f4240916000198383099280830292838086109503948086039514611da05784831115611d87579082910981600003821680920460028082600302188083028203028083028203028083028203028083028203028083028203028092029003029360018380600003040190848311900302920304170290565b82634e487b71600052156003026011186020526024601cfd5b505080925015611dae570490565b634e487b7160e01b600052601260045260246000fd5b9081602091031261047d57516001600160a01b038116810361047d5790565b604051906060820182811067ffffffffffffffff821117611c245760405260006040838281528260208201520152565b67ffffffffffffffff8111611c2457601f01601f191660200190565b929192611e3b82611e13565b91611e496040519384611c3a565b82948184528183011161047d578281602093846000960137010152565b91908201809211611c6d57565b60005b838110611e865750506000910152565b8181015183820152602001611e76565b90602091611eaf81518092818552858086019101611e73565b601f01601f1916010190565b60405163095ea7b360e01b602082018181526001600160a01b038516602484015260448084019690965294825294939092611ef7606485611c3a565b60206000809386519082875af182513d82611f8e575b505015611f1d575b505050509050565b60405160208101969096526001600160a01b0316602486015260448086018290528552608085019067ffffffffffffffff821186831017611f7a5750611f709394611f6b9160405282611fb3565b611fb3565b8038808080611f15565b634e487b7160e01b81526041600452602490fd5b909150611fab57506001600160a01b0383163b15155b3880611f0d565b600114611fa4565b906000602091828151910182855af11561200f576000513d61200657506001600160a01b0381163b155b611fe45750565b604051635274afe760e01b81526001600160a01b039091166004820152602490fd5b60011415611fdd565b6040513d6000823e3d90fd5b60026001541461202c576002600155565b604051633ee5aeb560e01b8152600490fd5b9290612048611de3565b93808211808652612081575b50508251156120755761206b916020840151612096565b1515604082015290565b50506000604082015290565b61208a91611c83565b60208401523880612054565b908082116120ad57906120a891611c83565b111590565b6120a891611c83565b60405163a9059cbb60e01b60208201526001600160a01b039290921660248301526044808301939093529181526120f291611f6b606483611c3a565b565b6040805163415c506960e01b8082529194936001600160a01b0316916020918281600481875afa90811561225657600091612229575b506000901561219b57508190600487518095819382525afa9485156121915750600094612162575b50509161215f9192611c90565b90565b81813d831161218a575b6121768183611c3a565b810103126118025751925061215f38612152565b503d61216c565b513d6000823e3d90fd5b9282915091600492879596975193848092637aa7c3c160e01b82525afa938415612220575082936121db575b5050509063ffffffff61215f921690611c90565b9080929350813d8311612219575b6121f38183611c3a565b81010312610ba857519063ffffffff82168203610179575063ffffffff61215f386121c7565b503d6121e9565b513d84823e3d90fd5b908382813d831161224f575b61223f8183611c3a565b810103126101795750513861212a565b503d612235565b87513d6000823e3d90fd5b906020612273846024949695966120f4565b6040516363737ac960e11b81526004810182905290959093849182906001600160a01b03165afa91821561200f57600092612313575b508082106122f557906122bf6122c49282611c83565b611d0d565b91620f424083116122dc5761044d61215f9293611c5c565b60405163cc1d13b160e01b815260048101849052602490fd5b60449250604051916303a4989b60e21b835260048301526024820152fd5b90916020823d821161233e575b8161232d60209383611c3a565b8101031261017957505190386122a9565b3d9150612320565b60408101516020820151810390811115939290840291848061238d575b612374575050509050600090600090565b516123899183916001600160a01b03166120b6565b9190565b50821515612363565b61271090818102918183041490151715611c6d57620f424090049056fea2646970667358221220b2a53f8ec2efd7d39e3dfc5b491875eef8382a9d1166e4beadfa8169a0c0457a64736f6c63430008140033",
  "libraries": {
    "OdosSwapLogic": "0x17466f973F9aED85Ab9e730a8824F24F00Df2Fb5"
  }
}