{
  "address": "0x10627008F09eedB256c1504fb60Cc447DC1eC066",
  "abi": [
    {
      "inputs": [
        {
          "internalType": "contract IERC3156FlashLender",
          "name": "_flashLender",
          "type": "address"
        },
        {
          "internalType": "contract IOdosRouterV2",
          "name": "_odosRouter",
          "type": "address"
        }
      ],
      "stateMutability": "nonpayable",
      "type": "constructor"
    },
    {
      "inputs": [],
      "name": "AccessControlBadConfirmation",
      "type": "error"
    },
    {
      "inputs": [
        {
          "internalType": "address",
          "name": "account",
          "type": "address"
        },
        {
          "internalType": "bytes32",
          "name": "neededRole",
          "type": "bytes32"
        }
      ],
      "name": "AccessControlUnauthorizedAccount",
      "type": "error"
    },
    {
      "inputs": [
        {
          "internalType": "address",
          "name": "token",
          "type": "address"
        }
      ],
      "name": "CannotRescueRestrictedToken",
      "type": "error"
    },
    {
      "inputs": [],
      "name": "EnforcedPause",
      "type": "error"
    },
    {
      "inputs": [
        {
          "internalType": "uint256",
          "name": "currentCollateralTokenAmount",
          "type": "uint256"
        },
        {
          "internalType": "uint256",
          "name": "minOutputCollateralAmount",
          "type": "uint256"
        }
      ],
      "name": "EstimatedCollateralTokenAmountLessThanMinOutputCollateralAmount",
      "type": "error"
    },
    {
      "inputs": [],
      "name": "ExpectedPause",
      "type": "error"
    },
    {
      "inputs": [],
      "name": "FailedCall",
      "type": "error"
    },
    {
      "inputs": [
        {
          "internalType": "address",
          "name": "flashLender",
          "type": "address"
        },
        {
          "internalType": "address",
          "name": "debtToken",
          "type": "address"
        }
      ],
      "name": "FlashLenderNotSameAsDebtToken",
      "type": "error"
    },
    {
      "inputs": [
        {
          "internalType": "address",
          "name": "currentDebtToken",
          "type": "address"
        },
        {
          "internalType": "address",
          "name": "dLoopCoreDebtToken",
          "type": "address"
        }
      ],
      "name": "IncompatibleDLoopCoreDebtToken",
      "type": "error"
    },
    {
      "inputs": [
        {
          "internalType": "uint256",
          "name": "expected",
          "type": "uint256"
        },
        {
          "internalType": "uint256",
          "name": "actual",
          "type": "uint256"
        }
      ],
      "name": "IncorrectSharesBurned",
      "type": "error"
    },
    {
      "inputs": [
        {
          "internalType": "uint256",
          "name": "balance",
          "type": "uint256"
        },
        {
          "internalType": "uint256",
          "name": "needed",
          "type": "uint256"
        }
      ],
      "name": "InsufficientBalance",
      "type": "error"
    },
    {
      "inputs": [
        {
          "internalType": "uint256",
          "name": "received",
          "type": "uint256"
        },
        {
          "internalType": "uint256",
          "name": "expected",
          "type": "uint256"
        }
      ],
      "name": "InsufficientOutput",
      "type": "error"
    },
    {
      "inputs": [
        {
          "internalType": "uint256",
          "name": "outputTokenBalanceBefore",
          "type": "uint256"
        },
        {
          "internalType": "uint256",
          "name": "outputTokenBalanceAfter",
          "type": "uint256"
        }
      ],
      "name": "OutputTokenBalanceNotIncreasedAfterSwap",
      "type": "error"
    },
    {
      "inputs": [
        {
          "internalType": "uint256",
          "name": "receivedOutputTokenAmount",
          "type": "uint256"
        },
        {
          "internalType": "uint256",
          "name": "amountOut",
          "type": "uint256"
        }
      ],
      "name": "ReceivedOutputTokenAmountNotEqualAmountOut",
      "type": "error"
    },
    {
      "inputs": [],
      "name": "ReentrancyGuardReentrantCall",
      "type": "error"
    },
    {
      "inputs": [
        {
          "internalType": "address",
          "name": "token",
          "type": "address"
        }
      ],
      "name": "SafeERC20FailedOperation",
      "type": "error"
    },
    {
      "inputs": [
        {
          "internalType": "uint256",
          "name": "sharesBeforeWithdraw",
          "type": "uint256"
        },
        {
          "internalType": "uint256",
          "name": "sharesAfterWithdraw",
          "type": "uint256"
        }
      ],
      "name": "SharesNotDecreasedAfterFlashLoan",
      "type": "error"
    },
    {
      "inputs": [
        {
          "internalType": "uint256",
          "name": "slippageBps",
          "type": "uint256"
        }
      ],
      "name": "SlippageBpsCannotExceedOneHundredPercent",
      "type": "error"
    },
    {
      "inputs": [
        {
          "internalType": "uint256",
          "name": "spentInputTokenAmount",
          "type": "uint256"
        },
        {
          "internalType": "uint256",
          "name": "amountInMaximum",
          "type": "uint256"
        }
      ],
      "name": "SpentInputTokenAmountGreaterThanAmountInMaximum",
      "type": "error"
    },
    {
      "inputs": [
        {
          "internalType": "uint256",
          "name": "collateralTokenBalanceBefore",
          "type": "uint256"
        },
        {
          "internalType": "uint256",
          "name": "collateralTokenBalanceAfter",
          "type": "uint256"
        }
      ],
      "name": "UnexpectedDecreaseInCollateralToken",
      "type": "error"
    },
    {
      "inputs": [
        {
          "internalType": "uint256",
          "name": "collateralTokenBalanceBefore",
          "type": "uint256"
        },
        {
          "internalType": "uint256",
          "name": "collateralTokenBalanceAfter",
          "type": "uint256"
        }
      ],
      "name": "UnexpectedDecreaseInCollateralTokenAfterFlashLoan",
      "type": "error"
    },
    {
      "inputs": [
        {
          "internalType": "uint256",
          "name": "debtTokenBalanceBefore",
          "type": "uint256"
        },
        {
          "internalType": "uint256",
          "name": "debtTokenBalanceAfter",
          "type": "uint256"
        }
      ],
      "name": "UnexpectedIncreaseInDebtToken",
      "type": "error"
    },
    {
      "inputs": [
        {
          "internalType": "address",
          "name": "initiator",
          "type": "address"
        },
        {
          "internalType": "address",
          "name": "thisContract",
          "type": "address"
        }
      ],
      "name": "UnknownInitiator",
      "type": "error"
    },
    {
      "inputs": [
        {
          "internalType": "address",
          "name": "msgSender",
          "type": "address"
        },
        {
          "internalType": "address",
          "name": "flashLender",
          "type": "address"
        }
      ],
      "name": "UnknownLender",
      "type": "error"
    },
    {
      "inputs": [
        {
          "internalType": "uint256",
          "name": "withdrawnCollateralTokenAmount",
          "type": "uint256"
        },
        {
          "internalType": "uint256",
          "name": "minReceiveCollateralTokenAmount",
          "type": "uint256"
        }
      ],
      "name": "WithdrawnCollateralTokenAmountNotMetMinReceiveAmount",
      "type": "error"
    },
    {
      "anonymous": false,
      "inputs": [
        {
          "indexed": true,
          "internalType": "address",
          "name": "collateralToken",
          "type": "address"
        },
        {
          "indexed": false,
          "internalType": "uint256",
          "name": "amount",
          "type": "uint256"
        },
        {
          "indexed": true,
          "internalType": "address",
          "name": "receiver",
          "type": "address"
        }
      ],
      "name": "LeftoverCollateralTokensTransferred",
      "type": "event"
    },
    {
      "anonymous": false,
      "inputs": [
        {
          "indexed": true,
          "internalType": "address",
          "name": "debtToken",
          "type": "address"
        },
        {
          "indexed": false,
          "internalType": "uint256",
          "name": "amount",
          "type": "uint256"
        },
        {
          "indexed": true,
          "internalType": "address",
          "name": "receiver",
          "type": "address"
        }
      ],
      "name": "LeftoverDebtTokensTransferred",
      "type": "event"
    },
    {
      "anonymous": false,
      "inputs": [
        {
          "indexed": false,
          "internalType": "address",
          "name": "account",
          "type": "address"
        }
      ],
      "name": "Paused",
      "type": "event"
    },
    {
      "anonymous": false,
      "inputs": [
        {
          "indexed": true,
          "internalType": "bytes32",
          "name": "role",
          "type": "bytes32"
        },
        {
          "indexed": true,
          "internalType": "bytes32",
          "name": "previousAdminRole",
          "type": "bytes32"
        },
        {
          "indexed": true,
          "internalType": "bytes32",
          "name": "newAdminRole",
          "type": "bytes32"
        }
      ],
      "name": "RoleAdminChanged",
      "type": "event"
    },
    {
      "anonymous": false,
      "inputs": [
        {
          "indexed": true,
          "internalType": "bytes32",
          "name": "role",
          "type": "bytes32"
        },
        {
          "indexed": true,
          "internalType": "address",
          "name": "account",
          "type": "address"
        },
        {
          "indexed": true,
          "internalType": "address",
          "name": "sender",
          "type": "address"
        }
      ],
      "name": "RoleGranted",
      "type": "event"
    },
    {
      "anonymous": false,
      "inputs": [
        {
          "indexed": true,
          "internalType": "bytes32",
          "name": "role",
          "type": "bytes32"
        },
        {
          "indexed": true,
          "internalType": "address",
          "name": "account",
          "type": "address"
        },
        {
          "indexed": true,
          "internalType": "address",
          "name": "sender",
          "type": "address"
        }
      ],
      "name": "RoleRevoked",
      "type": "event"
    },
    {
      "anonymous": false,
      "inputs": [
        {
          "indexed": false,
          "internalType": "address",
          "name": "account",
          "type": "address"
        }
      ],
      "name": "Unpaused",
      "type": "event"
    },
    {
      "inputs": [],
      "name": "BALANCE_DIFF_TOLERANCE",
      "outputs": [
        {
          "internalType": "uint256",
          "name": "",
          "type": "uint256"
        }
      ],
      "stateMutability": "view",
      "type": "function"
    },
    {
      "inputs": [],
      "name": "DEFAULT_ADMIN_ROLE",
      "outputs": [
        {
          "internalType": "bytes32",
          "name": "",
          "type": "bytes32"
        }
      ],
      "stateMutability": "view",
      "type": "function"
    },
    {
      "inputs": [],
      "name": "DLOOP_ADMIN_ROLE",
      "outputs": [
        {
          "internalType": "bytes32",
          "name": "",
          "type": "bytes32"
        }
      ],
      "stateMutability": "view",
      "type": "function"
    },
    {
      "inputs": [],
      "name": "FLASHLOAN_CALLBACK",
      "outputs": [
        {
          "internalType": "bytes32",
          "name": "",
          "type": "bytes32"
        }
      ],
      "stateMutability": "view",
      "type": "function"
    },
    {
      "inputs": [],
      "name": "PAUSER_ROLE",
      "outputs": [
        {
          "internalType": "bytes32",
          "name": "",
          "type": "bytes32"
        }
      ],
      "stateMutability": "view",
      "type": "function"
    },
    {
      "inputs": [],
      "name": "RESCUER_ADMIN_ROLE",
      "outputs": [
        {
          "internalType": "bytes32",
          "name": "",
          "type": "bytes32"
        }
      ],
      "stateMutability": "view",
      "type": "function"
    },
    {
      "inputs": [],
      "name": "RESCUER_ROLE",
      "outputs": [
        {
          "internalType": "bytes32",
          "name": "",
          "type": "bytes32"
        }
      ],
      "stateMutability": "view",
      "type": "function"
    },
    {
      "inputs": [
        {
          "internalType": "uint256",
          "name": "shares",
          "type": "uint256"
        },
        {
          "internalType": "uint256",
          "name": "slippageBps",
          "type": "uint256"
        },
        {
          "internalType": "contract DLoopCoreBase",
          "name": "dLoopCore",
          "type": "address"
        }
      ],
      "name": "calculateMinOutputCollateral",
      "outputs": [
        {
          "internalType": "uint256",
          "name": "",
          "type": "uint256"
        }
      ],
      "stateMutability": "view",
      "type": "function"
    },
    {
      "inputs": [
        {
          "internalType": "uint256",
          "name": "shares",
          "type": "uint256"
        },
        {
          "internalType": "contract DLoopCoreBase",
          "name": "dLoopCore",
          "type": "address"
        }
      ],
      "name": "estimateFlashLoanSwapOutputDebtAmount",
      "outputs": [
        {
          "internalType": "uint256",
          "name": "",
          "type": "uint256"
        }
      ],
      "stateMutability": "view",
      "type": "function"
    },
    {
      "inputs": [],
      "name": "flashLender",
      "outputs": [
        {
          "internalType": "contract IERC3156FlashLender",
          "name": "",
          "type": "address"
        }
      ],
      "stateMutability": "view",
      "type": "function"
    },
    {
      "inputs": [
        {
          "internalType": "bytes32",
          "name": "role",
          "type": "bytes32"
        }
      ],
      "name": "getRoleAdmin",
      "outputs": [
        {
          "internalType": "bytes32",
          "name": "",
          "type": "bytes32"
        }
      ],
      "stateMutability": "view",
      "type": "function"
    },
    {
      "inputs": [
        {
          "internalType": "uint256",
          "name": "leveragedAssets",
          "type": "uint256"
        },
        {
          "internalType": "contract DLoopCoreBase",
          "name": "dLoopCore",
          "type": "address"
        }
      ],
      "name": "getUnleveragedAssets",
      "outputs": [
        {
          "internalType": "uint256",
          "name": "",
          "type": "uint256"
        }
      ],
      "stateMutability": "view",
      "type": "function"
    },
    {
      "inputs": [
        {
          "internalType": "bytes32",
          "name": "role",
          "type": "bytes32"
        },
        {
          "internalType": "address",
          "name": "account",
          "type": "address"
        }
      ],
      "name": "grantRole",
      "outputs": [],
      "stateMutability": "nonpayable",
      "type": "function"
    },
    {
      "inputs": [
        {
          "internalType": "bytes32",
          "name": "role",
          "type": "bytes32"
        },
        {
          "internalType": "address",
          "name": "account",
          "type": "address"
        }
      ],
      "name": "hasRole",
      "outputs": [
        {
          "internalType": "bool",
          "name": "",
          "type": "bool"
        }
      ],
      "stateMutability": "view",
      "type": "function"
    },
    {
      "inputs": [
        {
          "internalType": "address",
          "name": "",
          "type": "address"
        }
      ],
      "name": "isRescuableToken",
      "outputs": [
        {
          "internalType": "bool",
          "name": "",
          "type": "bool"
        }
      ],
      "stateMutability": "view",
      "type": "function"
    },
    {
      "inputs": [],
      "name": "odosRouter",
      "outputs": [
        {
          "internalType": "contract IOdosRouterV2",
          "name": "",
          "type": "address"
        }
      ],
      "stateMutability": "view",
      "type": "function"
    },
    {
      "inputs": [
        {
          "internalType": "address",
          "name": "initiator",
          "type": "address"
        },
        {
          "internalType": "address",
          "name": "token",
          "type": "address"
        },
        {
          "internalType": "uint256",
          "name": "",
          "type": "uint256"
        },
        {
          "internalType": "uint256",
          "name": "flashLoanFee",
          "type": "uint256"
        },
        {
          "internalType": "bytes",
          "name": "data",
          "type": "bytes"
        }
      ],
      "name": "onFlashLoan",
      "outputs": [
        {
          "internalType": "bytes32",
          "name": "",
          "type": "bytes32"
        }
      ],
      "stateMutability": "nonpayable",
      "type": "function"
    },
    {
      "inputs": [],
      "name": "pause",
      "outputs": [],
      "stateMutability": "nonpayable",
      "type": "function"
    },
    {
      "inputs": [],
      "name": "paused",
      "outputs": [
        {
          "internalType": "bool",
          "name": "",
          "type": "bool"
        }
      ],
      "stateMutability": "view",
      "type": "function"
    },
    {
      "inputs": [
        {
          "internalType": "uint256",
          "name": "shares",
          "type": "uint256"
        },
        {
          "internalType": "address",
          "name": "receiver",
          "type": "address"
        },
        {
          "internalType": "uint256",
          "name": "minOutputCollateralAmount",
          "type": "uint256"
        },
        {
          "internalType": "bytes",
          "name": "collateralToDebtTokenSwapData",
          "type": "bytes"
        },
        {
          "internalType": "contract DLoopCoreBase",
          "name": "dLoopCore",
          "type": "address"
        }
      ],
      "name": "redeem",
      "outputs": [
        {
          "internalType": "uint256",
          "name": "assets",
          "type": "uint256"
        }
      ],
      "stateMutability": "nonpayable",
      "type": "function"
    },
    {
      "inputs": [
        {
          "internalType": "bytes32",
          "name": "role",
          "type": "bytes32"
        },
        {
          "internalType": "address",
          "name": "callerConfirmation",
          "type": "address"
        }
      ],
      "name": "renounceRole",
      "outputs": [],
      "stateMutability": "nonpayable",
      "type": "function"
    },
    {
      "inputs": [
        {
          "internalType": "address",
          "name": "receiver",
          "type": "address"
        },
        {
          "internalType": "uint256",
          "name": "amount",
          "type": "uint256"
        }
      ],
      "name": "rescueNative",
      "outputs": [],
      "stateMutability": "nonpayable",
      "type": "function"
    },
    {
      "inputs": [
        {
          "internalType": "address",
          "name": "token",
          "type": "address"
        },
        {
          "internalType": "address",
          "name": "receiver",
          "type": "address"
        },
        {
          "internalType": "uint256",
          "name": "amount",
          "type": "uint256"
        }
      ],
      "name": "rescueToken",
      "outputs": [],
      "stateMutability": "nonpayable",
      "type": "function"
    },
    {
      "inputs": [
        {
          "internalType": "bytes32",
          "name": "role",
          "type": "bytes32"
        },
        {
          "internalType": "address",
          "name": "account",
          "type": "address"
        }
      ],
      "name": "revokeRole",
      "outputs": [],
      "stateMutability": "nonpayable",
      "type": "function"
    },
    {
      "inputs": [
        {
          "internalType": "bytes4",
          "name": "interfaceId",
          "type": "bytes4"
        }
      ],
      "name": "supportsInterface",
      "outputs": [
        {
          "internalType": "bool",
          "name": "",
          "type": "bool"
        }
      ],
      "stateMutability": "view",
      "type": "function"
    },
    {
      "inputs": [
        {
          "internalType": "uint256",
          "name": "expectedOutputAmount",
          "type": "uint256"
        }
      ],
      "name": "swappedOutputDifferenceToleranceAmount",
      "outputs": [
        {
          "internalType": "uint256",
          "name": "",
          "type": "uint256"
        }
      ],
      "stateMutability": "pure",
      "type": "function"
    },
    {
      "inputs": [],
      "name": "unpause",
      "outputs": [],
      "stateMutability": "nonpayable",
      "type": "function"
    }
  ],
  "transactionHash": "0x1e5abf67c8b866ea6e2767d8d3a6114eda822049caf983be295b5e173c994350",
  "args": [
    "0x53a6aBb52B2F968fA80dF6A894e4f1b1020DA975",
    "0xaC041Df48dF9791B0654f1Dbbf2CC8450C5f2e9D"
  ],
  "numDeployments": 1,
  "solcInputHash": "6a1d8e4dd26747aa7af55f6de39736e8",
  "bytecode": "0x60c034620001ba5762002c0390601f38839003908101601f19168201906001600160401b03821183831017620001bf5780839160409586948552833981010312620001ba5780516001600160a01b03918282168203620001ba57602001519182168203620001ba5760019081805560805260008051602062002bc383398151915290600090828252816020528085832001928084549455807fbd79b86ffe0ab8e8776151514217cd7cacd52c909f66475c3af44e129f0b00ff9481868680a460008051602062002be38339815191528084528287852001908282549255858580a4620000eb33620001d5565b50620000f73362000266565b5060008051602062002ba38339815191529283835282602052838287852001818154915581838680a460008051602062002b83833981519152918284528684200192848454945580a46200014b33620002f2565b5062000157336200037e565b5060a0525161275890816200040b82396080518181816106f801528181610af901528181610b8e01528181610bed01528181610c5f01528181610cd20152818161102e015281816110720152611413015260a05181818161081b01526118000152f35b600080fd5b634e487b7160e01b600052604160045260246000fd5b6001600160a01b031660008181527f9f9e11c3ce0ebbce9a6c4b18e4e8934770504a6e246eaa53358b1243e9871b1b602052604081205490919060008051602062002bc38339815191529060ff166200026157808352826020526040832082845260205260408320600160ff1982541617905560008051602062002b63833981519152339380a4600190565b505090565b6001600160a01b031660008181527ff7c9542c591017a21c74b6f3fab6263c7952fc0aaf9db4c22a2a04ddc7f8674f602052604081205490919060008051602062002be38339815191529060ff166200026157808352826020526040832082845260205260408320600160ff1982541617905560008051602062002b63833981519152339380a4600190565b6001600160a01b031660008181527f486d1f80445358c0ebf0389403e8d16010b75d17de21bc93f6de9aed8909dbd2602052604081205490919060008051602062002ba38339815191529060ff166200026157808352826020526040832082845260205260408320600160ff1982541617905560008051602062002b63833981519152339380a4600190565b6001600160a01b031660008181527f35be12757faf39521ceabc5bcd76ad643125bff13e41131da81a236ed69872a8602052604081205490919060008051602062002b838339815191529060ff166200026157808352826020526040832082845260205260408320600160ff1982541617905560008051602062002b63833981519152339380a460019056fe608080604052600436101561001357600080fd5b600090813560e01c90816301ffc9a714611dcb575080630a4fdcde14611da45780631291f79d14611cde57806323e30c8b146113c3578063248a9ca3146113975780632ae181041461135c5780632f2ff15d1461131f57806336568abe146112d75780633f4ba83a1461126c57806357ae0a72146108a85780635c975abb14610885578063713725441461084a5780638321928d146108055780638456cb59146107aa57806391d148541461075f5780639d00f10814610743578063a217fddf14610727578063a7714458146106e2578063a94067e1146103d3578063aee5ae6a146103b4578063cabe9fd914610379578063d547741f14610338578063dde51e1714610312578063e5711e8b146102c4578063e63ab1e914610289578063e78a4fe01461024e5763e7a414861461014a57600080fd5b3461024b57606036600319011261024b576044356001600160a01b03811691602435919083820361021957620f42409384841161023257906020602493926040519485809263266d6a8360e11b825260043560048301525afa90811561022657906101ee575b6101ba92506124d1565b9082039182116101d8576020916101d09161210e565b604051908152f35b634e487b7160e01b600052601160045260246000fd5b506020823d821161021e575b81610207602093836120bf565b81010312610219576101ba91516101b0565b600080fd5b3d91506101fa565b604051903d90823e3d90fd5b60405163103b7d4960e11b815260048101859052602490fd5b80fd5b503461024b578060031936011261024b5760206040517f8879d5d645eb76dcb2fbe49d1d300cf073cc071082c27a267e488d83d176b4038152f35b503461024b578060031936011261024b5760206040517f65d7a28e3265b37a6474929f336521b332c1681b933f6cb9f3376673440d862a8152f35b503461024b57606036600319011261024b5761030b6102e1611e36565b6102e9611e20565b6102f1611e7a565b6102f96123f3565b604435916001600160a01b031661248e565b6001805580f35b503461024b57602036600319011261024b5760209061032f611e36565b50604051908152f35b503461024b57604036600319011261024b57610375600435610358611e20565b90808452836020526103706001604086200154611f50565b611ff4565b5080f35b503461024b578060031936011261024b5760206040517f6e3aaeed2986e1faf3948bf7432f5c2ebcf5848384724380cff0b38c1bf05ded8152f35b503461024b57602036600319011261024b5760206101d0600435612705565b503461024b57604036600319011261024b576001600160a01b03806103f6611e20565b16916040519263266d6a8360e11b845260043560048501526020938481602481855afa9081156106d75783916106aa575b5060405163415c506960e01b8152908582600481865afa91821561069f578492610670575b50604051632c805af560e21b8152918683600481875afa928315610665578593610646575b50604051631f1b131360e31b8152928784600481885afa93841561063b57908791879561060c575b5016936040519463313ce56760e01b978887528987600481855afa9687156105a85788976105ed575b50604051956363880e0960e11b9283885260048801528a87602481875afa9687156105e25789976105b3575b5016906040519889528989600481855afa9889156105a857908a9291899a610576575b506024906040519485938492835260048301525afa9586156102265795610544575b5060ff806101d097169416916126a4565b9594508686813d831161056f575b61055c81836120bf565b81010312610219579451939460ff610533565b503d610552565b6024919a5061059a90843d86116105a1575b61059281836120bf565b81019061268b565b9990610511565b503d610588565b6040513d8a823e3d90fd5b9096508a81813d83116105db575b6105cb81836120bf565b81010312610219575195386104ee565b503d6105c1565b6040513d8b823e3d90fd5b6106059197508a3d8c116105a15761059281836120bf565b95386104c2565b61062d919550893d8b11610634575b61062581836120bf565b8101906122a5565b9338610499565b503d61061b565b6040513d88823e3d90fd5b61065e919350873d89116106345761062581836120bf565b9138610471565b6040513d87823e3d90fd5b9091508581813d8311610698575b61068881836120bf565b810103126102195751903861044c565b503d61067e565b6040513d86823e3d90fd5b90508481813d83116106d0575b6106c181836120bf565b81010312610219575138610427565b503d6106b7565b6040513d85823e3d90fd5b503461024b578060031936011261024b576040517f00000000000000000000000000000000000000000000000000000000000000006001600160a01b03168152602090f35b503461024b578060031936011261024b57602090604051908152f35b503461024b578060031936011261024b57602060405160018152f35b503461024b57604036600319011261024b57604061077b611e20565b91600435815280602052209060018060a01b0316600052602052602060ff604060002054166040519015158152f35b503461024b578060031936011261024b576107c3611ef4565b6107cb612069565b600160ff1960025416176002557f62e78cea01bee320cd4e420270b5ea74000d11b0c9f74754ebdbfc544b05a2586020604051338152a180f35b503461024b578060031936011261024b576040517f00000000000000000000000000000000000000000000000000000000000000006001600160a01b03168152602090f35b503461024b578060031936011261024b5760206040517fcf6f9f892731e14b8859835f2ff35575f447fb501f46243c4eb8bac19e31a0508152f35b503461024b578060031936011261024b57602060ff600254166040519015158152f35b503461024b5760a036600319011261024b576108c2611e20565b9060643567ffffffffffffffff8111611268576108e3903690600401611e4c565b608435939192906001600160a01b0385168503610219576109026123f3565b61090a612069565b604051632c805af560e21b81526020816004816001600160a01b038a165afa9081156106d7578391611249575b50604051631f1b131360e31b8152916020836004816001600160a01b038b165afa92831561069f578493611228575b5061096f6122c4565b966109786122c4565b6001600160a01b038416808a526040516370a0823160e01b815230600482015291989190602090829060249082905afa90811561116f5787916111f6575b5060208a8101919091526001600160a01b038616808a526040516370a0823160e01b81523060048201529190829060249082905afa90811561116f5787916111c4575b5060208901526040516323b872dd60e01b60208201523360248201523060448201526004356064820152606481528060a081011067ffffffffffffffff60a0830111176111ae5760a08101604052610acd91610a7b91610a62906001600160a01b03861661238b565b60405194610a6f86612087565b600435865236916122ff565b9283602082015260018060a01b038316604082015251610ab06040519485926020840152606060408401526080830190612366565b6001600160a01b038416606083015203601f1981018452836120bf565b60405163613255ab60e01b81526001600160a01b038581166004830152909290602090849060249082907f0000000000000000000000000000000000000000000000000000000000000000165afa92831561063b57869361117a575b506040516370a0823160e01b8152306004820152926020846024816001600160a01b0387165afa93841561116f57879461113b575b50604051633676633960e21b81526001600160a01b038716600482015260248101829052602081806044810103817f00000000000000000000000000000000000000000000000000000000000000006001600160a01b03165afa80156105a8578890611107575b610bd0915082612336565b60405163095ea7b360e01b60208083019182526001600160a01b037f0000000000000000000000000000000000000000000000000000000000000000166024840152604480840194909452928252909190600090610c2f6064856120bf565b835190826001600160a01b038c165af16000513d826110e2575b505015611060575b506001600160a01b038681167f00000000000000000000000000000000000000000000000000000000000000009091160361101757604051632e7ff4ef60e11b81523060048201526001600160a01b03871660248201526044810191909152608060648201529060209082908190610ccd906084830190612366565b0381897f00000000000000000000000000000000000000000000000000000000000000006001600160a01b03165af1801561063b57610fd7575b506040516370a0823160e01b81523060048201529190602090839060249082906001600160a01b03165afa918215610665578592610fa3575b5080821015610f865790610d53916120e1565b6004358103610f6657506040516370a0823160e01b8152306004820152929190602090849060249082906001600160a01b03165afa928315610f5b578293610f26575b506040868101938452516370a0823160e01b815230600482015290602090829060249082906001600160a01b03165afa9182156102265791610ef4575b5060408401528051602085015190818110610ed6575050516020840151610df9916120e1565b91604435808410610eb85750610e63602094610e1f858560018060a01b0384511661248e565b516040518581526001600160a01b03858116959286929116907f21fa991d1ca60543187d2a0de62e5ea0ce1a703a3f0021354ae2f9a75dc0e34d908990a38261263b565b919091610e7a575b50505060018055604051908152f35b516040519182526001600160a01b0316907f858a27e141780954fe5d38ba55127b6c35f8f5904c3a088438a18578d5d71eee908590a3388080610e6b565b83604491604051916347247e7760e11b835260048301526024820152fd5b6044925060405191637506a25d60e11b835260048301526024820152fd5b90506020813d602011610f1e575b81610f0f602093836120bf565b81010312610219575138610dd3565b3d9150610f02565b9092506020813d602011610f53575b81610f42602093836120bf565b810103126102195751916020610d96565b3d9150610f35565b6040513d84823e3d90fd5b604490604051906302d753ed60e61b825260043560048301526024820152fd5b60449160405191632b9e770560e11b835260048301526024820152fd5b9091506020813d602011610fcf575b81610fbf602093836120bf565b8101031261021957519038610d40565b3d9150610fb2565b6020813d60201161100f575b81610ff0602093836120bf565b8101031261100b5751801515036110075738610d07565b8480fd5b8580fd5b3d9150610fe3565b60405163aaae67a160e01b81526001600160a01b037f00000000000000000000000000000000000000000000000000000000000000008116600483015287166024820152604490fd5b60405163095ea7b360e01b60208201527f00000000000000000000000000000000000000000000000000000000000000006001600160a01b03166024820152600060448083019190915281526110dc91906110cd906110be816120a3565b6001600160a01b038a1661238b565b6001600160a01b03881661238b565b38610c51565b9091506110ff57506001600160a01b0387163b15155b3880610c49565b6001146110f8565b506020813d602011611133575b81611121602093836120bf565b8101031261021957610bd09051610bc5565b3d9150611114565b9093506020813d602011611167575b81611157602093836120bf565b8101031261021957519238610b5e565b3d915061114a565b6040513d89823e3d90fd5b9092506020813d6020116111a6575b81611196602093836120bf565b8101031261021957519138610b29565b3d9150611189565b634e487b7160e01b600052604160045260246000fd5b90506020813d6020116111ee575b816111df602093836120bf565b810103126102195751386109f9565b3d91506111d2565b90506020813d602011611220575b81611211602093836120bf565b810103126102195751386109b6565b3d9150611204565b61124291935060203d6020116106345761062581836120bf565b9138610966565b611262915060203d6020116106345761062581836120bf565b38610937565b5080fd5b503461024b578060031936011261024b57611285611ef4565b60025460ff8116156112c55760ff19166002557f5db9ee0a495bf2e6ff9c91a7834c1ba4fdd244a5e8aa4e537bd38aeae4b073aa6020604051338152a180f35b604051638dfc202b60e01b8152600490fd5b503461024b57604036600319011261024b576112f1611e20565b336001600160a01b0382160361130d5761037590600435611ff4565b60405163334bd91960e11b8152600490fd5b503461024b57604036600319011261024b5761037560043561133f611e20565b90808452836020526113576001604086200154611f50565b611f76565b503461024b578060031936011261024b5760206040517f439148f0bbc682ca079e46d6e2c2f0c1e3b820f1a291b069d8882abf8cf18dd98152f35b503461024b57602036600319011261024b57600160406020926004358152808452200154604051908152f35b503461024b5760a036600319011261024b576113dd611e36565b906113e6611e20565b9160843567ffffffffffffffff8111611a7a57611407903690600401611e4c565b9091611411612069565b7f00000000000000000000000000000000000000000000000000000000000000006001600160a01b031633819003611cb55750306001600160a01b03821603611c8c5750906114619136916122ff565b6040519161146e83612087565b8083526060602084015260408301918183528051810160608260208301920312611a7a57602082015191604081015167ffffffffffffffff811161100757810182603f82011215611007576020810151906114c8826122e3565b936114d660405195866120bf565b8285526040838301011161100b57606092916114f9916040602087019101612343565b0151936001600160a01b0385168503611a42576001600160a01b03851690819052602086810192909252918552604051632c805af560e21b81529391849060049082905afa928315610f5b578293611c6b575b50604051631f1b131360e31b8152946020866004816001600160a01b0386165afa9586156106d7578396611c4a575b506001600160a01b0386811690821603611c2057506040516370a0823160e01b8152306004820152906020826024816001600160a01b038a165afa9182156106d7578392611bec575b5060405163095ea7b360e01b60208201526001600160a01b038216602482015260001960448083019190915281526115fb816120a3565b80516020908590838301826001600160a01b038c165af184513d82611bc7575b505015611b86575b508451604051635d043b2960e11b8152600481019190915230602482018190526044820152602081606481876001600160a01b0387165af1801561069f57611b5b575b5060405163095ea7b360e01b60208083019182526001600160a01b03841660248401526044808401879052835290859061169f846120a3565b835190826001600160a01b038c165af184513d82611b36575b505015611ad6575b50506040516370a0823160e01b81523060048201526020816024816001600160a01b038a165afa9081156106d7578391611aa4575b50818111611a865760209161171061171592606435926120e1565b612336565b9301516040516370a0823160e01b815230600482015290946020826024816001600160a01b0388165afa9182156106d7578392611a4e575b506040516370a0823160e01b8152306004820152936020856024816001600160a01b0386165afa94851561069f578495611a16575b507317466f973F9aED85Ab9e730a8824F24F00Df2Fb5803b15611007576040516304ecaec960e31b81526001600160a01b038381166004830152841660248201526044810188905260001960648201523060848201524260a482015261010060c48201529785918991829081906117fe90610104830190612366565b7f00000000000000000000000000000000000000000000000000000000000000006001600160a01b031660e483015203915af496871561069f576024976119e6575b506040516370a0823160e01b81523060048201529660209188919082906001600160a01b03165afa9586156106d75783966119b1575b506040516370a0823160e01b81523060048201529590602090879060249082906001600160a01b03165afa9586156106d757839661197d575b5081811015611976576118c1916120e1565b505b6118cc83612705565b600101908160011161196257506118e590838584612416565b928351156119455750506040820151156119235760206040517f439148f0bbc682ca079e46d6e2c2f0c1e3b820f1a291b069d8882abf8cf18dd98152f35b602060449201519060405191638919e25360e01b835260048301526024820152fd5b60449250604051916204bb6760e81b835260048301526024820152fd5b634e487b7160e01b81526011600452602490fd5b50506118c3565b9095506020813d6020116119a9575b81611999602093836120bf565b81010312610219575194386118af565b3d915061198c565b95506020863d6020116119de575b816119cc602093836120bf565b81010312610219579451946020611876565b3d91506119bf565b67ffffffffffffffff8195929511611a0357604052926020611840565b634e487b7160e01b825260416004528782fd5b9094506020813d602011611a46575b81611a32602093836120bf565b81010312611a4257519338611782565b8380fd5b3d9150611a25565b9091506020813d602011611a7e575b81611a6a602093836120bf565b81010312611a7a5751903861174d565b8280fd5b3d9150611a5d565b604492506040519163a40ed01360e01b835260048301526024820152fd5b90506020813d602011611ace575b81611abf602093836120bf565b81010312611a7a5751386116f5565b3d9150611ab2565b60405163095ea7b360e01b60208201526001600160a01b03909216602483015260448083018590528252611b2f91611b2090611b11816120a3565b6001600160a01b03891661238b565b6001600160a01b03871661238b565b38806116c0565b909150611b5357506001600160a01b0387163b15155b38806116b8565b600114611b4c565b602090813d8311611b7f575b611b7181836120bf565b81010312611a7a5738611666565b503d611b67565b60405163095ea7b360e01b60208201526001600160a01b038316602482015260448082018690528152611bc191906110cd906110be816120a3565b38611623565b909150611be457506001600160a01b0387163b15155b388061161b565b600114611bdd565b9091506020813d602011611c18575b81611c08602093836120bf565b81010312611a7a575190386115c4565b3d9150611bfb565b60405163c7f1118d60e01b81526001600160a01b0391821660048201529086166024820152604490fd5b611c6491965060203d6020116106345761062581836120bf565b943861157b565b611c8591935060203d6020116106345761062581836120bf565b913861154c565b604051636705ec4760e11b81526001600160a01b03919091166004820152306024820152604490fd5b604051631a01026f60e01b81523360048201526001600160a01b03919091166024820152604490fd5b503461024b57604036600319011261024b57611cf8611e36565b60243590611d04611e7a565b611d0c6123f3565b814710611d855782918291829182916001600160a01b03165af13d15611d7d573d90611d37826122e3565b91611d4560405193846120bf565b82523d83602084013e5b15611d5c57506001805580f35b805115611d6b57602081519101fd5b60405163d6bda27560e01b8152600490fd5b606090611d4f565b60405163cf47918160e01b815247600482015260248101839052604490fd5b503461024b57604036600319011261024b5760206101d0611dc3611e20565b6004356124d1565b9050346112685760203660031901126112685760043563ffffffff60e01b8116809103611a7a5760209250637965db0b60e01b8114908115611e0f575b5015158152f35b6301ffc9a760e01b14905038611e08565b602435906001600160a01b038216820361021957565b600435906001600160a01b038216820361021957565b9181601f840112156102195782359167ffffffffffffffff8311610219576020838186019501011161021957565b3360009081527f35be12757faf39521ceabc5bcd76ad643125bff13e41131da81a236ed69872a860205260409020547fcf6f9f892731e14b8859835f2ff35575f447fb501f46243c4eb8bac19e31a0509060ff1615611ed65750565b6044906040519063e2517d3f60e01b82523360048301526024820152fd5b3360009081527ff7c9542c591017a21c74b6f3fab6263c7952fc0aaf9db4c22a2a04ddc7f8674f60205260409020547f65d7a28e3265b37a6474929f336521b332c1681b933f6cb9f3376673440d862a9060ff1615611ed65750565b80600052600060205260406000203360005260205260ff6040600020541615611ed65750565b9060009180835282602052604083209160018060a01b03169182845260205260ff60408420541615600014611fef57808352826020526040832082845260205260408320600160ff198254161790557f2f8788117e7eff1d82e926ec794901d17c78024a50270940304540a733656f0d339380a4600190565b505090565b9060009180835282602052604083209160018060a01b03169182845260205260ff604084205416600014611fef5780835282602052604083208284526020526040832060ff1981541690557ff6391f5c32d9c69d2a47ea670b442974b53935d1edc7fd64eb21e047a839171b339380a4600190565b60ff6002541661207557565b60405163d93c066560e01b8152600490fd5b6060810190811067ffffffffffffffff8211176111ae57604052565b6080810190811067ffffffffffffffff8211176111ae57604052565b90601f8019910116810190811067ffffffffffffffff8211176111ae57604052565b919082039182116101d857565b81156120f8570490565b634e487b7160e01b600052601260045260246000fd5b906000198183098183029182808310920391808303921461217f57620f4240908282111561216c577fde8f6cefed634549b62c77574f722e1ac57e23f24d8fd5cb790fb65668c26139940990828211900360fa1b910360061c170290565b634e487b7160005260116020526024601cfd5b5050620f424091500490565b620f424091600019838309928083029283808610950394808603951461221e5784831115612205579082910981600003821680920460028082600302188083028203028083028203028083028203028083028203028083028203028092029003029360018380600003040190848311900302920304170290565b82634e487b71600052156003026011186020526024601cfd5b50509061222b92506120ee565b90565b9091600019838309928083029283808610950394808603951461221e5784831115612205579082910981600003821680920460028082600302188083028203028083028203028083028203028083028203028083028203028092029003029360018380600003040190848311900302920304170290565b9081602091031261021957516001600160a01b03811681036102195790565b604051906122d182612087565b60006040838281528260208201520152565b67ffffffffffffffff81116111ae57601f01601f191660200190565b92919261230b826122e3565b9161231960405193846120bf565b829481845281830111610219578281602093846000960137010152565b919082018092116101d857565b60005b8381106123565750506000910152565b8181015183820152602001612346565b9060209161237f81518092818552858086019101612343565b601f01601f1916010190565b906000602091828151910182855af1156123e7576000513d6123de57506001600160a01b0381163b155b6123bc5750565b604051635274afe760e01b81526001600160a01b039091166004820152602490fd5b600114156123b5565b6040513d6000823e3d90fd5b600260015414612404576002600155565b604051633ee5aeb560e01b8152600490fd5b92906124206122c4565b93808211808652612459575b505082511561244d5761244391602084015161246e565b1515604082015290565b50506000604082015290565b612462916120e1565b6020840152388061242c565b908082116124855790612480916120e1565b111590565b612480916120e1565b60405163a9059cbb60e01b60208201526001600160a01b039290921660248301526044808301939093529181526124cf916124ca6064836120bf565b61238b565b565b6040805163415c506960e01b8082529194936001600160a01b0316916020918281600481875afa90811561263057600091612603575b506000901561257557508190600487518095819382525afa94851561256b575060009461253c575b50509161222b919261218b565b81813d8311612564575b61255081836120bf565b81010312611a425751925061222b3861252f565b503d612546565b513d6000823e3d90fd5b9282915091600492879596975193848092637aa7c3c160e01b82525afa9384156125fa575082936125b5575b5050509063ffffffff61222b92169061218b565b9080929350813d83116125f3575b6125cd81836120bf565b8101031261126857519063ffffffff8216820361024b575063ffffffff61222b386125a1565b503d6125c3565b513d84823e3d90fd5b908382813d8311612629575b61261981836120bf565b8101031261024b57505138612507565b503d61260f565b87513d6000823e3d90fd5b604081015160208201518103908111159392908402918480612682575b612669575050509050600090600090565b5161267e9183916001600160a01b031661248e565b9190565b50821515612658565b90816020910312610219575160ff811681036102195790565b9094939285156126ec576126ba6126c0936126f7565b9161222e565b620f423f198401908482116101d85761222b946126e6926126e09261222e565b916126f7565b9061222e565b505050505050600090565b604d81116101d857600a0a90565b612710908181029181830414901517156101d857620f424090049056fea2646970667358221220882e75b23d7290e4d6a9a35599987837dbbd4bf711a0d3f62061a5f720ad99a464736f6c634300081400332f8788117e7eff1d82e926ec794901d17c78024a50270940304540a733656f0dcf6f9f892731e14b8859835f2ff35575f447fb501f46243c4eb8bac19e31a0508879d5d645eb76dcb2fbe49d1d300cf073cc071082c27a267e488d83d176b4036e3aaeed2986e1faf3948bf7432f5c2ebcf5848384724380cff0b38c1bf05ded65d7a28e3265b37a6474929f336521b332c1681b933f6cb9f3376673440d862a",
  "deployedBytecode": "0x608080604052600436101561001357600080fd5b600090813560e01c90816301ffc9a714611dcb575080630a4fdcde14611da45780631291f79d14611cde57806323e30c8b146113c3578063248a9ca3146113975780632ae181041461135c5780632f2ff15d1461131f57806336568abe146112d75780633f4ba83a1461126c57806357ae0a72146108a85780635c975abb14610885578063713725441461084a5780638321928d146108055780638456cb59146107aa57806391d148541461075f5780639d00f10814610743578063a217fddf14610727578063a7714458146106e2578063a94067e1146103d3578063aee5ae6a146103b4578063cabe9fd914610379578063d547741f14610338578063dde51e1714610312578063e5711e8b146102c4578063e63ab1e914610289578063e78a4fe01461024e5763e7a414861461014a57600080fd5b3461024b57606036600319011261024b576044356001600160a01b03811691602435919083820361021957620f42409384841161023257906020602493926040519485809263266d6a8360e11b825260043560048301525afa90811561022657906101ee575b6101ba92506124d1565b9082039182116101d8576020916101d09161210e565b604051908152f35b634e487b7160e01b600052601160045260246000fd5b506020823d821161021e575b81610207602093836120bf565b81010312610219576101ba91516101b0565b600080fd5b3d91506101fa565b604051903d90823e3d90fd5b60405163103b7d4960e11b815260048101859052602490fd5b80fd5b503461024b578060031936011261024b5760206040517f8879d5d645eb76dcb2fbe49d1d300cf073cc071082c27a267e488d83d176b4038152f35b503461024b578060031936011261024b5760206040517f65d7a28e3265b37a6474929f336521b332c1681b933f6cb9f3376673440d862a8152f35b503461024b57606036600319011261024b5761030b6102e1611e36565b6102e9611e20565b6102f1611e7a565b6102f96123f3565b604435916001600160a01b031661248e565b6001805580f35b503461024b57602036600319011261024b5760209061032f611e36565b50604051908152f35b503461024b57604036600319011261024b57610375600435610358611e20565b90808452836020526103706001604086200154611f50565b611ff4565b5080f35b503461024b578060031936011261024b5760206040517f6e3aaeed2986e1faf3948bf7432f5c2ebcf5848384724380cff0b38c1bf05ded8152f35b503461024b57602036600319011261024b5760206101d0600435612705565b503461024b57604036600319011261024b576001600160a01b03806103f6611e20565b16916040519263266d6a8360e11b845260043560048501526020938481602481855afa9081156106d75783916106aa575b5060405163415c506960e01b8152908582600481865afa91821561069f578492610670575b50604051632c805af560e21b8152918683600481875afa928315610665578593610646575b50604051631f1b131360e31b8152928784600481885afa93841561063b57908791879561060c575b5016936040519463313ce56760e01b978887528987600481855afa9687156105a85788976105ed575b50604051956363880e0960e11b9283885260048801528a87602481875afa9687156105e25789976105b3575b5016906040519889528989600481855afa9889156105a857908a9291899a610576575b506024906040519485938492835260048301525afa9586156102265795610544575b5060ff806101d097169416916126a4565b9594508686813d831161056f575b61055c81836120bf565b81010312610219579451939460ff610533565b503d610552565b6024919a5061059a90843d86116105a1575b61059281836120bf565b81019061268b565b9990610511565b503d610588565b6040513d8a823e3d90fd5b9096508a81813d83116105db575b6105cb81836120bf565b81010312610219575195386104ee565b503d6105c1565b6040513d8b823e3d90fd5b6106059197508a3d8c116105a15761059281836120bf565b95386104c2565b61062d919550893d8b11610634575b61062581836120bf565b8101906122a5565b9338610499565b503d61061b565b6040513d88823e3d90fd5b61065e919350873d89116106345761062581836120bf565b9138610471565b6040513d87823e3d90fd5b9091508581813d8311610698575b61068881836120bf565b810103126102195751903861044c565b503d61067e565b6040513d86823e3d90fd5b90508481813d83116106d0575b6106c181836120bf565b81010312610219575138610427565b503d6106b7565b6040513d85823e3d90fd5b503461024b578060031936011261024b576040517f00000000000000000000000000000000000000000000000000000000000000006001600160a01b03168152602090f35b503461024b578060031936011261024b57602090604051908152f35b503461024b578060031936011261024b57602060405160018152f35b503461024b57604036600319011261024b57604061077b611e20565b91600435815280602052209060018060a01b0316600052602052602060ff604060002054166040519015158152f35b503461024b578060031936011261024b576107c3611ef4565b6107cb612069565b600160ff1960025416176002557f62e78cea01bee320cd4e420270b5ea74000d11b0c9f74754ebdbfc544b05a2586020604051338152a180f35b503461024b578060031936011261024b576040517f00000000000000000000000000000000000000000000000000000000000000006001600160a01b03168152602090f35b503461024b578060031936011261024b5760206040517fcf6f9f892731e14b8859835f2ff35575f447fb501f46243c4eb8bac19e31a0508152f35b503461024b578060031936011261024b57602060ff600254166040519015158152f35b503461024b5760a036600319011261024b576108c2611e20565b9060643567ffffffffffffffff8111611268576108e3903690600401611e4c565b608435939192906001600160a01b0385168503610219576109026123f3565b61090a612069565b604051632c805af560e21b81526020816004816001600160a01b038a165afa9081156106d7578391611249575b50604051631f1b131360e31b8152916020836004816001600160a01b038b165afa92831561069f578493611228575b5061096f6122c4565b966109786122c4565b6001600160a01b038416808a526040516370a0823160e01b815230600482015291989190602090829060249082905afa90811561116f5787916111f6575b5060208a8101919091526001600160a01b038616808a526040516370a0823160e01b81523060048201529190829060249082905afa90811561116f5787916111c4575b5060208901526040516323b872dd60e01b60208201523360248201523060448201526004356064820152606481528060a081011067ffffffffffffffff60a0830111176111ae5760a08101604052610acd91610a7b91610a62906001600160a01b03861661238b565b60405194610a6f86612087565b600435865236916122ff565b9283602082015260018060a01b038316604082015251610ab06040519485926020840152606060408401526080830190612366565b6001600160a01b038416606083015203601f1981018452836120bf565b60405163613255ab60e01b81526001600160a01b038581166004830152909290602090849060249082907f0000000000000000000000000000000000000000000000000000000000000000165afa92831561063b57869361117a575b506040516370a0823160e01b8152306004820152926020846024816001600160a01b0387165afa93841561116f57879461113b575b50604051633676633960e21b81526001600160a01b038716600482015260248101829052602081806044810103817f00000000000000000000000000000000000000000000000000000000000000006001600160a01b03165afa80156105a8578890611107575b610bd0915082612336565b60405163095ea7b360e01b60208083019182526001600160a01b037f0000000000000000000000000000000000000000000000000000000000000000166024840152604480840194909452928252909190600090610c2f6064856120bf565b835190826001600160a01b038c165af16000513d826110e2575b505015611060575b506001600160a01b038681167f00000000000000000000000000000000000000000000000000000000000000009091160361101757604051632e7ff4ef60e11b81523060048201526001600160a01b03871660248201526044810191909152608060648201529060209082908190610ccd906084830190612366565b0381897f00000000000000000000000000000000000000000000000000000000000000006001600160a01b03165af1801561063b57610fd7575b506040516370a0823160e01b81523060048201529190602090839060249082906001600160a01b03165afa918215610665578592610fa3575b5080821015610f865790610d53916120e1565b6004358103610f6657506040516370a0823160e01b8152306004820152929190602090849060249082906001600160a01b03165afa928315610f5b578293610f26575b506040868101938452516370a0823160e01b815230600482015290602090829060249082906001600160a01b03165afa9182156102265791610ef4575b5060408401528051602085015190818110610ed6575050516020840151610df9916120e1565b91604435808410610eb85750610e63602094610e1f858560018060a01b0384511661248e565b516040518581526001600160a01b03858116959286929116907f21fa991d1ca60543187d2a0de62e5ea0ce1a703a3f0021354ae2f9a75dc0e34d908990a38261263b565b919091610e7a575b50505060018055604051908152f35b516040519182526001600160a01b0316907f858a27e141780954fe5d38ba55127b6c35f8f5904c3a088438a18578d5d71eee908590a3388080610e6b565b83604491604051916347247e7760e11b835260048301526024820152fd5b6044925060405191637506a25d60e11b835260048301526024820152fd5b90506020813d602011610f1e575b81610f0f602093836120bf565b81010312610219575138610dd3565b3d9150610f02565b9092506020813d602011610f53575b81610f42602093836120bf565b810103126102195751916020610d96565b3d9150610f35565b6040513d84823e3d90fd5b604490604051906302d753ed60e61b825260043560048301526024820152fd5b60449160405191632b9e770560e11b835260048301526024820152fd5b9091506020813d602011610fcf575b81610fbf602093836120bf565b8101031261021957519038610d40565b3d9150610fb2565b6020813d60201161100f575b81610ff0602093836120bf565b8101031261100b5751801515036110075738610d07565b8480fd5b8580fd5b3d9150610fe3565b60405163aaae67a160e01b81526001600160a01b037f00000000000000000000000000000000000000000000000000000000000000008116600483015287166024820152604490fd5b60405163095ea7b360e01b60208201527f00000000000000000000000000000000000000000000000000000000000000006001600160a01b03166024820152600060448083019190915281526110dc91906110cd906110be816120a3565b6001600160a01b038a1661238b565b6001600160a01b03881661238b565b38610c51565b9091506110ff57506001600160a01b0387163b15155b3880610c49565b6001146110f8565b506020813d602011611133575b81611121602093836120bf565b8101031261021957610bd09051610bc5565b3d9150611114565b9093506020813d602011611167575b81611157602093836120bf565b8101031261021957519238610b5e565b3d915061114a565b6040513d89823e3d90fd5b9092506020813d6020116111a6575b81611196602093836120bf565b8101031261021957519138610b29565b3d9150611189565b634e487b7160e01b600052604160045260246000fd5b90506020813d6020116111ee575b816111df602093836120bf565b810103126102195751386109f9565b3d91506111d2565b90506020813d602011611220575b81611211602093836120bf565b810103126102195751386109b6565b3d9150611204565b61124291935060203d6020116106345761062581836120bf565b9138610966565b611262915060203d6020116106345761062581836120bf565b38610937565b5080fd5b503461024b578060031936011261024b57611285611ef4565b60025460ff8116156112c55760ff19166002557f5db9ee0a495bf2e6ff9c91a7834c1ba4fdd244a5e8aa4e537bd38aeae4b073aa6020604051338152a180f35b604051638dfc202b60e01b8152600490fd5b503461024b57604036600319011261024b576112f1611e20565b336001600160a01b0382160361130d5761037590600435611ff4565b60405163334bd91960e11b8152600490fd5b503461024b57604036600319011261024b5761037560043561133f611e20565b90808452836020526113576001604086200154611f50565b611f76565b503461024b578060031936011261024b5760206040517f439148f0bbc682ca079e46d6e2c2f0c1e3b820f1a291b069d8882abf8cf18dd98152f35b503461024b57602036600319011261024b57600160406020926004358152808452200154604051908152f35b503461024b5760a036600319011261024b576113dd611e36565b906113e6611e20565b9160843567ffffffffffffffff8111611a7a57611407903690600401611e4c565b9091611411612069565b7f00000000000000000000000000000000000000000000000000000000000000006001600160a01b031633819003611cb55750306001600160a01b03821603611c8c5750906114619136916122ff565b6040519161146e83612087565b8083526060602084015260408301918183528051810160608260208301920312611a7a57602082015191604081015167ffffffffffffffff811161100757810182603f82011215611007576020810151906114c8826122e3565b936114d660405195866120bf565b8285526040838301011161100b57606092916114f9916040602087019101612343565b0151936001600160a01b0385168503611a42576001600160a01b03851690819052602086810192909252918552604051632c805af560e21b81529391849060049082905afa928315610f5b578293611c6b575b50604051631f1b131360e31b8152946020866004816001600160a01b0386165afa9586156106d7578396611c4a575b506001600160a01b0386811690821603611c2057506040516370a0823160e01b8152306004820152906020826024816001600160a01b038a165afa9182156106d7578392611bec575b5060405163095ea7b360e01b60208201526001600160a01b038216602482015260001960448083019190915281526115fb816120a3565b80516020908590838301826001600160a01b038c165af184513d82611bc7575b505015611b86575b508451604051635d043b2960e11b8152600481019190915230602482018190526044820152602081606481876001600160a01b0387165af1801561069f57611b5b575b5060405163095ea7b360e01b60208083019182526001600160a01b03841660248401526044808401879052835290859061169f846120a3565b835190826001600160a01b038c165af184513d82611b36575b505015611ad6575b50506040516370a0823160e01b81523060048201526020816024816001600160a01b038a165afa9081156106d7578391611aa4575b50818111611a865760209161171061171592606435926120e1565b612336565b9301516040516370a0823160e01b815230600482015290946020826024816001600160a01b0388165afa9182156106d7578392611a4e575b506040516370a0823160e01b8152306004820152936020856024816001600160a01b0386165afa94851561069f578495611a16575b5073__$73ace4aa8e5f9c1a2b48f796123ca85165$__803b15611007576040516304ecaec960e31b81526001600160a01b038381166004830152841660248201526044810188905260001960648201523060848201524260a482015261010060c48201529785918991829081906117fe90610104830190612366565b7f00000000000000000000000000000000000000000000000000000000000000006001600160a01b031660e483015203915af496871561069f576024976119e6575b506040516370a0823160e01b81523060048201529660209188919082906001600160a01b03165afa9586156106d75783966119b1575b506040516370a0823160e01b81523060048201529590602090879060249082906001600160a01b03165afa9586156106d757839661197d575b5081811015611976576118c1916120e1565b505b6118cc83612705565b600101908160011161196257506118e590838584612416565b928351156119455750506040820151156119235760206040517f439148f0bbc682ca079e46d6e2c2f0c1e3b820f1a291b069d8882abf8cf18dd98152f35b602060449201519060405191638919e25360e01b835260048301526024820152fd5b60449250604051916204bb6760e81b835260048301526024820152fd5b634e487b7160e01b81526011600452602490fd5b50506118c3565b9095506020813d6020116119a9575b81611999602093836120bf565b81010312610219575194386118af565b3d915061198c565b95506020863d6020116119de575b816119cc602093836120bf565b81010312610219579451946020611876565b3d91506119bf565b67ffffffffffffffff8195929511611a0357604052926020611840565b634e487b7160e01b825260416004528782fd5b9094506020813d602011611a46575b81611a32602093836120bf565b81010312611a4257519338611782565b8380fd5b3d9150611a25565b9091506020813d602011611a7e575b81611a6a602093836120bf565b81010312611a7a5751903861174d565b8280fd5b3d9150611a5d565b604492506040519163a40ed01360e01b835260048301526024820152fd5b90506020813d602011611ace575b81611abf602093836120bf565b81010312611a7a5751386116f5565b3d9150611ab2565b60405163095ea7b360e01b60208201526001600160a01b03909216602483015260448083018590528252611b2f91611b2090611b11816120a3565b6001600160a01b03891661238b565b6001600160a01b03871661238b565b38806116c0565b909150611b5357506001600160a01b0387163b15155b38806116b8565b600114611b4c565b602090813d8311611b7f575b611b7181836120bf565b81010312611a7a5738611666565b503d611b67565b60405163095ea7b360e01b60208201526001600160a01b038316602482015260448082018690528152611bc191906110cd906110be816120a3565b38611623565b909150611be457506001600160a01b0387163b15155b388061161b565b600114611bdd565b9091506020813d602011611c18575b81611c08602093836120bf565b81010312611a7a575190386115c4565b3d9150611bfb565b60405163c7f1118d60e01b81526001600160a01b0391821660048201529086166024820152604490fd5b611c6491965060203d6020116106345761062581836120bf565b943861157b565b611c8591935060203d6020116106345761062581836120bf565b913861154c565b604051636705ec4760e11b81526001600160a01b03919091166004820152306024820152604490fd5b604051631a01026f60e01b81523360048201526001600160a01b03919091166024820152604490fd5b503461024b57604036600319011261024b57611cf8611e36565b60243590611d04611e7a565b611d0c6123f3565b814710611d855782918291829182916001600160a01b03165af13d15611d7d573d90611d37826122e3565b91611d4560405193846120bf565b82523d83602084013e5b15611d5c57506001805580f35b805115611d6b57602081519101fd5b60405163d6bda27560e01b8152600490fd5b606090611d4f565b60405163cf47918160e01b815247600482015260248101839052604490fd5b503461024b57604036600319011261024b5760206101d0611dc3611e20565b6004356124d1565b9050346112685760203660031901126112685760043563ffffffff60e01b8116809103611a7a5760209250637965db0b60e01b8114908115611e0f575b5015158152f35b6301ffc9a760e01b14905038611e08565b602435906001600160a01b038216820361021957565b600435906001600160a01b038216820361021957565b9181601f840112156102195782359167ffffffffffffffff8311610219576020838186019501011161021957565b3360009081527f35be12757faf39521ceabc5bcd76ad643125bff13e41131da81a236ed69872a860205260409020547fcf6f9f892731e14b8859835f2ff35575f447fb501f46243c4eb8bac19e31a0509060ff1615611ed65750565b6044906040519063e2517d3f60e01b82523360048301526024820152fd5b3360009081527ff7c9542c591017a21c74b6f3fab6263c7952fc0aaf9db4c22a2a04ddc7f8674f60205260409020547f65d7a28e3265b37a6474929f336521b332c1681b933f6cb9f3376673440d862a9060ff1615611ed65750565b80600052600060205260406000203360005260205260ff6040600020541615611ed65750565b9060009180835282602052604083209160018060a01b03169182845260205260ff60408420541615600014611fef57808352826020526040832082845260205260408320600160ff198254161790557f2f8788117e7eff1d82e926ec794901d17c78024a50270940304540a733656f0d339380a4600190565b505090565b9060009180835282602052604083209160018060a01b03169182845260205260ff604084205416600014611fef5780835282602052604083208284526020526040832060ff1981541690557ff6391f5c32d9c69d2a47ea670b442974b53935d1edc7fd64eb21e047a839171b339380a4600190565b60ff6002541661207557565b60405163d93c066560e01b8152600490fd5b6060810190811067ffffffffffffffff8211176111ae57604052565b6080810190811067ffffffffffffffff8211176111ae57604052565b90601f8019910116810190811067ffffffffffffffff8211176111ae57604052565b919082039182116101d857565b81156120f8570490565b634e487b7160e01b600052601260045260246000fd5b906000198183098183029182808310920391808303921461217f57620f4240908282111561216c577fde8f6cefed634549b62c77574f722e1ac57e23f24d8fd5cb790fb65668c26139940990828211900360fa1b910360061c170290565b634e487b7160005260116020526024601cfd5b5050620f424091500490565b620f424091600019838309928083029283808610950394808603951461221e5784831115612205579082910981600003821680920460028082600302188083028203028083028203028083028203028083028203028083028203028092029003029360018380600003040190848311900302920304170290565b82634e487b71600052156003026011186020526024601cfd5b50509061222b92506120ee565b90565b9091600019838309928083029283808610950394808603951461221e5784831115612205579082910981600003821680920460028082600302188083028203028083028203028083028203028083028203028083028203028092029003029360018380600003040190848311900302920304170290565b9081602091031261021957516001600160a01b03811681036102195790565b604051906122d182612087565b60006040838281528260208201520152565b67ffffffffffffffff81116111ae57601f01601f191660200190565b92919261230b826122e3565b9161231960405193846120bf565b829481845281830111610219578281602093846000960137010152565b919082018092116101d857565b60005b8381106123565750506000910152565b8181015183820152602001612346565b9060209161237f81518092818552858086019101612343565b601f01601f1916010190565b906000602091828151910182855af1156123e7576000513d6123de57506001600160a01b0381163b155b6123bc5750565b604051635274afe760e01b81526001600160a01b039091166004820152602490fd5b600114156123b5565b6040513d6000823e3d90fd5b600260015414612404576002600155565b604051633ee5aeb560e01b8152600490fd5b92906124206122c4565b93808211808652612459575b505082511561244d5761244391602084015161246e565b1515604082015290565b50506000604082015290565b612462916120e1565b6020840152388061242c565b908082116124855790612480916120e1565b111590565b612480916120e1565b60405163a9059cbb60e01b60208201526001600160a01b039290921660248301526044808301939093529181526124cf916124ca6064836120bf565b61238b565b565b6040805163415c506960e01b8082529194936001600160a01b0316916020918281600481875afa90811561263057600091612603575b506000901561257557508190600487518095819382525afa94851561256b575060009461253c575b50509161222b919261218b565b81813d8311612564575b61255081836120bf565b81010312611a425751925061222b3861252f565b503d612546565b513d6000823e3d90fd5b9282915091600492879596975193848092637aa7c3c160e01b82525afa9384156125fa575082936125b5575b5050509063ffffffff61222b92169061218b565b9080929350813d83116125f3575b6125cd81836120bf565b8101031261126857519063ffffffff8216820361024b575063ffffffff61222b386125a1565b503d6125c3565b513d84823e3d90fd5b908382813d8311612629575b61261981836120bf565b8101031261024b57505138612507565b503d61260f565b87513d6000823e3d90fd5b604081015160208201518103908111159392908402918480612682575b612669575050509050600090600090565b5161267e9183916001600160a01b031661248e565b9190565b50821515612658565b90816020910312610219575160ff811681036102195790565b9094939285156126ec576126ba6126c0936126f7565b9161222e565b620f423f198401908482116101d85761222b946126e6926126e09261222e565b916126f7565b9061222e565b505050505050600090565b604d81116101d857600a0a90565b612710908181029181830414901517156101d857620f424090049056fea2646970667358221220882e75b23d7290e4d6a9a35599987837dbbd4bf711a0d3f62061a5f720ad99a464736f6c63430008140033",
  "libraries": {
    "OdosSwapLogic": "0x17466f973F9aED85Ab9e730a8824F24F00Df2Fb5"
  }
}