{
  "address": "0x1cF2deDC9e47645cEC92358D65aDD7B7812c7b5f",
  "abi": [
    {
      "inputs": [
        {
          "internalType": "string",
          "name": "_name",
          "type": "string"
        },
        {
          "internalType": "string",
          "name": "_symbol",
          "type": "string"
        },
        {
          "internalType": "contract ERC20",
          "name": "_underlyingAsset",
          "type": "address"
        },
        {
          "internalType": "contract ERC20",
          "name": "_dStable",
          "type": "address"
        },
        {
          "internalType": "contract IPoolAddressesProvider",
          "name": "_lendingPoolAddressesProvider",
          "type": "address"
        },
        {
          "internalType": "uint32",
          "name": "_targetLeverageBps",
          "type": "uint32"
        },
        {
          "internalType": "uint32",
          "name": "_lowerBoundTargetLeverageBps",
          "type": "uint32"
        },
        {
          "internalType": "uint32",
          "name": "_upperBoundTargetLeverageBps",
          "type": "uint32"
        },
        {
          "internalType": "uint256",
          "name": "_maxSubsidyBps",
          "type": "uint256"
        }
      ],
      "stateMutability": "nonpayable",
      "type": "constructor"
    },
    {
      "inputs": [
        {
          "internalType": "uint256",
          "name": "assetPrice",
          "type": "uint256"
        },
        {
          "internalType": "uint256",
          "name": "minPrice",
          "type": "uint256"
        }
      ],
      "name": "BelowMinPrice",
      "type": "error"
    },
    {
      "inputs": [
        {
          "internalType": "uint256",
          "name": "totalCollateralBase",
          "type": "uint256"
        },
        {
          "internalType": "uint256",
          "name": "totalDebtBase",
          "type": "uint256"
        }
      ],
      "name": "CollateralLessThanDebt",
      "type": "error"
    },
    {
      "inputs": [
        {
          "internalType": "uint256",
          "name": "newLeverageBps",
          "type": "uint256"
        },
        {
          "internalType": "uint256",
          "name": "targetLeverageBps",
          "type": "uint256"
        },
        {
          "internalType": "uint256",
          "name": "currentLeverageBps",
          "type": "uint256"
        }
      ],
      "name": "DecreaseLeverageOutOfRange",
      "type": "error"
    },
    {
      "inputs": [
        {
          "internalType": "uint256",
          "name": "currentBalance",
          "type": "uint256"
        },
        {
          "internalType": "uint256",
          "name": "newTotalAssets",
          "type": "uint256"
        }
      ],
      "name": "DepositInsufficientToSupply",
      "type": "error"
    },
    {
      "inputs": [
        {
          "internalType": "address",
          "name": "spender",
          "type": "address"
        },
        {
          "internalType": "uint256",
          "name": "allowance",
          "type": "uint256"
        },
        {
          "internalType": "uint256",
          "name": "needed",
          "type": "uint256"
        }
      ],
      "name": "ERC20InsufficientAllowance",
      "type": "error"
    },
    {
      "inputs": [
        {
          "internalType": "address",
          "name": "sender",
          "type": "address"
        },
        {
          "internalType": "uint256",
          "name": "balance",
          "type": "uint256"
        },
        {
          "internalType": "uint256",
          "name": "needed",
          "type": "uint256"
        }
      ],
      "name": "ERC20InsufficientBalance",
      "type": "error"
    },
    {
      "inputs": [
        {
          "internalType": "address",
          "name": "approver",
          "type": "address"
        }
      ],
      "name": "ERC20InvalidApprover",
      "type": "error"
    },
    {
      "inputs": [
        {
          "internalType": "address",
          "name": "receiver",
          "type": "address"
        }
      ],
      "name": "ERC20InvalidReceiver",
      "type": "error"
    },
    {
      "inputs": [
        {
          "internalType": "address",
          "name": "sender",
          "type": "address"
        }
      ],
      "name": "ERC20InvalidSender",
      "type": "error"
    },
    {
      "inputs": [
        {
          "internalType": "address",
          "name": "spender",
          "type": "address"
        }
      ],
      "name": "ERC20InvalidSpender",
      "type": "error"
    },
    {
      "inputs": [
        {
          "internalType": "address",
          "name": "receiver",
          "type": "address"
        },
        {
          "internalType": "uint256",
          "name": "assets",
          "type": "uint256"
        },
        {
          "internalType": "uint256",
          "name": "max",
          "type": "uint256"
        }
      ],
      "name": "ERC4626ExceededMaxDeposit",
      "type": "error"
    },
    {
      "inputs": [
        {
          "internalType": "address",
          "name": "receiver",
          "type": "address"
        },
        {
          "internalType": "uint256",
          "name": "shares",
          "type": "uint256"
        },
        {
          "internalType": "uint256",
          "name": "max",
          "type": "uint256"
        }
      ],
      "name": "ERC4626ExceededMaxMint",
      "type": "error"
    },
    {
      "inputs": [
        {
          "internalType": "address",
          "name": "owner",
          "type": "address"
        },
        {
          "internalType": "uint256",
          "name": "shares",
          "type": "uint256"
        },
        {
          "internalType": "uint256",
          "name": "max",
          "type": "uint256"
        }
      ],
      "name": "ERC4626ExceededMaxRedeem",
      "type": "error"
    },
    {
      "inputs": [
        {
          "internalType": "address",
          "name": "owner",
          "type": "address"
        },
        {
          "internalType": "uint256",
          "name": "assets",
          "type": "uint256"
        },
        {
          "internalType": "uint256",
          "name": "max",
          "type": "uint256"
        }
      ],
      "name": "ERC4626ExceededMaxWithdraw",
      "type": "error"
    },
    {
      "inputs": [
        {
          "internalType": "uint256",
          "name": "assetPrice",
          "type": "uint256"
        },
        {
          "internalType": "uint256",
          "name": "maxPrice",
          "type": "uint256"
        }
      ],
      "name": "ExceedMaxPrice",
      "type": "error"
    },
    {
      "inputs": [
        {
          "internalType": "uint256",
          "name": "newLeverageBps",
          "type": "uint256"
        },
        {
          "internalType": "uint256",
          "name": "targetLeverageBps",
          "type": "uint256"
        },
        {
          "internalType": "uint256",
          "name": "currentLeverageBps",
          "type": "uint256"
        }
      ],
      "name": "IncreaseLeverageOutOfRange",
      "type": "error"
    },
    {
      "inputs": [
        {
          "internalType": "address",
          "name": "owner",
          "type": "address"
        },
        {
          "internalType": "uint256",
          "name": "sharesToRedeem",
          "type": "uint256"
        },
        {
          "internalType": "uint256",
          "name": "shareBalance",
          "type": "uint256"
        }
      ],
      "name": "InsufficientShareBalanceToRedeem",
      "type": "error"
    },
    {
      "inputs": [
        {
          "internalType": "address",
          "name": "expected",
          "type": "address"
        },
        {
          "internalType": "address",
          "name": "actual",
          "type": "address"
        }
      ],
      "name": "InvalidBaseCurrency",
      "type": "error"
    },
    {
      "inputs": [
        {
          "internalType": "uint256",
          "name": "lowerBound",
          "type": "uint256"
        },
        {
          "internalType": "uint256",
          "name": "targetLeverage",
          "type": "uint256"
        },
        {
          "internalType": "uint256",
          "name": "upperBound",
          "type": "uint256"
        }
      ],
      "name": "InvalidLeverageBounds",
      "type": "error"
    },
    {
      "inputs": [
        {
          "internalType": "address",
          "name": "token",
          "type": "address"
        },
        {
          "internalType": "uint256",
          "name": "maxWithdrawUnderlyingBeforeRepay",
          "type": "uint256"
        },
        {
          "internalType": "uint256",
          "name": "maxWithdrawUnderlyingAfterRepay",
          "type": "uint256"
        }
      ],
      "name": "InvalidMaxWithdrawAfterRepay",
      "type": "error"
    },
    {
      "inputs": [
        {
          "internalType": "uint256",
          "name": "totalAssets",
          "type": "uint256"
        },
        {
          "internalType": "uint256",
          "name": "totalSupply",
          "type": "uint256"
        }
      ],
      "name": "InvalidTotalSupplyAndAssets",
      "type": "error"
    },
    {
      "inputs": [
        {
          "internalType": "uint256",
          "name": "maxDStableToBorrowBeforeSupply",
          "type": "uint256"
        },
        {
          "internalType": "uint256",
          "name": "maxDStableToBorrowAfterSupply",
          "type": "uint256"
        }
      ],
      "name": "MaxDStableToBorrowNotIncreasedAfterSupply",
      "type": "error"
    },
    {
      "inputs": [
        {
          "internalType": "address",
          "name": "owner",
          "type": "address"
        }
      ],
      "name": "OwnableInvalidOwner",
      "type": "error"
    },
    {
      "inputs": [
        {
          "internalType": "address",
          "name": "account",
          "type": "address"
        }
      ],
      "name": "OwnableUnauthorizedAccount",
      "type": "error"
    },
    {
      "inputs": [
        {
          "internalType": "address",
          "name": "token",
          "type": "address"
        }
      ],
      "name": "SafeERC20FailedOperation",
      "type": "error"
    },
    {
      "inputs": [
        {
          "internalType": "uint256",
          "name": "currentLeverageBps",
          "type": "uint256"
        },
        {
          "internalType": "uint256",
          "name": "lowerBoundTargetLeverageBps",
          "type": "uint256"
        },
        {
          "internalType": "uint256",
          "name": "upperBoundTargetLeverageBps",
          "type": "uint256"
        }
      ],
      "name": "TooImbalanced",
      "type": "error"
    },
    {
      "inputs": [
        {
          "internalType": "uint256",
          "name": "borrowedAmountBefore",
          "type": "uint256"
        },
        {
          "internalType": "uint256",
          "name": "borrowedAmountAfter",
          "type": "uint256"
        },
        {
          "internalType": "uint256",
          "name": "expectedBorrowedAmount",
          "type": "uint256"
        }
      ],
      "name": "UnexpectedBorrowAmountFromPool",
      "type": "error"
    },
    {
      "inputs": [
        {
          "internalType": "uint256",
          "name": "principalBefore",
          "type": "uint256"
        },
        {
          "internalType": "uint256",
          "name": "principalAfter",
          "type": "uint256"
        }
      ],
      "name": "UnexpectedLossOfPrincipal",
      "type": "error"
    },
    {
      "inputs": [
        {
          "internalType": "uint256",
          "name": "withdrawableAmount",
          "type": "uint256"
        },
        {
          "internalType": "uint256",
          "name": "receivedAmount",
          "type": "uint256"
        }
      ],
      "name": "UnexpectedLossOfWithdrawableAmount",
      "type": "error"
    },
    {
      "inputs": [
        {
          "internalType": "address",
          "name": "token",
          "type": "address"
        },
        {
          "internalType": "uint256",
          "name": "assetToRemoveFromLending",
          "type": "uint256"
        },
        {
          "internalType": "uint256",
          "name": "withdrawableAmount",
          "type": "uint256"
        }
      ],
      "name": "WithdrawableIsLessThanRequired",
      "type": "error"
    },
    {
      "anonymous": false,
      "inputs": [
        {
          "indexed": true,
          "internalType": "address",
          "name": "owner",
          "type": "address"
        },
        {
          "indexed": true,
          "internalType": "address",
          "name": "spender",
          "type": "address"
        },
        {
          "indexed": false,
          "internalType": "uint256",
          "name": "value",
          "type": "uint256"
        }
      ],
      "name": "Approval",
      "type": "event"
    },
    {
      "anonymous": false,
      "inputs": [
        {
          "indexed": true,
          "internalType": "address",
          "name": "sender",
          "type": "address"
        },
        {
          "indexed": true,
          "internalType": "address",
          "name": "owner",
          "type": "address"
        },
        {
          "indexed": false,
          "internalType": "uint256",
          "name": "assets",
          "type": "uint256"
        },
        {
          "indexed": false,
          "internalType": "uint256",
          "name": "shares",
          "type": "uint256"
        }
      ],
      "name": "Deposit",
      "type": "event"
    },
    {
      "anonymous": false,
      "inputs": [
        {
          "indexed": true,
          "internalType": "address",
          "name": "previousOwner",
          "type": "address"
        },
        {
          "indexed": true,
          "internalType": "address",
          "name": "newOwner",
          "type": "address"
        }
      ],
      "name": "OwnershipTransferred",
      "type": "event"
    },
    {
      "anonymous": false,
      "inputs": [
        {
          "indexed": true,
          "internalType": "address",
          "name": "from",
          "type": "address"
        },
        {
          "indexed": true,
          "internalType": "address",
          "name": "to",
          "type": "address"
        },
        {
          "indexed": false,
          "internalType": "uint256",
          "name": "value",
          "type": "uint256"
        }
      ],
      "name": "Transfer",
      "type": "event"
    },
    {
      "anonymous": false,
      "inputs": [
        {
          "indexed": true,
          "internalType": "address",
          "name": "sender",
          "type": "address"
        },
        {
          "indexed": true,
          "internalType": "address",
          "name": "receiver",
          "type": "address"
        },
        {
          "indexed": true,
          "internalType": "address",
          "name": "owner",
          "type": "address"
        },
        {
          "indexed": false,
          "internalType": "uint256",
          "name": "assets",
          "type": "uint256"
        },
        {
          "indexed": false,
          "internalType": "uint256",
          "name": "shares",
          "type": "uint256"
        }
      ],
      "name": "Withdraw",
      "type": "event"
    },
    {
      "inputs": [],
      "name": "TARGET_LEVERAGE_BPS",
      "outputs": [
        {
          "internalType": "uint32",
          "name": "",
          "type": "uint32"
        }
      ],
      "stateMutability": "view",
      "type": "function"
    },
    {
      "inputs": [],
      "name": "VARIABLE_LENDING_INTERST_RATE_MODE",
      "outputs": [
        {
          "internalType": "uint256",
          "name": "",
          "type": "uint256"
        }
      ],
      "stateMutability": "view",
      "type": "function"
    },
    {
      "inputs": [
        {
          "internalType": "address",
          "name": "owner",
          "type": "address"
        },
        {
          "internalType": "address",
          "name": "spender",
          "type": "address"
        }
      ],
      "name": "allowance",
      "outputs": [
        {
          "internalType": "uint256",
          "name": "",
          "type": "uint256"
        }
      ],
      "stateMutability": "view",
      "type": "function"
    },
    {
      "inputs": [
        {
          "internalType": "address",
          "name": "spender",
          "type": "address"
        },
        {
          "internalType": "uint256",
          "name": "value",
          "type": "uint256"
        }
      ],
      "name": "approve",
      "outputs": [
        {
          "internalType": "bool",
          "name": "",
          "type": "bool"
        }
      ],
      "stateMutability": "nonpayable",
      "type": "function"
    },
    {
      "inputs": [],
      "name": "asset",
      "outputs": [
        {
          "internalType": "address",
          "name": "",
          "type": "address"
        }
      ],
      "stateMutability": "view",
      "type": "function"
    },
    {
      "inputs": [
        {
          "internalType": "address",
          "name": "account",
          "type": "address"
        }
      ],
      "name": "balanceOf",
      "outputs": [
        {
          "internalType": "uint256",
          "name": "",
          "type": "uint256"
        }
      ],
      "stateMutability": "view",
      "type": "function"
    },
    {
      "inputs": [
        {
          "internalType": "uint256",
          "name": "shares",
          "type": "uint256"
        }
      ],
      "name": "convertToAssets",
      "outputs": [
        {
          "internalType": "uint256",
          "name": "",
          "type": "uint256"
        }
      ],
      "stateMutability": "view",
      "type": "function"
    },
    {
      "inputs": [
        {
          "internalType": "uint256",
          "name": "assets",
          "type": "uint256"
        }
      ],
      "name": "convertToShares",
      "outputs": [
        {
          "internalType": "uint256",
          "name": "",
          "type": "uint256"
        }
      ],
      "stateMutability": "view",
      "type": "function"
    },
    {
      "inputs": [],
      "name": "dStable",
      "outputs": [
        {
          "internalType": "contract ERC20",
          "name": "",
          "type": "address"
        }
      ],
      "stateMutability": "view",
      "type": "function"
    },
    {
      "inputs": [],
      "name": "decimals",
      "outputs": [
        {
          "internalType": "uint8",
          "name": "",
          "type": "uint8"
        }
      ],
      "stateMutability": "view",
      "type": "function"
    },
    {
      "inputs": [
        {
          "internalType": "uint256",
          "name": "dStableAmount",
          "type": "uint256"
        },
        {
          "internalType": "uint256",
          "name": "maxPriceInBase",
          "type": "uint256"
        }
      ],
      "name": "decreaseLeverage",
      "outputs": [],
      "stateMutability": "nonpayable",
      "type": "function"
    },
    {
      "inputs": [
        {
          "internalType": "uint256",
          "name": "assets",
          "type": "uint256"
        },
        {
          "internalType": "address",
          "name": "receiver",
          "type": "address"
        }
      ],
      "name": "deposit",
      "outputs": [
        {
          "internalType": "uint256",
          "name": "",
          "type": "uint256"
        }
      ],
      "stateMutability": "nonpayable",
      "type": "function"
    },
    {
      "inputs": [
        {
          "internalType": "address",
          "name": "asset",
          "type": "address"
        }
      ],
      "name": "getAssetPriceFromOracle",
      "outputs": [
        {
          "internalType": "uint256",
          "name": "",
          "type": "uint256"
        }
      ],
      "stateMutability": "view",
      "type": "function"
    },
    {
      "inputs": [],
      "name": "getCurrentLeverageBps",
      "outputs": [
        {
          "internalType": "uint256",
          "name": "",
          "type": "uint256"
        }
      ],
      "stateMutability": "view",
      "type": "function"
    },
    {
      "inputs": [],
      "name": "getDStableAddress",
      "outputs": [
        {
          "internalType": "address",
          "name": "",
          "type": "address"
        }
      ],
      "stateMutability": "view",
      "type": "function"
    },
    {
      "inputs": [
        {
          "internalType": "address",
          "name": "tokenAddress",
          "type": "address"
        }
      ],
      "name": "getDTokenBalance",
      "outputs": [
        {
          "internalType": "uint256",
          "name": "",
          "type": "uint256"
        }
      ],
      "stateMutability": "view",
      "type": "function"
    },
    {
      "inputs": [],
      "name": "getDefaultMaxSubsidyBps",
      "outputs": [
        {
          "internalType": "uint256",
          "name": "",
          "type": "uint256"
        }
      ],
      "stateMutability": "view",
      "type": "function"
    },
    {
      "inputs": [],
      "name": "getLendingOracle",
      "outputs": [
        {
          "internalType": "contract IPriceOracleGetter",
          "name": "",
          "type": "address"
        }
      ],
      "stateMutability": "view",
      "type": "function"
    },
    {
      "inputs": [],
      "name": "getLendingPool",
      "outputs": [
        {
          "internalType": "contract IPool",
          "name": "",
          "type": "address"
        }
      ],
      "stateMutability": "view",
      "type": "function"
    },
    {
      "inputs": [],
      "name": "getLendingPoolAddress",
      "outputs": [
        {
          "internalType": "address",
          "name": "",
          "type": "address"
        }
      ],
      "stateMutability": "view",
      "type": "function"
    },
    {
      "inputs": [
        {
          "internalType": "uint256",
          "name": "assets",
          "type": "uint256"
        }
      ],
      "name": "getLeveragedAssets",
      "outputs": [
        {
          "internalType": "uint256",
          "name": "",
          "type": "uint256"
        }
      ],
      "stateMutability": "view",
      "type": "function"
    },
    {
      "inputs": [],
      "name": "getOracleAddress",
      "outputs": [
        {
          "internalType": "address",
          "name": "",
          "type": "address"
        }
      ],
      "stateMutability": "view",
      "type": "function"
    },
    {
      "inputs": [],
      "name": "getUnderlyingAssetAddress",
      "outputs": [
        {
          "internalType": "address",
          "name": "",
          "type": "address"
        }
      ],
      "stateMutability": "view",
      "type": "function"
    },
    {
      "inputs": [
        {
          "internalType": "uint256",
          "name": "assetAmount",
          "type": "uint256"
        },
        {
          "internalType": "uint256",
          "name": "minPriceInBase",
          "type": "uint256"
        }
      ],
      "name": "increaseLeverage",
      "outputs": [],
      "stateMutability": "nonpayable",
      "type": "function"
    },
    {
      "inputs": [],
      "name": "isTooImbalanced",
      "outputs": [
        {
          "internalType": "bool",
          "name": "",
          "type": "bool"
        }
      ],
      "stateMutability": "view",
      "type": "function"
    },
    {
      "inputs": [],
      "name": "lendingPoolAddressesProvider",
      "outputs": [
        {
          "internalType": "contract IPoolAddressesProvider",
          "name": "",
          "type": "address"
        }
      ],
      "stateMutability": "view",
      "type": "function"
    },
    {
      "inputs": [],
      "name": "lowerBoundTargetLeverageBps",
      "outputs": [
        {
          "internalType": "uint32",
          "name": "",
          "type": "uint32"
        }
      ],
      "stateMutability": "view",
      "type": "function"
    },
    {
      "inputs": [
        {
          "internalType": "address",
          "name": "_user",
          "type": "address"
        }
      ],
      "name": "maxDeposit",
      "outputs": [
        {
          "internalType": "uint256",
          "name": "",
          "type": "uint256"
        }
      ],
      "stateMutability": "view",
      "type": "function"
    },
    {
      "inputs": [
        {
          "internalType": "address",
          "name": "_user",
          "type": "address"
        }
      ],
      "name": "maxMint",
      "outputs": [
        {
          "internalType": "uint256",
          "name": "",
          "type": "uint256"
        }
      ],
      "stateMutability": "view",
      "type": "function"
    },
    {
      "inputs": [
        {
          "internalType": "address",
          "name": "_user",
          "type": "address"
        }
      ],
      "name": "maxRedeem",
      "outputs": [
        {
          "internalType": "uint256",
          "name": "",
          "type": "uint256"
        }
      ],
      "stateMutability": "view",
      "type": "function"
    },
    {
      "inputs": [
        {
          "internalType": "address",
          "name": "_user",
          "type": "address"
        }
      ],
      "name": "maxWithdraw",
      "outputs": [
        {
          "internalType": "uint256",
          "name": "",
          "type": "uint256"
        }
      ],
      "stateMutability": "view",
      "type": "function"
    },
    {
      "inputs": [
        {
          "internalType": "uint256",
          "name": "shares",
          "type": "uint256"
        },
        {
          "internalType": "address",
          "name": "receiver",
          "type": "address"
        }
      ],
      "name": "mint",
      "outputs": [
        {
          "internalType": "uint256",
          "name": "",
          "type": "uint256"
        }
      ],
      "stateMutability": "nonpayable",
      "type": "function"
    },
    {
      "inputs": [],
      "name": "name",
      "outputs": [
        {
          "internalType": "string",
          "name": "",
          "type": "string"
        }
      ],
      "stateMutability": "view",
      "type": "function"
    },
    {
      "inputs": [],
      "name": "owner",
      "outputs": [
        {
          "internalType": "address",
          "name": "",
          "type": "address"
        }
      ],
      "stateMutability": "view",
      "type": "function"
    },
    {
      "inputs": [
        {
          "internalType": "uint256",
          "name": "assets",
          "type": "uint256"
        }
      ],
      "name": "previewDeposit",
      "outputs": [
        {
          "internalType": "uint256",
          "name": "",
          "type": "uint256"
        }
      ],
      "stateMutability": "view",
      "type": "function"
    },
    {
      "inputs": [
        {
          "internalType": "uint256",
          "name": "shares",
          "type": "uint256"
        }
      ],
      "name": "previewMint",
      "outputs": [
        {
          "internalType": "uint256",
          "name": "",
          "type": "uint256"
        }
      ],
      "stateMutability": "view",
      "type": "function"
    },
    {
      "inputs": [
        {
          "internalType": "uint256",
          "name": "shares",
          "type": "uint256"
        }
      ],
      "name": "previewRedeem",
      "outputs": [
        {
          "internalType": "uint256",
          "name": "",
          "type": "uint256"
        }
      ],
      "stateMutability": "view",
      "type": "function"
    },
    {
      "inputs": [
        {
          "internalType": "uint256",
          "name": "assets",
          "type": "uint256"
        }
      ],
      "name": "previewWithdraw",
      "outputs": [
        {
          "internalType": "uint256",
          "name": "",
          "type": "uint256"
        }
      ],
      "stateMutability": "view",
      "type": "function"
    },
    {
      "inputs": [
        {
          "internalType": "uint256",
          "name": "shares",
          "type": "uint256"
        },
        {
          "internalType": "address",
          "name": "receiver",
          "type": "address"
        },
        {
          "internalType": "address",
          "name": "owner",
          "type": "address"
        }
      ],
      "name": "redeem",
      "outputs": [
        {
          "internalType": "uint256",
          "name": "",
          "type": "uint256"
        }
      ],
      "stateMutability": "nonpayable",
      "type": "function"
    },
    {
      "inputs": [],
      "name": "renounceOwnership",
      "outputs": [],
      "stateMutability": "nonpayable",
      "type": "function"
    },
    {
      "inputs": [
        {
          "internalType": "address",
          "name": "token",
          "type": "address"
        },
        {
          "internalType": "address",
          "name": "receiver",
          "type": "address"
        }
      ],
      "name": "rescueToken",
      "outputs": [],
      "stateMutability": "nonpayable",
      "type": "function"
    },
    {
      "inputs": [
        {
          "internalType": "uint32",
          "name": "_lowerBoundTargetLeverageBps",
          "type": "uint32"
        },
        {
          "internalType": "uint32",
          "name": "_upperBoundTargetLeverageBps",
          "type": "uint32"
        }
      ],
      "name": "setLeverageBounds",
      "outputs": [],
      "stateMutability": "nonpayable",
      "type": "function"
    },
    {
      "inputs": [
        {
          "internalType": "uint256",
          "name": "_maxSubsidyBps",
          "type": "uint256"
        }
      ],
      "name": "setMaxSubsidyBps",
      "outputs": [],
      "stateMutability": "nonpayable",
      "type": "function"
    },
    {
      "inputs": [],
      "name": "symbol",
      "outputs": [
        {
          "internalType": "string",
          "name": "",
          "type": "string"
        }
      ],
      "stateMutability": "view",
      "type": "function"
    },
    {
      "inputs": [],
      "name": "totalAssets",
      "outputs": [
        {
          "internalType": "uint256",
          "name": "",
          "type": "uint256"
        }
      ],
      "stateMutability": "view",
      "type": "function"
    },
    {
      "inputs": [],
      "name": "totalSupply",
      "outputs": [
        {
          "internalType": "uint256",
          "name": "",
          "type": "uint256"
        }
      ],
      "stateMutability": "view",
      "type": "function"
    },
    {
      "inputs": [
        {
          "internalType": "address",
          "name": "to",
          "type": "address"
        },
        {
          "internalType": "uint256",
          "name": "value",
          "type": "uint256"
        }
      ],
      "name": "transfer",
      "outputs": [
        {
          "internalType": "bool",
          "name": "",
          "type": "bool"
        }
      ],
      "stateMutability": "nonpayable",
      "type": "function"
    },
    {
      "inputs": [
        {
          "internalType": "address",
          "name": "from",
          "type": "address"
        },
        {
          "internalType": "address",
          "name": "to",
          "type": "address"
        },
        {
          "internalType": "uint256",
          "name": "value",
          "type": "uint256"
        }
      ],
      "name": "transferFrom",
      "outputs": [
        {
          "internalType": "bool",
          "name": "",
          "type": "bool"
        }
      ],
      "stateMutability": "nonpayable",
      "type": "function"
    },
    {
      "inputs": [
        {
          "internalType": "address",
          "name": "newOwner",
          "type": "address"
        }
      ],
      "name": "transferOwnership",
      "outputs": [],
      "stateMutability": "nonpayable",
      "type": "function"
    },
    {
      "inputs": [],
      "name": "underlyingAsset",
      "outputs": [
        {
          "internalType": "contract ERC20",
          "name": "",
          "type": "address"
        }
      ],
      "stateMutability": "view",
      "type": "function"
    },
    {
      "inputs": [],
      "name": "upperBoundTargetLeverageBps",
      "outputs": [
        {
          "internalType": "uint32",
          "name": "",
          "type": "uint32"
        }
      ],
      "stateMutability": "view",
      "type": "function"
    },
    {
      "inputs": [
        {
          "internalType": "uint256",
          "name": "assets",
          "type": "uint256"
        },
        {
          "internalType": "address",
          "name": "receiver",
          "type": "address"
        },
        {
          "internalType": "address",
          "name": "owner",
          "type": "address"
        }
      ],
      "name": "withdraw",
      "outputs": [
        {
          "internalType": "uint256",
          "name": "",
          "type": "uint256"
        }
      ],
      "stateMutability": "nonpayable",
      "type": "function"
    }
  ],
  "transactionHash": "0x56e909e57cd6fddc4288bb5dd391a48c1c9d3f96fef0c4c5b6eb1ab453a43448",
  "args": [
    "Leveraged sFRAX-dUSD Vault",
    "FRAX-dUSD-3x",
    "0x5Bff88cA1442c2496f7E475E9e7786383Bc070c0",
    "0x53a6aBb52B2F968fA80dF6A894e4f1b1020DA975",
    "0x1f8d8a3575d049aA0C195AA947483738811bAdcb",
    3000000,
    2000000,
    4000000,
    20000
  ],
  "numDeployments": 1,
  "solcInputHash": "b617ad13192586c0c27ecb291c5ad8c9",
  "bytecode": "0x610140604081815234620008065762003b41803803809162000022828662000827565b8439820190610120918284820312620008065783516001600160401b0381116200080657816200005491860162000867565b602085015190916001600160401b03821162000806576200007791860162000867565b9062000085838601620008d1565b6200009360608701620008d1565b6080870151936001600160a01b03851685036200080657620000b860a08901620008e6565b620000c660c08a01620008e6565b92620000d560e08b01620008e6565b6101009a8b0151875190979194916001600160401b038211620006d85760035490600182811c92168015620007fb575b6020831014620006b75781601f84931162000789575b50602090601f8311600114620006fa57600092620006ee575b50508160011b916000199060031b1c1916176003555b8051906001600160401b038211620006d85760045490600182811c92168015620006cd575b6020831014620006b75781601f84931162000645575b50602090601f8311600114620005b657600092620005aa575b50508160011b916000199060031b1c1916176004555b6001600160a01b038516620001c98162000919565b9015620005a1575b60a05260805233156200058957600554885190959091336001600160a01b0388167f8be0079c531659141344cd1fd0a4f28419497f9722a3daafe3b4186f6b6457e0600080a38b5260e05263ffffffff80831691620f424083106200052157508085169180831080159062000514575b620004ee5750505060c090815260a09290921b63ffffffff60a01b166001600160e01b031990931633600160a01b600160e01b031916179290921791901b63ffffffff60c01b161760055560065582528051621554d160ea1b90602090620002a9816200080b565b6003815201526001600160a01b03620002c1620009ce565b16815160208160048162e19f4760e81b958682525afa908115620004e357600091620004bf575b506001600160a01b03166200042057505190613109928362000a38843960805183611187015260a051836111cc015260c051838181610c2101528181610e940152818161107901528181611251015281816114e9015281816120520152818161249a0152612a22015260e051838181610b1401528181610ecd015281816113cd0152818161186201528181611c5301528181611cac01528181611cf401528181611d4a01528181612085015281816124e2015281816125210152818161255401528181612627015281816126b30152818161270401528181612745015281816127c50152818161289201526128e2015251828181610aa101528181610b4b0152818161145e015281816120f601528181612598015281816125ec01526126810152518181816106db01528181612ff501526130800152f35b60206001600160a01b0362000434620009ce565b1691600484518094819382525afa908115620004b457916044926000926200047c575b5051632d7958d560e11b81526001600160a01b03909116600482015260006024820152fd5b620004a491925060203d602011620004ac575b6200049b818362000827565b810190620008f8565b908362000457565b503d6200048f565b82513d6000823e3d90fd5b620004dc915060203d602011620004ac576200049b818362000827565b38620002e8565b83513d6000823e3d90fd5b895163b857eea760e01b8152600481019390935260248301528316604482015260649150fd5b5081851681101562000241565b62461bcd60e51b815260206004820152603560248201527f546172676574206c65766572616765206d757374206265206174206c6561737460448201527f203130302520696e20626173697320706f696e747300000000000000000000006064820152608490fd5b8751631e4fbdf760e01b815260006004820152602490fd5b506012620001d1565b0151905038806200019e565b6004600090815293507f8a35acfbc15ff81a39ae7d344fd709f28e8600b4aa8c65c6b64bfe7fe36bd19b91905b601f198416851062000629576001945083601f198116106200060f575b505050811b01600455620001b4565b015160001960f88460031b161c1916905538808062000600565b81810151835560209485019460019093019290910190620005e3565b60046000529091507f8a35acfbc15ff81a39ae7d344fd709f28e8600b4aa8c65c6b64bfe7fe36bd19b601f840160051c810160208510620006af575b90849392915b601f830160051c820181106200069f57505062000185565b6000815585945060010162000687565b508062000681565b634e487b7160e01b600052602260045260246000fd5b91607f16916200016f565b634e487b7160e01b600052604160045260246000fd5b01519050388062000134565b6003600090815293507fc2575a0e9e593c00f959f8c92f12db2869c3395a3b0502d05e2516446f71f85b91905b601f19841685106200076d576001945083601f1981161062000753575b505050811b016003556200014a565b015160001960f88460031b161c1916905538808062000744565b8181015183556020948501946001909301929091019062000727565b60036000529091507fc2575a0e9e593c00f959f8c92f12db2869c3395a3b0502d05e2516446f71f85b601f840160051c810160208510620007f3575b90849392915b601f830160051c82018110620007e35750506200011b565b60008155859450600101620007cb565b5080620007c5565b91607f169162000105565b600080fd5b604081019081106001600160401b03821117620006d857604052565b601f909101601f19168101906001600160401b03821190821017620006d857604052565b6001600160401b038111620006d857601f01601f191660200190565b919080601f84011215620008065782519062000883826200084b565b9162000893604051938462000827565b808352602091828287010111620008065760005b818110620008bd57508260009394955001015290565b8581018301518482018401528201620008a7565b51906001600160a01b03821682036200080657565b519063ffffffff821682036200080657565b908160209103126200080657516001600160a01b0381168103620008065790565b90604051602081019063313ce56760e01b8252600481526200093b816200080b565b5160009384928392916001600160a01b03165afa3d15620009c5573d9062000963826200084b565b9162000973604051938462000827565b82523d84602084013e5b80620009b8575b6200098f575b508190565b602081805181010312620009b4576020015160ff81116200098a576001925060ff1690565b8280fd5b5060208151101562000984565b6060906200097d565b61012051604051631f94a27560e31b81526001600160a01b03916020908290600490829086165afa90811562000a2b5760009162000a0b57501690565b62000a27915060203d8111620004ac576200049b818362000827565b1690565b6040513d6000823e3d90fdfe6040608081526004908136101561001557600080fd5b6000803560e01c806301e1d114146118485780630261bf8b1461182b57806306fdde031461173657806307a2d13a1461105057806309344c9c14611708578063095ea7b31461165e5780630a28a4771461163f5780630cc2f8d214610a8c57806318160ddd146116205780631dc8d818146113b157806323b872dd1461137457806328e7b3f2146112e45780632f293a2014611212578063313ce567146111b657806338d52e0f14611172578063402d267d1461069f578063415c5069146111555780634707d000146110a857806348631af9146110555780634cdad506146110505780635b3f0549146110345780635f36a7421461100f5780636e553f6514610f9557806370a0823114610f59578063715018a614610efc5780637158da7c14610eb857806375ba52c914610e77578063776efe4714610af857806380fbf1dd14610ad057806385d8d82b14610a8c5780638bc4ec9b14610a645780638da5cb5b14610a3b57806394bf804d146109be57806395d89b41146108bb578063a0a9452614610899578063a9059cbb14610868578063a9f1a79814610842578063b18b78dd14610815578063b3d7f6b9146107f6578063b460af9414610783578063ba0876521461070a578063bba00ba5146106c6578063c63d75b61461069f578063c6e6f592146105b9578063c7101c1214610679578063ce96cb7714610653578063d905777e14610626578063dd62ed3e146105dd578063dde35bfd146105be578063ef8b30f7146105b9578063f2fde38b146105255763f6d48ae21461025c57600080fd5b346103a5576020918260031936011261052157610277611904565b93815194610284866119c5565b825161028f816119f8565b8481528652838587015283838701528360608701528360808701528360a08701528360c08701528360e087015261010084818801526101209685888201526101409086828201526101609087828201526101809488868301526101a08981840152896101c08094015260018060a01b039687948561030b613062565b168b519687956335ea6a7560e01b8752168b8601528460246101e09889935afa968715610517578d9e8d9e9b9c9d986103ba575b50505050505050500151169160248451809481936370a0823160e01b835230908301525afa9283156103af57809361037a575b505051908152f35b909192508382813d83116103a8575b6103938183611a28565b810103126103a5575051903880610372565b80fd5b503d610389565b8251903d90823e3d90fd5b91939597509193868197999a9b503d8a11610510575b6103da8183611a28565b81010397881261050c578d8c51986103f18a6119c5565b1261050c578b51610401816119f8565b8651815288528d6104138188016130b6565b908901526104228c87016130b6565b8c890152610432606087016130b6565b6060890152610443608087016130b6565b608089015261045460a087016130b6565b60a089015260c086015164ffffffffff811681036105085760c089015260e086015161ffff8116810361050857926104f795928f9b9a999897949288969360e08b01526104a28b8701612adf565b8b8b01526104b1818701612adf565b908a01526104c0818601612adf565b908901526104cf818501612adf565b908801526104de8184016130b6565b908701526104ed8183016130b6565b90860152016130b6565b90820152388080808080808061033f565b8d80fd5b8c80fd5b503d6103d0565b8b513d8e823e3d90fd5b5080fd5b5091346105b55760203660031901126105b557610540611904565b90610549611999565b6001600160a01b0391821692831561059f575050600554826bffffffffffffffffffffffff60a01b821617600555167f8be0079c531659141344cd1fd0a4f28419497f9722a3daafe3b4186f6b6457e08380a380f35b51631e4fbdf760e01b8152908101849052602490fd5b8280fd5b61197b565b5090346105215781600319360112610521576020906006549051908152f35b509034610521578060031936011261052157806020926105fb611904565b61060361191a565b6001600160a01b0391821683526001865283832091168252845220549051908152f35b5090346105215760203660031901126105215760209061064c610647611904565b612b3d565b9051908152f35b5090346105215760203660031901126105215760209061064c610674611904565b612b0a565b5090346105215760203660031901126105215760209061064c61069a611904565b612b64565b509034610521576020366003190112610521576020906106bd611904565b5061064c612af3565b509034610521578160031936011261052157517f00000000000000000000000000000000000000000000000000000000000000006001600160a01b03168152602090f35b50346103a5575061071a36611946565b92919361072684612b3d565b80861161074e575050836107489161073f602096611d45565b948591336123e9565b51908152f35b9251632e52afbb60e21b81526001600160a01b0390941690840190815260208101949094525060408301529081906060010390fd5b50346103a5575061079336611946565b92919361079f84612b0a565b8086116107c157505061074890846107b8602096611c40565b948592336123e9565b9251633fa733bb60e21b81526001600160a01b0390941690840190815260208101949094525060408301529081906060010390fd5b50346103a55760203660031901126103a5575061064c60209235611cef565b5090346105215781600319360112610521576020906001600160a01b0361083a612fd7565b169051908152f35b50903461052157816003193601126105215760209061085f611f4f565b90519015158152f35b509034610521578060031936011261052157602090610892610888611904565b6024359033611a4a565b5160018152f35b508234610521576020366003190112610521576108b4611999565b3560065580f35b509034610521578160031936011261052157805191809380549160019083821c928285169485156109b4575b60209586861081146109a15785895290811561097d5750600114610925575b6109218787610917828c0383611a28565b5191829182611890565b0390f35b81529295507f8a35acfbc15ff81a39ae7d344fd709f28e8600b4aa8c65c6b64bfe7fe36bd19b5b82841061096a57505050826109219461091792820101943880610906565b805486850188015292860192810161094c565b60ff19168887015250505050151560051b8301019250610917826109213880610906565b634e487b7160e01b845260228352602484fd5b93607f16936108e7565b508290346103a557826003193601126103a557508035916109dd61191a565b916109e6612af3565b808511610a06575050610748836109fe602095611cef565b809433612033565b915163284ff66760e01b81526001600160a01b0390931690830190815260208101849052604081019190915281906060010390fd5b50903461052157816003193601126105215760055490516001600160a01b039091168152602090f35b50903461052157816003193601126105215760209063ffffffff60055460c01c169051908152f35b509034610521578160031936011261052157517f00000000000000000000000000000000000000000000000000000000000000006001600160a01b03168152602090f35b50903461052157816003193601126105215760209063ffffffff60055460a01c169051908152f35b50823461052157610b0836611930565b90916001600160a01b037f000000000000000000000000000000000000000000000000000000000000000081169290610b4084612b64565b91808311610e5b57507f000000000000000000000000000000000000000000000000000000000000000016610b7d610b7782612b64565b86611eb6565b9087519563313ce56760e01b9283885260209788818881875afa908115610e5157610bbd95949392610bbd610c1793610bc3938e91610e34575b50611c2f565b90611dd1565b610bcc30612f5b565b969091610c12620f4240610bef610be9610be4612a18565b611b28565b84611eb6565b0498610c0d8a610c07610c028289611e78565b611e9e565b96611e78565b611e78565b611b4f565b610c1f612a87565b7f000000000000000000000000000000000000000000000000000000000000000063ffffffff811683108015610e2a575b610df9575050509081610c68610c6f93303385612390565b3091612d98565b875190815285818581885afa908115610d8f5791610c9b610ca192610ca695948a91610dcc5750611c2f565b90611eb6565b611dd1565b928551906370a0823160e01b80835230848401528183602481885afa928315610d8f578793610d99575b50610cdc308787612ee1565b875190815230848201528181602481885afa918215610d8f578792610d5d575b5050818110610d425790610d0f91611e78565b838110610d255784610d22853386611f94565b80f35b8551631a0c76bf60e21b8152918201849052602482015260449150fd5b60449291875192630cbb578960e31b84528301526024820152fd5b90809250813d8311610d88575b610d748183611a28565b81010312610d8457518780610cfc565b8580fd5b503d610d6a565b88513d89823e3d90fd5b9092508181813d8311610dc5575b610db18183611a28565b81010312610dc157519188610cd0565b8680fd5b503d610da7565b610dec9150893d8b11610df2575b610de48183611a28565b810190611e85565b8b610bb7565b503d610dda565b8c51636a3f633560e11b8152808a0193845263ffffffff909116602084015260408301919091529081906060010390fd5b5081831015610c50565b610e4b91508d803d10610df257610de48183611a28565b8f610bb7565b8b513d8c823e3d90fd5b83604491848a5192631ecf7b4160e01b84528301526024820152fd5b5090346105215781600319360112610521576020905163ffffffff7f0000000000000000000000000000000000000000000000000000000000000000168152f35b509034610521578160031936011261052157517f00000000000000000000000000000000000000000000000000000000000000006001600160a01b03168152602090f35b50346103a557806003193601126103a557610f15611999565b600580546001600160a01b0319811690915581906001600160a01b03167f8be0079c531659141344cd1fd0a4f28419497f9722a3daafe3b4186f6b6457e08280a380f35b5090346105215760203660031901126105215760209061064c610f7a611904565b6001600160a01b031660009081526020819052604090205490565b50346103a557816003193601126103a55750813590610fb261191a565b92610fbb612af3565b808411610fdc575050610748602093610fd384611c99565b93849133612033565b9151633c8097d960e11b81526001600160a01b039094169084019081526020810192909252604082015281906060010390fd5b5090346105215781600319360112610521576020906001600160a01b0361083a613062565b5090346105215781600319360112610521576020905160028152f35b6118d9565b50346103a55760203660031901126103a55750620f42406110a060209363ffffffff7f0000000000000000000000000000000000000000000000000000000000000000169035611eb6565b049051908152f35b509190346105b557806003193601126105b5576110c3611904565b6110cb61191a565b906110d4611999565b82516370a0823160e01b815230948101949094526001600160a01b0316602084602481845afa92831561114c57508492611113575b610d229350611f94565b91506020833d8211611144575b8161112d60209383611a28565b8101031261114057610d22925191611109565b8380fd5b3d9150611120565b513d86823e3d90fd5b50903461052157816003193601126105215760209061064c612a87565b509034610521578160031936011261052157517f00000000000000000000000000000000000000000000000000000000000000006001600160a01b03168152602090f35b50903461052157816003193601126105215760ff7f0000000000000000000000000000000000000000000000000000000000000000169160ff83116111ff576020838351908152f35b634e487b7160e01b815260118452602490fd5b509190346105b557806003193601126105b55781359163ffffffff80841692838503610d845760243593828516928386036112e05761124f611999565b7f000000000000000000000000000000000000000000000000000000000000000016918282108015906112d6575b6112b7576005805467ffffffffffffffff60a01b191660a089901b63ffffffff60a01b161760c088901b63ffffffff60c01b161790558780f35b5163b857eea760e01b8152938401526024830152604482015260649150fd5b508383101561127d565b8780fd5b5090346105215781600319360112610521576020815180946338d52e0f60e01b825281305afa91821561136957809261132b575b81516001600160a01b0384168152602090f35b9091506020833d8211611361575b8161134660209383611a28565b810103126103a5575061135a602092612adf565b9038611318565b3d9150611339565b9051903d90823e3d90fd5b50903461052157606036600319011261052157602090610892611395611904565b61139d61191a565b604435916113ac833383611b5c565b611a4a565b509190346105b5576113c236611930565b6001600160a01b03937f0000000000000000000000000000000000000000000000000000000000000000851693916113f985612b64565b90808210611606575061140c9084611eb6565b825163313ce56760e01b8082526020929091838186818b5afa9081156115fc579061143d918b916115df5750611c2f565b61144691611dd1565b9561145030612f5b565b96909761145b612a18565b997f000000000000000000000000000000000000000000000000000000000000000016986114888a612b64565b9a61149290611b28565b61149c9083611eb6565b620f4240900498816114af848c94611b4f565b6114b890611e9e565b936114c291611b4f565b906114cc91611e78565b906114d691611e78565b6114df91611dd1565b6114e7612a87565b7f000000000000000000000000000000000000000000000000000000000000000063ffffffff8116831180156115d5575b6115a4575050508392918161153261153993303385612390565b3091612bed565b8451938491825281885afa92831561159b575092610c9b610d229693610ca19361156b968a9261157e575b5050611c2f565b90611577308383612d33565b3390611f94565b6115949250803d10610df257610de48183611a28565b3880611564565b513d88823e3d90fd5b8851630262805f60e11b815280890193845263ffffffff909116602084015260408301919091529081906060010390fd5b5081831115611518565b6115f69150853d8711610df257610de48183611a28565b38610bb7565b86513d8c823e3d90fd5b906044935192636f3acc2360e11b84528301526024820152fd5b5090346105215781600319360112610521576020906002549051908152f35b50346103a55760203660031901126103a5575061064c60209235611c40565b5091346105b557816003193601126105b557611678611904565b6024359033156116f1576001600160a01b03169182156116da57508083602095338152600187528181208582528752205582519081527f8c5be1e5ebec7d5bd14f71427d1e84f3dd0314c0f7b2291e5b200ac8c7c3b925843392a35160018152f35b8351634a1406b160e11b8152908101859052602490fd5b835163e602df0560e01b8152808401869052602490fd5b509034610521578160031936011261052157602090611725612fd7565b90516001600160a01b039091168152f35b509190346105b557826003193601126105b557805191836003549060019082821c928281168015611821575b602095868610821461180e57508488529081156117ec5750600114611793575b6109218686610917828b0383611a28565b929550600383527fc2575a0e9e593c00f959f8c92f12db2869c3395a3b0502d05e2516446f71f85b5b8284106117d9575050508261092194610917928201019438611782565b80548685018801529286019281016117bc565b60ff191687860152505050151560051b83010192506109178261092138611782565b634e487b7160e01b845260229052602483fd5b93607f1693611762565b509034610521578160031936011261052157602090611725613062565b50903461052157816003193601126105215760209061064c7f00000000000000000000000000000000000000000000000000000000000000006001600160a01b031630611ec9565b6020808252825181830181905290939260005b8281106118c557505060409293506000838284010152601f8019910116010190565b8181018601518482016040015285016118a3565b346118ff5760203660031901126118ff5760206118f7600435611d45565b604051908152f35b600080fd5b600435906001600160a01b03821682036118ff57565b602435906001600160a01b03821682036118ff57565b60409060031901126118ff576004359060243590565b60609060031901126118ff57600435906001600160a01b039060243582811681036118ff579160443590811681036118ff5790565b346118ff5760203660031901126118ff5760206118f7600435611c99565b6005546001600160a01b031633036119ad57565b60405163118cdaa760e01b8152336004820152602490fd5b6101e0810190811067ffffffffffffffff8211176119e257604052565b634e487b7160e01b600052604160045260246000fd5b6020810190811067ffffffffffffffff8211176119e257604052565b67ffffffffffffffff81116119e257604052565b90601f8019910116810190811067ffffffffffffffff8211176119e257604052565b916001600160a01b03808416928315611b0f5716928315611af65760009083825281602052604082205490838210611ac4575091604082827fddf252ad1be2c89b69c2b068fc378daa952ba7f163c4a11628f55a4df523b3ef958760209652828652038282205586815220818154019055604051908152a3565b60405163391434e360e21b81526001600160a01b03919091166004820152602481019190915260448101839052606490fd5b60405163ec442f0560e01b815260006004820152602490fd5b604051634b637e8f60e11b815260006004820152602490fd5b90620f4240918201809211611b3957565b634e487b7160e01b600052601160045260246000fd5b91908201809211611b3957565b9160018060a01b038093169160009383855260016020526040938486209183169182875260205284862054926000198410611b9b575b50505050505050565b848410611bff57508015611be7578115611bcf57855260016020528385209085526020520391205538808080808080611b92565b8451634a1406b160e11b815260048101879052602490fd5b845163e602df0560e01b815260048101879052602490fd5b8551637dc7a0d960e11b81526001600160a01b039190911660048201526024810184905260448101859052606490fd5b60ff16604d8111611b3957600a0a90565b60025460018101809111611b3957611c817f00000000000000000000000000000000000000000000000000000000000000006001600160a01b031630611ec9565b9060018201809211611b3957611c9692611d9b565b90565b60025460018101809111611b3957611cda7f00000000000000000000000000000000000000000000000000000000000000006001600160a01b031630611ec9565b9060018201809211611b3957611c9692611ddb565b611d227f00000000000000000000000000000000000000000000000000000000000000006001600160a01b031630611ec9565b60018101809111611b39576002549060018201809211611b3957611c9692611d9b565b611d787f00000000000000000000000000000000000000000000000000000000000000006001600160a01b031630611ec9565b60018101809111611b39576002549060018201809211611b3957611c9692611ddb565b91611da7818385611ddb565b918115611dbb57611c969309151590611b4f565b634e487b7160e01b600052601260045260246000fd5b8115611dbb570490565b90916000198383099280830292838086109503948086039514611e6b5784831115611e52579082910981600003821680920460028082600302188083028203028083028203028083028203028083028203028083028203028092029003029360018380600003040190848311900302920304170290565b82634e487b71600052156003026011186020526024601cfd5b505090611c969250611dd1565b91908203918211611b3957565b908160209103126118ff575160ff811681036118ff5790565b90620f424091828102928184041490151715611b3957565b81810292918115918404141715611b3957565b6004916020611eda611eec93612f5b565b611ee684959295612b64565b94611e78565b60405163313ce56760e01b815294909285919082906001600160a01b03165afa908115611f4357610c9b610ca192611c9695600091611f2b5750611c2f565b6115f6915060203d8111610df257610de48183611a28565b6040513d6000823e3d90fd5b611f57612a87565b8015159081611f64575090565b90506005549063ffffffff808360a01c168210928315611f85575b50505090565b60c01c16109050388080611f7f565b60405163a9059cbb60e01b60208201526001600160a01b03929092166024830152604480830193909352918152611fd591611fd0606483611a28565b611fd7565b565b906000602091828151910182855af115611f43576000513d61202a57506001600160a01b0381163b155b6120085750565b604051635274afe760e01b81526001600160a01b039091166004820152602490fd5b60011415612001565b9392919093612040611f4f565b61234e57620f424061207863ffffffff7f00000000000000000000000000000000000000000000000000000000000000001684611eb6565b049060018060a01b0390817f000000000000000000000000000000000000000000000000000000000000000016946120b284308489612390565b6040938451986370a0823160e01b808b52600498308a8d01526020938c8560249e8f81865afa9081156122a857600091612321575b508181106123065750612129887f000000000000000000000000000000000000000000000000000000000000000016926121218430611ec9565b923091612bed565b6121338230611ec9565b818111156122ea578d9161214691611e78565b92858c8b51938491848352309083015281865afa9182156122a8578c92918f88926000946122b3575b5061217b308888612d33565b8c519485928352309083015281865afa9182156122a857600092612279575b50836121a68284611e78565b10612258575050829187936121ba92611f94565b1696871561224257507fdcbc1c05240f31ff3ad067ef1ee35ce4997762752e3a095284754544f4c709d795969798506121f582600254611b4f565b6002558760005260008152846000208281540190558760007fddf252ad1be2c89b69c2b068fc378daa952ba7f163c4a11628f55a4df523b3ef838851868152a384519687528601521692a3565b8990600087519163ec442f0560e01b8352820152fd5b836064928f8e938d5194634beadf6160e11b86528501528301526044820152fd5b90918682813d83116122a1575b6122908183611a28565b810103126103a5575051903861219a565b503d612286565b8a513d6000823e3d90fd5b9392809295508491503d83116122e3575b6122ce8183611a28565b810103126103a55750518b9186908f3861216f565b503d6122c4565b8951632ab1ad4960e21b8152808d0192909252818e0152604490fd5b6044918e8d928c5193635e13771960e01b8552840152820152fd5b908682813d8311612347575b6123378183611a28565b810103126103a5575051386120e7565b503d61232d565b612356612a87565b60055460405163391f5eb560e01b8152600481019290925263ffffffff60a082901c8116602484015260c09190911c166044820152606490fd5b6040516323b872dd60e01b60208201526001600160a01b03928316602482015292909116604483015260648083019390935291815260a081019181831067ffffffffffffffff8411176119e257611fd592604052611fd7565b6001600160a01b03808416959194919390851686036129ca575b85600052600060205260406000205484811061299b57508515611b0f5785600052600060205260406000205490848210612969575083908660005260006020520360406000205582600254036002556000857fddf252ad1be2c89b69c2b068fc378daa952ba7f163c4a11628f55a4df523b3ef6020604051878152a3612487611f4f565b61234e576124c0620f42409163ffffffff7f00000000000000000000000000000000000000000000000000000000000000001690611eb6565b6040516370a0823160e01b8082523060048301529290910493916020826024817f00000000000000000000000000000000000000000000000000000000000000006001600160a01b03165afa918215611f4357600092612935575b5061254f7f00000000000000000000000000000000000000000000000000000000000000006001600160a01b031630611ec9565b6125817f00000000000000000000000000000000000000000000000000000000000000006001600160a01b0316612b64565b60405163313ce56760e01b808252916020826004817f00000000000000000000000000000000000000000000000000000000000000006001600160a01b03165afa908115611f4357610c9b6125e1926125e79460009161291c5750611c2f565b88611eb6565b6126197f00000000000000000000000000000000000000000000000000000000000000006001600160a01b0316612b64565b6040519283526020836004817f00000000000000000000000000000000000000000000000000000000000000006001600160a01b03165afa908115611f4357610c9b610bbd926126709560009161291c5750611c2f565b906126ae61267c612a87565b9230907f00000000000000000000000000000000000000000000000000000000000000006001600160a01b0316612d98565b6126e17f00000000000000000000000000000000000000000000000000000000000000006001600160a01b031630611ec9565b908082106128cb57906126f492916129da565b9480861061287b575061273130867f00000000000000000000000000000000000000000000000000000000000000006001600160a01b0316612ee1565b6040519081523060048201526020816024817f00000000000000000000000000000000000000000000000000000000000000006001600160a01b03165afa908115611f4357600091612849575b5081811061282b579061279091611e78565b9280841061280d57507ffbde797d201c681b91056529119e0b02407c7bb96a4a2c75c01fc9667232c8db916040916127f285837f00000000000000000000000000000000000000000000000000000000000000006001600160a01b0316611f94565b825194855260208501526001600160a01b03908116941692a4565b6044908460405191631a0c76bf60e21b835260048301526024820152fd5b6044925060405191630cbb578960e31b835260048301526024820152fd5b90506020813d602011612873575b8161286460209383611a28565b810103126118ff57513861277e565b3d9150612857565b6040516311d7238d60e21b81526001600160a01b037f0000000000000000000000000000000000000000000000000000000000000000166004820152602481019190915260448101869052606490fd5b604051637d9ebd0360e01b81526001600160a01b037f000000000000000000000000000000000000000000000000000000000000000016600482015260248101919091526044810191909152606490fd5b6115f6915060203d602011610df257610de48183611a28565b9091506020813d602011612961575b8161295160209383611a28565b810103126118ff5751903861251b565b3d9150612944565b60405163391434e360e21b81526001600160a01b03919091166004820152602481019190915260448101849052606490fd5b604051631bb4880160e11b81526001600160a01b03929092166004830152602482018590526044820152606490fd5b6129d5848683611b5c565b612403565b6129e391611e78565b620f4240821115612a1057816129f891611eb6565b90620f423f198101908111611b3957611c9691611dd1565b505060001990565b612a20612a87565b7f000000000000000000000000000000000000000000000000000000000000000063ffffffff1680821115612a7257610ca1610c0282612a5f94611e78565b600654808211612a6d575090565b905090565b610ca1610c02612a829383611e78565b612a5f565b612a9030612f5b565b90818110612ac2578015612abb57818114612a1057610bbd611c9692612ab583611e9e565b92611e78565b5050600090565b604491604051916378ea417b60e11b835260048301526024820152fd5b51906001600160a01b03821682036118ff57565b612afb611f4f565b612b055760001990565b600090565b612b12611f4f565b612b37576001600160a01b0316600090815260208190526040902054611c9690611d45565b50600090565b612b45611f4f565b612b37576001600160a01b031660009081526020819052604090205490565b60206001600160a01b03602481612b79612fd7565b1693604051948593849263b3596f0760e01b84521660048301525afa908115611f4357600091612ba7575090565b906020823d8211612bcd575b81612bc060209383611a28565b810103126103a557505190565b3d9150612bb3565b908160209103126118ff575180151581036118ff5790565b90612bf6613062565b60405163095ea7b360e01b81526001600160a01b039182166004820181905260248201849052600094831692909160208160448189885af1908115612d28578691612cfa575b5015612ca357813b15612c9f579184608492819594604051988996879563617ba03760e01b8752600487015260248601521660448401528160648401525af1908115612c935750612c8a5750565b611fd590611a14565b604051903d90823e3d90fd5b8480fd5b60405162461bcd60e51b815260206004820152602960248201527f617070726f7665206661696c656420666f72206c656e64696e6720706f6f6c20604482015268696e20737570706c7960b81b6064820152608490fd5b612d1b915060203d8111612d21575b612d138183611a28565b810190612bd5565b38612c3c565b503d612d09565b6040513d88823e3d90fd5b9091906001600160a01b039081612d48613062565b1690813b156118ff57600060a492848296604051988997889663a415bcad60e01b88521660048701526024860152600260448601528360648601521660848401525af18015611f4357612c8a5750565b9091612da2613062565b60405163095ea7b360e01b81526001600160a01b03918216600482018190526024820186905260009560209590939081169286816044818b885af1908115612ed6578891612eb9575b5015612e63579186608492879594604051978896879563573ade8160e01b875260048701526024860152600260448601521660648401525af18015612e5857612e3357505050565b813d8311612e51575b612e468183611a28565b810103126103a55750565b503d612e3c565b6040513d85823e3d90fd5b60405162461bcd60e51b815260048101879052602860248201527f617070726f7665206661696c656420666f72206c656e64696e6720706f6f6c20604482015267696e20726570617960c01b6064820152608490fd5b612ed09150873d8911612d2157612d138183611a28565b38612deb565b6040513d8a823e3d90fd5b90916020916001600160a01b0391606491906000908480612f00613062565b16916040519889978896631a4ca37b60e21b885216600487015260248601521660448401525af18015611f4357612f345750565b602090813d8111612f54575b612f4a8183611a28565b810103126118ff57565b503d612f40565b9060c06001600160a01b03602481612f71613062565b16946040519586938492632fe4a15f60e21b84521660048301525afa918215611f43576000908193612fa257509190565b925060c0833d8211612fcf575b81612fbc60c09383611a28565b810103126103a557506020825192015190565b3d9150612faf565b604051631f94a27560e31b81526001600160a01b03906020816004817f000000000000000000000000000000000000000000000000000000000000000086165afa908115611f435760009161302b57501690565b906020823d821161305a575b8161304460209383611a28565b810103126103a5575061305690612adf565b1690565b3d9150613037565b60405163026b1d5f60e01b81526001600160a01b03906020816004817f000000000000000000000000000000000000000000000000000000000000000086165afa908115611f435760009161302b57501690565b51906fffffffffffffffffffffffffffffffff821682036118ff5756fea2646970667358221220f0b6af19447360199f8e8a825495f88d897cbe6945d256c832c5d5816ac2080864736f6c63430008140033",
  "devdoc": {
    "details": "A leveraged vault contract for dLEND",
    "errors": {
      "ERC20InsufficientAllowance(address,uint256,uint256)": [
        {
          "details": "Indicates a failure with the `spender`s `allowance`. Used in transfers.",
          "params": {
            "allowance": "Amount of tokens a `spender` is allowed to operate with.",
            "needed": "Minimum amount required to perform a transfer.",
            "spender": "Address that may be allowed to operate on tokens without being their owner."
          }
        }
      ],
      "ERC20InsufficientBalance(address,uint256,uint256)": [
        {
          "details": "Indicates an error related to the current `balance` of a `sender`. Used in transfers.",
          "params": {
            "balance": "Current balance for the interacting account.",
            "needed": "Minimum amount required to perform a transfer.",
            "sender": "Address whose tokens are being transferred."
          }
        }
      ],
      "ERC20InvalidApprover(address)": [
        {
          "details": "Indicates a failure with the `approver` of a token to be approved. Used in approvals.",
          "params": {
            "approver": "Address initiating an approval operation."
          }
        }
      ],
      "ERC20InvalidReceiver(address)": [
        {
          "details": "Indicates a failure with the token `receiver`. Used in transfers.",
          "params": {
            "receiver": "Address to which tokens are being transferred."
          }
        }
      ],
      "ERC20InvalidSender(address)": [
        {
          "details": "Indicates a failure with the token `sender`. Used in transfers.",
          "params": {
            "sender": "Address whose tokens are being transferred."
          }
        }
      ],
      "ERC20InvalidSpender(address)": [
        {
          "details": "Indicates a failure with the `spender` to be approved. Used in approvals.",
          "params": {
            "spender": "Address that may be allowed to operate on tokens without being their owner."
          }
        }
      ],
      "ERC4626ExceededMaxDeposit(address,uint256,uint256)": [
        {
          "details": "Attempted to deposit more assets than the max amount for `receiver`."
        }
      ],
      "ERC4626ExceededMaxMint(address,uint256,uint256)": [
        {
          "details": "Attempted to mint more shares than the max amount for `receiver`."
        }
      ],
      "ERC4626ExceededMaxRedeem(address,uint256,uint256)": [
        {
          "details": "Attempted to redeem more shares than the max amount for `receiver`."
        }
      ],
      "ERC4626ExceededMaxWithdraw(address,uint256,uint256)": [
        {
          "details": "Attempted to withdraw more assets than the max amount for `receiver`."
        }
      ],
      "OwnableInvalidOwner(address)": [
        {
          "details": "The owner is not a valid owner account. (eg. `address(0)`)"
        }
      ],
      "OwnableUnauthorizedAccount(address)": [
        {
          "details": "The caller account is not authorized to perform an operation."
        }
      ],
      "SafeERC20FailedOperation(address)": [
        {
          "details": "An operation with an ERC-20 token failed."
        }
      ]
    },
    "events": {
      "Approval(address,address,uint256)": {
        "details": "Emitted when the allowance of a `spender` for an `owner` is set by a call to {approve}. `value` is the new allowance."
      },
      "Transfer(address,address,uint256)": {
        "details": "Emitted when `value` tokens are moved from one account (`from`) to another (`to`). Note that `value` may be zero."
      }
    },
    "kind": "dev",
    "methods": {
      "allowance(address,address)": {
        "details": "See {IERC20-allowance}."
      },
      "approve(address,uint256)": {
        "details": "See {IERC20-approve}. NOTE: If `value` is the maximum `uint256`, the allowance is not updated on `transferFrom`. This is semantically equivalent to an infinite approval. Requirements: - `spender` cannot be the zero address."
      },
      "asset()": {
        "details": "See {IERC4626-asset}. "
      },
      "balanceOf(address)": {
        "details": "See {IERC20-balanceOf}."
      },
      "constructor": {
        "details": "Constructor for the DLoopCoreDLend contract",
        "params": {
          "_dStable": "Address of the dStable token",
          "_lendingPoolAddressesProvider": "Address of the lending pool addresses provider",
          "_lowerBoundTargetLeverageBps": "Lower bound of target leverage in basis points",
          "_maxSubsidyBps": "Maximum subsidy in basis points",
          "_name": "Name of the vault token",
          "_symbol": "Symbol of the vault token",
          "_targetLeverageBps": "Target leverage in basis points",
          "_underlyingAsset": "Address of the underlying asset",
          "_upperBoundTargetLeverageBps": "Upper bound of target leverage in basis points"
        }
      },
      "convertToAssets(uint256)": {
        "details": "See {IERC4626-convertToAssets}. "
      },
      "convertToShares(uint256)": {
        "details": "See {IERC4626-convertToShares}. "
      },
      "decimals()": {
        "details": "Decimals are computed by adding the decimal offset on top of the underlying asset's decimals. This \"original\" value is cached during construction of the vault contract. If this read operation fails (e.g., the asset has not been created yet), a default of 18 is used to represent the underlying asset's decimals. See {IERC20Metadata-decimals}."
      },
      "deposit(uint256,address)": {
        "details": "See {IERC4626-deposit}. "
      },
      "getAssetPriceFromOracle(address)": {
        "details": "Gets the asset price from the oracle",
        "params": {
          "asset": "Address of the asset"
        },
        "returns": {
          "_0": "uint256 Price of the asset"
        }
      },
      "getCurrentLeverageBps()": {
        "details": "Gets the current leverage in basis points",
        "returns": {
          "_0": "uint256 The current leverage in basis points"
        }
      },
      "getDTokenBalance(address)": {
        "details": "Gets the DToken balance of the vault",
        "params": {
          "tokenAddress": "The address of the token"
        },
        "returns": {
          "_0": "uint256 The DToken balance of the vault"
        }
      },
      "getLendingOracle()": {
        "details": "Gets the lending oracle",
        "returns": {
          "_0": "IPriceOracleGetter The lending oracle interface"
        }
      },
      "getLendingPool()": {
        "details": "Gets the lending pool",
        "returns": {
          "_0": "ILendingPool The lending pool interface"
        }
      },
      "getLendingPoolAddress()": {
        "details": "Gets the lending pool address",
        "returns": {
          "_0": "address The lending pool address"
        }
      },
      "getLeveragedAssets(uint256)": {
        "details": "Calculates the leveraged amount of the assets",
        "params": {
          "assets": "Amount of assets"
        },
        "returns": {
          "_0": "leveragedAssets Amount of leveraged assets"
        }
      },
      "getOracleAddress()": {
        "details": "Gets the oracle address",
        "returns": {
          "_0": "address The oracle address"
        }
      },
      "isTooImbalanced()": {
        "details": "Returns whether the current leverage is too imbalanced",
        "returns": {
          "_0": "bool True if leverage is too imbalanced, false otherwise"
        }
      },
      "mint(uint256,address)": {
        "details": "See {IERC4626-mint}. "
      },
      "name()": {
        "details": "Returns the name of the token."
      },
      "owner()": {
        "details": "Returns the address of the current owner."
      },
      "previewDeposit(uint256)": {
        "details": "See {IERC4626-previewDeposit}. "
      },
      "previewMint(uint256)": {
        "details": "See {IERC4626-previewMint}. "
      },
      "previewRedeem(uint256)": {
        "details": "See {IERC4626-previewRedeem}. "
      },
      "previewWithdraw(uint256)": {
        "details": "See {IERC4626-previewWithdraw}. "
      },
      "redeem(uint256,address,address)": {
        "details": "See {IERC4626-redeem}. "
      },
      "renounceOwnership()": {
        "details": "Leaves the contract without owner. It will not be possible to call `onlyOwner` functions. Can only be called by the current owner. NOTE: Renouncing ownership will leave the contract without an owner, thereby disabling any functionality that is only available to the owner."
      },
      "rescueToken(address,address)": {
        "details": "Rescues tokens accidentally sent to the contract",
        "params": {
          "receiver": "Address to receive the rescued tokens",
          "token": "Address of the token to rescue"
        }
      },
      "setLeverageBounds(uint32,uint32)": {
        "details": "Sets the lower and upper bounds of target leverage",
        "params": {
          "_lowerBoundTargetLeverageBps": "New lower bound of target leverage in basis points",
          "_upperBoundTargetLeverageBps": "New upper bound of target leverage in basis points"
        }
      },
      "setMaxSubsidyBps(uint256)": {
        "details": "Sets the maximum subsidy in basis points",
        "params": {
          "_maxSubsidyBps": "New maximum subsidy in basis points"
        }
      },
      "symbol()": {
        "details": "Returns the symbol of the token, usually a shorter version of the name."
      },
      "totalAssets()": {
        "details": "Override of totalAssets from ERC4626",
        "returns": {
          "_0": "uint256 Total assets in the vault"
        }
      },
      "totalSupply()": {
        "details": "See {IERC20-totalSupply}."
      },
      "transfer(address,uint256)": {
        "details": "See {IERC20-transfer}. Requirements: - `to` cannot be the zero address. - the caller must have a balance of at least `value`."
      },
      "transferFrom(address,address,uint256)": {
        "details": "See {IERC20-transferFrom}. Skips emitting an {Approval} event indicating an allowance update. This is not required by the ERC. See {xref-ERC20-_approve-address-address-uint256-bool-}[_approve]. NOTE: Does not update the allowance if the current allowance is the maximum `uint256`. Requirements: - `from` and `to` cannot be the zero address. - `from` must have a balance of at least `value`. - the caller must have allowance for ``from``'s tokens of at least `value`."
      },
      "transferOwnership(address)": {
        "details": "Transfers ownership of the contract to a new account (`newOwner`). Can only be called by the current owner."
      },
      "withdraw(uint256,address,address)": {
        "details": "See {IERC4626-withdraw}. "
      }
    },
    "title": "DLoopCoreDLend",
    "version": 1
  },
  "userdoc": {
    "kind": "user",
    "methods": {},
    "version": 1
  },
  "storageLayout": {
    "storage": [
      {
        "astId": 3520,
        "contract": "contracts/dloop/core/venue/dlend/DLoopCoreDLend.sol:DLoopCoreDLend",
        "label": "_balances",
        "offset": 0,
        "slot": "0",
        "type": "t_mapping(t_address,t_uint256)"
      },
      {
        "astId": 3526,
        "contract": "contracts/dloop/core/venue/dlend/DLoopCoreDLend.sol:DLoopCoreDLend",
        "label": "_allowances",
        "offset": 0,
        "slot": "1",
        "type": "t_mapping(t_address,t_mapping(t_address,t_uint256))"
      },
      {
        "astId": 3528,
        "contract": "contracts/dloop/core/venue/dlend/DLoopCoreDLend.sol:DLoopCoreDLend",
        "label": "_totalSupply",
        "offset": 0,
        "slot": "2",
        "type": "t_uint256"
      },
      {
        "astId": 3530,
        "contract": "contracts/dloop/core/venue/dlend/DLoopCoreDLend.sol:DLoopCoreDLend",
        "label": "_name",
        "offset": 0,
        "slot": "3",
        "type": "t_string_storage"
      },
      {
        "astId": 3532,
        "contract": "contracts/dloop/core/venue/dlend/DLoopCoreDLend.sol:DLoopCoreDLend",
        "label": "_symbol",
        "offset": 0,
        "slot": "4",
        "type": "t_string_storage"
      },
      {
        "astId": 2877,
        "contract": "contracts/dloop/core/venue/dlend/DLoopCoreDLend.sol:DLoopCoreDLend",
        "label": "_owner",
        "offset": 0,
        "slot": "5",
        "type": "t_address"
      },
      {
        "astId": 60131,
        "contract": "contracts/dloop/core/venue/dlend/DLoopCoreDLend.sol:DLoopCoreDLend",
        "label": "lowerBoundTargetLeverageBps",
        "offset": 20,
        "slot": "5",
        "type": "t_uint32"
      },
      {
        "astId": 60133,
        "contract": "contracts/dloop/core/venue/dlend/DLoopCoreDLend.sol:DLoopCoreDLend",
        "label": "upperBoundTargetLeverageBps",
        "offset": 24,
        "slot": "5",
        "type": "t_uint32"
      },
      {
        "astId": 60143,
        "contract": "contracts/dloop/core/venue/dlend/DLoopCoreDLend.sol:DLoopCoreDLend",
        "label": "_defaultMaxSubsidyBps",
        "offset": 0,
        "slot": "6",
        "type": "t_uint256"
      }
    ],
    "types": {
      "t_address": {
        "encoding": "inplace",
        "label": "address",
        "numberOfBytes": "20"
      },
      "t_mapping(t_address,t_mapping(t_address,t_uint256))": {
        "encoding": "mapping",
        "key": "t_address",
        "label": "mapping(address => mapping(address => uint256))",
        "numberOfBytes": "32",
        "value": "t_mapping(t_address,t_uint256)"
      },
      "t_mapping(t_address,t_uint256)": {
        "encoding": "mapping",
        "key": "t_address",
        "label": "mapping(address => uint256)",
        "numberOfBytes": "32",
        "value": "t_uint256"
      },
      "t_string_storage": {
        "encoding": "bytes",
        "label": "string",
        "numberOfBytes": "32"
      },
      "t_uint256": {
        "encoding": "inplace",
        "label": "uint256",
        "numberOfBytes": "32"
      },
      "t_uint32": {
        "encoding": "inplace",
        "label": "uint32",
        "numberOfBytes": "4"
      }
    }
  }
}