{
  "address": "0x056dfA9E825A5c0fD2c9700B31E676848FcecFC7",
  "abi": [
    {
      "inputs": [
        {
          "internalType": "contract IERC3156FlashLender",
          "name": "_flashLender",
          "type": "address"
        },
        {
          "internalType": "contract IOdosRouterV2",
          "name": "_odosRouter",
          "type": "address"
        }
      ],
      "stateMutability": "nonpayable",
      "type": "constructor"
    },
    {
      "inputs": [
        {
          "internalType": "uint256",
          "name": "currentCollateralTokenAmount",
          "type": "uint256"
        },
        {
          "internalType": "uint256",
          "name": "minOutputCollateralAmount",
          "type": "uint256"
        }
      ],
      "name": "EstimatedCollateralTokenAmountLessThanMinOutputCollateralAmount",
      "type": "error"
    },
    {
      "inputs": [
        {
          "internalType": "address",
          "name": "flashLender",
          "type": "address"
        },
        {
          "internalType": "address",
          "name": "debtToken",
          "type": "address"
        }
      ],
      "name": "FlashLenderNotSameAsDebtToken",
      "type": "error"
    },
    {
      "inputs": [
        {
          "internalType": "address",
          "name": "currentDebtToken",
          "type": "address"
        },
        {
          "internalType": "address",
          "name": "dLoopCoreDebtToken",
          "type": "address"
        }
      ],
      "name": "IncompatibleDLoopCoreDebtToken",
      "type": "error"
    },
    {
      "inputs": [
        {
          "internalType": "uint256",
          "name": "expected",
          "type": "uint256"
        },
        {
          "internalType": "uint256",
          "name": "actual",
          "type": "uint256"
        }
      ],
      "name": "IncorrectSharesBurned",
      "type": "error"
    },
    {
      "inputs": [
        {
          "internalType": "uint256",
          "name": "inputTokenBalanceBefore",
          "type": "uint256"
        },
        {
          "internalType": "uint256",
          "name": "inputTokenBalanceAfter",
          "type": "uint256"
        }
      ],
      "name": "InputTokenBalanceDoesNotDecreaseAfterSwap",
      "type": "error"
    },
    {
      "inputs": [
        {
          "internalType": "uint256",
          "name": "received",
          "type": "uint256"
        },
        {
          "internalType": "uint256",
          "name": "expected",
          "type": "uint256"
        }
      ],
      "name": "InsufficientOutput",
      "type": "error"
    },
    {
      "inputs": [
        {
          "internalType": "uint256",
          "name": "outputTokenBalanceBefore",
          "type": "uint256"
        },
        {
          "internalType": "uint256",
          "name": "outputTokenBalanceAfter",
          "type": "uint256"
        }
      ],
      "name": "OutputTokenBalanceNotIncreasedAfterSwap",
      "type": "error"
    },
    {
      "inputs": [
        {
          "internalType": "address",
          "name": "owner",
          "type": "address"
        }
      ],
      "name": "OwnableInvalidOwner",
      "type": "error"
    },
    {
      "inputs": [
        {
          "internalType": "address",
          "name": "account",
          "type": "address"
        }
      ],
      "name": "OwnableUnauthorizedAccount",
      "type": "error"
    },
    {
      "inputs": [
        {
          "internalType": "uint256",
          "name": "receivedOutputTokenAmount",
          "type": "uint256"
        },
        {
          "internalType": "uint256",
          "name": "amountOut",
          "type": "uint256"
        }
      ],
      "name": "ReceivedOutputTokenAmountNotEqualAmountOut",
      "type": "error"
    },
    {
      "inputs": [],
      "name": "ReentrancyGuardReentrantCall",
      "type": "error"
    },
    {
      "inputs": [
        {
          "internalType": "address",
          "name": "token",
          "type": "address"
        }
      ],
      "name": "SafeERC20FailedOperation",
      "type": "error"
    },
    {
      "inputs": [
        {
          "internalType": "uint256",
          "name": "sharesBeforeWithdraw",
          "type": "uint256"
        },
        {
          "internalType": "uint256",
          "name": "sharesAfterWithdraw",
          "type": "uint256"
        }
      ],
      "name": "SharesNotDecreasedAfterFlashLoan",
      "type": "error"
    },
    {
      "inputs": [
        {
          "internalType": "uint256",
          "name": "slippageBps",
          "type": "uint256"
        }
      ],
      "name": "SlippageBpsCannotExceedOneHundredPercent",
      "type": "error"
    },
    {
      "inputs": [
        {
          "internalType": "uint256",
          "name": "spentInputTokenAmount",
          "type": "uint256"
        },
        {
          "internalType": "uint256",
          "name": "amountInMaximum",
          "type": "uint256"
        }
      ],
      "name": "SpentInputTokenAmountGreaterThanAmountInMaximum",
      "type": "error"
    },
    {
      "inputs": [
        {
          "internalType": "uint256",
          "name": "spentInputTokenAmount",
          "type": "uint256"
        },
        {
          "internalType": "uint256",
          "name": "returnedAmountIn",
          "type": "uint256"
        }
      ],
      "name": "SpentInputTokenAmountNotEqualReturnedAmountIn",
      "type": "error"
    },
    {
      "inputs": [
        {
          "internalType": "uint256",
          "name": "collateralTokenBalanceBefore",
          "type": "uint256"
        },
        {
          "internalType": "uint256",
          "name": "collateralTokenBalanceAfter",
          "type": "uint256"
        }
      ],
      "name": "UnexpectedDecreaseInCollateralToken",
      "type": "error"
    },
    {
      "inputs": [
        {
          "internalType": "uint256",
          "name": "collateralTokenBalanceBefore",
          "type": "uint256"
        },
        {
          "internalType": "uint256",
          "name": "collateralTokenBalanceAfter",
          "type": "uint256"
        }
      ],
      "name": "UnexpectedDecreaseInCollateralTokenAfterFlashLoan",
      "type": "error"
    },
    {
      "inputs": [
        {
          "internalType": "uint256",
          "name": "debtTokenBalanceBefore",
          "type": "uint256"
        },
        {
          "internalType": "uint256",
          "name": "debtTokenBalanceAfter",
          "type": "uint256"
        }
      ],
      "name": "UnexpectedIncreaseInDebtToken",
      "type": "error"
    },
    {
      "inputs": [
        {
          "internalType": "address",
          "name": "initiator",
          "type": "address"
        },
        {
          "internalType": "address",
          "name": "thisContract",
          "type": "address"
        }
      ],
      "name": "UnknownInitiator",
      "type": "error"
    },
    {
      "inputs": [
        {
          "internalType": "address",
          "name": "msgSender",
          "type": "address"
        },
        {
          "internalType": "address",
          "name": "flashLender",
          "type": "address"
        }
      ],
      "name": "UnknownLender",
      "type": "error"
    },
    {
      "inputs": [
        {
          "internalType": "uint256",
          "name": "withdrawnCollateralTokenAmount",
          "type": "uint256"
        },
        {
          "internalType": "uint256",
          "name": "minReceiveCollateralTokenAmount",
          "type": "uint256"
        }
      ],
      "name": "WithdrawnCollateralTokenAmountNotMetMinReceiveAmount",
      "type": "error"
    },
    {
      "anonymous": false,
      "inputs": [
        {
          "indexed": true,
          "internalType": "address",
          "name": "collateralToken",
          "type": "address"
        },
        {
          "indexed": false,
          "internalType": "uint256",
          "name": "amount",
          "type": "uint256"
        },
        {
          "indexed": true,
          "internalType": "address",
          "name": "receiver",
          "type": "address"
        }
      ],
      "name": "LeftoverCollateralTokensTransferred",
      "type": "event"
    },
    {
      "anonymous": false,
      "inputs": [
        {
          "indexed": true,
          "internalType": "address",
          "name": "previousOwner",
          "type": "address"
        },
        {
          "indexed": true,
          "internalType": "address",
          "name": "newOwner",
          "type": "address"
        }
      ],
      "name": "OwnershipTransferred",
      "type": "event"
    },
    {
      "inputs": [],
      "name": "BALANCE_DIFF_TOLERANCE",
      "outputs": [
        {
          "internalType": "uint256",
          "name": "",
          "type": "uint256"
        }
      ],
      "stateMutability": "view",
      "type": "function"
    },
    {
      "inputs": [],
      "name": "FLASHLOAN_CALLBACK",
      "outputs": [
        {
          "internalType": "bytes32",
          "name": "",
          "type": "bytes32"
        }
      ],
      "stateMutability": "view",
      "type": "function"
    },
    {
      "inputs": [],
      "name": "breakPoint",
      "outputs": [
        {
          "internalType": "uint256",
          "name": "",
          "type": "uint256"
        }
      ],
      "stateMutability": "view",
      "type": "function"
    },
    {
      "inputs": [
        {
          "internalType": "uint256",
          "name": "shares",
          "type": "uint256"
        },
        {
          "internalType": "uint256",
          "name": "slippageBps",
          "type": "uint256"
        },
        {
          "internalType": "contract DLoopCoreBase",
          "name": "dLoopCore",
          "type": "address"
        }
      ],
      "name": "calculateMinOutputCollateral",
      "outputs": [
        {
          "internalType": "uint256",
          "name": "",
          "type": "uint256"
        }
      ],
      "stateMutability": "view",
      "type": "function"
    },
    {
      "inputs": [
        {
          "internalType": "uint256",
          "name": "shares",
          "type": "uint256"
        },
        {
          "internalType": "contract DLoopCoreBase",
          "name": "dLoopCore",
          "type": "address"
        }
      ],
      "name": "estimateFlashLoanSwapOutputDebtAmount",
      "outputs": [
        {
          "internalType": "uint256",
          "name": "",
          "type": "uint256"
        }
      ],
      "stateMutability": "view",
      "type": "function"
    },
    {
      "inputs": [],
      "name": "flashLender",
      "outputs": [
        {
          "internalType": "contract IERC3156FlashLender",
          "name": "",
          "type": "address"
        }
      ],
      "stateMutability": "view",
      "type": "function"
    },
    {
      "inputs": [],
      "name": "getRestrictedRescueTokens",
      "outputs": [
        {
          "internalType": "address[]",
          "name": "restrictedTokens",
          "type": "address[]"
        }
      ],
      "stateMutability": "view",
      "type": "function"
    },
    {
      "inputs": [
        {
          "internalType": "uint256",
          "name": "leveragedAssets",
          "type": "uint256"
        },
        {
          "internalType": "contract DLoopCoreBase",
          "name": "dLoopCore",
          "type": "address"
        }
      ],
      "name": "getUnleveragedAssets",
      "outputs": [
        {
          "internalType": "uint256",
          "name": "",
          "type": "uint256"
        }
      ],
      "stateMutability": "view",
      "type": "function"
    },
    {
      "inputs": [],
      "name": "odosRouter",
      "outputs": [
        {
          "internalType": "contract IOdosRouterV2",
          "name": "",
          "type": "address"
        }
      ],
      "stateMutability": "view",
      "type": "function"
    },
    {
      "inputs": [
        {
          "internalType": "address",
          "name": "initiator",
          "type": "address"
        },
        {
          "internalType": "address",
          "name": "token",
          "type": "address"
        },
        {
          "internalType": "uint256",
          "name": "",
          "type": "uint256"
        },
        {
          "internalType": "uint256",
          "name": "flashLoanFee",
          "type": "uint256"
        },
        {
          "internalType": "bytes",
          "name": "data",
          "type": "bytes"
        }
      ],
      "name": "onFlashLoan",
      "outputs": [
        {
          "internalType": "bytes32",
          "name": "",
          "type": "bytes32"
        }
      ],
      "stateMutability": "nonpayable",
      "type": "function"
    },
    {
      "inputs": [],
      "name": "owner",
      "outputs": [
        {
          "internalType": "address",
          "name": "",
          "type": "address"
        }
      ],
      "stateMutability": "view",
      "type": "function"
    },
    {
      "inputs": [
        {
          "internalType": "uint256",
          "name": "shares",
          "type": "uint256"
        },
        {
          "internalType": "address",
          "name": "receiver",
          "type": "address"
        },
        {
          "internalType": "uint256",
          "name": "minOutputCollateralAmount",
          "type": "uint256"
        },
        {
          "internalType": "bytes",
          "name": "collateralToDebtTokenSwapData",
          "type": "bytes"
        },
        {
          "internalType": "contract DLoopCoreBase",
          "name": "dLoopCore",
          "type": "address"
        }
      ],
      "name": "redeem",
      "outputs": [
        {
          "internalType": "uint256",
          "name": "assets",
          "type": "uint256"
        }
      ],
      "stateMutability": "nonpayable",
      "type": "function"
    },
    {
      "inputs": [
        {
          "internalType": "uint256",
          "name": "shares",
          "type": "uint256"
        },
        {
          "internalType": "address",
          "name": "receiver",
          "type": "address"
        },
        {
          "internalType": "uint256",
          "name": "minOutputCollateralAmount",
          "type": "uint256"
        },
        {
          "internalType": "bytes",
          "name": "collateralToDebtTokenSwapData",
          "type": "bytes"
        },
        {
          "internalType": "contract DLoopCoreBase",
          "name": "dLoopCore",
          "type": "address"
        },
        {
          "internalType": "uint256",
          "name": "breakPoint",
          "type": "uint256"
        }
      ],
      "name": "redeemWithBreakPoint",
      "outputs": [
        {
          "internalType": "uint256",
          "name": "assets",
          "type": "uint256"
        }
      ],
      "stateMutability": "nonpayable",
      "type": "function"
    },
    {
      "inputs": [],
      "name": "renounceOwnership",
      "outputs": [],
      "stateMutability": "nonpayable",
      "type": "function"
    },
    {
      "inputs": [
        {
          "internalType": "address",
          "name": "token",
          "type": "address"
        },
        {
          "internalType": "address",
          "name": "receiver",
          "type": "address"
        },
        {
          "internalType": "uint256",
          "name": "amount",
          "type": "uint256"
        }
      ],
      "name": "rescueToken",
      "outputs": [],
      "stateMutability": "nonpayable",
      "type": "function"
    },
    {
      "inputs": [
        {
          "internalType": "uint256",
          "name": "expectedOutputAmount",
          "type": "uint256"
        }
      ],
      "name": "swappedOutputDifferenceToleranceAmount",
      "outputs": [
        {
          "internalType": "uint256",
          "name": "",
          "type": "uint256"
        }
      ],
      "stateMutability": "pure",
      "type": "function"
    },
    {
      "inputs": [
        {
          "internalType": "address",
          "name": "newOwner",
          "type": "address"
        }
      ],
      "name": "transferOwnership",
      "outputs": [],
      "stateMutability": "nonpayable",
      "type": "function"
    }
  ],
  "transactionHash": "0xeeb6db2205dc5e97669bcc5b09d3d1db349607ae36cadff179bd1edecb313469",
  "args": [
    "0x53a6aBb52B2F968fA80dF6A894e4f1b1020DA975",
    "0xaC041Df48dF9791B0654f1Dbbf2CC8450C5f2e9D"
  ],
  "numDeployments": 2,
  "solcInputHash": "4b9e3731a9b91cd6f09a82f957b73ff9",
  "bytecode": "0x60c0346200012b57601f62002ab738819003918201601f19168301916001600160401b03831184841017620001305780849260409485528339810103126200012b5780516001600160a01b039182821682036200012b57602001519082821682036200012b57331562000112576000543360018060a01b0319821617600055604051933391167f8be0079c531659141344cd1fd0a4f28419497f9722a3daafe3b4186f6b6457e0600080a36001805560805260a0526129709081620001478239608051818181610691015281816108fe01528181611b7301528181611c4001528181611ca001528181611d1201528181611d8f0152818161222b0152612276015260a0518181816107390152610d4c0152f35b604051631e4fbdf760e01b815260006004820152602490fd5b600080fd5b634e487b7160e01b600052604160045260246000fdfe6080604052600436101561001257600080fd5b60003560e01c80630a4fdcde1461160c57806323e30c8b146108b65780632ae181041461087b578063500fc4341461081657806357ae0a72146107c1578063715018a6146107685780638321928d146107235780638da5cb5b146106fa5780639d00f108146106de578063a3f06593146106c0578063a77144581461067b578063a94067e1146103aa578063aee5ae6a1461038c578063cba702e714610331578063e5711e8b14610265578063e7a414861461016a5763f2fde38b146100d757600080fd5b34610165576020366003190112610165576100f061165e565b6100f86116a2565b6001600160a01b0390811690811561014c57600054826bffffffffffffffffffffffff60a01b821617600055167f8be0079c531659141344cd1fd0a4f28419497f9722a3daafe3b4186f6b6457e0600080a3005b604051631e4fbdf760e01b815260006004820152602490fd5b600080fd5b34610165576060366003190112610165576044356001600160a01b038116906024359082810361016557620f42409283831161024c579060206024926040519384809263266d6a8360e11b825260043560048301525afa80156102405760009061020d575b6101d99250612731565b9082039182116101f7576020916101ef91611865565b604051908152f35b634e487b7160e01b600052601160045260246000fd5b506020823d8211610238575b816102266020938361172b565b81010312610165576101d991516101cf565b3d9150610219565b6040513d6000823e3d90fd5b60405163103b7d4960e11b815260048101849052602490fd5b346101655760603660031901126101655761027e61165e565b610286611632565b9061028f6116a2565b6102976117ec565b61029f61180f565b906001600160a01b039081169060005b835181101561031e57602082818360051b870101511684146102da57506102d5906116ce565b6102af565b6064906040519062461bcd60e51b82526004820152601e60248201527f43616e6e6f7420726573637565207265737472696374656420746f6b656e00006044820152fd5b61032b604435868561174d565b60018055005b346101655760c03660031901126101655761034a611632565b60643567ffffffffffffffff8111610165576020916103706101ef923690600401611674565b90610379611648565b9260a435600255604435906004356119fc565b346101655760203660031901126101655760206101ef60043561291d565b34610165576040366003190112610165576001600160a01b03806103cc611632565b166040519063266d6a8360e11b825260043560048301526020928383602481855afa9283156102405760009361064c575b5060405163415c506960e01b8152928484600481865afa9384156102405760009461061d575b50604051632c805af560e21b8152908582600481875afa918215610240576000926105fe575b50604051631f1b131360e31b81528681600481885afa9283156102405784916000946105cf575b5016946040519363313ce56760e01b9081865288866004818b5afa958615610240576000966105b0575b50604051946363880e0960e11b98898752600487015289866024818b5afa95861561024057600096610581575b50166040519182528882600481845afa97881561024057899260009961054f575b506024906040519889938492835260048301525afa9485156102405760009561051d575b5060ff806101ef97169416916128bc565b9594508686813d8311610548575b610535818361172b565b81010312610165579451939460ff61050c565b503d61052b565b602491995061057390843d861161057a575b61056b818361172b565b8101906128a3565b98906104e8565b503d610561565b9095508981813d83116105a9575b610599818361172b565b810103126101655751948a6104c7565b503d61058f565b6105c8919650893d8b1161057a5761056b818361172b565b948961049a565b6105f0919450883d8a116105f7575b6105e8818361172b565b81019061249a565b9288610470565b503d6105de565b610616919250863d88116105f7576105e8818361172b565b9086610449565b9093508481813d8311610645575b610635818361172b565b8101031261016557519285610423565b503d61062b565b9092508381813d8311610674575b610664818361172b565b81010312610165575191846103fd565b503d61065a565b34610165576000366003190112610165576040517f00000000000000000000000000000000000000000000000000000000000000006001600160a01b03168152602090f35b34610165576000366003190112610165576020600254604051908152f35b3461016557600036600319011261016557602060405160018152f35b34610165576000366003190112610165576000546040516001600160a01b039091168152602090f35b34610165576000366003190112610165576040517f00000000000000000000000000000000000000000000000000000000000000006001600160a01b03168152602090f35b34610165576000366003190112610165576107816116a2565b600080546001600160a01b0319811682556001600160a01b03167f8be0079c531659141344cd1fd0a4f28419497f9722a3daafe3b4186f6b6457e08280a3005b346101655760a0366003190112610165576107da611632565b60643567ffffffffffffffff8111610165576020916108006101ef923690600401611674565b90610809611648565b92604435906004356119fc565b346101655760003660031901126101655761082f61180f565b604051809160208083018184528251809152816040850193019160005b82811061085b57505050500390f35b83516001600160a01b03168552869550938101939281019260010161084c565b346101655760003660031901126101655760206040517f439148f0bbc682ca079e46d6e2c2f0c1e3b820f1a291b069d8882abf8cf18dd98152f35b346101655760a0366003190112610165576108cf61165e565b6108d7611632565b9067ffffffffffffffff90608435828111610165576108fa903690600401611674565b90917f00000000000000000000000000000000000000000000000000000000000000006001600160a01b0316338190036115e35750306001600160a01b038216036115ba575060025491614e21831461158d57610958913691612463565b60405192610965846116dd565b60008452606060208501526040840191600083528051810190606081602084019303126101655760208101519260408201519081116101655781019082603f83011215610165576020820151916109bb83612447565b936109c9604051958661172b565b83855260408483010111610165576060926109eb9160406020870191016124c6565b0151926001600160a01b0384168403610165576001600160a01b03841690819052602086810192909252918552604051632c805af560e21b81529591869060049082905afa9485156102405760009561156c575b50604051631f1b131360e31b8152926020846004816001600160a01b0387165afa93841561024057600094611547575b50614e221461151a576001600160a01b03838116908216036114ec57506040516370a0823160e01b8152306004820152906020826024816001600160a01b0387165afa918215610240576000926114b8575b5060405163095ea7b360e01b60208201526001600160a01b03821660248201526000196044808301919091528152610af88161170f565b8051602090600090838301826001600160a01b0389165af16000513d82611493575b505015611431575b50614e2360025414611404578351604051635d043b2960e11b815260048101919091523060248201819052604482015260208160648160006001600160a01b0387165af18015610240576113d9575b50614e24600254146113ac5760405163095ea7b360e01b60208083019182526001600160a01b03841660248401526000604480850182905284529091610bb68461170f565b835190826001600160a01b0389165af16000513d82611387575b505015611324575b50506040516370a0823160e01b8152306004820152906020826024816001600160a01b0387165afa918215610240576000926112f0575b508082116112d35760025491614e2583146112a657602091610c37610c3c9260643592611838565b6124b9565b9301516040516370a0823160e01b815230600482015294906020866024816001600160a01b0386165afa95861561024057600096611272575b506040516370a0823160e01b8152306004820152926020846024816001600160a01b0389165afa9384156102405760009461123e575b50620138818114611211576040516370a0823160e01b8152306004820152916020836024816001600160a01b0388165afa928315610240576000936111db575b5060405163e49524df60e01b81526001600160a01b038581166004830152871660248201526044810188905260001960648201523060848201524260a482015261012060c48201529160209183918291610d4a906101248401906124e9565b7f00000000000000000000000000000000000000000000000000000000000000006001600160a01b031660e484015261010483019190915203817306367962eb944EB509296d01469945B70AB6459E5af48015610240576111b0575b506040516370a0823160e01b8152306004820152906020826024816001600160a01b0387165afa9182156102405760009261117c575b508082101561115f5790610def91611838565b9060025495620138828714611132576040516370a0823160e01b815230600482015291602090839060249082906001600160a01b03165afa918215610240576000926110fb575b506040516370a0823160e01b815230600482015294602090869060249082906001600160a01b03165afa948515610240576000956110c5575b50610e7b91839161253a565b8051610ff9575b5050610e8d8361291d565b600101806001116101f757610ea4908484846125a9565b91825115610fdc57505060406020820191610f55610ec28451612645565b610f49604a610ed088612645565b9286519384917f38303030343a206f7574436865636b2e6f6273657276656444656c74613a00006020840152610f10815180926020603e870191016124c6565b82016b161030b6b7bab73a27baba1d60a11b603e820152610f3a82518093602087850191016124c6565b0103602a81018452018261172b565b6201388487141561250e565b015115610fbc57614e268314610f8f5760206040517f439148f0bbc682ca079e46d6e2c2f0c1e3b820f1a291b069d8882abf8cf18dd98152f35b60405162461bcd60e51b8152602060048201526005602482015264191818181b60d91b6044820152606490fd5b60449250519060405191638919e25360e01b835260048301526024820152fd5b60449250604051916204bb6760e81b835260048301526024820152fd5b6040602082019161109f61100d8451612645565b611093604861101b88612645565b9286519384917f38303030333a20696e436865636b2e6f6273657276656444656c74613a000000602084015261105b815180926020603d870191016124c6565b82016a161030b6b7bab73a24b71d60a91b603d82015261108482518093602087850191016124c6565b0103602881018452018261172b565b620138838a141561250e565b0151610e825760449250519060405191637654e04760e11b835260048301526024820152fd5b9094506020813d6020116110f3575b816110e16020938361172b565b81010312610165575193610e7b610e6f565b3d91506110d4565b9491506020853d60201161112a575b816111176020938361172b565b8101031261016557935190936020610e36565b3d915061110a565b60405162461bcd60e51b81526020600482015260056024820152641c1818181960d91b6044820152606490fd5b6044916040519163b9a3476560e01b835260048301526024820152fd5b9091506020813d6020116111a8575b816111986020938361172b565b8101031261016557519087610ddc565b3d915061118b565b602090813d83116111d4575b6111c6818361172b565b810103126101655786610da6565b503d6111bc565b9092506020813d602011611209575b816111f76020938361172b565b81010312610165575191610d4a610ceb565b3d91506111ea565b60405162461bcd60e51b8152602060048201526005602482015264383030303160d81b6044820152606490fd5b9093506020813d60201161126a575b8161125a6020938361172b565b8101031261016557519287610cab565b3d915061124d565b9095506020813d60201161129e575b8161128e6020938361172b565b8101031261016557519486610c75565b3d9150611281565b60405162461bcd60e51b8152602060048201526005602482015264323030303560d81b6044820152606490fd5b6044916040519163a40ed01360e01b835260048301526024820152fd5b9091506020813d60201161131c575b8161130c6020938361172b565b8101031261016557519085610c0f565b3d91506112ff565b60405163095ea7b360e01b60208201526001600160a01b0390921660248301526000604480840191909152825261138091611371906113628161170f565b6001600160a01b038616611790565b6001600160a01b038416611790565b8480610bd8565b9091506113a457506001600160a01b0384163b15155b8780610bd0565b60011461139d565b60405162461bcd60e51b81526020600482015260056024820152640c8c0c0c0d60da1b6044820152606490fd5b602090813d83116113fd575b6113ef818361172b565b810103126101655785610b71565b503d6113e5565b60405162461bcd60e51b8152602060048201526005602482015264323030303360d81b6044820152606490fd5b60405163095ea7b360e01b60208201526001600160a01b03831660248201526000604480830191909152815261148d919061147e9061146f8161170f565b6001600160a01b038716611790565b6001600160a01b038516611790565b85610b22565b9091506114b057506001600160a01b0384163b15155b8780610b1a565b6001146114a9565b9091506020813d6020116114e4575b816114d46020938361172b565b8101031261016557519085610ac1565b3d91506114c7565b60405163c7f1118d60e01b81526001600160a01b0391821660048201529083166024820152604490fd5b0390fd5b60405162461bcd60e51b8152602060048201526005602482015264191818181960d91b6044820152606490fd5b614e229194506115659060203d6020116105f7576105e8818361172b565b9390610a6f565b61158691955060203d6020116105f7576105e8818361172b565b9385610a3f565b60405162461bcd60e51b8152602060048201526005602482015264323030303160d81b6044820152606490fd5b604051636705ec4760e11b81526001600160a01b03919091166004820152306024820152604490fd5b604051631a01026f60e01b81523360048201526001600160a01b03919091166024820152604490fd5b346101655760403660031901126101655760206101ef61162a611632565b600435612731565b602435906001600160a01b038216820361016557565b608435906001600160a01b038216820361016557565b600435906001600160a01b038216820361016557565b9181601f840112156101655782359167ffffffffffffffff8311610165576020838186019501011161016557565b6000546001600160a01b031633036116b657565b60405163118cdaa760e01b8152336004820152602490fd5b60001981146101f75760010190565b6060810190811067ffffffffffffffff8211176116f957604052565b634e487b7160e01b600052604160045260246000fd5b6080810190811067ffffffffffffffff8211176116f957604052565b90601f8019910116810190811067ffffffffffffffff8211176116f957604052565b60405163a9059cbb60e01b60208201526001600160a01b0392909216602483015260448083019390935291815261178e9161178960648361172b565b611790565b565b906000602091828151910182855af115610240576000513d6117e357506001600160a01b0381163b155b6117c15750565b604051635274afe760e01b81526001600160a01b039091166004820152602490fd5b600114156117ba565b6002600154146117fd576002600155565b604051633ee5aeb560e01b8152600490fd5b6040516020810181811067ffffffffffffffff8211176116f95760405260008152906000368137565b919082039182116101f757565b811561184f570490565b634e487b7160e01b600052601260045260246000fd5b90600019818309818302918280831092039180830392146118d657620f424090828211156118c3577fde8f6cefed634549b62c77574f722e1ac57e23f24d8fd5cb790fb65668c26139940990828211900360fa1b910360061c170290565b634e487b7160005260116020526024601cfd5b5050620f424091500490565b620f4240916000198383099280830292838086109503948086039514611975578483111561195c579082910981600003821680920460028082600302188083028203028083028203028083028203028083028203028083028203028092029003029360018380600003040190848311900302920304170290565b82634e487b71600052156003026011186020526024601cfd5b5050906119829250611845565b90565b90916000198383099280830292838086109503948086039514611975578483111561195c579082910981600003821680920460028082600302188083028203028083028203028083028203028083028203028083028203028092029003029360018380600003040190848311900302920304170290565b939092949194611a0a6117ec565b6127106002541461241a576040516323b872dd60e01b60208201523360248201523060448201526064808201879052815260a081019067ffffffffffffffff8211818310176116f957604091909152611a6c906001600160a01b038516611790565b612711600254146123ed57611a95611ae79160405193611a8b856116dd565b8785523691612463565b9182602082015260018060a01b038416604082015251611aca60405193849260208401526060604084015260808301906124e9565b6001600160a01b038516606083015203601f19810183528261172b565b604051632c805af560e21b8152936020856004816001600160a01b0387165afa948515610240576000956123cc575b50604051631f1b131360e31b8152926020846004816001600160a01b0385165afa938415610240576000946123ab575b5060405163613255ab60e01b81526001600160a01b038581166004830152909390602090859060249082907f0000000000000000000000000000000000000000000000000000000000000000165afa93841561024057600094612377575b506040516370a0823160e01b8152306004820152946020866024816001600160a01b0387165afa95861561024057600096612343575b506040516370a0823160e01b8152306004820152946020866024816001600160a01b038d165afa9586156102405760009661230f575b50604051633676633960e21b81526001600160a01b038316600482015260248101829052602081806044810103817f00000000000000000000000000000000000000000000000000000000000000006001600160a01b03165afa8015610240576000906122db575b611c839150826124b9565b60405163095ea7b360e01b60208083018281526001600160a01b037f00000000000000000000000000000000000000000000000000000000000000001660248501526044808501959095529383529092600090611ce160648561172b565b835190826001600160a01b0389165af16000513d826122b6575b50501561225d575b50506001600160a01b038281167f00000000000000000000000000000000000000000000000000000000000000009091160361221457612712600254146121e757604051632e7ff4ef60e11b81523060048201526001600160a01b0390921660248301526044820152608060648201529060209082908190611d899060848301906124e9565b038160007f00000000000000000000000000000000000000000000000000000000000000006001600160a01b03165af18015610240576121af575b50600254936127138514612182576040516370a0823160e01b815230600482015291602090839060249082906001600160a01b03165afa9182156102405760009261214e575b50808210156121315790611e1d91611838565b81810361211357505061271482146120e6576040516370a0823160e01b8152306004820152906020826024816001600160a01b0389165afa918215610240576000926120b2575b506175318314612085578082111561206857617532831461203b57611e8891611838565b9380851061201d575061753314611ff057611ead83826001600160a01b03851661174d565b61753460025414611fc3576040516370a0823160e01b8152306004820152906020826024816001600160a01b0387165afa91821561024057600092611f8c575b5081611f36575b50505061753560025414611f09579060018055565b60405162461bcd60e51b8152602060048201526005602482015264333030303560d81b6044820152606490fd5b7f21fa991d1ca60543187d2a0de62e5ea0ce1a703a3f0021354ae2f9a75dc0e34d90602090611f6f84826001600160a01b03881661174d565b6040519384526001600160a01b03908116941692a3388080611ef4565b90916020823d602011611fbb575b81611fa76020938361172b565b81010312611fb85750519038611eed565b80fd5b3d9150611f9a565b60405162461bcd60e51b81526020600482015260056024820152640ccc0c0c0d60da1b6044820152606490fd5b60405162461bcd60e51b8152602060048201526005602482015264333030303360d81b6044820152606490fd5b84604491604051916347247e7760e11b835260048301526024820152fd5b60405162461bcd60e51b8152602060048201526005602482015264199818181960d91b6044820152606490fd5b60449160405191637506a25d60e11b835260048301526024820152fd5b60405162461bcd60e51b8152602060048201526005602482015264333030303160d81b6044820152606490fd5b90916020823d6020116120de575b816120cd6020938361172b565b81010312611fb85750519038611e64565b3d91506120c0565b60405162461bcd60e51b81526020600482015260056024820152640c4c0c0c0d60da1b6044820152606490fd5b60449250604051916302d753ed60e61b835260048301526024820152fd5b60449160405191632b9e770560e11b835260048301526024820152fd5b90916020823d60201161217a575b816121696020938361172b565b81010312611fb85750519038611e0a565b3d915061215c565b60405162461bcd60e51b8152602060048201526005602482015264313030303360d81b6044820152606490fd5b6020813d6020116121df575b816121c86020938361172b565b810103126101655751801515036101655738611dc4565b3d91506121bb565b60405162461bcd60e51b8152602060048201526005602482015264189818181960d91b6044820152606490fd5b60405163aaae67a160e01b81526001600160a01b037f00000000000000000000000000000000000000000000000000000000000000008116600483015283166024820152604490fd5b6113716122af9260405190602082015260018060a01b037f000000000000000000000000000000000000000000000000000000000000000016602482015260006044820152604481526113628161170f565b3880611d03565b9091506122d357506001600160a01b0384163b15155b3880611cfb565b6001146122cc565b6020823d602011612307575b816122f46020938361172b565b81010312611fb85750611c839051611c78565b3d91506122e7565b90956020823d60201161233b575b8161232a6020938361172b565b81010312611fb85750519438611c10565b3d915061231d565b90956020823d60201161236f575b8161235e6020938361172b565b81010312611fb85750519438611bda565b3d9150612351565b90936020823d6020116123a3575b816123926020938361172b565b81010312611fb85750519238611ba4565b3d9150612385565b6123c591945060203d6020116105f7576105e8818361172b565b9238611b46565b6123e691955060203d6020116105f7576105e8818361172b565b9338611b16565b60405162461bcd60e51b8152602060048201526005602482015264313030303160d81b6044820152606490fd5b60405162461bcd60e51b8152602060048201526005602482015264031303030360dc1b6044820152606490fd5b67ffffffffffffffff81116116f957601f01601f191660200190565b92919261246f82612447565b9161247d604051938461172b565b829481845281830111610165578281602093846000960137010152565b9081602091031261016557516001600160a01b03811681036101655790565b919082018092116101f757565b60005b8381106124d95750506000910152565b81810151838201526020016124c9565b90602091612502815180928185528580860191016124c6565b601f01601f1916010190565b156125165750565b60405162461bcd60e51b8152602060048201529081906115169060248301906124e9565b9190916040519061254a826116dd565b60208201600081526040830191600083528395818110808652612596575b50505081511561258c575050612582906020830151612611565b1515604082015290565b6000905292915050565b61259f91611838565b9052388080612568565b91929092604051936125ba856116dd565b602085016000815260408601916000835286958082118089526125fe575b5050508451156125f357508293506020612582930151612633565b915050600091505290565b61260791611838565b90523880806125d8565b60019180821161262a579061262591611838565b111590565b61262591611838565b9080821161262a579061262591611838565b801561270257600081805b6126ee575061265e81612447565b9061266c604051928361172b565b808252601f1961267b82612447565b013660208401375b809280156126e75760001982019182116101f7578193600a9260309084840682018092116101f757855111156126d15760f81b6001600160f81b03191660001a908401601f01530491612683565b634e487b7160e01b600052603260045260246000fd5b5050905090565b906126fa600a916116ce565b910480612650565b506040516040810181811067ffffffffffffffff8211176116f95760405260018152600360fc1b602082015290565b6040805163415c506960e01b8082529194936001600160a01b0316916020918281600481875afa9081156128985760009161286b575b50600090156127d957508190600487518095819382525afa9485156127cf575060009461279c575b50509161198291926118e2565b81813d83116127c8575b6127b0818361172b565b810103126127c4575192506119823861278f565b8380fd5b503d6127a6565b513d6000823e3d90fd5b9282915091600492879596975193848092637aa7c3c160e01b82525afa93841561286257508293612819575b5050509063ffffffff6119829216906118e2565b9080929350813d831161285b575b612831818361172b565b8101031261285757519063ffffffff82168203611fb8575063ffffffff61198238612805565b5080fd5b503d612827565b513d84823e3d90fd5b908382813d8311612891575b612881818361172b565b81010312611fb857505138612767565b503d612877565b87513d6000823e3d90fd5b90816020910312610165575160ff811681036101655790565b909493928515612904576128d26128d89361290f565b91611985565b620f423f198401908482116101f757611982946128fe926128f892611985565b9161290f565b90611985565b505050505050600090565b604d81116101f757600a0a90565b612710908181029181830414901517156101f757620f424090049056fea2646970667358221220571e1f76af91cb23547e72edfeb0437ec8f1e443b8529c1a507fb50b02108d3664736f6c63430008140033",
  "deployedBytecode": "0x6080604052600436101561001257600080fd5b60003560e01c80630a4fdcde1461160c57806323e30c8b146108b65780632ae181041461087b578063500fc4341461081657806357ae0a72146107c1578063715018a6146107685780638321928d146107235780638da5cb5b146106fa5780639d00f108146106de578063a3f06593146106c0578063a77144581461067b578063a94067e1146103aa578063aee5ae6a1461038c578063cba702e714610331578063e5711e8b14610265578063e7a414861461016a5763f2fde38b146100d757600080fd5b34610165576020366003190112610165576100f061165e565b6100f86116a2565b6001600160a01b0390811690811561014c57600054826bffffffffffffffffffffffff60a01b821617600055167f8be0079c531659141344cd1fd0a4f28419497f9722a3daafe3b4186f6b6457e0600080a3005b604051631e4fbdf760e01b815260006004820152602490fd5b600080fd5b34610165576060366003190112610165576044356001600160a01b038116906024359082810361016557620f42409283831161024c579060206024926040519384809263266d6a8360e11b825260043560048301525afa80156102405760009061020d575b6101d99250612731565b9082039182116101f7576020916101ef91611865565b604051908152f35b634e487b7160e01b600052601160045260246000fd5b506020823d8211610238575b816102266020938361172b565b81010312610165576101d991516101cf565b3d9150610219565b6040513d6000823e3d90fd5b60405163103b7d4960e11b815260048101849052602490fd5b346101655760603660031901126101655761027e61165e565b610286611632565b9061028f6116a2565b6102976117ec565b61029f61180f565b906001600160a01b039081169060005b835181101561031e57602082818360051b870101511684146102da57506102d5906116ce565b6102af565b6064906040519062461bcd60e51b82526004820152601e60248201527f43616e6e6f7420726573637565207265737472696374656420746f6b656e00006044820152fd5b61032b604435868561174d565b60018055005b346101655760c03660031901126101655761034a611632565b60643567ffffffffffffffff8111610165576020916103706101ef923690600401611674565b90610379611648565b9260a435600255604435906004356119fc565b346101655760203660031901126101655760206101ef60043561291d565b34610165576040366003190112610165576001600160a01b03806103cc611632565b166040519063266d6a8360e11b825260043560048301526020928383602481855afa9283156102405760009361064c575b5060405163415c506960e01b8152928484600481865afa9384156102405760009461061d575b50604051632c805af560e21b8152908582600481875afa918215610240576000926105fe575b50604051631f1b131360e31b81528681600481885afa9283156102405784916000946105cf575b5016946040519363313ce56760e01b9081865288866004818b5afa958615610240576000966105b0575b50604051946363880e0960e11b98898752600487015289866024818b5afa95861561024057600096610581575b50166040519182528882600481845afa97881561024057899260009961054f575b506024906040519889938492835260048301525afa9485156102405760009561051d575b5060ff806101ef97169416916128bc565b9594508686813d8311610548575b610535818361172b565b81010312610165579451939460ff61050c565b503d61052b565b602491995061057390843d861161057a575b61056b818361172b565b8101906128a3565b98906104e8565b503d610561565b9095508981813d83116105a9575b610599818361172b565b810103126101655751948a6104c7565b503d61058f565b6105c8919650893d8b1161057a5761056b818361172b565b948961049a565b6105f0919450883d8a116105f7575b6105e8818361172b565b81019061249a565b9288610470565b503d6105de565b610616919250863d88116105f7576105e8818361172b565b9086610449565b9093508481813d8311610645575b610635818361172b565b8101031261016557519285610423565b503d61062b565b9092508381813d8311610674575b610664818361172b565b81010312610165575191846103fd565b503d61065a565b34610165576000366003190112610165576040517f00000000000000000000000000000000000000000000000000000000000000006001600160a01b03168152602090f35b34610165576000366003190112610165576020600254604051908152f35b3461016557600036600319011261016557602060405160018152f35b34610165576000366003190112610165576000546040516001600160a01b039091168152602090f35b34610165576000366003190112610165576040517f00000000000000000000000000000000000000000000000000000000000000006001600160a01b03168152602090f35b34610165576000366003190112610165576107816116a2565b600080546001600160a01b0319811682556001600160a01b03167f8be0079c531659141344cd1fd0a4f28419497f9722a3daafe3b4186f6b6457e08280a3005b346101655760a0366003190112610165576107da611632565b60643567ffffffffffffffff8111610165576020916108006101ef923690600401611674565b90610809611648565b92604435906004356119fc565b346101655760003660031901126101655761082f61180f565b604051809160208083018184528251809152816040850193019160005b82811061085b57505050500390f35b83516001600160a01b03168552869550938101939281019260010161084c565b346101655760003660031901126101655760206040517f439148f0bbc682ca079e46d6e2c2f0c1e3b820f1a291b069d8882abf8cf18dd98152f35b346101655760a0366003190112610165576108cf61165e565b6108d7611632565b9067ffffffffffffffff90608435828111610165576108fa903690600401611674565b90917f00000000000000000000000000000000000000000000000000000000000000006001600160a01b0316338190036115e35750306001600160a01b038216036115ba575060025491614e21831461158d57610958913691612463565b60405192610965846116dd565b60008452606060208501526040840191600083528051810190606081602084019303126101655760208101519260408201519081116101655781019082603f83011215610165576020820151916109bb83612447565b936109c9604051958661172b565b83855260408483010111610165576060926109eb9160406020870191016124c6565b0151926001600160a01b0384168403610165576001600160a01b03841690819052602086810192909252918552604051632c805af560e21b81529591869060049082905afa9485156102405760009561156c575b50604051631f1b131360e31b8152926020846004816001600160a01b0387165afa93841561024057600094611547575b50614e221461151a576001600160a01b03838116908216036114ec57506040516370a0823160e01b8152306004820152906020826024816001600160a01b0387165afa918215610240576000926114b8575b5060405163095ea7b360e01b60208201526001600160a01b03821660248201526000196044808301919091528152610af88161170f565b8051602090600090838301826001600160a01b0389165af16000513d82611493575b505015611431575b50614e2360025414611404578351604051635d043b2960e11b815260048101919091523060248201819052604482015260208160648160006001600160a01b0387165af18015610240576113d9575b50614e24600254146113ac5760405163095ea7b360e01b60208083019182526001600160a01b03841660248401526000604480850182905284529091610bb68461170f565b835190826001600160a01b0389165af16000513d82611387575b505015611324575b50506040516370a0823160e01b8152306004820152906020826024816001600160a01b0387165afa918215610240576000926112f0575b508082116112d35760025491614e2583146112a657602091610c37610c3c9260643592611838565b6124b9565b9301516040516370a0823160e01b815230600482015294906020866024816001600160a01b0386165afa95861561024057600096611272575b506040516370a0823160e01b8152306004820152926020846024816001600160a01b0389165afa9384156102405760009461123e575b50620138818114611211576040516370a0823160e01b8152306004820152916020836024816001600160a01b0388165afa928315610240576000936111db575b5060405163e49524df60e01b81526001600160a01b038581166004830152871660248201526044810188905260001960648201523060848201524260a482015261012060c48201529160209183918291610d4a906101248401906124e9565b7f00000000000000000000000000000000000000000000000000000000000000006001600160a01b031660e4840152610104830191909152038173__$73ace4aa8e5f9c1a2b48f796123ca85165$__5af48015610240576111b0575b506040516370a0823160e01b8152306004820152906020826024816001600160a01b0387165afa9182156102405760009261117c575b508082101561115f5790610def91611838565b9060025495620138828714611132576040516370a0823160e01b815230600482015291602090839060249082906001600160a01b03165afa918215610240576000926110fb575b506040516370a0823160e01b815230600482015294602090869060249082906001600160a01b03165afa948515610240576000956110c5575b50610e7b91839161253a565b8051610ff9575b5050610e8d8361291d565b600101806001116101f757610ea4908484846125a9565b91825115610fdc57505060406020820191610f55610ec28451612645565b610f49604a610ed088612645565b9286519384917f38303030343a206f7574436865636b2e6f6273657276656444656c74613a00006020840152610f10815180926020603e870191016124c6565b82016b161030b6b7bab73a27baba1d60a11b603e820152610f3a82518093602087850191016124c6565b0103602a81018452018261172b565b6201388487141561250e565b015115610fbc57614e268314610f8f5760206040517f439148f0bbc682ca079e46d6e2c2f0c1e3b820f1a291b069d8882abf8cf18dd98152f35b60405162461bcd60e51b8152602060048201526005602482015264191818181b60d91b6044820152606490fd5b60449250519060405191638919e25360e01b835260048301526024820152fd5b60449250604051916204bb6760e81b835260048301526024820152fd5b6040602082019161109f61100d8451612645565b611093604861101b88612645565b9286519384917f38303030333a20696e436865636b2e6f6273657276656444656c74613a000000602084015261105b815180926020603d870191016124c6565b82016a161030b6b7bab73a24b71d60a91b603d82015261108482518093602087850191016124c6565b0103602881018452018261172b565b620138838a141561250e565b0151610e825760449250519060405191637654e04760e11b835260048301526024820152fd5b9094506020813d6020116110f3575b816110e16020938361172b565b81010312610165575193610e7b610e6f565b3d91506110d4565b9491506020853d60201161112a575b816111176020938361172b565b8101031261016557935190936020610e36565b3d915061110a565b60405162461bcd60e51b81526020600482015260056024820152641c1818181960d91b6044820152606490fd5b6044916040519163b9a3476560e01b835260048301526024820152fd5b9091506020813d6020116111a8575b816111986020938361172b565b8101031261016557519087610ddc565b3d915061118b565b602090813d83116111d4575b6111c6818361172b565b810103126101655786610da6565b503d6111bc565b9092506020813d602011611209575b816111f76020938361172b565b81010312610165575191610d4a610ceb565b3d91506111ea565b60405162461bcd60e51b8152602060048201526005602482015264383030303160d81b6044820152606490fd5b9093506020813d60201161126a575b8161125a6020938361172b565b8101031261016557519287610cab565b3d915061124d565b9095506020813d60201161129e575b8161128e6020938361172b565b8101031261016557519486610c75565b3d9150611281565b60405162461bcd60e51b8152602060048201526005602482015264323030303560d81b6044820152606490fd5b6044916040519163a40ed01360e01b835260048301526024820152fd5b9091506020813d60201161131c575b8161130c6020938361172b565b8101031261016557519085610c0f565b3d91506112ff565b60405163095ea7b360e01b60208201526001600160a01b0390921660248301526000604480840191909152825261138091611371906113628161170f565b6001600160a01b038616611790565b6001600160a01b038416611790565b8480610bd8565b9091506113a457506001600160a01b0384163b15155b8780610bd0565b60011461139d565b60405162461bcd60e51b81526020600482015260056024820152640c8c0c0c0d60da1b6044820152606490fd5b602090813d83116113fd575b6113ef818361172b565b810103126101655785610b71565b503d6113e5565b60405162461bcd60e51b8152602060048201526005602482015264323030303360d81b6044820152606490fd5b60405163095ea7b360e01b60208201526001600160a01b03831660248201526000604480830191909152815261148d919061147e9061146f8161170f565b6001600160a01b038716611790565b6001600160a01b038516611790565b85610b22565b9091506114b057506001600160a01b0384163b15155b8780610b1a565b6001146114a9565b9091506020813d6020116114e4575b816114d46020938361172b565b8101031261016557519085610ac1565b3d91506114c7565b60405163c7f1118d60e01b81526001600160a01b0391821660048201529083166024820152604490fd5b0390fd5b60405162461bcd60e51b8152602060048201526005602482015264191818181960d91b6044820152606490fd5b614e229194506115659060203d6020116105f7576105e8818361172b565b9390610a6f565b61158691955060203d6020116105f7576105e8818361172b565b9385610a3f565b60405162461bcd60e51b8152602060048201526005602482015264323030303160d81b6044820152606490fd5b604051636705ec4760e11b81526001600160a01b03919091166004820152306024820152604490fd5b604051631a01026f60e01b81523360048201526001600160a01b03919091166024820152604490fd5b346101655760403660031901126101655760206101ef61162a611632565b600435612731565b602435906001600160a01b038216820361016557565b608435906001600160a01b038216820361016557565b600435906001600160a01b038216820361016557565b9181601f840112156101655782359167ffffffffffffffff8311610165576020838186019501011161016557565b6000546001600160a01b031633036116b657565b60405163118cdaa760e01b8152336004820152602490fd5b60001981146101f75760010190565b6060810190811067ffffffffffffffff8211176116f957604052565b634e487b7160e01b600052604160045260246000fd5b6080810190811067ffffffffffffffff8211176116f957604052565b90601f8019910116810190811067ffffffffffffffff8211176116f957604052565b60405163a9059cbb60e01b60208201526001600160a01b0392909216602483015260448083019390935291815261178e9161178960648361172b565b611790565b565b906000602091828151910182855af115610240576000513d6117e357506001600160a01b0381163b155b6117c15750565b604051635274afe760e01b81526001600160a01b039091166004820152602490fd5b600114156117ba565b6002600154146117fd576002600155565b604051633ee5aeb560e01b8152600490fd5b6040516020810181811067ffffffffffffffff8211176116f95760405260008152906000368137565b919082039182116101f757565b811561184f570490565b634e487b7160e01b600052601260045260246000fd5b90600019818309818302918280831092039180830392146118d657620f424090828211156118c3577fde8f6cefed634549b62c77574f722e1ac57e23f24d8fd5cb790fb65668c26139940990828211900360fa1b910360061c170290565b634e487b7160005260116020526024601cfd5b5050620f424091500490565b620f4240916000198383099280830292838086109503948086039514611975578483111561195c579082910981600003821680920460028082600302188083028203028083028203028083028203028083028203028083028203028092029003029360018380600003040190848311900302920304170290565b82634e487b71600052156003026011186020526024601cfd5b5050906119829250611845565b90565b90916000198383099280830292838086109503948086039514611975578483111561195c579082910981600003821680920460028082600302188083028203028083028203028083028203028083028203028083028203028092029003029360018380600003040190848311900302920304170290565b939092949194611a0a6117ec565b6127106002541461241a576040516323b872dd60e01b60208201523360248201523060448201526064808201879052815260a081019067ffffffffffffffff8211818310176116f957604091909152611a6c906001600160a01b038516611790565b612711600254146123ed57611a95611ae79160405193611a8b856116dd565b8785523691612463565b9182602082015260018060a01b038416604082015251611aca60405193849260208401526060604084015260808301906124e9565b6001600160a01b038516606083015203601f19810183528261172b565b604051632c805af560e21b8152936020856004816001600160a01b0387165afa948515610240576000956123cc575b50604051631f1b131360e31b8152926020846004816001600160a01b0385165afa938415610240576000946123ab575b5060405163613255ab60e01b81526001600160a01b038581166004830152909390602090859060249082907f0000000000000000000000000000000000000000000000000000000000000000165afa93841561024057600094612377575b506040516370a0823160e01b8152306004820152946020866024816001600160a01b0387165afa95861561024057600096612343575b506040516370a0823160e01b8152306004820152946020866024816001600160a01b038d165afa9586156102405760009661230f575b50604051633676633960e21b81526001600160a01b038316600482015260248101829052602081806044810103817f00000000000000000000000000000000000000000000000000000000000000006001600160a01b03165afa8015610240576000906122db575b611c839150826124b9565b60405163095ea7b360e01b60208083018281526001600160a01b037f00000000000000000000000000000000000000000000000000000000000000001660248501526044808501959095529383529092600090611ce160648561172b565b835190826001600160a01b0389165af16000513d826122b6575b50501561225d575b50506001600160a01b038281167f00000000000000000000000000000000000000000000000000000000000000009091160361221457612712600254146121e757604051632e7ff4ef60e11b81523060048201526001600160a01b0390921660248301526044820152608060648201529060209082908190611d899060848301906124e9565b038160007f00000000000000000000000000000000000000000000000000000000000000006001600160a01b03165af18015610240576121af575b50600254936127138514612182576040516370a0823160e01b815230600482015291602090839060249082906001600160a01b03165afa9182156102405760009261214e575b50808210156121315790611e1d91611838565b81810361211357505061271482146120e6576040516370a0823160e01b8152306004820152906020826024816001600160a01b0389165afa918215610240576000926120b2575b506175318314612085578082111561206857617532831461203b57611e8891611838565b9380851061201d575061753314611ff057611ead83826001600160a01b03851661174d565b61753460025414611fc3576040516370a0823160e01b8152306004820152906020826024816001600160a01b0387165afa91821561024057600092611f8c575b5081611f36575b50505061753560025414611f09579060018055565b60405162461bcd60e51b8152602060048201526005602482015264333030303560d81b6044820152606490fd5b7f21fa991d1ca60543187d2a0de62e5ea0ce1a703a3f0021354ae2f9a75dc0e34d90602090611f6f84826001600160a01b03881661174d565b6040519384526001600160a01b03908116941692a3388080611ef4565b90916020823d602011611fbb575b81611fa76020938361172b565b81010312611fb85750519038611eed565b80fd5b3d9150611f9a565b60405162461bcd60e51b81526020600482015260056024820152640ccc0c0c0d60da1b6044820152606490fd5b60405162461bcd60e51b8152602060048201526005602482015264333030303360d81b6044820152606490fd5b84604491604051916347247e7760e11b835260048301526024820152fd5b60405162461bcd60e51b8152602060048201526005602482015264199818181960d91b6044820152606490fd5b60449160405191637506a25d60e11b835260048301526024820152fd5b60405162461bcd60e51b8152602060048201526005602482015264333030303160d81b6044820152606490fd5b90916020823d6020116120de575b816120cd6020938361172b565b81010312611fb85750519038611e64565b3d91506120c0565b60405162461bcd60e51b81526020600482015260056024820152640c4c0c0c0d60da1b6044820152606490fd5b60449250604051916302d753ed60e61b835260048301526024820152fd5b60449160405191632b9e770560e11b835260048301526024820152fd5b90916020823d60201161217a575b816121696020938361172b565b81010312611fb85750519038611e0a565b3d915061215c565b60405162461bcd60e51b8152602060048201526005602482015264313030303360d81b6044820152606490fd5b6020813d6020116121df575b816121c86020938361172b565b810103126101655751801515036101655738611dc4565b3d91506121bb565b60405162461bcd60e51b8152602060048201526005602482015264189818181960d91b6044820152606490fd5b60405163aaae67a160e01b81526001600160a01b037f00000000000000000000000000000000000000000000000000000000000000008116600483015283166024820152604490fd5b6113716122af9260405190602082015260018060a01b037f000000000000000000000000000000000000000000000000000000000000000016602482015260006044820152604481526113628161170f565b3880611d03565b9091506122d357506001600160a01b0384163b15155b3880611cfb565b6001146122cc565b6020823d602011612307575b816122f46020938361172b565b81010312611fb85750611c839051611c78565b3d91506122e7565b90956020823d60201161233b575b8161232a6020938361172b565b81010312611fb85750519438611c10565b3d915061231d565b90956020823d60201161236f575b8161235e6020938361172b565b81010312611fb85750519438611bda565b3d9150612351565b90936020823d6020116123a3575b816123926020938361172b565b81010312611fb85750519238611ba4565b3d9150612385565b6123c591945060203d6020116105f7576105e8818361172b565b9238611b46565b6123e691955060203d6020116105f7576105e8818361172b565b9338611b16565b60405162461bcd60e51b8152602060048201526005602482015264313030303160d81b6044820152606490fd5b60405162461bcd60e51b8152602060048201526005602482015264031303030360dc1b6044820152606490fd5b67ffffffffffffffff81116116f957601f01601f191660200190565b92919261246f82612447565b9161247d604051938461172b565b829481845281830111610165578281602093846000960137010152565b9081602091031261016557516001600160a01b03811681036101655790565b919082018092116101f757565b60005b8381106124d95750506000910152565b81810151838201526020016124c9565b90602091612502815180928185528580860191016124c6565b601f01601f1916010190565b156125165750565b60405162461bcd60e51b8152602060048201529081906115169060248301906124e9565b9190916040519061254a826116dd565b60208201600081526040830191600083528395818110808652612596575b50505081511561258c575050612582906020830151612611565b1515604082015290565b6000905292915050565b61259f91611838565b9052388080612568565b91929092604051936125ba856116dd565b602085016000815260408601916000835286958082118089526125fe575b5050508451156125f357508293506020612582930151612633565b915050600091505290565b61260791611838565b90523880806125d8565b60019180821161262a579061262591611838565b111590565b61262591611838565b9080821161262a579061262591611838565b801561270257600081805b6126ee575061265e81612447565b9061266c604051928361172b565b808252601f1961267b82612447565b013660208401375b809280156126e75760001982019182116101f7578193600a9260309084840682018092116101f757855111156126d15760f81b6001600160f81b03191660001a908401601f01530491612683565b634e487b7160e01b600052603260045260246000fd5b5050905090565b906126fa600a916116ce565b910480612650565b506040516040810181811067ffffffffffffffff8211176116f95760405260018152600360fc1b602082015290565b6040805163415c506960e01b8082529194936001600160a01b0316916020918281600481875afa9081156128985760009161286b575b50600090156127d957508190600487518095819382525afa9485156127cf575060009461279c575b50509161198291926118e2565b81813d83116127c8575b6127b0818361172b565b810103126127c4575192506119823861278f565b8380fd5b503d6127a6565b513d6000823e3d90fd5b9282915091600492879596975193848092637aa7c3c160e01b82525afa93841561286257508293612819575b5050509063ffffffff6119829216906118e2565b9080929350813d831161285b575b612831818361172b565b8101031261285757519063ffffffff82168203611fb8575063ffffffff61198238612805565b5080fd5b503d612827565b513d84823e3d90fd5b908382813d8311612891575b612881818361172b565b81010312611fb857505138612767565b503d612877565b87513d6000823e3d90fd5b90816020910312610165575160ff811681036101655790565b909493928515612904576128d26128d89361290f565b91611985565b620f423f198401908482116101f757611982946128fe926128f892611985565b9161290f565b90611985565b505050505050600090565b604d81116101f757600a0a90565b612710908181029181830414901517156101f757620f424090049056fea2646970667358221220571e1f76af91cb23547e72edfeb0437ec8f1e443b8529c1a507fb50b02108d3664736f6c63430008140033",
  "libraries": {
    "OdosSwapLogic": "0x06367962eb944EB509296d01469945B70AB6459E"
  }
}