{
  "address": "0x44Ed973947100daF6137D61474c01222c932d66e",
  "abi": [
    {
      "inputs": [
        {
          "internalType": "contract IERC3156FlashLender",
          "name": "_flashLender",
          "type": "address"
        },
        {
          "internalType": "contract IOdosRouterV2",
          "name": "_odosRouter",
          "type": "address"
        }
      ],
      "stateMutability": "nonpayable",
      "type": "constructor"
    },
    {
      "inputs": [
        {
          "internalType": "uint256",
          "name": "debtTokenBalanceBeforeDeposit",
          "type": "uint256"
        },
        {
          "internalType": "uint256",
          "name": "debtTokenBalanceAfterDeposit",
          "type": "uint256"
        }
      ],
      "name": "DebtTokenBalanceNotIncreasedAfterDeposit",
      "type": "error"
    },
    {
      "inputs": [
        {
          "internalType": "uint256",
          "name": "debtTokenReceived",
          "type": "uint256"
        },
        {
          "internalType": "uint256",
          "name": "debtTokenUsed",
          "type": "uint256"
        },
        {
          "internalType": "uint256",
          "name": "flashLoanFee",
          "type": "uint256"
        }
      ],
      "name": "DebtTokenReceivedNotMetUsedAmountWithFlashLoanFee",
      "type": "error"
    },
    {
      "inputs": [
        {
          "internalType": "uint256",
          "name": "estimatedOverallSlippageBps",
          "type": "uint256"
        }
      ],
      "name": "EstimatedOverallSlippageBpsCannotExceedOneHundredPercent",
      "type": "error"
    },
    {
      "inputs": [
        {
          "internalType": "uint256",
          "name": "currentEstimatedShares",
          "type": "uint256"
        },
        {
          "internalType": "uint256",
          "name": "minOutputShares",
          "type": "uint256"
        }
      ],
      "name": "EstimatedSharesLessThanMinOutputShares",
      "type": "error"
    },
    {
      "inputs": [
        {
          "internalType": "address",
          "name": "flashLender",
          "type": "address"
        },
        {
          "internalType": "address",
          "name": "debtToken",
          "type": "address"
        }
      ],
      "name": "FlashLenderNotSameAsDebtToken",
      "type": "error"
    },
    {
      "inputs": [
        {
          "internalType": "address",
          "name": "currentDebtToken",
          "type": "address"
        },
        {
          "internalType": "address",
          "name": "dLoopCoreDebtToken",
          "type": "address"
        }
      ],
      "name": "IncompatibleDLoopCoreDebtToken",
      "type": "error"
    },
    {
      "inputs": [
        {
          "internalType": "uint256",
          "name": "inputTokenBalanceBefore",
          "type": "uint256"
        },
        {
          "internalType": "uint256",
          "name": "inputTokenBalanceAfter",
          "type": "uint256"
        }
      ],
      "name": "InputTokenBalanceDoesNotDecreaseAfterSwap",
      "type": "error"
    },
    {
      "inputs": [
        {
          "internalType": "uint256",
          "name": "leveragedCollateralAmount",
          "type": "uint256"
        },
        {
          "internalType": "uint256",
          "name": "assets",
          "type": "uint256"
        }
      ],
      "name": "LeveragedCollateralAmountLessThanAssets",
      "type": "error"
    },
    {
      "inputs": [
        {
          "internalType": "uint256",
          "name": "leveragedCollateralAmount",
          "type": "uint256"
        },
        {
          "internalType": "uint256",
          "name": "depositCollateralAmount",
          "type": "uint256"
        }
      ],
      "name": "LeveragedCollateralAmountLessThanDepositCollateralAmount",
      "type": "error"
    },
    {
      "inputs": [
        {
          "internalType": "uint256",
          "name": "outputTokenBalanceBefore",
          "type": "uint256"
        },
        {
          "internalType": "uint256",
          "name": "outputTokenBalanceAfter",
          "type": "uint256"
        }
      ],
      "name": "OutputTokenBalanceNotIncreasedAfterSwap",
      "type": "error"
    },
    {
      "inputs": [
        {
          "internalType": "address",
          "name": "owner",
          "type": "address"
        }
      ],
      "name": "OwnableInvalidOwner",
      "type": "error"
    },
    {
      "inputs": [
        {
          "internalType": "address",
          "name": "account",
          "type": "address"
        }
      ],
      "name": "OwnableUnauthorizedAccount",
      "type": "error"
    },
    {
      "inputs": [
        {
          "internalType": "uint256",
          "name": "receivedOutputTokenAmount",
          "type": "uint256"
        },
        {
          "internalType": "uint256",
          "name": "amountOut",
          "type": "uint256"
        }
      ],
      "name": "ReceivedOutputTokenAmountNotEqualAmountOut",
      "type": "error"
    },
    {
      "inputs": [
        {
          "internalType": "uint256",
          "name": "receivedShares",
          "type": "uint256"
        },
        {
          "internalType": "uint256",
          "name": "minOutputShares",
          "type": "uint256"
        }
      ],
      "name": "ReceivedSharesNotMetMinReceiveAmount",
      "type": "error"
    },
    {
      "inputs": [],
      "name": "ReentrancyGuardReentrantCall",
      "type": "error"
    },
    {
      "inputs": [
        {
          "internalType": "address",
          "name": "token",
          "type": "address"
        }
      ],
      "name": "SafeERC20FailedOperation",
      "type": "error"
    },
    {
      "inputs": [
        {
          "internalType": "uint256",
          "name": "sharesBeforeDeposit",
          "type": "uint256"
        },
        {
          "internalType": "uint256",
          "name": "sharesAfterDeposit",
          "type": "uint256"
        }
      ],
      "name": "SharesNotIncreasedAfterFlashLoan",
      "type": "error"
    },
    {
      "inputs": [
        {
          "internalType": "uint256",
          "name": "slippageBps",
          "type": "uint256"
        }
      ],
      "name": "SlippageBpsCannotExceedOneHundredPercent",
      "type": "error"
    },
    {
      "inputs": [
        {
          "internalType": "uint256",
          "name": "spentInputTokenAmount",
          "type": "uint256"
        },
        {
          "internalType": "uint256",
          "name": "amountInMaximum",
          "type": "uint256"
        }
      ],
      "name": "SpentInputTokenAmountGreaterThanAmountInMaximum",
      "type": "error"
    },
    {
      "inputs": [
        {
          "internalType": "uint256",
          "name": "spentInputTokenAmount",
          "type": "uint256"
        },
        {
          "internalType": "uint256",
          "name": "returnedAmountIn",
          "type": "uint256"
        }
      ],
      "name": "SpentInputTokenAmountNotEqualReturnedAmountIn",
      "type": "error"
    },
    {
      "inputs": [
        {
          "internalType": "address",
          "name": "initiator",
          "type": "address"
        },
        {
          "internalType": "address",
          "name": "thisContract",
          "type": "address"
        }
      ],
      "name": "UnknownInitiator",
      "type": "error"
    },
    {
      "inputs": [
        {
          "internalType": "address",
          "name": "msgSender",
          "type": "address"
        },
        {
          "internalType": "address",
          "name": "flashLender",
          "type": "address"
        }
      ],
      "name": "UnknownLender",
      "type": "error"
    },
    {
      "anonymous": false,
      "inputs": [
        {
          "indexed": true,
          "internalType": "address",
          "name": "collateralToken",
          "type": "address"
        },
        {
          "indexed": false,
          "internalType": "uint256",
          "name": "amount",
          "type": "uint256"
        },
        {
          "indexed": true,
          "internalType": "address",
          "name": "receiver",
          "type": "address"
        }
      ],
      "name": "LeftoverCollateralTokensTransferred",
      "type": "event"
    },
    {
      "anonymous": false,
      "inputs": [
        {
          "indexed": true,
          "internalType": "address",
          "name": "debtToken",
          "type": "address"
        },
        {
          "indexed": false,
          "internalType": "uint256",
          "name": "amount",
          "type": "uint256"
        },
        {
          "indexed": true,
          "internalType": "address",
          "name": "receiver",
          "type": "address"
        }
      ],
      "name": "LeftoverDebtTokensTransferred",
      "type": "event"
    },
    {
      "anonymous": false,
      "inputs": [
        {
          "indexed": true,
          "internalType": "address",
          "name": "previousOwner",
          "type": "address"
        },
        {
          "indexed": true,
          "internalType": "address",
          "name": "newOwner",
          "type": "address"
        }
      ],
      "name": "OwnershipTransferred",
      "type": "event"
    },
    {
      "inputs": [],
      "name": "BALANCE_DIFF_TOLERANCE",
      "outputs": [
        {
          "internalType": "uint256",
          "name": "",
          "type": "uint256"
        }
      ],
      "stateMutability": "view",
      "type": "function"
    },
    {
      "inputs": [],
      "name": "FLASHLOAN_CALLBACK",
      "outputs": [
        {
          "internalType": "bytes32",
          "name": "",
          "type": "bytes32"
        }
      ],
      "stateMutability": "view",
      "type": "function"
    },
    {
      "inputs": [
        {
          "internalType": "uint256",
          "name": "depositAmount",
          "type": "uint256"
        },
        {
          "internalType": "uint256",
          "name": "slippageBps",
          "type": "uint256"
        },
        {
          "internalType": "contract DLoopCoreBase",
          "name": "dLoopCore",
          "type": "address"
        }
      ],
      "name": "calculateMinOutputShares",
      "outputs": [
        {
          "internalType": "uint256",
          "name": "",
          "type": "uint256"
        }
      ],
      "stateMutability": "view",
      "type": "function"
    },
    {
      "inputs": [
        {
          "internalType": "uint256",
          "name": "assets",
          "type": "uint256"
        },
        {
          "internalType": "address",
          "name": "receiver",
          "type": "address"
        },
        {
          "internalType": "uint256",
          "name": "minOutputShares",
          "type": "uint256"
        },
        {
          "internalType": "bytes",
          "name": "debtTokenToCollateralSwapData",
          "type": "bytes"
        },
        {
          "internalType": "contract DLoopCoreBase",
          "name": "dLoopCore",
          "type": "address"
        }
      ],
      "name": "deposit",
      "outputs": [
        {
          "internalType": "uint256",
          "name": "shares",
          "type": "uint256"
        }
      ],
      "stateMutability": "nonpayable",
      "type": "function"
    },
    {
      "inputs": [
        {
          "internalType": "uint256",
          "name": "assets",
          "type": "uint256"
        },
        {
          "internalType": "uint256",
          "name": "minOutputShares",
          "type": "uint256"
        },
        {
          "internalType": "contract DLoopCoreBase",
          "name": "dLoopCore",
          "type": "address"
        }
      ],
      "name": "estimateFlashLoanSwapOutputCollateralAmount",
      "outputs": [
        {
          "internalType": "uint256",
          "name": "",
          "type": "uint256"
        }
      ],
      "stateMutability": "view",
      "type": "function"
    },
    {
      "inputs": [],
      "name": "flashLender",
      "outputs": [
        {
          "internalType": "contract IERC3156FlashLender",
          "name": "",
          "type": "address"
        }
      ],
      "stateMutability": "view",
      "type": "function"
    },
    {
      "inputs": [],
      "name": "getRestrictedRescueTokens",
      "outputs": [
        {
          "internalType": "address[]",
          "name": "restrictedTokens",
          "type": "address[]"
        }
      ],
      "stateMutability": "view",
      "type": "function"
    },
    {
      "inputs": [],
      "name": "odosRouter",
      "outputs": [
        {
          "internalType": "contract IOdosRouterV2",
          "name": "",
          "type": "address"
        }
      ],
      "stateMutability": "view",
      "type": "function"
    },
    {
      "inputs": [
        {
          "internalType": "address",
          "name": "initiator",
          "type": "address"
        },
        {
          "internalType": "address",
          "name": "token",
          "type": "address"
        },
        {
          "internalType": "uint256",
          "name": "",
          "type": "uint256"
        },
        {
          "internalType": "uint256",
          "name": "flashLoanFee",
          "type": "uint256"
        },
        {
          "internalType": "bytes",
          "name": "data",
          "type": "bytes"
        }
      ],
      "name": "onFlashLoan",
      "outputs": [
        {
          "internalType": "bytes32",
          "name": "",
          "type": "bytes32"
        }
      ],
      "stateMutability": "nonpayable",
      "type": "function"
    },
    {
      "inputs": [],
      "name": "owner",
      "outputs": [
        {
          "internalType": "address",
          "name": "",
          "type": "address"
        }
      ],
      "stateMutability": "view",
      "type": "function"
    },
    {
      "inputs": [],
      "name": "renounceOwnership",
      "outputs": [],
      "stateMutability": "nonpayable",
      "type": "function"
    },
    {
      "inputs": [
        {
          "internalType": "address",
          "name": "token",
          "type": "address"
        },
        {
          "internalType": "address",
          "name": "receiver",
          "type": "address"
        },
        {
          "internalType": "uint256",
          "name": "amount",
          "type": "uint256"
        }
      ],
      "name": "rescueToken",
      "outputs": [],
      "stateMutability": "nonpayable",
      "type": "function"
    },
    {
      "inputs": [
        {
          "internalType": "uint256",
          "name": "expectedOutputAmount",
          "type": "uint256"
        }
      ],
      "name": "swappedOutputDifferenceToleranceAmount",
      "outputs": [
        {
          "internalType": "uint256",
          "name": "",
          "type": "uint256"
        }
      ],
      "stateMutability": "pure",
      "type": "function"
    },
    {
      "inputs": [
        {
          "internalType": "address",
          "name": "newOwner",
          "type": "address"
        }
      ],
      "name": "transferOwnership",
      "outputs": [],
      "stateMutability": "nonpayable",
      "type": "function"
    }
  ],
  "transactionHash": "0x708badd2e044bce84d0ea84a040674f88fea1a928b90b6a916a0b51d32501fba",
  "args": [
    "0x53a6aBb52B2F968fA80dF6A894e4f1b1020DA975",
    "0xaC041Df48dF9791B0654f1Dbbf2CC8450C5f2e9D"
  ],
  "numDeployments": 1,
  "solcInputHash": "6d4b5439dfc7c369344e82d4b83c3738",
  "bytecode": "0x60c03461011c57601f61213c38819003918201601f19168301916001600160401b0383118484101761012157808492604094855283398101031261011c5780516001600160a01b0391828216820361011c576020015190828216820361011c573315610103576000543360018060a01b0319821617600055604051933391167f8be0079c531659141344cd1fd0a4f28419497f9722a3daafe3b4186f6b6457e0600080a36001805560805260a052612004908161013882396080518181816102b70152818161066d01528181610706015281816107570152818161078d0152818161080101528181610aee0152610dfb015260a051818181610c8801526110ed0152f35b604051631e4fbdf760e01b815260006004820152602490fd5b600080fd5b634e487b7160e01b600052604160045260246000fdfe608080604052600436101561001357600080fd5b60003560e01c90816323e30c8b14610db0575080632ae1810414610d75578063500fc43414610d10578063715018a614610cb75780638321928d14610c7257806387438b6a146103f45780638b7a6dba1461032b5780638da5cb5b146103025780639d00f108146102e6578063a7714458146102a1578063aee5ae6a14610283578063cc66363614610231578063e5711e8b1461014c5763f2fde38b146100b957600080fd5b34610147576020366003190112610147576100d26116ff565b6100da611783565b6001600160a01b0390811690811561012e57600054826bffffffffffffffffffffffff60a01b821617600055167f8be0079c531659141344cd1fd0a4f28419497f9722a3daafe3b4186f6b6457e0600080a3005b604051631e4fbdf760e01b815260006004820152602490fd5b600080fd5b34610147576060366003190112610147576101656116ff565b61016d611715565b90610176611783565b61017e6118a2565b6101866118c5565b906001600160a01b039081169060005b835181101561021e57602082818360051b870101511684146101da575060001981146101c457600101610196565b634e487b7160e01b600052601160045260246000fd5b6064906040519062461bcd60e51b82526004820152601e60248201527f43616e6e6f7420726573637565207265737472696374656420746f6b656e00006044820152fd5b61022b6044358685611803565b60018055005b346101475761024b61024236611759565b90829392611e7c565b8181106102665760209161025e916118ff565b604051908152f35b604491604051916346652e4760e11b835260048301526024820152fd5b3461014757602036600319011261014757602061025e600435611fb1565b34610147576000366003190112610147576040517f00000000000000000000000000000000000000000000000000000000000000006001600160a01b03168152602090f35b3461014757600036600319011261014757602060405160018152f35b34610147576000366003190112610147576000546040516001600160a01b039091168152602090f35b346101475761033936611759565b9091620f424083116103db5761035182602092611d04565b6040516363737ac960e11b8152600481019190915291829060249082906001600160a01b03165afa9081156103cf5760009161039d575b602061025e83610397866118ee565b9061190c565b90506020813d82116103c7575b816103b7602093836117e1565b8101031261014757516020610388565b3d91506103aa565b6040513d6000823e3d90fd5b60405163103b7d4960e11b815260048101849052602490fd5b346101475760a03660031901126101475761040d611715565b60643567ffffffffffffffff81116101475761042d90369060040161172b565b906084356001600160a01b0381169003610147576104496118a2565b604051632c805af560e21b8152906020826004816084356001600160a01b03165afa9182156103cf57600092610c51575b50604051631f1b131360e31b81526020816004816084356001600160a01b03165afa9081156103cf57600091610c22575b506104b4611a5f565b916104bd611a5f565b6001600160a01b0385168085526040516370a0823160e01b815230600482015291969190602090829060249082905afa9081156103cf57600091610bf0575b506020858101919091526001600160a01b0384168088526040516370a0823160e01b8152306004820152929190839060249082905afa80156103cf57600090610bbc575b6106419250602088015261058d6040516323b872dd60e01b602082015233602482015230604482015260043560648201526064815261057e816117af565b6001600160a01b038816611846565b6106226105a1608435604435600435611e7c565b936105d7604051916105b2836117af565b6001600160a01b038c1683526004356020840190815260408401978852943691611aab565b9081606082015260018060a01b0360843516608082015260018060a01b039051169251945160405195869460208601526040850152606084015260a0608084015260c0830190611b12565b6001600160a01b036084351660a083015203601f1981018352826117e1565b60405163613255ab60e01b81526001600160a01b038381166004830152909190602090839060249082907f0000000000000000000000000000000000000000000000000000000000000000165afa9182156103cf57600092610b88575b506040516370a0823160e01b8152306004820152916020836024816084356001600160a01b03165afa9283156103cf57600093610b54575b50604051633676633960e21b81526001600160a01b038516600482015260248101829052602081806044810103817f00000000000000000000000000000000000000000000000000000000000000006001600160a01b03165afa9081156103cf57600091610b20575b5061074d6107809183611ae2565b6001600160a01b037f00000000000000000000000000000000000000000000000000000000000000008116908716611b37565b6001600160a01b038481167f000000000000000000000000000000000000000000000000000000000000000090911603610ad757604051632e7ff4ef60e11b81523060048201526001600160a01b038516602482015260448101919091526080606482015290602090829081906107fb906084830190611b12565b038160007f00000000000000000000000000000000000000000000000000000000000000006001600160a01b03165af180156103cf57610a9f575b506040516370a0823160e01b8152306004820152906020826024816084356001600160a01b03165afa9182156103cf57600092610a6b575b5080821115610a4e576040516370a0823160e01b81523060048201526020816024816001600160a01b038a165afa9081156103cf57600091610a1c575b50604085810191909152516370a0823160e01b8152306004820152916020836024816001600160a01b0388165afa80156103cf576000906109e8575b6108f6935060408801526118ff565b9360443585106109c85792610924868694819461091860209a61093c99611f61565b610988575b5050611f61565b610948575b50506084356001600160a01b0316611803565b60018055604051908152f35b6040519081526001600160a01b038381169216907f21fa991d1ca60543187d2a0de62e5ea0ce1a703a3f0021354ae2f9a75dc0e34d908890a38580610929565b6040519081526001600160a01b038481169216907f858a27e141780954fe5d38ba55127b6c35f8f5904c3a088438a18578d5d71eee908c90a3898061091d565b6040516330cfb95f60e11b81526004810186905260448035602483015290fd5b506020833d602011610a14575b81610a02602093836117e1565b81010312610147576108f692516108e7565b3d91506109f5565b90506020813d602011610a46575b81610a37602093836117e1565b810103126101475751886108ab565b3d9150610a2a565b6044916040519163f51cd51560e01b835260048301526024820152fd5b9091506020813d602011610a97575b81610a87602093836117e1565b810103126101475751908761086e565b3d9150610a7a565b6020813d602011610acf575b81610ab8602093836117e1565b810103126101475751801515036101475786610836565b3d9150610aab565b60405163aaae67a160e01b81526001600160a01b037f00000000000000000000000000000000000000000000000000000000000000008116600483015285166024820152604490fd5b90506020813d602011610b4c575b81610b3b602093836117e1565b81010312610147575161074d61073f565b3d9150610b2e565b9092506020813d602011610b80575b81610b70602093836117e1565b81010312610147575191886106d6565b3d9150610b63565b9091506020813d602011610bb4575b81610ba4602093836117e1565b810103126101475751908761069e565b3d9150610b97565b506020823d602011610be8575b81610bd6602093836117e1565b81010312610147576106419151610540565b3d9150610bc9565b90506020813d602011610c1a575b81610c0b602093836117e1565b810103126101475751886104fc565b3d9150610bfe565b610c44915060203d602011610c4a575b610c3c81836117e1565b810190611a40565b856104ab565b503d610c32565b610c6b91925060203d602011610c4a57610c3c81836117e1565b908461047a565b34610147576000366003190112610147576040517f00000000000000000000000000000000000000000000000000000000000000006001600160a01b03168152602090f35b3461014757600036600319011261014757610cd0611783565b600080546001600160a01b0319811682556001600160a01b03167f8be0079c531659141344cd1fd0a4f28419497f9722a3daafe3b4186f6b6457e08280a3005b3461014757600036600319011261014757610d296118c5565b604051809160208083018184528251809152816040850193019160005b828110610d5557505050500390f35b83516001600160a01b031685528695509381019392810192600101610d46565b346101475760003660031901126101475760206040517f439148f0bbc682ca079e46d6e2c2f0c1e3b820f1a291b069d8882abf8cf18dd98152f35b346101475760a036600319011261014757610dc96116ff565b610dd1611715565b9167ffffffffffffffff9160843583811161014757610df490369060040161172b565b90929091907f00000000000000000000000000000000000000000000000000000000000000006001600160a01b0316338190036116dc575050306001600160a01b038216036116b3575090610e4a913691611aab565b9160405192610e58846117af565b60008452600060208501526000604085015260608085015260006080850152805181019260a082850312610147576020820151916001600160a01b03831683036101475760408101519160608201519160808101519182116101475760208701603f8383010112156101475760208282010151916020610ed784611a8f565b98610ee56040519a8b6117e1565b848a52016040848385010101116101475760a092610f0c91604060208b0191850101611aef565b0151946001600160a01b03861686036101475760018060a01b038616608088015260608701526040860152602085015260018060a01b0316835260405190632c805af560e21b825260208260048160018060a01b0387165afa9182156103cf57600092611690575b50604051631f1b131360e31b81529192602090839060049082906001600160a01b03165afa9182156103cf5760009261166f575b506001600160a01b0382811690821603611646575060408301516020840151808210611628575050610fe360408401516020850151906118ff565b60608401516040516370a0823160e01b8152306004820152909491906020816024816001600160a01b0388165afa9081156103cf576000916115f6575b506040516370a0823160e01b8152306004820152956020876024816001600160a01b038a165afa9687156103cf576000976115c2575b506040516370a0823160e01b8152306004820152906020826024816001600160a01b038a165afa9182156103cf5760009261158d575b506040516304ecaec960e31b81526001600160a01b038781166004830152881660248201526044810185905260001960648201523060848201524260a482015261010060c482015290602090829081906110eb90610104830190611b12565b7f00000000000000000000000000000000000000000000000000000000000000006001600160a01b031660e4830152038173555cD8Ab1933a97D26821823693F974abe144Cf25af480156103cf57611562575b506040516370a0823160e01b8152306004820152906020826024816001600160a01b038a165afa9182156103cf5760009261152e575b50808210156115115790611187916118ff565b6040516370a0823160e01b81523060048201529096906020816024816001600160a01b038a165afa9081156103cf576000916114df575b506040516370a0823160e01b8152306004820152906020826024816001600160a01b038c165afa9384156103cf5789926000956114a4575b50906112029291611c2a565b8051611478575b5061121383611fb1565b600101806001116101c45761122a90848484611c82565b9182511561145b5750506040810151156114385750506040516370a0823160e01b8152306004820152926020846024816001600160a01b0387165afa9384156103cf57600094611403575b5060808201516040830151600093602093909261129f92916001600160a01b039182169116611b37565b6044604060018060a01b036080840151169201516040519485938492636e553f6560e01b845260048401523060248401525af180156103cf576113d8575b506040516370a0823160e01b815230600482015290602090829060249082906001600160a01b03165afa9081156103cf576000916113a6575b50818111156113885790611329916118ff565b6064356113368184611ae2565b82106113665760206040517f439148f0bbc682ca079e46d6e2c2f0c1e3b820f1a291b069d8882abf8cf18dd98152f35b60649260405192630901cbd360e21b8452600484015260248301526044820152fd5b6044925060405191633780efc760e21b835260048301526024820152fd5b90506020813d6020116113d0575b816113c1602093836117e1565b81010312610147575183611316565b3d91506113b4565b602090813d83116113fc575b6113ee81836117e1565b8101031261014757836112dd565b503d6113e4565b9093506020813d602011611430575b8161141f602093836117e1565b810103126101475751926000611275565b3d9150611412565b90602060449201519060405191638919e25360e01b835260048301526024820152fd5b60449250604051916204bb6760e81b835260048301526024820152fd5b60408101516112095787602060449201519060405191637654e04760e11b835260048301526024820152fd5b91925093506020813d6020116114d7575b816114c2602093836117e1565b810103126101475751928891906112026111f6565b3d91506114b5565b90506020813d602011611509575b816114fa602093836117e1565b810103126101475751886111be565b3d91506114ed565b6044916040519163b9a3476560e01b835260048301526024820152fd5b9091506020813d60201161155a575b8161154a602093836117e1565b8101031261014757519088611174565b3d915061153d565b602090813d8311611586575b61157881836117e1565b81010312610147578761113e565b503d61156e565b9091506020813d6020116115ba575b816115a9602093836117e1565b81010312610147575190602061108c565b3d915061159c565b9096506020813d6020116115ee575b816115de602093836117e1565b8101031261014757519587611056565b3d91506115d1565b90506020813d602011611620575b81611611602093836117e1565b81010312610147575186611020565b3d9150611604565b6044925060405191635195adaf60e11b835260048301526024820152fd5b60405163c7f1118d60e01b81526001600160a01b03918216600482015291166024820152604490fd5b61168991925060203d602011610c4a57610c3c81836117e1565b9084610fa8565b600492506116ac602091823d8411610c4a57610c3c81836117e1565b9250610f74565b604051636705ec4760e11b81526001600160a01b03919091166004820152306024820152604490fd5b631a01026f60e01b82523360048301526001600160a01b03166024820152604490fd5b600435906001600160a01b038216820361014757565b602435906001600160a01b038216820361014757565b9181601f840112156101475782359167ffffffffffffffff8311610147576020838186019501011161014757565b60609060031901126101475760043590602435906044356001600160a01b03811681036101475790565b6000546001600160a01b0316330361179757565b60405163118cdaa760e01b8152336004820152602490fd5b60a0810190811067ffffffffffffffff8211176117cb57604052565b634e487b7160e01b600052604160045260246000fd5b90601f8019910116810190811067ffffffffffffffff8211176117cb57604052565b60405163a9059cbb60e01b60208201526001600160a01b039290921660248301526044808301939093529181526118449161183f6064836117e1565b611846565b565b906000602091828151910182855af1156103cf576000513d61189957506001600160a01b0381163b155b6118775750565b604051635274afe760e01b81526001600160a01b039091166004820152602490fd5b60011415611870565b6002600154146118b3576002600155565b604051633ee5aeb560e01b8152600490fd5b6040516020810181811067ffffffffffffffff8211176117cb5760405260008152906000368137565b90620f42409182039182116101c457565b919082039182116101c457565b906000198183098183029182808310920391808303921461197d57620f4240908282111561196a577fde8f6cefed634549b62c77574f722e1ac57e23f24d8fd5cb790fb65668c26139940990828211900360fa1b910360061c170290565b634e487b7160005260116020526024601cfd5b5050620f424091500490565b620f4240916000198383099280830292838086109503948086039514611a1c5784831115611a03579082910981600003821680920460028082600302188083028203028083028203028083028203028083028203028083028203028092029003029360018380600003040190848311900302920304170290565b82634e487b71600052156003026011186020526024601cfd5b505080925015611a2a570490565b634e487b7160e01b600052601260045260246000fd5b9081602091031261014757516001600160a01b03811681036101475790565b604051906060820182811067ffffffffffffffff8211176117cb5760405260006040838281528260208201520152565b67ffffffffffffffff81116117cb57601f01601f191660200190565b929192611ab782611a8f565b91611ac560405193846117e1565b829481845281830111610147578281602093846000960137010152565b919082018092116101c457565b60005b838110611b025750506000910152565b8181015183820152602001611af2565b90602091611b2b81518092818552858086019101611aef565b601f01601f1916010190565b60405163095ea7b360e01b602082018181526001600160a01b038516602484015260448084019690965294825294939092611b736064856117e1565b60206000809386519082875af182513d82611c05575b505015611b99575b505050509050565b60405160208101969096526001600160a01b0316602486015260448086018290528552608085019067ffffffffffffffff821186831017611bf15750611be7939461183f9160405282611846565b8038808080611b91565b634e487b7160e01b81526041600452602490fd5b909150611c2257506001600160a01b0383163b15155b3880611b89565b600114611c1b565b919091611c35611a5f565b92818110808552611c6d575b5050815115611c6257611c58906020830151611cd0565b1515604082015290565b506000604082015290565b611c76916118ff565b60208301523880611c41565b9290611c8c611a5f565b93808211808652611cbb575b5050825115611caf57611c58916020840151611cf2565b50506000604082015290565b611cc4916118ff565b60208401523880611c98565b600191808211611ce95790611ce4916118ff565b111590565b611ce4916118ff565b90808211611ce95790611ce4916118ff565b6040805163415c506960e01b8082529194936001600160a01b0316916020918281600481875afa908115611e7157600091611e44575b5060009015611daf57508190600487518095819382525afa948515611da55750600094611d72575b505091611d6f919261190c565b90565b81813d8311611d9e575b611d8681836117e1565b81010312611d9a57519250611d6f38611d62565b8380fd5b503d611d7c565b513d6000823e3d90fd5b9282915091600492879596975193848092637aa7c3c160e01b82525afa938415611e3b57508293611def575b5050509063ffffffff611d6f92169061190c565b9080929350813d8311611e34575b611e0781836117e1565b81010312611e3057519063ffffffff82168203611e2d575063ffffffff611d6f38611ddb565b80fd5b5080fd5b503d611dfd565b513d84823e3d90fd5b908382813d8311611e6a575b611e5a81836117e1565b81010312611e2d57505138611d3a565b503d611e50565b87513d6000823e3d90fd5b906020611e8e84602494969596611d04565b6040516363737ac960e11b81526004810182905290959093849182906001600160a01b03165afa9182156103cf57600092611f2e575b50808210611f105790611eda611edf92826118ff565b611989565b91620f42408311611ef757610397611d6f92936118ee565b60405163cc1d13b160e01b815260048101849052602490fd5b60449250604051916303a4989b60e21b835260048301526024820152fd5b90916020823d8211611f59575b81611f48602093836117e1565b81010312611e2d5750519038611ec4565b3d9150611f3b565b604081015160208201518103908111159392908402918480611fa8575b611f8f575050509050600090600090565b51611fa49183916001600160a01b0316611803565b9190565b50821515611f7e565b612710908181029181830414901517156101c457620f424090049056fea264697066735822122048e4d75911bf064be6d75ad6c56274ad72ebf4d7a33252510e654b7e4a5795ac64736f6c63430008140033",
  "deployedBytecode": "0x608080604052600436101561001357600080fd5b60003560e01c90816323e30c8b14610db0575080632ae1810414610d75578063500fc43414610d10578063715018a614610cb75780638321928d14610c7257806387438b6a146103f45780638b7a6dba1461032b5780638da5cb5b146103025780639d00f108146102e6578063a7714458146102a1578063aee5ae6a14610283578063cc66363614610231578063e5711e8b1461014c5763f2fde38b146100b957600080fd5b34610147576020366003190112610147576100d26116ff565b6100da611783565b6001600160a01b0390811690811561012e57600054826bffffffffffffffffffffffff60a01b821617600055167f8be0079c531659141344cd1fd0a4f28419497f9722a3daafe3b4186f6b6457e0600080a3005b604051631e4fbdf760e01b815260006004820152602490fd5b600080fd5b34610147576060366003190112610147576101656116ff565b61016d611715565b90610176611783565b61017e6118a2565b6101866118c5565b906001600160a01b039081169060005b835181101561021e57602082818360051b870101511684146101da575060001981146101c457600101610196565b634e487b7160e01b600052601160045260246000fd5b6064906040519062461bcd60e51b82526004820152601e60248201527f43616e6e6f7420726573637565207265737472696374656420746f6b656e00006044820152fd5b61022b6044358685611803565b60018055005b346101475761024b61024236611759565b90829392611e7c565b8181106102665760209161025e916118ff565b604051908152f35b604491604051916346652e4760e11b835260048301526024820152fd5b3461014757602036600319011261014757602061025e600435611fb1565b34610147576000366003190112610147576040517f00000000000000000000000000000000000000000000000000000000000000006001600160a01b03168152602090f35b3461014757600036600319011261014757602060405160018152f35b34610147576000366003190112610147576000546040516001600160a01b039091168152602090f35b346101475761033936611759565b9091620f424083116103db5761035182602092611d04565b6040516363737ac960e11b8152600481019190915291829060249082906001600160a01b03165afa9081156103cf5760009161039d575b602061025e83610397866118ee565b9061190c565b90506020813d82116103c7575b816103b7602093836117e1565b8101031261014757516020610388565b3d91506103aa565b6040513d6000823e3d90fd5b60405163103b7d4960e11b815260048101849052602490fd5b346101475760a03660031901126101475761040d611715565b60643567ffffffffffffffff81116101475761042d90369060040161172b565b906084356001600160a01b0381169003610147576104496118a2565b604051632c805af560e21b8152906020826004816084356001600160a01b03165afa9182156103cf57600092610c51575b50604051631f1b131360e31b81526020816004816084356001600160a01b03165afa9081156103cf57600091610c22575b506104b4611a5f565b916104bd611a5f565b6001600160a01b0385168085526040516370a0823160e01b815230600482015291969190602090829060249082905afa9081156103cf57600091610bf0575b506020858101919091526001600160a01b0384168088526040516370a0823160e01b8152306004820152929190839060249082905afa80156103cf57600090610bbc575b6106419250602088015261058d6040516323b872dd60e01b602082015233602482015230604482015260043560648201526064815261057e816117af565b6001600160a01b038816611846565b6106226105a1608435604435600435611e7c565b936105d7604051916105b2836117af565b6001600160a01b038c1683526004356020840190815260408401978852943691611aab565b9081606082015260018060a01b0360843516608082015260018060a01b039051169251945160405195869460208601526040850152606084015260a0608084015260c0830190611b12565b6001600160a01b036084351660a083015203601f1981018352826117e1565b60405163613255ab60e01b81526001600160a01b038381166004830152909190602090839060249082907f0000000000000000000000000000000000000000000000000000000000000000165afa9182156103cf57600092610b88575b506040516370a0823160e01b8152306004820152916020836024816084356001600160a01b03165afa9283156103cf57600093610b54575b50604051633676633960e21b81526001600160a01b038516600482015260248101829052602081806044810103817f00000000000000000000000000000000000000000000000000000000000000006001600160a01b03165afa9081156103cf57600091610b20575b5061074d6107809183611ae2565b6001600160a01b037f00000000000000000000000000000000000000000000000000000000000000008116908716611b37565b6001600160a01b038481167f000000000000000000000000000000000000000000000000000000000000000090911603610ad757604051632e7ff4ef60e11b81523060048201526001600160a01b038516602482015260448101919091526080606482015290602090829081906107fb906084830190611b12565b038160007f00000000000000000000000000000000000000000000000000000000000000006001600160a01b03165af180156103cf57610a9f575b506040516370a0823160e01b8152306004820152906020826024816084356001600160a01b03165afa9182156103cf57600092610a6b575b5080821115610a4e576040516370a0823160e01b81523060048201526020816024816001600160a01b038a165afa9081156103cf57600091610a1c575b50604085810191909152516370a0823160e01b8152306004820152916020836024816001600160a01b0388165afa80156103cf576000906109e8575b6108f6935060408801526118ff565b9360443585106109c85792610924868694819461091860209a61093c99611f61565b610988575b5050611f61565b610948575b50506084356001600160a01b0316611803565b60018055604051908152f35b6040519081526001600160a01b038381169216907f21fa991d1ca60543187d2a0de62e5ea0ce1a703a3f0021354ae2f9a75dc0e34d908890a38580610929565b6040519081526001600160a01b038481169216907f858a27e141780954fe5d38ba55127b6c35f8f5904c3a088438a18578d5d71eee908c90a3898061091d565b6040516330cfb95f60e11b81526004810186905260448035602483015290fd5b506020833d602011610a14575b81610a02602093836117e1565b81010312610147576108f692516108e7565b3d91506109f5565b90506020813d602011610a46575b81610a37602093836117e1565b810103126101475751886108ab565b3d9150610a2a565b6044916040519163f51cd51560e01b835260048301526024820152fd5b9091506020813d602011610a97575b81610a87602093836117e1565b810103126101475751908761086e565b3d9150610a7a565b6020813d602011610acf575b81610ab8602093836117e1565b810103126101475751801515036101475786610836565b3d9150610aab565b60405163aaae67a160e01b81526001600160a01b037f00000000000000000000000000000000000000000000000000000000000000008116600483015285166024820152604490fd5b90506020813d602011610b4c575b81610b3b602093836117e1565b81010312610147575161074d61073f565b3d9150610b2e565b9092506020813d602011610b80575b81610b70602093836117e1565b81010312610147575191886106d6565b3d9150610b63565b9091506020813d602011610bb4575b81610ba4602093836117e1565b810103126101475751908761069e565b3d9150610b97565b506020823d602011610be8575b81610bd6602093836117e1565b81010312610147576106419151610540565b3d9150610bc9565b90506020813d602011610c1a575b81610c0b602093836117e1565b810103126101475751886104fc565b3d9150610bfe565b610c44915060203d602011610c4a575b610c3c81836117e1565b810190611a40565b856104ab565b503d610c32565b610c6b91925060203d602011610c4a57610c3c81836117e1565b908461047a565b34610147576000366003190112610147576040517f00000000000000000000000000000000000000000000000000000000000000006001600160a01b03168152602090f35b3461014757600036600319011261014757610cd0611783565b600080546001600160a01b0319811682556001600160a01b03167f8be0079c531659141344cd1fd0a4f28419497f9722a3daafe3b4186f6b6457e08280a3005b3461014757600036600319011261014757610d296118c5565b604051809160208083018184528251809152816040850193019160005b828110610d5557505050500390f35b83516001600160a01b031685528695509381019392810192600101610d46565b346101475760003660031901126101475760206040517f439148f0bbc682ca079e46d6e2c2f0c1e3b820f1a291b069d8882abf8cf18dd98152f35b346101475760a036600319011261014757610dc96116ff565b610dd1611715565b9167ffffffffffffffff9160843583811161014757610df490369060040161172b565b90929091907f00000000000000000000000000000000000000000000000000000000000000006001600160a01b0316338190036116dc575050306001600160a01b038216036116b3575090610e4a913691611aab565b9160405192610e58846117af565b60008452600060208501526000604085015260608085015260006080850152805181019260a082850312610147576020820151916001600160a01b03831683036101475760408101519160608201519160808101519182116101475760208701603f8383010112156101475760208282010151916020610ed784611a8f565b98610ee56040519a8b6117e1565b848a52016040848385010101116101475760a092610f0c91604060208b0191850101611aef565b0151946001600160a01b03861686036101475760018060a01b038616608088015260608701526040860152602085015260018060a01b0316835260405190632c805af560e21b825260208260048160018060a01b0387165afa9182156103cf57600092611690575b50604051631f1b131360e31b81529192602090839060049082906001600160a01b03165afa9182156103cf5760009261166f575b506001600160a01b0382811690821603611646575060408301516020840151808210611628575050610fe360408401516020850151906118ff565b60608401516040516370a0823160e01b8152306004820152909491906020816024816001600160a01b0388165afa9081156103cf576000916115f6575b506040516370a0823160e01b8152306004820152956020876024816001600160a01b038a165afa9687156103cf576000976115c2575b506040516370a0823160e01b8152306004820152906020826024816001600160a01b038a165afa9182156103cf5760009261158d575b506040516304ecaec960e31b81526001600160a01b038781166004830152881660248201526044810185905260001960648201523060848201524260a482015261010060c482015290602090829081906110eb90610104830190611b12565b7f00000000000000000000000000000000000000000000000000000000000000006001600160a01b031660e4830152038173__$73ace4aa8e5f9c1a2b48f796123ca85165$__5af480156103cf57611562575b506040516370a0823160e01b8152306004820152906020826024816001600160a01b038a165afa9182156103cf5760009261152e575b50808210156115115790611187916118ff565b6040516370a0823160e01b81523060048201529096906020816024816001600160a01b038a165afa9081156103cf576000916114df575b506040516370a0823160e01b8152306004820152906020826024816001600160a01b038c165afa9384156103cf5789926000956114a4575b50906112029291611c2a565b8051611478575b5061121383611fb1565b600101806001116101c45761122a90848484611c82565b9182511561145b5750506040810151156114385750506040516370a0823160e01b8152306004820152926020846024816001600160a01b0387165afa9384156103cf57600094611403575b5060808201516040830151600093602093909261129f92916001600160a01b039182169116611b37565b6044604060018060a01b036080840151169201516040519485938492636e553f6560e01b845260048401523060248401525af180156103cf576113d8575b506040516370a0823160e01b815230600482015290602090829060249082906001600160a01b03165afa9081156103cf576000916113a6575b50818111156113885790611329916118ff565b6064356113368184611ae2565b82106113665760206040517f439148f0bbc682ca079e46d6e2c2f0c1e3b820f1a291b069d8882abf8cf18dd98152f35b60649260405192630901cbd360e21b8452600484015260248301526044820152fd5b6044925060405191633780efc760e21b835260048301526024820152fd5b90506020813d6020116113d0575b816113c1602093836117e1565b81010312610147575183611316565b3d91506113b4565b602090813d83116113fc575b6113ee81836117e1565b8101031261014757836112dd565b503d6113e4565b9093506020813d602011611430575b8161141f602093836117e1565b810103126101475751926000611275565b3d9150611412565b90602060449201519060405191638919e25360e01b835260048301526024820152fd5b60449250604051916204bb6760e81b835260048301526024820152fd5b60408101516112095787602060449201519060405191637654e04760e11b835260048301526024820152fd5b91925093506020813d6020116114d7575b816114c2602093836117e1565b810103126101475751928891906112026111f6565b3d91506114b5565b90506020813d602011611509575b816114fa602093836117e1565b810103126101475751886111be565b3d91506114ed565b6044916040519163b9a3476560e01b835260048301526024820152fd5b9091506020813d60201161155a575b8161154a602093836117e1565b8101031261014757519088611174565b3d915061153d565b602090813d8311611586575b61157881836117e1565b81010312610147578761113e565b503d61156e565b9091506020813d6020116115ba575b816115a9602093836117e1565b81010312610147575190602061108c565b3d915061159c565b9096506020813d6020116115ee575b816115de602093836117e1565b8101031261014757519587611056565b3d91506115d1565b90506020813d602011611620575b81611611602093836117e1565b81010312610147575186611020565b3d9150611604565b6044925060405191635195adaf60e11b835260048301526024820152fd5b60405163c7f1118d60e01b81526001600160a01b03918216600482015291166024820152604490fd5b61168991925060203d602011610c4a57610c3c81836117e1565b9084610fa8565b600492506116ac602091823d8411610c4a57610c3c81836117e1565b9250610f74565b604051636705ec4760e11b81526001600160a01b03919091166004820152306024820152604490fd5b631a01026f60e01b82523360048301526001600160a01b03166024820152604490fd5b600435906001600160a01b038216820361014757565b602435906001600160a01b038216820361014757565b9181601f840112156101475782359167ffffffffffffffff8311610147576020838186019501011161014757565b60609060031901126101475760043590602435906044356001600160a01b03811681036101475790565b6000546001600160a01b0316330361179757565b60405163118cdaa760e01b8152336004820152602490fd5b60a0810190811067ffffffffffffffff8211176117cb57604052565b634e487b7160e01b600052604160045260246000fd5b90601f8019910116810190811067ffffffffffffffff8211176117cb57604052565b60405163a9059cbb60e01b60208201526001600160a01b039290921660248301526044808301939093529181526118449161183f6064836117e1565b611846565b565b906000602091828151910182855af1156103cf576000513d61189957506001600160a01b0381163b155b6118775750565b604051635274afe760e01b81526001600160a01b039091166004820152602490fd5b60011415611870565b6002600154146118b3576002600155565b604051633ee5aeb560e01b8152600490fd5b6040516020810181811067ffffffffffffffff8211176117cb5760405260008152906000368137565b90620f42409182039182116101c457565b919082039182116101c457565b906000198183098183029182808310920391808303921461197d57620f4240908282111561196a577fde8f6cefed634549b62c77574f722e1ac57e23f24d8fd5cb790fb65668c26139940990828211900360fa1b910360061c170290565b634e487b7160005260116020526024601cfd5b5050620f424091500490565b620f4240916000198383099280830292838086109503948086039514611a1c5784831115611a03579082910981600003821680920460028082600302188083028203028083028203028083028203028083028203028083028203028092029003029360018380600003040190848311900302920304170290565b82634e487b71600052156003026011186020526024601cfd5b505080925015611a2a570490565b634e487b7160e01b600052601260045260246000fd5b9081602091031261014757516001600160a01b03811681036101475790565b604051906060820182811067ffffffffffffffff8211176117cb5760405260006040838281528260208201520152565b67ffffffffffffffff81116117cb57601f01601f191660200190565b929192611ab782611a8f565b91611ac560405193846117e1565b829481845281830111610147578281602093846000960137010152565b919082018092116101c457565b60005b838110611b025750506000910152565b8181015183820152602001611af2565b90602091611b2b81518092818552858086019101611aef565b601f01601f1916010190565b60405163095ea7b360e01b602082018181526001600160a01b038516602484015260448084019690965294825294939092611b736064856117e1565b60206000809386519082875af182513d82611c05575b505015611b99575b505050509050565b60405160208101969096526001600160a01b0316602486015260448086018290528552608085019067ffffffffffffffff821186831017611bf15750611be7939461183f9160405282611846565b8038808080611b91565b634e487b7160e01b81526041600452602490fd5b909150611c2257506001600160a01b0383163b15155b3880611b89565b600114611c1b565b919091611c35611a5f565b92818110808552611c6d575b5050815115611c6257611c58906020830151611cd0565b1515604082015290565b506000604082015290565b611c76916118ff565b60208301523880611c41565b9290611c8c611a5f565b93808211808652611cbb575b5050825115611caf57611c58916020840151611cf2565b50506000604082015290565b611cc4916118ff565b60208401523880611c98565b600191808211611ce95790611ce4916118ff565b111590565b611ce4916118ff565b90808211611ce95790611ce4916118ff565b6040805163415c506960e01b8082529194936001600160a01b0316916020918281600481875afa908115611e7157600091611e44575b5060009015611daf57508190600487518095819382525afa948515611da55750600094611d72575b505091611d6f919261190c565b90565b81813d8311611d9e575b611d8681836117e1565b81010312611d9a57519250611d6f38611d62565b8380fd5b503d611d7c565b513d6000823e3d90fd5b9282915091600492879596975193848092637aa7c3c160e01b82525afa938415611e3b57508293611def575b5050509063ffffffff611d6f92169061190c565b9080929350813d8311611e34575b611e0781836117e1565b81010312611e3057519063ffffffff82168203611e2d575063ffffffff611d6f38611ddb565b80fd5b5080fd5b503d611dfd565b513d84823e3d90fd5b908382813d8311611e6a575b611e5a81836117e1565b81010312611e2d57505138611d3a565b503d611e50565b87513d6000823e3d90fd5b906020611e8e84602494969596611d04565b6040516363737ac960e11b81526004810182905290959093849182906001600160a01b03165afa9182156103cf57600092611f2e575b50808210611f105790611eda611edf92826118ff565b611989565b91620f42408311611ef757610397611d6f92936118ee565b60405163cc1d13b160e01b815260048101849052602490fd5b60449250604051916303a4989b60e21b835260048301526024820152fd5b90916020823d8211611f59575b81611f48602093836117e1565b81010312611e2d5750519038611ec4565b3d9150611f3b565b604081015160208201518103908111159392908402918480611fa8575b611f8f575050509050600090600090565b51611fa49183916001600160a01b0316611803565b9190565b50821515611f7e565b612710908181029181830414901517156101c457620f424090049056fea264697066735822122048e4d75911bf064be6d75ad6c56274ad72ebf4d7a33252510e654b7e4a5795ac64736f6c63430008140033",
  "libraries": {
    "OdosSwapLogic": "0x555cD8Ab1933a97D26821823693F974abe144Cf2"
  }
}