{
  "address": "0xE63df550dB85170fE6293D49d22121bE50f19b3a",
  "abi": [
    {
      "inputs": [
        {
          "internalType": "contract IERC3156FlashLender",
          "name": "_flashLender",
          "type": "address"
        },
        {
          "internalType": "contract IOdosRouterV2",
          "name": "_odosRouter",
          "type": "address"
        }
      ],
      "stateMutability": "nonpayable",
      "type": "constructor"
    },
    {
      "inputs": [
        {
          "internalType": "uint256",
          "name": "debtTokenBalanceBeforeDeposit",
          "type": "uint256"
        },
        {
          "internalType": "uint256",
          "name": "debtTokenBalanceAfterDeposit",
          "type": "uint256"
        }
      ],
      "name": "DebtTokenBalanceNotIncreasedAfterDeposit",
      "type": "error"
    },
    {
      "inputs": [
        {
          "internalType": "uint256",
          "name": "debtTokenReceived",
          "type": "uint256"
        },
        {
          "internalType": "uint256",
          "name": "debtTokenUsed",
          "type": "uint256"
        },
        {
          "internalType": "uint256",
          "name": "flashLoanFee",
          "type": "uint256"
        }
      ],
      "name": "DebtTokenReceivedNotMetUsedAmountWithFlashLoanFee",
      "type": "error"
    },
    {
      "inputs": [
        {
          "internalType": "uint256",
          "name": "estimatedOverallSlippageBps",
          "type": "uint256"
        }
      ],
      "name": "EstimatedOverallSlippageBpsCannotExceedOneHundredPercent",
      "type": "error"
    },
    {
      "inputs": [
        {
          "internalType": "uint256",
          "name": "currentEstimatedShares",
          "type": "uint256"
        },
        {
          "internalType": "uint256",
          "name": "minOutputShares",
          "type": "uint256"
        }
      ],
      "name": "EstimatedSharesLessThanMinOutputShares",
      "type": "error"
    },
    {
      "inputs": [
        {
          "internalType": "address",
          "name": "flashLender",
          "type": "address"
        },
        {
          "internalType": "address",
          "name": "debtToken",
          "type": "address"
        }
      ],
      "name": "FlashLenderNotSameAsDebtToken",
      "type": "error"
    },
    {
      "inputs": [
        {
          "internalType": "address",
          "name": "currentDebtToken",
          "type": "address"
        },
        {
          "internalType": "address",
          "name": "dLoopCoreDebtToken",
          "type": "address"
        }
      ],
      "name": "IncompatibleDLoopCoreDebtToken",
      "type": "error"
    },
    {
      "inputs": [
        {
          "internalType": "uint256",
          "name": "leveragedCollateralAmount",
          "type": "uint256"
        },
        {
          "internalType": "uint256",
          "name": "assets",
          "type": "uint256"
        }
      ],
      "name": "LeveragedCollateralAmountLessThanAssets",
      "type": "error"
    },
    {
      "inputs": [
        {
          "internalType": "uint256",
          "name": "leveragedCollateralAmount",
          "type": "uint256"
        },
        {
          "internalType": "uint256",
          "name": "depositCollateralAmount",
          "type": "uint256"
        }
      ],
      "name": "LeveragedCollateralAmountLessThanDepositCollateralAmount",
      "type": "error"
    },
    {
      "inputs": [
        {
          "internalType": "uint256",
          "name": "outputTokenBalanceBefore",
          "type": "uint256"
        },
        {
          "internalType": "uint256",
          "name": "outputTokenBalanceAfter",
          "type": "uint256"
        }
      ],
      "name": "OutputTokenBalanceNotIncreasedAfterSwap",
      "type": "error"
    },
    {
      "inputs": [
        {
          "internalType": "address",
          "name": "owner",
          "type": "address"
        }
      ],
      "name": "OwnableInvalidOwner",
      "type": "error"
    },
    {
      "inputs": [
        {
          "internalType": "address",
          "name": "account",
          "type": "address"
        }
      ],
      "name": "OwnableUnauthorizedAccount",
      "type": "error"
    },
    {
      "inputs": [
        {
          "internalType": "uint256",
          "name": "receivedOutputTokenAmount",
          "type": "uint256"
        },
        {
          "internalType": "uint256",
          "name": "amountOut",
          "type": "uint256"
        }
      ],
      "name": "ReceivedOutputTokenAmountNotEqualAmountOut",
      "type": "error"
    },
    {
      "inputs": [
        {
          "internalType": "uint256",
          "name": "receivedShares",
          "type": "uint256"
        },
        {
          "internalType": "uint256",
          "name": "minOutputShares",
          "type": "uint256"
        }
      ],
      "name": "ReceivedSharesNotMetMinReceiveAmount",
      "type": "error"
    },
    {
      "inputs": [],
      "name": "ReentrancyGuardReentrantCall",
      "type": "error"
    },
    {
      "inputs": [
        {
          "internalType": "address",
          "name": "token",
          "type": "address"
        }
      ],
      "name": "SafeERC20FailedOperation",
      "type": "error"
    },
    {
      "inputs": [
        {
          "internalType": "uint256",
          "name": "sharesBeforeDeposit",
          "type": "uint256"
        },
        {
          "internalType": "uint256",
          "name": "sharesAfterDeposit",
          "type": "uint256"
        }
      ],
      "name": "SharesNotIncreasedAfterFlashLoan",
      "type": "error"
    },
    {
      "inputs": [
        {
          "internalType": "uint256",
          "name": "slippageBps",
          "type": "uint256"
        }
      ],
      "name": "SlippageBpsCannotExceedOneHundredPercent",
      "type": "error"
    },
    {
      "inputs": [
        {
          "internalType": "uint256",
          "name": "spentInputTokenAmount",
          "type": "uint256"
        },
        {
          "internalType": "uint256",
          "name": "amountInMaximum",
          "type": "uint256"
        }
      ],
      "name": "SpentInputTokenAmountGreaterThanAmountInMaximum",
      "type": "error"
    },
    {
      "inputs": [
        {
          "internalType": "uint256",
          "name": "spentInputTokenAmount",
          "type": "uint256"
        },
        {
          "internalType": "uint256",
          "name": "returnedAmountIn",
          "type": "uint256"
        }
      ],
      "name": "SpentInputTokenAmountNotEqualReturnedAmountIn",
      "type": "error"
    },
    {
      "inputs": [
        {
          "internalType": "address",
          "name": "initiator",
          "type": "address"
        },
        {
          "internalType": "address",
          "name": "thisContract",
          "type": "address"
        }
      ],
      "name": "UnknownInitiator",
      "type": "error"
    },
    {
      "inputs": [
        {
          "internalType": "address",
          "name": "msgSender",
          "type": "address"
        },
        {
          "internalType": "address",
          "name": "flashLender",
          "type": "address"
        }
      ],
      "name": "UnknownLender",
      "type": "error"
    },
    {
      "anonymous": false,
      "inputs": [
        {
          "indexed": true,
          "internalType": "address",
          "name": "collateralToken",
          "type": "address"
        },
        {
          "indexed": false,
          "internalType": "uint256",
          "name": "amount",
          "type": "uint256"
        },
        {
          "indexed": true,
          "internalType": "address",
          "name": "receiver",
          "type": "address"
        }
      ],
      "name": "LeftoverCollateralTokensTransferred",
      "type": "event"
    },
    {
      "anonymous": false,
      "inputs": [
        {
          "indexed": true,
          "internalType": "address",
          "name": "debtToken",
          "type": "address"
        },
        {
          "indexed": false,
          "internalType": "uint256",
          "name": "amount",
          "type": "uint256"
        },
        {
          "indexed": true,
          "internalType": "address",
          "name": "receiver",
          "type": "address"
        }
      ],
      "name": "LeftoverDebtTokensTransferred",
      "type": "event"
    },
    {
      "anonymous": false,
      "inputs": [
        {
          "indexed": true,
          "internalType": "address",
          "name": "previousOwner",
          "type": "address"
        },
        {
          "indexed": true,
          "internalType": "address",
          "name": "newOwner",
          "type": "address"
        }
      ],
      "name": "OwnershipTransferred",
      "type": "event"
    },
    {
      "inputs": [],
      "name": "BALANCE_DIFF_TOLERANCE",
      "outputs": [
        {
          "internalType": "uint256",
          "name": "",
          "type": "uint256"
        }
      ],
      "stateMutability": "view",
      "type": "function"
    },
    {
      "inputs": [],
      "name": "FLASHLOAN_CALLBACK",
      "outputs": [
        {
          "internalType": "bytes32",
          "name": "",
          "type": "bytes32"
        }
      ],
      "stateMutability": "view",
      "type": "function"
    },
    {
      "inputs": [
        {
          "internalType": "uint256",
          "name": "depositAmount",
          "type": "uint256"
        },
        {
          "internalType": "uint256",
          "name": "slippageBps",
          "type": "uint256"
        },
        {
          "internalType": "contract DLoopCoreBase",
          "name": "dLoopCore",
          "type": "address"
        }
      ],
      "name": "calculateMinOutputShares",
      "outputs": [
        {
          "internalType": "uint256",
          "name": "",
          "type": "uint256"
        }
      ],
      "stateMutability": "view",
      "type": "function"
    },
    {
      "inputs": [
        {
          "internalType": "uint256",
          "name": "assets",
          "type": "uint256"
        },
        {
          "internalType": "address",
          "name": "receiver",
          "type": "address"
        },
        {
          "internalType": "uint256",
          "name": "minOutputShares",
          "type": "uint256"
        },
        {
          "internalType": "bytes",
          "name": "debtTokenToCollateralSwapData",
          "type": "bytes"
        },
        {
          "internalType": "contract DLoopCoreBase",
          "name": "dLoopCore",
          "type": "address"
        }
      ],
      "name": "deposit",
      "outputs": [
        {
          "internalType": "uint256",
          "name": "shares",
          "type": "uint256"
        }
      ],
      "stateMutability": "nonpayable",
      "type": "function"
    },
    {
      "inputs": [
        {
          "internalType": "uint256",
          "name": "assets",
          "type": "uint256"
        },
        {
          "internalType": "uint256",
          "name": "minOutputShares",
          "type": "uint256"
        },
        {
          "internalType": "contract DLoopCoreBase",
          "name": "dLoopCore",
          "type": "address"
        }
      ],
      "name": "estimateFlashLoanSwapOutputCollateralAmount",
      "outputs": [
        {
          "internalType": "uint256",
          "name": "",
          "type": "uint256"
        }
      ],
      "stateMutability": "view",
      "type": "function"
    },
    {
      "inputs": [],
      "name": "flashLender",
      "outputs": [
        {
          "internalType": "contract IERC3156FlashLender",
          "name": "",
          "type": "address"
        }
      ],
      "stateMutability": "view",
      "type": "function"
    },
    {
      "inputs": [],
      "name": "getRestrictedRescueTokens",
      "outputs": [
        {
          "internalType": "address[]",
          "name": "restrictedTokens",
          "type": "address[]"
        }
      ],
      "stateMutability": "view",
      "type": "function"
    },
    {
      "inputs": [],
      "name": "odosRouter",
      "outputs": [
        {
          "internalType": "contract IOdosRouterV2",
          "name": "",
          "type": "address"
        }
      ],
      "stateMutability": "view",
      "type": "function"
    },
    {
      "inputs": [
        {
          "internalType": "address",
          "name": "initiator",
          "type": "address"
        },
        {
          "internalType": "address",
          "name": "token",
          "type": "address"
        },
        {
          "internalType": "uint256",
          "name": "",
          "type": "uint256"
        },
        {
          "internalType": "uint256",
          "name": "flashLoanFee",
          "type": "uint256"
        },
        {
          "internalType": "bytes",
          "name": "data",
          "type": "bytes"
        }
      ],
      "name": "onFlashLoan",
      "outputs": [
        {
          "internalType": "bytes32",
          "name": "",
          "type": "bytes32"
        }
      ],
      "stateMutability": "nonpayable",
      "type": "function"
    },
    {
      "inputs": [],
      "name": "owner",
      "outputs": [
        {
          "internalType": "address",
          "name": "",
          "type": "address"
        }
      ],
      "stateMutability": "view",
      "type": "function"
    },
    {
      "inputs": [],
      "name": "renounceOwnership",
      "outputs": [],
      "stateMutability": "nonpayable",
      "type": "function"
    },
    {
      "inputs": [
        {
          "internalType": "address",
          "name": "token",
          "type": "address"
        },
        {
          "internalType": "address",
          "name": "receiver",
          "type": "address"
        },
        {
          "internalType": "uint256",
          "name": "amount",
          "type": "uint256"
        }
      ],
      "name": "rescueToken",
      "outputs": [],
      "stateMutability": "nonpayable",
      "type": "function"
    },
    {
      "inputs": [
        {
          "internalType": "uint256",
          "name": "expectedOutputAmount",
          "type": "uint256"
        }
      ],
      "name": "swappedOutputDifferenceToleranceAmount",
      "outputs": [
        {
          "internalType": "uint256",
          "name": "",
          "type": "uint256"
        }
      ],
      "stateMutability": "pure",
      "type": "function"
    },
    {
      "inputs": [
        {
          "internalType": "address",
          "name": "newOwner",
          "type": "address"
        }
      ],
      "name": "transferOwnership",
      "outputs": [],
      "stateMutability": "nonpayable",
      "type": "function"
    }
  ],
  "transactionHash": "0xc05488d808572eb4c425d5094f45d4e830cbfc45d52d45784db23e97ff8060f4",
  "args": [
    "0x53a6aBb52B2F968fA80dF6A894e4f1b1020DA975",
    "0xaC041Df48dF9791B0654f1Dbbf2CC8450C5f2e9D"
  ],
  "numDeployments": 1,
  "solcInputHash": "aa0e8d477047282a3b838b0f7cf9ef54",
  "bytecode": "0x60c03461011c57601f61207338819003918201601f19168301916001600160401b0383118484101761012157808492604094855283398101031261011c5780516001600160a01b0391828216820361011c576020015190828216820361011c573315610103576000543360018060a01b0319821617600055604051933391167f8be0079c531659141344cd1fd0a4f28419497f9722a3daafe3b4186f6b6457e0600080a36001805560805260a052611f3b908161013882396080518181816102bb015281816106730152818161070a0152818161075a015281816107900152818161080301528181610b0f0152610e43015260a051818181610cce015261111a0152f35b604051631e4fbdf760e01b815260006004820152602490fd5b600080fd5b634e487b7160e01b600052604160045260246000fdfe608080604052600436101561001357600080fd5b600090813560e01c90816323e30c8b14610df8575080632ae1810414610dbd578063500fc43414610d57578063715018a614610cfd5780638321928d14610cb857806387438b6a146103fb5780638b7a6dba1461032d5780638da5cb5b146103065780639d00f108146102ea578063a7714458146102a5578063aee5ae6a14610286578063cc66363614610233578063e5711e8b1461014d5763f2fde38b146100bb57600080fd5b3461014a57602036600319011261014a576100d4611681565b6100dc611705565b6001600160a01b0390811690811561013157600054826bffffffffffffffffffffffff60a01b821617600055167f8be0079c531659141344cd1fd0a4f28419497f9722a3daafe3b4186f6b6457e0600080a380f35b604051631e4fbdf760e01b815260048101849052602490fd5b80fd5b503461014a57606036600319011261014a57610167611681565b90610170611697565b91610179611705565b610181611830565b610189611853565b906001600160a01b0390811690835b835181101561021e57602082818360051b870101511684146101da575060001981146101c657600101610198565b634e487b7160e01b85526011600452602485fd5b6064906040519062461bcd60e51b82526004820152601e60248201527f43616e6e6f7420726573637565207265737472696374656420746f6b656e00006044820152fd5b8461022c6044358886611785565b6001805580f35b503461014a5761024e610245366116db565b90829392611db3565b81811061026957602091610261916118a3565b604051908152f35b604491604051916346652e4760e11b835260048301526024820152fd5b503461014a57602036600319011261014a576020610261600435611ee8565b503461014a578060031936011261014a576040517f00000000000000000000000000000000000000000000000000000000000000006001600160a01b03168152602090f35b503461014a578060031936011261014a57602060405160018152f35b503461014a578060031936011261014a57546040516001600160a01b039091168152602090f35b503461014a5761033c366116db565b909291620f424084116103e25761035582602092611c46565b6040516363737ac960e11b8152600481019190915291829060249082906001600160a01b03165afa9182156103d6579161039f575b6020610261836103998661187c565b906118b0565b90506020813d82116103ce575b816103b960209383611763565b810103126103c95751602061038a565b600080fd5b3d91506103ac565b604051903d90823e3d90fd5b60405163103b7d4960e11b815260048101859052602490fd5b503461014a5760a036600319011261014a57610415611697565b9060643567ffffffffffffffff8111610aec576104369036906004016116ad565b916084356001600160a01b03811690036103c957610452611830565b604051632c805af560e21b8152906020826004816084356001600160a01b03165afa918215610cab578192610c8a575b50604051631f1b131360e31b8152936020856004816084356001600160a01b03165afa948515610a5f578295610c59575b506104bc611a03565b916104c5611a03565b6001600160a01b0385168085526040516370a0823160e01b815230600482015291939190602090829060249082905afa908115610bb4578391610c27575b506020858101919091526001600160a01b0388168085526040516370a0823160e01b8152306004820152929190839060249082905afa8015610bb4578390610bf3575b610647925060208501526105936040516323b872dd60e01b602082015233602482015230604482015260043560648201526064815261058481611731565b6001600160a01b0388166117c8565b6106286105a7608435604435600435611db3565b976105dd604051916105b883611731565b6001600160a01b038d16835260043560208401908152604084019b8c52943691611a4f565b9081606082015260018060a01b0360843516608082015260018060a01b0390511692519851604051998a9460208601526040850152606084015260a0608084015260c0830190611ab6565b6001600160a01b036084351660a083015203601f198101875286611763565b60405163613255ab60e01b81526001600160a01b038781166004830152909590602090879060249082907f0000000000000000000000000000000000000000000000000000000000000000165afa958615610a5f578296610bbf575b506040516370a0823160e01b8152306004820152956020876024816084356001600160a01b03165afa968715610bb4578397610b80575b50604051633676633960e21b81526001600160a01b038916600482015260248101829052602081806044810103817f00000000000000000000000000000000000000000000000000000000000000006001600160a01b03165afa908115610b75578491610b41575b506107506107839183611a86565b6001600160a01b037f00000000000000000000000000000000000000000000000000000000000000008116908b16611adb565b6001600160a01b038881167f000000000000000000000000000000000000000000000000000000000000000090911603610af857604051632e7ff4ef60e11b81523060048201526001600160a01b038916602482015260448101919091526080606482015290602090829081906107fe906084830190611ab6565b0381857f00000000000000000000000000000000000000000000000000000000000000006001600160a01b03165af18015610a5f57610abc575b506040516370a0823160e01b8152306004820152936020856024816084356001600160a01b03165afa948515610a5f578295610a88575b5085851115610a6a576040516370a0823160e01b815230600482015290602090829060249082906001600160a01b03165afa908115610a5f578291610a2c575b50604084810191909152516370a0823160e01b815230600482015295602090879060249082906001600160a01b03165afa9081156103d657906109f8575b610924955060408201526109018682611e98565b9190916109b5575b50506109158582611e98565b919091610972575b50506118a3565b6044358110610953576020916109479082906084356001600160a01b0316611785565b60018055604051908152f35b604490604051906330cfb95f60e11b8252600482015281356024820152fd5b516040519182526001600160a01b03868116929116907f21fa991d1ca60543187d2a0de62e5ea0ce1a703a3f0021354ae2f9a75dc0e34d90602090a3388061091d565b516040519182526001600160a01b03878116929116907f858a27e141780954fe5d38ba55127b6c35f8f5904c3a088438a18578d5d71eee90602090a33880610909565b506020853d602011610a24575b81610a1260209383611763565b810103126103c95761092494516108ed565b3d9150610a05565b90506020813d602011610a57575b81610a4760209383611763565b810103126103c9575160246108af565b3d9150610a3a565b6040513d84823e3d90fd5b604486866040519163f51cd51560e01b835260048301526024820152fd5b9094506020813d602011610ab4575b81610aa460209383611763565b810103126103c95751933861086f565b3d9150610a97565b6020813d602011610af0575b81610ad560209383611763565b81010312610aec57518015150361014a5738610838565b5080fd5b3d9150610ac8565b60405163aaae67a160e01b81526001600160a01b037f00000000000000000000000000000000000000000000000000000000000000008116600483015289166024820152604490fd5b90506020813d602011610b6d575b81610b5c60209383611763565b810103126103c95751610750610742565b3d9150610b4f565b6040513d86823e3d90fd5b9096506020813d602011610bac575b81610b9c60209383611763565b810103126103c9575195386106da565b3d9150610b8f565b6040513d85823e3d90fd5b9095506020813d602011610beb575b81610bdb60209383611763565b810103126103c9575194386106a3565b3d9150610bce565b506020823d602011610c1f575b81610c0d60209383611763565b810103126103c9576106479151610546565b3d9150610c00565b90506020813d602011610c51575b81610c4260209383611763565b810103126103c9575138610503565b3d9150610c35565b610c7c91955060203d602011610c83575b610c748183611763565b8101906119e4565b93386104b3565b503d610c6a565b610ca491925060203d602011610c8357610c748183611763565b9038610482565b50604051903d90823e3d90fd5b503461014a578060031936011261014a576040517f00000000000000000000000000000000000000000000000000000000000000006001600160a01b03168152602090f35b503461014a578060031936011261014a57610d16611705565b600080546001600160a01b0319811682556001600160a01b03167f8be0079c531659141344cd1fd0a4f28419497f9722a3daafe3b4186f6b6457e08280a380f35b503461014a578060031936011261014a57610d70611853565b90604051918291602080840190808552835180925280604086019401925b828110610d9d57505050500390f35b83516001600160a01b031685528695509381019392810192600101610d8e565b503461014a578060031936011261014a5760206040517f439148f0bbc682ca079e46d6e2c2f0c1e3b820f1a291b069d8882abf8cf18dd98152f35b823461014a5760a036600319011261014a57610e12611681565b91610e1b611697565b9260843567ffffffffffffffff811161162d57610e3c9036906004016116ad565b90929091907f00000000000000000000000000000000000000000000000000000000000000006001600160a01b03163381900361165e575050306001600160a01b03821603611635575090610e92913691611a4f565b9060405192610ea084611731565b818452816020850152816040850152606080850152816080850152825183019260a081850312611631576020810151906001600160a01b038216820361162d57604081015190606081015190608081015167ffffffffffffffff81116116295760208801603f8284010112156116295760208183010151906020610f2383611a33565b99610f316040519b8c611763565b838b52016040838386010101116116255760a09291610f5991604060208c0191850101611a93565b0151956001600160a01b038716870361151d5760018060a01b038716608089015260608801526040870152602086015260018060a01b0316845260405192632c805af560e21b845260208460048160018060a01b0385165afa938415610bb45783946115fe575b50604051631f1b131360e31b81529190602090839060049082906001600160a01b03165afa918215610bb45783926115dd575b506001600160a01b03828116908216036115b457506040840151602085015180821061159657505061102e60408501516020860151906118a3565b60608501516040516370a0823160e01b8152306004820152909591906020816024816001600160a01b0388165afa90811561158b578591611555575b506040516370a0823160e01b8152306004820152966020886024816001600160a01b038b165afa9788156114e2578698611521575b5073C57fB4fD13CF690F61D2Fade1681c9154A8198e83b1561151d576040516304ecaec960e31b81526001600160a01b038681166004830152881660248201526044810184905260001960648201523060848201524260a482015261010060c48201529086908290819061111890610104830190611ab6565b7f00000000000000000000000000000000000000000000000000000000000000006001600160a01b031660e4830152038173C57fB4fD13CF690F61D2Fade1681c9154A8198e85af480156114e2576114ed575b506040516370a0823160e01b8152306004820152906020826024816001600160a01b0389165afa9182156114e25786926114ae575b506040516370a0823160e01b8152306004820152916020836024816001600160a01b038c165afa9283156114a357879361146f575b5081811015611466576111e7916118a3565b965b6111f283611ee8565b600101806001116114525761120990848484611bce565b918251156114355750506040810151156114125750506040516370a0823160e01b8152306004820152936020856024816001600160a01b0387165afa948515610b755784956113de575b50608082015160408301518593602093909261127c92916001600160a01b039182169116611adb565b6044604060018060a01b036080840151169201516040519485938492636e553f6560e01b845260048401523060248401525af18015610bb4576113b3575b506040516370a0823160e01b815230600482015290602090829060249082906001600160a01b03165afa9182156103d65791611381575b50818111156113635790611304916118a3565b6064356113118184611a86565b82106113415760206040517f439148f0bbc682ca079e46d6e2c2f0c1e3b820f1a291b069d8882abf8cf18dd98152f35b60649260405192630901cbd360e21b8452600484015260248301526044820152fd5b6044925060405191633780efc760e21b835260048301526024820152fd5b90506020813d6020116113ab575b8161139c60209383611763565b810103126103c95751836112f1565b3d915061138f565b602090813d83116113d7575b6113c98183611763565b810103126103c957846112ba565b503d6113bf565b9094506020813d60201161140a575b816113fa60209383611763565b810103126103c957519383611253565b3d91506113ed565b90602060449201519060405191638919e25360e01b835260048301526024820152fd5b60449250604051916204bb6760e81b835260048301526024820152fd5b634e487b7160e01b87526011600452602487fd5b505084966111e9565b9092506020813d60201161149b575b8161148b60209383611763565b810103126103c9575191896111d5565b3d915061147e565b6040513d89823e3d90fd5b9091506020813d6020116114da575b816114ca60209383611763565b810103126103c9575190886111a0565b3d91506114bd565b6040513d88823e3d90fd5b67ffffffffffffffff819692961161150957604052938761116b565b634e487b7160e01b82526041600452602482fd5b8580fd5b9097506020813d60201161154d575b8161153d60209383611763565b8101031261151d5751968861109f565b3d9150611530565b90506020813d602011611583575b8161157060209383611763565b8101031261157f57518761106a565b8480fd5b3d9150611563565b6040513d87823e3d90fd5b6044925060405191635195adaf60e11b835260048301526024820152fd5b60405163c7f1118d60e01b81526001600160a01b03918216600482015291166024820152604490fd5b6115f791925060203d602011610c8357610c748183611763565b9085610ff3565b60049291945061161c602091823d8411610c8357610c748183611763565b94919250610fc0565b8780fd5b8680fd5b8380fd5b8280fd5b604051636705ec4760e11b81526001600160a01b03919091166004820152306024820152604490fd5b631a01026f60e01b82523360048301526001600160a01b03166024820152604490fd5b600435906001600160a01b03821682036103c957565b602435906001600160a01b03821682036103c957565b9181601f840112156103c95782359167ffffffffffffffff83116103c957602083818601950101116103c957565b60609060031901126103c95760043590602435906044356001600160a01b03811681036103c95790565b6000546001600160a01b0316330361171957565b60405163118cdaa760e01b8152336004820152602490fd5b60a0810190811067ffffffffffffffff82111761174d57604052565b634e487b7160e01b600052604160045260246000fd5b90601f8019910116810190811067ffffffffffffffff82111761174d57604052565b60405163a9059cbb60e01b60208201526001600160a01b039290921660248301526044808301939093529181526117c6916117c1606483611763565b6117c8565b565b906000602091828151910182855af115611824576000513d61181b57506001600160a01b0381163b155b6117f95750565b604051635274afe760e01b81526001600160a01b039091166004820152602490fd5b600114156117f2565b6040513d6000823e3d90fd5b600260015414611841576002600155565b604051633ee5aeb560e01b8152600490fd5b6040516020810181811067ffffffffffffffff82111761174d5760405260008152906000368137565b90620f424091820391821161188d57565b634e487b7160e01b600052601160045260246000fd5b9190820391821161188d57565b906000198183098183029182808310920391808303921461192157620f4240908282111561190e577fde8f6cefed634549b62c77574f722e1ac57e23f24d8fd5cb790fb65668c26139940990828211900360fa1b910360061c170290565b634e487b7160005260116020526024601cfd5b5050620f424091500490565b620f42409160001983830992808302928380861095039480860395146119c057848311156119a7579082910981600003821680920460028082600302188083028203028083028203028083028203028083028203028083028203028092029003029360018380600003040190848311900302920304170290565b82634e487b71600052156003026011186020526024601cfd5b5050809250156119ce570490565b634e487b7160e01b600052601260045260246000fd5b908160209103126103c957516001600160a01b03811681036103c95790565b604051906060820182811067ffffffffffffffff82111761174d5760405260006040838281528260208201520152565b67ffffffffffffffff811161174d57601f01601f191660200190565b929192611a5b82611a33565b91611a696040519384611763565b8294818452818301116103c9578281602093846000960137010152565b9190820180921161188d57565b60005b838110611aa65750506000910152565b8181015183820152602001611a96565b90602091611acf81518092818552858086019101611a93565b601f01601f1916010190565b60405163095ea7b360e01b602082018181526001600160a01b038516602484015260448084019690965294825294939092611b17606485611763565b60206000809386519082875af182513d82611ba9575b505015611b3d575b505050509050565b60405160208101969096526001600160a01b0316602486015260448086018290528552608085019067ffffffffffffffff821186831017611b955750611b8b93946117c191604052826117c8565b8038808080611b35565b634e487b7160e01b81526041600452602490fd5b909150611bc657506001600160a01b0383163b15155b3880611b2d565b600114611bbf565b9290611bd8611a03565b93808211808652611c11575b5050825115611c0557611bfb916020840151611c26565b1515604082015290565b50506000604082015290565b611c1a916118a3565b60208401523880611be4565b90808211611c3d5790611c38916118a3565b111590565b611c38916118a3565b6040805163415c506960e01b8082529194936001600160a01b0316916020918281600481875afa908115611da857600091611d7b575b5060009015611ced57508190600487518095819382525afa948515611ce35750600094611cb4575b505091611cb191926118b0565b90565b81813d8311611cdc575b611cc88183611763565b8101031261162d57519250611cb138611ca4565b503d611cbe565b513d6000823e3d90fd5b9282915091600492879596975193848092637aa7c3c160e01b82525afa938415611d7257508293611d2d575b5050509063ffffffff611cb19216906118b0565b9080929350813d8311611d6b575b611d458183611763565b81010312610aec57519063ffffffff8216820361014a575063ffffffff611cb138611d19565b503d611d3b565b513d84823e3d90fd5b908382813d8311611da1575b611d918183611763565b8101031261014a57505138611c7c565b503d611d87565b87513d6000823e3d90fd5b906020611dc584602494969596611c46565b6040516363737ac960e11b81526004810182905290959093849182906001600160a01b03165afa91821561182457600092611e65575b50808210611e475790611e11611e1692826118a3565b61192d565b91620f42408311611e2e57610399611cb1929361187c565b60405163cc1d13b160e01b815260048101849052602490fd5b60449250604051916303a4989b60e21b835260048301526024820152fd5b90916020823d8211611e90575b81611e7f60209383611763565b8101031261014a5750519038611dfb565b3d9150611e72565b604081015160208201518103908111159392908402918480611edf575b611ec6575050509050600090600090565b51611edb9183916001600160a01b0316611785565b9190565b50821515611eb5565b6127109081810291818304149015171561188d57620f424090049056fea26469706673582212206d83aa1ba5cfddb320f2438bb86bd101f7c10786d6e2b910d5bedaf9ae36eb3864736f6c63430008140033",
  "deployedBytecode": "0x608080604052600436101561001357600080fd5b600090813560e01c90816323e30c8b14610df8575080632ae1810414610dbd578063500fc43414610d57578063715018a614610cfd5780638321928d14610cb857806387438b6a146103fb5780638b7a6dba1461032d5780638da5cb5b146103065780639d00f108146102ea578063a7714458146102a5578063aee5ae6a14610286578063cc66363614610233578063e5711e8b1461014d5763f2fde38b146100bb57600080fd5b3461014a57602036600319011261014a576100d4611681565b6100dc611705565b6001600160a01b0390811690811561013157600054826bffffffffffffffffffffffff60a01b821617600055167f8be0079c531659141344cd1fd0a4f28419497f9722a3daafe3b4186f6b6457e0600080a380f35b604051631e4fbdf760e01b815260048101849052602490fd5b80fd5b503461014a57606036600319011261014a57610167611681565b90610170611697565b91610179611705565b610181611830565b610189611853565b906001600160a01b0390811690835b835181101561021e57602082818360051b870101511684146101da575060001981146101c657600101610198565b634e487b7160e01b85526011600452602485fd5b6064906040519062461bcd60e51b82526004820152601e60248201527f43616e6e6f7420726573637565207265737472696374656420746f6b656e00006044820152fd5b8461022c6044358886611785565b6001805580f35b503461014a5761024e610245366116db565b90829392611db3565b81811061026957602091610261916118a3565b604051908152f35b604491604051916346652e4760e11b835260048301526024820152fd5b503461014a57602036600319011261014a576020610261600435611ee8565b503461014a578060031936011261014a576040517f00000000000000000000000000000000000000000000000000000000000000006001600160a01b03168152602090f35b503461014a578060031936011261014a57602060405160018152f35b503461014a578060031936011261014a57546040516001600160a01b039091168152602090f35b503461014a5761033c366116db565b909291620f424084116103e25761035582602092611c46565b6040516363737ac960e11b8152600481019190915291829060249082906001600160a01b03165afa9182156103d6579161039f575b6020610261836103998661187c565b906118b0565b90506020813d82116103ce575b816103b960209383611763565b810103126103c95751602061038a565b600080fd5b3d91506103ac565b604051903d90823e3d90fd5b60405163103b7d4960e11b815260048101859052602490fd5b503461014a5760a036600319011261014a57610415611697565b9060643567ffffffffffffffff8111610aec576104369036906004016116ad565b916084356001600160a01b03811690036103c957610452611830565b604051632c805af560e21b8152906020826004816084356001600160a01b03165afa918215610cab578192610c8a575b50604051631f1b131360e31b8152936020856004816084356001600160a01b03165afa948515610a5f578295610c59575b506104bc611a03565b916104c5611a03565b6001600160a01b0385168085526040516370a0823160e01b815230600482015291939190602090829060249082905afa908115610bb4578391610c27575b506020858101919091526001600160a01b0388168085526040516370a0823160e01b8152306004820152929190839060249082905afa8015610bb4578390610bf3575b610647925060208501526105936040516323b872dd60e01b602082015233602482015230604482015260043560648201526064815261058481611731565b6001600160a01b0388166117c8565b6106286105a7608435604435600435611db3565b976105dd604051916105b883611731565b6001600160a01b038d16835260043560208401908152604084019b8c52943691611a4f565b9081606082015260018060a01b0360843516608082015260018060a01b0390511692519851604051998a9460208601526040850152606084015260a0608084015260c0830190611ab6565b6001600160a01b036084351660a083015203601f198101875286611763565b60405163613255ab60e01b81526001600160a01b038781166004830152909590602090879060249082907f0000000000000000000000000000000000000000000000000000000000000000165afa958615610a5f578296610bbf575b506040516370a0823160e01b8152306004820152956020876024816084356001600160a01b03165afa968715610bb4578397610b80575b50604051633676633960e21b81526001600160a01b038916600482015260248101829052602081806044810103817f00000000000000000000000000000000000000000000000000000000000000006001600160a01b03165afa908115610b75578491610b41575b506107506107839183611a86565b6001600160a01b037f00000000000000000000000000000000000000000000000000000000000000008116908b16611adb565b6001600160a01b038881167f000000000000000000000000000000000000000000000000000000000000000090911603610af857604051632e7ff4ef60e11b81523060048201526001600160a01b038916602482015260448101919091526080606482015290602090829081906107fe906084830190611ab6565b0381857f00000000000000000000000000000000000000000000000000000000000000006001600160a01b03165af18015610a5f57610abc575b506040516370a0823160e01b8152306004820152936020856024816084356001600160a01b03165afa948515610a5f578295610a88575b5085851115610a6a576040516370a0823160e01b815230600482015290602090829060249082906001600160a01b03165afa908115610a5f578291610a2c575b50604084810191909152516370a0823160e01b815230600482015295602090879060249082906001600160a01b03165afa9081156103d657906109f8575b610924955060408201526109018682611e98565b9190916109b5575b50506109158582611e98565b919091610972575b50506118a3565b6044358110610953576020916109479082906084356001600160a01b0316611785565b60018055604051908152f35b604490604051906330cfb95f60e11b8252600482015281356024820152fd5b516040519182526001600160a01b03868116929116907f21fa991d1ca60543187d2a0de62e5ea0ce1a703a3f0021354ae2f9a75dc0e34d90602090a3388061091d565b516040519182526001600160a01b03878116929116907f858a27e141780954fe5d38ba55127b6c35f8f5904c3a088438a18578d5d71eee90602090a33880610909565b506020853d602011610a24575b81610a1260209383611763565b810103126103c95761092494516108ed565b3d9150610a05565b90506020813d602011610a57575b81610a4760209383611763565b810103126103c9575160246108af565b3d9150610a3a565b6040513d84823e3d90fd5b604486866040519163f51cd51560e01b835260048301526024820152fd5b9094506020813d602011610ab4575b81610aa460209383611763565b810103126103c95751933861086f565b3d9150610a97565b6020813d602011610af0575b81610ad560209383611763565b81010312610aec57518015150361014a5738610838565b5080fd5b3d9150610ac8565b60405163aaae67a160e01b81526001600160a01b037f00000000000000000000000000000000000000000000000000000000000000008116600483015289166024820152604490fd5b90506020813d602011610b6d575b81610b5c60209383611763565b810103126103c95751610750610742565b3d9150610b4f565b6040513d86823e3d90fd5b9096506020813d602011610bac575b81610b9c60209383611763565b810103126103c9575195386106da565b3d9150610b8f565b6040513d85823e3d90fd5b9095506020813d602011610beb575b81610bdb60209383611763565b810103126103c9575194386106a3565b3d9150610bce565b506020823d602011610c1f575b81610c0d60209383611763565b810103126103c9576106479151610546565b3d9150610c00565b90506020813d602011610c51575b81610c4260209383611763565b810103126103c9575138610503565b3d9150610c35565b610c7c91955060203d602011610c83575b610c748183611763565b8101906119e4565b93386104b3565b503d610c6a565b610ca491925060203d602011610c8357610c748183611763565b9038610482565b50604051903d90823e3d90fd5b503461014a578060031936011261014a576040517f00000000000000000000000000000000000000000000000000000000000000006001600160a01b03168152602090f35b503461014a578060031936011261014a57610d16611705565b600080546001600160a01b0319811682556001600160a01b03167f8be0079c531659141344cd1fd0a4f28419497f9722a3daafe3b4186f6b6457e08280a380f35b503461014a578060031936011261014a57610d70611853565b90604051918291602080840190808552835180925280604086019401925b828110610d9d57505050500390f35b83516001600160a01b031685528695509381019392810192600101610d8e565b503461014a578060031936011261014a5760206040517f439148f0bbc682ca079e46d6e2c2f0c1e3b820f1a291b069d8882abf8cf18dd98152f35b823461014a5760a036600319011261014a57610e12611681565b91610e1b611697565b9260843567ffffffffffffffff811161162d57610e3c9036906004016116ad565b90929091907f00000000000000000000000000000000000000000000000000000000000000006001600160a01b03163381900361165e575050306001600160a01b03821603611635575090610e92913691611a4f565b9060405192610ea084611731565b818452816020850152816040850152606080850152816080850152825183019260a081850312611631576020810151906001600160a01b038216820361162d57604081015190606081015190608081015167ffffffffffffffff81116116295760208801603f8284010112156116295760208183010151906020610f2383611a33565b99610f316040519b8c611763565b838b52016040838386010101116116255760a09291610f5991604060208c0191850101611a93565b0151956001600160a01b038716870361151d5760018060a01b038716608089015260608801526040870152602086015260018060a01b0316845260405192632c805af560e21b845260208460048160018060a01b0385165afa938415610bb45783946115fe575b50604051631f1b131360e31b81529190602090839060049082906001600160a01b03165afa918215610bb45783926115dd575b506001600160a01b03828116908216036115b457506040840151602085015180821061159657505061102e60408501516020860151906118a3565b60608501516040516370a0823160e01b8152306004820152909591906020816024816001600160a01b0388165afa90811561158b578591611555575b506040516370a0823160e01b8152306004820152966020886024816001600160a01b038b165afa9788156114e2578698611521575b5073__$73ace4aa8e5f9c1a2b48f796123ca85165$__3b1561151d576040516304ecaec960e31b81526001600160a01b038681166004830152881660248201526044810184905260001960648201523060848201524260a482015261010060c48201529086908290819061111890610104830190611ab6565b7f00000000000000000000000000000000000000000000000000000000000000006001600160a01b031660e4830152038173__$73ace4aa8e5f9c1a2b48f796123ca85165$__5af480156114e2576114ed575b506040516370a0823160e01b8152306004820152906020826024816001600160a01b0389165afa9182156114e25786926114ae575b506040516370a0823160e01b8152306004820152916020836024816001600160a01b038c165afa9283156114a357879361146f575b5081811015611466576111e7916118a3565b965b6111f283611ee8565b600101806001116114525761120990848484611bce565b918251156114355750506040810151156114125750506040516370a0823160e01b8152306004820152936020856024816001600160a01b0387165afa948515610b755784956113de575b50608082015160408301518593602093909261127c92916001600160a01b039182169116611adb565b6044604060018060a01b036080840151169201516040519485938492636e553f6560e01b845260048401523060248401525af18015610bb4576113b3575b506040516370a0823160e01b815230600482015290602090829060249082906001600160a01b03165afa9182156103d65791611381575b50818111156113635790611304916118a3565b6064356113118184611a86565b82106113415760206040517f439148f0bbc682ca079e46d6e2c2f0c1e3b820f1a291b069d8882abf8cf18dd98152f35b60649260405192630901cbd360e21b8452600484015260248301526044820152fd5b6044925060405191633780efc760e21b835260048301526024820152fd5b90506020813d6020116113ab575b8161139c60209383611763565b810103126103c95751836112f1565b3d915061138f565b602090813d83116113d7575b6113c98183611763565b810103126103c957846112ba565b503d6113bf565b9094506020813d60201161140a575b816113fa60209383611763565b810103126103c957519383611253565b3d91506113ed565b90602060449201519060405191638919e25360e01b835260048301526024820152fd5b60449250604051916204bb6760e81b835260048301526024820152fd5b634e487b7160e01b87526011600452602487fd5b505084966111e9565b9092506020813d60201161149b575b8161148b60209383611763565b810103126103c9575191896111d5565b3d915061147e565b6040513d89823e3d90fd5b9091506020813d6020116114da575b816114ca60209383611763565b810103126103c9575190886111a0565b3d91506114bd565b6040513d88823e3d90fd5b67ffffffffffffffff819692961161150957604052938761116b565b634e487b7160e01b82526041600452602482fd5b8580fd5b9097506020813d60201161154d575b8161153d60209383611763565b8101031261151d5751968861109f565b3d9150611530565b90506020813d602011611583575b8161157060209383611763565b8101031261157f57518761106a565b8480fd5b3d9150611563565b6040513d87823e3d90fd5b6044925060405191635195adaf60e11b835260048301526024820152fd5b60405163c7f1118d60e01b81526001600160a01b03918216600482015291166024820152604490fd5b6115f791925060203d602011610c8357610c748183611763565b9085610ff3565b60049291945061161c602091823d8411610c8357610c748183611763565b94919250610fc0565b8780fd5b8680fd5b8380fd5b8280fd5b604051636705ec4760e11b81526001600160a01b03919091166004820152306024820152604490fd5b631a01026f60e01b82523360048301526001600160a01b03166024820152604490fd5b600435906001600160a01b03821682036103c957565b602435906001600160a01b03821682036103c957565b9181601f840112156103c95782359167ffffffffffffffff83116103c957602083818601950101116103c957565b60609060031901126103c95760043590602435906044356001600160a01b03811681036103c95790565b6000546001600160a01b0316330361171957565b60405163118cdaa760e01b8152336004820152602490fd5b60a0810190811067ffffffffffffffff82111761174d57604052565b634e487b7160e01b600052604160045260246000fd5b90601f8019910116810190811067ffffffffffffffff82111761174d57604052565b60405163a9059cbb60e01b60208201526001600160a01b039290921660248301526044808301939093529181526117c6916117c1606483611763565b6117c8565b565b906000602091828151910182855af115611824576000513d61181b57506001600160a01b0381163b155b6117f95750565b604051635274afe760e01b81526001600160a01b039091166004820152602490fd5b600114156117f2565b6040513d6000823e3d90fd5b600260015414611841576002600155565b604051633ee5aeb560e01b8152600490fd5b6040516020810181811067ffffffffffffffff82111761174d5760405260008152906000368137565b90620f424091820391821161188d57565b634e487b7160e01b600052601160045260246000fd5b9190820391821161188d57565b906000198183098183029182808310920391808303921461192157620f4240908282111561190e577fde8f6cefed634549b62c77574f722e1ac57e23f24d8fd5cb790fb65668c26139940990828211900360fa1b910360061c170290565b634e487b7160005260116020526024601cfd5b5050620f424091500490565b620f42409160001983830992808302928380861095039480860395146119c057848311156119a7579082910981600003821680920460028082600302188083028203028083028203028083028203028083028203028083028203028092029003029360018380600003040190848311900302920304170290565b82634e487b71600052156003026011186020526024601cfd5b5050809250156119ce570490565b634e487b7160e01b600052601260045260246000fd5b908160209103126103c957516001600160a01b03811681036103c95790565b604051906060820182811067ffffffffffffffff82111761174d5760405260006040838281528260208201520152565b67ffffffffffffffff811161174d57601f01601f191660200190565b929192611a5b82611a33565b91611a696040519384611763565b8294818452818301116103c9578281602093846000960137010152565b9190820180921161188d57565b60005b838110611aa65750506000910152565b8181015183820152602001611a96565b90602091611acf81518092818552858086019101611a93565b601f01601f1916010190565b60405163095ea7b360e01b602082018181526001600160a01b038516602484015260448084019690965294825294939092611b17606485611763565b60206000809386519082875af182513d82611ba9575b505015611b3d575b505050509050565b60405160208101969096526001600160a01b0316602486015260448086018290528552608085019067ffffffffffffffff821186831017611b955750611b8b93946117c191604052826117c8565b8038808080611b35565b634e487b7160e01b81526041600452602490fd5b909150611bc657506001600160a01b0383163b15155b3880611b2d565b600114611bbf565b9290611bd8611a03565b93808211808652611c11575b5050825115611c0557611bfb916020840151611c26565b1515604082015290565b50506000604082015290565b611c1a916118a3565b60208401523880611be4565b90808211611c3d5790611c38916118a3565b111590565b611c38916118a3565b6040805163415c506960e01b8082529194936001600160a01b0316916020918281600481875afa908115611da857600091611d7b575b5060009015611ced57508190600487518095819382525afa948515611ce35750600094611cb4575b505091611cb191926118b0565b90565b81813d8311611cdc575b611cc88183611763565b8101031261162d57519250611cb138611ca4565b503d611cbe565b513d6000823e3d90fd5b9282915091600492879596975193848092637aa7c3c160e01b82525afa938415611d7257508293611d2d575b5050509063ffffffff611cb19216906118b0565b9080929350813d8311611d6b575b611d458183611763565b81010312610aec57519063ffffffff8216820361014a575063ffffffff611cb138611d19565b503d611d3b565b513d84823e3d90fd5b908382813d8311611da1575b611d918183611763565b8101031261014a57505138611c7c565b503d611d87565b87513d6000823e3d90fd5b906020611dc584602494969596611c46565b6040516363737ac960e11b81526004810182905290959093849182906001600160a01b03165afa91821561182457600092611e65575b50808210611e475790611e11611e1692826118a3565b61192d565b91620f42408311611e2e57610399611cb1929361187c565b60405163cc1d13b160e01b815260048101849052602490fd5b60449250604051916303a4989b60e21b835260048301526024820152fd5b90916020823d8211611e90575b81611e7f60209383611763565b8101031261014a5750519038611dfb565b3d9150611e72565b604081015160208201518103908111159392908402918480611edf575b611ec6575050509050600090600090565b51611edb9183916001600160a01b0316611785565b9190565b50821515611eb5565b6127109081810291818304149015171561188d57620f424090049056fea26469706673582212206d83aa1ba5cfddb320f2438bb86bd101f7c10786d6e2b910d5bedaf9ae36eb3864736f6c63430008140033",
  "libraries": {
    "OdosSwapLogic": "0xC57fB4fD13CF690F61D2Fade1681c9154A8198e8"
  }
}