{
  "address": "0xEA704B4Fd78CfB17b1B4C40092e053DD3f7210dB",
  "abi": [
    {
      "inputs": [
        {
          "internalType": "contract IPoolAddressesProvider",
          "name": "addressesProvider",
          "type": "address"
        },
        {
          "internalType": "address",
          "name": "pool",
          "type": "address"
        },
        {
          "internalType": "contract IOdosRouterV2",
          "name": "swapRouter",
          "type": "address"
        },
        {
          "internalType": "address",
          "name": "pendleRouter",
          "type": "address"
        },
        {
          "internalType": "address",
          "name": "owner",
          "type": "address"
        }
      ],
      "stateMutability": "nonpayable",
      "type": "constructor"
    },
    {
      "inputs": [
        {
          "internalType": "address",
          "name": "caller",
          "type": "address"
        },
        {
          "internalType": "address",
          "name": "pool",
          "type": "address"
        }
      ],
      "name": "CallerMustBePool",
      "type": "error"
    },
    {
      "inputs": [
        {
          "internalType": "address",
          "name": "initiator",
          "type": "address"
        },
        {
          "internalType": "address",
          "name": "expectedInitiator",
          "type": "address"
        }
      ],
      "name": "InitiatorMustBeThis",
      "type": "error"
    },
    {
      "inputs": [
        {
          "internalType": "uint256",
          "name": "balance",
          "type": "uint256"
        },
        {
          "internalType": "uint256",
          "name": "required",
          "type": "uint256"
        }
      ],
      "name": "InsufficientBalanceBeforeSwap",
      "type": "error"
    },
    {
      "inputs": [
        {
          "internalType": "uint256",
          "name": "expected",
          "type": "uint256"
        },
        {
          "internalType": "uint256",
          "name": "actual",
          "type": "uint256"
        }
      ],
      "name": "InsufficientOutput",
      "type": "error"
    },
    {
      "inputs": [
        {
          "internalType": "uint256",
          "name": "expected",
          "type": "uint256"
        },
        {
          "internalType": "uint256",
          "name": "actual",
          "type": "uint256"
        }
      ],
      "name": "InsufficientOutputAfterComposedSwap",
      "type": "error"
    },
    {
      "inputs": [
        {
          "internalType": "uint256",
          "name": "actual",
          "type": "uint256"
        },
        {
          "internalType": "uint256",
          "name": "expected",
          "type": "uint256"
        }
      ],
      "name": "InsufficientOutputAmount",
      "type": "error"
    },
    {
      "inputs": [
        {
          "internalType": "uint256",
          "name": "expected",
          "type": "uint256"
        },
        {
          "internalType": "uint256",
          "name": "actual",
          "type": "uint256"
        }
      ],
      "name": "InsufficientPTSwapOutput",
      "type": "error"
    },
    {
      "inputs": [],
      "name": "InvalidPTSwapData",
      "type": "error"
    },
    {
      "inputs": [
        {
          "internalType": "address",
          "name": "token",
          "type": "address"
        }
      ],
      "name": "InvalidPTToken",
      "type": "error"
    },
    {
      "inputs": [
        {
          "internalType": "string",
          "name": "reason",
          "type": "string"
        }
      ],
      "name": "OdosSwapFailed",
      "type": "error"
    },
    {
      "inputs": [],
      "name": "PTApprovalFailed",
      "type": "error"
    },
    {
      "inputs": [
        {
          "internalType": "string",
          "name": "reason",
          "type": "string"
        }
      ],
      "name": "PendleSwapFailed",
      "type": "error"
    },
    {
      "inputs": [],
      "name": "PendleSwapFailed",
      "type": "error"
    },
    {
      "inputs": [
        {
          "internalType": "address",
          "name": "token",
          "type": "address"
        }
      ],
      "name": "SafeERC20FailedOperation",
      "type": "error"
    },
    {
      "inputs": [],
      "name": "SwapFailed",
      "type": "error"
    },
    {
      "inputs": [
        {
          "internalType": "uint256",
          "name": "required",
          "type": "uint256"
        },
        {
          "internalType": "uint256",
          "name": "available",
          "type": "uint256"
        }
      ],
      "name": "UnderlyingBalanceInsufficient",
      "type": "error"
    },
    {
      "anonymous": false,
      "inputs": [
        {
          "indexed": true,
          "internalType": "address",
          "name": "tokenIn",
          "type": "address"
        },
        {
          "indexed": true,
          "internalType": "address",
          "name": "tokenOut",
          "type": "address"
        },
        {
          "indexed": false,
          "internalType": "uint256",
          "name": "amountIn",
          "type": "uint256"
        },
        {
          "indexed": false,
          "internalType": "uint256",
          "name": "amountOut",
          "type": "uint256"
        }
      ],
      "name": "Bought",
      "type": "event"
    },
    {
      "anonymous": false,
      "inputs": [
        {
          "indexed": true,
          "internalType": "address",
          "name": "inputToken",
          "type": "address"
        },
        {
          "indexed": true,
          "internalType": "address",
          "name": "outputToken",
          "type": "address"
        },
        {
          "indexed": false,
          "internalType": "uint256",
          "name": "inputAmount",
          "type": "uint256"
        },
        {
          "indexed": false,
          "internalType": "uint256",
          "name": "finalOutputAmount",
          "type": "uint256"
        }
      ],
      "name": "ComposedSwapCompleted",
      "type": "event"
    },
    {
      "anonymous": false,
      "inputs": [
        {
          "indexed": true,
          "internalType": "address",
          "name": "previousOwner",
          "type": "address"
        },
        {
          "indexed": true,
          "internalType": "address",
          "name": "newOwner",
          "type": "address"
        }
      ],
      "name": "OwnershipTransferred",
      "type": "event"
    },
    {
      "anonymous": false,
      "inputs": [
        {
          "indexed": true,
          "internalType": "address",
          "name": "ptToken",
          "type": "address"
        },
        {
          "indexed": true,
          "internalType": "address",
          "name": "underlyingAsset",
          "type": "address"
        },
        {
          "indexed": false,
          "internalType": "uint256",
          "name": "ptAmount",
          "type": "uint256"
        },
        {
          "indexed": false,
          "internalType": "uint256",
          "name": "underlyingAmount",
          "type": "uint256"
        }
      ],
      "name": "PTSwapExecuted",
      "type": "event"
    },
    {
      "anonymous": false,
      "inputs": [
        {
          "indexed": true,
          "internalType": "address",
          "name": "token",
          "type": "address"
        },
        {
          "indexed": true,
          "internalType": "address",
          "name": "sy",
          "type": "address"
        }
      ],
      "name": "PTTokenDetected",
      "type": "event"
    },
    {
      "inputs": [],
      "name": "ADDRESSES_PROVIDER",
      "outputs": [
        {
          "internalType": "contract IPoolAddressesProvider",
          "name": "",
          "type": "address"
        }
      ],
      "stateMutability": "view",
      "type": "function"
    },
    {
      "inputs": [],
      "name": "POOL",
      "outputs": [
        {
          "internalType": "contract IPool",
          "name": "",
          "type": "address"
        }
      ],
      "stateMutability": "view",
      "type": "function"
    },
    {
      "inputs": [],
      "name": "owner",
      "outputs": [
        {
          "internalType": "address",
          "name": "",
          "type": "address"
        }
      ],
      "stateMutability": "view",
      "type": "function"
    },
    {
      "inputs": [],
      "name": "pendleRouter",
      "outputs": [
        {
          "internalType": "address",
          "name": "",
          "type": "address"
        }
      ],
      "stateMutability": "view",
      "type": "function"
    },
    {
      "inputs": [],
      "name": "renounceOwnership",
      "outputs": [],
      "stateMutability": "nonpayable",
      "type": "function"
    },
    {
      "inputs": [
        {
          "internalType": "contract IERC20",
          "name": "token",
          "type": "address"
        }
      ],
      "name": "rescueTokens",
      "outputs": [],
      "stateMutability": "nonpayable",
      "type": "function"
    },
    {
      "inputs": [],
      "name": "swapRouter",
      "outputs": [
        {
          "internalType": "contract IOdosRouterV2",
          "name": "",
          "type": "address"
        }
      ],
      "stateMutability": "view",
      "type": "function"
    },
    {
      "inputs": [
        {
          "internalType": "address",
          "name": "newOwner",
          "type": "address"
        }
      ],
      "name": "transferOwnership",
      "outputs": [],
      "stateMutability": "nonpayable",
      "type": "function"
    },
    {
      "inputs": [
        {
          "components": [
            {
              "internalType": "address",
              "name": "oldAsset",
              "type": "address"
            },
            {
              "internalType": "uint256",
              "name": "oldAssetAmount",
              "type": "uint256"
            },
            {
              "internalType": "address",
              "name": "newAsset",
              "type": "address"
            },
            {
              "internalType": "uint256",
              "name": "minAmountToReceive",
              "type": "uint256"
            },
            {
              "internalType": "address",
              "name": "user",
              "type": "address"
            },
            {
              "internalType": "bytes",
              "name": "swapData",
              "type": "bytes"
            },
            {
              "internalType": "uint256",
              "name": "allBalanceOffset",
              "type": "uint256"
            }
          ],
          "internalType": "struct IOdosWithdrawSwapAdapterV2.WithdrawSwapParamsV2",
          "name": "withdrawSwapParams",
          "type": "tuple"
        },
        {
          "components": [
            {
              "internalType": "contract IERC20WithPermit",
              "name": "aToken",
              "type": "address"
            },
            {
              "internalType": "uint256",
              "name": "value",
              "type": "uint256"
            },
            {
              "internalType": "uint256",
              "name": "deadline",
              "type": "uint256"
            },
            {
              "internalType": "uint8",
              "name": "v",
              "type": "uint8"
            },
            {
              "internalType": "bytes32",
              "name": "r",
              "type": "bytes32"
            },
            {
              "internalType": "bytes32",
              "name": "s",
              "type": "bytes32"
            }
          ],
          "internalType": "struct IBaseOdosAdapter.PermitInput",
          "name": "permitInput",
          "type": "tuple"
        }
      ],
      "name": "withdrawAndSwap",
      "outputs": [],
      "stateMutability": "nonpayable",
      "type": "function"
    }
  ],
  "transactionHash": "0x52ade02c9a24a604267f68556e3440d3ba814b4d9f6edef77a4fa5b6cae10788",
  "args": [
    "0x1f8d8a3575d049aA0C195AA947483738811bAdcb",
    "0xEdC3cfB1aa36c570cc1D374876268bDda2D460CC",
    "0xaC041Df48dF9791B0654f1Dbbf2CC8450C5f2e9D",
    "0x888888888889758F76e7103c6CbF23ABbF58F946",
    "0x51fc0830DBe3A446701E7897F32C89A3B04e5a0a"
  ],
  "numDeployments": 4,
  "solcInputHash": "bec7024cfbd3c1619bd4ede64235de00",
  "bytecode": "0x6101006040523480156200001257600080fd5b5060405162002c7938038062002c798339810160408190526200003591620001e5565b848484848383838282600033600080546001600160a01b0319166001600160a01b03831690811782556040519293509160008051602062002c59833981519152908290a3506001600160a01b03918216608052811660a05290811660c0529290921660e05250506001805550620000b09150829050620000bb565b505050505062000265565b6000546001600160a01b031633146200011b5760405162461bcd60e51b815260206004820181905260248201527f4f776e61626c653a2063616c6c6572206973206e6f7420746865206f776e657260448201526064015b60405180910390fd5b6001600160a01b038116620001825760405162461bcd60e51b815260206004820152602660248201527f4f776e61626c653a206e6577206f776e657220697320746865207a65726f206160448201526564647265737360d01b606482015260840162000112565b600080546040516001600160a01b038085169392169160008051602062002c5983398151915291a3600080546001600160a01b0319166001600160a01b0392909216919091179055565b6001600160a01b0381168114620001e257600080fd5b50565b600080600080600060a08688031215620001fe57600080fd5b85516200020b81620001cc565b60208701519095506200021e81620001cc565b60408701519094506200023181620001cc565b60608701519093506200024481620001cc565b60808701519092506200025781620001cc565b809150509295509295909350565b60805160a05160c05160e051612984620002d56000396000818160f401528181610b4301528181610bb40152610c1c01526000818161016e01528181610b6401528181610bd50152610f8c0152600081816101230152818161061b01526108910152600060b101526129846000f3fe608060405234801561001057600080fd5b50600436106100925760003560e01c80637535d246116100665780637535d2461461011e5780638699e707146101455780638da5cb5b14610158578063c31c9c0714610169578063f2fde38b1461019057600080fd5b8062ae3bf8146100975780630542975c146100ac578063206aeab3146100ef578063715018a614610116575b600080fd5b6100aa6100a536600461228d565b6101a3565b005b6100d37f000000000000000000000000000000000000000000000000000000000000000081565b6040516001600160a01b03909116815260200160405180910390f35b6100d37f000000000000000000000000000000000000000000000000000000000000000081565b6100aa610267565b6100d37f000000000000000000000000000000000000000000000000000000000000000081565b6100aa610153366004612483565b6102db565b6000546001600160a01b03166100d3565b6100d37f000000000000000000000000000000000000000000000000000000000000000081565b6100aa61019e36600461228d565b6104a1565b6000546001600160a01b031633146101d65760405162461bcd60e51b81526004016101cd90612555565b60405180910390fd5b6102646101eb6000546001600160a01b031690565b6040516370a0823160e01b81523060048201526001600160a01b038416906370a0823190602401602060405180830381865afa15801561022f573d6000803e3d6000fd5b505050506040513d601f19601f82011682018060405250810190610253919061258a565b6001600160a01b038416919061058b565b50565b6000546001600160a01b031633146102915760405162461bcd60e51b81526004016101cd90612555565b600080546040516001600160a01b03909116907f8be0079c531659141344cd1fd0a4f28419497f9722a3daafe3b4186f6b6457e0908390a3600080546001600160a01b0319169055565b60026001540361032d5760405162461bcd60e51b815260206004820152601f60248201527f5265656e7472616e637947756172643a207265656e7472616e742063616c6c0060448201526064016101cd565b60026001558151600090610340906105f3565b925050508260c001516000146103db5760808301516040516370a0823160e01b81526001600160a01b0391821660048201526000918316906370a0823190602401602060405180830381865afa15801561039e573d6000803e3d6000fd5b505050506040513d601f19601f820116820180604052508101906103c2919061258a565b90508360c00151816103d491906125a3565b6020850152505b6103f3836000015184608001518560200151856106a7565b5060006104088460000151856040015161090c565b905060008082600381111561041f5761041f6125c4565b0361044c5761044585600001518660400151876020015188606001518960a00151610988565b9050610470565b61046d85600001518660400151876020015188606001518960a00151610ad4565b90505b61049685608001518287604001516001600160a01b031661058b9092919063ffffffff16565b505060018055505050565b6000546001600160a01b031633146104cb5760405162461bcd60e51b81526004016101cd90612555565b6001600160a01b0381166105305760405162461bcd60e51b815260206004820152602660248201527f4f776e61626c653a206e6577206f776e657220697320746865207a65726f206160448201526564647265737360d01b60648201526084016101cd565b600080546040516001600160a01b03808516939216917f8be0079c531659141344cd1fd0a4f28419497f9722a3daafe3b4186f6b6457e091a3600080546001600160a01b0319166001600160a01b0392909216919091179055565b6040516001600160a01b0383166024820152604481018290526105ee90849063a9059cbb60e01b906064015b60408051601f198184030181529190526020810180516001600160e01b03166001600160e01b031990931692909217909152610c5a565b505050565b6040516335ea6a7560e01b81526001600160a01b0382811660048301526000918291829182917f000000000000000000000000000000000000000000000000000000000000000016906335ea6a75906024016101e060405180830381865afa158015610663573d6000803e3d6000fd5b505050506040513d601f19601f82011682018060405250810190610687919061266e565b610140810151610120820151610100909201519097919650945092505050565b6000816040015160001461075957815160208301516040808501516060860151608087015160a0880151935163d505accf60e01b81526001600160a01b038b811660048301523060248301526044820196909652606481019390935260ff909116608483015260a482015260c481019190915291169063d505accf9060e401600060405180830381600087803b15801561074057600080fd5b505af1158015610754573d6000803e3d6000fd5b505050505b6000610764866105f3565b6040516370a0823160e01b8152306004820152909350600092506001600160a01b03841691506370a0823190602401602060405180830381865afa1580156107b0573d6000803e3d6000fd5b505050506040513d601f19601f820116820180604052508101906107d4919061258a565b90506107eb6001600160a01b038316873088610d2c565b6040516370a0823160e01b815230600482015260009082906001600160a01b038516906370a0823190602401602060405180830381865afa158015610834573d6000803e3d6000fd5b505050506040513d601f19601f82011682018060405250810190610858919061258a565b61086291906125a3565b604051631a4ca37b60e21b81526001600160a01b038a81166004830152602482018390523060448301529192507f0000000000000000000000000000000000000000000000000000000000000000909116906369328dec906064016020604051808303816000875af11580156108dc573d6000803e3d6000fd5b505050506040513d601f19601f82011682018060405250810190610900919061258a565b50979650505050505050565b60008061091884610d6a565b509050600061092684610d6a565b50905081158015610935575080155b1561094557600092505050610982565b818015610950575080155b1561096057600192505050610982565b8115801561096b5750805b1561097b57600292505050610982565b6003925050505b92915050565b6000858582610997838361090c565b905060008160038111156109ad576109ad6125c4565b036109c9576109bf8989898989610e7b565b9350505050610acb565b6040516370a0823160e01b81523060048201526000906001600160a01b038b16906370a0823190602401602060405180830381865afa158015610a10573d6000803e3d6000fd5b505050506040513d601f19601f82011682018060405250810190610a34919061258a565b905087811015610a615760405163b6554a4960e01b815260048101829052602481018990526044016101cd565b610a6e84848a8a8a610ad4565b9450826001600160a01b0316846001600160a01b03167fbf77fd13a39d14dc0da779342c14105c38d9a5d0c60f2caa22f5fd1d5525416d8a88604051610abe929190918252602082015260400190565b60405180910390a3505050505b95945050505050565b60008082806020019051810190610aeb9190612812565b9050610af681611092565b610b135760405163205544d760e11b815260040160405180910390fd5b6000610b1f888861090c565b90506001816003811115610b3557610b356125c4565b03610b9257610b89888888887f00000000000000000000000000000000000000000000000000000000000000007f0000000000000000000000000000000000000000000000000000000000000000886110c3565b92505050610acb565b6002816003811115610ba657610ba66125c4565b03610bfa57610b89888888887f00000000000000000000000000000000000000000000000000000000000000007f0000000000000000000000000000000000000000000000000000000000000000886111dc565b6003816003811115610c0e57610c0e6125c4565b03610c4157610b89888888887f00000000000000000000000000000000000000000000000000000000000000008761173c565b60405163205544d760e11b815260040160405180910390fd5b6000610caf826040518060400160405280602081526020017f5361666545524332303a206c6f772d6c6576656c2063616c6c206661696c6564815250856001600160a01b031661198f9092919063ffffffff16565b8051909150156105ee5780806020019051810190610ccd91906128c7565b6105ee5760405162461bcd60e51b815260206004820152602a60248201527f5361666545524332303a204552433230206f7065726174696f6e20646964206e6044820152691bdd081cdd58d8d9595960b21b60648201526084016101cd565b6040516001600160a01b0380851660248301528316604482015260648101829052610d649085906323b872dd60e01b906084016105b7565b50505050565b60408051600481526024810182526020810180516001600160e01b031663afd27bf560e01b17905290516000918291829182916001600160a01b03871691610db1916128e2565b600060405180830381855afa9150503d8060008114610dec576040519150601f19603f3d011682016040523d82523d6000602084013e610df1565b606091505b5091509150818015610e04575080516020145b15610e745780806020019051810190610e1d91906128fe565b6001600160a01b0381161580159550909350610e7457826001600160a01b0316856001600160a01b03167f1e5361486115d03329d5743ec247b6eae9b1d6af9aad63d1a1f05e84e20b432460405160405180910390a35b5050915091565b6040516370a0823160e01b815230600482015260009081906001600160a01b038816906370a0823190602401602060405180830381865afa158015610ec4573d6000803e3d6000fd5b505050506040513d601f19601f82011682018060405250810190610ee8919061258a565b6040516370a0823160e01b81523060048201529091506000906001600160a01b038816906370a0823190602401602060405180830381865afa158015610f32573d6000803e3d6000fd5b505050506040513d601f19601f82011682018060405250810190610f56919061258a565b905085821015610f835760405163b6554a4960e01b815260048101839052602481018790526044016101cd565b87876000610fb57f000000000000000000000000000000000000000000000000000000000000000084848c8c8c6119a8565b6040516370a0823160e01b815230600482015290915084906001600160a01b038c16906370a0823190602401602060405180830381865afa158015610ffe573d6000803e3d6000fd5b505050506040513d601f19601f82011682018060405250810190611022919061258a565b61102c91906125a3565b9550816001600160a01b0316836001600160a01b03167fbf77fd13a39d14dc0da779342c14105c38d9a5d0c60f2caa22f5fd1d5525416d838960405161107c929190918252602082015260400190565b60405180910390a3505050505095945050505050565b80516000906110a657506060015151151590565b8160400151516000036110bb57506000919050565b506001919050565b805160009015806110df575060208201516001600160a01b0316155b156110fd5760405163205544d760e11b815260040160405180910390fd5b600061111489888560200151888760400151611bec565b9050876001600160a01b031683602001516001600160a01b03160361113b5780915061117a565b8260600151516000036111615760405163205544d760e11b815260040160405180910390fd5b6111778484602001518a848a88606001516119a8565b91505b876001600160a01b0316896001600160a01b03167f82494e43b53e197c30b1d5d35cf1c20c1e5d45885b1a8aa61f457a9dd5e7c36489856040516111c8929190918252602082015260400190565b60405180910390a350979650505050505050565b805160009015806111f8575060208201516001600160a01b0316155b156112165760405163205544d760e11b815260040160405180910390fd5b600082602001516001600160a01b0316896001600160a01b03160361123c5750856113d5565b8260600151516000036112625760405163205544d760e11b815260040160405180910390fd5b60208301516040516370a0823160e01b81523060048201526000916001600160a01b0316906370a0823190602401602060405180830381865afa1580156112ad573d6000803e3d6000fd5b505050506040513d601f19601f820116820180604052508101906112d1919061258a565b90506112ea858b86602001518b600089606001516119a8565b60208501516040516370a0823160e01b81523060048201529193506000916001600160a01b03909116906370a0823190602401602060405180830381865afa15801561133a573d6000803e3d6000fd5b505050506040513d601f19601f8201168201806040525081019061135e919061258a565b9050600061136c83836125a3565b9050806000036113d157604051631300105360e01b815260206004820152602960248201527f4f646f7320737761702072657475726e6564207a65726f20756e6465726c79696044820152686e6720746f6b656e7360b81b60648201526084016101cd565b5050505b6040516370a0823160e01b81523060048201526000906001600160a01b038a16906370a0823190602401602060405180830381865afa15801561141c573d6000803e3d6000fd5b505050506040513d601f19601f82011682018060405250810190611440919061258a565b60208501516040516370a0823160e01b81523060048201529192506000916001600160a01b03909116906370a0823190602401602060405180830381865afa158015611490573d6000803e3d6000fd5b505050506040513d601f19601f820116820180604052508101906114b4919061258a565b9050828110156114e1576040516305be2c3160e21b815260048101849052602481018290526044016101cd565b60208501516114fb906001600160a01b0316886000611d42565b6020850151611514906001600160a01b03168885611d42565b600080886001600160a01b0316876040015160405161153391906128e2565b6000604051808303816000865af19150503d8060008114611570576040519150601f19603f3d011682016040523d82523d6000602084013e611575565b606091505b5091509150816115d75780511561158f5780518082602001fd5b604051629d99a360e81b815260206004820152601c60248201527f50656e646c65207377617020657865637574696f6e206661696c65640000000060448201526064016101cd565b6040516370a0823160e01b81523060048201526000906001600160a01b038e16906370a0823190602401602060405180830381865afa15801561161e573d6000803e3d6000fd5b505050506040513d601f19601f82011682018060405250810190611642919061258a565b905061164e85826125a3565b96508a87101561167b5760405163223b57c760e21b8152600481018c9052602481018890526044016101cd565b8c6001600160a01b031688602001516001600160a01b03167f27039ac08bcb6070578fc805ffca75715bb586e39696d42a16aaa308c1248eb7888a6040516116cd929190918252602082015260400190565b60405180910390a38c6001600160a01b03168e6001600160a01b03167f82494e43b53e197c30b1d5d35cf1c20c1e5d45885b1a8aa61f457a9dd5e7c3648e8a604051611723929190918252602082015260400190565b60405180910390a3505050505050979650505050505050565b60008061174888610d6a565b509050600061175688610d6a565b509050811580611764575080155b1561178d576040516303c4074b60e21b81526001600160a01b038a1660048201526024016101cd565b8360400151516000036117b35760405163205544d760e11b815260040160405180910390fd5b6040516370a0823160e01b81523060048201526000906001600160a01b038a16906370a0823190602401602060405180830381865afa1580156117fa573d6000803e3d6000fd5b505050506040513d601f19601f8201168201806040525081019061181e919061258a565b90506118308a89888860400151611e57565b506040516370a0823160e01b81523060048201526000906001600160a01b038b16906370a0823190602401602060405180830381865afa158015611878573d6000803e3d6000fd5b505050506040513d601f19601f8201168201806040525081019061189c919061258a565b90506118a882826125a3565b9450878510156118d55760405163223b57c760e21b815260048101899052602481018690526044016101cd565b896001600160a01b03168b6001600160a01b03167f27039ac08bcb6070578fc805ffca75715bb586e39696d42a16aaa308c1248eb78b88604051611923929190918252602082015260400190565b60405180910390a3896001600160a01b03168b6001600160a01b03167f82494e43b53e197c30b1d5d35cf1c20c1e5d45885b1a8aa61f457a9dd5e7c3648b88604051611979929190918252602082015260400190565b60405180910390a3505050509695505050505050565b606061199e8484600085611fa3565b90505b9392505050565b6040516370a0823160e01b815230600482015260009081906001600160a01b038716906370a0823190602401602060405180830381865afa1580156119f1573d6000803e3d6000fd5b505050506040513d601f19601f82011682018060405250810190611a15919061258a565b9050611a2b6001600160a01b03881689876120cb565b600080896001600160a01b031685604051611a4691906128e2565b6000604051808303816000865af19150503d8060008114611a83576040519150601f19603f3d011682016040523d82523d6000602084013e611a88565b606091505b509150915081611abb57805115611aa25780518082602001fd5b60405163081ceff360e41b815260040160405180910390fd5b60208101516040516370a0823160e01b81523060048201529094506000906001600160a01b038a16906370a0823190602401602060405180830381865afa158015611b0a573d6000803e3d6000fd5b505050506040513d601f19601f82011682018060405250810190611b2e919061258a565b90506000611b3c85836125a3565b905087811015611b6957604051630583371760e31b815260048101899052602481018290526044016101cd565b60405163095ea7b360e01b81526001600160a01b038d81166004830152600060248301528c169063095ea7b3906044016020604051808303816000875af1158015611bb8573d6000803e3d6000fd5b505050506040513d601f19601f82011682018060405250810190611bdc91906128c7565b5050505050509695505050505050565b6040516370a0823160e01b815230600482015260009081906001600160a01b038616906370a0823190602401602060405180830381865afa158015611c35573d6000803e3d6000fd5b505050506040513d601f19601f82011682018060405250810190611c59919061258a565b9050611c6787878686611e57565b506040516370a0823160e01b81523060048201526000906001600160a01b038716906370a0823190602401602060405180830381865afa158015611caf573d6000803e3d6000fd5b505050506040513d601f19601f82011682018060405250810190611cd3919061258a565b9050611cdf82826125a3565b9250856001600160a01b0316886001600160a01b03167f27039ac08bcb6070578fc805ffca75715bb586e39696d42a16aaa308c1248eb78986604051611d2f929190918252602082015260400190565b60405180910390a3505095945050505050565b801580611dbc5750604051636eb1769f60e11b81523060048201526001600160a01b03838116602483015284169063dd62ed3e90604401602060405180830381865afa158015611d96573d6000803e3d6000fd5b505050506040513d601f19601f82011682018060405250810190611dba919061258a565b155b611e275760405162461bcd60e51b815260206004820152603660248201527f5361666545524332303a20617070726f76652066726f6d206e6f6e2d7a65726f60448201527520746f206e6f6e2d7a65726f20616c6c6f77616e636560501b60648201526084016101cd565b6040516001600160a01b0383166024820152604481018290526105ee90849063095ea7b360e01b906064016105b7565b6000611e6d6001600160a01b03861684866120cb565b604051636eb1769f60e11b81523060048201526001600160a01b0384811660248301526000919087169063dd62ed3e90604401602060405180830381865afa158015611ebd573d6000803e3d6000fd5b505050506040513d601f19601f82011682018060405250810190611ee1919061258a565b905084811015611f045760405163a7ed3d5f60e01b815260040160405180910390fd5b600080856001600160a01b031685604051611f1f91906128e2565b6000604051808303816000865af19150503d8060008114611f5c576040519150601f19603f3d011682016040523d82523d6000602084013e611f61565b606091505b509150915081611f9457805115611f7b5780518082602001fd5b604051630fe7fe8560e01b815260040160405180910390fd5b60200151979650505050505050565b6060824710156120045760405162461bcd60e51b815260206004820152602660248201527f416464726573733a20696e73756666696369656e742062616c616e636520666f6044820152651c8818d85b1b60d21b60648201526084016101cd565b843b6120525760405162461bcd60e51b815260206004820152601d60248201527f416464726573733a2063616c6c20746f206e6f6e2d636f6e747261637400000060448201526064016101cd565b600080866001600160a01b0316858760405161206e91906128e2565b60006040518083038185875af1925050503d80600081146120ab576040519150601f19603f3d011682016040523d82523d6000602084013e6120b0565b606091505b50915091506120c082828661217f565b979650505050505050565b604080516001600160a01b038416602482015260448082018490528251808303909101815260649091019091526020810180516001600160e01b031663095ea7b360e01b17905261211c84826121b8565b610d6457604080516001600160a01b038516602482015260006044808301919091528251808303909101815260649091019091526020810180516001600160e01b031663095ea7b360e01b179052612175908590612207565b610d648482612207565b6060831561218e5750816119a1565b82511561219e5782518084602001fd5b8160405162461bcd60e51b81526004016101cd919061291b565b6000806000806020600086516020880160008a5af192503d915060005190508280156121fd575081156121ee57806001146121fd565b6000866001600160a01b03163b115b9695505050505050565b600080602060008451602086016000885af18061222a576040513d6000823e3d81fd5b50506000513d9150811561224257806001141561224f565b6001600160a01b0384163b155b15610d6457604051635274afe760e01b81526001600160a01b03851660048201526024016101cd565b6001600160a01b038116811461026457600080fd5b60006020828403121561229f57600080fd5b81356119a181612278565b634e487b7160e01b600052604160045260246000fd5b60405160e0810167ffffffffffffffff811182821017156122e3576122e36122aa565b60405290565b6040516101e0810167ffffffffffffffff811182821017156122e3576122e36122aa565b6040516080810167ffffffffffffffff811182821017156122e3576122e36122aa565b604051601f8201601f1916810167ffffffffffffffff81118282101715612359576123596122aa565b604052919050565b803561236c81612278565b919050565b600067ffffffffffffffff82111561238b5761238b6122aa565b50601f01601f191660200190565b600082601f8301126123aa57600080fd5b81356123bd6123b882612371565b612330565b8181528460208386010111156123d257600080fd5b816020850160208301376000918101602001919091529392505050565b600060c0828403121561240157600080fd5b60405160c0810181811067ffffffffffffffff82111715612424576124246122aa565b604052905080823561243581612278565b808252506020830135602082015260408301356040820152606083013560ff8116811461246157600080fd5b806060830152506080830135608082015260a083013560a08201525092915050565b60008060e0838503121561249657600080fd5b823567ffffffffffffffff808211156124ae57600080fd5b9084019060e082870312156124c257600080fd5b6124ca6122c0565b6124d383612361565b8152602083013560208201526124eb60408401612361565b60408201526060830135606082015261250660808401612361565b608082015260a08301358281111561251d57600080fd5b61252988828601612399565b60a08301525060c083013560c082015280945050505061254c84602085016123ef565b90509250929050565b6020808252818101527f4f776e61626c653a2063616c6c6572206973206e6f7420746865206f776e6572604082015260600190565b60006020828403121561259c57600080fd5b5051919050565b8181038181111561098257634e487b7160e01b600052601160045260246000fd5b634e487b7160e01b600052602160045260246000fd5b6000602082840312156125ec57600080fd5b6040516020810181811067ffffffffffffffff8211171561260f5761260f6122aa565b6040529151825250919050565b80516fffffffffffffffffffffffffffffffff8116811461236c57600080fd5b805164ffffffffff8116811461236c57600080fd5b805161ffff8116811461236c57600080fd5b805161236c81612278565b60006101e0828403121561268157600080fd5b6126896122e9565b61269384846125da565b81526126a16020840161261c565b60208201526126b26040840161261c565b60408201526126c36060840161261c565b60608201526126d46080840161261c565b60808201526126e560a0840161261c565b60a08201526126f660c0840161263c565b60c082015261270760e08401612651565b60e082015261010061271a818501612663565b9082015261012061272c848201612663565b9082015261014061273e848201612663565b90820152610160612750848201612663565b9082015261018061276284820161261c565b908201526101a061277484820161261c565b908201526101c061278684820161261c565b908201529392505050565b8051801515811461236c57600080fd5b60005b838110156127bc5781810151838201526020016127a4565b50506000910152565b600082601f8301126127d657600080fd5b81516127e46123b882612371565b8181528460208386010111156127f957600080fd5b61280a8260208301602087016127a1565b949350505050565b60006020828403121561282457600080fd5b815167ffffffffffffffff8082111561283c57600080fd5b908301906080828603121561285057600080fd5b61285861230d565b61286183612791565b8152602083015161287181612278565b602082015260408301518281111561288857600080fd5b612894878286016127c5565b6040830152506060830151828111156128ac57600080fd5b6128b8878286016127c5565b60608301525095945050505050565b6000602082840312156128d957600080fd5b6119a182612791565b600082516128f48184602087016127a1565b9190910192915050565b60006020828403121561291057600080fd5b81516119a181612278565b602081526000825180602084015261293a8160408501602087016127a1565b601f01601f1916919091016040019291505056fea264697066735822122075c7e47b62a09321d1e0a8f30b66dcc8e505d90643a843bae977a5d442b1a7e764736f6c634300081600338be0079c531659141344cd1fd0a4f28419497f9722a3daafe3b4186f6b6457e0",
  "devdoc": {
    "details": "Supports regular tokens and PT tokens through composed Pendle + Odos swaps",
    "errors": {
      "CallerMustBePool(address,address)": [
        {
          "details": "Thrown when the caller is not the pool",
          "params": {
            "caller": "The actual caller",
            "pool": "The expected pool"
          }
        }
      ],
      "InitiatorMustBeThis(address,address)": [
        {
          "details": "Thrown when the initiator is not the expected initiator",
          "params": {
            "expectedInitiator": "The expected initiator",
            "initiator": "The actual initiator"
          }
        }
      ],
      "InsufficientBalanceBeforeSwap(uint256,uint256)": [
        {
          "details": "Thrown when the balance before swap is insufficient",
          "params": {
            "balance": "The actual balance",
            "required": "The required balance"
          }
        }
      ],
      "InsufficientOutputAfterComposedSwap(uint256,uint256)": [
        {
          "details": "Thrown when insufficient output is received after composed swap",
          "params": {
            "actual": "The actual amount received",
            "expected": "The expected amount"
          }
        }
      ],
      "InsufficientOutputAmount(uint256,uint256)": [
        {
          "details": "Thrown when the output amount is less than the minimum expected",
          "params": {
            "actual": "The actual output amount",
            "expected": "The minimum expected output amount"
          }
        }
      ],
      "InvalidPTSwapData()": [
        {
          "details": "Thrown when PT swap data is invalid"
        }
      ],
      "OdosSwapFailed(string)": [
        {
          "details": "Thrown when Odos swap fails",
          "params": {
            "reason": "The failure reason"
          }
        }
      ],
      "PendleSwapFailed(string)": [
        {
          "details": "Thrown when Pendle swap fails",
          "params": {
            "reason": "The failure reason"
          }
        }
      ],
      "SafeERC20FailedOperation(address)": [
        {
          "details": "An operation with an ERC-20 token failed."
        }
      ]
    },
    "events": {
      "Bought(address,address,uint256,uint256)": {
        "details": "Emitted when a token is bought on Odos",
        "params": {
          "amountIn": "The amount of tokens sold",
          "amountOut": "The amount of tokens bought",
          "tokenIn": "The address of the token sold",
          "tokenOut": "The address of the token bought"
        }
      }
    },
    "kind": "dev",
    "methods": {
      "owner()": {
        "details": "Returns the address of the current owner."
      },
      "renounceOwnership()": {
        "details": "Leaves the contract without owner. It will not be possible to call `onlyOwner` functions anymore. Can only be called by the current owner. NOTE: Renouncing ownership will leave the contract without an owner, thereby removing any functionality that is only available to the owner."
      },
      "rescueTokens(address)": {
        "details": "Emergency rescue for token stucked on this contract, as failsafe mechanism - Funds should never remain in this contract more time than during transactions - Only callable by the owner"
      },
      "transferOwnership(address)": {
        "details": "Transfers ownership of the contract to a new account (`newOwner`). Can only be called by the current owner."
      },
      "withdrawAndSwap((address,uint256,address,uint256,address,bytes,uint256),(address,uint256,uint256,uint8,bytes32,bytes32))": {
        "params": {
          "permitInput": "optional permit for collateral aToken",
          "withdrawSwapParams": "struct describing the withdraw swap"
        }
      }
    },
    "title": "OdosWithdrawSwapAdapterV2",
    "version": 1
  },
  "userdoc": {
    "errors": {
      "InsufficientOutput(uint256,uint256)": [
        {
          "notice": "Custom error when actual output amount is less than expected"
        }
      ],
      "PTApprovalFailed()": [
        {
          "notice": "Custom error when PT token approval fails"
        }
      ],
      "PendleSwapFailed()": [
        {
          "notice": "Custom error for failed Pendle swap with no revert reason"
        }
      ],
      "SwapFailed()": [
        {
          "notice": "Custom error for failed swap with no revert reason"
        }
      ]
    },
    "kind": "user",
    "methods": {
      "ADDRESSES_PROVIDER()": {
        "notice": "The address of the Aave PoolAddressesProvider contract"
      },
      "POOL()": {
        "notice": "The address of the Aave Pool contract"
      },
      "pendleRouter()": {
        "notice": "The address of the Pendle Router"
      },
      "swapRouter()": {
        "notice": "The address of the Odos Router"
      },
      "withdrawAndSwap((address,uint256,address,uint256,address,bytes,uint256),(address,uint256,uint256,uint8,bytes32,bytes32))": {
        "notice": "Withdraws and swaps an asset that is supplied to the Aave Pool with PT token support"
      }
    },
    "notice": "Adapter to withdraw and swap using Odos with PT token support",
    "version": 1
  },
  "storageLayout": {
    "storage": [
      {
        "astId": 28325,
        "contract": "contracts/dlend/periphery/adapters/odos/OdosWithdrawSwapAdapterV2.sol:OdosWithdrawSwapAdapterV2",
        "label": "_owner",
        "offset": 0,
        "slot": "0",
        "type": "t_address"
      },
      {
        "astId": 65490,
        "contract": "contracts/dlend/periphery/adapters/odos/OdosWithdrawSwapAdapterV2.sol:OdosWithdrawSwapAdapterV2",
        "label": "_status",
        "offset": 0,
        "slot": "1",
        "type": "t_uint256"
      }
    ],
    "types": {
      "t_address": {
        "encoding": "inplace",
        "label": "address",
        "numberOfBytes": "20"
      },
      "t_uint256": {
        "encoding": "inplace",
        "label": "uint256",
        "numberOfBytes": "32"
      }
    }
  }
}