{
  "address": "0x06C6f89d51c3374631FB29D8593425aB6307973D",
  "abi": [
    {
      "inputs": [
        {
          "internalType": "contract IPoolAddressesProvider",
          "name": "addressesProvider",
          "type": "address"
        },
        {
          "internalType": "address",
          "name": "pool",
          "type": "address"
        },
        {
          "internalType": "contract IOdosRouterV2",
          "name": "_swapRouter",
          "type": "address"
        },
        {
          "internalType": "address",
          "name": "_pendleRouter",
          "type": "address"
        },
        {
          "internalType": "address",
          "name": "owner",
          "type": "address"
        }
      ],
      "stateMutability": "nonpayable",
      "type": "constructor"
    },
    {
      "inputs": [
        {
          "internalType": "address",
          "name": "caller",
          "type": "address"
        },
        {
          "internalType": "address",
          "name": "pool",
          "type": "address"
        }
      ],
      "name": "CallerMustBePool",
      "type": "error"
    },
    {
      "inputs": [
        {
          "internalType": "address",
          "name": "initiator",
          "type": "address"
        },
        {
          "internalType": "address",
          "name": "expectedInitiator",
          "type": "address"
        }
      ],
      "name": "InitiatorMustBeThis",
      "type": "error"
    },
    {
      "inputs": [
        {
          "internalType": "uint256",
          "name": "balance",
          "type": "uint256"
        },
        {
          "internalType": "uint256",
          "name": "required",
          "type": "uint256"
        }
      ],
      "name": "InsufficientBalanceBeforeSwap",
      "type": "error"
    },
    {
      "inputs": [
        {
          "internalType": "uint256",
          "name": "expected",
          "type": "uint256"
        },
        {
          "internalType": "uint256",
          "name": "actual",
          "type": "uint256"
        }
      ],
      "name": "InsufficientOutput",
      "type": "error"
    },
    {
      "inputs": [
        {
          "internalType": "uint256",
          "name": "expected",
          "type": "uint256"
        },
        {
          "internalType": "uint256",
          "name": "actual",
          "type": "uint256"
        }
      ],
      "name": "InsufficientOutputAfterComposedSwap",
      "type": "error"
    },
    {
      "inputs": [
        {
          "internalType": "uint256",
          "name": "actual",
          "type": "uint256"
        },
        {
          "internalType": "uint256",
          "name": "expected",
          "type": "uint256"
        }
      ],
      "name": "InsufficientOutputAmount",
      "type": "error"
    },
    {
      "inputs": [
        {
          "internalType": "uint256",
          "name": "expected",
          "type": "uint256"
        },
        {
          "internalType": "uint256",
          "name": "actual",
          "type": "uint256"
        }
      ],
      "name": "InsufficientPTSwapOutput",
      "type": "error"
    },
    {
      "inputs": [],
      "name": "InvalidPTSwapData",
      "type": "error"
    },
    {
      "inputs": [
        {
          "internalType": "address",
          "name": "token",
          "type": "address"
        }
      ],
      "name": "InvalidPTToken",
      "type": "error"
    },
    {
      "inputs": [],
      "name": "InvalidSwapData",
      "type": "error"
    },
    {
      "inputs": [
        {
          "internalType": "address",
          "name": "asset",
          "type": "address"
        },
        {
          "internalType": "uint256",
          "name": "leftoverAmount",
          "type": "uint256"
        }
      ],
      "name": "LeftoverCollateralAfterSwap",
      "type": "error"
    },
    {
      "inputs": [
        {
          "internalType": "string",
          "name": "reason",
          "type": "string"
        }
      ],
      "name": "OdosSwapFailed",
      "type": "error"
    },
    {
      "inputs": [
        {
          "internalType": "address",
          "name": "tokenIn",
          "type": "address"
        },
        {
          "internalType": "address",
          "name": "tokenOut",
          "type": "address"
        },
        {
          "internalType": "uint256",
          "name": "expectedAmount",
          "type": "uint256"
        },
        {
          "internalType": "uint256",
          "name": "actualAmount",
          "type": "uint256"
        },
        {
          "internalType": "uint256",
          "name": "deviationBps",
          "type": "uint256"
        }
      ],
      "name": "OraclePriceDeviationExceeded",
      "type": "error"
    },
    {
      "inputs": [],
      "name": "PTApprovalFailed",
      "type": "error"
    },
    {
      "inputs": [
        {
          "internalType": "string",
          "name": "reason",
          "type": "string"
        }
      ],
      "name": "PendleSwapFailed",
      "type": "error"
    },
    {
      "inputs": [],
      "name": "PendleSwapFailed",
      "type": "error"
    },
    {
      "inputs": [
        {
          "internalType": "address",
          "name": "token",
          "type": "address"
        }
      ],
      "name": "SafeERC20FailedOperation",
      "type": "error"
    },
    {
      "inputs": [],
      "name": "SwapFailed",
      "type": "error"
    },
    {
      "inputs": [
        {
          "internalType": "uint256",
          "name": "required",
          "type": "uint256"
        },
        {
          "internalType": "uint256",
          "name": "available",
          "type": "uint256"
        }
      ],
      "name": "UnderlyingBalanceInsufficient",
      "type": "error"
    },
    {
      "anonymous": false,
      "inputs": [
        {
          "indexed": true,
          "internalType": "address",
          "name": "tokenIn",
          "type": "address"
        },
        {
          "indexed": true,
          "internalType": "address",
          "name": "tokenOut",
          "type": "address"
        },
        {
          "indexed": false,
          "internalType": "uint256",
          "name": "amountIn",
          "type": "uint256"
        },
        {
          "indexed": false,
          "internalType": "uint256",
          "name": "amountOut",
          "type": "uint256"
        }
      ],
      "name": "Bought",
      "type": "event"
    },
    {
      "anonymous": false,
      "inputs": [
        {
          "indexed": true,
          "internalType": "address",
          "name": "inputToken",
          "type": "address"
        },
        {
          "indexed": true,
          "internalType": "address",
          "name": "outputToken",
          "type": "address"
        },
        {
          "indexed": false,
          "internalType": "uint256",
          "name": "inputAmount",
          "type": "uint256"
        },
        {
          "indexed": false,
          "internalType": "uint256",
          "name": "finalOutputAmount",
          "type": "uint256"
        }
      ],
      "name": "ComposedSwapCompleted",
      "type": "event"
    },
    {
      "anonymous": false,
      "inputs": [
        {
          "indexed": true,
          "internalType": "address",
          "name": "previousOwner",
          "type": "address"
        },
        {
          "indexed": true,
          "internalType": "address",
          "name": "newOwner",
          "type": "address"
        }
      ],
      "name": "OwnershipTransferred",
      "type": "event"
    },
    {
      "anonymous": false,
      "inputs": [
        {
          "indexed": true,
          "internalType": "address",
          "name": "ptToken",
          "type": "address"
        },
        {
          "indexed": true,
          "internalType": "address",
          "name": "underlyingAsset",
          "type": "address"
        },
        {
          "indexed": false,
          "internalType": "uint256",
          "name": "ptAmount",
          "type": "uint256"
        },
        {
          "indexed": false,
          "internalType": "uint256",
          "name": "underlyingAmount",
          "type": "uint256"
        }
      ],
      "name": "PTSwapExecuted",
      "type": "event"
    },
    {
      "inputs": [],
      "name": "ADDRESSES_PROVIDER",
      "outputs": [
        {
          "internalType": "contract IPoolAddressesProvider",
          "name": "",
          "type": "address"
        }
      ],
      "stateMutability": "view",
      "type": "function"
    },
    {
      "inputs": [],
      "name": "ORACLE_PRICE_TOLERANCE_BPS",
      "outputs": [
        {
          "internalType": "uint256",
          "name": "",
          "type": "uint256"
        }
      ],
      "stateMutability": "view",
      "type": "function"
    },
    {
      "inputs": [],
      "name": "POOL",
      "outputs": [
        {
          "internalType": "contract IPool",
          "name": "",
          "type": "address"
        }
      ],
      "stateMutability": "view",
      "type": "function"
    },
    {
      "inputs": [],
      "name": "REFERRER",
      "outputs": [
        {
          "internalType": "uint16",
          "name": "",
          "type": "uint16"
        }
      ],
      "stateMutability": "view",
      "type": "function"
    },
    {
      "inputs": [
        {
          "internalType": "address[]",
          "name": "assets",
          "type": "address[]"
        },
        {
          "internalType": "uint256[]",
          "name": "amounts",
          "type": "uint256[]"
        },
        {
          "internalType": "uint256[]",
          "name": "premiums",
          "type": "uint256[]"
        },
        {
          "internalType": "address",
          "name": "initiator",
          "type": "address"
        },
        {
          "internalType": "bytes",
          "name": "params",
          "type": "bytes"
        }
      ],
      "name": "executeOperation",
      "outputs": [
        {
          "internalType": "bool",
          "name": "",
          "type": "bool"
        }
      ],
      "stateMutability": "nonpayable",
      "type": "function"
    },
    {
      "inputs": [],
      "name": "odosRouter",
      "outputs": [
        {
          "internalType": "contract IOdosRouterV2",
          "name": "",
          "type": "address"
        }
      ],
      "stateMutability": "view",
      "type": "function"
    },
    {
      "inputs": [],
      "name": "owner",
      "outputs": [
        {
          "internalType": "address",
          "name": "",
          "type": "address"
        }
      ],
      "stateMutability": "view",
      "type": "function"
    },
    {
      "inputs": [],
      "name": "pendleRouter",
      "outputs": [
        {
          "internalType": "address",
          "name": "",
          "type": "address"
        }
      ],
      "stateMutability": "view",
      "type": "function"
    },
    {
      "inputs": [],
      "name": "renounceOwnership",
      "outputs": [],
      "stateMutability": "nonpayable",
      "type": "function"
    },
    {
      "inputs": [
        {
          "internalType": "contract IERC20",
          "name": "token",
          "type": "address"
        }
      ],
      "name": "rescueTokens",
      "outputs": [],
      "stateMutability": "nonpayable",
      "type": "function"
    },
    {
      "inputs": [
        {
          "components": [
            {
              "internalType": "address",
              "name": "debtAsset",
              "type": "address"
            },
            {
              "internalType": "uint256",
              "name": "debtRepayAmount",
              "type": "uint256"
            },
            {
              "internalType": "uint256",
              "name": "debtRateMode",
              "type": "uint256"
            },
            {
              "internalType": "address",
              "name": "newDebtAsset",
              "type": "address"
            },
            {
              "internalType": "uint256",
              "name": "maxNewDebtAmount",
              "type": "uint256"
            },
            {
              "internalType": "address",
              "name": "extraCollateralAsset",
              "type": "address"
            },
            {
              "internalType": "uint256",
              "name": "extraCollateralAmount",
              "type": "uint256"
            },
            {
              "internalType": "bytes",
              "name": "swapData",
              "type": "bytes"
            },
            {
              "internalType": "uint256",
              "name": "allBalanceOffset",
              "type": "uint256"
            }
          ],
          "internalType": "struct IOdosDebtSwapAdapterV2.DebtSwapParamsV2",
          "name": "debtSwapParams",
          "type": "tuple"
        },
        {
          "components": [
            {
              "internalType": "address",
              "name": "debtToken",
              "type": "address"
            },
            {
              "internalType": "uint256",
              "name": "value",
              "type": "uint256"
            },
            {
              "internalType": "uint256",
              "name": "deadline",
              "type": "uint256"
            },
            {
              "internalType": "uint8",
              "name": "v",
              "type": "uint8"
            },
            {
              "internalType": "bytes32",
              "name": "r",
              "type": "bytes32"
            },
            {
              "internalType": "bytes32",
              "name": "s",
              "type": "bytes32"
            }
          ],
          "internalType": "struct IOdosDebtSwapAdapterV2.CreditDelegationInput",
          "name": "creditDelegationPermit",
          "type": "tuple"
        },
        {
          "components": [
            {
              "internalType": "contract IERC20WithPermit",
              "name": "aToken",
              "type": "address"
            },
            {
              "internalType": "uint256",
              "name": "value",
              "type": "uint256"
            },
            {
              "internalType": "uint256",
              "name": "deadline",
              "type": "uint256"
            },
            {
              "internalType": "uint8",
              "name": "v",
              "type": "uint8"
            },
            {
              "internalType": "bytes32",
              "name": "r",
              "type": "bytes32"
            },
            {
              "internalType": "bytes32",
              "name": "s",
              "type": "bytes32"
            }
          ],
          "internalType": "struct IBaseOdosAdapter.PermitInput",
          "name": "collateralATokenPermit",
          "type": "tuple"
        }
      ],
      "name": "swapDebt",
      "outputs": [],
      "stateMutability": "nonpayable",
      "type": "function"
    },
    {
      "inputs": [
        {
          "internalType": "address",
          "name": "newOwner",
          "type": "address"
        }
      ],
      "name": "transferOwnership",
      "outputs": [],
      "stateMutability": "nonpayable",
      "type": "function"
    }
  ],
  "transactionHash": "0x9aea41ebdb91743b39164b0ed024378e28cd2f72255f1c96f14de3a4ba8c4ac0",
  "args": [
    "0x1f8d8a3575d049aA0C195AA947483738811bAdcb",
    "0xEdC3cfB1aa36c570cc1D374876268bDda2D460CC",
    "0xaC041Df48dF9791B0654f1Dbbf2CC8450C5f2e9D",
    "0x888888888889758F76e7103c6CbF23ABbF58F946",
    "0x51fc0830DBe3A446701E7897F32C89A3B04e5a0a"
  ],
  "numDeployments": 12,
  "solcInputHash": "09774bcdc9479892e8a154e6e1278e74",
  "bytecode": "0x6101006040523480156200001257600080fd5b50604051620047c9380380620047c983398101604081905262000035916200065f565b848484848383600033600080546001600160a01b0319166001600160a01b038316908117825560405192935091600080516020620047a9833981519152908290a3506001600160a01b03918216608052811660a05291821660c0521660e052505060018055620000a58162000177565b600060a0516001600160a01b031663d1946dbc6040518163ffffffff1660e01b8152600401600060405180830381865afa158015620000e8573d6000803e3d6000fd5b505050506040513d6000823e601f3d908101601f19168201604052620001129190810190620006f5565b905060005b81518110156200016a576200016160a051600019848481518110620001405762000140620007c7565b60200260200101516001600160a01b03166200028860201b9092919060201c565b60010162000117565b5050505050505062000894565b6000546001600160a01b03163314620001d75760405162461bcd60e51b815260206004820181905260248201527f4f776e61626c653a2063616c6c6572206973206e6f7420746865206f776e657260448201526064015b60405180910390fd5b6001600160a01b0381166200023e5760405162461bcd60e51b815260206004820152602660248201527f4f776e61626c653a206e6577206f776e657220697320746865207a65726f206160448201526564647265737360d01b6064820152608401620001ce565b600080546040516001600160a01b0380851693921691600080516020620047a983398151915291a3600080546001600160a01b0319166001600160a01b0392909216919091179055565b801580620003065750604051636eb1769f60e11b81523060048201526001600160a01b03838116602483015284169063dd62ed3e90604401602060405180830381865afa158015620002de573d6000803e3d6000fd5b505050506040513d601f19601f82011682018060405250810190620003049190620007dd565b155b6200037a5760405162461bcd60e51b815260206004820152603660248201527f5361666545524332303a20617070726f76652066726f6d206e6f6e2d7a65726f60448201527f20746f206e6f6e2d7a65726f20616c6c6f77616e6365000000000000000000006064820152608401620001ce565b604080516001600160a01b038416602482015260448082018490528251808303909101815260649091019091526020810180516001600160e01b0390811663095ea7b360e01b17909152620003d2918591620003d716565b505050565b6040805180820190915260208082527f5361666545524332303a206c6f772d6c6576656c2063616c6c206661696c65649082015260009062000426906001600160a01b038516908490620004a8565b805190915015620003d25780806020019051810190620004479190620007f7565b620003d25760405162461bcd60e51b815260206004820152602a60248201527f5361666545524332303a204552433230206f7065726174696f6e20646964206e6044820152691bdd081cdd58d8d9595960b21b6064820152608401620001ce565b6060620004b98484600085620004c3565b90505b9392505050565b606082471015620005265760405162461bcd60e51b815260206004820152602660248201527f416464726573733a20696e73756666696369656e742062616c616e636520666f6044820152651c8818d85b1b60d21b6064820152608401620001ce565b843b620005765760405162461bcd60e51b815260206004820152601d60248201527f416464726573733a2063616c6c20746f206e6f6e2d636f6e74726163740000006044820152606401620001ce565b600080866001600160a01b0316858760405162000594919062000841565b60006040518083038185875af1925050503d8060008114620005d3576040519150601f19603f3d011682016040523d82523d6000602084013e620005d8565b606091505b509092509050620005eb828286620005f6565b979650505050505050565b6060831562000607575081620004bc565b825115620006185782518084602001fd5b8160405162461bcd60e51b8152600401620001ce91906200085f565b6001600160a01b03811681146200064a57600080fd5b50565b80516200065a8162000634565b919050565b600080600080600060a086880312156200067857600080fd5b8551620006858162000634565b6020870151909550620006988162000634565b6040870151909450620006ab8162000634565b6060870151909350620006be8162000634565b6080870151909250620006d18162000634565b809150509295509295909350565b634e487b7160e01b600052604160045260246000fd5b600060208083850312156200070957600080fd5b82516001600160401b03808211156200072157600080fd5b818501915085601f8301126200073657600080fd5b8151818111156200074b576200074b620006df565b8060051b604051601f19603f83011681018181108582111715620007735762000773620006df565b6040529182528482019250838101850191888311156200079257600080fd5b938501935b82851015620007bb57620007ab856200064d565b8452938501939285019262000797565b98975050505050505050565b634e487b7160e01b600052603260045260246000fd5b600060208284031215620007f057600080fd5b5051919050565b6000602082840312156200080a57600080fd5b81518015158114620004bc57600080fd5b60005b83811015620008385781810151838201526020016200081e565b50506000910152565b60008251620008558184602087016200081b565b9190910192915050565b6020815260008251806020840152620008808160408501602087016200081b565b601f01601f19169190910160400192915050565b60805160a05160c05160e051613e6c6200093d600039600081816101160152611c1301526000818161019601528181611b9e0152611c42015260008181610158015281816107820152818161088401528181610a4601528181610bd301528181610c3a01528181610ca301528181610d5501528181610e4a01528181610ffb015281816111930152818161122e01526112be01526000818160d201526118a10152613e6c6000f3fe608060405234801561001057600080fd5b50600436106100b35760003560e01c80638035786211610071578063803578621461017a5780638321928d146101915780638da5cb5b146101b8578063920f5c84146101c9578063c0560374146101ec578063f2fde38b1461020857600080fd5b8062ae3bf8146100b85780630542975c146100cd578063206aeab3146101115780632d631f2f14610138578063715018a61461014b5780637535d24614610153575b600080fd5b6100cb6100c636600461311c565b61021b565b005b6100f47f000000000000000000000000000000000000000000000000000000000000000081565b6040516001600160a01b0390911681526020015b60405180910390f35b6100f47f000000000000000000000000000000000000000000000000000000000000000081565b6100cb610146366004613339565b6102df565b6100cb610803565b6100f47f000000000000000000000000000000000000000000000000000000000000000081565b6101836101f481565b604051908152602001610108565b6100f47f000000000000000000000000000000000000000000000000000000000000000081565b6000546001600160a01b03166100f4565b6101dc6101d73660046134bf565b610877565b6040519015158152602001610108565b6101f561173181565b60405161ffff9091168152602001610108565b6100cb61021636600461311c565b610e81565b6000546001600160a01b0316331461024e5760405162461bcd60e51b8152600401610245906135da565b60405180910390fd5b6102dc6102636000546001600160a01b031690565b6040516370a0823160e01b81523060048201526001600160a01b038416906370a0823190602401602060405180830381865afa1580156102a7573d6000803e3d6000fd5b505050506040513d601f19601f820116820180604052508101906102cb919061360f565b6001600160a01b0384169190610f6b565b50565b6002600154036103315760405162461bcd60e51b815260206004820152601f60248201527f5265656e7472616e637947756172643a207265656e7472616e742063616c6c006044820152606401610245565b600260015560608301516040516370a0823160e01b81523060048201526000916001600160a01b0316906370a0823190602401602060405180830381865afa158015610381573d6000803e3d6000fd5b505050506040513d601f19601f820116820180604052508101906103a5919061360f565b905082604001516000146104365782600001516001600160a01b0316630b52d558333086602001518760400151886060015189608001518a60a001516040518863ffffffff1660e01b81526004016104039796959493929190613628565b600060405180830381600087803b15801561041d57600080fd5b505af1158015610431573d6000803e3d6000fd5b505050505b6000806104468660000151610fd3565b5091509150600086604001516002146104c6576040516370a0823160e01b81523360048201526001600160a01b038316906370a0823190602401602060405180830381865afa15801561049d573d6000803e3d6000fd5b505050506040513d601f19601f820116820180604052508101906104c1919061360f565b61052e565b6040516370a0823160e01b81523360048201526001600160a01b038416906370a0823190602401602060405180830381865afa15801561050a573d6000803e3d6000fd5b505050506040513d601f19601f8201168201806040525081019061052e919061360f565b9050808760200151111561054457602087018190525b600060405180610100016040528089600001516001600160a01b03168152602001896020015181526020018960400151815260200160006001600160a01b0316815260200160008152602001336001600160a01b031681526020018960e001518152602001896101000151815250905060006001600160a01b03168860a001516001600160a01b0316146106965760408601511561065f5785600001516001600160a01b031663d505accf333089602001518a604001518b606001518c608001518d60a001516040518863ffffffff1660e01b815260040161062c9796959493929190613628565b600060405180830381600087803b15801561064657600080fd5b505af115801561065a573d6000803e3d6000fd5b505050505b6060808901516001600160a01b0316908201526080808901519082015260a088015160c0890151610691918391611087565b6106a9565b6106a98189606001518a60800151611087565b60608801516040516370a0823160e01b81523060048201526000916001600160a01b0316906370a0823190602401602060405180830381865afa1580156106f4573d6000803e3d6000fd5b505050506040513d601f19601f82011682018060405250810190610718919061360f565b9050600086821161072a576000610734565b610734878361367f565b905080156107f35761074a8a6060015182611211565b60608a015160405163573ade8160e01b81526001600160a01b03918216600482015260248101839052600260448201523360648201527f00000000000000000000000000000000000000000000000000000000000000009091169063573ade81906084016020604051808303816000875af11580156107cd573d6000803e3d6000fd5b505050506040513d601f19601f820116820180604052508101906107f1919061360f565b505b5050600180555050505050505050565b6000546001600160a01b0316331461082d5760405162461bcd60e51b8152600401610245906135da565b600080546040516001600160a01b03909116907f8be0079c531659141344cd1fd0a4f28419497f9722a3daafe3b4186f6b6457e0908390a3600080546001600160a01b0319169055565b6000336001600160a01b037f000000000000000000000000000000000000000000000000000000000000000016146108f15760405162461bcd60e51b815260206004820152601760248201527f43616c6c6261636b206f6e6c792066726f6d20504f4f4c0000000000000000006044820152606401610245565b6001600160a01b03831630146109495760405162461bcd60e51b815260206004820152601c60248201527f496e69746961746f72206f6e6c79207468697320636f6e7472616374000000006044820152606401610245565b60008560008151811061095e5761095e613692565b6020026020010151905060008760008151811061097d5761097d613692565b6020026020010151905060008660008151811061099c5761099c613692565b6020026020010151836109af91906136a8565b90506000858060200190518101906109c7919061372f565b60608101519091506001600160a01b031615610c075760006109e884610fd3565b92505050610a148260a00151308460200151846001600160a01b03166112e5909392919063ffffffff16565b6020820151604051631a4ca37b60e21b81526001600160a01b03868116600483015260248201929092523060448201527f0000000000000000000000000000000000000000000000000000000000000000909116906369328dec906064016020604051808303816000875af1158015610a91573d6000803e3d6000fd5b505050506040513d601f19601f82011682018060405250810190610ab5919061360f565b50600060405180610100016040528084600001516001600160a01b03168152602001846020015181526020018460400151815260200160006001600160a01b03168152602001600081526020018460a001516001600160a01b031681526020018460c0015181526020018460e001518152509050610b3c8360600151846080015183611323565b6040516370a0823160e01b815230600482015284906001600160a01b038716906370a0823190602401602060405180830381865afa158015610b82573d6000803e3d6000fd5b505050506040513d601f19601f82011682018060405250810190610ba6919061360f565b1015610bc45760405162461bcd60e51b8152600401610245906137fa565b610bf86001600160a01b0386167f0000000000000000000000000000000000000000000000000000000000000000866113c9565b60019650505050505050610e78565b610c208382600001518684602001518560c001516114de565b5060208101518151610c5f916001600160a01b03909116907f0000000000000000000000000000000000000000000000000000000000000000906113c9565b8051602082015160408084015160a0850151915163573ade8160e01b81526001600160a01b03948516600482015260248101939093526044830152821660648201527f00000000000000000000000000000000000000000000000000000000000000009091169063573ade81906084016020604051808303816000875af1158015610cee573d6000803e3d6000fd5b505050506040513d601f19601f82011682018060405250810190610d12919061360f565b5060a081015160405163a415bcad60e01b81526001600160a01b0385811660048301526024820185905260026044830152611731606483015291821660848201527f00000000000000000000000000000000000000000000000000000000000000009091169063a415bcad9060a401600060405180830381600087803b158015610d9b57600080fd5b505af1158015610daf573d6000803e3d6000fd5b50506040516370a0823160e01b81523060048201528492506001600160a01b03861691506370a0823190602401602060405180830381865afa158015610df9573d6000803e3d6000fd5b505050506040513d601f19601f82011682018060405250810190610e1d919061360f565b1015610e3b5760405162461bcd60e51b8152600401610245906137fa565b610e6f6001600160a01b0384167f0000000000000000000000000000000000000000000000000000000000000000846113c9565b60019450505050505b95945050505050565b6000546001600160a01b03163314610eab5760405162461bcd60e51b8152600401610245906135da565b6001600160a01b038116610f105760405162461bcd60e51b815260206004820152602660248201527f4f776e61626c653a206e6577206f776e657220697320746865207a65726f206160448201526564647265737360d01b6064820152608401610245565b600080546040516001600160a01b03808516939216917f8be0079c531659141344cd1fd0a4f28419497f9722a3daafe3b4186f6b6457e091a3600080546001600160a01b0319166001600160a01b0392909216919091179055565b6040516001600160a01b038316602482015260448101829052610fce90849063a9059cbb60e01b906064015b60408051601f198184030181529190526020810180516001600160e01b03166001600160e01b0319909316929092179091526116df565b505050565b6040516335ea6a7560e01b81526001600160a01b0382811660048301526000918291829182917f000000000000000000000000000000000000000000000000000000000000000016906335ea6a75906024016101e060405180830381865afa158015611043573d6000803e3d6000fd5b505050506040513d601f19601f8201168201806040525081019061106791906138c8565b610140810151610120820151610100909201519097919650945092505050565b60008360405160200161109a9190613a17565b60408051601f1981840301815260018084528383019092529250600091906020808301908036833701905050905083816000815181106110dc576110dc613692565b6001600160a01b039290921660209283029190910190910152604080516001808252818301909252600091816020016020820280368337019050509050838160008151811061112d5761112d613692565b602090810291909101015260408051600180825281830190925260009181602001602082028036833701905050905060008160008151811061117157611171613692565b602090810291909101015260405163ab9c4b5d60e01b81526001600160a01b037f0000000000000000000000000000000000000000000000000000000000000000169063ab9c4b5d906111d690309087908790879084908c9061173190600401613adf565b600060405180830381600087803b1580156111f057600080fd5b505af1158015611204573d6000803e3d6000fd5b5050505050505050505050565b604051636eb1769f60e11b81523060048201526001600160a01b037f0000000000000000000000000000000000000000000000000000000000000000811660248301526000919084169063dd62ed3e90604401602060405180830381865afa158015611281573d6000803e3d6000fd5b505050506040513d601f19601f820116820180604052508101906112a5919061360f565b905081811015610fce57610fce6001600160a01b0384167f00000000000000000000000000000000000000000000000000000000000000006000196113c9565b6040516001600160a01b038085166024830152831660448201526064810182905261131d9085906323b872dd60e01b90608401610f97565b50505050565b6000816040516020016113369190613a17565b60408051601f19818403018152600180845283830190925292506000919060208083019080368337019050509050848160008151811061137857611378613692565b6001600160a01b039290921660209283029190910190910152604080516001808252818301909252600091816020016020820280368337019050509050848160008151811061112d5761112d613692565b8015806114435750604051636eb1769f60e11b81523060048201526001600160a01b03838116602483015284169063dd62ed3e90604401602060405180830381865afa15801561141d573d6000803e3d6000fd5b505050506040513d601f19601f82011682018060405250810190611441919061360f565b155b6114ae5760405162461bcd60e51b815260206004820152603660248201527f5361666545524332303a20617070726f76652066726f6d206e6f6e2d7a65726f60448201527520746f206e6f6e2d7a65726f20616c6c6f77616e636560501b6064820152608401610245565b6040516001600160a01b038316602482015260448101829052610fce90849063095ea7b360e01b90606401610f97565b600085856114ee828288886117b1565b60006114fa8383611b1b565b9050600081600381111561151057611510613b8f565b0361152c576115228383898989611b97565b9350505050610e78565b6040516370a0823160e01b81523060048201526000906001600160a01b038b16906370a0823190602401602060405180830381865afa158015611573573d6000803e3d6000fd5b505050506040513d601f19601f82011682018060405250810190611597919061360f565b9050878110156115c45760405163b6554a4960e01b81526004810182905260248101899052604401610245565b60006115d385858b8b8b611bd1565b6040516370a0823160e01b81523060048201529091506000906001600160a01b038d16906370a0823190602401602060405180830381865afa15801561161d573d6000803e3d6000fd5b505050506040513d601f19601f82011682018060405250810190611641919061360f565b90508083101561166e5760405163b6554a4960e01b81526004810184905260248101829052604401610245565b611678818461367f565b9650846001600160a01b0316866001600160a01b03167fbf77fd13a39d14dc0da779342c14105c38d9a5d0c60f2caa22f5fd1d5525416d89856040516116c8929190918252602082015260400190565b60405180910390a350505050505095945050505050565b6000611734826040518060400160405280602081526020017f5361666545524332303a206c6f772d6c6576656c2063616c6c206661696c6564815250856001600160a01b0316611c729092919063ffffffff16565b805190915015610fce57808060200190518101906117529190613bb5565b610fce5760405162461bcd60e51b815260206004820152602a60248201527f5361666545524332303a204552433230206f7065726174696f6e20646964206e6044820152691bdd081cdd58d8d9595960b21b6064820152608401610245565b826001600160a01b0316846001600160a01b0316031561131d576000846001600160a01b031663313ce5676040518163ffffffff1660e01b8152600401602060405180830381865afa15801561180b573d6000803e3d6000fd5b505050506040513d601f19601f8201168201806040525081019061182f9190613bd0565b60ff1690506000846001600160a01b031663313ce5676040518163ffffffff1660e01b8152600401602060405180830381865afa158015611874573d6000803e3d6000fd5b505050506040513d601f19601f820116820180604052508101906118989190613bd0565b60ff16905060007f00000000000000000000000000000000000000000000000000000000000000006001600160a01b031663fca513a86040518163ffffffff1660e01b8152600401602060405180830381865afa1580156118fd573d6000803e3d6000fd5b505050506040513d601f19601f820116820180604052508101906119219190613bed565b60405163b3596f0760e01b81526001600160a01b03898116600483015291925060009183169063b3596f0790602401602060405180830381865afa15801561196d573d6000803e3d6000fd5b505050506040513d601f19601f82011682018060405250810190611991919061360f565b60405163b3596f0760e01b81526001600160a01b03898116600483015291925060009184169063b3596f0790602401602060405180830381865afa1580156119dd573d6000803e3d6000fd5b505050506040513d601f19601f82011682018060405250810190611a01919061360f565b9050811580611a0e575080155b15611a55576040516389cbb84760e01b81526001600160a01b03808b166004830152891660248201526000604482018190526064820152600019608482015260a401610245565b6000611a6285600a613cee565b611a6c9084613cfa565b611a7787600a613cee565b611a81848a613cfa565b611a8b9190613cfa565b611a959190613d11565b905080881115611b0f57600081611aac818b61367f565b611ab890612710613cfa565b611ac29190613d11565b90506101f4811115611204576040516389cbb84760e01b81526001600160a01b03808d1660048301528b16602482015260448101839052606481018a90526084810182905260a401610245565b50505050505050505050565b600080611b2784611c8b565b5090506000611b3584611c8b565b50905081158015611b44575080155b15611b5457600092505050611b91565b818015611b5f575080155b15611b6f57600192505050611b91565b81158015611b7a5750805b15611b8a57600292505050611b91565b6003925050505b92915050565b6000611bc77f00000000000000000000000000000000000000000000000000000000000000008787878787611d56565b9695505050505050565b6000611bc76040518060e00160405280886001600160a01b03168152602001876001600160a01b031681526020018681526020018581526020018481526020017f00000000000000000000000000000000000000000000000000000000000000006001600160a01b031681526020017f00000000000000000000000000000000000000000000000000000000000000006001600160a01b0316815250611f91565b6060611c81848460008561210a565b90505b9392505050565b60408051600481526024810182526020810180516001600160e01b031663afd27bf560e01b17905290516000918291829182916001600160a01b03871691611cd291613d33565b600060405180830381855afa9150503d8060008114611d0d576040519150601f19603f3d011682016040523d82523d6000602084013e611d12565b606091505b5091509150818015611d25575080516020145b15611d4f5780806020019051810190611d3e9190613bed565b6001600160a01b0381161515945092505b5050915091565b6040516370a0823160e01b815230600482015260009081906001600160a01b038716906370a0823190602401602060405180830381865afa158015611d9f573d6000803e3d6000fd5b505050506040513d601f19601f82011682018060405250810190611dc3919061360f565b9050611dd0878987612232565b600080896001600160a01b031685604051611deb9190613d33565b6000604051808303816000865af19150503d8060008114611e28576040519150601f19603f3d011682016040523d82523d6000602084013e611e2d565b606091505b509150915081611e6057805115611e475780518082602001fd5b60405163081ceff360e41b815260040160405180910390fd5b60208101516040516370a0823160e01b81523060048201529094506000906001600160a01b038a16906370a0823190602401602060405180830381865afa158015611eaf573d6000803e3d6000fd5b505050506040513d601f19601f82011682018060405250810190611ed3919061360f565b90506000611ee1858361367f565b905087811015611f0e57604051630583371760e31b81526004810189905260248101829052604401610245565b60405163095ea7b360e01b81526001600160a01b038d81166004830152600060248301528c169063095ea7b3906044016020604051808303816000875af1158015611f5d573d6000803e3d6000fd5b505050506040513d601f19601f82011682018060405250810190611f819190613bb5565b5050505050509695505050505050565b600080611fa683600001518460200151611b1b565b90506000816003811115611fbc57611fbc613b8f565b03611fe757611c848360c0015184600001518560200151866040015187606001518860800151611d56565b600083608001518060200190518101906120019190613d4f565b905061200c816122e6565b6120295760405163b204669b60e01b815260040160405180910390fd5b600182600381111561203d5761203d613b8f565b036120715761206984600001518560200151866040015187606001518860a001518960c0015187612317565b949350505050565b600282600381111561208557612085613b8f565b036120b15761206984600001518560200151866040015187606001518860a001518960c0015187612430565b60038260038111156120c5576120c5613b8f565b036120f15761206984600001518560200151866040015187606001518860a001518960c0015187612812565b60405163b204669b60e01b815260040160405180910390fd5b60608247101561216b5760405162461bcd60e51b815260206004820152602660248201527f416464726573733a20696e73756666696369656e742062616c616e636520666f6044820152651c8818d85b1b60d21b6064820152608401610245565b843b6121b95760405162461bcd60e51b815260206004820152601d60248201527f416464726573733a2063616c6c20746f206e6f6e2d636f6e74726163740000006044820152606401610245565b600080866001600160a01b031685876040516121d59190613d33565b60006040518083038185875af1925050503d8060008114612212576040519150601f19603f3d011682016040523d82523d6000602084013e612217565b606091505b5091509150612227828286612bc1565b979650505050505050565b604080516001600160a01b038416602482015260448082018490528251808303909101815260649091019091526020810180516001600160e01b031663095ea7b360e01b1790526122838482612bfa565b61131d57604080516001600160a01b038516602482015260006044808301919091528251808303909101815260649091019091526020810180516001600160e01b031663095ea7b360e01b1790526122dc908590612c44565b61131d8482612c44565b80516000906122fa57506060015151151590565b81604001515160000361230f57506000919050565b506001919050565b80516000901580612333575060208201516001600160a01b0316155b156123515760405163205544d760e11b815260040160405180910390fd5b600061236889888560200151888760400151612cb5565b9050876001600160a01b031683602001516001600160a01b03160361238f578091506123ce565b8260600151516000036123b55760405163205544d760e11b815260040160405180910390fd5b6123cb8484602001518a848a8860600151611d56565b91505b876001600160a01b0316896001600160a01b03167f82494e43b53e197c30b1d5d35cf1c20c1e5d45885b1a8aa61f457a9dd5e7c364898560405161241c929190918252602082015260400190565b60405180910390a350979650505050505050565b8051600090158061244c575060208201516001600160a01b0316155b1561246a5760405163205544d760e11b815260040160405180910390fd5b600082602001516001600160a01b0316896001600160a01b031603612490575085612689565b8260600151516000036124b65760405163205544d760e11b815260040160405180910390fd5b60208301516040516370a0823160e01b81523060048201526000916001600160a01b0316906370a0823190602401602060405180830381865afa158015612501573d6000803e3d6000fd5b505050506040513d601f19601f82011682018060405250810190612525919061360f565b905061253e858b86602001518b60008960600151611d56565b60208501516040516370a0823160e01b81523060048201529193506000916001600160a01b03909116906370a0823190602401602060405180830381865afa15801561258e573d6000803e3d6000fd5b505050506040513d601f19601f820116820180604052508101906125b2919061360f565b90508181101561261457604051631300105360e01b815260206004820152602660248201527f4f646f73207377617020726573756c74656420696e2062616c616e636520646560448201526563726561736560d01b6064820152608401610245565b6000612620838361367f565b90508060000361268557604051631300105360e01b815260206004820152602960248201527f4f646f7320737761702072657475726e6564207a65726f20756e6465726c79696044820152686e6720746f6b656e7360b81b6064820152608401610245565b5050505b60208301516040516370a0823160e01b81523060048201526000916001600160a01b0316906370a0823190602401602060405180830381865afa1580156126d4573d6000803e3d6000fd5b505050506040513d601f19601f820116820180604052508101906126f8919061360f565b905081811015612725576040516305be2c3160e21b81526004810183905260248101829052604401610245565b61273a84602001518a84898860400151612e30565b9250868310156127675760405163223b57c760e21b81526004810188905260248101849052604401610245565b886001600160a01b031684602001516001600160a01b0316600080516020613e1783398151915284866040516127a7929190918252602082015260400190565b60405180910390a3886001600160a01b03168a6001600160a01b03167f82494e43b53e197c30b1d5d35cf1c20c1e5d45885b1a8aa61f457a9dd5e7c3648a866040516127fd929190918252602082015260400190565b60405180910390a35050979650505050505050565b60008061281e89611c8b565b509050600061282c89611c8b565b50905081158061283a575080155b15612863576040516303c4074b60e21b81526001600160a01b038b166004820152602401610245565b8351158061287c575060208401516001600160a01b0316155b8061288a5750606084015151155b806128985750604084015151155b156128b65760405163205544d760e11b815260040160405180910390fd5b60208401516040516370a0823160e01b815230600482015260009182916001600160a01b03909116906370a0823190602401602060405180830381865afa158015612905573d6000803e3d6000fd5b505050506040513d601f19601f82011682018060405250810190612929919061360f565b9050612942878d88602001518d60008b60600151611d56565b5060208601516040516370a0823160e01b81523060048201526000916001600160a01b0316906370a0823190602401602060405180830381865afa15801561298e573d6000803e3d6000fd5b505050506040513d601f19601f820116820180604052508101906129b2919061360f565b905081811015612a1757604051631300105360e01b815260206004820152602960248201527f4f646f73205054207377617020726573756c74656420696e2062616c616e636560448201526820646563726561736560b81b6064820152608401610245565b612a21828261367f565b9250505080600003612a8b57604051631300105360e01b815260206004820152602c60248201527f4f646f7320505420737761702072657475726e6564207a65726f20756e64657260448201526b6c79696e6720746f6b656e7360a01b6064820152608401610245565b84602001516001600160a01b03168b6001600160a01b0316600080516020613e178339815191528b84604051612acb929190918252602082015260400190565b60405180910390a3612ae885602001518b838a8960400151612e30565b935087841015612b155760405163223b57c760e21b81526004810189905260248101859052604401610245565b896001600160a01b031685602001516001600160a01b0316600080516020613e178339815191528387604051612b55929190918252602082015260400190565b60405180910390a3896001600160a01b03168b6001600160a01b03167f82494e43b53e197c30b1d5d35cf1c20c1e5d45885b1a8aa61f457a9dd5e7c3648b87604051612bab929190918252602082015260400190565b60405180910390a3505050979650505050505050565b60608315612bd0575081611c84565b825115612be05782518084602001fd5b8160405162461bcd60e51b81526004016102459190613e03565b6000806000806020600086516020880160008a5af192503d91506000519050828015611bc757508115612c305780600114611bc7565b50505050506001600160a01b03163b151590565b600080602060008451602086016000885af180612c67576040513d6000823e3d81fd5b50506000513d91508115612c7f578060011415612c8c565b6001600160a01b0384163b155b1561131d57604051635274afe760e01b81526001600160a01b0385166004820152602401610245565b6040516370a0823160e01b815230600482015260009081906001600160a01b038616906370a0823190602401602060405180830381865afa158015612cfe573d6000803e3d6000fd5b505050506040513d601f19601f82011682018060405250810190612d22919061360f565b9050612d318786888787612e30565b506040516370a0823160e01b81523060048201526000906001600160a01b038716906370a0823190602401602060405180830381865afa158015612d79573d6000803e3d6000fd5b505050506040513d601f19601f82011682018060405250810190612d9d919061360f565b905081811015612dd5576000612db3828461367f565b6040516305be2c3160e21b815260048101929092526024820152604401610245565b612ddf828261367f565b9250856001600160a01b0316886001600160a01b0316600080516020613e178339815191528986604051612e1d929190918252602082015260400190565b60405180910390a3505095945050505050565b6040516370a0823160e01b815230600482015260009081906001600160a01b038716906370a0823190602401602060405180830381865afa158015612e79573d6000803e3d6000fd5b505050506040513d601f19601f82011682018060405250810190612e9d919061360f565b9050612eab87868686612f2f565b506040516370a0823160e01b81523060048201526000906001600160a01b038816906370a0823190602401602060405180830381865afa158015612ef3573d6000803e3d6000fd5b505050506040513d601f19601f82011682018060405250810190612f17919061360f565b9050612f23828261367f565b98975050505050505050565b6060612f3c858486612232565b604051636eb1769f60e11b81523060048201526001600160a01b0384811660248301526000919087169063dd62ed3e90604401602060405180830381865afa158015612f8c573d6000803e3d6000fd5b505050506040513d601f19601f82011682018060405250810190612fb0919061360f565b905084811015612fd35760405163a7ed3d5f60e01b815260040160405180910390fd5b6000612fdf858561307f565b935090508061300157604051630fe7fe8560e01b815260040160405180910390fd5b60405163095ea7b360e01b81526001600160a01b0386811660048301526000602483015288169063095ea7b3906044016020604051808303816000875af1158015613050573d6000803e3d6000fd5b505050506040513d601f19601f820116820180604052508101906130749190613bb5565b505050949350505050565b60006060836001600160a01b03168360405161309b9190613d33565b6000604051808303816000865af19150503d80600081146130d8576040519150601f19603f3d011682016040523d82523d6000602084013e6130dd565b606091505b509092509050811580156130f2575060008151115b156131005780518082602001fd5b9250929050565b6001600160a01b03811681146102dc57600080fd5b60006020828403121561312e57600080fd5b8135611c8481613107565b634e487b7160e01b600052604160045260246000fd5b60405161012081016001600160401b038111828210171561317257613172613139565b60405290565b60405161010081016001600160401b038111828210171561317257613172613139565b6040516101e081016001600160401b038111828210171561317257613172613139565b604051608081016001600160401b038111828210171561317257613172613139565b604051601f8201601f191681016001600160401b038111828210171561320857613208613139565b604052919050565b803561321b81613107565b919050565b60006001600160401b0382111561323957613239613139565b50601f01601f191660200190565b600082601f83011261325857600080fd5b813561326b61326682613220565b6131e0565b81815284602083860101111561328057600080fd5b816020850160208301376000918101602001919091529392505050565b60ff811681146102dc57600080fd5b600060c082840312156132be57600080fd5b60405160c081018181106001600160401b03821117156132e0576132e0613139565b60405290508082356132f181613107565b80825250602083013560208201526040830135604082015260608301356133178161329d565b806060830152506080830135608082015260a083013560a08201525092915050565b60008060006101a0848603121561334f57600080fd5b83356001600160401b038082111561336657600080fd5b90850190610120828803121561337b57600080fd5b61338361314f565b61338c83613210565b815260208301356020820152604083013560408201526133ae60608401613210565b6060820152608083013560808201526133c960a08401613210565b60a082015260c083013560c082015260e0830135828111156133ea57600080fd5b6133f689828601613247565b60e083015250610100928301359281019290925250925061341a85602086016132ac565b91506134298560e086016132ac565b90509250925092565b60006001600160401b0382111561344b5761344b613139565b5060051b60200190565b600082601f83011261346657600080fd5b8135602061347661326683613432565b8083825260208201915060208460051b87010193508684111561349857600080fd5b602086015b848110156134b4578035835291830191830161349d565b509695505050505050565b600080600080600060a086880312156134d757600080fd5b85356001600160401b03808211156134ee57600080fd5b818801915088601f83011261350257600080fd5b8135602061351261326683613432565b82815260059290921b8401810191818101908c84111561353157600080fd5b948201945b8386101561355857853561354981613107565b82529482019490820190613536565b9950508901359250508082111561356e57600080fd5b61357a89838a01613455565b9550604088013591508082111561359057600080fd5b61359c89838a01613455565b94506135aa60608901613210565b935060808801359150808211156135c057600080fd5b506135cd88828901613247565b9150509295509295909350565b6020808252818101527f4f776e61626c653a2063616c6c6572206973206e6f7420746865206f776e6572604082015260600190565b60006020828403121561362157600080fd5b5051919050565b6001600160a01b0397881681529590961660208601526040850193909352606084019190915260ff16608083015260a082015260c081019190915260e00190565b634e487b7160e01b600052601160045260246000fd5b81810381811115611b9157611b91613669565b634e487b7160e01b600052603260045260246000fd5b80820180821115611b9157611b91613669565b805161321b81613107565b60005b838110156136e15781810151838201526020016136c9565b50506000910152565b600082601f8301126136fb57600080fd5b815161370961326682613220565b81815284602083860101111561371e57600080fd5b6120698260208301602087016136c6565b60006020828403121561374157600080fd5b81516001600160401b038082111561375857600080fd5b90830190610100828603121561376d57600080fd5b613775613178565b61377e836136bb565b815260208301516020820152604083015160408201526137a0606084016136bb565b6060820152608083015160808201526137bb60a084016136bb565b60a082015260c0830151828111156137d257600080fd5b6137de878286016136ea565b60c08301525060e083015160e082015280935050505092915050565b60208082526026908201527f496e73756666696369656e7420616d6f756e7420746f20726570617920666c6160408201526539b43637b0b760d11b606082015260800190565b60006020828403121561385257600080fd5b604051602081018181106001600160401b038211171561387457613874613139565b6040529151825250919050565b80516fffffffffffffffffffffffffffffffff8116811461321b57600080fd5b805164ffffffffff8116811461321b57600080fd5b805161ffff8116811461321b57600080fd5b60006101e082840312156138db57600080fd5b6138e361319b565b6138ed8484613840565b81526138fb60208401613881565b602082015261390c60408401613881565b604082015261391d60608401613881565b606082015261392e60808401613881565b608082015261393f60a08401613881565b60a082015261395060c084016138a1565b60c082015261396160e084016138b6565b60e08201526101006139748185016136bb565b908201526101206139868482016136bb565b908201526101406139988482016136bb565b908201526101606139aa8482016136bb565b908201526101806139bc848201613881565b908201526101a06139ce848201613881565b908201526101c06139e0848201613881565b908201529392505050565b60008151808452613a038160208601602086016136c6565b601f01601f19169290920160200192915050565b60208152600060018060a01b03808451166020840152602084015160408401526040840151606084015280606085015116608084015250608083015160a083015260a0830151613a7260c08401826001600160a01b03169052565b5060c08301516101008060e0850152613a8f6101208501836139eb565b60e095909501519301929092525090919050565b60008151808452602080850194506020840160005b83811015613ad457815187529582019590820190600101613ab8565b509495945050505050565b6001600160a01b03888116825260e0602080840182905289519184018290526000928a820192909190610100860190855b81811015613b2e578551851683529483019491830191600101613b10565b50508581036040870152613b42818c613aa3565b93505050508281036060840152613b598188613aa3565b6001600160a01b0387166080850152905082810360a0840152613b7c81866139eb565b915050612f2360c083018461ffff169052565b634e487b7160e01b600052602160045260246000fd5b8051801515811461321b57600080fd5b600060208284031215613bc757600080fd5b611c8482613ba5565b600060208284031215613be257600080fd5b8151611c848161329d565b600060208284031215613bff57600080fd5b8151611c8481613107565b600181815b80851115613c45578160001904821115613c2b57613c2b613669565b80851615613c3857918102915b93841c9390800290613c0f565b509250929050565b600082613c5c57506001611b91565b81613c6957506000611b91565b8160018114613c7f5760028114613c8957613ca5565b6001915050611b91565b60ff841115613c9a57613c9a613669565b50506001821b611b91565b5060208310610133831016604e8410600b8410161715613cc8575081810a611b91565b613cd28383613c0a565b8060001904821115613ce657613ce6613669565b029392505050565b6000611c848383613c4d565b8082028115828204841417611b9157611b91613669565b600082613d2e57634e487b7160e01b600052601260045260246000fd5b500490565b60008251613d458184602087016136c6565b9190910192915050565b600060208284031215613d6157600080fd5b81516001600160401b0380821115613d7857600080fd5b9083019060808286031215613d8c57600080fd5b613d946131be565b613d9d83613ba5565b81526020830151613dad81613107565b6020820152604083015182811115613dc457600080fd5b613dd0878286016136ea565b604083015250606083015182811115613de857600080fd5b613df4878286016136ea565b60608301525095945050505050565b602081526000611c8460208301846139eb56fe27039ac08bcb6070578fc805ffca75715bb586e39696d42a16aaa308c1248eb7a2646970667358221220c831e1c2db2c8f445ab1d06dc1689736ba4f7e1cfe89c07b0a969c77d2aefa5464736f6c634300081600338be0079c531659141344cd1fd0a4f28419497f9722a3daafe3b4186f6b6457e0",
  "devdoc": {
    "details": "Supports regular tokens and PT tokens through composed Pendle + Odos swaps",
    "errors": {
      "CallerMustBePool(address,address)": [
        {
          "details": "Thrown when the caller is not the pool",
          "params": {
            "caller": "The actual caller",
            "pool": "The expected pool"
          }
        }
      ],
      "InitiatorMustBeThis(address,address)": [
        {
          "details": "Thrown when the initiator is not the expected initiator",
          "params": {
            "expectedInitiator": "The expected initiator",
            "initiator": "The actual initiator"
          }
        }
      ],
      "InsufficientBalanceBeforeSwap(uint256,uint256)": [
        {
          "details": "Thrown when the balance before swap is insufficient",
          "params": {
            "balance": "The actual balance",
            "required": "The required balance"
          }
        }
      ],
      "InsufficientOutputAfterComposedSwap(uint256,uint256)": [
        {
          "details": "Thrown when insufficient output is received after composed swap",
          "params": {
            "actual": "The actual amount received",
            "expected": "The expected amount"
          }
        }
      ],
      "InsufficientOutputAmount(uint256,uint256)": [
        {
          "details": "Thrown when the output amount is less than the minimum expected",
          "params": {
            "actual": "The actual output amount",
            "expected": "The minimum expected output amount"
          }
        }
      ],
      "InvalidPTSwapData()": [
        {
          "details": "Thrown when PT swap data is invalid"
        }
      ],
      "LeftoverCollateralAfterSwap(address,uint256)": [
        {
          "details": "Thrown when leftover collateral remains after exact input swap",
          "params": {
            "asset": "The collateral asset address",
            "leftoverAmount": "The amount of leftover collateral"
          }
        }
      ],
      "OdosSwapFailed(string)": [
        {
          "details": "Thrown when Odos swap fails",
          "params": {
            "reason": "The failure reason"
          }
        }
      ],
      "OraclePriceDeviationExceeded(address,address,uint256,uint256,uint256)": [
        {
          "details": "Thrown when oracle price validation fails (deviation > tolerance)",
          "params": {
            "actualAmount": "The swap parameter amount",
            "deviationBps": "The actual deviation in basis points",
            "expectedAmount": "The oracle-calculated expected amount",
            "tokenIn": "The input token address",
            "tokenOut": "The output token address"
          }
        }
      ],
      "PendleSwapFailed(string)": [
        {
          "details": "Thrown when Pendle swap fails",
          "params": {
            "reason": "The failure reason"
          }
        }
      ],
      "SafeERC20FailedOperation(address)": [
        {
          "details": "An operation with an ERC-20 token failed."
        }
      ]
    },
    "events": {
      "Bought(address,address,uint256,uint256)": {
        "details": "Emitted when a token is bought on Odos",
        "params": {
          "amountIn": "The amount of tokens sold",
          "amountOut": "The amount of tokens bought",
          "tokenIn": "The address of the token sold",
          "tokenOut": "The address of the token bought"
        }
      }
    },
    "kind": "dev",
    "methods": {
      "executeOperation(address[],uint256[],uint256[],address,bytes)": {
        "details": "Ensure that the contract can return the debt + premium, e.g., has      enough funds to repay and has approved the Pool to pull the total amount",
        "params": {
          "amounts": "The amounts of the flash-borrowed assets",
          "assets": "The addresses of the flash-borrowed assets",
          "initiator": "The address of the flashloan initiator",
          "params": "The byte-encoded params passed when initiating the flashloan",
          "premiums": "The fee of each flash-borrowed asset"
        },
        "returns": {
          "_0": "True if the execution of the operation succeeds, false otherwise"
        }
      },
      "owner()": {
        "details": "Returns the address of the current owner."
      },
      "renounceOwnership()": {
        "details": "Leaves the contract without owner. It will not be possible to call `onlyOwner` functions anymore. Can only be called by the current owner. NOTE: Renouncing ownership will leave the contract without an owner, thereby removing any functionality that is only available to the owner."
      },
      "rescueTokens(address)": {
        "details": "Emergency rescue for token stucked on this contract, as failsafe mechanism - Funds should never remain in this contract more time than during transactions - Only callable by the owner"
      },
      "swapDebt((address,uint256,uint256,address,uint256,address,uint256,bytes,uint256),(address,uint256,uint256,uint8,bytes32,bytes32),(address,uint256,uint256,uint8,bytes32,bytes32))": {
        "details": "Swaps one type of debt to another with PT token support",
        "params": {
          "collateralATokenPermit": "optional permit for collateral aToken",
          "creditDelegationPermit": "optional permit for credit delegation",
          "debtSwapParams": "the enhanced parameters describing the swap"
        }
      },
      "transferOwnership(address)": {
        "details": "Transfers ownership of the contract to a new account (`newOwner`). Can only be called by the current owner."
      }
    },
    "title": "OdosDebtSwapAdapterV2",
    "version": 1
  },
  "userdoc": {
    "errors": {
      "InsufficientOutput(uint256,uint256)": [
        {
          "notice": "Custom error when actual output amount is less than expected"
        }
      ],
      "InvalidSwapData()": [
        {
          "notice": "Error when swap data validation fails"
        }
      ],
      "PTApprovalFailed()": [
        {
          "notice": "Custom error when PT token approval fails"
        }
      ],
      "PendleSwapFailed()": [
        {
          "notice": "Custom error for failed Pendle swap with no revert reason"
        }
      ],
      "SwapFailed()": [
        {
          "notice": "Custom error for failed swap with no revert reason"
        }
      ]
    },
    "kind": "user",
    "methods": {
      "ADDRESSES_PROVIDER()": {
        "notice": "The address of the Aave PoolAddressesProvider contract"
      },
      "ORACLE_PRICE_TOLERANCE_BPS()": {
        "notice": "Oracle price deviation tolerance in basis points (500 = 5%)"
      },
      "POOL()": {
        "notice": "The address of the Aave Pool contract"
      },
      "executeOperation(address[],uint256[],uint256[],address,bytes)": {
        "notice": "Executes an operation after receiving the flash-borrowed assets"
      },
      "odosRouter()": {
        "notice": "The address of the Odos Router"
      },
      "pendleRouter()": {
        "notice": "The address of the Pendle Router"
      }
    },
    "notice": "Odos Adapter to perform a swap of debt to another debt with PT token support",
    "version": 1
  },
  "storageLayout": {
    "storage": [
      {
        "astId": 6800,
        "contract": "contracts/dlend/periphery/adapters/odos/OdosDebtSwapAdapterV2.sol:OdosDebtSwapAdapterV2",
        "label": "_owner",
        "offset": 0,
        "slot": "0",
        "type": "t_address"
      },
      {
        "astId": 15448,
        "contract": "contracts/dlend/periphery/adapters/odos/OdosDebtSwapAdapterV2.sol:OdosDebtSwapAdapterV2",
        "label": "_status",
        "offset": 0,
        "slot": "1",
        "type": "t_uint256"
      }
    ],
    "types": {
      "t_address": {
        "encoding": "inplace",
        "label": "address",
        "numberOfBytes": "20"
      },
      "t_uint256": {
        "encoding": "inplace",
        "label": "uint256",
        "numberOfBytes": "32"
      }
    }
  }
}