{
  "address": "0x890338BC6C47b28751aB8FA19A6F58fFecAFF4c6",
  "abi": [
    {
      "inputs": [
        {
          "internalType": "uint256",
          "name": "expected",
          "type": "uint256"
        },
        {
          "internalType": "uint256",
          "name": "actual",
          "type": "uint256"
        }
      ],
      "name": "InsufficientOutput",
      "type": "error"
    },
    {
      "inputs": [
        {
          "internalType": "address",
          "name": "token",
          "type": "address"
        }
      ],
      "name": "SafeERC20FailedOperation",
      "type": "error"
    },
    {
      "inputs": [],
      "name": "SwapFailed",
      "type": "error"
    },
    {
      "inputs": [],
      "name": "DIFFERENCE_TOLERANCE_BPS",
      "outputs": [
        {
          "internalType": "uint256",
          "name": "",
          "type": "uint256"
        }
      ],
      "stateMutability": "view",
      "type": "function"
    }
  ],
  "transactionHash": "0x206066b62c1e8538b64b618961327428fda5e8e2691977f0b070fe27d61cbcfb",
  "args": [],
  "numDeployments": 1,
  "solcInputHash": "630de38945b4e2d63ee86d64ec7ec78f",
  "bytecode": "0x6080806040523461001c57610e8c90816100228239308160070152f35b600080fdfe6080604052307f000000000000000000000000000000000000000000000000000000000000000014600436101561003557600080fd5b600090813560e01c80632765764814610070578063d531b1171461006b5763e49524df1461006257600080fd5b156101e5575b80fd5b6101cd565b5061006857610100366003190112610068576004359061008f82610101565b6024359061009c82610101565b608435906100a982610101565b60c4359067ffffffffffffffff8211610068576100fd6100ed8686866100d23660048901610170565b9160e435936100e085610101565b60643591604435916104cc565b6040519081529081906020820190565b0390f35b6001600160a01b0381160361011257565b600080fd5b634e487b7160e01b600052604160045260246000fd5b90601f8019910116810190811067ffffffffffffffff82111761014f57604052565b610117565b67ffffffffffffffff811161014f57601f01601f191660200190565b81601f820112156101125780359061018782610154565b92610195604051948561012d565b8284526020838301011161011257816000926020809301838601378301015290565b634e487b7160e01b600052601160045260246000fd5b60003660031901126101125760206040516127108152f35b610120366003190112610112576004356101fe81610101565b6024359061020b82610101565b60843560443561021a82610101565b60c43567ffffffffffffffff81116101125761023a903690600401610170565b9160e4359461024886610101565b61010435946102556103fb565b6040516370a0823160e01b80825230600483015291986001600160a01b0394851697929360209392909184826024818d5afa9384156103d7578961ea62948c8f948f95986102d4996102c5986000926103dc575b50526102b961ea61871415610452565b8b606435931690610a94565b9860408b01998a521415610486565b6040519182523060048301528082602481895afa80156103d757610308926000916103aa575b5080918901528751906104ba565b958360608201978089521061036f576103276080946100fd98516104ba565b93849101528215159081610362575b50610351575b50505051604051918291829190602083019252565b61035a926105fa565b38808061033c565b8216301415905038610336565b60405162461bcd60e51b8152602060048201526013602482015272125394d551919250d251539517d3d555141555606a1b6044820152606490fd5b6103ca9150823d84116103d0575b6103c2818361012d565b810190610437565b386102fa565b503d6103b8565b610446565b6103f49192508c8d3d106103d0576103c2818361012d565b90386102a9565b6040519060a0820182811067ffffffffffffffff82111761014f5760405260006080838281528260208201528260408201528260608201520152565b90816020910312610112575190565b6040513d6000823e3d90fd5b1561045957565b60405162461bcd60e51b8152602060048201526005602482015264363030303160d81b6044820152606490fd5b1561048d57565b60405162461bcd60e51b81526020600482015260056024820152641b1818181960d91b6044820152606490fd5b919082039182116104c757565b6101b7565b909193926104d86103fb565b6040516370a0823160e01b8082523060048301526020996001600160a01b039687169993959194929392908b856024818e5afa9081156103d757888b948d938f98610530996000926105dd575b50508a5216906108cf565b6040838101918252519182523060048301529680826024818a5afa80156103d75761056b926000916105c0575b5080918401528251906104ba565b8460608301918083521061036f5760809461058691516104ba565b938491015282151590816105b3575b506105a2575b5050505190565b6105ab926105fa565b38808061059b565b8216301415905038610595565b6105d79150823d84116103d0576103c2818361012d565b3861055d565b6105f39250803d106103d0576103c2818361012d565b8f80610525565b60405163a9059cbb60e01b60208201526001600160a01b0392909216602483015260448083019390935291815261063b9161063660648361012d565b61063d565b565b906000602091828151910182855af115610446576000513d61069057506001600160a01b0381163b155b61066e5750565b604051635274afe760e01b81526001600160a01b039091166004820152602490fd5b60011415610667565b3d156106c4573d906106aa82610154565b916106b8604051938461012d565b82523d6000602084013e565b606090565b156106d057565b60405162461bcd60e51b8152602060048201526005602482015264373030303160d81b6044820152606490fd5b1561070457565b60405162461bcd60e51b81526020600482015260056024820152641b9818181960d91b6044820152606490fd5b1561073857565b60405162461bcd60e51b8152602060048201526005602482015264373030303360d81b6044820152606490fd5b1561076c57565b60405162461bcd60e51b81526020600482015260056024820152640dcc0c0c0d60da1b6044820152606490fd5b60005b8381106107ac5750506000910152565b818101518382015260200161079c565b604761063b919392936040519485917f37303030353a2061637475616c416d6f756e7452656365697665643a000000006020840152610805815180926020603c87019101610799565b82016a161032bc30b1ba27baba1d60a91b603c82015261082e8251809360208785019101610799565b0103602781018552018361012d565b156108455750565b6044604051809262461bcd60e51b8252602060048301526108758151809281602486015260208686019101610799565b601f01601f19168101030190fd5b1561088a57565b60405162461bcd60e51b81526020600482015260056024820152641b9818181b60d91b6044820152606490fd5b90816020910312610112575180151581036101125790565b6040516370a0823160e01b8082523060048301529660209692959492936001600160a01b0393841693908884602481885afa9384156103d757600094610a66575b508116961694600091829161092690888a610c55565b888151910182885af1610937610699565b9015610a485786015160405197885230600489015296918690839060249082905afa80156103d75761097192600091610a2b575b506104ba565b9061098d61097e83610d9e565b61098783610d9e565b906107bc565b50808210610a0957505060405163095ea7b360e01b81526001600160a01b03909116600482015260006024820181905290918391839190829081604481015b03925af180156103d7576109df57505090565b816109fe92903d10610a02575b6109f6818361012d565b8101906108b7565b5090565b503d6109ec565b604051630583371760e31b815260048101919091526024810191909152604490fd5b610a429150873d89116103d0576103c2818361012d565b3861096b565b8051908782610a635760405163081ceff360e41b8152600490fd5b01fd5b600093919450828493610a88610926938d803d106103d0576103c2818361012d565b96939550509250610910565b6040516370a0823160e01b808252306004830152976020979296909490936001600160a01b039182169391908984602481885afa9384156103d7578a600095610c25575b505081169716956000918291610aef90898b610c55565b898151910182895af1610b00610699565b9015610bd757878091015198610b1b62011174871415610765565b60405190815230600482015292839060249082905afa80156103d757610b4892600091610bc057506104ba565b90610b6d610b61610b5884610d9e565b61098784610d9e565b6201117585141561083d565b808210610a095750506000928492610b8d620111766109cc941415610883565b60405163095ea7b360e01b81526001600160a01b0390911660048201526000602482015293849283919082906044820190565b610a429150883d8a116103d0576103c2818361012d565b878591610be9620111718414156106c9565b8051610c1057610bfe62011173841415610731565b60405163081ceff360e41b8152600490fd5b610c1f620111728414156106fd565b80519101fd5b6000949295509280610c48610aef93868897903d106103d0576103c2818361012d565b969395505092508a610ad8565b60405163095ea7b360e01b60208083018281526001600160a01b038616602485015260448085019790975295835290949193601f1992909190600090610c9c60648861012d565b86519082875af16000513d82610d05575b505015610cbc575b5050505050565b60405160208101959095526001600160a01b031660248501526000604485015260649081018452610cfb9361063691610cf5908261012d565b8261063d565b3880808080610cb5565b909150610d2257506001600160a01b0383163b15155b3880610cad565b600114610d1b565b90610d3482610154565b610d41604051918261012d565b8281528092610d52601f1991610154565b0190602036910137565b60300190816030116104c757565b80156104c7576000190190565b908151811015610d88570160200190565b634e487b7160e01b600052603260045260246000fd5b8015610e27578060008281935b610e0f5750610db983610d2a565b9291805b610dc75750505090565b600a90610dfa610df4610de4610dde858506610d5c565b60ff1690565b60f81b6001600160f81b03191690565b94610d6a565b93831a610e078587610d77565b530480610dbd565b9260001981146104c7576001600a9101930480610dab565b506040516040810181811067ffffffffffffffff82111761014f5760405260018152600360fc1b60208201529056fea26469706673582212200566609cf20d9dbc36c948b539e79d8de7cce1763503ccac959f368cd37811b164736f6c63430008140033"
}