{
  "address": "0xdd43d5d02A4e995AEC0D1B36d59845619821Da86",
  "abi": [
    {
      "inputs": [
        {
          "internalType": "contract IPoolAddressesProvider",
          "name": "addressesProvider",
          "type": "address"
        },
        {
          "internalType": "address",
          "name": "pool",
          "type": "address"
        },
        {
          "internalType": "contract IOdosRouterV2",
          "name": "_swapRouter",
          "type": "address"
        },
        {
          "internalType": "address",
          "name": "_pendleRouter",
          "type": "address"
        },
        {
          "internalType": "address",
          "name": "owner",
          "type": "address"
        }
      ],
      "stateMutability": "nonpayable",
      "type": "constructor"
    },
    {
      "inputs": [
        {
          "internalType": "address",
          "name": "caller",
          "type": "address"
        },
        {
          "internalType": "address",
          "name": "pool",
          "type": "address"
        }
      ],
      "name": "CallerMustBePool",
      "type": "error"
    },
    {
      "inputs": [
        {
          "internalType": "address",
          "name": "initiator",
          "type": "address"
        },
        {
          "internalType": "address",
          "name": "expectedInitiator",
          "type": "address"
        }
      ],
      "name": "InitiatorMustBeThis",
      "type": "error"
    },
    {
      "inputs": [
        {
          "internalType": "uint256",
          "name": "amountReceived",
          "type": "uint256"
        },
        {
          "internalType": "uint256",
          "name": "amountToRepay",
          "type": "uint256"
        }
      ],
      "name": "InsufficientAmountToRepay",
      "type": "error"
    },
    {
      "inputs": [
        {
          "internalType": "uint256",
          "name": "balance",
          "type": "uint256"
        },
        {
          "internalType": "uint256",
          "name": "required",
          "type": "uint256"
        }
      ],
      "name": "InsufficientBalanceBeforeSwap",
      "type": "error"
    },
    {
      "inputs": [
        {
          "internalType": "uint256",
          "name": "expected",
          "type": "uint256"
        },
        {
          "internalType": "uint256",
          "name": "actual",
          "type": "uint256"
        }
      ],
      "name": "InsufficientOutput",
      "type": "error"
    },
    {
      "inputs": [
        {
          "internalType": "uint256",
          "name": "expected",
          "type": "uint256"
        },
        {
          "internalType": "uint256",
          "name": "actual",
          "type": "uint256"
        }
      ],
      "name": "InsufficientOutputAfterComposedSwap",
      "type": "error"
    },
    {
      "inputs": [
        {
          "internalType": "uint256",
          "name": "actual",
          "type": "uint256"
        },
        {
          "internalType": "uint256",
          "name": "expected",
          "type": "uint256"
        }
      ],
      "name": "InsufficientOutputAmount",
      "type": "error"
    },
    {
      "inputs": [
        {
          "internalType": "uint256",
          "name": "expected",
          "type": "uint256"
        },
        {
          "internalType": "uint256",
          "name": "actual",
          "type": "uint256"
        }
      ],
      "name": "InsufficientPTSwapOutput",
      "type": "error"
    },
    {
      "inputs": [],
      "name": "InvalidPTSwapData",
      "type": "error"
    },
    {
      "inputs": [
        {
          "internalType": "address",
          "name": "token",
          "type": "address"
        }
      ],
      "name": "InvalidPTToken",
      "type": "error"
    },
    {
      "inputs": [],
      "name": "InvalidSwapData",
      "type": "error"
    },
    {
      "inputs": [
        {
          "internalType": "address",
          "name": "asset",
          "type": "address"
        },
        {
          "internalType": "uint256",
          "name": "leftoverAmount",
          "type": "uint256"
        }
      ],
      "name": "LeftoverCollateralAfterSwap",
      "type": "error"
    },
    {
      "inputs": [
        {
          "internalType": "string",
          "name": "reason",
          "type": "string"
        }
      ],
      "name": "OdosSwapFailed",
      "type": "error"
    },
    {
      "inputs": [
        {
          "internalType": "address",
          "name": "tokenIn",
          "type": "address"
        },
        {
          "internalType": "address",
          "name": "tokenOut",
          "type": "address"
        },
        {
          "internalType": "uint256",
          "name": "expectedAmount",
          "type": "uint256"
        },
        {
          "internalType": "uint256",
          "name": "actualAmount",
          "type": "uint256"
        },
        {
          "internalType": "uint256",
          "name": "deviationBps",
          "type": "uint256"
        }
      ],
      "name": "OraclePriceDeviationExceeded",
      "type": "error"
    },
    {
      "inputs": [],
      "name": "PTApprovalFailed",
      "type": "error"
    },
    {
      "inputs": [
        {
          "internalType": "string",
          "name": "reason",
          "type": "string"
        }
      ],
      "name": "PendleSwapFailed",
      "type": "error"
    },
    {
      "inputs": [],
      "name": "PendleSwapFailed",
      "type": "error"
    },
    {
      "inputs": [
        {
          "internalType": "address",
          "name": "token",
          "type": "address"
        }
      ],
      "name": "SafeERC20FailedOperation",
      "type": "error"
    },
    {
      "inputs": [],
      "name": "SwapFailed",
      "type": "error"
    },
    {
      "inputs": [
        {
          "internalType": "uint256",
          "name": "required",
          "type": "uint256"
        },
        {
          "internalType": "uint256",
          "name": "available",
          "type": "uint256"
        }
      ],
      "name": "UnderlyingBalanceInsufficient",
      "type": "error"
    },
    {
      "anonymous": false,
      "inputs": [
        {
          "indexed": true,
          "internalType": "address",
          "name": "tokenIn",
          "type": "address"
        },
        {
          "indexed": true,
          "internalType": "address",
          "name": "tokenOut",
          "type": "address"
        },
        {
          "indexed": false,
          "internalType": "uint256",
          "name": "amountIn",
          "type": "uint256"
        },
        {
          "indexed": false,
          "internalType": "uint256",
          "name": "amountOut",
          "type": "uint256"
        }
      ],
      "name": "Bought",
      "type": "event"
    },
    {
      "anonymous": false,
      "inputs": [
        {
          "indexed": true,
          "internalType": "address",
          "name": "inputToken",
          "type": "address"
        },
        {
          "indexed": true,
          "internalType": "address",
          "name": "outputToken",
          "type": "address"
        },
        {
          "indexed": false,
          "internalType": "uint256",
          "name": "inputAmount",
          "type": "uint256"
        },
        {
          "indexed": false,
          "internalType": "uint256",
          "name": "finalOutputAmount",
          "type": "uint256"
        }
      ],
      "name": "ComposedSwapCompleted",
      "type": "event"
    },
    {
      "anonymous": false,
      "inputs": [
        {
          "indexed": true,
          "internalType": "address",
          "name": "previousOwner",
          "type": "address"
        },
        {
          "indexed": true,
          "internalType": "address",
          "name": "newOwner",
          "type": "address"
        }
      ],
      "name": "OwnershipTransferred",
      "type": "event"
    },
    {
      "anonymous": false,
      "inputs": [
        {
          "indexed": true,
          "internalType": "address",
          "name": "ptToken",
          "type": "address"
        },
        {
          "indexed": true,
          "internalType": "address",
          "name": "underlyingAsset",
          "type": "address"
        },
        {
          "indexed": false,
          "internalType": "uint256",
          "name": "ptAmount",
          "type": "uint256"
        },
        {
          "indexed": false,
          "internalType": "uint256",
          "name": "underlyingAmount",
          "type": "uint256"
        }
      ],
      "name": "PTSwapExecuted",
      "type": "event"
    },
    {
      "anonymous": false,
      "inputs": [
        {
          "indexed": true,
          "internalType": "address",
          "name": "token",
          "type": "address"
        },
        {
          "indexed": true,
          "internalType": "address",
          "name": "sy",
          "type": "address"
        }
      ],
      "name": "PTTokenDetected",
      "type": "event"
    },
    {
      "inputs": [],
      "name": "ADDRESSES_PROVIDER",
      "outputs": [
        {
          "internalType": "contract IPoolAddressesProvider",
          "name": "",
          "type": "address"
        }
      ],
      "stateMutability": "view",
      "type": "function"
    },
    {
      "inputs": [],
      "name": "ORACLE_PRICE_TOLERANCE_BPS",
      "outputs": [
        {
          "internalType": "uint256",
          "name": "",
          "type": "uint256"
        }
      ],
      "stateMutability": "view",
      "type": "function"
    },
    {
      "inputs": [],
      "name": "POOL",
      "outputs": [
        {
          "internalType": "contract IPool",
          "name": "",
          "type": "address"
        }
      ],
      "stateMutability": "view",
      "type": "function"
    },
    {
      "inputs": [],
      "name": "REFERRER",
      "outputs": [
        {
          "internalType": "uint16",
          "name": "",
          "type": "uint16"
        }
      ],
      "stateMutability": "view",
      "type": "function"
    },
    {
      "inputs": [
        {
          "internalType": "address[]",
          "name": "assets",
          "type": "address[]"
        },
        {
          "internalType": "uint256[]",
          "name": "amounts",
          "type": "uint256[]"
        },
        {
          "internalType": "uint256[]",
          "name": "premiums",
          "type": "uint256[]"
        },
        {
          "internalType": "address",
          "name": "initiator",
          "type": "address"
        },
        {
          "internalType": "bytes",
          "name": "params",
          "type": "bytes"
        }
      ],
      "name": "executeOperation",
      "outputs": [
        {
          "internalType": "bool",
          "name": "",
          "type": "bool"
        }
      ],
      "stateMutability": "nonpayable",
      "type": "function"
    },
    {
      "inputs": [],
      "name": "odosRouter",
      "outputs": [
        {
          "internalType": "contract IOdosRouterV2",
          "name": "",
          "type": "address"
        }
      ],
      "stateMutability": "view",
      "type": "function"
    },
    {
      "inputs": [],
      "name": "owner",
      "outputs": [
        {
          "internalType": "address",
          "name": "",
          "type": "address"
        }
      ],
      "stateMutability": "view",
      "type": "function"
    },
    {
      "inputs": [],
      "name": "pendleRouter",
      "outputs": [
        {
          "internalType": "address",
          "name": "",
          "type": "address"
        }
      ],
      "stateMutability": "view",
      "type": "function"
    },
    {
      "inputs": [],
      "name": "renounceOwnership",
      "outputs": [],
      "stateMutability": "nonpayable",
      "type": "function"
    },
    {
      "inputs": [
        {
          "components": [
            {
              "internalType": "address",
              "name": "collateralAsset",
              "type": "address"
            },
            {
              "internalType": "uint256",
              "name": "collateralAmount",
              "type": "uint256"
            },
            {
              "internalType": "address",
              "name": "debtAsset",
              "type": "address"
            },
            {
              "internalType": "uint256",
              "name": "repayAmount",
              "type": "uint256"
            },
            {
              "internalType": "uint256",
              "name": "rateMode",
              "type": "uint256"
            },
            {
              "internalType": "bool",
              "name": "withFlashLoan",
              "type": "bool"
            },
            {
              "internalType": "address",
              "name": "user",
              "type": "address"
            },
            {
              "internalType": "uint256",
              "name": "minAmountToReceive",
              "type": "uint256"
            },
            {
              "internalType": "bytes",
              "name": "swapData",
              "type": "bytes"
            },
            {
              "internalType": "uint256",
              "name": "allBalanceOffset",
              "type": "uint256"
            }
          ],
          "internalType": "struct IOdosRepayAdapterV2.RepayParamsV2",
          "name": "repayParams",
          "type": "tuple"
        },
        {
          "components": [
            {
              "internalType": "contract IERC20WithPermit",
              "name": "aToken",
              "type": "address"
            },
            {
              "internalType": "uint256",
              "name": "value",
              "type": "uint256"
            },
            {
              "internalType": "uint256",
              "name": "deadline",
              "type": "uint256"
            },
            {
              "internalType": "uint8",
              "name": "v",
              "type": "uint8"
            },
            {
              "internalType": "bytes32",
              "name": "r",
              "type": "bytes32"
            },
            {
              "internalType": "bytes32",
              "name": "s",
              "type": "bytes32"
            }
          ],
          "internalType": "struct IBaseOdosAdapter.PermitInput",
          "name": "collateralATokenPermit",
          "type": "tuple"
        }
      ],
      "name": "repayWithCollateral",
      "outputs": [],
      "stateMutability": "nonpayable",
      "type": "function"
    },
    {
      "inputs": [
        {
          "internalType": "contract IERC20",
          "name": "token",
          "type": "address"
        }
      ],
      "name": "rescueTokens",
      "outputs": [],
      "stateMutability": "nonpayable",
      "type": "function"
    },
    {
      "inputs": [
        {
          "internalType": "address",
          "name": "newOwner",
          "type": "address"
        }
      ],
      "name": "transferOwnership",
      "outputs": [],
      "stateMutability": "nonpayable",
      "type": "function"
    }
  ],
  "transactionHash": "0x97a86cce054e5f6a49ac1736ff47c827de13a2f5aece3b63ba5c656d06eae3dd",
  "args": [
    "0x1f8d8a3575d049aA0C195AA947483738811bAdcb",
    "0xEdC3cfB1aa36c570cc1D374876268bDda2D460CC",
    "0xaC041Df48dF9791B0654f1Dbbf2CC8450C5f2e9D",
    "0x888888888889758F76e7103c6CbF23ABbF58F946",
    "0x51fc0830DBe3A446701E7897F32C89A3B04e5a0a"
  ],
  "numDeployments": 11,
  "solcInputHash": "6689ebe65108d78181e65c4bda35e9e2",
  "bytecode": "0x6101006040523480156200001257600080fd5b50604051620043e3380380620043e383398101604081905262000035916200065f565b848484848383600033600080546001600160a01b0319166001600160a01b038316908117825560405192935091600080516020620043c3833981519152908290a3506001600160a01b03918216608052811660a05291821660c0521660e052505060018055620000a58162000177565b600060a0516001600160a01b031663d1946dbc6040518163ffffffff1660e01b8152600401600060405180830381865afa158015620000e8573d6000803e3d6000fd5b505050506040513d6000823e601f3d908101601f19168201604052620001129190810190620006f5565b905060005b81518110156200016a576200016160a051600019848481518110620001405762000140620007c7565b60200260200101516001600160a01b03166200028860201b9092919060201c565b60010162000117565b5050505050505062000894565b6000546001600160a01b03163314620001d75760405162461bcd60e51b815260206004820181905260248201527f4f776e61626c653a2063616c6c6572206973206e6f7420746865206f776e657260448201526064015b60405180910390fd5b6001600160a01b0381166200023e5760405162461bcd60e51b815260206004820152602660248201527f4f776e61626c653a206e6577206f776e657220697320746865207a65726f206160448201526564647265737360d01b6064820152608401620001ce565b600080546040516001600160a01b0380851693921691600080516020620043c383398151915291a3600080546001600160a01b0319166001600160a01b0392909216919091179055565b801580620003065750604051636eb1769f60e11b81523060048201526001600160a01b03838116602483015284169063dd62ed3e90604401602060405180830381865afa158015620002de573d6000803e3d6000fd5b505050506040513d601f19601f82011682018060405250810190620003049190620007dd565b155b6200037a5760405162461bcd60e51b815260206004820152603660248201527f5361666545524332303a20617070726f76652066726f6d206e6f6e2d7a65726f60448201527f20746f206e6f6e2d7a65726f20616c6c6f77616e6365000000000000000000006064820152608401620001ce565b604080516001600160a01b038416602482015260448082018490528251808303909101815260649091019091526020810180516001600160e01b0390811663095ea7b360e01b17909152620003d2918591620003d716565b505050565b6040805180820190915260208082527f5361666545524332303a206c6f772d6c6576656c2063616c6c206661696c65649082015260009062000426906001600160a01b038516908490620004a8565b805190915015620003d25780806020019051810190620004479190620007f7565b620003d25760405162461bcd60e51b815260206004820152602a60248201527f5361666545524332303a204552433230206f7065726174696f6e20646964206e6044820152691bdd081cdd58d8d9595960b21b6064820152608401620001ce565b6060620004b98484600085620004c3565b90505b9392505050565b606082471015620005265760405162461bcd60e51b815260206004820152602660248201527f416464726573733a20696e73756666696369656e742062616c616e636520666f6044820152651c8818d85b1b60d21b6064820152608401620001ce565b843b620005765760405162461bcd60e51b815260206004820152601d60248201527f416464726573733a2063616c6c20746f206e6f6e2d636f6e74726163740000006044820152606401620001ce565b600080866001600160a01b0316858760405162000594919062000841565b60006040518083038185875af1925050503d8060008114620005d3576040519150601f19603f3d011682016040523d82523d6000602084013e620005d8565b606091505b509092509050620005eb828286620005f6565b979650505050505050565b6060831562000607575081620004bc565b825115620006185782518084602001fd5b8160405162461bcd60e51b8152600401620001ce91906200085f565b6001600160a01b03811681146200064a57600080fd5b50565b80516200065a8162000634565b919050565b600080600080600060a086880312156200067857600080fd5b8551620006858162000634565b6020870151909550620006988162000634565b6040870151909450620006ab8162000634565b6060870151909350620006be8162000634565b6080870151909250620006d18162000634565b809150509295509295909350565b634e487b7160e01b600052604160045260246000fd5b600060208083850312156200070957600080fd5b82516001600160401b03808211156200072157600080fd5b818501915085601f8301126200073657600080fd5b8151818111156200074b576200074b620006df565b8060051b604051601f19603f83011681018181108582111715620007735762000773620006df565b6040529182528482019250838101850191888311156200079257600080fd5b938501935b82851015620007bb57620007ab856200064d565b8452938501939285019262000797565b98975050505050505050565b634e487b7160e01b600052603260045260246000fd5b600060208284031215620007f057600080fd5b5051919050565b6000602082840312156200080a57600080fd5b81518015158114620004bc57600080fd5b60005b83811015620008385781810151838201526020016200081e565b50506000910152565b60008251620008558184602087016200081b565b9190910192915050565b6020815260008251806020840152620008808160408501602087016200081b565b601f01601f19169190910160400192915050565b60805160a05160c05160e051613a946200092f60003960008181610116015261191b015260008181610196015281816118a6015261194a0152600081816101580152818161046c015281816106280152818161066a0152818161083201528181610db10152818161104a015281816110da01528181611139015281816112b1015261142801526000818160d201526115100152613a946000f3fe608060405234801561001057600080fd5b50600436106100b35760003560e01c80638035786211610071578063803578621461017a5780638321928d146101915780638da5cb5b146101b8578063920f5c84146101c9578063c0560374146101ec578063f2fde38b1461020857600080fd5b8062ae3bf8146100b85780630542975c146100cd578063206aeab314610111578063395c0b6814610138578063715018a61461014b5780637535d24614610153575b600080fd5b6100cb6100c6366004612e86565b61021b565b005b6100f47f000000000000000000000000000000000000000000000000000000000000000081565b6040516001600160a01b0390911681526020015b60405180910390f35b6100f47f000000000000000000000000000000000000000000000000000000000000000081565b6100cb61014636600461309f565b6102df565b6100cb6105a7565b6100f47f000000000000000000000000000000000000000000000000000000000000000081565b6101836101f481565b604051908152602001610108565b6100f47f000000000000000000000000000000000000000000000000000000000000000081565b6000546001600160a01b03166100f4565b6101dc6101d73660046131e1565b61061b565b6040519015158152602001610108565b6101f561abce81565b60405161ffff9091168152602001610108565b6100cb610216366004612e86565b610971565b6000546001600160a01b0316331461024e5760405162461bcd60e51b8152600401610245906132e6565b60405180910390fd5b6102dc6102636000546001600160a01b031690565b6040516370a0823160e01b81523060048201526001600160a01b038416906370a0823190602401602060405180830381865afa1580156102a7573d6000803e3d6000fd5b505050506040513d601f19601f820116820180604052508101906102cb919061331b565b6001600160a01b0384169190610a5b565b50565b6002600154036103315760405162461bcd60e51b815260206004820152601f60248201527f5265656e7472616e637947756172643a207265656e7472616e742063616c6c006044820152606401610245565b600260018190555061035b8260400151836080015184610120015185606001518660c00151610ac3565b606083015260a08201516105955781516040516370a0823160e01b81523060048201526000916001600160a01b0316906370a0823190602401602060405180830381865afa1580156103b1573d6000803e3d6000fd5b505050506040513d601f19601f820116820180604052508101906103d5919061331b565b905060006103f184600001518560c00151866020015186610bc7565b905061041184600001518560400151838760600151886101000151610e2c565b506104248460400151856060015161102d565b6040808501516060860151608087015160c0880151935163573ade8160e01b81526001600160a01b0393841660048201526024810192909252604482015291811660648301527f0000000000000000000000000000000000000000000000000000000000000000169063573ade81906084016020604051808303816000875af11580156104b5573d6000803e3d6000fd5b505050506040513d601f19601f820116820180604052508101906104d9919061331b565b5083516040516370a0823160e01b81523060048201526000916001600160a01b0316906370a0823190602401602060405180830381865afa158015610522573d6000803e3d6000fd5b505050506040513d601f19601f82011682018060405250810190610546919061331b565b90506000838211610558576000610562565b610562848361334a565b9050801561058c578551610576908261102d565b61058c8660000151828860c0015161abce611101565b5050505061059f565b61059f828261119b565b505060018055565b6000546001600160a01b031633146105d15760405162461bcd60e51b8152600401610245906132e6565b600080546040516001600160a01b03909116907f8be0079c531659141344cd1fd0a4f28419497f9722a3daafe3b4186f6b6457e0908390a3600080546001600160a01b0319169055565b6000336001600160a01b037f00000000000000000000000000000000000000000000000000000000000000001614610697576040516303c3463f60e31b81523360048201526001600160a01b037f0000000000000000000000000000000000000000000000000000000000000000166024820152604401610245565b6001600160a01b03841630146106d15760405163fdbc12a560e01b81526001600160a01b0385166004820152306024820152604401610245565b6000806106e08486018661309f565b9150915060008c8c60008181106106f9576106f961335d565b905060200201602081019061070e9190612e86565b905060008b8b60008181106107255761072561335d565b90506020020135905060008a8a60008181106107435761074361335d565b6040516370a0823160e01b81523060048201526020909102929092013592506000916001600160a01b03861691506370a0823190602401602060405180830381865afa158015610797573d6000803e3d6000fd5b505050506040513d601f19601f820116820180604052508101906107bb919061331b565b90506107d78487604001518589606001518a6101000151610e2c565b506107ea8660400151876060015161102d565b6040808701516060880151608089015160c08a0151935163573ade8160e01b81526001600160a01b0393841660048201526024810192909252604482015291811660648301527f0000000000000000000000000000000000000000000000000000000000000000169063573ade81906084016020604051808303816000875af115801561087b573d6000803e3d6000fd5b505050506040513d601f19601f8201168201806040525081019061089f919061331b565b506040516370a0823160e01b81523060048201526000906001600160a01b038616906370a0823190602401602060405180830381865afa1580156108e7573d6000803e3d6000fd5b505050506040513d601f19601f8201168201806040525081019061090b919061331b565b9050600081831161091d576000610927565b610927828461334a565b9050610944868960c00151838761093e9190613373565b8a610bc7565b50610958866109538688613373565b61102d565b6001985050505050505050509998505050505050505050565b6000546001600160a01b0316331461099b5760405162461bcd60e51b8152600401610245906132e6565b6001600160a01b038116610a005760405162461bcd60e51b815260206004820152602660248201527f4f776e61626c653a206e6577206f776e657220697320746865207a65726f206160448201526564647265737360d01b6064820152608401610245565b600080546040516001600160a01b03808516939216917f8be0079c531659141344cd1fd0a4f28419497f9722a3daafe3b4186f6b6457e091a3600080546001600160a01b0319166001600160a01b0392909216919091179055565b6040516001600160a01b038316602482015260448101829052610abe90849063a9059cbb60e01b906064015b60408051601f198184030181529190526020810180516001600160e01b03166001600160e01b03199093169290921790915261132e565b505050565b6000806000610ad188611400565b50909250905060006001886002811115610aed57610aed613386565b6002811115610afe57610afe613386565b14610b095782610b0b565b815b6040516370a0823160e01b81526001600160a01b0387811660048301529192506000918316906370a0823190602401602060405180830381865afa158015610b57573d6000803e3d6000fd5b505050506040513d601f19601f82011682018060405250810190610b7b919061331b565b90508715610b8b57809650610bb6565b80871115610bb657604051630210019560e61b81526004810182905260248101889052604401610245565b869450505050505b95945050505050565b60008160400151600014610c7957815160208301516040808501516060860151608087015160a0880151935163d505accf60e01b81526001600160a01b038b811660048301523060248301526044820196909652606481019390935260ff909116608483015260a482015260c481019190915291169063d505accf9060e401600060405180830381600087803b158015610c6057600080fd5b505af1158015610c74573d6000803e3d6000fd5b505050505b6000610c8486611400565b6040516370a0823160e01b8152306004820152909350600092506001600160a01b03841691506370a0823190602401602060405180830381865afa158015610cd0573d6000803e3d6000fd5b505050506040513d601f19601f82011682018060405250810190610cf4919061331b565b9050610d0b6001600160a01b0383168730886114b4565b6040516370a0823160e01b815230600482015260009082906001600160a01b038516906370a0823190602401602060405180830381865afa158015610d54573d6000803e3d6000fd5b505050506040513d601f19601f82011682018060405250810190610d78919061331b565b610d82919061334a565b604051631a4ca37b60e21b81526001600160a01b038a81166004830152602482018390523060448301529192507f0000000000000000000000000000000000000000000000000000000000000000909116906369328dec906064016020604051808303816000875af1158015610dfc573d6000803e3d6000fd5b505050506040513d601f19601f82011682018060405250810190610e20919061331b565b50979650505050505050565b60008585610e3c828288886114f2565b6000610e488383611823565b90506000816003811115610e5e57610e5e613386565b03610e7a57610e70838389898961189f565b9350505050610bbe565b6040516370a0823160e01b81523060048201526000906001600160a01b038b16906370a0823190602401602060405180830381865afa158015610ec1573d6000803e3d6000fd5b505050506040513d601f19601f82011682018060405250810190610ee5919061331b565b905087811015610f125760405163b6554a4960e01b81526004810182905260248101899052604401610245565b6000610f2185858b8b8b6118d9565b6040516370a0823160e01b81523060048201529091506000906001600160a01b038d16906370a0823190602401602060405180830381865afa158015610f6b573d6000803e3d6000fd5b505050506040513d601f19601f82011682018060405250810190610f8f919061331b565b905080831015610fbc5760405163b6554a4960e01b81526004810184905260248101829052604401610245565b610fc6818461334a565b9650846001600160a01b0316866001600160a01b03167fbf77fd13a39d14dc0da779342c14105c38d9a5d0c60f2caa22f5fd1d5525416d8985604051611016929190918252602082015260400190565b60405180910390a350505050505095945050505050565b604051636eb1769f60e11b81523060048201526001600160a01b037f0000000000000000000000000000000000000000000000000000000000000000811660248301526000919084169063dd62ed3e90604401602060405180830381865afa15801561109d573d6000803e3d6000fd5b505050506040513d601f19601f820116820180604052508101906110c1919061331b565b905081811015610abe57610abe6001600160a01b0384167f000000000000000000000000000000000000000000000000000000000000000060001961197a565b60405163617ba03760e01b81526001600160a01b03858116600483015260248201859052838116604483015261ffff831660648301527f0000000000000000000000000000000000000000000000000000000000000000169063617ba03790608401600060405180830381600087803b15801561117d57600080fd5b505af1158015611191573d6000803e3d6000fd5b5050505050505050565b600082826040516020016111b09291906133ec565b60408051601f198184030181526001808452838301909252925060009190602080830190803683370190505090508360000151816000815181106111f6576111f661335d565b6001600160a01b03929092166020928302919091019091015260408051600180825281830190925260009181602001602082028036833701905050905084602001518160008151811061124b5761124b61335d565b602090810291909101015260408051600180825281830190925260009181602001602082028036833701905050905060008160008151811061128f5761128f61335d565b602090810291909101015260405163ab9c4b5d60e01b81526001600160a01b037f0000000000000000000000000000000000000000000000000000000000000000169063ab9c4b5d906112f490309087908790879084908c9061abce9060040161352c565b600060405180830381600087803b15801561130e57600080fd5b505af1158015611322573d6000803e3d6000fd5b50505050505050505050565b6000611383826040518060400160405280602081526020017f5361666545524332303a206c6f772d6c6576656c2063616c6c206661696c6564815250856001600160a01b0316611a8f9092919063ffffffff16565b805190915015610abe57808060200190518101906113a191906135dc565b610abe5760405162461bcd60e51b815260206004820152602a60248201527f5361666545524332303a204552433230206f7065726174696f6e20646964206e6044820152691bdd081cdd58d8d9595960b21b6064820152608401610245565b6040516335ea6a7560e01b81526001600160a01b0382811660048301526000918291829182917f000000000000000000000000000000000000000000000000000000000000000016906335ea6a75906024016101e060405180830381865afa158015611470573d6000803e3d6000fd5b505050506040513d601f19601f82011682018060405250810190611494919061368d565b610140810151610120820151610100909201519097919650945092505050565b6040516001600160a01b03808516602483015283166044820152606481018290526114ec9085906323b872dd60e01b90608401610a87565b50505050565b826001600160a01b0316846001600160a01b031603156114ec5760007f00000000000000000000000000000000000000000000000000000000000000006001600160a01b031663fca513a86040518163ffffffff1660e01b8152600401602060405180830381865afa15801561156c573d6000803e3d6000fd5b505050506040513d601f19601f8201168201806040525081019061159091906137b0565b60405163b3596f0760e01b81526001600160a01b03878116600483015291925060009183169063b3596f0790602401602060405180830381865afa1580156115dc573d6000803e3d6000fd5b505050506040513d601f19601f82011682018060405250810190611600919061331b565b60405163b3596f0760e01b81526001600160a01b03878116600483015291925060009184169063b3596f0790602401602060405180830381865afa15801561164c573d6000803e3d6000fd5b505050506040513d601f19601f82011682018060405250810190611670919061331b565b905081158061167d575080155b1561168a575050506114ec565b6000876001600160a01b031663313ce5676040518163ffffffff1660e01b8152600401602060405180830381865afa1580156116ca573d6000803e3d6000fd5b505050506040513d601f19601f820116820180604052508101906116ee91906137cd565b60ff1690506000876001600160a01b031663313ce5676040518163ffffffff1660e01b8152600401602060405180830381865afa158015611733573d6000803e3d6000fd5b505050506040513d601f19601f8201168201806040525081019061175791906137cd565b60ff169050600061176982600a6138ce565b61177390866138da565b61177e84600a6138ce565b611788868a6138da565b61179291906138da565b61179c91906138f1565b905080881115611322576000816117b3818b61334a565b6117bf906127106138da565b6117c991906138f1565b90506101f4811115611816576040516389cbb84760e01b81526001600160a01b03808d1660048301528b16602482015260448101839052606481018a90526084810182905260a401610245565b5050505050505050505050565b60008061182f84611aa8565b509050600061183d84611aa8565b5090508115801561184c575080155b1561185c57600092505050611899565b818015611867575080155b1561187757600192505050611899565b811580156118825750805b1561189257600292505050611899565b6003925050505b92915050565b60006118cf7f00000000000000000000000000000000000000000000000000000000000000008787878787611bb9565b9695505050505050565b60006118cf6040518060e00160405280886001600160a01b03168152602001876001600160a01b031681526020018681526020018581526020018481526020017f00000000000000000000000000000000000000000000000000000000000000006001600160a01b031681526020017f00000000000000000000000000000000000000000000000000000000000000006001600160a01b0316815250611df4565b8015806119f45750604051636eb1769f60e11b81523060048201526001600160a01b03838116602483015284169063dd62ed3e90604401602060405180830381865afa1580156119ce573d6000803e3d6000fd5b505050506040513d601f19601f820116820180604052508101906119f2919061331b565b155b611a5f5760405162461bcd60e51b815260206004820152603660248201527f5361666545524332303a20617070726f76652066726f6d206e6f6e2d7a65726f60448201527520746f206e6f6e2d7a65726f20616c6c6f77616e636560501b6064820152608401610245565b6040516001600160a01b038316602482015260448101829052610abe90849063095ea7b360e01b90606401610a87565b6060611a9e8484600085611f6d565b90505b9392505050565b60408051600481526024810182526020810180516001600160e01b031663afd27bf560e01b17905290516000918291829182916001600160a01b03871691611aef91613913565b600060405180830381855afa9150503d8060008114611b2a576040519150601f19603f3d011682016040523d82523d6000602084013e611b2f565b606091505b5091509150818015611b42575080516020145b15611bb25780806020019051810190611b5b91906137b0565b6001600160a01b0381161580159550909350611bb257826001600160a01b0316856001600160a01b03167f1e5361486115d03329d5743ec247b6eae9b1d6af9aad63d1a1f05e84e20b432460405160405180910390a35b5050915091565b6040516370a0823160e01b815230600482015260009081906001600160a01b038716906370a0823190602401602060405180830381865afa158015611c02573d6000803e3d6000fd5b505050506040513d601f19601f82011682018060405250810190611c26919061331b565b9050611c33878987612095565b600080896001600160a01b031685604051611c4e9190613913565b6000604051808303816000865af19150503d8060008114611c8b576040519150601f19603f3d011682016040523d82523d6000602084013e611c90565b606091505b509150915081611cc357805115611caa5780518082602001fd5b60405163081ceff360e41b815260040160405180910390fd5b60208101516040516370a0823160e01b81523060048201529094506000906001600160a01b038a16906370a0823190602401602060405180830381865afa158015611d12573d6000803e3d6000fd5b505050506040513d601f19601f82011682018060405250810190611d36919061331b565b90506000611d44858361334a565b905087811015611d7157604051630583371760e31b81526004810189905260248101829052604401610245565b60405163095ea7b360e01b81526001600160a01b038d81166004830152600060248301528c169063095ea7b3906044016020604051808303816000875af1158015611dc0573d6000803e3d6000fd5b505050506040513d601f19601f82011682018060405250810190611de491906135dc565b5050505050509695505050505050565b600080611e0983600001518460200151611823565b90506000816003811115611e1f57611e1f613386565b03611e4a57611aa18360c0015184600001518560200151866040015187606001518860800151611bb9565b60008360800151806020019051810190611e649190613974565b9050611e6f81612149565b611e8c5760405163b204669b60e01b815260040160405180910390fd5b6001826003811115611ea057611ea0613386565b03611ed457611ecc84600001518560200151866040015187606001518860a001518960c001518761217a565b949350505050565b6002826003811115611ee857611ee8613386565b03611f1457611ecc84600001518560200151866040015187606001518860a001518960c0015187612293565b6003826003811115611f2857611f28613386565b03611f5457611ecc84600001518560200151866040015187606001518860a001518960c0015187612615565b60405163b204669b60e01b815260040160405180910390fd5b606082471015611fce5760405162461bcd60e51b815260206004820152602660248201527f416464726573733a20696e73756666696369656e742062616c616e636520666f6044820152651c8818d85b1b60d21b6064820152608401610245565b843b61201c5760405162461bcd60e51b815260206004820152601d60248201527f416464726573733a2063616c6c20746f206e6f6e2d636f6e74726163740000006044820152606401610245565b600080866001600160a01b031685876040516120389190613913565b60006040518083038185875af1925050503d8060008114612075576040519150601f19603f3d011682016040523d82523d6000602084013e61207a565b606091505b509150915061208a828286612961565b979650505050505050565b604080516001600160a01b038416602482015260448082018490528251808303909101815260649091019091526020810180516001600160e01b031663095ea7b360e01b1790526120e6848261299a565b6114ec57604080516001600160a01b038516602482015260006044808301919091528251808303909101815260649091019091526020810180516001600160e01b031663095ea7b360e01b17905261213f9085906129e4565b6114ec84826129e4565b805160009061215d57506060015151151590565b81604001515160000361217257506000919050565b506001919050565b80516000901580612196575060208201516001600160a01b0316155b156121b45760405163205544d760e11b815260040160405180910390fd5b60006121cb89888560200151888760400151612a55565b9050876001600160a01b031683602001516001600160a01b0316036121f257809150612231565b8260600151516000036122185760405163205544d760e11b815260040160405180910390fd5b61222e8484602001518a848a8860600151611bb9565b91505b876001600160a01b0316896001600160a01b03167f82494e43b53e197c30b1d5d35cf1c20c1e5d45885b1a8aa61f457a9dd5e7c364898560405161227f929190918252602082015260400190565b60405180910390a350979650505050505050565b805160009015806122af575060208201516001600160a01b0316155b156122cd5760405163205544d760e11b815260040160405180910390fd5b600082602001516001600160a01b0316896001600160a01b0316036122f357508561248c565b8260600151516000036123195760405163205544d760e11b815260040160405180910390fd5b60208301516040516370a0823160e01b81523060048201526000916001600160a01b0316906370a0823190602401602060405180830381865afa158015612364573d6000803e3d6000fd5b505050506040513d601f19601f82011682018060405250810190612388919061331b565b90506123a1858b86602001518b60008960600151611bb9565b60208501516040516370a0823160e01b81523060048201529193506000916001600160a01b03909116906370a0823190602401602060405180830381865afa1580156123f1573d6000803e3d6000fd5b505050506040513d601f19601f82011682018060405250810190612415919061331b565b90506000612423838361334a565b90508060000361248857604051631300105360e01b815260206004820152602960248201527f4f646f7320737761702072657475726e6564207a65726f20756e6465726c79696044820152686e6720746f6b656e7360b81b6064820152608401610245565b5050505b60208301516040516370a0823160e01b81523060048201526000916001600160a01b0316906370a0823190602401602060405180830381865afa1580156124d7573d6000803e3d6000fd5b505050506040513d601f19601f820116820180604052508101906124fb919061331b565b905081811015612528576040516305be2c3160e21b81526004810183905260248101829052604401610245565b61253d84602001518a84898860400151612b9a565b92508683101561256a5760405163223b57c760e21b81526004810188905260248101849052604401610245565b886001600160a01b031684602001516001600160a01b0316600080516020613a3f83398151915284866040516125aa929190918252602082015260400190565b60405180910390a3886001600160a01b03168a6001600160a01b03167f82494e43b53e197c30b1d5d35cf1c20c1e5d45885b1a8aa61f457a9dd5e7c3648a86604051612600929190918252602082015260400190565b60405180910390a35050979650505050505050565b60008061262189611aa8565b509050600061262f89611aa8565b50905081158061263d575080155b15612666576040516303c4074b60e21b81526001600160a01b038b166004820152602401610245565b8351158061267f575060208401516001600160a01b0316155b8061268d5750606084015151155b8061269b5750604084015151155b156126b95760405163205544d760e11b815260040160405180910390fd5b60208401516040516370a0823160e01b815230600482015260009182916001600160a01b03909116906370a0823190602401602060405180830381865afa158015612708573d6000803e3d6000fd5b505050506040513d601f19601f8201168201806040525081019061272c919061331b565b9050612745878d88602001518d60008b60600151611bb9565b5060208601516040516370a0823160e01b81523060048201526000916001600160a01b0316906370a0823190602401602060405180830381865afa158015612791573d6000803e3d6000fd5b505050506040513d601f19601f820116820180604052508101906127b5919061331b565b90506127c1828261334a565b925050508060000361282b57604051631300105360e01b815260206004820152602c60248201527f4f646f7320505420737761702072657475726e6564207a65726f20756e64657260448201526b6c79696e6720746f6b656e7360a01b6064820152608401610245565b84602001516001600160a01b03168b6001600160a01b0316600080516020613a3f8339815191528b8460405161286b929190918252602082015260400190565b60405180910390a361288885602001518b838a8960400151612b9a565b9350878410156128b55760405163223b57c760e21b81526004810189905260248101859052604401610245565b896001600160a01b031685602001516001600160a01b0316600080516020613a3f83398151915283876040516128f5929190918252602082015260400190565b60405180910390a3896001600160a01b03168b6001600160a01b03167f82494e43b53e197c30b1d5d35cf1c20c1e5d45885b1a8aa61f457a9dd5e7c3648b8760405161294b929190918252602082015260400190565b60405180910390a3505050979650505050505050565b60608315612970575081611aa1565b8251156129805782518084602001fd5b8160405162461bcd60e51b81526004016102459190613a2b565b6000806000806020600086516020880160008a5af192503d915060005190508280156118cf575081156129d057806001146118cf565b50505050506001600160a01b03163b151590565b600080602060008451602086016000885af180612a07576040513d6000823e3d81fd5b50506000513d91508115612a1f578060011415612a2c565b6001600160a01b0384163b155b156114ec57604051635274afe760e01b81526001600160a01b0385166004820152602401610245565b6040516370a0823160e01b815230600482015260009081906001600160a01b038616906370a0823190602401602060405180830381865afa158015612a9e573d6000803e3d6000fd5b505050506040513d601f19601f82011682018060405250810190612ac2919061331b565b9050612ad18786888787612b9a565b506040516370a0823160e01b81523060048201526000906001600160a01b038716906370a0823190602401602060405180830381865afa158015612b19573d6000803e3d6000fd5b505050506040513d601f19601f82011682018060405250810190612b3d919061331b565b9050612b49828261334a565b9250856001600160a01b0316886001600160a01b0316600080516020613a3f8339815191528986604051612b87929190918252602082015260400190565b60405180910390a3505095945050505050565b6040516370a0823160e01b815230600482015260009081906001600160a01b038716906370a0823190602401602060405180830381865afa158015612be3573d6000803e3d6000fd5b505050506040513d601f19601f82011682018060405250810190612c07919061331b565b9050612c1587868686612c99565b506040516370a0823160e01b81523060048201526000906001600160a01b038816906370a0823190602401602060405180830381865afa158015612c5d573d6000803e3d6000fd5b505050506040513d601f19601f82011682018060405250810190612c81919061331b565b9050612c8d828261334a565b98975050505050505050565b6060612ca6858486612095565b604051636eb1769f60e11b81523060048201526001600160a01b0384811660248301526000919087169063dd62ed3e90604401602060405180830381865afa158015612cf6573d6000803e3d6000fd5b505050506040513d601f19601f82011682018060405250810190612d1a919061331b565b905084811015612d3d5760405163a7ed3d5f60e01b815260040160405180910390fd5b6000612d498585612de9565b9350905080612d6b57604051630fe7fe8560e01b815260040160405180910390fd5b60405163095ea7b360e01b81526001600160a01b0386811660048301526000602483015288169063095ea7b3906044016020604051808303816000875af1158015612dba573d6000803e3d6000fd5b505050506040513d601f19601f82011682018060405250810190612dde91906135dc565b505050949350505050565b60006060836001600160a01b031683604051612e059190613913565b6000604051808303816000865af19150503d8060008114612e42576040519150601f19603f3d011682016040523d82523d6000602084013e612e47565b606091505b50909250905081158015612e5c575060008151115b15612e6a5780518082602001fd5b9250929050565b6001600160a01b03811681146102dc57600080fd5b600060208284031215612e9857600080fd5b8135611aa181612e71565b634e487b7160e01b600052604160045260246000fd5b604051610140810167ffffffffffffffff81118282101715612edd57612edd612ea3565b60405290565b6040516101e0810167ffffffffffffffff81118282101715612edd57612edd612ea3565b6040516080810167ffffffffffffffff81118282101715612edd57612edd612ea3565b604051601f8201601f1916810167ffffffffffffffff81118282101715612f5357612f53612ea3565b604052919050565b8035612f6681612e71565b919050565b80151581146102dc57600080fd5b8035612f6681612f6b565b600067ffffffffffffffff821115612f9e57612f9e612ea3565b50601f01601f191660200190565b600082601f830112612fbd57600080fd5b8135612fd0612fcb82612f84565b612f2a565b818152846020838601011115612fe557600080fd5b816020850160208301376000918101602001919091529392505050565b60ff811681146102dc57600080fd5b600060c0828403121561302357600080fd5b60405160c0810181811067ffffffffffffffff8211171561304657613046612ea3565b604052905080823561305781612e71565b808252506020830135602082015260408301356040820152606083013561307d81613002565b806060830152506080830135608082015260a083013560a08201525092915050565b60008060e083850312156130b257600080fd5b823567ffffffffffffffff808211156130ca57600080fd5b9084019061014082870312156130df57600080fd5b6130e7612eb9565b6130f083612f5b565b81526020830135602082015261310860408401612f5b565b6040820152606083013560608201526080830135608082015261312d60a08401612f79565b60a082015261313e60c08401612f5b565b60c082015260e083013560e0820152610100808401358381111561316157600080fd5b61316d89828701612fac565b828401525050610120915081830135828201528094505050506131938460208501613011565b90509250929050565b60008083601f8401126131ae57600080fd5b50813567ffffffffffffffff8111156131c657600080fd5b6020830191508360208260051b8501011115612e6a57600080fd5b600080600080600080600080600060a08a8c0312156131ff57600080fd5b893567ffffffffffffffff8082111561321757600080fd5b6132238d838e0161319c565b909b50995060208c013591508082111561323c57600080fd5b6132488d838e0161319c565b909950975060408c013591508082111561326157600080fd5b61326d8d838e0161319c565b909750955060608c0135915061328282612e71565b90935060808b0135908082111561329857600080fd5b818c0191508c601f8301126132ac57600080fd5b8135818111156132bb57600080fd5b8d60208285010111156132cd57600080fd5b6020830194508093505050509295985092959850929598565b6020808252818101527f4f776e61626c653a2063616c6c6572206973206e6f7420746865206f776e6572604082015260600190565b60006020828403121561332d57600080fd5b5051919050565b634e487b7160e01b600052601160045260246000fd5b8181038181111561189957611899613334565b634e487b7160e01b600052603260045260246000fd5b8082018082111561189957611899613334565b634e487b7160e01b600052602160045260246000fd5b60005b838110156133b757818101518382015260200161339f565b50506000910152565b600081518084526133d881602086016020860161339c565b601f01601f19169290920160200192915050565b60e0815261340660e0820184516001600160a01b03169052565b60006020840151610100818185015260408601519150610120613433818601846001600160a01b03169052565b606087015161014086810191909152608088015161016087015260a0880151151561018087015260c08801516001600160a01b03166101a087015260e08801516101c0870152828801516101e087019190915292506134966102208601846133c0565b908701516102008601529250611aa1915050602083018480516001600160a01b03168252602080820151908301526040808201519083015260608082015160ff16908301526080808201519083015260a090810151910152565b60008151808452602080850194506020840160005b8381101561352157815187529582019590820190600101613505565b509495945050505050565b6001600160a01b03888116825260e0602080840182905289519184018290526000928a820192909190610100860190855b8181101561357b57855185168352948301949183019160010161355d565b5050858103604087015261358f818c6134f0565b935050505082810360608401526135a681886134f0565b6001600160a01b0387166080850152905082810360a08401526135c981866133c0565b915050612c8d60c083018461ffff169052565b6000602082840312156135ee57600080fd5b8151611aa181612f6b565b60006020828403121561360b57600080fd5b6040516020810181811067ffffffffffffffff8211171561362e5761362e612ea3565b6040529151825250919050565b80516fffffffffffffffffffffffffffffffff81168114612f6657600080fd5b805164ffffffffff81168114612f6657600080fd5b805161ffff81168114612f6657600080fd5b8051612f6681612e71565b60006101e082840312156136a057600080fd5b6136a8612ee3565b6136b284846135f9565b81526136c06020840161363b565b60208201526136d16040840161363b565b60408201526136e26060840161363b565b60608201526136f36080840161363b565b608082015261370460a0840161363b565b60a082015261371560c0840161365b565b60c082015261372660e08401613670565b60e0820152610100613739818501613682565b9082015261012061374b848201613682565b9082015261014061375d848201613682565b9082015261016061376f848201613682565b9082015261018061378184820161363b565b908201526101a061379384820161363b565b908201526101c06137a584820161363b565b908201529392505050565b6000602082840312156137c257600080fd5b8151611aa181612e71565b6000602082840312156137df57600080fd5b8151611aa181613002565b600181815b8085111561382557816000190482111561380b5761380b613334565b8085161561381857918102915b93841c93908002906137ef565b509250929050565b60008261383c57506001611899565b8161384957506000611899565b816001811461385f576002811461386957613885565b6001915050611899565b60ff84111561387a5761387a613334565b50506001821b611899565b5060208310610133831016604e8410600b84101617156138a8575081810a611899565b6138b283836137ea565b80600019048211156138c6576138c6613334565b029392505050565b6000611aa1838361382d565b808202811582820484141761189957611899613334565b60008261390e57634e487b7160e01b600052601260045260246000fd5b500490565b6000825161392581846020870161339c565b9190910192915050565b600082601f83011261394057600080fd5b815161394e612fcb82612f84565b81815284602083860101111561396357600080fd5b611ecc82602083016020870161339c565b60006020828403121561398657600080fd5b815167ffffffffffffffff8082111561399e57600080fd5b90830190608082860312156139b257600080fd5b6139ba612f07565b82516139c581612f6b565b815260208301516139d581612e71565b60208201526040830151828111156139ec57600080fd5b6139f88782860161392f565b604083015250606083015182811115613a1057600080fd5b613a1c8782860161392f565b60608301525095945050505050565b602081526000611aa160208301846133c056fe27039ac08bcb6070578fc805ffca75715bb586e39696d42a16aaa308c1248eb7a2646970667358221220f7159371bc6fbcea47a2e596ea2712a854a1d8f642a2e1d46e5e956901e0996c64736f6c634300081600338be0079c531659141344cd1fd0a4f28419497f9722a3daafe3b4186f6b6457e0",
  "devdoc": {
    "details": "Supports PT tokens through composed Pendle + Odos swaps",
    "errors": {
      "CallerMustBePool(address,address)": [
        {
          "details": "Thrown when the caller is not the pool",
          "params": {
            "caller": "The actual caller",
            "pool": "The expected pool"
          }
        }
      ],
      "InitiatorMustBeThis(address,address)": [
        {
          "details": "Thrown when the initiator is not the expected initiator",
          "params": {
            "expectedInitiator": "The expected initiator",
            "initiator": "The actual initiator"
          }
        }
      ],
      "InsufficientAmountToRepay(uint256,uint256)": [
        {
          "details": "Custom error for insufficient amount to repay",
          "params": {
            "amountReceived": "The amount received from the swap",
            "amountToRepay": "The amount needed to repay"
          }
        }
      ],
      "InsufficientBalanceBeforeSwap(uint256,uint256)": [
        {
          "details": "Thrown when the balance before swap is insufficient",
          "params": {
            "balance": "The actual balance",
            "required": "The required balance"
          }
        }
      ],
      "InsufficientOutputAfterComposedSwap(uint256,uint256)": [
        {
          "details": "Thrown when insufficient output is received after composed swap",
          "params": {
            "actual": "The actual amount received",
            "expected": "The expected amount"
          }
        }
      ],
      "InsufficientOutputAmount(uint256,uint256)": [
        {
          "details": "Thrown when the output amount is less than the minimum expected",
          "params": {
            "actual": "The actual output amount",
            "expected": "The minimum expected output amount"
          }
        }
      ],
      "InvalidPTSwapData()": [
        {
          "details": "Thrown when PT swap data is invalid"
        }
      ],
      "LeftoverCollateralAfterSwap(address,uint256)": [
        {
          "details": "Thrown when leftover collateral remains after exact input swap",
          "params": {
            "asset": "The collateral asset address",
            "leftoverAmount": "The amount of leftover collateral"
          }
        }
      ],
      "OdosSwapFailed(string)": [
        {
          "details": "Thrown when Odos swap fails",
          "params": {
            "reason": "The failure reason"
          }
        }
      ],
      "OraclePriceDeviationExceeded(address,address,uint256,uint256,uint256)": [
        {
          "details": "Thrown when oracle price validation fails (deviation > tolerance)",
          "params": {
            "actualAmount": "The swap parameter amount",
            "deviationBps": "The actual deviation in basis points",
            "expectedAmount": "The oracle-calculated expected amount",
            "tokenIn": "The input token address",
            "tokenOut": "The output token address"
          }
        }
      ],
      "PendleSwapFailed(string)": [
        {
          "details": "Thrown when Pendle swap fails",
          "params": {
            "reason": "The failure reason"
          }
        }
      ],
      "SafeERC20FailedOperation(address)": [
        {
          "details": "An operation with an ERC-20 token failed."
        }
      ]
    },
    "events": {
      "Bought(address,address,uint256,uint256)": {
        "details": "Emitted when a token is bought on Odos",
        "params": {
          "amountIn": "The amount of tokens sold",
          "amountOut": "The amount of tokens bought",
          "tokenIn": "The address of the token sold",
          "tokenOut": "The address of the token bought"
        }
      }
    },
    "kind": "dev",
    "methods": {
      "executeOperation(address[],uint256[],uint256[],address,bytes)": {
        "details": "Executes the repay with collateral after receiving the flash-borrowed assetsWorkflow: 1. Buy debt asset by providing the flash-borrowed assets in exchange 2. Repay debt 3. Pull aToken collateral from user and withdraw from Pool 4. Repay flashloan",
        "params": {
          "amounts": "The amounts of the flash-borrowed assets",
          "assets": "The addresses of the flash-borrowed assets",
          "initiator": "The address of the flashloan initiator",
          "params": "The byte-encoded params passed when initiating the flashloan",
          "premiums": "The premiums of the flash-borrowed assets"
        },
        "returns": {
          "_0": "True if the execution of the operation succeeds, false otherwise"
        }
      },
      "owner()": {
        "details": "Returns the address of the current owner."
      },
      "renounceOwnership()": {
        "details": "Leaves the contract without owner. It will not be possible to call `onlyOwner` functions anymore. Can only be called by the current owner. NOTE: Renouncing ownership will leave the contract without an owner, thereby removing any functionality that is only available to the owner."
      },
      "repayWithCollateral((address,uint256,address,uint256,uint256,bool,address,uint256,bytes,uint256),(address,uint256,uint256,uint8,bytes32,bytes32))": {
        "params": {
          "collateralATokenPermit": "optional permit for collateral aToken",
          "repayParams": "struct describing the repay with collateral swap"
        }
      },
      "rescueTokens(address)": {
        "details": "Emergency rescue for token stucked on this contract, as failsafe mechanism - Funds should never remain in this contract more time than during transactions - Only callable by the owner"
      },
      "transferOwnership(address)": {
        "details": "Transfers ownership of the contract to a new account (`newOwner`). Can only be called by the current owner."
      }
    },
    "title": "OdosRepayAdapterV2",
    "version": 1
  },
  "userdoc": {
    "errors": {
      "InsufficientOutput(uint256,uint256)": [
        {
          "notice": "Custom error when actual output amount is less than expected"
        }
      ],
      "InvalidSwapData()": [
        {
          "notice": "Error when swap data validation fails"
        }
      ],
      "PTApprovalFailed()": [
        {
          "notice": "Custom error when PT token approval fails"
        }
      ],
      "PendleSwapFailed()": [
        {
          "notice": "Custom error for failed Pendle swap with no revert reason"
        }
      ],
      "SwapFailed()": [
        {
          "notice": "Custom error for failed swap with no revert reason"
        }
      ]
    },
    "kind": "user",
    "methods": {
      "ADDRESSES_PROVIDER()": {
        "notice": "The address of the Aave PoolAddressesProvider contract"
      },
      "ORACLE_PRICE_TOLERANCE_BPS()": {
        "notice": "Oracle price deviation tolerance in basis points (500 = 5%)"
      },
      "POOL()": {
        "notice": "The address of the Aave Pool contract"
      },
      "odosRouter()": {
        "notice": "The address of the Odos Router"
      },
      "pendleRouter()": {
        "notice": "The address of the Pendle Router"
      },
      "repayWithCollateral((address,uint256,address,uint256,uint256,bool,address,uint256,bytes,uint256),(address,uint256,uint256,uint8,bytes32,bytes32))": {
        "notice": "Repays with collateral by swapping the collateral asset to debt asset"
      }
    },
    "notice": "Implements the logic for repaying a debt using a different asset as source",
    "version": 1
  },
  "storageLayout": {
    "storage": [
      {
        "astId": 20002,
        "contract": "contracts/dlend/periphery/adapters/odos/OdosRepayAdapterV2.sol:OdosRepayAdapterV2",
        "label": "_owner",
        "offset": 0,
        "slot": "0",
        "type": "t_address"
      },
      {
        "astId": 57202,
        "contract": "contracts/dlend/periphery/adapters/odos/OdosRepayAdapterV2.sol:OdosRepayAdapterV2",
        "label": "_status",
        "offset": 0,
        "slot": "1",
        "type": "t_uint256"
      }
    ],
    "types": {
      "t_address": {
        "encoding": "inplace",
        "label": "address",
        "numberOfBytes": "20"
      },
      "t_uint256": {
        "encoding": "inplace",
        "label": "uint256",
        "numberOfBytes": "32"
      }
    }
  }
}