{
  "address": "0x5B07678e1E40C88E75733ad553CcC2CA5fbfEBFC",
  "abi": [
    {
      "inputs": [
        {
          "internalType": "contract IPoolAddressesProvider",
          "name": "addressesProvider",
          "type": "address"
        },
        {
          "internalType": "address",
          "name": "pool",
          "type": "address"
        },
        {
          "internalType": "contract IOdosRouterV2",
          "name": "swapRouter",
          "type": "address"
        },
        {
          "internalType": "address",
          "name": "pendleRouter",
          "type": "address"
        },
        {
          "internalType": "address",
          "name": "owner",
          "type": "address"
        }
      ],
      "stateMutability": "nonpayable",
      "type": "constructor"
    },
    {
      "inputs": [
        {
          "internalType": "address",
          "name": "caller",
          "type": "address"
        },
        {
          "internalType": "address",
          "name": "pool",
          "type": "address"
        }
      ],
      "name": "CallerMustBePool",
      "type": "error"
    },
    {
      "inputs": [
        {
          "internalType": "address",
          "name": "initiator",
          "type": "address"
        },
        {
          "internalType": "address",
          "name": "expectedInitiator",
          "type": "address"
        }
      ],
      "name": "InitiatorMustBeThis",
      "type": "error"
    },
    {
      "inputs": [
        {
          "internalType": "uint256",
          "name": "balance",
          "type": "uint256"
        },
        {
          "internalType": "uint256",
          "name": "required",
          "type": "uint256"
        }
      ],
      "name": "InsufficientBalanceBeforeSwap",
      "type": "error"
    },
    {
      "inputs": [
        {
          "internalType": "uint256",
          "name": "expected",
          "type": "uint256"
        },
        {
          "internalType": "uint256",
          "name": "actual",
          "type": "uint256"
        }
      ],
      "name": "InsufficientOutput",
      "type": "error"
    },
    {
      "inputs": [
        {
          "internalType": "uint256",
          "name": "expected",
          "type": "uint256"
        },
        {
          "internalType": "uint256",
          "name": "actual",
          "type": "uint256"
        }
      ],
      "name": "InsufficientOutputAfterComposedSwap",
      "type": "error"
    },
    {
      "inputs": [
        {
          "internalType": "uint256",
          "name": "actual",
          "type": "uint256"
        },
        {
          "internalType": "uint256",
          "name": "expected",
          "type": "uint256"
        }
      ],
      "name": "InsufficientOutputAmount",
      "type": "error"
    },
    {
      "inputs": [
        {
          "internalType": "uint256",
          "name": "expected",
          "type": "uint256"
        },
        {
          "internalType": "uint256",
          "name": "actual",
          "type": "uint256"
        }
      ],
      "name": "InsufficientPTSwapOutput",
      "type": "error"
    },
    {
      "inputs": [],
      "name": "InvalidPTSwapData",
      "type": "error"
    },
    {
      "inputs": [
        {
          "internalType": "address",
          "name": "token",
          "type": "address"
        }
      ],
      "name": "InvalidPTToken",
      "type": "error"
    },
    {
      "inputs": [],
      "name": "InvalidSwapData",
      "type": "error"
    },
    {
      "inputs": [
        {
          "internalType": "string",
          "name": "reason",
          "type": "string"
        }
      ],
      "name": "OdosSwapFailed",
      "type": "error"
    },
    {
      "inputs": [],
      "name": "PTApprovalFailed",
      "type": "error"
    },
    {
      "inputs": [
        {
          "internalType": "string",
          "name": "reason",
          "type": "string"
        }
      ],
      "name": "PendleSwapFailed",
      "type": "error"
    },
    {
      "inputs": [],
      "name": "PendleSwapFailed",
      "type": "error"
    },
    {
      "inputs": [
        {
          "internalType": "address",
          "name": "token",
          "type": "address"
        }
      ],
      "name": "SafeERC20FailedOperation",
      "type": "error"
    },
    {
      "inputs": [],
      "name": "SwapFailed",
      "type": "error"
    },
    {
      "inputs": [
        {
          "internalType": "uint256",
          "name": "required",
          "type": "uint256"
        },
        {
          "internalType": "uint256",
          "name": "available",
          "type": "uint256"
        }
      ],
      "name": "UnderlyingBalanceInsufficient",
      "type": "error"
    },
    {
      "anonymous": false,
      "inputs": [
        {
          "indexed": true,
          "internalType": "address",
          "name": "tokenIn",
          "type": "address"
        },
        {
          "indexed": true,
          "internalType": "address",
          "name": "tokenOut",
          "type": "address"
        },
        {
          "indexed": false,
          "internalType": "uint256",
          "name": "amountIn",
          "type": "uint256"
        },
        {
          "indexed": false,
          "internalType": "uint256",
          "name": "amountOut",
          "type": "uint256"
        }
      ],
      "name": "Bought",
      "type": "event"
    },
    {
      "anonymous": false,
      "inputs": [
        {
          "indexed": true,
          "internalType": "address",
          "name": "inputToken",
          "type": "address"
        },
        {
          "indexed": true,
          "internalType": "address",
          "name": "outputToken",
          "type": "address"
        },
        {
          "indexed": false,
          "internalType": "uint256",
          "name": "inputAmount",
          "type": "uint256"
        },
        {
          "indexed": false,
          "internalType": "uint256",
          "name": "finalOutputAmount",
          "type": "uint256"
        }
      ],
      "name": "ComposedSwapCompleted",
      "type": "event"
    },
    {
      "anonymous": false,
      "inputs": [
        {
          "indexed": true,
          "internalType": "address",
          "name": "previousOwner",
          "type": "address"
        },
        {
          "indexed": true,
          "internalType": "address",
          "name": "newOwner",
          "type": "address"
        }
      ],
      "name": "OwnershipTransferred",
      "type": "event"
    },
    {
      "anonymous": false,
      "inputs": [
        {
          "indexed": true,
          "internalType": "address",
          "name": "ptToken",
          "type": "address"
        },
        {
          "indexed": true,
          "internalType": "address",
          "name": "underlyingAsset",
          "type": "address"
        },
        {
          "indexed": false,
          "internalType": "uint256",
          "name": "ptAmount",
          "type": "uint256"
        },
        {
          "indexed": false,
          "internalType": "uint256",
          "name": "underlyingAmount",
          "type": "uint256"
        }
      ],
      "name": "PTSwapExecuted",
      "type": "event"
    },
    {
      "anonymous": false,
      "inputs": [
        {
          "indexed": true,
          "internalType": "address",
          "name": "token",
          "type": "address"
        },
        {
          "indexed": true,
          "internalType": "address",
          "name": "sy",
          "type": "address"
        }
      ],
      "name": "PTTokenDetected",
      "type": "event"
    },
    {
      "inputs": [],
      "name": "ADDRESSES_PROVIDER",
      "outputs": [
        {
          "internalType": "contract IPoolAddressesProvider",
          "name": "",
          "type": "address"
        }
      ],
      "stateMutability": "view",
      "type": "function"
    },
    {
      "inputs": [],
      "name": "POOL",
      "outputs": [
        {
          "internalType": "contract IPool",
          "name": "",
          "type": "address"
        }
      ],
      "stateMutability": "view",
      "type": "function"
    },
    {
      "inputs": [],
      "name": "REFERRER",
      "outputs": [
        {
          "internalType": "uint16",
          "name": "",
          "type": "uint16"
        }
      ],
      "stateMutability": "view",
      "type": "function"
    },
    {
      "inputs": [
        {
          "internalType": "address[]",
          "name": "assets",
          "type": "address[]"
        },
        {
          "internalType": "uint256[]",
          "name": "amounts",
          "type": "uint256[]"
        },
        {
          "internalType": "uint256[]",
          "name": "premiums",
          "type": "uint256[]"
        },
        {
          "internalType": "address",
          "name": "initiator",
          "type": "address"
        },
        {
          "internalType": "bytes",
          "name": "params",
          "type": "bytes"
        }
      ],
      "name": "executeOperation",
      "outputs": [
        {
          "internalType": "bool",
          "name": "",
          "type": "bool"
        }
      ],
      "stateMutability": "nonpayable",
      "type": "function"
    },
    {
      "inputs": [],
      "name": "odosRouter",
      "outputs": [
        {
          "internalType": "contract IOdosRouterV2",
          "name": "",
          "type": "address"
        }
      ],
      "stateMutability": "view",
      "type": "function"
    },
    {
      "inputs": [],
      "name": "owner",
      "outputs": [
        {
          "internalType": "address",
          "name": "",
          "type": "address"
        }
      ],
      "stateMutability": "view",
      "type": "function"
    },
    {
      "inputs": [],
      "name": "pendleRouter",
      "outputs": [
        {
          "internalType": "address",
          "name": "",
          "type": "address"
        }
      ],
      "stateMutability": "view",
      "type": "function"
    },
    {
      "inputs": [],
      "name": "renounceOwnership",
      "outputs": [],
      "stateMutability": "nonpayable",
      "type": "function"
    },
    {
      "inputs": [
        {
          "internalType": "contract IERC20",
          "name": "token",
          "type": "address"
        }
      ],
      "name": "rescueTokens",
      "outputs": [],
      "stateMutability": "nonpayable",
      "type": "function"
    },
    {
      "inputs": [
        {
          "components": [
            {
              "internalType": "address",
              "name": "collateralAsset",
              "type": "address"
            },
            {
              "internalType": "uint256",
              "name": "collateralAmountToSwap",
              "type": "uint256"
            },
            {
              "internalType": "address",
              "name": "newCollateralAsset",
              "type": "address"
            },
            {
              "internalType": "uint256",
              "name": "newCollateralAmount",
              "type": "uint256"
            },
            {
              "internalType": "address",
              "name": "user",
              "type": "address"
            },
            {
              "internalType": "bool",
              "name": "withFlashLoan",
              "type": "bool"
            },
            {
              "internalType": "bytes",
              "name": "swapData",
              "type": "bytes"
            },
            {
              "internalType": "uint256",
              "name": "allBalanceOffset",
              "type": "uint256"
            }
          ],
          "internalType": "struct IOdosLiquiditySwapAdapterV2.LiquiditySwapParamsV2",
          "name": "liquiditySwapParams",
          "type": "tuple"
        },
        {
          "components": [
            {
              "internalType": "contract IERC20WithPermit",
              "name": "aToken",
              "type": "address"
            },
            {
              "internalType": "uint256",
              "name": "value",
              "type": "uint256"
            },
            {
              "internalType": "uint256",
              "name": "deadline",
              "type": "uint256"
            },
            {
              "internalType": "uint8",
              "name": "v",
              "type": "uint8"
            },
            {
              "internalType": "bytes32",
              "name": "r",
              "type": "bytes32"
            },
            {
              "internalType": "bytes32",
              "name": "s",
              "type": "bytes32"
            }
          ],
          "internalType": "struct IBaseOdosAdapter.PermitInput",
          "name": "collateralATokenPermit",
          "type": "tuple"
        }
      ],
      "name": "swapLiquidity",
      "outputs": [],
      "stateMutability": "nonpayable",
      "type": "function"
    },
    {
      "inputs": [
        {
          "internalType": "address",
          "name": "newOwner",
          "type": "address"
        }
      ],
      "name": "transferOwnership",
      "outputs": [],
      "stateMutability": "nonpayable",
      "type": "function"
    }
  ],
  "transactionHash": "0xa96ef09034641347b61ed78ccbbcb8b5eee25bf66847833d7383cff9f908cfd4",
  "args": [
    "0x1f8d8a3575d049aA0C195AA947483738811bAdcb",
    "0xEdC3cfB1aa36c570cc1D374876268bDda2D460CC",
    "0xaC041Df48dF9791B0654f1Dbbf2CC8450C5f2e9D",
    "0x888888888889758F76e7103c6CbF23ABbF58F946",
    "0x51fc0830DBe3A446701E7897F32C89A3B04e5a0a"
  ],
  "numDeployments": 10,
  "solcInputHash": "5fa2551e440599f5a089632717a9f4e9",
  "bytecode": "0x6101006040523480156200001257600080fd5b5060405162003a6438038062003a6483398101604081905262000035916200065f565b848484848383600033600080546001600160a01b0319166001600160a01b03831690811782556040519293509160008051602062003a44833981519152908290a3506001600160a01b03918216608052811660a05291821660c0521660e052505060018055620000a58162000177565b600060a0516001600160a01b031663d1946dbc6040518163ffffffff1660e01b8152600401600060405180830381865afa158015620000e8573d6000803e3d6000fd5b505050506040513d6000823e601f3d908101601f19168201604052620001129190810190620006f5565b905060005b81518110156200016a576200016160a051600019848481518110620001405762000140620007c7565b60200260200101516001600160a01b03166200028860201b9092919060201c565b60010162000117565b5050505050505062000894565b6000546001600160a01b03163314620001d75760405162461bcd60e51b815260206004820181905260248201527f4f776e61626c653a2063616c6c6572206973206e6f7420746865206f776e657260448201526064015b60405180910390fd5b6001600160a01b0381166200023e5760405162461bcd60e51b815260206004820152602660248201527f4f776e61626c653a206e6577206f776e657220697320746865207a65726f206160448201526564647265737360d01b6064820152608401620001ce565b600080546040516001600160a01b038085169392169160008051602062003a4483398151915291a3600080546001600160a01b0319166001600160a01b0392909216919091179055565b801580620003065750604051636eb1769f60e11b81523060048201526001600160a01b03838116602483015284169063dd62ed3e90604401602060405180830381865afa158015620002de573d6000803e3d6000fd5b505050506040513d601f19601f82011682018060405250810190620003049190620007dd565b155b6200037a5760405162461bcd60e51b815260206004820152603660248201527f5361666545524332303a20617070726f76652066726f6d206e6f6e2d7a65726f60448201527f20746f206e6f6e2d7a65726f20616c6c6f77616e6365000000000000000000006064820152608401620001ce565b604080516001600160a01b038416602482015260448082018490528251808303909101815260649091019091526020810180516001600160e01b0390811663095ea7b360e01b17909152620003d2918591620003d716565b505050565b6040805180820190915260208082527f5361666545524332303a206c6f772d6c6576656c2063616c6c206661696c65649082015260009062000426906001600160a01b038516908490620004a8565b805190915015620003d25780806020019051810190620004479190620007f7565b620003d25760405162461bcd60e51b815260206004820152602a60248201527f5361666545524332303a204552433230206f7065726174696f6e20646964206e6044820152691bdd081cdd58d8d9595960b21b6064820152608401620001ce565b6060620004b98484600085620004c3565b90505b9392505050565b606082471015620005265760405162461bcd60e51b815260206004820152602660248201527f416464726573733a20696e73756666696369656e742062616c616e636520666f6044820152651c8818d85b1b60d21b6064820152608401620001ce565b843b620005765760405162461bcd60e51b815260206004820152601d60248201527f416464726573733a2063616c6c20746f206e6f6e2d636f6e74726163740000006044820152606401620001ce565b600080866001600160a01b0316858760405162000594919062000841565b60006040518083038185875af1925050503d8060008114620005d3576040519150601f19603f3d011682016040523d82523d6000602084013e620005d8565b606091505b509092509050620005eb828286620005f6565b979650505050505050565b6060831562000607575081620004bc565b825115620006185782518084602001fd5b8160405162461bcd60e51b8152600401620001ce91906200085f565b6001600160a01b03811681146200064a57600080fd5b50565b80516200065a8162000634565b919050565b600080600080600060a086880312156200067857600080fd5b8551620006858162000634565b6020870151909550620006988162000634565b6040870151909450620006ab8162000634565b6060870151909350620006be8162000634565b6080870151909250620006d18162000634565b809150509295509295909350565b634e487b7160e01b600052604160045260246000fd5b600060208083850312156200070957600080fd5b82516001600160401b03808211156200072157600080fd5b818501915085601f8301126200073657600080fd5b8151818111156200074b576200074b620006df565b8060051b604051601f19603f83011681018181108582111715620007735762000773620006df565b6040529182528482019250838101850191888311156200079257600080fd5b938501935b82851015620007bb57620007ab856200064d565b8452938501939285019262000797565b98975050505050505050565b634e487b7160e01b600052603260045260246000fd5b600060208284031215620007f057600080fd5b5051919050565b6000602082840312156200080a57600080fd5b81518015158114620004bc57600080fd5b60005b83811015620008385781810151838201526020016200081e565b50506000910152565b60008251620008558184602087016200081b565b9190910192915050565b6020815260008251806020840152620008808160408501602087016200081b565b601f01601f19169190910160400192915050565b60805160a05160c05160e05161312a6200091a6000396000818161010b01526111000152600081816101740152818161108b015261112f01526000818161014d0152818161046a015281816104ac0152818161078e0152818161099c01528181610b8201528181610c1201528181610c710152610ebd0152600060c7015261312a6000f3fe608060405234801561001057600080fd5b50600436106100a85760003560e01c80637535d246116100715780637535d246146101485780638321928d1461016f5780638da5cb5b14610196578063920f5c84146101a7578063c0560374146101ca578063f2fde38b146101e657600080fd5b8062ae3bf8146100ad5780630542975c146100c2578063206aeab314610106578063366eff9e1461012d578063715018a614610140575b600080fd5b6100c06100bb3660046126a9565b6101f9565b005b6100e97f000000000000000000000000000000000000000000000000000000000000000081565b6040516001600160a01b0390911681526020015b60405180910390f35b6100e97f000000000000000000000000000000000000000000000000000000000000000081565b6100c061013b3660046128b9565b6102bd565b6100c06103e9565b6100e97f000000000000000000000000000000000000000000000000000000000000000081565b6100e97f000000000000000000000000000000000000000000000000000000000000000081565b6000546001600160a01b03166100e9565b6101ba6101b53660046129e2565b61045d565b60405190151581526020016100fd565b6101d361abcd81565b60405161ffff90911681526020016100fd565b6100c06101f43660046126a9565b610614565b6000546001600160a01b0316331461022c5760405162461bcd60e51b815260040161022390612ae7565b60405180910390fd5b6102ba6102416000546001600160a01b031690565b6040516370a0823160e01b81523060048201526001600160a01b038416906370a0823190602401602060405180830381865afa158015610285573d6000803e3d6000fd5b505050506040513d601f19601f820116820180604052508101906102a99190612b1c565b6001600160a01b03841691906106fe565b50565b60026001540361030f5760405162461bcd60e51b815260206004820152601f60248201527f5265656e7472616e637947756172643a207265656e7472616e742063616c6c006044820152606401610223565b600260015560e0820151156103be57600061032d8360000151610766565b60808601516040516370a0823160e01b81526001600160a01b03918216600482015291945060009350841691506370a0823190602401602060405180830381865afa158015610380573d6000803e3d6000fd5b505050506040513d601f19601f820116820180604052508101906103a49190612b1c565b90508360e00151816103b69190612b4b565b602085015250505b8160a001516103d7576103d1828261081a565b506103e1565b6103e18282610886565b505060018055565b6000546001600160a01b031633146104135760405162461bcd60e51b815260040161022390612ae7565b600080546040516001600160a01b03909116907f8be0079c531659141344cd1fd0a4f28419497f9722a3daafe3b4186f6b6457e0908390a3600080546001600160a01b0319169055565b6000336001600160a01b037f000000000000000000000000000000000000000000000000000000000000000016146104d9576040516303c3463f60e31b81523360048201526001600160a01b037f0000000000000000000000000000000000000000000000000000000000000000166024820152604401610223565b6001600160a01b03841630146105135760405163fdbc12a560e01b81526001600160a01b0385166004820152306024820152604401610223565b600080610522848601866128b9565b9150915060008c8c600081811061053b5761053b612b5e565b905060200201602081019061055091906126a9565b905060008b8b600081811061056757610567612b5e565b90506020020135905060008a8a600081811061058557610585612b5e565b90506020020135905060006105b484876040015184866105a59190612b4b565b89606001518a60c00151610a19565b90506105c4866040015182610b65565b6105da866040015182886080015161abcd610c39565b6105ea8487608001518588610cd3565b506105fe846105f98486612b74565b610b65565b5060019f9e505050505050505050505050505050565b6000546001600160a01b0316331461063e5760405162461bcd60e51b815260040161022390612ae7565b6001600160a01b0381166106a35760405162461bcd60e51b815260206004820152602660248201527f4f776e61626c653a206e6577206f776e657220697320746865207a65726f206160448201526564647265737360d01b6064820152608401610223565b600080546040516001600160a01b03808516939216917f8be0079c531659141344cd1fd0a4f28419497f9722a3daafe3b4186f6b6457e091a3600080546001600160a01b0319166001600160a01b0392909216919091179055565b6040516001600160a01b03831660248201526044810182905261076190849063a9059cbb60e01b906064015b60408051601f198184030181529190526020810180516001600160e01b03166001600160e01b031990931692909217909152610f38565b505050565b6040516335ea6a7560e01b81526001600160a01b0382811660048301526000918291829182917f000000000000000000000000000000000000000000000000000000000000000016906335ea6a75906024016101e060405180830381865afa1580156107d6573d6000803e3d6000fd5b505050506040513d601f19601f820116820180604052508101906107fa9190612c1b565b610140810151610120820151610100909201519097919650945092505050565b60008061083584600001518560800151866020015186610cd3565b90506000610856856000015186604001518488606001518960c00151610a19565b9050610866856040015182610b65565b61087c856040015182876080015161abcd610c39565b9150505b92915050565b6000828260405160200161089b929190612d8e565b60408051601f198184030181526001808452838301909252925060009190602080830190803683370190505090508360000151816000815181106108e1576108e1612b5e565b6001600160a01b03929092166020928302919091019091015260408051600180825281830190925260009181602001602082028036833701905050905084602001518160008151811061093657610936612b5e565b602090810291909101015260408051600180825281830190925260009181602001602082028036833701905050905060008160008151811061097a5761097a612b5e565b602090810291909101015260405163ab9c4b5d60e01b81526001600160a01b037f0000000000000000000000000000000000000000000000000000000000000000169063ab9c4b5d906109df90309087908790879084908c9061abcd90600401612ea9565b600060405180830381600087803b1580156109f957600080fd5b505af1158015610a0d573d6000803e3d6000fd5b50505050505050505050565b6000858582610a28838361100a565b90506000816003811115610a3e57610a3e612f59565b03610a5a57610a508383898989611084565b9350505050610b5c565b6040516370a0823160e01b81523060048201526000906001600160a01b038b16906370a0823190602401602060405180830381865afa158015610aa1573d6000803e3d6000fd5b505050506040513d601f19601f82011682018060405250810190610ac59190612b1c565b905087811015610af25760405163b6554a4960e01b81526004810182905260248101899052604401610223565b610aff84848a8a8a6110be565b9450826001600160a01b0316846001600160a01b03167fbf77fd13a39d14dc0da779342c14105c38d9a5d0c60f2caa22f5fd1d5525416d8a88604051610b4f929190918252602082015260400190565b60405180910390a3505050505b95945050505050565b604051636eb1769f60e11b81523060048201526001600160a01b037f0000000000000000000000000000000000000000000000000000000000000000811660248301526000919084169063dd62ed3e90604401602060405180830381865afa158015610bd5573d6000803e3d6000fd5b505050506040513d601f19601f82011682018060405250810190610bf99190612b1c565b905081811015610761576107616001600160a01b0384167f000000000000000000000000000000000000000000000000000000000000000060001961115f565b60405163617ba03760e01b81526001600160a01b03858116600483015260248201859052838116604483015261ffff831660648301527f0000000000000000000000000000000000000000000000000000000000000000169063617ba03790608401600060405180830381600087803b158015610cb557600080fd5b505af1158015610cc9573d6000803e3d6000fd5b5050505050505050565b60008160400151600014610d8557815160208301516040808501516060860151608087015160a0880151935163d505accf60e01b81526001600160a01b038b811660048301523060248301526044820196909652606481019390935260ff909116608483015260a482015260c481019190915291169063d505accf9060e401600060405180830381600087803b158015610d6c57600080fd5b505af1158015610d80573d6000803e3d6000fd5b505050505b6000610d9086610766565b6040516370a0823160e01b8152306004820152909350600092506001600160a01b03841691506370a0823190602401602060405180830381865afa158015610ddc573d6000803e3d6000fd5b505050506040513d601f19601f82011682018060405250810190610e009190612b1c565b9050610e176001600160a01b038316873088611274565b6040516370a0823160e01b815230600482015260009082906001600160a01b038516906370a0823190602401602060405180830381865afa158015610e60573d6000803e3d6000fd5b505050506040513d601f19601f82011682018060405250810190610e849190612b1c565b610e8e9190612b4b565b604051631a4ca37b60e21b81526001600160a01b038a81166004830152602482018390523060448301529192507f0000000000000000000000000000000000000000000000000000000000000000909116906369328dec906064016020604051808303816000875af1158015610f08573d6000803e3d6000fd5b505050506040513d601f19601f82011682018060405250810190610f2c9190612b1c565b50979650505050505050565b6000610f8d826040518060400160405280602081526020017f5361666545524332303a206c6f772d6c6576656c2063616c6c206661696c6564815250856001600160a01b03166112b29092919063ffffffff16565b8051909150156107615780806020019051810190610fab9190612f6f565b6107615760405162461bcd60e51b815260206004820152602a60248201527f5361666545524332303a204552433230206f7065726174696f6e20646964206e6044820152691bdd081cdd58d8d9595960b21b6064820152608401610223565b600080611016846112cb565b5090506000611024846112cb565b50905081158015611033575080155b1561104357600092505050610880565b81801561104e575080155b1561105e57600192505050610880565b811580156110695750805b1561107957600292505050610880565b600392505050610880565b60006110b47f000000000000000000000000000000000000000000000000000000000000000087878787876113dc565b9695505050505050565b60006110b46040518060e00160405280886001600160a01b03168152602001876001600160a01b031681526020018681526020018581526020018481526020017f00000000000000000000000000000000000000000000000000000000000000006001600160a01b031681526020017f00000000000000000000000000000000000000000000000000000000000000006001600160a01b0316815250611617565b8015806111d95750604051636eb1769f60e11b81523060048201526001600160a01b03838116602483015284169063dd62ed3e90604401602060405180830381865afa1580156111b3573d6000803e3d6000fd5b505050506040513d601f19601f820116820180604052508101906111d79190612b1c565b155b6112445760405162461bcd60e51b815260206004820152603660248201527f5361666545524332303a20617070726f76652066726f6d206e6f6e2d7a65726f60448201527520746f206e6f6e2d7a65726f20616c6c6f77616e636560501b6064820152608401610223565b6040516001600160a01b03831660248201526044810182905261076190849063095ea7b360e01b9060640161072a565b6040516001600160a01b03808516602483015283166044820152606481018290526112ac9085906323b872dd60e01b9060840161072a565b50505050565b60606112c18484600085611790565b90505b9392505050565b60408051600481526024810182526020810180516001600160e01b031663afd27bf560e01b17905290516000918291829182916001600160a01b0387169161131291612f8c565b600060405180830381855afa9150503d806000811461134d576040519150601f19603f3d011682016040523d82523d6000602084013e611352565b606091505b5091509150818015611365575080516020145b156113d5578080602001905181019061137e9190612fa8565b6001600160a01b03811615801595509093506113d557826001600160a01b0316856001600160a01b03167f1e5361486115d03329d5743ec247b6eae9b1d6af9aad63d1a1f05e84e20b432460405160405180910390a35b5050915091565b6040516370a0823160e01b815230600482015260009081906001600160a01b038716906370a0823190602401602060405180830381865afa158015611425573d6000803e3d6000fd5b505050506040513d601f19601f820116820180604052508101906114499190612b1c565b90506114568789876118b8565b600080896001600160a01b0316856040516114719190612f8c565b6000604051808303816000865af19150503d80600081146114ae576040519150601f19603f3d011682016040523d82523d6000602084013e6114b3565b606091505b5091509150816114e6578051156114cd5780518082602001fd5b60405163081ceff360e41b815260040160405180910390fd5b60208101516040516370a0823160e01b81523060048201529094506000906001600160a01b038a16906370a0823190602401602060405180830381865afa158015611535573d6000803e3d6000fd5b505050506040513d601f19601f820116820180604052508101906115599190612b1c565b905060006115678583612b4b565b90508781101561159457604051630583371760e31b81526004810189905260248101829052604401610223565b60405163095ea7b360e01b81526001600160a01b038d81166004830152600060248301528c169063095ea7b3906044016020604051808303816000875af11580156115e3573d6000803e3d6000fd5b505050506040513d601f19601f820116820180604052508101906116079190612f6f565b5050505050509695505050505050565b60008061162c8360000151846020015161100a565b9050600081600381111561164257611642612f59565b0361166d576112c48360c00151846000015185602001518660400151876060015188608001516113dc565b60008360800151806020019051810190611687919061300a565b90506116928161196c565b6116af5760405163b204669b60e01b815260040160405180910390fd5b60018260038111156116c3576116c3612f59565b036116f7576116ef84600001518560200151866040015187606001518860a001518960c001518761199d565b949350505050565b600282600381111561170b5761170b612f59565b03611737576116ef84600001518560200151866040015187606001518860a001518960c0015187611ab6565b600382600381111561174b5761174b612f59565b03611777576116ef84600001518560200151866040015187606001518860a001518960c0015187611e38565b60405163b204669b60e01b815260040160405180910390fd5b6060824710156117f15760405162461bcd60e51b815260206004820152602660248201527f416464726573733a20696e73756666696369656e742062616c616e636520666f6044820152651c8818d85b1b60d21b6064820152608401610223565b843b61183f5760405162461bcd60e51b815260206004820152601d60248201527f416464726573733a2063616c6c20746f206e6f6e2d636f6e74726163740000006044820152606401610223565b600080866001600160a01b0316858760405161185b9190612f8c565b60006040518083038185875af1925050503d8060008114611898576040519150601f19603f3d011682016040523d82523d6000602084013e61189d565b606091505b50915091506118ad828286612184565b979650505050505050565b604080516001600160a01b038416602482015260448082018490528251808303909101815260649091019091526020810180516001600160e01b031663095ea7b360e01b17905261190984826121bd565b6112ac57604080516001600160a01b038516602482015260006044808301919091528251808303909101815260649091019091526020810180516001600160e01b031663095ea7b360e01b179052611962908590612207565b6112ac8482612207565b805160009061198057506060015151151590565b81604001515160000361199557506000919050565b506001919050565b805160009015806119b9575060208201516001600160a01b0316155b156119d75760405163205544d760e11b815260040160405180910390fd5b60006119ee89888560200151888760400151612278565b9050876001600160a01b031683602001516001600160a01b031603611a1557809150611a54565b826060015151600003611a3b5760405163205544d760e11b815260040160405180910390fd5b611a518484602001518a848a88606001516113dc565b91505b876001600160a01b0316896001600160a01b03167f82494e43b53e197c30b1d5d35cf1c20c1e5d45885b1a8aa61f457a9dd5e7c3648985604051611aa2929190918252602082015260400190565b60405180910390a350979650505050505050565b80516000901580611ad2575060208201516001600160a01b0316155b15611af05760405163205544d760e11b815260040160405180910390fd5b600082602001516001600160a01b0316896001600160a01b031603611b16575085611caf565b826060015151600003611b3c5760405163205544d760e11b815260040160405180910390fd5b60208301516040516370a0823160e01b81523060048201526000916001600160a01b0316906370a0823190602401602060405180830381865afa158015611b87573d6000803e3d6000fd5b505050506040513d601f19601f82011682018060405250810190611bab9190612b1c565b9050611bc4858b86602001518b600089606001516113dc565b60208501516040516370a0823160e01b81523060048201529193506000916001600160a01b03909116906370a0823190602401602060405180830381865afa158015611c14573d6000803e3d6000fd5b505050506040513d601f19601f82011682018060405250810190611c389190612b1c565b90506000611c468383612b4b565b905080600003611cab57604051631300105360e01b815260206004820152602960248201527f4f646f7320737761702072657475726e6564207a65726f20756e6465726c79696044820152686e6720746f6b656e7360b81b6064820152608401610223565b5050505b60208301516040516370a0823160e01b81523060048201526000916001600160a01b0316906370a0823190602401602060405180830381865afa158015611cfa573d6000803e3d6000fd5b505050506040513d601f19601f82011682018060405250810190611d1e9190612b1c565b905081811015611d4b576040516305be2c3160e21b81526004810183905260248101829052604401610223565b611d6084602001518a848988604001516123bd565b925086831015611d8d5760405163223b57c760e21b81526004810188905260248101849052604401610223565b886001600160a01b031684602001516001600160a01b03166000805160206130d58339815191528486604051611dcd929190918252602082015260400190565b60405180910390a3886001600160a01b03168a6001600160a01b03167f82494e43b53e197c30b1d5d35cf1c20c1e5d45885b1a8aa61f457a9dd5e7c3648a86604051611e23929190918252602082015260400190565b60405180910390a35050979650505050505050565b600080611e44896112cb565b5090506000611e52896112cb565b509050811580611e60575080155b15611e89576040516303c4074b60e21b81526001600160a01b038b166004820152602401610223565b83511580611ea2575060208401516001600160a01b0316155b80611eb05750606084015151155b80611ebe5750604084015151155b15611edc5760405163205544d760e11b815260040160405180910390fd5b60208401516040516370a0823160e01b815230600482015260009182916001600160a01b03909116906370a0823190602401602060405180830381865afa158015611f2b573d6000803e3d6000fd5b505050506040513d601f19601f82011682018060405250810190611f4f9190612b1c565b9050611f68878d88602001518d60008b606001516113dc565b5060208601516040516370a0823160e01b81523060048201526000916001600160a01b0316906370a0823190602401602060405180830381865afa158015611fb4573d6000803e3d6000fd5b505050506040513d601f19601f82011682018060405250810190611fd89190612b1c565b9050611fe48282612b4b565b925050508060000361204e57604051631300105360e01b815260206004820152602c60248201527f4f646f7320505420737761702072657475726e6564207a65726f20756e64657260448201526b6c79696e6720746f6b656e7360a01b6064820152608401610223565b84602001516001600160a01b03168b6001600160a01b03166000805160206130d58339815191528b8460405161208e929190918252602082015260400190565b60405180910390a36120ab85602001518b838a89604001516123bd565b9350878410156120d85760405163223b57c760e21b81526004810189905260248101859052604401610223565b896001600160a01b031685602001516001600160a01b03166000805160206130d58339815191528387604051612118929190918252602082015260400190565b60405180910390a3896001600160a01b03168b6001600160a01b03167f82494e43b53e197c30b1d5d35cf1c20c1e5d45885b1a8aa61f457a9dd5e7c3648b8760405161216e929190918252602082015260400190565b60405180910390a3505050979650505050505050565b606083156121935750816112c4565b8251156121a35782518084602001fd5b8160405162461bcd60e51b815260040161022391906130c1565b6000806000806020600086516020880160008a5af192503d915060005190508280156110b4575081156121f357806001146110b4565b50505050506001600160a01b03163b151590565b600080602060008451602086016000885af18061222a576040513d6000823e3d81fd5b50506000513d9150811561224257806001141561224f565b6001600160a01b0384163b155b156112ac57604051635274afe760e01b81526001600160a01b0385166004820152602401610223565b6040516370a0823160e01b815230600482015260009081906001600160a01b038616906370a0823190602401602060405180830381865afa1580156122c1573d6000803e3d6000fd5b505050506040513d601f19601f820116820180604052508101906122e59190612b1c565b90506122f487868887876123bd565b506040516370a0823160e01b81523060048201526000906001600160a01b038716906370a0823190602401602060405180830381865afa15801561233c573d6000803e3d6000fd5b505050506040513d601f19601f820116820180604052508101906123609190612b1c565b905061236c8282612b4b565b9250856001600160a01b0316886001600160a01b03166000805160206130d583398151915289866040516123aa929190918252602082015260400190565b60405180910390a3505095945050505050565b6040516370a0823160e01b815230600482015260009081906001600160a01b038716906370a0823190602401602060405180830381865afa158015612406573d6000803e3d6000fd5b505050506040513d601f19601f8201168201806040525081019061242a9190612b1c565b9050612438878686866124bc565b506040516370a0823160e01b81523060048201526000906001600160a01b038816906370a0823190602401602060405180830381865afa158015612480573d6000803e3d6000fd5b505050506040513d601f19601f820116820180604052508101906124a49190612b1c565b90506124b08282612b4b565b98975050505050505050565b60606124c98584866118b8565b604051636eb1769f60e11b81523060048201526001600160a01b0384811660248301526000919087169063dd62ed3e90604401602060405180830381865afa158015612519573d6000803e3d6000fd5b505050506040513d601f19601f8201168201806040525081019061253d9190612b1c565b9050848110156125605760405163a7ed3d5f60e01b815260040160405180910390fd5b600061256c858561260c565b935090508061258e57604051630fe7fe8560e01b815260040160405180910390fd5b60405163095ea7b360e01b81526001600160a01b0386811660048301526000602483015288169063095ea7b3906044016020604051808303816000875af11580156125dd573d6000803e3d6000fd5b505050506040513d601f19601f820116820180604052508101906126019190612f6f565b505050949350505050565b60006060836001600160a01b0316836040516126289190612f8c565b6000604051808303816000865af19150503d8060008114612665576040519150601f19603f3d011682016040523d82523d6000602084013e61266a565b606091505b5090925090508115801561267f575060008151115b1561268d5780518082602001fd5b9250929050565b6001600160a01b03811681146102ba57600080fd5b6000602082840312156126bb57600080fd5b81356112c481612694565b634e487b7160e01b600052604160045260246000fd5b604051610100810167ffffffffffffffff81118282101715612700576127006126c6565b60405290565b6040516101e0810167ffffffffffffffff81118282101715612700576127006126c6565b6040516080810167ffffffffffffffff81118282101715612700576127006126c6565b604051601f8201601f1916810167ffffffffffffffff81118282101715612776576127766126c6565b604052919050565b803561278981612694565b919050565b80151581146102ba57600080fd5b80356127898161278e565b600067ffffffffffffffff8211156127c1576127c16126c6565b50601f01601f191660200190565b600082601f8301126127e057600080fd5b81356127f36127ee826127a7565b61274d565b81815284602083860101111561280857600080fd5b816020850160208301376000918101602001919091529392505050565b600060c0828403121561283757600080fd5b60405160c0810181811067ffffffffffffffff8211171561285a5761285a6126c6565b604052905080823561286b81612694565b808252506020830135602082015260408301356040820152606083013560ff8116811461289757600080fd5b806060830152506080830135608082015260a083013560a08201525092915050565b60008060e083850312156128cc57600080fd5b823567ffffffffffffffff808211156128e457600080fd5b9084019061010082870312156128f957600080fd5b6129016126dc565b61290a8361277e565b8152602083013560208201526129226040840161277e565b60408201526060830135606082015261293d6080840161277e565b608082015261294e60a0840161279c565b60a082015260c08301358281111561296557600080fd5b612971888286016127cf565b60c08301525060e083013560e08201528094505050506129948460208501612825565b90509250929050565b60008083601f8401126129af57600080fd5b50813567ffffffffffffffff8111156129c757600080fd5b6020830191508360208260051b850101111561268d57600080fd5b600080600080600080600080600060a08a8c031215612a0057600080fd5b893567ffffffffffffffff80821115612a1857600080fd5b612a248d838e0161299d565b909b50995060208c0135915080821115612a3d57600080fd5b612a498d838e0161299d565b909950975060408c0135915080821115612a6257600080fd5b612a6e8d838e0161299d565b909750955060608c01359150612a8382612694565b90935060808b01359080821115612a9957600080fd5b818c0191508c601f830112612aad57600080fd5b813581811115612abc57600080fd5b8d6020828501011115612ace57600080fd5b6020830194508093505050509295985092959850929598565b6020808252818101527f4f776e61626c653a2063616c6c6572206973206e6f7420746865206f776e6572604082015260600190565b600060208284031215612b2e57600080fd5b5051919050565b634e487b7160e01b600052601160045260246000fd5b8181038181111561088057610880612b35565b634e487b7160e01b600052603260045260246000fd5b8082018082111561088057610880612b35565b600060208284031215612b9957600080fd5b6040516020810181811067ffffffffffffffff82111715612bbc57612bbc6126c6565b6040529151825250919050565b80516fffffffffffffffffffffffffffffffff8116811461278957600080fd5b805164ffffffffff8116811461278957600080fd5b805161ffff8116811461278957600080fd5b805161278981612694565b60006101e08284031215612c2e57600080fd5b612c36612706565b612c408484612b87565b8152612c4e60208401612bc9565b6020820152612c5f60408401612bc9565b6040820152612c7060608401612bc9565b6060820152612c8160808401612bc9565b6080820152612c9260a08401612bc9565b60a0820152612ca360c08401612be9565b60c0820152612cb460e08401612bfe565b60e0820152610100612cc7818501612c10565b90820152610120612cd9848201612c10565b90820152610140612ceb848201612c10565b90820152610160612cfd848201612c10565b90820152610180612d0f848201612bc9565b908201526101a0612d21848201612bc9565b908201526101c0612d33848201612bc9565b908201529392505050565b60005b83811015612d59578181015183820152602001612d41565b50506000910152565b60008151808452612d7a816020860160208601612d3e565b601f01601f19169290920160200192915050565b60e08152600060018060a01b038085511660e08401526020850151610100818186015282604088015116610120860152606087015161014086015260808701519250612de66101608601846001600160a01b03169052565b60a0870151151561018086015260c08701516101a08601919091529150612e1390506101e0840182612d62565b60e08601516101c085015291506112c49050602083018480516001600160a01b03168252602080820151908301526040808201519083015260608082015160ff16908301526080808201519083015260a090810151910152565b60008151808452602080850194506020840160005b83811015612e9e57815187529582019590820190600101612e82565b509495945050505050565b6001600160a01b03888116825260e0602080840182905289519184018290526000928a820192909190610100860190855b81811015612ef8578551851683529483019491830191600101612eda565b50508581036040870152612f0c818c612e6d565b93505050508281036060840152612f238188612e6d565b6001600160a01b0387166080850152905082810360a0840152612f468186612d62565b9150506124b060c083018461ffff169052565b634e487b7160e01b600052602160045260246000fd5b600060208284031215612f8157600080fd5b81516112c48161278e565b60008251612f9e818460208701612d3e565b9190910192915050565b600060208284031215612fba57600080fd5b81516112c481612694565b600082601f830112612fd657600080fd5b8151612fe46127ee826127a7565b818152846020838601011115612ff957600080fd5b61087c826020830160208701612d3e565b60006020828403121561301c57600080fd5b815167ffffffffffffffff8082111561303457600080fd5b908301906080828603121561304857600080fd5b61305061272a565b825161305b8161278e565b8152602083015161306b81612694565b602082015260408301518281111561308257600080fd5b61308e87828601612fc5565b6040830152506060830151828111156130a657600080fd5b6130b287828601612fc5565b60608301525095945050505050565b6020815260006112c46020830184612d6256fe27039ac08bcb6070578fc805ffca75715bb586e39696d42a16aaa308c1248eb7a264697066735822122079681e81a0ffe62e595c1ccc938c623eaded41e5a9d04745dbe73cd8949c89cb64736f6c634300081600338be0079c531659141344cd1fd0a4f28419497f9722a3daafe3b4186f6b6457e0",
  "devdoc": {
    "errors": {
      "CallerMustBePool(address,address)": [
        {
          "details": "Thrown when the caller is not the pool",
          "params": {
            "caller": "The actual caller",
            "pool": "The expected pool"
          }
        }
      ],
      "InitiatorMustBeThis(address,address)": [
        {
          "details": "Thrown when the initiator is not the expected initiator",
          "params": {
            "expectedInitiator": "The expected initiator",
            "initiator": "The actual initiator"
          }
        }
      ],
      "InsufficientBalanceBeforeSwap(uint256,uint256)": [
        {
          "details": "Thrown when the balance before swap is insufficient",
          "params": {
            "balance": "The actual balance",
            "required": "The required balance"
          }
        }
      ],
      "InsufficientOutputAfterComposedSwap(uint256,uint256)": [
        {
          "details": "Thrown when insufficient output is received after composed swap",
          "params": {
            "actual": "The actual amount received",
            "expected": "The expected amount"
          }
        }
      ],
      "InsufficientOutputAmount(uint256,uint256)": [
        {
          "details": "Thrown when the output amount is less than the minimum expected",
          "params": {
            "actual": "The actual output amount",
            "expected": "The minimum expected output amount"
          }
        }
      ],
      "InvalidPTSwapData()": [
        {
          "details": "Thrown when PT swap data is invalid"
        }
      ],
      "OdosSwapFailed(string)": [
        {
          "details": "Thrown when Odos swap fails",
          "params": {
            "reason": "The failure reason"
          }
        }
      ],
      "PendleSwapFailed(string)": [
        {
          "details": "Thrown when Pendle swap fails",
          "params": {
            "reason": "The failure reason"
          }
        }
      ],
      "SafeERC20FailedOperation(address)": [
        {
          "details": "An operation with an ERC-20 token failed."
        }
      ]
    },
    "events": {
      "Bought(address,address,uint256,uint256)": {
        "details": "Emitted when a token is bought on Odos",
        "params": {
          "amountIn": "The amount of tokens sold",
          "amountOut": "The amount of tokens bought",
          "tokenIn": "The address of the token sold",
          "tokenOut": "The address of the token bought"
        }
      }
    },
    "kind": "dev",
    "methods": {
      "executeOperation(address[],uint256[],uint256[],address,bytes)": {
        "details": "Executes the collateral swap after receiving the flash-borrowed assetsWorkflow: 1. Sell flash-borrowed asset for new collateral asset 2. Supply new collateral asset 3. Pull aToken collateral from user and withdraw from Pool 4. Repay flashloan",
        "params": {
          "amounts": "The amounts of the flash-borrowed assets",
          "assets": "The addresses of the flash-borrowed assets",
          "initiator": "The address of the flashloan initiator",
          "params": "The byte-encoded params passed when initiating the flashloan",
          "premiums": "The premiums of the flash-borrowed assets"
        },
        "returns": {
          "_0": "True if the execution of the operation succeeds, false otherwise"
        }
      },
      "owner()": {
        "details": "Returns the address of the current owner."
      },
      "renounceOwnership()": {
        "details": "Leaves the contract without owner. It will not be possible to call `onlyOwner` functions anymore. Can only be called by the current owner. NOTE: Renouncing ownership will leave the contract without an owner, thereby removing any functionality that is only available to the owner."
      },
      "rescueTokens(address)": {
        "details": "Emergency rescue for token stucked on this contract, as failsafe mechanism - Funds should never remain in this contract more time than during transactions - Only callable by the owner"
      },
      "swapLiquidity((address,uint256,address,uint256,address,bool,bytes,uint256),(address,uint256,uint256,uint8,bytes32,bytes32))": {
        "details": "Now supports PT tokens through composed Pendle + Odos swaps",
        "params": {
          "collateralATokenPermit": "optional permit for collateral aToken",
          "liquiditySwapParams": "struct describing the liquidity swap"
        }
      },
      "transferOwnership(address)": {
        "details": "Transfers ownership of the contract to a new account (`newOwner`). Can only be called by the current owner."
      }
    },
    "title": "OdosLiquiditySwapAdapterV2",
    "version": 1
  },
  "userdoc": {
    "errors": {
      "InsufficientOutput(uint256,uint256)": [
        {
          "notice": "Custom error when actual output amount is less than expected"
        }
      ],
      "InvalidSwapData()": [
        {
          "notice": "Error when swap data validation fails"
        }
      ],
      "PTApprovalFailed()": [
        {
          "notice": "Custom error when PT token approval fails"
        }
      ],
      "PendleSwapFailed()": [
        {
          "notice": "Custom error for failed Pendle swap with no revert reason"
        }
      ],
      "SwapFailed()": [
        {
          "notice": "Custom error for failed swap with no revert reason"
        }
      ]
    },
    "kind": "user",
    "methods": {
      "ADDRESSES_PROVIDER()": {
        "notice": "The address of the Aave PoolAddressesProvider contract"
      },
      "POOL()": {
        "notice": "The address of the Aave Pool contract"
      },
      "odosRouter()": {
        "notice": "The address of the Odos Router"
      },
      "pendleRouter()": {
        "notice": "The address of the Pendle Router"
      },
      "swapLiquidity((address,uint256,address,uint256,address,bool,bytes,uint256),(address,uint256,uint256,uint8,bytes32,bytes32))": {
        "notice": "Swaps liquidity(collateral) from one asset to another"
      }
    },
    "notice": "Adapter to swap liquidity using Odos with PT token support",
    "version": 1
  },
  "storageLayout": {
    "storage": [
      {
        "astId": 28808,
        "contract": "contracts/dlend/periphery/adapters/odos/OdosLiquiditySwapAdapterV2.sol:OdosLiquiditySwapAdapterV2",
        "label": "_owner",
        "offset": 0,
        "slot": "0",
        "type": "t_address"
      },
      {
        "astId": 65654,
        "contract": "contracts/dlend/periphery/adapters/odos/OdosLiquiditySwapAdapterV2.sol:OdosLiquiditySwapAdapterV2",
        "label": "_status",
        "offset": 0,
        "slot": "1",
        "type": "t_uint256"
      }
    ],
    "types": {
      "t_address": {
        "encoding": "inplace",
        "label": "address",
        "numberOfBytes": "20"
      },
      "t_uint256": {
        "encoding": "inplace",
        "label": "uint256",
        "numberOfBytes": "32"
      }
    }
  }
}