{
  "address": "0x6DF9A77c866e8a9C998286bDa5A17543e2105991",
  "abi": [
    {
      "inputs": [
        {
          "internalType": "contract IPoolAddressesProvider",
          "name": "addressesProvider",
          "type": "address"
        },
        {
          "internalType": "address",
          "name": "pool",
          "type": "address"
        },
        {
          "internalType": "contract IOdosRouterV2",
          "name": "swapRouter",
          "type": "address"
        },
        {
          "internalType": "address",
          "name": "owner",
          "type": "address"
        }
      ],
      "stateMutability": "nonpayable",
      "type": "constructor"
    },
    {
      "inputs": [
        {
          "internalType": "address",
          "name": "caller",
          "type": "address"
        },
        {
          "internalType": "address",
          "name": "pool",
          "type": "address"
        }
      ],
      "name": "CallerMustBePool",
      "type": "error"
    },
    {
      "inputs": [
        {
          "internalType": "address",
          "name": "initiator",
          "type": "address"
        },
        {
          "internalType": "address",
          "name": "expectedInitiator",
          "type": "address"
        }
      ],
      "name": "InitiatorMustBeThis",
      "type": "error"
    },
    {
      "inputs": [
        {
          "internalType": "uint256",
          "name": "balance",
          "type": "uint256"
        },
        {
          "internalType": "uint256",
          "name": "required",
          "type": "uint256"
        }
      ],
      "name": "InsufficientBalanceBeforeSwap",
      "type": "error"
    },
    {
      "inputs": [
        {
          "internalType": "uint256",
          "name": "expected",
          "type": "uint256"
        },
        {
          "internalType": "uint256",
          "name": "actual",
          "type": "uint256"
        }
      ],
      "name": "InsufficientOutput",
      "type": "error"
    },
    {
      "inputs": [
        {
          "internalType": "uint256",
          "name": "actual",
          "type": "uint256"
        },
        {
          "internalType": "uint256",
          "name": "expected",
          "type": "uint256"
        }
      ],
      "name": "InsufficientOutputAmount",
      "type": "error"
    },
    {
      "inputs": [
        {
          "internalType": "address",
          "name": "token",
          "type": "address"
        }
      ],
      "name": "SafeERC20FailedOperation",
      "type": "error"
    },
    {
      "inputs": [],
      "name": "SwapFailed",
      "type": "error"
    },
    {
      "anonymous": false,
      "inputs": [
        {
          "indexed": true,
          "internalType": "address",
          "name": "tokenIn",
          "type": "address"
        },
        {
          "indexed": true,
          "internalType": "address",
          "name": "tokenOut",
          "type": "address"
        },
        {
          "indexed": false,
          "internalType": "uint256",
          "name": "amountIn",
          "type": "uint256"
        },
        {
          "indexed": false,
          "internalType": "uint256",
          "name": "amountOut",
          "type": "uint256"
        }
      ],
      "name": "Bought",
      "type": "event"
    },
    {
      "anonymous": false,
      "inputs": [
        {
          "indexed": true,
          "internalType": "address",
          "name": "previousOwner",
          "type": "address"
        },
        {
          "indexed": true,
          "internalType": "address",
          "name": "newOwner",
          "type": "address"
        }
      ],
      "name": "OwnershipTransferred",
      "type": "event"
    },
    {
      "inputs": [],
      "name": "ADDRESSES_PROVIDER",
      "outputs": [
        {
          "internalType": "contract IPoolAddressesProvider",
          "name": "",
          "type": "address"
        }
      ],
      "stateMutability": "view",
      "type": "function"
    },
    {
      "inputs": [],
      "name": "POOL",
      "outputs": [
        {
          "internalType": "contract IPool",
          "name": "",
          "type": "address"
        }
      ],
      "stateMutability": "view",
      "type": "function"
    },
    {
      "inputs": [],
      "name": "REFERRER",
      "outputs": [
        {
          "internalType": "uint16",
          "name": "",
          "type": "uint16"
        }
      ],
      "stateMutability": "view",
      "type": "function"
    },
    {
      "inputs": [
        {
          "internalType": "address[]",
          "name": "assets",
          "type": "address[]"
        },
        {
          "internalType": "uint256[]",
          "name": "amounts",
          "type": "uint256[]"
        },
        {
          "internalType": "uint256[]",
          "name": "premiums",
          "type": "uint256[]"
        },
        {
          "internalType": "address",
          "name": "initiator",
          "type": "address"
        },
        {
          "internalType": "bytes",
          "name": "params",
          "type": "bytes"
        }
      ],
      "name": "executeOperation",
      "outputs": [
        {
          "internalType": "bool",
          "name": "",
          "type": "bool"
        }
      ],
      "stateMutability": "nonpayable",
      "type": "function"
    },
    {
      "inputs": [],
      "name": "owner",
      "outputs": [
        {
          "internalType": "address",
          "name": "",
          "type": "address"
        }
      ],
      "stateMutability": "view",
      "type": "function"
    },
    {
      "inputs": [],
      "name": "renounceOwnership",
      "outputs": [],
      "stateMutability": "nonpayable",
      "type": "function"
    },
    {
      "inputs": [
        {
          "internalType": "contract IERC20",
          "name": "token",
          "type": "address"
        }
      ],
      "name": "rescueTokens",
      "outputs": [],
      "stateMutability": "nonpayable",
      "type": "function"
    },
    {
      "inputs": [
        {
          "components": [
            {
              "internalType": "address",
              "name": "collateralAsset",
              "type": "address"
            },
            {
              "internalType": "uint256",
              "name": "collateralAmountToSwap",
              "type": "uint256"
            },
            {
              "internalType": "address",
              "name": "newCollateralAsset",
              "type": "address"
            },
            {
              "internalType": "uint256",
              "name": "newCollateralAmount",
              "type": "uint256"
            },
            {
              "internalType": "address",
              "name": "user",
              "type": "address"
            },
            {
              "internalType": "bool",
              "name": "withFlashLoan",
              "type": "bool"
            },
            {
              "internalType": "bytes",
              "name": "swapData",
              "type": "bytes"
            }
          ],
          "internalType": "struct IOdosLiquiditySwapAdapter.LiquiditySwapParams",
          "name": "liquiditySwapParams",
          "type": "tuple"
        },
        {
          "components": [
            {
              "internalType": "contract IERC20WithPermit",
              "name": "aToken",
              "type": "address"
            },
            {
              "internalType": "uint256",
              "name": "value",
              "type": "uint256"
            },
            {
              "internalType": "uint256",
              "name": "deadline",
              "type": "uint256"
            },
            {
              "internalType": "uint8",
              "name": "v",
              "type": "uint8"
            },
            {
              "internalType": "bytes32",
              "name": "r",
              "type": "bytes32"
            },
            {
              "internalType": "bytes32",
              "name": "s",
              "type": "bytes32"
            }
          ],
          "internalType": "struct IBaseOdosAdapter.PermitInput",
          "name": "collateralATokenPermit",
          "type": "tuple"
        }
      ],
      "name": "swapLiquidity",
      "outputs": [],
      "stateMutability": "nonpayable",
      "type": "function"
    },
    {
      "inputs": [],
      "name": "swapRouter",
      "outputs": [
        {
          "internalType": "contract IOdosRouterV2",
          "name": "",
          "type": "address"
        }
      ],
      "stateMutability": "view",
      "type": "function"
    },
    {
      "inputs": [
        {
          "internalType": "address",
          "name": "newOwner",
          "type": "address"
        }
      ],
      "name": "transferOwnership",
      "outputs": [],
      "stateMutability": "nonpayable",
      "type": "function"
    }
  ],
  "transactionHash": "0x2f3752a8d034b3e3c203690f288bc2d182649887613cd1a00cc5c74820d43d08",
  "args": [
    "0x1f8d8a3575d049aA0C195AA947483738811bAdcb",
    "0xEdC3cfB1aa36c570cc1D374876268bDda2D460CC",
    "0xaC041Df48dF9791B0654f1Dbbf2CC8450C5f2e9D",
    "0x51fc0830DBe3A446701E7897F32C89A3B04e5a0a"
  ],
  "numDeployments": 1,
  "solcInputHash": "d3c0057c2e8a7638029ed60f266c3d63",
  "bytecode": "0x60e06040523480156200001157600080fd5b506040516200270338038062002703833981016040819052620000349162000656565b8383838282600033600080546001600160a01b0319166001600160a01b038316908117825560405192935091600080516020620026e3833981519152908290a3506001600160a01b03918216608052811660a0521660c0525050600180556200009d816200016e565b600060a0516001600160a01b031663d1946dbc6040518163ffffffff1660e01b8152600401600060405180830381865afa158015620000e0573d6000803e3d6000fd5b505050506040513d6000823e601f3d908101601f191682016040526200010a9190810190620006d4565b905060005b815181101562000162576200015960a051600019848481518110620001385762000138620007a6565b60200260200101516001600160a01b03166200027f60201b9092919060201c565b6001016200010f565b50505050505062000873565b6000546001600160a01b03163314620001ce5760405162461bcd60e51b815260206004820181905260248201527f4f776e61626c653a2063616c6c6572206973206e6f7420746865206f776e657260448201526064015b60405180910390fd5b6001600160a01b038116620002355760405162461bcd60e51b815260206004820152602660248201527f4f776e61626c653a206e6577206f776e657220697320746865207a65726f206160448201526564647265737360d01b6064820152608401620001c5565b600080546040516001600160a01b0380851693921691600080516020620026e383398151915291a3600080546001600160a01b0319166001600160a01b0392909216919091179055565b801580620002fd5750604051636eb1769f60e11b81523060048201526001600160a01b03838116602483015284169063dd62ed3e90604401602060405180830381865afa158015620002d5573d6000803e3d6000fd5b505050506040513d601f19601f82011682018060405250810190620002fb9190620007bc565b155b620003715760405162461bcd60e51b815260206004820152603660248201527f5361666545524332303a20617070726f76652066726f6d206e6f6e2d7a65726f60448201527f20746f206e6f6e2d7a65726f20616c6c6f77616e6365000000000000000000006064820152608401620001c5565b604080516001600160a01b038416602482015260448082018490528251808303909101815260649091019091526020810180516001600160e01b0390811663095ea7b360e01b17909152620003c9918591620003ce16565b505050565b6040805180820190915260208082527f5361666545524332303a206c6f772d6c6576656c2063616c6c206661696c6564908201526000906200041d906001600160a01b0385169084906200049f565b805190915015620003c957808060200190518101906200043e9190620007d6565b620003c95760405162461bcd60e51b815260206004820152602a60248201527f5361666545524332303a204552433230206f7065726174696f6e20646964206e6044820152691bdd081cdd58d8d9595960b21b6064820152608401620001c5565b6060620004b08484600085620004ba565b90505b9392505050565b6060824710156200051d5760405162461bcd60e51b815260206004820152602660248201527f416464726573733a20696e73756666696369656e742062616c616e636520666f6044820152651c8818d85b1b60d21b6064820152608401620001c5565b843b6200056d5760405162461bcd60e51b815260206004820152601d60248201527f416464726573733a2063616c6c20746f206e6f6e2d636f6e74726163740000006044820152606401620001c5565b600080866001600160a01b031685876040516200058b919062000820565b60006040518083038185875af1925050503d8060008114620005ca576040519150601f19603f3d011682016040523d82523d6000602084013e620005cf565b606091505b509092509050620005e2828286620005ed565b979650505050505050565b60608315620005fe575081620004b3565b8251156200060f5782518084602001fd5b8160405162461bcd60e51b8152600401620001c591906200083e565b6001600160a01b03811681146200064157600080fd5b50565b805162000651816200062b565b919050565b600080600080608085870312156200066d57600080fd5b84516200067a816200062b565b60208601519094506200068d816200062b565b6040860151909350620006a0816200062b565b6060860151909250620006b3816200062b565b939692955090935050565b634e487b7160e01b600052604160045260246000fd5b60006020808385031215620006e857600080fd5b82516001600160401b03808211156200070057600080fd5b818501915085601f8301126200071557600080fd5b8151818111156200072a576200072a620006be565b8060051b604051601f19603f83011681018181108582111715620007525762000752620006be565b6040529182528482019250838101850191888311156200077157600080fd5b938501935b828510156200079a576200078a8562000644565b8452938501939285019262000776565b98975050505050505050565b634e487b7160e01b600052603260045260246000fd5b600060208284031215620007cf57600080fd5b5051919050565b600060208284031215620007e957600080fd5b81518015158114620004b357600080fd5b60005b8381101562000817578181015183820152602001620007fd565b50506000910152565b6000825162000834818460208701620007fa565b9190910192915050565b60208152600082518060208401526200085f816040850160208701620007fa565b601f01601f19169190910160400192915050565b60805160a05160c051611e02620008e160003960008181610192015261072b0152600081816101080152818161030c0152818161034e015281816107d501528181610865015281816108c401528181610b1001528181610d0d01526111610152600060bc0152611e026000f3fe608060405234801561001057600080fd5b506004361061009d5760003560e01c8063920f5c8411610066578063920f5c841461013b578063a5c228ae1461015e578063c056037414610171578063c31c9c071461018d578063f2fde38b146101b457600080fd5b8062ae3bf8146100a25780630542975c146100b7578063715018a6146100fb5780637535d246146101035780638da5cb5b1461012a575b600080fd5b6100b56100b036600461152e565b6101c7565b005b6100de7f000000000000000000000000000000000000000000000000000000000000000081565b6040516001600160a01b0390911681526020015b60405180910390f35b6100b561028b565b6100de7f000000000000000000000000000000000000000000000000000000000000000081565b6000546001600160a01b03166100de565b61014e6101493660046115a7565b6102ff565b60405190151581526020016100f2565b6100b561016c366004611849565b6104b6565b61017a61abcc81565b60405161ffff90911681526020016100f2565b6100de7f000000000000000000000000000000000000000000000000000000000000000081565b6100b56101c236600461152e565b610538565b6000546001600160a01b031633146101fa5760405162461bcd60e51b81526004016101f190611922565b60405180910390fd5b61028861020f6000546001600160a01b031690565b6040516370a0823160e01b81523060048201526001600160a01b038416906370a0823190602401602060405180830381865afa158015610253573d6000803e3d6000fd5b505050506040513d601f19601f820116820180604052508101906102779190611957565b6001600160a01b0384169190610622565b50565b6000546001600160a01b031633146102b55760405162461bcd60e51b81526004016101f190611922565b600080546040516001600160a01b03909116907f8be0079c531659141344cd1fd0a4f28419497f9722a3daafe3b4186f6b6457e0908390a3600080546001600160a01b0319169055565b6000336001600160a01b037f0000000000000000000000000000000000000000000000000000000000000000161461037b576040516303c3463f60e31b81523360048201526001600160a01b037f00000000000000000000000000000000000000000000000000000000000000001660248201526044016101f1565b6001600160a01b03841630146103b55760405163fdbc12a560e01b81526001600160a01b03851660048201523060248201526044016101f1565b6000806103c484860186611849565b9150915060008c8c60008181106103dd576103dd611970565b90506020020160208101906103f2919061152e565b905060008b8b600081811061040957610409611970565b90506020020135905060008a8a600081811061042757610427611970565b90506020020135905060006104568487604001518486610447919061199c565b89606001518a60c0015161068a565b90506104668660400151826107b8565b61047c866040015182886080015161abcc61088c565b61048c8487608001518588610926565b506104a08461049b84866119af565b6107b8565b5060019f9e505050505050505050505050505050565b6002600154036105085760405162461bcd60e51b815260206004820152601f60248201527f5265656e7472616e637947756172643a207265656e7472616e742063616c6c0060448201526064016101f1565b600260015560a0820151610526576105208282610b8b565b50610530565b6105308282610bf7565b505060018055565b6000546001600160a01b031633146105625760405162461bcd60e51b81526004016101f190611922565b6001600160a01b0381166105c75760405162461bcd60e51b815260206004820152602660248201527f4f776e61626c653a206e6577206f776e657220697320746865207a65726f206160448201526564647265737360d01b60648201526084016101f1565b600080546040516001600160a01b03808516939216917f8be0079c531659141344cd1fd0a4f28419497f9722a3daafe3b4186f6b6457e091a3600080546001600160a01b0319166001600160a01b0392909216919091179055565b6040516001600160a01b03831660248201526044810182905261068590849063a9059cbb60e01b906064015b60408051601f198184030181529190526020810180516001600160e01b03166001600160e01b031990931692909217909152610d8a565b505050565b6040516370a0823160e01b815230600482015260009081906001600160a01b038816906370a0823190602401602060405180830381865afa1580156106d3573d6000803e3d6000fd5b505050506040513d601f19601f820116820180604052508101906106f79190611957565b9050848110156107245760405163b6554a4960e01b815260048101829052602481018690526044016101f1565b86866107547f000000000000000000000000000000000000000000000000000000000000000083838a8a8a610e5c565b9350806001600160a01b0316826001600160a01b03167fbf77fd13a39d14dc0da779342c14105c38d9a5d0c60f2caa22f5fd1d5525416d89876040516107a4929190918252602082015260400190565b60405180910390a350505095945050505050565b604051636eb1769f60e11b81523060048201526001600160a01b037f0000000000000000000000000000000000000000000000000000000000000000811660248301526000919084169063dd62ed3e90604401602060405180830381865afa158015610828573d6000803e3d6000fd5b505050506040513d601f19601f8201168201806040525081019061084c9190611957565b905081811015610685576106856001600160a01b0384167f0000000000000000000000000000000000000000000000000000000000000000600019611024565b60405163617ba03760e01b81526001600160a01b03858116600483015260248201859052838116604483015261ffff831660648301527f0000000000000000000000000000000000000000000000000000000000000000169063617ba03790608401600060405180830381600087803b15801561090857600080fd5b505af115801561091c573d6000803e3d6000fd5b5050505050505050565b600081604001516000146109d857815160208301516040808501516060860151608087015160a0880151935163d505accf60e01b81526001600160a01b038b811660048301523060248301526044820196909652606481019390935260ff909116608483015260a482015260c481019190915291169063d505accf9060e401600060405180830381600087803b1580156109bf57600080fd5b505af11580156109d3573d6000803e3d6000fd5b505050505b60006109e386611139565b6040516370a0823160e01b8152306004820152909350600092506001600160a01b03841691506370a0823190602401602060405180830381865afa158015610a2f573d6000803e3d6000fd5b505050506040513d601f19601f82011682018060405250810190610a539190611957565b9050610a6a6001600160a01b0383168730886111ed565b6040516370a0823160e01b815230600482015260009082906001600160a01b038516906370a0823190602401602060405180830381865afa158015610ab3573d6000803e3d6000fd5b505050506040513d601f19601f82011682018060405250810190610ad79190611957565b610ae1919061199c565b604051631a4ca37b60e21b81526001600160a01b038a81166004830152602482018390523060448301529192507f0000000000000000000000000000000000000000000000000000000000000000909116906369328dec906064016020604051808303816000875af1158015610b5b573d6000803e3d6000fd5b505050506040513d601f19601f82011682018060405250810190610b7f9190611957565b50979650505050505050565b600080610ba684600001518560800151866020015186610926565b90506000610bc7856000015186604001518488606001518960c0015161068a565b9050610bd78560400151826107b8565b610bed856040015182876080015161abcc61088c565b9150505b92915050565b60008282604051602001610c0c929190611a12565b60408051601f19818403018152600180845283830190925292506000919060208083019080368337019050509050836000015181600081518110610c5257610c52611970565b6001600160a01b039290921660209283029190910190910152604080516001808252818301909252600091816020016020820280368337019050509050846020015181600081518110610ca757610ca7611970565b6020908102919091010152604080516001808252818301909252600091816020016020820280368337019050509050600081600081518110610ceb57610ceb611970565b602090810291909101015260405163ab9c4b5d60e01b81526001600160a01b037f0000000000000000000000000000000000000000000000000000000000000000169063ab9c4b5d90610d5090309087908790879084908c9061abcc90600401611b0d565b600060405180830381600087803b158015610d6a57600080fd5b505af1158015610d7e573d6000803e3d6000fd5b50505050505050505050565b6000610ddf826040518060400160405280602081526020017f5361666545524332303a206c6f772d6c6576656c2063616c6c206661696c6564815250856001600160a01b031661122b9092919063ffffffff16565b8051909150156106855780806020019051810190610dfd9190611bc9565b6106855760405162461bcd60e51b815260206004820152602a60248201527f5361666545524332303a204552433230206f7065726174696f6e20646964206e6044820152691bdd081cdd58d8d9595960b21b60648201526084016101f1565b6040516370a0823160e01b815230600482015260009081906001600160a01b038716906370a0823190602401602060405180830381865afa158015610ea5573d6000803e3d6000fd5b505050506040513d601f19601f82011682018060405250810190610ec99190611957565b9050610edf6001600160a01b0388168987611244565b600080896001600160a01b031685604051610efa9190611be6565b6000604051808303816000865af19150503d8060008114610f37576040519150601f19603f3d011682016040523d82523d6000602084013e610f3c565b606091505b509150915081610f6f57805115610f565780518082602001fd5b60405163081ceff360e41b815260040160405180910390fd5b6040516370a0823160e01b81523060048201526000906001600160a01b038a16906370a0823190602401602060405180830381865afa158015610fb6573d6000803e3d6000fd5b505050506040513d601f19601f82011682018060405250810190610fda9190611957565b90506000610fe8858361199c565b90508781101561101557604051630583371760e31b815260048101899052602481018290526044016101f1565b9b9a5050505050505050505050565b80158061109e5750604051636eb1769f60e11b81523060048201526001600160a01b03838116602483015284169063dd62ed3e90604401602060405180830381865afa158015611078573d6000803e3d6000fd5b505050506040513d601f19601f8201168201806040525081019061109c9190611957565b155b6111095760405162461bcd60e51b815260206004820152603660248201527f5361666545524332303a20617070726f76652066726f6d206e6f6e2d7a65726f60448201527520746f206e6f6e2d7a65726f20616c6c6f77616e636560501b60648201526084016101f1565b6040516001600160a01b03831660248201526044810182905261068590849063095ea7b360e01b9060640161064e565b6040516335ea6a7560e01b81526001600160a01b0382811660048301526000918291829182917f000000000000000000000000000000000000000000000000000000000000000016906335ea6a75906024016101e060405180830381865afa1580156111a9573d6000803e3d6000fd5b505050506040513d601f19601f820116820180604052508101906111cd9190611c96565b610140810151610120820151610100909201519097919650945092505050565b6040516001600160a01b03808516602483015283166044820152606481018290526112259085906323b872dd60e01b9060840161064e565b50505050565b606061123a84846000856112f8565b90505b9392505050565b604080516001600160a01b038416602482015260448082018490528251808303909101815260649091019091526020810180516001600160e01b031663095ea7b360e01b1790526112958482611420565b61122557604080516001600160a01b038516602482015260006044808301919091528251808303909101815260649091019091526020810180516001600160e01b031663095ea7b360e01b1790526112ee90859061146f565b611225848261146f565b6060824710156113595760405162461bcd60e51b815260206004820152602660248201527f416464726573733a20696e73756666696369656e742062616c616e636520666f6044820152651c8818d85b1b60d21b60648201526084016101f1565b843b6113a75760405162461bcd60e51b815260206004820152601d60248201527f416464726573733a2063616c6c20746f206e6f6e2d636f6e747261637400000060448201526064016101f1565b600080866001600160a01b031685876040516113c39190611be6565b60006040518083038185875af1925050503d8060008114611400576040519150601f19603f3d011682016040523d82523d6000602084013e611405565b606091505b50915091506114158282866114e0565b979650505050505050565b6000806000806020600086516020880160008a5af192503d91506000519050828015611465575081156114565780600114611465565b6000866001600160a01b03163b115b9695505050505050565b600080602060008451602086016000885af180611492576040513d6000823e3d81fd5b50506000513d915081156114aa5780600114156114b7565b6001600160a01b0384163b155b1561122557604051635274afe760e01b81526001600160a01b03851660048201526024016101f1565b606083156114ef57508161123d565b8251156114ff5782518084602001fd5b8160405162461bcd60e51b81526004016101f19190611db9565b6001600160a01b038116811461028857600080fd5b60006020828403121561154057600080fd5b813561123d81611519565b60008083601f84011261155d57600080fd5b50813567ffffffffffffffff81111561157557600080fd5b6020830191508360208260051b850101111561159057600080fd5b9250929050565b80356115a281611519565b919050565b600080600080600080600080600060a08a8c0312156115c557600080fd5b893567ffffffffffffffff808211156115dd57600080fd5b6115e98d838e0161154b565b909b50995060208c013591508082111561160257600080fd5b61160e8d838e0161154b565b909950975060408c013591508082111561162757600080fd5b6116338d838e0161154b565b909750955060608c0135915061164882611519565b90935060808b0135908082111561165e57600080fd5b818c0191508c601f83011261167257600080fd5b81358181111561168157600080fd5b8d602082850101111561169357600080fd5b6020830194508093505050509295985092959850929598565b634e487b7160e01b600052604160045260246000fd5b60405160e0810167ffffffffffffffff811182821017156116e5576116e56116ac565b60405290565b6040516101e0810167ffffffffffffffff811182821017156116e5576116e56116ac565b801515811461028857600080fd5b80356115a28161170f565b600082601f83011261173957600080fd5b813567ffffffffffffffff80821115611754576117546116ac565b604051601f8301601f19908116603f0116810190828211818310171561177c5761177c6116ac565b8160405283815286602085880101111561179557600080fd5b836020870160208301376000602085830101528094505050505092915050565b600060c082840312156117c757600080fd5b60405160c0810181811067ffffffffffffffff821117156117ea576117ea6116ac565b60405290508082356117fb81611519565b808252506020830135602082015260408301356040820152606083013560ff8116811461182757600080fd5b806060830152506080830135608082015260a083013560a08201525092915050565b60008060e0838503121561185c57600080fd5b823567ffffffffffffffff8082111561187457600080fd5b9084019060e0828703121561188857600080fd5b6118906116c2565b61189983611597565b8152602083013560208201526118b160408401611597565b6040820152606083013560608201526118cc60808401611597565b60808201526118dd60a0840161171d565b60a082015260c0830135828111156118f457600080fd5b61190088828601611728565b60c08301525080945050505061191984602085016117b5565b90509250929050565b6020808252818101527f4f776e61626c653a2063616c6c6572206973206e6f7420746865206f776e6572604082015260600190565b60006020828403121561196957600080fd5b5051919050565b634e487b7160e01b600052603260045260246000fd5b634e487b7160e01b600052601160045260246000fd5b81810381811115610bf157610bf1611986565b80820180821115610bf157610bf1611986565b60005b838110156119dd5781810151838201526020016119c5565b50506000910152565b600081518084526119fe8160208601602086016119c2565b601f01601f19169290920160200192915050565b60e080825283516001600160a01b0390811683830152602085015161010084015260408501518116610120840152606085015161014084015260808501511661016083015260a0840151151561018083015260c08401516101a0830191909152600090611a836101c08401826119e6565b91505061123d602083018480516001600160a01b03168252602080820151908301526040808201519083015260608082015160ff16908301526080808201519083015260a090810151910152565b60008151808452602080850194506020840160005b83811015611b0257815187529582019590820190600101611ae6565b509495945050505050565b6001600160a01b03888116825260e0602080840182905289519184018290526000928a820192909190610100860190855b81811015611b5c578551851683529483019491830191600101611b3e565b50508581036040870152611b70818c611ad1565b93505050508281036060840152611b878188611ad1565b6001600160a01b0387166080850152905082810360a0840152611baa81866119e6565b915050611bbd60c083018461ffff169052565b98975050505050505050565b600060208284031215611bdb57600080fd5b815161123d8161170f565b60008251611bf88184602087016119c2565b9190910192915050565b600060208284031215611c1457600080fd5b6040516020810181811067ffffffffffffffff82111715611c3757611c376116ac565b6040529151825250919050565b80516fffffffffffffffffffffffffffffffff811681146115a257600080fd5b805164ffffffffff811681146115a257600080fd5b805161ffff811681146115a257600080fd5b80516115a281611519565b60006101e08284031215611ca957600080fd5b611cb16116eb565b611cbb8484611c02565b8152611cc960208401611c44565b6020820152611cda60408401611c44565b6040820152611ceb60608401611c44565b6060820152611cfc60808401611c44565b6080820152611d0d60a08401611c44565b60a0820152611d1e60c08401611c64565b60c0820152611d2f60e08401611c79565b60e0820152610100611d42818501611c8b565b90820152610120611d54848201611c8b565b90820152610140611d66848201611c8b565b90820152610160611d78848201611c8b565b90820152610180611d8a848201611c44565b908201526101a0611d9c848201611c44565b908201526101c0611dae848201611c44565b908201529392505050565b60208152600061123d60208301846119e656fea2646970667358221220b2781bd9386042085ca40e67b469d5124d4453bc46b6b0717270b8f2a60a4fff64736f6c634300081600338be0079c531659141344cd1fd0a4f28419497f9722a3daafe3b4186f6b6457e0",
  "devdoc": {
    "errors": {
      "CallerMustBePool(address,address)": [
        {
          "details": "Thrown when the caller is not the pool",
          "params": {
            "caller": "The actual caller",
            "pool": "The expected pool"
          }
        }
      ],
      "InitiatorMustBeThis(address,address)": [
        {
          "details": "Thrown when the initiator is not the expected initiator",
          "params": {
            "expectedInitiator": "The expected initiator",
            "initiator": "The actual initiator"
          }
        }
      ],
      "InsufficientBalanceBeforeSwap(uint256,uint256)": [
        {
          "details": "Thrown when the balance before swap is insufficient",
          "params": {
            "balance": "The actual balance",
            "required": "The required balance"
          }
        }
      ],
      "InsufficientOutputAmount(uint256,uint256)": [
        {
          "details": "Thrown when the output amount is less than the minimum expected",
          "params": {
            "actual": "The actual output amount",
            "expected": "The minimum expected output amount"
          }
        }
      ],
      "SafeERC20FailedOperation(address)": [
        {
          "details": "An operation with an ERC-20 token failed."
        }
      ]
    },
    "events": {
      "Bought(address,address,uint256,uint256)": {
        "details": "Emitted when a token is bought on Odos",
        "params": {
          "amountIn": "The amount of tokens sold",
          "amountOut": "The amount of tokens bought",
          "tokenIn": "The address of the token sold",
          "tokenOut": "The address of the token bought"
        }
      }
    },
    "kind": "dev",
    "methods": {
      "executeOperation(address[],uint256[],uint256[],address,bytes)": {
        "details": "Executes the collateral swap after receiving the flash-borrowed assetsWorkflow: 1. Sell flash-borrowed asset for new collateral asset 2. Supply new collateral asset 3. Pull aToken collateral from user and withdraw from Pool 4. Repay flashloan",
        "params": {
          "amounts": "The amounts of the flash-borrowed assets",
          "assets": "The addresses of the flash-borrowed assets",
          "initiator": "The address of the flashloan initiator",
          "params": "The byte-encoded params passed when initiating the flashloan",
          "premiums": "The premiums of the flash-borrowed assets"
        },
        "returns": {
          "_0": "True if the execution of the operation succeeds, false otherwise"
        }
      },
      "owner()": {
        "details": "Returns the address of the current owner."
      },
      "renounceOwnership()": {
        "details": "Leaves the contract without owner. It will not be possible to call `onlyOwner` functions anymore. Can only be called by the current owner. NOTE: Renouncing ownership will leave the contract without an owner, thereby removing any functionality that is only available to the owner."
      },
      "rescueTokens(address)": {
        "details": "Emergency rescue for token stucked on this contract, as failsafe mechanism - Funds should never remain in this contract more time than during transactions - Only callable by the owner"
      },
      "swapLiquidity((address,uint256,address,uint256,address,bool,bytes),(address,uint256,uint256,uint8,bytes32,bytes32))": {
        "params": {
          "collateralATokenPermit": "optional permit for collateral aToken",
          "liquiditySwapParams": "struct describing the liquidity swap"
        }
      },
      "transferOwnership(address)": {
        "details": "Transfers ownership of the contract to a new account (`newOwner`). Can only be called by the current owner."
      }
    },
    "title": "OdosLiquiditySwapAdapter",
    "version": 1
  },
  "userdoc": {
    "errors": {
      "InsufficientOutput(uint256,uint256)": [
        {
          "notice": "Custom error when actual output amount is less than expected"
        }
      ],
      "SwapFailed()": [
        {
          "notice": "Custom error for failed swap with no revert reason"
        }
      ]
    },
    "kind": "user",
    "methods": {
      "ADDRESSES_PROVIDER()": {
        "notice": "The address of the Aave PoolAddressesProvider contract"
      },
      "POOL()": {
        "notice": "The address of the Aave Pool contract"
      },
      "swapLiquidity((address,uint256,address,uint256,address,bool,bytes),(address,uint256,uint256,uint8,bytes32,bytes32))": {
        "notice": "Swaps liquidity(collateral) from one asset to another"
      },
      "swapRouter()": {
        "notice": "The address of the Odos Router"
      }
    },
    "notice": "Adapter to swap liquidity using Odos",
    "version": 1
  },
  "storageLayout": {
    "storage": [
      {
        "astId": 1563,
        "contract": "contracts/dlend/periphery/adapters/odos/OdosLiquiditySwapAdapter.sol:OdosLiquiditySwapAdapter",
        "label": "_owner",
        "offset": 0,
        "slot": "0",
        "type": "t_address"
      },
      {
        "astId": 5661,
        "contract": "contracts/dlend/periphery/adapters/odos/OdosLiquiditySwapAdapter.sol:OdosLiquiditySwapAdapter",
        "label": "_status",
        "offset": 0,
        "slot": "1",
        "type": "t_uint256"
      }
    ],
    "types": {
      "t_address": {
        "encoding": "inplace",
        "label": "address",
        "numberOfBytes": "20"
      },
      "t_uint256": {
        "encoding": "inplace",
        "label": "uint256",
        "numberOfBytes": "32"
      }
    }
  }
}