{
  "address": "0x1a19bf498C34d374569c35c0B0d1d1Ebb58257D1",
  "abi": [
    {
      "inputs": [
        {
          "internalType": "contract IPoolAddressesProvider",
          "name": "addressesProvider",
          "type": "address"
        },
        {
          "internalType": "address",
          "name": "pool",
          "type": "address"
        },
        {
          "internalType": "contract IOdosRouterV2",
          "name": "_swapRouter",
          "type": "address"
        },
        {
          "internalType": "address",
          "name": "_pendleRouter",
          "type": "address"
        },
        {
          "internalType": "address",
          "name": "owner",
          "type": "address"
        }
      ],
      "stateMutability": "nonpayable",
      "type": "constructor"
    },
    {
      "inputs": [
        {
          "internalType": "address",
          "name": "caller",
          "type": "address"
        },
        {
          "internalType": "address",
          "name": "pool",
          "type": "address"
        }
      ],
      "name": "CallerMustBePool",
      "type": "error"
    },
    {
      "inputs": [
        {
          "internalType": "uint256",
          "name": "estimated",
          "type": "uint256"
        },
        {
          "internalType": "uint256",
          "name": "maximum",
          "type": "uint256"
        }
      ],
      "name": "EstimatedAmountExceedsMaximum",
      "type": "error"
    },
    {
      "inputs": [
        {
          "internalType": "address",
          "name": "initiator",
          "type": "address"
        },
        {
          "internalType": "address",
          "name": "expectedInitiator",
          "type": "address"
        }
      ],
      "name": "InitiatorMustBeThis",
      "type": "error"
    },
    {
      "inputs": [
        {
          "internalType": "uint256",
          "name": "balance",
          "type": "uint256"
        },
        {
          "internalType": "uint256",
          "name": "required",
          "type": "uint256"
        }
      ],
      "name": "InsufficientBalanceBeforeSwap",
      "type": "error"
    },
    {
      "inputs": [
        {
          "internalType": "uint256",
          "name": "expected",
          "type": "uint256"
        },
        {
          "internalType": "uint256",
          "name": "actual",
          "type": "uint256"
        }
      ],
      "name": "InsufficientOutput",
      "type": "error"
    },
    {
      "inputs": [
        {
          "internalType": "uint256",
          "name": "expected",
          "type": "uint256"
        },
        {
          "internalType": "uint256",
          "name": "actual",
          "type": "uint256"
        }
      ],
      "name": "InsufficientOutputAfterComposedSwap",
      "type": "error"
    },
    {
      "inputs": [
        {
          "internalType": "uint256",
          "name": "actual",
          "type": "uint256"
        },
        {
          "internalType": "uint256",
          "name": "expected",
          "type": "uint256"
        }
      ],
      "name": "InsufficientOutputAmount",
      "type": "error"
    },
    {
      "inputs": [
        {
          "internalType": "uint256",
          "name": "expected",
          "type": "uint256"
        },
        {
          "internalType": "uint256",
          "name": "actual",
          "type": "uint256"
        }
      ],
      "name": "InsufficientPTSwapOutput",
      "type": "error"
    },
    {
      "inputs": [],
      "name": "InvalidPTSwapData",
      "type": "error"
    },
    {
      "inputs": [
        {
          "internalType": "address",
          "name": "token",
          "type": "address"
        }
      ],
      "name": "InvalidPTToken",
      "type": "error"
    },
    {
      "inputs": [],
      "name": "InvalidSwapData",
      "type": "error"
    },
    {
      "inputs": [],
      "name": "InvalidSwapData",
      "type": "error"
    },
    {
      "inputs": [
        {
          "internalType": "string",
          "name": "reason",
          "type": "string"
        }
      ],
      "name": "OdosSwapFailed",
      "type": "error"
    },
    {
      "inputs": [],
      "name": "PTApprovalFailed",
      "type": "error"
    },
    {
      "inputs": [
        {
          "internalType": "string",
          "name": "reason",
          "type": "string"
        }
      ],
      "name": "PendleSwapFailed",
      "type": "error"
    },
    {
      "inputs": [],
      "name": "PendleSwapFailed",
      "type": "error"
    },
    {
      "inputs": [
        {
          "internalType": "address",
          "name": "token",
          "type": "address"
        }
      ],
      "name": "SafeERC20FailedOperation",
      "type": "error"
    },
    {
      "inputs": [],
      "name": "SwapFailed",
      "type": "error"
    },
    {
      "anonymous": false,
      "inputs": [
        {
          "indexed": true,
          "internalType": "address",
          "name": "tokenIn",
          "type": "address"
        },
        {
          "indexed": true,
          "internalType": "address",
          "name": "tokenOut",
          "type": "address"
        },
        {
          "indexed": false,
          "internalType": "uint256",
          "name": "amountIn",
          "type": "uint256"
        },
        {
          "indexed": false,
          "internalType": "uint256",
          "name": "amountOut",
          "type": "uint256"
        }
      ],
      "name": "Bought",
      "type": "event"
    },
    {
      "anonymous": false,
      "inputs": [
        {
          "indexed": true,
          "internalType": "address",
          "name": "inputToken",
          "type": "address"
        },
        {
          "indexed": true,
          "internalType": "address",
          "name": "outputToken",
          "type": "address"
        },
        {
          "indexed": false,
          "internalType": "uint256",
          "name": "inputAmount",
          "type": "uint256"
        },
        {
          "indexed": false,
          "internalType": "uint256",
          "name": "finalOutputAmount",
          "type": "uint256"
        }
      ],
      "name": "ComposedSwapCompleted",
      "type": "event"
    },
    {
      "anonymous": false,
      "inputs": [
        {
          "indexed": true,
          "internalType": "address",
          "name": "inputToken",
          "type": "address"
        },
        {
          "indexed": true,
          "internalType": "address",
          "name": "outputToken",
          "type": "address"
        },
        {
          "indexed": false,
          "internalType": "uint256",
          "name": "inputAmount",
          "type": "uint256"
        },
        {
          "indexed": false,
          "internalType": "uint256",
          "name": "finalOutputAmount",
          "type": "uint256"
        }
      ],
      "name": "ComposedSwapExecuted",
      "type": "event"
    },
    {
      "anonymous": false,
      "inputs": [
        {
          "indexed": true,
          "internalType": "address",
          "name": "previousOwner",
          "type": "address"
        },
        {
          "indexed": true,
          "internalType": "address",
          "name": "newOwner",
          "type": "address"
        }
      ],
      "name": "OwnershipTransferred",
      "type": "event"
    },
    {
      "anonymous": false,
      "inputs": [
        {
          "indexed": true,
          "internalType": "address",
          "name": "ptToken",
          "type": "address"
        },
        {
          "indexed": true,
          "internalType": "address",
          "name": "underlyingAsset",
          "type": "address"
        },
        {
          "indexed": false,
          "internalType": "uint256",
          "name": "ptAmount",
          "type": "uint256"
        },
        {
          "indexed": false,
          "internalType": "uint256",
          "name": "underlyingAmount",
          "type": "uint256"
        }
      ],
      "name": "PTSwapExecuted",
      "type": "event"
    },
    {
      "anonymous": false,
      "inputs": [
        {
          "indexed": true,
          "internalType": "address",
          "name": "ptToken",
          "type": "address"
        },
        {
          "indexed": true,
          "internalType": "address",
          "name": "underlyingToken",
          "type": "address"
        },
        {
          "indexed": false,
          "internalType": "uint256",
          "name": "ptAmount",
          "type": "uint256"
        },
        {
          "indexed": false,
          "internalType": "uint256",
          "name": "underlyingReceived",
          "type": "uint256"
        }
      ],
      "name": "PTSwapExecuted",
      "type": "event"
    },
    {
      "anonymous": false,
      "inputs": [
        {
          "indexed": true,
          "internalType": "address",
          "name": "token",
          "type": "address"
        },
        {
          "indexed": true,
          "internalType": "address",
          "name": "sy",
          "type": "address"
        }
      ],
      "name": "PTTokenDetected",
      "type": "event"
    },
    {
      "inputs": [],
      "name": "ADDRESSES_PROVIDER",
      "outputs": [
        {
          "internalType": "contract IPoolAddressesProvider",
          "name": "",
          "type": "address"
        }
      ],
      "stateMutability": "view",
      "type": "function"
    },
    {
      "inputs": [],
      "name": "POOL",
      "outputs": [
        {
          "internalType": "contract IPool",
          "name": "",
          "type": "address"
        }
      ],
      "stateMutability": "view",
      "type": "function"
    },
    {
      "inputs": [],
      "name": "REFERRER",
      "outputs": [
        {
          "internalType": "uint16",
          "name": "",
          "type": "uint16"
        }
      ],
      "stateMutability": "view",
      "type": "function"
    },
    {
      "inputs": [
        {
          "internalType": "address[]",
          "name": "assets",
          "type": "address[]"
        },
        {
          "internalType": "uint256[]",
          "name": "amounts",
          "type": "uint256[]"
        },
        {
          "internalType": "uint256[]",
          "name": "premiums",
          "type": "uint256[]"
        },
        {
          "internalType": "address",
          "name": "initiator",
          "type": "address"
        },
        {
          "internalType": "bytes",
          "name": "params",
          "type": "bytes"
        }
      ],
      "name": "executeOperation",
      "outputs": [
        {
          "internalType": "bool",
          "name": "",
          "type": "bool"
        }
      ],
      "stateMutability": "nonpayable",
      "type": "function"
    },
    {
      "inputs": [],
      "name": "owner",
      "outputs": [
        {
          "internalType": "address",
          "name": "",
          "type": "address"
        }
      ],
      "stateMutability": "view",
      "type": "function"
    },
    {
      "inputs": [],
      "name": "pendleRouter",
      "outputs": [
        {
          "internalType": "address",
          "name": "",
          "type": "address"
        }
      ],
      "stateMutability": "view",
      "type": "function"
    },
    {
      "inputs": [],
      "name": "renounceOwnership",
      "outputs": [],
      "stateMutability": "nonpayable",
      "type": "function"
    },
    {
      "inputs": [
        {
          "internalType": "contract IERC20",
          "name": "token",
          "type": "address"
        }
      ],
      "name": "rescueTokens",
      "outputs": [],
      "stateMutability": "nonpayable",
      "type": "function"
    },
    {
      "inputs": [
        {
          "components": [
            {
              "internalType": "address",
              "name": "debtAsset",
              "type": "address"
            },
            {
              "internalType": "uint256",
              "name": "debtRepayAmount",
              "type": "uint256"
            },
            {
              "internalType": "uint256",
              "name": "debtRateMode",
              "type": "uint256"
            },
            {
              "internalType": "address",
              "name": "newDebtAsset",
              "type": "address"
            },
            {
              "internalType": "uint256",
              "name": "maxNewDebtAmount",
              "type": "uint256"
            },
            {
              "internalType": "address",
              "name": "extraCollateralAsset",
              "type": "address"
            },
            {
              "internalType": "uint256",
              "name": "extraCollateralAmount",
              "type": "uint256"
            },
            {
              "internalType": "bytes",
              "name": "swapData",
              "type": "bytes"
            },
            {
              "internalType": "uint256",
              "name": "allBalanceOffset",
              "type": "uint256"
            }
          ],
          "internalType": "struct IOdosDebtSwapAdapterV2.DebtSwapParamsV2",
          "name": "debtSwapParams",
          "type": "tuple"
        },
        {
          "components": [
            {
              "internalType": "address",
              "name": "debtToken",
              "type": "address"
            },
            {
              "internalType": "uint256",
              "name": "value",
              "type": "uint256"
            },
            {
              "internalType": "uint256",
              "name": "deadline",
              "type": "uint256"
            },
            {
              "internalType": "uint8",
              "name": "v",
              "type": "uint8"
            },
            {
              "internalType": "bytes32",
              "name": "r",
              "type": "bytes32"
            },
            {
              "internalType": "bytes32",
              "name": "s",
              "type": "bytes32"
            }
          ],
          "internalType": "struct IOdosDebtSwapAdapterV2.CreditDelegationInput",
          "name": "creditDelegationPermit",
          "type": "tuple"
        },
        {
          "components": [
            {
              "internalType": "contract IERC20WithPermit",
              "name": "aToken",
              "type": "address"
            },
            {
              "internalType": "uint256",
              "name": "value",
              "type": "uint256"
            },
            {
              "internalType": "uint256",
              "name": "deadline",
              "type": "uint256"
            },
            {
              "internalType": "uint8",
              "name": "v",
              "type": "uint8"
            },
            {
              "internalType": "bytes32",
              "name": "r",
              "type": "bytes32"
            },
            {
              "internalType": "bytes32",
              "name": "s",
              "type": "bytes32"
            }
          ],
          "internalType": "struct IBaseOdosAdapter.PermitInput",
          "name": "collateralATokenPermit",
          "type": "tuple"
        }
      ],
      "name": "swapDebt",
      "outputs": [],
      "stateMutability": "nonpayable",
      "type": "function"
    },
    {
      "inputs": [],
      "name": "swapRouter",
      "outputs": [
        {
          "internalType": "contract IOdosRouterV2",
          "name": "",
          "type": "address"
        }
      ],
      "stateMutability": "view",
      "type": "function"
    },
    {
      "inputs": [
        {
          "internalType": "address",
          "name": "newOwner",
          "type": "address"
        }
      ],
      "name": "transferOwnership",
      "outputs": [],
      "stateMutability": "nonpayable",
      "type": "function"
    }
  ],
  "transactionHash": "0x65dd3d430a956247141fcd514ca88692c88489128223b1bd86414dc235b93e78",
  "args": [
    "0x1f8d8a3575d049aA0C195AA947483738811bAdcb",
    "0xEdC3cfB1aa36c570cc1D374876268bDda2D460CC",
    "0xaC041Df48dF9791B0654f1Dbbf2CC8450C5f2e9D",
    "0x888888888889758F76e7103c6CbF23ABbF58F946",
    "0x51fc0830DBe3A446701E7897F32C89A3B04e5a0a"
  ],
  "numDeployments": 1,
  "solcInputHash": "d5a3e2d68ee25d1e3b411ab1ec368003",
  "bytecode": "0x6101006040523480156200001257600080fd5b5060405162003f5138038062003f5183398101604081905262000035916200066a565b848484848383838282600033600080546001600160a01b0319166001600160a01b03831690811782556040519293509160008051602062003f31833981519152908290a3506001600160a01b03918216608052811660a05290811660c0529290921660e05250506001805550620000b0915082905062000182565b600060a0516001600160a01b031663d1946dbc6040518163ffffffff1660e01b8152600401600060405180830381865afa158015620000f3573d6000803e3d6000fd5b505050506040513d6000823e601f3d908101601f191682016040526200011d919081019062000700565b905060005b815181101562000175576200016c60a0516000198484815181106200014b576200014b620007d2565b60200260200101516001600160a01b03166200029360201b9092919060201c565b60010162000122565b505050505050506200089f565b6000546001600160a01b03163314620001e25760405162461bcd60e51b815260206004820181905260248201527f4f776e61626c653a2063616c6c6572206973206e6f7420746865206f776e657260448201526064015b60405180910390fd5b6001600160a01b038116620002495760405162461bcd60e51b815260206004820152602660248201527f4f776e61626c653a206e6577206f776e657220697320746865207a65726f206160448201526564647265737360d01b6064820152608401620001d9565b600080546040516001600160a01b038085169392169160008051602062003f3183398151915291a3600080546001600160a01b0319166001600160a01b0392909216919091179055565b801580620003115750604051636eb1769f60e11b81523060048201526001600160a01b03838116602483015284169063dd62ed3e90604401602060405180830381865afa158015620002e9573d6000803e3d6000fd5b505050506040513d601f19601f820116820180604052508101906200030f9190620007e8565b155b620003855760405162461bcd60e51b815260206004820152603660248201527f5361666545524332303a20617070726f76652066726f6d206e6f6e2d7a65726f60448201527f20746f206e6f6e2d7a65726f20616c6c6f77616e6365000000000000000000006064820152608401620001d9565b604080516001600160a01b038416602482015260448082018490528251808303909101815260649091019091526020810180516001600160e01b0390811663095ea7b360e01b17909152620003dd918591620003e216565b505050565b6040805180820190915260208082527f5361666545524332303a206c6f772d6c6576656c2063616c6c206661696c65649082015260009062000431906001600160a01b038516908490620004b3565b805190915015620003dd578080602001905181019062000452919062000802565b620003dd5760405162461bcd60e51b815260206004820152602a60248201527f5361666545524332303a204552433230206f7065726174696f6e20646964206e6044820152691bdd081cdd58d8d9595960b21b6064820152608401620001d9565b6060620004c48484600085620004ce565b90505b9392505050565b606082471015620005315760405162461bcd60e51b815260206004820152602660248201527f416464726573733a20696e73756666696369656e742062616c616e636520666f6044820152651c8818d85b1b60d21b6064820152608401620001d9565b843b620005815760405162461bcd60e51b815260206004820152601d60248201527f416464726573733a2063616c6c20746f206e6f6e2d636f6e74726163740000006044820152606401620001d9565b600080866001600160a01b031685876040516200059f91906200084c565b60006040518083038185875af1925050503d8060008114620005de576040519150601f19603f3d011682016040523d82523d6000602084013e620005e3565b606091505b509092509050620005f682828662000601565b979650505050505050565b6060831562000612575081620004c7565b825115620006235782518084602001fd5b8160405162461bcd60e51b8152600401620001d991906200086a565b6001600160a01b03811681146200065557600080fd5b50565b805162000665816200063f565b919050565b600080600080600060a086880312156200068357600080fd5b855162000690816200063f565b6020870151909550620006a3816200063f565b6040870151909450620006b6816200063f565b6060870151909350620006c9816200063f565b6080870151909250620006dc816200063f565b809150509295509295909350565b634e487b7160e01b600052604160045260246000fd5b600060208083850312156200071457600080fd5b82516001600160401b03808211156200072c57600080fd5b818501915085601f8301126200074157600080fd5b815181811115620007565762000756620006ea565b8060051b604051601f19603f830116810181811085821117156200077e576200077e620006ea565b6040529182528482019250838101850191888311156200079d57600080fd5b938501935b82851015620007c657620007b68562000658565b84529385019392850192620007a2565b98975050505050505050565b634e487b7160e01b600052603260045260246000fd5b600060208284031215620007fb57600080fd5b5051919050565b6000602082840312156200081557600080fd5b81518015158114620004c757600080fd5b60005b838110156200084357818101518382015260200162000829565b50506000910152565b600082516200086081846020870162000826565b9190910192915050565b60208152600082518060208401526200088b81604085016020870162000826565b601f01601f19169190910160400192915050565b60805160a05160c05160e0516135d46200095d6000396000818161010b0152818161177c015281816117ed01526118550152600081816101c40152818161179d0152818161180e01528181611b190152611c2301526000818161014d0152818161070901528181610807015281816109c901528181610b5601528181610c0801528181610c7101528181610d2301528181610e1801528181610fca01528181611162015281816111f001526112800152600060c701526135d46000f3fe608060405234801561001057600080fd5b50600436106100a85760003560e01c80637535d246116100715780637535d246146101485780638da5cb5b1461016f578063920f5c8414610180578063c0560374146101a3578063c31c9c07146101bf578063f2fde38b146101e657600080fd5b8062ae3bf8146100ad5780630542975c146100c2578063206aeab3146101065780632d631f2f1461012d578063715018a614610140575b600080fd5b6100c06100bb3660046129df565b6101f9565b005b6100e97f000000000000000000000000000000000000000000000000000000000000000081565b6040516001600160a01b0390911681526020015b60405180910390f35b6100e97f000000000000000000000000000000000000000000000000000000000000000081565b6100c061013b366004612bf3565b6102bd565b6100c0610786565b6100e97f000000000000000000000000000000000000000000000000000000000000000081565b6000546001600160a01b03166100e9565b61019361018e366004612d79565b6107fa565b60405190151581526020016100fd565b6101ac61173181565b60405161ffff90911681526020016100fd565b6100e97f000000000000000000000000000000000000000000000000000000000000000081565b6100c06101f43660046129df565b610e50565b6000546001600160a01b0316331461022c5760405162461bcd60e51b815260040161022390612e94565b60405180910390fd5b6102ba6102416000546001600160a01b031690565b6040516370a0823160e01b81523060048201526001600160a01b038416906370a0823190602401602060405180830381865afa158015610285573d6000803e3d6000fd5b505050506040513d601f19601f820116820180604052508101906102a99190612ec9565b6001600160a01b0384169190610f3a565b50565b60608301516040516370a0823160e01b81523060048201526000916001600160a01b0316906370a0823190602401602060405180830381865afa158015610308573d6000803e3d6000fd5b505050506040513d601f19601f8201168201806040525081019061032c9190612ec9565b905082604001516000146103bd5782600001516001600160a01b0316630b52d558333086602001518760400151886060015189608001518a60a001516040518863ffffffff1660e01b815260040161038a9796959493929190612ee2565b600060405180830381600087803b1580156103a457600080fd5b505af11580156103b8573d6000803e3d6000fd5b505050505b6000806103cd8660000151610fa2565b50915091506000866040015160021461044d576040516370a0823160e01b81523360048201526001600160a01b038316906370a0823190602401602060405180830381865afa158015610424573d6000803e3d6000fd5b505050506040513d601f19601f820116820180604052508101906104489190612ec9565b6104b5565b6040516370a0823160e01b81523360048201526001600160a01b038416906370a0823190602401602060405180830381865afa158015610491573d6000803e3d6000fd5b505050506040513d601f19601f820116820180604052508101906104b59190612ec9565b905080876020015111156104cb57602087018190525b600060405180610100016040528089600001516001600160a01b03168152602001896020015181526020018960400151815260200160006001600160a01b0316815260200160008152602001336001600160a01b031681526020018960e001518152602001896101000151815250905060006001600160a01b03168860a001516001600160a01b03161461061d576040860151156105e65785600001516001600160a01b031663d505accf333089602001518a604001518b606001518c608001518d60a001516040518863ffffffff1660e01b81526004016105b39796959493929190612ee2565b600060405180830381600087803b1580156105cd57600080fd5b505af11580156105e1573d6000803e3d6000fd5b505050505b6060808901516001600160a01b0316908201526080808901519082015260a088015160c0890151610618918391611056565b610630565b6106308189606001518a60800151611056565b60608801516040516370a0823160e01b81523060048201526000916001600160a01b0316906370a0823190602401602060405180830381865afa15801561067b573d6000803e3d6000fd5b505050506040513d601f19601f8201168201806040525081019061069f9190612ec9565b905060008682116106b15760006106bb565b6106bb8783612f39565b9050801561077a576106d18a60600151826111d3565b60608a015160405163573ade8160e01b81526001600160a01b03918216600482015260248101839052600260448201523360648201527f00000000000000000000000000000000000000000000000000000000000000009091169063573ade81906084016020604051808303816000875af1158015610754573d6000803e3d6000fd5b505050506040513d601f19601f820116820180604052508101906107789190612ec9565b505b50505050505050505050565b6000546001600160a01b031633146107b05760405162461bcd60e51b815260040161022390612e94565b600080546040516001600160a01b03909116907f8be0079c531659141344cd1fd0a4f28419497f9722a3daafe3b4186f6b6457e0908390a3600080546001600160a01b0319169055565b6000336001600160a01b037f000000000000000000000000000000000000000000000000000000000000000016146108745760405162461bcd60e51b815260206004820152601760248201527f43616c6c6261636b206f6e6c792066726f6d20504f4f4c0000000000000000006044820152606401610223565b6001600160a01b03831630146108cc5760405162461bcd60e51b815260206004820152601c60248201527f496e69746961746f72206f6e6c79207468697320636f6e7472616374000000006044820152606401610223565b6000856000815181106108e1576108e1612f4c565b6020026020010151905060008760008151811061090057610900612f4c565b6020026020010151905060008660008151811061091f5761091f612f4c565b6020026020010151836109329190612f62565b905060008580602001905181019061094a9190612ff1565b60608101519091506001600160a01b031615610b8a57600061096b84610fa2565b925050506109978260a00151308460200151846001600160a01b03166112a7909392919063ffffffff16565b6020820151604051631a4ca37b60e21b81526001600160a01b03868116600483015260248201929092523060448201527f0000000000000000000000000000000000000000000000000000000000000000909116906369328dec906064016020604051808303816000875af1158015610a14573d6000803e3d6000fd5b505050506040513d601f19601f82011682018060405250810190610a389190612ec9565b50600060405180610100016040528084600001516001600160a01b03168152602001846020015181526020018460400151815260200160006001600160a01b03168152602001600081526020018460a001516001600160a01b031681526020018460c0015181526020018460e001518152509050610abf83606001518460800151836112e5565b6040516370a0823160e01b815230600482015284906001600160a01b038716906370a0823190602401602060405180830381865afa158015610b05573d6000803e3d6000fd5b505050506040513d601f19601f82011682018060405250810190610b299190612ec9565b1015610b475760405162461bcd60e51b8152600401610223906130bc565b610b7b6001600160a01b0386167f00000000000000000000000000000000000000000000000000000000000000008661138b565b60019650505050505050610e47565b6000610b9a8483600001516114a0565b90506000816003811115610bb057610bb0613102565b03610bd457610bce8483600001518785602001518660c0015161151c565b50610bef565b610bed8483600001518785602001518660c001516116df565b505b60208201518251610c2d916001600160a01b03909116907f00000000000000000000000000000000000000000000000000000000000000009061138b565b8151602083015160408085015160a0860151915163573ade8160e01b81526001600160a01b03948516600482015260248101939093526044830152821660648201527f00000000000000000000000000000000000000000000000000000000000000009091169063573ade81906084016020604051808303816000875af1158015610cbc573d6000803e3d6000fd5b505050506040513d601f19601f82011682018060405250810190610ce09190612ec9565b5060a082015160405163a415bcad60e01b81526001600160a01b0386811660048301526024820186905260026044830152611731606483015291821660848201527f00000000000000000000000000000000000000000000000000000000000000009091169063a415bcad9060a401600060405180830381600087803b158015610d6957600080fd5b505af1158015610d7d573d6000803e3d6000fd5b50506040516370a0823160e01b81523060048201528592506001600160a01b03871691506370a0823190602401602060405180830381865afa158015610dc7573d6000803e3d6000fd5b505050506040513d601f19601f82011682018060405250810190610deb9190612ec9565b1015610e095760405162461bcd60e51b8152600401610223906130bc565b610e3d6001600160a01b0385167f00000000000000000000000000000000000000000000000000000000000000008561138b565b6001955050505050505b95945050505050565b6000546001600160a01b03163314610e7a5760405162461bcd60e51b815260040161022390612e94565b6001600160a01b038116610edf5760405162461bcd60e51b815260206004820152602660248201527f4f776e61626c653a206e6577206f776e657220697320746865207a65726f206160448201526564647265737360d01b6064820152608401610223565b600080546040516001600160a01b03808516939216917f8be0079c531659141344cd1fd0a4f28419497f9722a3daafe3b4186f6b6457e091a3600080546001600160a01b0319166001600160a01b0392909216919091179055565b6040516001600160a01b038316602482015260448101829052610f9d90849063a9059cbb60e01b906064015b60408051601f198184030181529190526020810180516001600160e01b03166001600160e01b031990931692909217909152611893565b505050565b6040516335ea6a7560e01b81526001600160a01b0382811660048301526000918291829182917f000000000000000000000000000000000000000000000000000000000000000016906335ea6a75906024016101e060405180830381865afa158015611012573d6000803e3d6000fd5b505050506040513d601f19601f8201168201806040525081019061103691906131a0565b610140810151610120820151610100909201519097919650945092505050565b60008360405160200161106991906132ef565b60408051601f1981840301815260018084528383019092529250600091906020808301908036833701905050905083816000815181106110ab576110ab612f4c565b6001600160a01b03929092166020928302919091019091015260408051600180825281830190925260009181602001602082028036833701905050905083816000815181106110fc576110fc612f4c565b602090810291909101015260408051600180825281830190925260009181602001602082028036833701905050905060008160008151811061114057611140612f4c565b602090810291909101015260405163ab9c4b5d60e01b81526001600160a01b037f0000000000000000000000000000000000000000000000000000000000000000169063ab9c4b5d906111a590309087908790879084908c90611731906004016133b7565b600060405180830381600087803b1580156111bf57600080fd5b505af1158015610778573d6000803e3d6000fd5b604051636eb1769f60e11b81523060048201526001600160a01b037f0000000000000000000000000000000000000000000000000000000000000000811660248301526000919084169063dd62ed3e90604401602060405180830381865afa158015611243573d6000803e3d6000fd5b505050506040513d601f19601f820116820180604052508101906112679190612ec9565b905081811015610f9d57610f9d6001600160a01b0384167f000000000000000000000000000000000000000000000000000000000000000060001961138b565b6040516001600160a01b03808516602483015283166044820152606481018290526112df9085906323b872dd60e01b90608401610f66565b50505050565b6000816040516020016112f891906132ef565b60408051601f19818403018152600180845283830190925292506000919060208083019080368337019050509050848160008151811061133a5761133a612f4c565b6001600160a01b03929092166020928302919091019091015260408051600180825281830190925260009181602001602082028036833701905050905084816000815181106110fc576110fc612f4c565b8015806114055750604051636eb1769f60e11b81523060048201526001600160a01b03838116602483015284169063dd62ed3e90604401602060405180830381865afa1580156113df573d6000803e3d6000fd5b505050506040513d601f19601f820116820180604052508101906114039190612ec9565b155b6114705760405162461bcd60e51b815260206004820152603660248201527f5361666545524332303a20617070726f76652066726f6d206e6f6e2d7a65726f60448201527520746f206e6f6e2d7a65726f20616c6c6f77616e636560501b6064820152608401610223565b6040516001600160a01b038316602482015260448101829052610f9d90849063095ea7b360e01b90606401610f66565b6000806114ac84611965565b50905060006114ba84611965565b509050811580156114c9575080155b156114d957600092505050611516565b8180156114e4575080155b156114f457600192505050611516565b811580156114ff5750805b1561150f57600292505050611516565b6003925050505b92915050565b600085858261152b83836114a0565b9050600081600381111561154157611541613102565b0361155d576115538989898989611a76565b9350505050610e47565b6040516370a0823160e01b81523060048201526000906001600160a01b038b16906370a0823190602401602060405180830381865afa1580156115a4573d6000803e3d6000fd5b505050506040513d601f19601f820116820180604052508101906115c89190612ec9565b9050878110156115f55760405163b6554a4960e01b81526004810182905260248101899052604401610223565b600061160485858b8b8b6116df565b6040516370a0823160e01b81523060048201529091506001600160a01b038c16906370a0823190602401602060405180830381865afa15801561164b573d6000803e3d6000fd5b505050506040513d601f19601f8201168201806040525081019061166f9190612ec9565b6116799083612f39565b9550836001600160a01b0316856001600160a01b03167fbf77fd13a39d14dc0da779342c14105c38d9a5d0c60f2caa22f5fd1d5525416d88846040516116c9929190918252602082015260400190565b60405180910390a3505050505095945050505050565b6000806116ec87876114a0565b9050600081600381111561170257611702613102565b0361171c576117148787878787611c1c565b915050610e47565b6000838060200190518101906117329190613483565b905061173d81611c56565b61175a5760405163b204669b60e01b815260040160405180910390fd5b600182600381111561176e5761176e613102565b036117cb576117c2888888887f00000000000000000000000000000000000000000000000000000000000000007f000000000000000000000000000000000000000000000000000000000000000087611c87565b92505050610e47565b60028260038111156117df576117df613102565b03611833576117c2888888887f00000000000000000000000000000000000000000000000000000000000000007f000000000000000000000000000000000000000000000000000000000000000087611da0565b600382600381111561184757611847613102565b0361187a576117c2888888887f000000000000000000000000000000000000000000000000000000000000000086612024565b60405163b204669b60e01b815260040160405180910390fd5b60006118e8826040518060400160405280602081526020017f5361666545524332303a206c6f772d6c6576656c2063616c6c206661696c6564815250856001600160a01b03166122779092919063ffffffff16565b805190915015610f9d57808060200190518101906119069190613537565b610f9d5760405162461bcd60e51b815260206004820152602a60248201527f5361666545524332303a204552433230206f7065726174696f6e20646964206e6044820152691bdd081cdd58d8d9595960b21b6064820152608401610223565b60408051600481526024810182526020810180516001600160e01b031663afd27bf560e01b17905290516000918291829182916001600160a01b038716916119ac91613552565b600060405180830381855afa9150503d80600081146119e7576040519150601f19603f3d011682016040523d82523d6000602084013e6119ec565b606091505b50915091508180156119ff575080516020145b15611a6f5780806020019051810190611a18919061356e565b6001600160a01b0381161580159550909350611a6f57826001600160a01b0316856001600160a01b03167f1e5361486115d03329d5743ec247b6eae9b1d6af9aad63d1a1f05e84e20b432460405160405180910390a35b5050915091565b6040516370a0823160e01b815230600482015260009081906001600160a01b038816906370a0823190602401602060405180830381865afa158015611abf573d6000803e3d6000fd5b505050506040513d601f19601f82011682018060405250810190611ae39190612ec9565b905084811015611b105760405163b6554a4960e01b81526004810182905260248101869052604401610223565b86866000611b427f000000000000000000000000000000000000000000000000000000000000000084848b8b8b612290565b6040516370a0823160e01b81523060048201529091506001600160a01b038b16906370a0823190602401602060405180830381865afa158015611b89573d6000803e3d6000fd5b505050506040513d601f19601f82011682018060405250810190611bad9190612ec9565b611bb79085612f39565b9450816001600160a01b0316836001600160a01b03167fbf77fd13a39d14dc0da779342c14105c38d9a5d0c60f2caa22f5fd1d5525416d8784604051611c07929190918252602082015260400190565b60405180910390a35050505095945050505050565b6000611c4c7f00000000000000000000000000000000000000000000000000000000000000008787878787612290565b9695505050505050565b8051600090611c6a57506060015151151590565b816040015151600003611c7f57506000919050565b506001919050565b80516000901580611ca3575060208201516001600160a01b0316155b15611cc15760405163b204669b60e01b815260040160405180910390fd5b6000611cd889888560200151888760400151612458565b9050876001600160a01b031683602001516001600160a01b031603611cff57809150611d3e565b826060015151600003611d255760405163b204669b60e01b815260040160405180910390fd5b611d3b8484602001518a848a8860600151612290565b91505b876001600160a01b0316896001600160a01b03167f82494e43b53e197c30b1d5d35cf1c20c1e5d45885b1a8aa61f457a9dd5e7c3648985604051611d8c929190918252602082015260400190565b60405180910390a350979650505050505050565b80516000901580611dbc575060208201516001600160a01b0316155b15611dda5760405163b204669b60e01b815260040160405180910390fd5b600082602001516001600160a01b0316896001600160a01b031603611e00575085611e40565b826060015151600003611e265760405163b204669b60e01b815260040160405180910390fd5b611e3d848a85602001518a60008860600151612290565b90505b6040516370a0823160e01b81523060048201526000906001600160a01b038a16906370a0823190602401602060405180830381865afa158015611e87573d6000803e3d6000fd5b505050506040513d601f19601f82011682018060405250810190611eab9190612ec9565b9050611ec18460200151838887604001516125ae565b506040516370a0823160e01b81523060048201526000906001600160a01b038b16906370a0823190602401602060405180830381865afa158015611f09573d6000803e3d6000fd5b505050506040513d601f19601f82011682018060405250810190611f2d9190612ec9565b9050611f398282612f39565b935087841015611f665760405163223b57c760e21b81526004810189905260248101859052604401610223565b896001600160a01b031685602001516001600160a01b03167f27039ac08bcb6070578fc805ffca75715bb586e39696d42a16aaa308c1248eb78587604051611fb8929190918252602082015260400190565b60405180910390a3896001600160a01b03168b6001600160a01b03167f82494e43b53e197c30b1d5d35cf1c20c1e5d45885b1a8aa61f457a9dd5e7c3648b8760405161200e929190918252602082015260400190565b60405180910390a3505050979650505050505050565b60008061203088611965565b509050600061203e88611965565b50905081158061204c575080155b15612075576040516303c4074b60e21b81526001600160a01b038a166004820152602401610223565b83604001515160000361209b5760405163b204669b60e01b815260040160405180910390fd5b6040516370a0823160e01b81523060048201526000906001600160a01b038a16906370a0823190602401602060405180830381865afa1580156120e2573d6000803e3d6000fd5b505050506040513d601f19601f820116820180604052508101906121069190612ec9565b90506121188a898888604001516125ae565b506040516370a0823160e01b81523060048201526000906001600160a01b038b16906370a0823190602401602060405180830381865afa158015612160573d6000803e3d6000fd5b505050506040513d601f19601f820116820180604052508101906121849190612ec9565b90506121908282612f39565b9450878510156121bd5760405163223b57c760e21b81526004810189905260248101869052604401610223565b896001600160a01b03168b6001600160a01b03167f27039ac08bcb6070578fc805ffca75715bb586e39696d42a16aaa308c1248eb78b8860405161220b929190918252602082015260400190565b60405180910390a3896001600160a01b03168b6001600160a01b03167f82494e43b53e197c30b1d5d35cf1c20c1e5d45885b1a8aa61f457a9dd5e7c3648b88604051612261929190918252602082015260400190565b60405180910390a3505050509695505050505050565b606061228684846000856126fa565b90505b9392505050565b6040516370a0823160e01b815230600482015260009081906001600160a01b038716906370a0823190602401602060405180830381865afa1580156122d9573d6000803e3d6000fd5b505050506040513d601f19601f820116820180604052508101906122fd9190612ec9565b90506123136001600160a01b0388168987612822565b600080896001600160a01b03168560405161232e9190613552565b6000604051808303816000865af19150503d806000811461236b576040519150601f19603f3d011682016040523d82523d6000602084013e612370565b606091505b5091509150816123a35780511561238a5780518082602001fd5b60405163081ceff360e41b815260040160405180910390fd5b6040516370a0823160e01b81523060048201526000906001600160a01b038a16906370a0823190602401602060405180830381865afa1580156123ea573d6000803e3d6000fd5b505050506040513d601f19601f8201168201806040525081019061240e9190612ec9565b9050600061241c8583612f39565b90508781101561244957604051630583371760e31b81526004810189905260248101829052604401610223565b9b9a5050505050505050505050565b6040516370a0823160e01b815230600482015260009081906001600160a01b038616906370a0823190602401602060405180830381865afa1580156124a1573d6000803e3d6000fd5b505050506040513d601f19601f820116820180604052508101906124c59190612ec9565b90506124d3878786866125ae565b506040516370a0823160e01b81523060048201526000906001600160a01b038716906370a0823190602401602060405180830381865afa15801561251b573d6000803e3d6000fd5b505050506040513d601f19601f8201168201806040525081019061253f9190612ec9565b905061254b8282612f39565b9250856001600160a01b0316886001600160a01b03167f27039ac08bcb6070578fc805ffca75715bb586e39696d42a16aaa308c1248eb7898660405161259b929190918252602082015260400190565b60405180910390a3505095945050505050565b60006125c46001600160a01b0386168486612822565b604051636eb1769f60e11b81523060048201526001600160a01b0384811660248301526000919087169063dd62ed3e90604401602060405180830381865afa158015612614573d6000803e3d6000fd5b505050506040513d601f19601f820116820180604052508101906126389190612ec9565b90508481101561265b5760405163a7ed3d5f60e01b815260040160405180910390fd5b600080856001600160a01b0316856040516126769190613552565b6000604051808303816000865af19150503d80600081146126b3576040519150601f19603f3d011682016040523d82523d6000602084013e6126b8565b606091505b5091509150816126eb578051156126d25780518082602001fd5b604051630fe7fe8560e01b815260040160405180910390fd5b60200151979650505050505050565b60608247101561275b5760405162461bcd60e51b815260206004820152602660248201527f416464726573733a20696e73756666696369656e742062616c616e636520666f6044820152651c8818d85b1b60d21b6064820152608401610223565b843b6127a95760405162461bcd60e51b815260206004820152601d60248201527f416464726573733a2063616c6c20746f206e6f6e2d636f6e74726163740000006044820152606401610223565b600080866001600160a01b031685876040516127c59190613552565b60006040518083038185875af1925050503d8060008114612802576040519150601f19603f3d011682016040523d82523d6000602084013e612807565b606091505b50915091506128178282866128d6565b979650505050505050565b604080516001600160a01b038416602482015260448082018490528251808303909101815260649091019091526020810180516001600160e01b031663095ea7b360e01b179052612873848261290f565b6112df57604080516001600160a01b038516602482015260006044808301919091528251808303909101815260649091019091526020810180516001600160e01b031663095ea7b360e01b1790526128cc908590612959565b6112df8482612959565b606083156128e5575081612289565b8251156128f55782518084602001fd5b8160405162461bcd60e51b8152600401610223919061358b565b6000806000806020600086516020880160008a5af192503d91506000519050828015611c4c575081156129455780600114611c4c565b50505050506001600160a01b03163b151590565b600080602060008451602086016000885af18061297c576040513d6000823e3d81fd5b50506000513d915081156129945780600114156129a1565b6001600160a01b0384163b155b156112df57604051635274afe760e01b81526001600160a01b0385166004820152602401610223565b6001600160a01b03811681146102ba57600080fd5b6000602082840312156129f157600080fd5b8135612289816129ca565b634e487b7160e01b600052604160045260246000fd5b60405161012081016001600160401b0381118282101715612a3557612a356129fc565b60405290565b60405161010081016001600160401b0381118282101715612a3557612a356129fc565b6040516101e081016001600160401b0381118282101715612a3557612a356129fc565b604051608081016001600160401b0381118282101715612a3557612a356129fc565b604051601f8201601f191681016001600160401b0381118282101715612acb57612acb6129fc565b604052919050565b8035612ade816129ca565b919050565b60006001600160401b03821115612afc57612afc6129fc565b50601f01601f191660200190565b600082601f830112612b1b57600080fd5b8135612b2e612b2982612ae3565b612aa3565b818152846020838601011115612b4357600080fd5b816020850160208301376000918101602001919091529392505050565b600060c08284031215612b7257600080fd5b60405160c081018181106001600160401b0382111715612b9457612b946129fc565b6040529050808235612ba5816129ca565b808252506020830135602082015260408301356040820152606083013560ff81168114612bd157600080fd5b806060830152506080830135608082015260a083013560a08201525092915050565b60008060006101a08486031215612c0957600080fd5b83356001600160401b0380821115612c2057600080fd5b908501906101208288031215612c3557600080fd5b612c3d612a12565b612c4683612ad3565b81526020830135602082015260408301356040820152612c6860608401612ad3565b606082015260808301356080820152612c8360a08401612ad3565b60a082015260c083013560c082015260e083013582811115612ca457600080fd5b612cb089828601612b0a565b60e0830152506101009283013592810192909252509250612cd48560208601612b60565b9150612ce38560e08601612b60565b90509250925092565b60006001600160401b03821115612d0557612d056129fc565b5060051b60200190565b600082601f830112612d2057600080fd5b81356020612d30612b2983612cec565b8083825260208201915060208460051b870101935086841115612d5257600080fd5b602086015b84811015612d6e5780358352918301918301612d57565b509695505050505050565b600080600080600060a08688031215612d9157600080fd5b85356001600160401b0380821115612da857600080fd5b818801915088601f830112612dbc57600080fd5b81356020612dcc612b2983612cec565b82815260059290921b8401810191818101908c841115612deb57600080fd5b948201945b83861015612e12578535612e03816129ca565b82529482019490820190612df0565b99505089013592505080821115612e2857600080fd5b612e3489838a01612d0f565b95506040880135915080821115612e4a57600080fd5b612e5689838a01612d0f565b9450612e6460608901612ad3565b93506080880135915080821115612e7a57600080fd5b50612e8788828901612b0a565b9150509295509295909350565b6020808252818101527f4f776e61626c653a2063616c6c6572206973206e6f7420746865206f776e6572604082015260600190565b600060208284031215612edb57600080fd5b5051919050565b6001600160a01b0397881681529590961660208601526040850193909352606084019190915260ff16608083015260a082015260c081019190915260e00190565b634e487b7160e01b600052601160045260246000fd5b8181038181111561151657611516612f23565b634e487b7160e01b600052603260045260246000fd5b8082018082111561151657611516612f23565b8051612ade816129ca565b60005b83811015612f9b578181015183820152602001612f83565b50506000910152565b600082601f830112612fb557600080fd5b8151612fc3612b2982612ae3565b818152846020838601011115612fd857600080fd5b612fe9826020830160208701612f80565b949350505050565b60006020828403121561300357600080fd5b81516001600160401b038082111561301a57600080fd5b90830190610100828603121561302f57600080fd5b613037612a3b565b61304083612f75565b8152602083015160208201526040830151604082015261306260608401612f75565b60608201526080830151608082015261307d60a08401612f75565b60a082015260c08301518281111561309457600080fd5b6130a087828601612fa4565b60c08301525060e083015160e082015280935050505092915050565b60208082526026908201527f496e73756666696369656e7420616d6f756e7420746f20726570617920666c6160408201526539b43637b0b760d11b606082015260800190565b634e487b7160e01b600052602160045260246000fd5b60006020828403121561312a57600080fd5b604051602081018181106001600160401b038211171561314c5761314c6129fc565b6040529151825250919050565b80516fffffffffffffffffffffffffffffffff81168114612ade57600080fd5b805164ffffffffff81168114612ade57600080fd5b805161ffff81168114612ade57600080fd5b60006101e082840312156131b357600080fd5b6131bb612a5e565b6131c58484613118565b81526131d360208401613159565b60208201526131e460408401613159565b60408201526131f560608401613159565b606082015261320660808401613159565b608082015261321760a08401613159565b60a082015261322860c08401613179565b60c082015261323960e0840161318e565b60e082015261010061324c818501612f75565b9082015261012061325e848201612f75565b90820152610140613270848201612f75565b90820152610160613282848201612f75565b90820152610180613294848201613159565b908201526101a06132a6848201613159565b908201526101c06132b8848201613159565b908201529392505050565b600081518084526132db816020860160208601612f80565b601f01601f19169290920160200192915050565b60208152600060018060a01b03808451166020840152602084015160408401526040840151606084015280606085015116608084015250608083015160a083015260a083015161334a60c08401826001600160a01b03169052565b5060c08301516101008060e08501526133676101208501836132c3565b60e095909501519301929092525090919050565b60008151808452602080850194506020840160005b838110156133ac57815187529582019590820190600101613390565b509495945050505050565b6001600160a01b03888116825260e0602080840182905289519184018290526000928a820192909190610100860190855b818110156134065785518516835294830194918301916001016133e8565b5050858103604087015261341a818c61337b565b93505050508281036060840152613431818861337b565b6001600160a01b0387166080850152905082810360a084015261345481866132c3565b91505061346760c083018461ffff169052565b98975050505050505050565b80518015158114612ade57600080fd5b60006020828403121561349557600080fd5b81516001600160401b03808211156134ac57600080fd5b90830190608082860312156134c057600080fd5b6134c8612a81565b6134d183613473565b815260208301516134e1816129ca565b60208201526040830151828111156134f857600080fd5b61350487828601612fa4565b60408301525060608301518281111561351c57600080fd5b61352887828601612fa4565b60608301525095945050505050565b60006020828403121561354957600080fd5b61228982613473565b60008251613564818460208701612f80565b9190910192915050565b60006020828403121561358057600080fd5b8151612289816129ca565b60208152600061228960208301846132c356fea26469706673582212203983a4d304906a14b00aa734375cf32b17ddc044aba79f67e0cbdc6918a143a264736f6c634300081600338be0079c531659141344cd1fd0a4f28419497f9722a3daafe3b4186f6b6457e0",
  "devdoc": {
    "details": "Supports regular tokens and PT tokens through composed Pendle + Odos swaps",
    "errors": {
      "CallerMustBePool(address,address)": [
        {
          "details": "Thrown when the caller is not the pool",
          "params": {
            "caller": "The actual caller",
            "pool": "The expected pool"
          }
        }
      ],
      "InitiatorMustBeThis(address,address)": [
        {
          "details": "Thrown when the initiator is not the expected initiator",
          "params": {
            "expectedInitiator": "The expected initiator",
            "initiator": "The actual initiator"
          }
        }
      ],
      "InsufficientBalanceBeforeSwap(uint256,uint256)": [
        {
          "details": "Thrown when the balance before swap is insufficient",
          "params": {
            "balance": "The actual balance",
            "required": "The required balance"
          }
        }
      ],
      "InsufficientOutputAfterComposedSwap(uint256,uint256)": [
        {
          "details": "Thrown when insufficient output is received after composed swap",
          "params": {
            "actual": "The actual amount received",
            "expected": "The expected amount"
          }
        }
      ],
      "InsufficientOutputAmount(uint256,uint256)": [
        {
          "details": "Thrown when the output amount is less than the minimum expected",
          "params": {
            "actual": "The actual output amount",
            "expected": "The minimum expected output amount"
          }
        }
      ],
      "InvalidPTSwapData()": [
        {
          "details": "Thrown when PT swap data is invalid"
        }
      ],
      "OdosSwapFailed(string)": [
        {
          "details": "Thrown when Odos swap fails",
          "params": {
            "reason": "The failure reason"
          }
        }
      ],
      "PendleSwapFailed(string)": [
        {
          "details": "Thrown when Pendle swap fails",
          "params": {
            "reason": "The failure reason"
          }
        }
      ],
      "SafeERC20FailedOperation(address)": [
        {
          "details": "An operation with an ERC-20 token failed."
        }
      ]
    },
    "events": {
      "Bought(address,address,uint256,uint256)": {
        "details": "Emitted when a token is bought on Odos",
        "params": {
          "amountIn": "The amount of tokens sold",
          "amountOut": "The amount of tokens bought",
          "tokenIn": "The address of the token sold",
          "tokenOut": "The address of the token bought"
        }
      },
      "ComposedSwapExecuted(address,address,uint256,uint256)": {
        "details": "Emitted when a composed PT+Odos swap is executed",
        "params": {
          "finalOutputAmount": "The final amount of output tokens received",
          "inputAmount": "The amount of input tokens",
          "inputToken": "The input token address",
          "outputToken": "The final output token address"
        }
      },
      "PTSwapExecuted(address,address,uint256,uint256)": {
        "details": "Emitted when a PT swap is executed",
        "params": {
          "ptAmount": "The amount of PT tokens swapped",
          "ptToken": "The PT token address",
          "underlyingReceived": "The amount of underlying tokens received",
          "underlyingToken": "The underlying token address"
        }
      }
    },
    "kind": "dev",
    "methods": {
      "executeOperation(address[],uint256[],uint256[],address,bytes)": {
        "details": "Ensure that the contract can return the debt + premium, e.g., has      enough funds to repay and has approved the Pool to pull the total amount",
        "params": {
          "amounts": "The amounts of the flash-borrowed assets",
          "assets": "The addresses of the flash-borrowed assets",
          "initiator": "The address of the flashloan initiator",
          "params": "The byte-encoded params passed when initiating the flashloan",
          "premiums": "The fee of each flash-borrowed asset"
        },
        "returns": {
          "_0": "True if the execution of the operation succeeds, false otherwise"
        }
      },
      "owner()": {
        "details": "Returns the address of the current owner."
      },
      "renounceOwnership()": {
        "details": "Leaves the contract without owner. It will not be possible to call `onlyOwner` functions anymore. Can only be called by the current owner. NOTE: Renouncing ownership will leave the contract without an owner, thereby removing any functionality that is only available to the owner."
      },
      "rescueTokens(address)": {
        "details": "Emergency rescue for token stucked on this contract, as failsafe mechanism - Funds should never remain in this contract more time than during transactions - Only callable by the owner"
      },
      "swapDebt((address,uint256,uint256,address,uint256,address,uint256,bytes,uint256),(address,uint256,uint256,uint8,bytes32,bytes32),(address,uint256,uint256,uint8,bytes32,bytes32))": {
        "details": "Swaps one type of debt to another with PT token support",
        "params": {
          "collateralATokenPermit": "optional permit for collateral aToken",
          "creditDelegationPermit": "optional permit for credit delegation",
          "debtSwapParams": "the enhanced parameters describing the swap"
        }
      },
      "transferOwnership(address)": {
        "details": "Transfers ownership of the contract to a new account (`newOwner`). Can only be called by the current owner."
      }
    },
    "title": "OdosDebtSwapAdapterV2",
    "version": 1
  },
  "userdoc": {
    "errors": {
      "InsufficientOutput(uint256,uint256)": [
        {
          "notice": "Custom error when actual output amount is less than expected"
        }
      ],
      "InvalidSwapData()": [
        {
          "notice": "Error for invalid swap data"
        }
      ],
      "PTApprovalFailed()": [
        {
          "notice": "Custom error when PT token approval fails"
        }
      ],
      "PendleSwapFailed()": [
        {
          "notice": "Custom error for failed Pendle swap with no revert reason"
        }
      ],
      "SwapFailed()": [
        {
          "notice": "Custom error for failed swap with no revert reason"
        }
      ]
    },
    "kind": "user",
    "methods": {
      "ADDRESSES_PROVIDER()": {
        "notice": "The address of the Aave PoolAddressesProvider contract"
      },
      "POOL()": {
        "notice": "The address of the Aave Pool contract"
      },
      "executeOperation(address[],uint256[],uint256[],address,bytes)": {
        "notice": "Executes an operation after receiving the flash-borrowed assets"
      },
      "pendleRouter()": {
        "notice": "The address of the Pendle Router"
      },
      "swapRouter()": {
        "notice": "The address of the Odos Router"
      }
    },
    "notice": "Odos Adapter to perform a swap of debt to another debt with PT token support",
    "version": 1
  },
  "storageLayout": {
    "storage": [
      {
        "astId": 1798,
        "contract": "contracts/dlend/periphery/adapters/odos/OdosDebtSwapAdapterV2.sol:OdosDebtSwapAdapterV2",
        "label": "_owner",
        "offset": 0,
        "slot": "0",
        "type": "t_address"
      },
      {
        "astId": 8073,
        "contract": "contracts/dlend/periphery/adapters/odos/OdosDebtSwapAdapterV2.sol:OdosDebtSwapAdapterV2",
        "label": "_status",
        "offset": 0,
        "slot": "1",
        "type": "t_uint256"
      }
    ],
    "types": {
      "t_address": {
        "encoding": "inplace",
        "label": "address",
        "numberOfBytes": "20"
      },
      "t_uint256": {
        "encoding": "inplace",
        "label": "uint256",
        "numberOfBytes": "32"
      }
    }
  }
}