{
  "address": "0x9bdb500000Fd79f7592E01C759facba0F8ada973",
  "abi": [
    {
      "inputs": [
        {
          "internalType": "address",
          "name": "_pyLpOracle",
          "type": "address"
        }
      ],
      "stateMutability": "nonpayable",
      "type": "constructor"
    },
    {
      "inputs": [],
      "name": "OracleAlreadyExists",
      "type": "error"
    },
    {
      "inputs": [
        {
          "internalType": "uint32",
          "name": "cardinalityRequired",
          "type": "uint32"
        }
      ],
      "name": "OracleIncreaseCardinalityRequired",
      "type": "error"
    },
    {
      "inputs": [],
      "name": "OracleOldestObservationNotSatisfied",
      "type": "error"
    },
    {
      "anonymous": false,
      "inputs": [
        {
          "indexed": true,
          "internalType": "address",
          "name": "market",
          "type": "address"
        },
        {
          "indexed": true,
          "internalType": "uint32",
          "name": "twapDuration",
          "type": "uint32"
        },
        {
          "indexed": true,
          "internalType": "enum PendleOracleType",
          "name": "baseOracleType",
          "type": "uint8"
        },
        {
          "indexed": false,
          "internalType": "address",
          "name": "oracle",
          "type": "address"
        },
        {
          "indexed": false,
          "internalType": "bytes32",
          "name": "oracleId",
          "type": "bytes32"
        }
      ],
      "name": "OracleCreated",
      "type": "event"
    },
    {
      "anonymous": false,
      "inputs": [
        {
          "indexed": true,
          "internalType": "address",
          "name": "market",
          "type": "address"
        },
        {
          "indexed": true,
          "internalType": "uint32",
          "name": "twapDuration",
          "type": "uint32"
        },
        {
          "indexed": true,
          "internalType": "enum PendleOracleType",
          "name": "baseOracleType",
          "type": "uint8"
        },
        {
          "indexed": false,
          "internalType": "address",
          "name": "quoteOracle",
          "type": "address"
        },
        {
          "indexed": false,
          "internalType": "address",
          "name": "oracle",
          "type": "address"
        },
        {
          "indexed": false,
          "internalType": "bytes32",
          "name": "oracleId",
          "type": "bytes32"
        }
      ],
      "name": "OracleWithQuoteCreated",
      "type": "event"
    },
    {
      "inputs": [
        {
          "internalType": "address",
          "name": "market",
          "type": "address"
        },
        {
          "internalType": "uint32",
          "name": "twapDuration",
          "type": "uint32"
        }
      ],
      "name": "checkMarketOracleState",
      "outputs": [],
      "stateMutability": "view",
      "type": "function"
    },
    {
      "inputs": [
        {
          "internalType": "address",
          "name": "market",
          "type": "address"
        },
        {
          "internalType": "uint32",
          "name": "twapDuration",
          "type": "uint32"
        },
        {
          "internalType": "enum PendleOracleType",
          "name": "baseOracleType",
          "type": "uint8"
        }
      ],
      "name": "createOracle",
      "outputs": [
        {
          "internalType": "address",
          "name": "oracle",
          "type": "address"
        }
      ],
      "stateMutability": "nonpayable",
      "type": "function"
    },
    {
      "inputs": [
        {
          "internalType": "address",
          "name": "market",
          "type": "address"
        },
        {
          "internalType": "uint32",
          "name": "twapDuration",
          "type": "uint32"
        },
        {
          "internalType": "enum PendleOracleType",
          "name": "baseOracleType",
          "type": "uint8"
        },
        {
          "internalType": "address",
          "name": "quoteOracle",
          "type": "address"
        }
      ],
      "name": "createOracleWithQuote",
      "outputs": [
        {
          "internalType": "address",
          "name": "oracle",
          "type": "address"
        }
      ],
      "stateMutability": "nonpayable",
      "type": "function"
    },
    {
      "inputs": [
        {
          "internalType": "address",
          "name": "market",
          "type": "address"
        },
        {
          "internalType": "uint32",
          "name": "twapDuration",
          "type": "uint32"
        },
        {
          "internalType": "enum PendleOracleType",
          "name": "baseOracleType",
          "type": "uint8"
        }
      ],
      "name": "getOracle",
      "outputs": [
        {
          "internalType": "address",
          "name": "",
          "type": "address"
        }
      ],
      "stateMutability": "view",
      "type": "function"
    },
    {
      "inputs": [
        {
          "internalType": "address",
          "name": "market",
          "type": "address"
        },
        {
          "internalType": "uint32",
          "name": "twapDuration",
          "type": "uint32"
        },
        {
          "internalType": "enum PendleOracleType",
          "name": "baseOracleType",
          "type": "uint8"
        }
      ],
      "name": "getOracleId",
      "outputs": [
        {
          "internalType": "bytes32",
          "name": "",
          "type": "bytes32"
        }
      ],
      "stateMutability": "pure",
      "type": "function"
    },
    {
      "inputs": [
        {
          "internalType": "address",
          "name": "market",
          "type": "address"
        },
        {
          "internalType": "uint32",
          "name": "twapDuration",
          "type": "uint32"
        },
        {
          "internalType": "enum PendleOracleType",
          "name": "baseOracleType",
          "type": "uint8"
        },
        {
          "internalType": "address",
          "name": "quoteOracle",
          "type": "address"
        }
      ],
      "name": "getOracleWithQuote",
      "outputs": [
        {
          "internalType": "address",
          "name": "",
          "type": "address"
        }
      ],
      "stateMutability": "view",
      "type": "function"
    },
    {
      "inputs": [
        {
          "internalType": "address",
          "name": "market",
          "type": "address"
        },
        {
          "internalType": "uint32",
          "name": "twapDuration",
          "type": "uint32"
        },
        {
          "internalType": "enum PendleOracleType",
          "name": "baseOracleType",
          "type": "uint8"
        },
        {
          "internalType": "address",
          "name": "quoteOracle",
          "type": "address"
        }
      ],
      "name": "getOracleWithQuoteId",
      "outputs": [
        {
          "internalType": "bytes32",
          "name": "",
          "type": "bytes32"
        }
      ],
      "stateMutability": "pure",
      "type": "function"
    },
    {
      "inputs": [],
      "name": "pyLpOracle",
      "outputs": [
        {
          "internalType": "address",
          "name": "",
          "type": "address"
        }
      ],
      "stateMutability": "view",
      "type": "function"
    }
  ],
  "transactionHash": "0x636730b55dff64e3553b162ec74fcdb99ec4faa16cc613db2c1607a72c9cbc20",
  "args": [
    "0x9a9Fa8338dd5E5B2188006f1Cd2Ef26d921650C2"
  ],
  "numDeployments": 1,
  "solcInputHash": "77e30285bb7d67ac93581c6b2c933dde",
  "bytecode": "0x60a03461007157601f61482238819003918201601f19168301916001600160401b038311848410176100765780849260209460405283398101031261007157516001600160a01b038116810361007157608052604051614795908161008d823960805181818161013501526106410152f35b600080fd5b634e487b7160e01b600052604160045260246000fdfe604060808152600490813610156200001657600080fd5b600091823560e01c9081630b5af9f8146200030d5781631bdfe05314620002c45781632d9a4a9d14620002aa578163451d27b81462000164575080638ca06ea6146200011f578063ca6ec89a14620000e5578063e233c36614620000b15763e54f48df146200008457600080fd5b34620000ad57602090620000a66200009c3662000490565b92919091620005e1565b9051908152f35b5080fd5b5034620000ad57602091620000ca6200009c3662000490565b8152600183528190205490516001600160a01b039091168152f35b5034620000ad5760209162000105620000fe3662000447565b91620005af565b81528083528190205490516001600160a01b039091168152f35b5034620000ad5781600319360112620000ad57517f00000000000000000000000000000000000000000000000000000000000000006001600160a01b03168152602090f35b838334620000ad57620001773662000490565b9092916200018882858386620005e1565b8087526001602052858720546001600160a01b0392919083166200029a57620001b282866200060c565b86516120d18082019082821067ffffffffffffffff83111762000287578689868a8695620001e6956200268f88396200053a565b039089f080156200027d578316978181526001602052878120896bffffffffffffffffffffffff60a01b825416179055898710156200026a5750602098509163ffffffff6060927f0c00ff77242aa7973d8bb5cb73ecc1733bf615b0aaf967a50c2b7672f9110da394838a51971687528a8c8801528987015216941692a451908152f35b634e487b7160e01b815260218a52602490fd5b87513d8a823e3d90fd5b634e487b7160e01b8b5260418c5260248bfd5b86516363ed528560e01b81528990fd5b505034620000ad57602090620000a6620000fe3662000447565b919050346200030957366003190112620000ad57356001600160a01b0381168103620000ad5760243563ffffffff81168103620003095762000306916200060c565b80f35b8280fd5b838334620000ad57620003203662000447565b91906200032f838284620005af565b80865260208690528486205490916001600160a01b0391821662000437576200035981856200060c565b8551611f638082019082821067ffffffffffffffff831117620004245787848885946200038c946200072c873962000508565b039088f080156200041a5782169683815280602052868120886bffffffffffffffffffffffff60a01b82541617905588861015620004075750602097507f1f9e05a536e40324537d577d17a8b32d1d2a2894f53cce4c730bc82235d6ab589163ffffffff87928351958a87528b87015216941692a451908152f35b634e487b7160e01b815260218952602490fd5b86513d89823e3d90fd5b634e487b7160e01b8a5260418b5260248afd5b85516363ed528560e01b81528890fd5b60609060031901126200048b576004356001600160a01b03811681036200048b579060243563ffffffff811681036200048b579060443560048110156200048b5790565b600080fd5b60809060031901126200048b576001600160a01b039060043582811681036200048b579160243563ffffffff811681036200048b579160443560048110156200048b579160643590811681036200048b5790565b906004821015620004f25752565b634e487b7160e01b600052602160045260246000fd5b6001600160a01b03909116815263ffffffff919091166020820152606081019291620005389160400190620004e4565b565b6001600160a01b03918216815263ffffffff909216602083015260808201949391926060929062000570906040860190620004e4565b16910152565b90601f8019910116810190811067ffffffffffffffff8211176200059957604052565b634e487b7160e01b600052604160045260246000fd5b9190620005db90620005cc60405193849260208401968762000508565b03601f19810183528262000576565b51902090565b9290620005cc620005db926040519485936020850197886200053a565b519081151582036200048b57565b60405162439f4b60e91b81526001600160a01b03918216600482015263ffffffff9092166024830152606090829060449082907f0000000000000000000000000000000000000000000000000000000000000000165afa9081156200071f57600080918193620006b5575b50620006985750156200068657565b604051631cedb8bf60e11b8152600490fd5b6040516380b1d95f60e01b815261ffff9091166004820152602490fd5b915091506060813d821162000716575b81620006d46060938362000576565b81010312620000ad57620006e881620005fe565b9060208101519261ffff8416840362000713575060406200070a9101620005fe565b91903862000677565b80fd5b3d9150620006c5565b6040513d6000823e3d90fdfe6101608060405234620001285760608162001f6380380380916200002482856200012d565b83398101031262000128576200003a8162000167565b9060208101519063ffffffff821682036200012857604001516004811015620001285760ff6200008c620000846200009493868496336080528160a05260c0528160e05262000243565b94166200017c565b92166200017c565b610120908152610100918252620000aa620001a1565b61014090815260405191611ad693846200048d853960805184610274015260a05184818160d0015281816102f20152610393015260c05184818160af015281816102d10152610511015260e0518461054a01525183818161016001526104b5015251828181610187015261023801525181818160fa015261031c0152f35b600080fd5b601f909101601f19168101906001600160401b038211908210176200015157604052565b634e487b7160e01b600052604160045260246000fd5b51906001600160a01b03821682036200012857565b604d81116200018b57600a0a90565b634e487b7160e01b600052601160045260246000fd5b60e05160048110156200021e5780620001ba5750600490565b60018103620001c95750600390565b60028103620001d85750600290565b600303620001e557600190565b60405162461bcd60e51b815260206004820152600d60248201526c1b9bdd081cdd5c1c1bdc9d1959609a1b6044820152606490fd5b0390fd5b634e487b7160e01b600052602160045260246000fd5b519060ff821682036200012857565b60408051630b2339af60e21b81526060949392600492916001600160a01b0391879082908690829086165afa908115620003dd576000916200042f575b50825163313ce56760e01b81529491166020858581845afa948515620003dd57908791600096620003e8575b508351630a40bee560e41b815291908290869082905afa968715620003dd576000976200037d575b505082811015620003685760018103620002f057505050508190565b9294928062000300575050509190565b9294926003810362000316575050505060129190565b92945090916002036200032b57505060129190565b6200021a92505191829162461bcd60e51b8352820160609060208152600d60208201526c1b9bdd081cdd5c1c1bdc9d1959609a1b60408201520190565b602183634e487b7160e01b6000525260246000fd5b8181989293983d8311620003d5575b6200039881836200012d565b81010312620003d257600282511015620003d257508181620003c16020620003c9940162000167565b500162000234565b943880620002d4565b80fd5b503d6200038c565b83513d6000823e3d90fd5b9150946020823d821162000426575b8162000406602093836200012d565b81010312620003d25750866200041d859262000234565b959091620002ac565b3d9150620003f7565b908782813d831162000484575b6200044881836200012d565b81010312620003d25781519183831683036200048057602081015184811603620004805784015183811603620003d257503862000280565b5080fd5b503d6200043c56fe608060408181526004908136101561001657600080fd5b600092833560e01c9081630aa33a24146105355750806326d89545146104f4578063313ce567146104d85780634ae5fa9b1461049d57806354fd4d50146104815780637284e416146103c257806380f556051461037e5780639a6fc8f5146102a3578063c45a01551461025f578063ee81d997146102205763feaf968c1461009d57600080fd5b346101db57826003193601126101db577f00000000000000000000000000000000000000000000000000000000000000007f00000000000000000000000000000000000000000000000000000000000000006001600160a01b03167f00000000000000000000000000000000000000000000000000000000000000006001811461020c57806002146101f857806003146101df5760041461014b57634e487b7160e01b855260518452602485fd5b6101ac9293506101859161015e91611487565b7f0000000000000000000000000000000000000000000000000000000000000000906105c3565b7f0000000000000000000000000000000000000000000000000000000000000000906105d6565b906001600160ff1b0382116101db5791808360a094519382855260208501528301524260608301526080820152f35b8280fd5b506101ac929350610185916101f391611454565b61015e565b506101ac929350610185916101f39161062e565b506101ac929350610185916101f3916105f6565b83823461025b578160031936011261025b57602090517f00000000000000000000000000000000000000000000000000000000000000008152f35b5080fd5b83823461025b578160031936011261025b57517f00000000000000000000000000000000000000000000000000000000000000006001600160a01b03168152602090f35b50346101db5760203660031901126101db57813569ffffffffffffffffffff811680910361037a5761036d577f00000000000000000000000000000000000000000000000000000000000000007f00000000000000000000000000000000000000000000000000000000000000006001600160a01b03167f00000000000000000000000000000000000000000000000000000000000000006001811461020c57806002146101f857806003146101df5760041461014b57634e487b7160e01b855260518452602485fd5b5163bfbe031f60e01b8152fd5b8380fd5b83823461025b578160031936011261025b57517f00000000000000000000000000000000000000000000000000000000000000006001600160a01b03168152602090f35b5090346101db57826003193601126101db57815190606082019082821067ffffffffffffffff83111761046e57508252602281526020907f50656e646c6520436861696e6c696e6b2d636f6d70617469626c65204f72616382820152616c6560f01b8382015282519382859384528251928382860152825b84811061045857505050828201840152601f01601f19168101030190f35b818101830151888201880152879550820161043a565b634e487b7160e01b855260419052602484fd5b83823461025b578160031936011261025b576020905160018152f35b83823461025b578160031936011261025b57602090517f00000000000000000000000000000000000000000000000000000000000000008152f35b83823461025b578160031936011261025b576020905160128152f35b83823461025b578160031936011261025b576020905163ffffffff7f0000000000000000000000000000000000000000000000000000000000000000168152f35b8390853461058d578060031936011261058d577f0000000000000000000000000000000000000000000000000000000000000000908382101561057a57602083838152f35b634e487b7160e01b815260218452602490fd5b80fd5b90670de0b6b3a7640000918281029281840414901517156105ad57565b634e487b7160e01b600052601160045260246000fd5b818102929181159184041417156105ad57565b81156105e0570490565b634e487b7160e01b600052601260045260246000fd5b9061060c6106038361157e565b928391946106f7565b9181811061061957505090565b6106269061062b936105c3565b6105d6565b90565b61064361063a8261157e565b938491936106f7565b91808210610658575061062661062b92610590565b905061062661062b92610590565b90670de0b6b3a7640000918281029281840414901517156105ad5761062b916105d6565b90601f8019910116810190811067ffffffffffffffff8211176106ac57604052565b634e487b7160e01b600052604160045260246000fd5b818103929160001380158285131691841216176105ad57565b919091600083820193841291129080158216911516176105ad57565b60405163794052f360e01b8152600060048201819052936001600160a01b0393909260249261012090818186818a87165afa968715610bbb578897610af8575b50505060a085015142106107875750505090610776604061076c61077b94610766855191602087015190610c3f565b906106db565b925b015191610bff565b610d18565b9080821261058d575090565b604051936080850185811067ffffffffffffffff821117610ae5576040528685528660208601528660408601528660608601524260a08701511115610ad3576107d44260a0880151610bc6565b9060808701516301e133809182820291808305841490151715610a30576001600160ff1b0391828511610a6d578415610ac057600160ff1b8114600019861416610aad578490058a811315610a96578852602089015161083391610c3f565b80602089015288519081158015610a8e575b610a71575050875161010089015191602089015193610866868b51956105c3565b04908111610a6d5761087790610d22565b92670de0b6b3a76400008412610a55579061077661089861089e93836106db565b91610bff565b670de0b6b3a76400008114610a4357898112670de0b6b3a764000082810312811690670de0b6b3a76400008381031390151617610a30579361092c6109619461091d6109369561091761095c9b9a9661077661091261090d8d61077660029f670de0b6b3a76400000391610bff565b611012565b610bff565b906106c2565b60408b015260c08b0151610bd3565b606089015261181e565b61094e6109474260a08a0151610bc6565b8092610bd3565b948591610100890151610bd3565b6106db565b059061098e670de0b6b3a764000061098886516109826040890151886106c2565b90610c1c565b05610d22565b6109be836107766109b8670de0b6b3a76400006109af60208b015187610c1c565b058a51906106c2565b93610bff565b9182670de0b6b3a764000001928312600116610a1e57509361076661077694610776610912610a106040976109176020610a03610a189a61077b9f9e61077690610bff565b9801519161077689610bff565b9489516106db565b9261076e565b634e487b7160e01b8852601160045287fd5b634e487b7160e01b8a526011600452868afd5b60405163a9c8b14d60e01b8152600490fd5b60405163329e322960e21b8152600481018590528890fd5b8a80fd5b60449250876040519263b1c4aefb60e01b84526004840152820152fd5b508015610845565b879060405190630e520c3b60e11b82526004820152fd5b634e487b7160e01b8b526011600452878bfd5b634e487b7160e01b8b526012600452878bfd5b60405163b2094b5960e01b8152600490fd5b634e487b7160e01b885260416004528488fd5b90918093975082813d8311610bb4575b610b12818361068a565b81010312610b9d5760405192830183811067ffffffffffffffff821117610ba15760405281518352602082015160208401526040820151604084015260608201519081168103610b9d5760608301526080810151608083015260a081015160a083015260c081015160c083015260e081015160e0830152610100809101519082015293388080610737565b8780fd5b634e487b7160e01b895260416004528589fd5b503d610b08565b6040513d8a823e3d90fd5b919082039182116105ad57565b6301e1338091610be2916105c3565b046001600160ff1b038111610bfa5761062b90610d22565b600080fd5b90670de0b6b3a7640000918281029281840514901517156105ad57565b818102929160008212600160ff1b8214166105ad5781840514901517156105ad57565b6000821215610cb757600019915b600080821315610c835750670de0b6b3a764000091610c6b916105c3565b046001600160ff1b038111610bfa5761062b91610c1c565b600160ff1b8214610ca35791610c6b91670de0b6b3a764000093036105c3565b634e487b7160e01b81526011600452602490fd5b600191610c4d565b15610cc657565b60405162461bcd60e51b815260206004820152601060248201526f125b9d985b1a5908195e1c1bdb995b9d60821b6044820152606490fd5b80156105e0576ec097ce7bc90715b34b9f10000000000590565b81156105e0570590565b680238fd42c5cf03ffff1981121580610fff575b610d3f90610cbf565b60008112610fea576064906806f05b59d3b20000008112610f9d576806f05b59d3b1ffffff190168056bc75e2d6310000082770195e54c5dd42177f53a27172fa9ec630262827000000000925b0280829168ad78ebc5ac62000000811215610f77575b50806856bc75e2d63100000084921215610f53575b682b5e3af16b18800000811215610f31575b6815af1d78b58c400000811215610f0f575b680ad78ebc5ac6200000811215610eee575b81811215610ecd575b6802b5e3af16b1880000811215610eac575b68015af1d78b58c40000811215610e8b575b60028282800205056003838383020505600484848302050560058585830205056006868683020505600787878302050590600888888402050592600989898602050594600a8a8a8802050596600b8b8b8a02050598600c8c8c8c0205059a0101010101010101010101010205020590565b6806f5f1775788937937829168015af1d78b58c3ffff190193020591610e1a565b6808f00f760a4b2db55d82916802b5e3af16b187ffff190193020591610e08565b680ebc5fb41746121110829168056bc75e2d630fffff190193020591610df6565b68280e60114edb805d038291680ad78ebc5ac61fffff190193020591610ded565b690127fa27722cc06cc5e282916815af1d78b58c3fffff190193020591610ddb565b693f1fce3da636ea5cf8508291682b5e3af16b187fffff190193020591610dc9565b6b02df0ab5a80a22c61ab5a70082916856bc75e2d630ffffff190193020591610db7565b6e01855144814a7ff805980ff0084000925068ad78ebc5ac61ffffff1901905082610da2565b6803782dace9d90000008112610fd7576803782dace9d8ffffff190168056bc75e2d63100000826b1425982cf597cd205cef738092610d8c565b68056bc75e2d6310000082600192610d8c565b610ff690600003610d22565b61062b90610cfe565b5068070c1cc73b00c80000811315610d36565b60008113156110e55780670c7d713b49da000012806110d4575b156110cb57670de0b6b3a7640000906ec097ce7bc90715b34b9f10000000009061106f908302828101906ec097ce7bc90715b34b9f0fffffffff19018302610d18565b9080828002059181838202058284820205838582020591848684020593858786020595808888020597880205600f900596600d900595600b900594600990059360079005926005900591600390050101010101010160011b0590565b61062b9061111a565b50670f43fc2c04ee0000811261102c565b60405162461bcd60e51b815260206004820152600d60248201526c6f7574206f6620626f756e647360981b6044820152606490fd5b670de0b6b3a7640000811261143d5760649060007e1600ef3172e58d2e933ec884fde10064c63b5372d805e203c0000000000000821215611412575b73011798004d755d3c8bc8e03204cf44619e0000008212156113f1575b8202908202816e01855144814a7ff805980ff008400082818112156113ca575b5050506b02df0ab5a80a22c61ab5a700808212156113aa575b50693f1fce3da636ea5cf8508082121561138a575b50690127fa27722cc06cc5e28082121561136a575b5068280e60114edb805d038082121561134a575b50680ebc5fb4174612111080821215611333575b506808f00f760a4b2db55d80821215611313575b506806f5f1775788937937808212156112f3575b506806248f33704b286603808212156112d4575b506805c548670b9510e7ac808212156112b5575b5061127468056bc75e2d6310000091828082019168056bc75e2d630fffff190102610d18565b9080828002059181838202058284820205916003600560076009600b888a89020598808b8b02059a8b0205059805960594059205010101010160011b010590565b68056bc75e2d631000006756bc75e2d63100009202059101903861124e565b68056bc75e2d6310000067ad78ebc5ac6200009202059101903861123a565b68056bc75e2d6310000068015af1d78b58c4000092020591019038611226565b68056bc75e2d631000006802b5e3af16b188000092020591019038611212565b68056bc75e2d6310000080920205910190386111fe565b68056bc75e2d63100000680ad78ebc5ac6200000920205910190386111ea565b68056bc75e2d631000006815af1d78b58c400000920205910190386111d6565b68056bc75e2d63100000682b5e3af16b18800000920205910190386111c1565b68056bc75e2d631000006856bc75e2d631000000920205910190386111ac565b68056bc75e2d631000009192945068ad78ebc5ac6200000093500205910190388080611193565b6b1425982cf597cd205cef7380909105906803782dace9d900000001611173565b50770195e54c5dd42177f53a27172fa9ec63026282700000000090056806f05b59d3b2000000611156565b61144961144e91610cfe565b61111a565b60000390565b9061145e8261157e565b9081811061147157505061062b916114b8565b611482610626929361062b956114b8565b6105c3565b6114908161157e565b9091908083106114ad575061062b926114a8916114b8565b610666565b915061062b926114a8915b6040516370c264df60e11b815290916020826004816001600160a01b0387165afa9182156115725760009261153f575b504282116114ff57505050670de0b6b3a764000090565b61150f6115179161151d9461181e565b914290610bc6565b90610bd3565b60008112610bfa5780156105e0576ec097ce7bc90715b34b9f10000000000490565b90916020823d821161156a575b816115596020938361068a565b8101031261058d57505190386114e8565b3d915061154c565b6040513d6000823e3d90fd5b906040918251630b2339af60e21b815260608160048160018060a01b038096165afa9384156116cc576000918295611784575b5082815192633ba0b9a960e01b8452836004816020978894165afa92831561174a57600093611755575b5082951690805193636951ac2760e11b85528085600481865afa94851561174a5760009561171b575b50815163516399df60e01b8152928184600481845afa938415611710576000946116d6575b5083611650575b50505060001461163e575090565b908082111561164b575090565b905090565b82516360e0a9e160e01b81529293508190839060049082905afa9283156116cc575060009261168f575b50506001600160801b03164314388080611630565b81813d83116116c5575b6116a3818361068a565b8101031261025b5751906001600160801b038216820361058d5750388061167a565b503d611699565b513d6000823e3d90fd5b8281819693963d8311611709575b6116ee818361068a565b8101031261025b575190811515820361058d57509238611629565b503d6116e4565b83513d6000823e3d90fd5b90948582813d8311611743575b611732818361068a565b8101031261058d5750519338611604565b503d611728565b82513d6000823e3d90fd5b90928482813d831161177d575b61176c818361068a565b8101031261058d57505191386115db565b503d611762565b9094506060813d82116117d6575b8161179f6060938361068a565b8101031261025b5780519083821682036101db576020810151848116036101db5785015191838316830361058d57509093386115b1565b3d9150611792565b519081600f0b8203610bfa57565b519061ffff82168203610bfa57565b8051156118085760200190565b634e487b7160e01b600052603260045260246000fd5b9063ffffffff8091169081156119d3576040928351606081019167ffffffffffffffff92828110848211176106ac578652600282526020918281018736823786611867836117fb565b52875195869263883bdbfd60e01b84526024840190866004860152518091526044840192916000905b878383106119b6575060009694869003948694506001600160a01b0316925050505afa9283156119ab576000936118fd575b50505080516001101561180857918201516001600160d81b03929083169083906118eb906117fb565b511690038281116105ad578216041690565b9091923d8082843e61190f818461068a565b820191838184031261025b578051908582116101db57019082601f8301121561058d578151948511611997578460051b9187519561194f8685018861068a565b8652848087019382010193841161025b578401915b8383106119785750505050503880806118c2565b82516001600160d81b03811681036101db578152918401918401611964565b634e487b7160e01b81526041600452602490fd5b85513d6000823e3d90fd5b8451821686528a9650948501949093019260019190910190611890565b50506040516361fdc86b60e11b81529060c090829060049082906001600160a01b03165afa90811561157257600091611a14575b506001600160601b031690565b60c0813d8211611a98575b81611a2c60c0938361068a565b8101031261025b57611a3d816117de565b50611a4a602082016117de565b506040810151916001600160601b038316830361058d575090611a9160a083611a7d60606001600160601b0396016117ec565b50611a8a608082016117ec565b50016117ec565b5090611a07565b3d9150611a1f56fea264697066735822122001a8a84c0807ae5ed4b25b37f232e0543b8eebfc4d73799458bd2de3b57770c364736f6c634300081400336101a08060405234620001a757608081620020d1803803809162000024828562000212565b833981010312620001a7576200003a816200024c565b9060208101519063ffffffff82168203620001a75760408101516004811015620001a7576200009c6200009460ff959286936200007e6060620000a497016200024c565b96336080528160a05260c0528160e05262000312565b951662000270565b931662000270565b90610120918252610100928352620000bb6200027f565b61014090815261016082815260405163313ce56760e01b81529192909190602090829060049082906001600160a01b03165afa80156200020657600090620001c2575b60ff915016604d8111620001ac57600a0a916001600160ff1b038311620001a75761018092835260405193611b7895866200055987396080518661015e015260a0518681816101ed0152611978015260c0518681816103b3015261199a015260e051866104250152518581816103130152611a210152518481816101270152611a48015251836119bb015251828181610367015261193e0152518181816103ef0152611a8a0152f35b600080fd5b634e487b7160e01b600052601160045260246000fd5b6020823d8211620001fd575b81620001dd6020938362000212565b81010312620001fa5750620001f460ff9162000261565b620000fe565b80fd5b3d9150620001ce565b6040513d6000823e3d90fd5b601f909101601f19168101906001600160401b038211908210176200023657604052565b634e487b7160e01b600052604160045260246000fd5b51906001600160a01b0382168203620001a757565b519060ff82168203620001a757565b604d8111620001ac57600a0a90565b60e0516004811015620002fc5780620002985750600490565b60018103620002a75750600390565b60028103620002b65750600290565b600303620002c357600190565b60405162461bcd60e51b815260206004820152600d60248201526c1b9bdd081cdd5c1c1bdc9d1959609a1b6044820152606490fd5b0390fd5b634e487b7160e01b600052602160045260246000fd5b60408051630b2339af60e21b81526060949392600492916001600160a01b0391879082908690829086165afa908115620004a957600091620004fb575b50825163313ce56760e01b81529491166020858581845afa948515620004a957908791600096620004b4575b508351630a40bee560e41b815291908290869082905afa968715620004a9576000976200044c575b505082811015620004375760018103620003bf57505050508190565b92949280620003cf575050509190565b92949260038103620003e5575050505060129190565b9294509091600203620003fa57505060129190565b620002f892505191829162461bcd60e51b8352820160609060208152600d60208201526c1b9bdd081cdd5c1c1bdc9d1959609a1b60408201520190565b602183634e487b7160e01b6000525260246000fd5b8181989293983d8311620004a1575b62000467818362000212565b81010312620001fa57600282511015620001fa575081816200049060206200049894016200024c565b500162000261565b943880620003a3565b503d6200045b565b83513d6000823e3d90fd5b9150946020823d8211620004f2575b81620004d26020938362000212565b81010312620001fa575086620004e9859262000261565b9590916200037b565b3d9150620004c3565b908782813d831162000550575b62000514818362000212565b81010312620001fa5781519183831683036200054c576020810151848116036200054c5784015183811603620001fa5750386200034f565b5080fd5b503d6200050856fe608060408181526004918236101561001657600080fd5b600092833560e01c9182630aa33a241461041257508163172009a6146103d757816326d8954514610396578163289d77cc14610352578163313ce567146103365781634ae5fa9b146102fb57816354fd4d50146102df5781637284e4161461021c57816380f55605146101d85781639a6fc8f51461018d57508063c45a01551461014a578063ee81d997146101105763feaf968c146100b457600080fd5b3461010c578160031936011261010c57610108906100d0611920565b945169ffffffffffffffffffff94851681526020810193909352604083019190915260608201529116608082015290819060a0820190565b0390f35b5080fd5b503461010c578160031936011261010c57602090517f00000000000000000000000000000000000000000000000000000000000000008152f35b503461010c578160031936011261010c57517f00000000000000000000000000000000000000000000000000000000000000006001600160a01b03168152602090f35b8284346101d55760203660031901126101d55782359069ffffffffffffffffffff82168092036101d557506101c857610108906100d0611920565b5163bfbe031f60e01b8152fd5b80fd5b50503461010c578160031936011261010c57517f00000000000000000000000000000000000000000000000000000000000000006001600160a01b03168152602090f35b9050346102db57826003193601126102db57815190606082019082821067ffffffffffffffff8311176102c857508252602281526020907f50656e646c6520436861696e6c696e6b2d636f6d70617469626c65204f72616382820152616c6560f01b8382015282519382859384528251928382860152825b8481106102b257505050828201840152601f01601f19168101030190f35b8181018301518882018801528795508201610294565b634e487b7160e01b855260419052602484fd5b8280fd5b50503461010c578160031936011261010c576020905160018152f35b50503461010c578160031936011261010c57602090517f00000000000000000000000000000000000000000000000000000000000000008152f35b50503461010c578160031936011261010c576020905160128152f35b50503461010c578160031936011261010c57517f00000000000000000000000000000000000000000000000000000000000000006001600160a01b03168152602090f35b50503461010c578160031936011261010c576020905163ffffffff7f0000000000000000000000000000000000000000000000000000000000000000168152f35b50503461010c578160031936011261010c57602090517f00000000000000000000000000000000000000000000000000000000000000008152f35b84346101d557806003193601126101d5577f0000000000000000000000000000000000000000000000000000000000000000908382101561045557602083838152f35b634e487b7160e01b815260218452602490fd5b90670de0b6b3a76400009182810292818404149015171561048557565b634e487b7160e01b600052601160045260246000fd5b8181029291811591840414171561048557565b81156104b8570490565b634e487b7160e01b600052601260045260246000fd5b906104e46104db836113e7565b928391946105cf565b918181106104f157505090565b6104fe906105039361049b565b6104ae565b90565b61051b610512826113e7565b938491936105cf565b9180821061053057506104fe61050392610468565b90506104fe61050392610468565b90670de0b6b3a76400009182810292818404149015171561048557610503916104ae565b90601f8019910116810190811067ffffffffffffffff82111761058457604052565b634e487b7160e01b600052604160045260246000fd5b8181039291600013801582851316918412161761048557565b9190916000838201938412911290801582169115161761048557565b60405163794052f360e01b8152600060048201526001600160a01b039291906101209081816024818887165afa948515610a195760009561096d575b50505060a0830151421061065d575050610648604061063e61064d94610638855191602087015190610ab4565b906105b3565b925b015191610a59565b610b8d565b600081126106585790565b600080fd5b9092604051936080850185811067ffffffffffffffff82111761058457604052600085526000602086015260006040860152600060608601524260a0850151111561095b576106b04260a0860151610a25565b9160808501516301e133808102908082056301e133801490151715610485576001600160ff1b03841161065857836106e791610a99565b6000811315610943578652602085015161070091610ab4565b8060208701528451908115801561093b575b61091d5750508351610100850151916020870151916301e13380610738868a519661049b565b046001600160ff1b0381116106585761075090610b97565b92670de0b6b3a76400008412610904579061064861077161077793836105b3565b91610a59565b94670de0b6b3a764000086146108f25760008612670de0b6b3a764000087810312811690670de0b6b3a76400008881031390151617610485576108056002956107f661080f956107f061083a986106486107eb6107e68e6108359f61064890670de0b6b3a76400000391610a59565b610e87565b610a59565b9061059a565b60408b015260c0890151610a32565b6060890152611687565b6108276108204260a0880151610a25565b8092610a32565b938491610100870151610a32565b6105b3565b05610866670de0b6b3a7640000610860865161085a60408901518761059a565b90610a76565b05610b97565b61089682610648610890670de0b6b3a764000061088760208b015187610a76565b0588519061059a565b93610a59565b9485670de0b6b3a76400000195861260011661048557610638610648946106486107eb6108e46040976107f060206108d761064d9e6106486108ec9c610a59565b9801519161064889610a59565b9489516105b3565b92610640565b60405163a9c8b14d60e01b8152600490fd5b60405163329e322960e21b815260048101859052602490fd5b604492506040519163b1c4aefb60e01b835260048301526024820152fd5b508015610712565b60249060405190630e520c3b60e11b82526004820152fd5b60405163b2094b5960e01b8152600490fd5b90918093955082813d8311610a12575b6109878183610562565b810103126106585760405192830183811067ffffffffffffffff82111761058457604052815183526020820151602084015260408201516040840152606082015190811681036106585760608301526080810151608083015260a081015160a083015260c081015160c083015260e081015160e083015261010080910151908201529138808061060b565b503d61097d565b6040513d6000823e3d90fd5b9190820391821161048557565b6301e1338091610a419161049b565b046001600160ff1b0381116106585761050390610b97565b90670de0b6b3a76400009182810292818405149015171561048557565b818102929160008212600160ff1b82141661048557818405149015171561048557565b81156104b857600160ff1b8114600019831416610485570590565b6000821215610b2c57600019915b600080821315610af85750670de0b6b3a764000091610ae09161049b565b046001600160ff1b0381116106585761050391610a76565b600160ff1b8214610b185791610ae091670de0b6b3a7640000930361049b565b634e487b7160e01b81526011600452602490fd5b600191610ac2565b15610b3b57565b60405162461bcd60e51b815260206004820152601060248201526f125b9d985b1a5908195e1c1bdb995b9d60821b6044820152606490fd5b80156104b8576ec097ce7bc90715b34b9f10000000000590565b81156104b8570590565b680238fd42c5cf03ffff1981121580610e74575b610bb490610b34565b60008112610e5f576064906806f05b59d3b20000008112610e12576806f05b59d3b1ffffff190168056bc75e2d6310000082770195e54c5dd42177f53a27172fa9ec630262827000000000925b0280829168ad78ebc5ac62000000811215610dec575b50806856bc75e2d63100000084921215610dc8575b682b5e3af16b18800000811215610da6575b6815af1d78b58c400000811215610d84575b680ad78ebc5ac6200000811215610d63575b81811215610d42575b6802b5e3af16b1880000811215610d21575b68015af1d78b58c40000811215610d00575b60028282800205056003838383020505600484848302050560058585830205056006868683020505600787878302050590600888888402050592600989898602050594600a8a8a8802050596600b8b8b8a02050598600c8c8c8c0205059a0101010101010101010101010205020590565b6806f5f1775788937937829168015af1d78b58c3ffff190193020591610c8f565b6808f00f760a4b2db55d82916802b5e3af16b187ffff190193020591610c7d565b680ebc5fb41746121110829168056bc75e2d630fffff190193020591610c6b565b68280e60114edb805d038291680ad78ebc5ac61fffff190193020591610c62565b690127fa27722cc06cc5e282916815af1d78b58c3fffff190193020591610c50565b693f1fce3da636ea5cf8508291682b5e3af16b187fffff190193020591610c3e565b6b02df0ab5a80a22c61ab5a70082916856bc75e2d630ffffff190193020591610c2c565b6e01855144814a7ff805980ff0084000925068ad78ebc5ac61ffffff1901905082610c17565b6803782dace9d90000008112610e4c576803782dace9d8ffffff190168056bc75e2d63100000826b1425982cf597cd205cef738092610c01565b68056bc75e2d6310000082600192610c01565b610e6b90600003610b97565b61050390610b73565b5068070c1cc73b00c80000811315610bab565b6000811315610f5a5780670c7d713b49da00001280610f49575b15610f4057670de0b6b3a7640000906ec097ce7bc90715b34b9f100000000090610ee4908302828101906ec097ce7bc90715b34b9f0fffffffff19018302610b8d565b9080828002059181838202058284820205838582020591848684020593858786020595808888020597880205600f900596600d900595600b900594600990059360079005926005900591600390050101010101010160011b0590565b61050390610f8f565b50670f43fc2c04ee00008112610ea1565b60405162461bcd60e51b815260206004820152600d60248201526c6f7574206f6620626f756e647360981b6044820152606490fd5b670de0b6b3a764000081126112b25760649060007e1600ef3172e58d2e933ec884fde10064c63b5372d805e203c0000000000000821215611287575b73011798004d755d3c8bc8e03204cf44619e000000821215611266575b8202908202816e01855144814a7ff805980ff0084000828181121561123f575b5050506b02df0ab5a80a22c61ab5a7008082121561121f575b50693f1fce3da636ea5cf850808212156111ff575b50690127fa27722cc06cc5e2808212156111df575b5068280e60114edb805d03808212156111bf575b50680ebc5fb41746121110808212156111a8575b506808f00f760a4b2db55d80821215611188575b506806f5f177578893793780821215611168575b506806248f33704b28660380821215611149575b506805c548670b9510e7ac8082121561112a575b506110e968056bc75e2d6310000091828082019168056bc75e2d630fffff190102610b8d565b9080828002059181838202058284820205916003600560076009600b888a89020598808b8b02059a8b0205059805960594059205010101010160011b010590565b68056bc75e2d631000006756bc75e2d6310000920205910190386110c3565b68056bc75e2d6310000067ad78ebc5ac620000920205910190386110af565b68056bc75e2d6310000068015af1d78b58c400009202059101903861109b565b68056bc75e2d631000006802b5e3af16b188000092020591019038611087565b68056bc75e2d631000008092020591019038611073565b68056bc75e2d63100000680ad78ebc5ac62000009202059101903861105f565b68056bc75e2d631000006815af1d78b58c4000009202059101903861104b565b68056bc75e2d63100000682b5e3af16b1880000092020591019038611036565b68056bc75e2d631000006856bc75e2d63100000092020591019038611021565b68056bc75e2d631000009192945068ad78ebc5ac6200000093500205910190388080611008565b6b1425982cf597cd205cef7380909105906803782dace9d900000001610fe8565b50770195e54c5dd42177f53a27172fa9ec63026282700000000090056806f05b59d3b2000000610fcb565b6112be6112c391610b73565b610f8f565b60000390565b906112d3826113e7565b908181106112e65750506105039161132d565b6112f76104fe92936105039561132d565b61049b565b611305816113e7565b90919080831061132257506105039261131d9161132d565b61053e565b91506105039261131d915b6040516370c264df60e11b815290916020826004816001600160a01b0387165afa918215610a19576000926113b4575b5042821161137457505050670de0b6b3a764000090565b61138461138c9161139294611687565b914290610a25565b90610a32565b600081126106585780156104b8576ec097ce7bc90715b34b9f10000000000490565b90916020823d82116113df575b816113ce60209383610562565b810103126101d5575051903861135d565b3d91506113c1565b906040918251630b2339af60e21b815260608160048160018060a01b038096165afa9384156115355760009182956115ed575b5082815192633ba0b9a960e01b8452836004816020978894165afa9283156115b3576000936115be575b5082951690805193636951ac2760e11b85528085600481865afa9485156115b357600095611584575b50815163516399df60e01b8152928184600481845afa9384156115795760009461153f575b50836114b9575b5050506000146114a7575090565b90808211156114b4575090565b905090565b82516360e0a9e160e01b81529293508190839060049082905afa92831561153557506000926114f8575b50506001600160801b03164314388080611499565b81813d831161152e575b61150c8183610562565b8101031261010c5751906001600160801b03821682036101d5575038806114e3565b503d611502565b513d6000823e3d90fd5b8281819693963d8311611572575b6115578183610562565b8101031261010c57519081151582036101d557509238611492565b503d61154d565b83513d6000823e3d90fd5b90948582813d83116115ac575b61159b8183610562565b810103126101d5575051933861146d565b503d611591565b82513d6000823e3d90fd5b90928482813d83116115e6575b6115d58183610562565b810103126101d55750519138611444565b503d6115cb565b9094506060813d821161163f575b8161160860609383610562565b8101031261010c5780519083821682036102db576020810151848116036102db578501519183831683036101d5575090933861141a565b3d91506115fb565b519081600f0b820361065857565b519061ffff8216820361065857565b8051156116715760200190565b634e487b7160e01b600052603260045260246000fd5b9063ffffffff80911690811561183c576040928351606081019167ffffffffffffffff92828110848211176105845786526002825260209182810187368237866116d083611664565b52875195869263883bdbfd60e01b84526024840190866004860152518091526044840192916000905b8783831061181f575060009694869003948694506001600160a01b0316925050505afa92831561181457600093611766575b50505080516001101561167157918201516001600160d81b039290831690839061175490611664565b51169003828111610485578216041690565b9091923d8082843e6117788184610562565b820191838184031261010c578051908582116102db57019082601f830112156101d5578151948511611800578460051b918751956117b886850188610562565b8652848087019382010193841161010c578401915b8383106117e157505050505038808061172b565b82516001600160d81b03811681036102db5781529184019184016117cd565b634e487b7160e01b81526041600452602490fd5b85513d6000823e3d90fd5b8451821686528a96509485019490930192600191909101906116f9565b50506040516361fdc86b60e11b81529060c090829060049082906001600160a01b03165afa908115610a195760009161187d575b506001600160601b031690565b60c0813d8211611901575b8161189560c09383610562565b8101031261010c576118a681611647565b506118b360208201611647565b506040810151916001600160601b03831683036101d55750906118fa60a0836118e660606001600160601b039601611655565b506118f360808201611655565b5001611655565b5090611870565b3d9150611888565b519069ffffffffffffffffffff8216820361065857565b604051633fabe5a360e21b81526001600160a01b039160a0826004817f000000000000000000000000000000000000000000000000000000000000000087165afa918215610a19576000908193611af0575b506000937f0000000000000000000000000000000000000000000000000000000000000000167f00000000000000000000000000000000000000000000000000000000000000007f000000000000000000000000000000000000000000000000000000000000000080600114611adf5780600214611ace5780600314611ab857600414611a0f57634e487b7160e01b600052605160045260246000fd5b611a1f611a4691611a6d936112fc565b7f00000000000000000000000000000000000000000000000000000000000000009061049b565b7f0000000000000000000000000000000000000000000000000000000000000000906104ae565b6001600160ff1b03811161065857611aaf91611a8891610a76565b7f000000000000000000000000000000000000000000000000000000000000000090610a99565b91600091600090565b50611ac9611a4691611a6d936112c9565b611a1f565b50611ac9611a4691611a6d93610506565b50611ac9611a4691611a6d936104ce565b925060a0833d8211611b3a575b81611b0a60a09383610562565b810103126101d55750611b1c82611909565b506020820151611b33608060608501519401611909565b5038611972565b3d9150611afd56fea2646970667358221220a765b1933ec94990f8bbd4ded12b00f5de3ffbb475b58ad21f714158f83d731c64736f6c63430008140033a26469706673582212200905494ac67d9dffc16f34c72553f569117dfa29e79a1abd20f47f51be751e2c64736f6c63430008140033",
  "devdoc": {
    "kind": "dev",
    "methods": {
      "createOracleWithQuote(address,uint32,uint8,address)": {
        "details": "quoteOracle must has Chainlink-compatible interface"
      }
    },
    "version": 1
  },
  "userdoc": {
    "kind": "user",
    "methods": {},
    "version": 1
  },
  "storageLayout": {
    "storage": [
      {
        "astId": 6237,
        "contract": "@pendle/core-v2/contracts/oracles/PtYtLpOracle/chainlink/PendleChainlinkOracleFactory.sol:PendleChainlinkOracleFactory",
        "label": "oracles",
        "offset": 0,
        "slot": "0",
        "type": "t_mapping(t_bytes32,t_address)"
      },
      {
        "astId": 6241,
        "contract": "@pendle/core-v2/contracts/oracles/PtYtLpOracle/chainlink/PendleChainlinkOracleFactory.sol:PendleChainlinkOracleFactory",
        "label": "oraclesWithQuote",
        "offset": 0,
        "slot": "1",
        "type": "t_mapping(t_bytes32,t_address)"
      }
    ],
    "types": {
      "t_address": {
        "encoding": "inplace",
        "label": "address",
        "numberOfBytes": "20"
      },
      "t_bytes32": {
        "encoding": "inplace",
        "label": "bytes32",
        "numberOfBytes": "32"
      },
      "t_mapping(t_bytes32,t_address)": {
        "encoding": "mapping",
        "key": "t_bytes32",
        "label": "mapping(bytes32 => address)",
        "numberOfBytes": "32",
        "value": "t_address"
      }
    }
  }
}