{
  "address": "0xD991B9E3f25f3Ecd55Eca25EFC0E52CCE2a35c6b",
  "abi": [
    {
      "inputs": [
        {
          "internalType": "address",
          "name": "_market",
          "type": "address"
        },
        {
          "internalType": "uint32",
          "name": "_twapDuration",
          "type": "uint32"
        },
        {
          "internalType": "enum PendleOracleType",
          "name": "_baseOracleType",
          "type": "uint8"
        }
      ],
      "stateMutability": "nonpayable",
      "type": "constructor"
    },
    {
      "inputs": [],
      "name": "InvalidRoundId",
      "type": "error"
    },
    {
      "inputs": [
        {
          "internalType": "int256",
          "name": "exchangeRate",
          "type": "int256"
        }
      ],
      "name": "MarketExchangeRateBelowOne",
      "type": "error"
    },
    {
      "inputs": [],
      "name": "MarketExpired",
      "type": "error"
    },
    {
      "inputs": [],
      "name": "MarketProportionMustNotEqualOne",
      "type": "error"
    },
    {
      "inputs": [
        {
          "internalType": "int256",
          "name": "rateScalar",
          "type": "int256"
        }
      ],
      "name": "MarketRateScalarBelowZero",
      "type": "error"
    },
    {
      "inputs": [
        {
          "internalType": "int256",
          "name": "totalPt",
          "type": "int256"
        },
        {
          "internalType": "int256",
          "name": "totalAsset",
          "type": "int256"
        }
      ],
      "name": "MarketZeroTotalPtOrTotalAsset",
      "type": "error"
    },
    {
      "inputs": [],
      "name": "baseOracleType",
      "outputs": [
        {
          "internalType": "enum PendleOracleType",
          "name": "",
          "type": "uint8"
        }
      ],
      "stateMutability": "view",
      "type": "function"
    },
    {
      "inputs": [],
      "name": "decimals",
      "outputs": [
        {
          "internalType": "uint8",
          "name": "",
          "type": "uint8"
        }
      ],
      "stateMutability": "pure",
      "type": "function"
    },
    {
      "inputs": [],
      "name": "description",
      "outputs": [
        {
          "internalType": "string",
          "name": "",
          "type": "string"
        }
      ],
      "stateMutability": "pure",
      "type": "function"
    },
    {
      "inputs": [],
      "name": "factory",
      "outputs": [
        {
          "internalType": "address",
          "name": "",
          "type": "address"
        }
      ],
      "stateMutability": "view",
      "type": "function"
    },
    {
      "inputs": [],
      "name": "fromTokenScale",
      "outputs": [
        {
          "internalType": "uint256",
          "name": "",
          "type": "uint256"
        }
      ],
      "stateMutability": "view",
      "type": "function"
    },
    {
      "inputs": [
        {
          "internalType": "uint80",
          "name": "roundId",
          "type": "uint80"
        }
      ],
      "name": "getRoundData",
      "outputs": [
        {
          "internalType": "uint80",
          "name": "",
          "type": "uint80"
        },
        {
          "internalType": "int256",
          "name": "",
          "type": "int256"
        },
        {
          "internalType": "uint256",
          "name": "",
          "type": "uint256"
        },
        {
          "internalType": "uint256",
          "name": "",
          "type": "uint256"
        },
        {
          "internalType": "uint80",
          "name": "",
          "type": "uint80"
        }
      ],
      "stateMutability": "view",
      "type": "function"
    },
    {
      "inputs": [],
      "name": "latestRoundData",
      "outputs": [
        {
          "internalType": "uint80",
          "name": "roundId",
          "type": "uint80"
        },
        {
          "internalType": "int256",
          "name": "answer",
          "type": "int256"
        },
        {
          "internalType": "uint256",
          "name": "startedAt",
          "type": "uint256"
        },
        {
          "internalType": "uint256",
          "name": "updatedAt",
          "type": "uint256"
        },
        {
          "internalType": "uint80",
          "name": "answeredInRound",
          "type": "uint80"
        }
      ],
      "stateMutability": "view",
      "type": "function"
    },
    {
      "inputs": [],
      "name": "market",
      "outputs": [
        {
          "internalType": "address",
          "name": "",
          "type": "address"
        }
      ],
      "stateMutability": "view",
      "type": "function"
    },
    {
      "inputs": [],
      "name": "toTokenScale",
      "outputs": [
        {
          "internalType": "uint256",
          "name": "",
          "type": "uint256"
        }
      ],
      "stateMutability": "view",
      "type": "function"
    },
    {
      "inputs": [],
      "name": "twapDuration",
      "outputs": [
        {
          "internalType": "uint32",
          "name": "",
          "type": "uint32"
        }
      ],
      "stateMutability": "view",
      "type": "function"
    },
    {
      "inputs": [],
      "name": "version",
      "outputs": [
        {
          "internalType": "uint256",
          "name": "",
          "type": "uint256"
        }
      ],
      "stateMutability": "pure",
      "type": "function"
    }
  ],
  "numDeployments": 1,
  "bytecode": "0x6101608060405234620001285760608162001f6380380380916200002482856200012d565b83398101031262000128576200003a8162000167565b9060208101519063ffffffff821682036200012857604001516004811015620001285760ff6200008c620000846200009493868496336080528160a05260c0528160e05262000243565b94166200017c565b92166200017c565b610120908152610100918252620000aa620001a1565b61014090815260405191611ad693846200048d853960805184610274015260a05184818160d0015281816102f20152610393015260c05184818160af015281816102d10152610511015260e0518461054a01525183818161016001526104b5015251828181610187015261023801525181818160fa015261031c0152f35b600080fd5b601f909101601f19168101906001600160401b038211908210176200015157604052565b634e487b7160e01b600052604160045260246000fd5b51906001600160a01b03821682036200012857565b604d81116200018b57600a0a90565b634e487b7160e01b600052601160045260246000fd5b60e05160048110156200021e5780620001ba5750600490565b60018103620001c95750600390565b60028103620001d85750600290565b600303620001e557600190565b60405162461bcd60e51b815260206004820152600d60248201526c1b9bdd081cdd5c1c1bdc9d1959609a1b6044820152606490fd5b0390fd5b634e487b7160e01b600052602160045260246000fd5b519060ff821682036200012857565b60408051630b2339af60e21b81526060949392600492916001600160a01b0391879082908690829086165afa908115620003dd576000916200042f575b50825163313ce56760e01b81529491166020858581845afa948515620003dd57908791600096620003e8575b508351630a40bee560e41b815291908290869082905afa968715620003dd576000976200037d575b505082811015620003685760018103620002f057505050508190565b9294928062000300575050509190565b9294926003810362000316575050505060129190565b92945090916002036200032b57505060129190565b6200021a92505191829162461bcd60e51b8352820160609060208152600d60208201526c1b9bdd081cdd5c1c1bdc9d1959609a1b60408201520190565b602183634e487b7160e01b6000525260246000fd5b8181989293983d8311620003d5575b6200039881836200012d565b81010312620003d257600282511015620003d257508181620003c16020620003c9940162000167565b500162000234565b943880620002d4565b80fd5b503d6200038c565b83513d6000823e3d90fd5b9150946020823d821162000426575b8162000406602093836200012d565b81010312620003d25750866200041d859262000234565b959091620002ac565b3d9150620003f7565b908782813d831162000484575b6200044881836200012d565b81010312620003d25781519183831683036200048057602081015184811603620004805784015183811603620003d257503862000280565b5080fd5b503d6200043c56fe608060408181526004908136101561001657600080fd5b600092833560e01c9081630aa33a24146105355750806326d89545146104f4578063313ce567146104d85780634ae5fa9b1461049d57806354fd4d50146104815780637284e416146103c257806380f556051461037e5780639a6fc8f5146102a3578063c45a01551461025f578063ee81d997146102205763feaf968c1461009d57600080fd5b346101db57826003193601126101db577f00000000000000000000000000000000000000000000000000000000000000007f00000000000000000000000000000000000000000000000000000000000000006001600160a01b03167f00000000000000000000000000000000000000000000000000000000000000006001811461020c57806002146101f857806003146101df5760041461014b57634e487b7160e01b855260518452602485fd5b6101ac9293506101859161015e91611487565b7f0000000000000000000000000000000000000000000000000000000000000000906105c3565b7f0000000000000000000000000000000000000000000000000000000000000000906105d6565b906001600160ff1b0382116101db5791808360a094519382855260208501528301524260608301526080820152f35b8280fd5b506101ac929350610185916101f391611454565b61015e565b506101ac929350610185916101f39161062e565b506101ac929350610185916101f3916105f6565b83823461025b578160031936011261025b57602090517f00000000000000000000000000000000000000000000000000000000000000008152f35b5080fd5b83823461025b578160031936011261025b57517f00000000000000000000000000000000000000000000000000000000000000006001600160a01b03168152602090f35b50346101db5760203660031901126101db57813569ffffffffffffffffffff811680910361037a5761036d577f00000000000000000000000000000000000000000000000000000000000000007f00000000000000000000000000000000000000000000000000000000000000006001600160a01b03167f00000000000000000000000000000000000000000000000000000000000000006001811461020c57806002146101f857806003146101df5760041461014b57634e487b7160e01b855260518452602485fd5b5163bfbe031f60e01b8152fd5b8380fd5b83823461025b578160031936011261025b57517f00000000000000000000000000000000000000000000000000000000000000006001600160a01b03168152602090f35b5090346101db57826003193601126101db57815190606082019082821067ffffffffffffffff83111761046e57508252602281526020907f50656e646c6520436861696e6c696e6b2d636f6d70617469626c65204f72616382820152616c6560f01b8382015282519382859384528251928382860152825b84811061045857505050828201840152601f01601f19168101030190f35b818101830151888201880152879550820161043a565b634e487b7160e01b855260419052602484fd5b83823461025b578160031936011261025b576020905160018152f35b83823461025b578160031936011261025b57602090517f00000000000000000000000000000000000000000000000000000000000000008152f35b83823461025b578160031936011261025b576020905160128152f35b83823461025b578160031936011261025b576020905163ffffffff7f0000000000000000000000000000000000000000000000000000000000000000168152f35b8390853461058d578060031936011261058d577f0000000000000000000000000000000000000000000000000000000000000000908382101561057a57602083838152f35b634e487b7160e01b815260218452602490fd5b80fd5b90670de0b6b3a7640000918281029281840414901517156105ad57565b634e487b7160e01b600052601160045260246000fd5b818102929181159184041417156105ad57565b81156105e0570490565b634e487b7160e01b600052601260045260246000fd5b9061060c6106038361157e565b928391946106f7565b9181811061061957505090565b6106269061062b936105c3565b6105d6565b90565b61064361063a8261157e565b938491936106f7565b91808210610658575061062661062b92610590565b905061062661062b92610590565b90670de0b6b3a7640000918281029281840414901517156105ad5761062b916105d6565b90601f8019910116810190811067ffffffffffffffff8211176106ac57604052565b634e487b7160e01b600052604160045260246000fd5b818103929160001380158285131691841216176105ad57565b919091600083820193841291129080158216911516176105ad57565b60405163794052f360e01b8152600060048201819052936001600160a01b0393909260249261012090818186818a87165afa968715610bbb578897610af8575b50505060a085015142106107875750505090610776604061076c61077b94610766855191602087015190610c3f565b906106db565b925b015191610bff565b610d18565b9080821261058d575090565b604051936080850185811067ffffffffffffffff821117610ae5576040528685528660208601528660408601528660608601524260a08701511115610ad3576107d44260a0880151610bc6565b9060808701516301e133809182820291808305841490151715610a30576001600160ff1b0391828511610a6d578415610ac057600160ff1b8114600019861416610aad578490058a811315610a96578852602089015161083391610c3f565b80602089015288519081158015610a8e575b610a71575050875161010089015191602089015193610866868b51956105c3565b04908111610a6d5761087790610d22565b92670de0b6b3a76400008412610a55579061077661089861089e93836106db565b91610bff565b670de0b6b3a76400008114610a4357898112670de0b6b3a764000082810312811690670de0b6b3a76400008381031390151617610a30579361092c6109619461091d6109369561091761095c9b9a9661077661091261090d8d61077660029f670de0b6b3a76400000391610bff565b611012565b610bff565b906106c2565b60408b015260c08b0151610bd3565b606089015261181e565b61094e6109474260a08a0151610bc6565b8092610bd3565b948591610100890151610bd3565b6106db565b059061098e670de0b6b3a764000061098886516109826040890151886106c2565b90610c1c565b05610d22565b6109be836107766109b8670de0b6b3a76400006109af60208b015187610c1c565b058a51906106c2565b93610bff565b9182670de0b6b3a764000001928312600116610a1e57509361076661077694610776610912610a106040976109176020610a03610a189a61077b9f9e61077690610bff565b9801519161077689610bff565b9489516106db565b9261076e565b634e487b7160e01b8852601160045287fd5b634e487b7160e01b8a526011600452868afd5b60405163a9c8b14d60e01b8152600490fd5b60405163329e322960e21b8152600481018590528890fd5b8a80fd5b60449250876040519263b1c4aefb60e01b84526004840152820152fd5b508015610845565b879060405190630e520c3b60e11b82526004820152fd5b634e487b7160e01b8b526011600452878bfd5b634e487b7160e01b8b526012600452878bfd5b60405163b2094b5960e01b8152600490fd5b634e487b7160e01b885260416004528488fd5b90918093975082813d8311610bb4575b610b12818361068a565b81010312610b9d5760405192830183811067ffffffffffffffff821117610ba15760405281518352602082015160208401526040820151604084015260608201519081168103610b9d5760608301526080810151608083015260a081015160a083015260c081015160c083015260e081015160e0830152610100809101519082015293388080610737565b8780fd5b634e487b7160e01b895260416004528589fd5b503d610b08565b6040513d8a823e3d90fd5b919082039182116105ad57565b6301e1338091610be2916105c3565b046001600160ff1b038111610bfa5761062b90610d22565b600080fd5b90670de0b6b3a7640000918281029281840514901517156105ad57565b818102929160008212600160ff1b8214166105ad5781840514901517156105ad57565b6000821215610cb757600019915b600080821315610c835750670de0b6b3a764000091610c6b916105c3565b046001600160ff1b038111610bfa5761062b91610c1c565b600160ff1b8214610ca35791610c6b91670de0b6b3a764000093036105c3565b634e487b7160e01b81526011600452602490fd5b600191610c4d565b15610cc657565b60405162461bcd60e51b815260206004820152601060248201526f125b9d985b1a5908195e1c1bdb995b9d60821b6044820152606490fd5b80156105e0576ec097ce7bc90715b34b9f10000000000590565b81156105e0570590565b680238fd42c5cf03ffff1981121580610fff575b610d3f90610cbf565b60008112610fea576064906806f05b59d3b20000008112610f9d576806f05b59d3b1ffffff190168056bc75e2d6310000082770195e54c5dd42177f53a27172fa9ec630262827000000000925b0280829168ad78ebc5ac62000000811215610f77575b50806856bc75e2d63100000084921215610f53575b682b5e3af16b18800000811215610f31575b6815af1d78b58c400000811215610f0f575b680ad78ebc5ac6200000811215610eee575b81811215610ecd575b6802b5e3af16b1880000811215610eac575b68015af1d78b58c40000811215610e8b575b60028282800205056003838383020505600484848302050560058585830205056006868683020505600787878302050590600888888402050592600989898602050594600a8a8a8802050596600b8b8b8a02050598600c8c8c8c0205059a0101010101010101010101010205020590565b6806f5f1775788937937829168015af1d78b58c3ffff190193020591610e1a565b6808f00f760a4b2db55d82916802b5e3af16b187ffff190193020591610e08565b680ebc5fb41746121110829168056bc75e2d630fffff190193020591610df6565b68280e60114edb805d038291680ad78ebc5ac61fffff190193020591610ded565b690127fa27722cc06cc5e282916815af1d78b58c3fffff190193020591610ddb565b693f1fce3da636ea5cf8508291682b5e3af16b187fffff190193020591610dc9565b6b02df0ab5a80a22c61ab5a70082916856bc75e2d630ffffff190193020591610db7565b6e01855144814a7ff805980ff0084000925068ad78ebc5ac61ffffff1901905082610da2565b6803782dace9d90000008112610fd7576803782dace9d8ffffff190168056bc75e2d63100000826b1425982cf597cd205cef738092610d8c565b68056bc75e2d6310000082600192610d8c565b610ff690600003610d22565b61062b90610cfe565b5068070c1cc73b00c80000811315610d36565b60008113156110e55780670c7d713b49da000012806110d4575b156110cb57670de0b6b3a7640000906ec097ce7bc90715b34b9f10000000009061106f908302828101906ec097ce7bc90715b34b9f0fffffffff19018302610d18565b9080828002059181838202058284820205838582020591848684020593858786020595808888020597880205600f900596600d900595600b900594600990059360079005926005900591600390050101010101010160011b0590565b61062b9061111a565b50670f43fc2c04ee0000811261102c565b60405162461bcd60e51b815260206004820152600d60248201526c6f7574206f6620626f756e647360981b6044820152606490fd5b670de0b6b3a7640000811261143d5760649060007e1600ef3172e58d2e933ec884fde10064c63b5372d805e203c0000000000000821215611412575b73011798004d755d3c8bc8e03204cf44619e0000008212156113f1575b8202908202816e01855144814a7ff805980ff008400082818112156113ca575b5050506b02df0ab5a80a22c61ab5a700808212156113aa575b50693f1fce3da636ea5cf8508082121561138a575b50690127fa27722cc06cc5e28082121561136a575b5068280e60114edb805d038082121561134a575b50680ebc5fb4174612111080821215611333575b506808f00f760a4b2db55d80821215611313575b506806f5f1775788937937808212156112f3575b506806248f33704b286603808212156112d4575b506805c548670b9510e7ac808212156112b5575b5061127468056bc75e2d6310000091828082019168056bc75e2d630fffff190102610d18565b9080828002059181838202058284820205916003600560076009600b888a89020598808b8b02059a8b0205059805960594059205010101010160011b010590565b68056bc75e2d631000006756bc75e2d63100009202059101903861124e565b68056bc75e2d6310000067ad78ebc5ac6200009202059101903861123a565b68056bc75e2d6310000068015af1d78b58c4000092020591019038611226565b68056bc75e2d631000006802b5e3af16b188000092020591019038611212565b68056bc75e2d6310000080920205910190386111fe565b68056bc75e2d63100000680ad78ebc5ac6200000920205910190386111ea565b68056bc75e2d631000006815af1d78b58c400000920205910190386111d6565b68056bc75e2d63100000682b5e3af16b18800000920205910190386111c1565b68056bc75e2d631000006856bc75e2d631000000920205910190386111ac565b68056bc75e2d631000009192945068ad78ebc5ac6200000093500205910190388080611193565b6b1425982cf597cd205cef7380909105906803782dace9d900000001611173565b50770195e54c5dd42177f53a27172fa9ec63026282700000000090056806f05b59d3b2000000611156565b61144961144e91610cfe565b61111a565b60000390565b9061145e8261157e565b9081811061147157505061062b916114b8565b611482610626929361062b956114b8565b6105c3565b6114908161157e565b9091908083106114ad575061062b926114a8916114b8565b610666565b915061062b926114a8915b6040516370c264df60e11b815290916020826004816001600160a01b0387165afa9182156115725760009261153f575b504282116114ff57505050670de0b6b3a764000090565b61150f6115179161151d9461181e565b914290610bc6565b90610bd3565b60008112610bfa5780156105e0576ec097ce7bc90715b34b9f10000000000490565b90916020823d821161156a575b816115596020938361068a565b8101031261058d57505190386114e8565b3d915061154c565b6040513d6000823e3d90fd5b906040918251630b2339af60e21b815260608160048160018060a01b038096165afa9384156116cc576000918295611784575b5082815192633ba0b9a960e01b8452836004816020978894165afa92831561174a57600093611755575b5082951690805193636951ac2760e11b85528085600481865afa94851561174a5760009561171b575b50815163516399df60e01b8152928184600481845afa938415611710576000946116d6575b5083611650575b50505060001461163e575090565b908082111561164b575090565b905090565b82516360e0a9e160e01b81529293508190839060049082905afa9283156116cc575060009261168f575b50506001600160801b03164314388080611630565b81813d83116116c5575b6116a3818361068a565b8101031261025b5751906001600160801b038216820361058d5750388061167a565b503d611699565b513d6000823e3d90fd5b8281819693963d8311611709575b6116ee818361068a565b8101031261025b575190811515820361058d57509238611629565b503d6116e4565b83513d6000823e3d90fd5b90948582813d8311611743575b611732818361068a565b8101031261058d5750519338611604565b503d611728565b82513d6000823e3d90fd5b90928482813d831161177d575b61176c818361068a565b8101031261058d57505191386115db565b503d611762565b9094506060813d82116117d6575b8161179f6060938361068a565b8101031261025b5780519083821682036101db576020810151848116036101db5785015191838316830361058d57509093386115b1565b3d9150611792565b519081600f0b8203610bfa57565b519061ffff82168203610bfa57565b8051156118085760200190565b634e487b7160e01b600052603260045260246000fd5b9063ffffffff8091169081156119d3576040928351606081019167ffffffffffffffff92828110848211176106ac578652600282526020918281018736823786611867836117fb565b52875195869263883bdbfd60e01b84526024840190866004860152518091526044840192916000905b878383106119b6575060009694869003948694506001600160a01b0316925050505afa9283156119ab576000936118fd575b50505080516001101561180857918201516001600160d81b03929083169083906118eb906117fb565b511690038281116105ad578216041690565b9091923d8082843e61190f818461068a565b820191838184031261025b578051908582116101db57019082601f8301121561058d578151948511611997578460051b9187519561194f8685018861068a565b8652848087019382010193841161025b578401915b8383106119785750505050503880806118c2565b82516001600160d81b03811681036101db578152918401918401611964565b634e487b7160e01b81526041600452602490fd5b85513d6000823e3d90fd5b8451821686528a9650948501949093019260019190910190611890565b50506040516361fdc86b60e11b81529060c090829060049082906001600160a01b03165afa90811561157257600091611a14575b506001600160601b031690565b60c0813d8211611a98575b81611a2c60c0938361068a565b8101031261025b57611a3d816117de565b50611a4a602082016117de565b506040810151916001600160601b038316830361058d575090611a9160a083611a7d60606001600160601b0396016117ec565b50611a8a608082016117ec565b50016117ec565b5090611a07565b3d9150611a1f56fea264697066735822122001a8a84c0807ae5ed4b25b37f232e0543b8eebfc4d73799458bd2de3b57770c364736f6c63430008140033"
}