{
  "address": "0x5Fd659e8b147eA7dA0E4d924e3D435a1dEC0ef7B",
  "abi": [
    {
      "inputs": [
        {
          "internalType": "address",
          "name": "baseCurrency",
          "type": "address"
        },
        {
          "internalType": "uint256",
          "name": "_baseCurrencyUnit",
          "type": "uint256"
        }
      ],
      "stateMutability": "nonpayable",
      "type": "constructor"
    },
    {
      "inputs": [],
      "name": "AccessControlBadConfirmation",
      "type": "error"
    },
    {
      "inputs": [
        {
          "internalType": "address",
          "name": "account",
          "type": "address"
        },
        {
          "internalType": "bytes32",
          "name": "neededRole",
          "type": "bytes32"
        }
      ],
      "name": "AccessControlUnauthorizedAccount",
      "type": "error"
    },
    {
      "inputs": [
        {
          "internalType": "address",
          "name": "asset",
          "type": "address"
        }
      ],
      "name": "FeedNotSet",
      "type": "error"
    },
    {
      "inputs": [],
      "name": "InvalidPrice",
      "type": "error"
    },
    {
      "inputs": [],
      "name": "InvalidUnit",
      "type": "error"
    },
    {
      "inputs": [],
      "name": "PriceIsStale",
      "type": "error"
    },
    {
      "anonymous": false,
      "inputs": [
        {
          "indexed": true,
          "internalType": "address",
          "name": "asset",
          "type": "address"
        },
        {
          "indexed": false,
          "internalType": "address",
          "name": "feed1",
          "type": "address"
        },
        {
          "indexed": false,
          "internalType": "address",
          "name": "rateProvider",
          "type": "address"
        },
        {
          "indexed": false,
          "internalType": "uint256",
          "name": "lowerThresholdInBase1",
          "type": "uint256"
        },
        {
          "indexed": false,
          "internalType": "uint256",
          "name": "fixedPriceInBase1",
          "type": "uint256"
        },
        {
          "indexed": false,
          "internalType": "uint256",
          "name": "lowerThresholdInBase2",
          "type": "uint256"
        },
        {
          "indexed": false,
          "internalType": "uint256",
          "name": "fixedPriceInBase2",
          "type": "uint256"
        }
      ],
      "name": "CompositeFeedAdded",
      "type": "event"
    },
    {
      "anonymous": false,
      "inputs": [
        {
          "indexed": true,
          "internalType": "address",
          "name": "asset",
          "type": "address"
        }
      ],
      "name": "CompositeFeedRemoved",
      "type": "event"
    },
    {
      "anonymous": false,
      "inputs": [
        {
          "indexed": true,
          "internalType": "address",
          "name": "asset",
          "type": "address"
        },
        {
          "indexed": false,
          "internalType": "uint256",
          "name": "lowerThresholdInBase1",
          "type": "uint256"
        },
        {
          "indexed": false,
          "internalType": "uint256",
          "name": "fixedPriceInBase1",
          "type": "uint256"
        },
        {
          "indexed": false,
          "internalType": "uint256",
          "name": "lowerThresholdInBase2",
          "type": "uint256"
        },
        {
          "indexed": false,
          "internalType": "uint256",
          "name": "fixedPriceInBase2",
          "type": "uint256"
        }
      ],
      "name": "CompositeFeedUpdated",
      "type": "event"
    },
    {
      "anonymous": false,
      "inputs": [
        {
          "indexed": true,
          "internalType": "bytes32",
          "name": "role",
          "type": "bytes32"
        },
        {
          "indexed": true,
          "internalType": "bytes32",
          "name": "previousAdminRole",
          "type": "bytes32"
        },
        {
          "indexed": true,
          "internalType": "bytes32",
          "name": "newAdminRole",
          "type": "bytes32"
        }
      ],
      "name": "RoleAdminChanged",
      "type": "event"
    },
    {
      "anonymous": false,
      "inputs": [
        {
          "indexed": true,
          "internalType": "bytes32",
          "name": "role",
          "type": "bytes32"
        },
        {
          "indexed": true,
          "internalType": "address",
          "name": "account",
          "type": "address"
        },
        {
          "indexed": true,
          "internalType": "address",
          "name": "sender",
          "type": "address"
        }
      ],
      "name": "RoleGranted",
      "type": "event"
    },
    {
      "anonymous": false,
      "inputs": [
        {
          "indexed": true,
          "internalType": "bytes32",
          "name": "role",
          "type": "bytes32"
        },
        {
          "indexed": true,
          "internalType": "address",
          "name": "account",
          "type": "address"
        },
        {
          "indexed": true,
          "internalType": "address",
          "name": "sender",
          "type": "address"
        }
      ],
      "name": "RoleRevoked",
      "type": "event"
    },
    {
      "inputs": [],
      "name": "BASE_CURRENCY",
      "outputs": [
        {
          "internalType": "address",
          "name": "",
          "type": "address"
        }
      ],
      "stateMutability": "view",
      "type": "function"
    },
    {
      "inputs": [],
      "name": "BASE_CURRENCY_UNIT",
      "outputs": [
        {
          "internalType": "uint256",
          "name": "",
          "type": "uint256"
        }
      ],
      "stateMutability": "view",
      "type": "function"
    },
    {
      "inputs": [],
      "name": "CHAINLINK_BASE_CURRENCY_UNIT",
      "outputs": [
        {
          "internalType": "uint256",
          "name": "",
          "type": "uint256"
        }
      ],
      "stateMutability": "view",
      "type": "function"
    },
    {
      "inputs": [],
      "name": "CHAINLINK_HEARTBEAT",
      "outputs": [
        {
          "internalType": "uint256",
          "name": "",
          "type": "uint256"
        }
      ],
      "stateMutability": "view",
      "type": "function"
    },
    {
      "inputs": [],
      "name": "DEFAULT_ADMIN_ROLE",
      "outputs": [
        {
          "internalType": "bytes32",
          "name": "",
          "type": "bytes32"
        }
      ],
      "stateMutability": "view",
      "type": "function"
    },
    {
      "inputs": [],
      "name": "ORACLE_MANAGER_ROLE",
      "outputs": [
        {
          "internalType": "bytes32",
          "name": "",
          "type": "bytes32"
        }
      ],
      "stateMutability": "view",
      "type": "function"
    },
    {
      "inputs": [
        {
          "internalType": "address",
          "name": "asset",
          "type": "address"
        },
        {
          "internalType": "address",
          "name": "feed1",
          "type": "address"
        },
        {
          "internalType": "address",
          "name": "rateProvider",
          "type": "address"
        },
        {
          "internalType": "uint256",
          "name": "lowerThresholdInBase1",
          "type": "uint256"
        },
        {
          "internalType": "uint256",
          "name": "fixedPriceInBase1",
          "type": "uint256"
        },
        {
          "internalType": "uint256",
          "name": "lowerThresholdInBase2",
          "type": "uint256"
        },
        {
          "internalType": "uint256",
          "name": "fixedPriceInBase2",
          "type": "uint256"
        }
      ],
      "name": "addCompositeFeed",
      "outputs": [],
      "stateMutability": "nonpayable",
      "type": "function"
    },
    {
      "inputs": [
        {
          "internalType": "address",
          "name": "",
          "type": "address"
        }
      ],
      "name": "compositeFeeds",
      "outputs": [
        {
          "internalType": "address",
          "name": "feed1",
          "type": "address"
        },
        {
          "internalType": "address",
          "name": "rateProvider",
          "type": "address"
        },
        {
          "internalType": "uint256",
          "name": "rateProviderUnit",
          "type": "uint256"
        },
        {
          "components": [
            {
              "internalType": "uint256",
              "name": "lowerThresholdInBase",
              "type": "uint256"
            },
            {
              "internalType": "uint256",
              "name": "fixedPriceInBase",
              "type": "uint256"
            }
          ],
          "internalType": "struct ThresholdingUtils.ThresholdConfig",
          "name": "primaryThreshold",
          "type": "tuple"
        },
        {
          "components": [
            {
              "internalType": "uint256",
              "name": "lowerThresholdInBase",
              "type": "uint256"
            },
            {
              "internalType": "uint256",
              "name": "fixedPriceInBase",
              "type": "uint256"
            }
          ],
          "internalType": "struct ThresholdingUtils.ThresholdConfig",
          "name": "secondaryThreshold",
          "type": "tuple"
        }
      ],
      "stateMutability": "view",
      "type": "function"
    },
    {
      "inputs": [
        {
          "internalType": "address",
          "name": "asset",
          "type": "address"
        }
      ],
      "name": "getAssetPrice",
      "outputs": [
        {
          "internalType": "uint256",
          "name": "",
          "type": "uint256"
        }
      ],
      "stateMutability": "view",
      "type": "function"
    },
    {
      "inputs": [
        {
          "internalType": "address",
          "name": "asset",
          "type": "address"
        }
      ],
      "name": "getPriceInfo",
      "outputs": [
        {
          "internalType": "uint256",
          "name": "price",
          "type": "uint256"
        },
        {
          "internalType": "bool",
          "name": "isAlive",
          "type": "bool"
        }
      ],
      "stateMutability": "view",
      "type": "function"
    },
    {
      "inputs": [
        {
          "internalType": "bytes32",
          "name": "role",
          "type": "bytes32"
        }
      ],
      "name": "getRoleAdmin",
      "outputs": [
        {
          "internalType": "bytes32",
          "name": "",
          "type": "bytes32"
        }
      ],
      "stateMutability": "view",
      "type": "function"
    },
    {
      "inputs": [
        {
          "internalType": "bytes32",
          "name": "role",
          "type": "bytes32"
        },
        {
          "internalType": "address",
          "name": "account",
          "type": "address"
        }
      ],
      "name": "grantRole",
      "outputs": [],
      "stateMutability": "nonpayable",
      "type": "function"
    },
    {
      "inputs": [
        {
          "internalType": "bytes32",
          "name": "role",
          "type": "bytes32"
        },
        {
          "internalType": "address",
          "name": "account",
          "type": "address"
        }
      ],
      "name": "hasRole",
      "outputs": [
        {
          "internalType": "bool",
          "name": "",
          "type": "bool"
        }
      ],
      "stateMutability": "view",
      "type": "function"
    },
    {
      "inputs": [],
      "name": "heartbeatStaleTimeLimit",
      "outputs": [
        {
          "internalType": "uint256",
          "name": "",
          "type": "uint256"
        }
      ],
      "stateMutability": "view",
      "type": "function"
    },
    {
      "inputs": [
        {
          "internalType": "address",
          "name": "asset",
          "type": "address"
        }
      ],
      "name": "removeCompositeFeed",
      "outputs": [],
      "stateMutability": "nonpayable",
      "type": "function"
    },
    {
      "inputs": [
        {
          "internalType": "bytes32",
          "name": "role",
          "type": "bytes32"
        },
        {
          "internalType": "address",
          "name": "callerConfirmation",
          "type": "address"
        }
      ],
      "name": "renounceRole",
      "outputs": [],
      "stateMutability": "nonpayable",
      "type": "function"
    },
    {
      "inputs": [
        {
          "internalType": "bytes32",
          "name": "role",
          "type": "bytes32"
        },
        {
          "internalType": "address",
          "name": "account",
          "type": "address"
        }
      ],
      "name": "revokeRole",
      "outputs": [],
      "stateMutability": "nonpayable",
      "type": "function"
    },
    {
      "inputs": [
        {
          "internalType": "uint256",
          "name": "_newHeartbeatStaleTimeLimit",
          "type": "uint256"
        }
      ],
      "name": "setHeartbeatStaleTimeLimit",
      "outputs": [],
      "stateMutability": "nonpayable",
      "type": "function"
    },
    {
      "inputs": [
        {
          "internalType": "bytes4",
          "name": "interfaceId",
          "type": "bytes4"
        }
      ],
      "name": "supportsInterface",
      "outputs": [
        {
          "internalType": "bool",
          "name": "",
          "type": "bool"
        }
      ],
      "stateMutability": "view",
      "type": "function"
    },
    {
      "inputs": [
        {
          "internalType": "address",
          "name": "asset",
          "type": "address"
        },
        {
          "internalType": "uint256",
          "name": "lowerThresholdInBase1",
          "type": "uint256"
        },
        {
          "internalType": "uint256",
          "name": "fixedPriceInBase1",
          "type": "uint256"
        },
        {
          "internalType": "uint256",
          "name": "lowerThresholdInBase2",
          "type": "uint256"
        },
        {
          "internalType": "uint256",
          "name": "fixedPriceInBase2",
          "type": "uint256"
        }
      ],
      "name": "updateCompositeFeed",
      "outputs": [],
      "stateMutability": "nonpayable",
      "type": "function"
    }
  ],
  "transactionHash": "0x33f2f16e08d1d039bf36c94f1deb697facde8493702b5f98c6b946be4dd357cb",
  "args": [
    "0x0000000000000000000000000000000000000000",
    "1000000000000000000"
  ],
  "numDeployments": 1,
  "solcInputHash": "1a4e05691a48b6d81923e90c5aadd824",
  "bytecode": "0x60c06040526107086001553480156200001757600080fd5b5060405162001421380380620014218339810160408190526200003a916200015d565b6001600160a01b03821660805260a081905281816200005b600033620000ae565b50620000776000805160206200140183398151915233620000ae565b506200008991506000905033620000ae565b50620000a56000805160206200140183398151915233620000ae565b50505062000199565b6000828152602081815260408083206001600160a01b038516845290915281205460ff1662000153576000838152602081815260408083206001600160a01b03861684529091529020805460ff191660011790556200010a3390565b6001600160a01b0316826001600160a01b0316847f2f8788117e7eff1d82e926ec794901d17c78024a50270940304540a733656f0d60405160405180910390a450600162000157565b5060005b92915050565b600080604083850312156200017157600080fd5b82516001600160a01b03811681146200018957600080fd5b6020939093015192949293505050565b60805160a05161122d620001d4600039600081816101e6015281816107d9015281816108440152610ca9015260006102c3015261122d6000f3fe608060405234801561001057600080fd5b506004361061012c5760003560e01c806391d14854116100ad578063c5efe27c11610071578063c5efe27c14610290578063d547741f146102a3578063e19f4700146102b6578063eae06eec146102ed578063f99256d5146102f857600080fd5b806391d14854146102435780639a999d4514610256578063a217fddf14610260578063b3596f0714610268578063bfc69e1c1461027b57600080fd5b806336568abe116100f457806336568abe146101bb578063519ffff1146101ce5780638c89b64f146101e15780638edbf436146102085780638f5997151461023057600080fd5b806301ffc9a71461013157806304dea65114610159578063248a9ca31461016e5780632ecac6fc1461019f5780632f2ff15d146101a8575b600080fd5b61014461013f366004610e19565b610379565b60405190151581526020015b60405180910390f35b61016c610167366004610e5f565b6103b0565b005b61019161017c366004610ea1565b60009081526020819052604090206001015490565b604051908152602001610150565b61019160015481565b61016c6101b6366004610eba565b61051a565b61016c6101c9366004610eba565b610545565b61016c6101dc366004610ee6565b61057d565b6101917f000000000000000000000000000000000000000000000000000000000000000081565b61021b610216366004610ee6565b610617565b60408051928352901515602083015201610150565b61016c61023e366004610f01565b6108ad565b610144610251366004610eba565b610af0565b6101916201518081565b610191600081565b610191610276366004610ee6565b610b19565b6101916000805160206111d883398151915281565b61016c61029e366004610ea1565b610b50565b61016c6102b1366004610eba565b610b6e565b6040516001600160a01b037f0000000000000000000000000000000000000000000000000000000000000000168152602001610150565b6101916305f5e10081565b610368610306366004610ee6565b60026020818152600092835260409283902080546001820154938201548551808701875260038401548152600484015481860152865180880190975260058401548752600690930154938601939093526001600160a01b039081169493169285565b604051610150959493929190610f69565b60006001600160e01b03198216637965db0b60e01b14806103aa57506301ffc9a760e01b6001600160e01b03198316145b92915050565b6000805160206111d88339815191526103c881610b93565b6001600160a01b038087166000908152600260205260409020805490911615806103fd575060018101546001600160a01b0316155b1561042b57604051630dcaf86b60e01b81526001600160a01b03881660048201526024015b60405180910390fd5b6000876001600160a01b031663313ce5676040518163ffffffff1660e01b8152600401602060405180830381865afa15801561046b573d6000803e3d6000fd5b505050506040513d601f19601f8201168201806040525081019061048f9190610fba565b905061049c81600a6110d7565b6002830155600382018790556004820186905560058201859055600682018490556040805188815260208101889052908101869052606081018590526001600160a01b038916907fbdebb389cb3e5b0a7c038b900aeea5b6e265e74efd0de50488c3574a4d7861d59060800160405180910390a25050505050505050565b60008281526020819052604090206001015461053581610b93565b61053f8383610ba0565b50505050565b6001600160a01b038116331461056e5760405163334bd91960e11b815260040160405180910390fd5b6105788282610c32565b505050565b6000805160206111d883398151915261059581610b93565b6001600160a01b038216600081815260026020819052604080832080546001600160a01b0319908116825560018201805490911690559182018390556003820183905560048201839055600582018390556006909101829055517fdabc58d0456c50872fa82879bc9ce7f6a455b4372db632857a62de4abd0996919190a25050565b6001600160a01b038082166000908152600260208181526040808420815160a0810183528154871681526001820154871681850152938101548483015281518083018352600382015481526004820154818501526060850152815180830190925260058101548252600601549181019190915260808201528051919283921615806106ad575060208101516001600160a01b0316155b156106d657604051630dcaf86b60e01b81526001600160a01b0385166004820152602401610422565b60008082600001516001600160a01b031663feaf968c6040518163ffffffff1660e01b815260040160a060405180830381865afa15801561071b573d6000803e3d6000fd5b505050506040513d601f19601f8201168201806040525081019061073f9190611100565b509350509250506000808313610756576000610758565b825b9050600061076582610c9d565b9050600085602001516001600160a01b031663282a87006040518163ffffffff1660e01b8152600401602060405180830381865afa1580156107ab573d6000803e3d6000fd5b505050506040513d601f19601f820116820180604052508101906107cf9190611150565b90506000610802827f00000000000000000000000000000000000000000000000000000000000000008960400151610cd8565b606088015151909150156108215761081e838860600151610d8e565b92505b6080870151511561083d5761083a818860800151610d8e565b90505b61086883827f0000000000000000000000000000000000000000000000000000000000000000610cd8565b9850600089118015610893575060015442906108876201518088611169565b6108919190611169565b115b801561089f5750600082115b975050505050505050915091565b6000805160206111d88339815191526108c581610b93565b6000886001600160a01b031663313ce5676040518163ffffffff1660e01b8152600401602060405180830381865afa158015610905573d6000803e3d6000fd5b505050506040513d601f19601f820116820180604052508101906109299190610fba565b60ff169050600061093b82600a61117c565b90506040518060a001604052808a6001600160a01b03168152602001896001600160a01b0316815260200182815260200160405180604001604052808a8152602001898152508152602001604051806040016040528088815260200187815250815250600260008c6001600160a01b03166001600160a01b0316815260200190815260200160002060008201518160000160006101000a8154816001600160a01b0302191690836001600160a01b0316021790555060208201518160010160006101000a8154816001600160a01b0302191690836001600160a01b03160217905550604082015181600201556060820151816003016000820151816000015560208201518160010155505060808201518160050160008201518160000155602082015181600101555050905050896001600160a01b03167f8af3f37e726b4aaf30de76bd00359c9166bf6b9a01e457c3d4557df631227eed8a8a8a8a8a8a604051610adc969594939291906001600160a01b03968716815294909516602085015260408401929092526060830152608082015260a081019190915260c00190565b60405180910390a250505050505050505050565b6000918252602082815260408084206001600160a01b0393909316845291905290205460ff1690565b6000806000610b2784610617565b9150915080610b49576040516342bc305b60e11b815260040160405180910390fd5b5092915050565b6000805160206111d8833981519152610b6881610b93565b50600155565b600082815260208190526040902060010154610b8981610b93565b61053f8383610c32565b610b9d8133610dac565b50565b6000610bac8383610af0565b610c2a576000838152602081815260408083206001600160a01b03861684529091529020805460ff19166001179055610be23390565b6001600160a01b0316826001600160a01b0316847f2f8788117e7eff1d82e926ec794901d17c78024a50270940304540a733656f0d60405160405180910390a45060016103aa565b5060006103aa565b6000610c3e8383610af0565b15610c2a576000838152602081815260408083206001600160a01b0386168085529252808320805460ff1916905551339286917ff6391f5c32d9c69d2a47ea670b442974b53935d1edc7fd64eb21e047a839171b9190a45060016103aa565b60006305f5e100610cce7f000000000000000000000000000000000000000000000000000000000000000084611188565b6103aa91906111b5565b6000806000610ce78686610de9565b9150915081600003610d0c57838181610d0257610d0261119f565b0492505050610d87565b818411610d2357610d236003851502601118610e07565b6000848688096000868103871696879004966002600389028118808a02820302808a02820302808a02820302808a02820302808a02820302808a02909103029181900381900460010185841190960395909502919093039390930492909217029150505b9392505050565b8051600090831115610da5575060208101516103aa565b5090919050565b610db68282610af0565b610de55760405163e2517d3f60e01b81526001600160a01b038216600482015260248101839052604401610422565b5050565b60008060001983850993909202808410938190039390930393915050565b634e487b71600052806020526024601cfd5b600060208284031215610e2b57600080fd5b81356001600160e01b031981168114610d8757600080fd5b80356001600160a01b0381168114610e5a57600080fd5b919050565b600080600080600060a08688031215610e7757600080fd5b610e8086610e43565b97602087013597506040870135966060810135965060800135945092505050565b600060208284031215610eb357600080fd5b5035919050565b60008060408385031215610ecd57600080fd5b82359150610edd60208401610e43565b90509250929050565b600060208284031215610ef857600080fd5b610d8782610e43565b600080600080600080600060e0888a031215610f1c57600080fd5b610f2588610e43565b9650610f3360208901610e43565b9550610f4160408901610e43565b969995985095966060810135965060808101359560a0820135955060c0909101359350915050565b6001600160a01b038681168252851660208201526040810184905260e08101610f9f606083018580518252602090810151910152565b825160a0830152602083015160c08301529695505050505050565b600060208284031215610fcc57600080fd5b815160ff81168114610d8757600080fd5b634e487b7160e01b600052601160045260246000fd5b600181815b8085111561102e57816000190482111561101457611014610fdd565b8085161561102157918102915b93841c9390800290610ff8565b509250929050565b600082611045575060016103aa565b81611052575060006103aa565b816001811461106857600281146110725761108e565b60019150506103aa565b60ff84111561108357611083610fdd565b50506001821b6103aa565b5060208310610133831016604e8410600b84101617156110b1575081810a6103aa565b6110bb8383610ff3565b80600019048211156110cf576110cf610fdd565b029392505050565b6000610d8760ff841683611036565b805169ffffffffffffffffffff81168114610e5a57600080fd5b600080600080600060a0868803121561111857600080fd5b611121866110e6565b9450602086015193506040860151925060608601519150611144608087016110e6565b90509295509295909350565b60006020828403121561116257600080fd5b5051919050565b808201808211156103aa576103aa610fdd565b6000610d878383611036565b80820281158282048414176103aa576103aa610fdd565b634e487b7160e01b600052601260045260246000fd5b6000826111d257634e487b7160e01b600052601260045260246000fd5b50049056feced6982f480260bdd8ad5cb18ff2854f0306d78d904ad6cc107e8f3a0f526c18a2646970667358221220b5ffc2e4d5ec6129403d897d4432922457e9ec3735752380fbc05359f77e831964736f6c63430008160033ced6982f480260bdd8ad5cb18ff2854f0306d78d904ad6cc107e8f3a0f526c18",
  "devdoc": {
    "errors": {
      "AccessControlBadConfirmation()": [
        {
          "details": "The caller of a function is not the expected one. NOTE: Don't confuse with {AccessControlUnauthorizedAccount}."
        }
      ],
      "AccessControlUnauthorizedAccount(address,bytes32)": [
        {
          "details": "The `account` is missing a role."
        }
      ]
    },
    "events": {
      "RoleAdminChanged(bytes32,bytes32,bytes32)": {
        "details": "Emitted when `newAdminRole` is set as ``role``'s admin role, replacing `previousAdminRole` `DEFAULT_ADMIN_ROLE` is the starting admin for all roles, despite {RoleAdminChanged} not being emitted to signal this."
      },
      "RoleGranted(bytes32,address,address)": {
        "details": "Emitted when `account` is granted `role`. `sender` is the account that originated the contract call. This account bears the admin role (for the granted role). Expected in cases where the role was granted using the internal {AccessControl-_grantRole}."
      },
      "RoleRevoked(bytes32,address,address)": {
        "details": "Emitted when `account` is revoked `role`. `sender` is the account that originated the contract call:   - if using `revokeRole`, it is the admin role bearer   - if using `renounceRole`, it is the role bearer (i.e. `account`)"
      }
    },
    "kind": "dev",
    "methods": {
      "BASE_CURRENCY()": {
        "returns": {
          "_0": "Returns the base currency address"
        }
      },
      "getAssetPrice(address)": {
        "params": {
          "asset": "The address of the asset to get the price for"
        },
        "returns": {
          "_0": "The current price of the asset"
        }
      },
      "getPriceInfo(address)": {
        "params": {
          "asset": "The address of the asset to get the price for"
        },
        "returns": {
          "isAlive": "Whether the price feed is considered active/valid",
          "price": "The price of the asset in base currency units"
        }
      },
      "getRoleAdmin(bytes32)": {
        "details": "Returns the admin role that controls `role`. See {grantRole} and {revokeRole}. To change a role's admin, use {_setRoleAdmin}."
      },
      "grantRole(bytes32,address)": {
        "details": "Grants `role` to `account`. If `account` had not been already granted `role`, emits a {RoleGranted} event. Requirements: - the caller must have ``role``'s admin role. May emit a {RoleGranted} event."
      },
      "hasRole(bytes32,address)": {
        "details": "Returns `true` if `account` has been granted `role`."
      },
      "renounceRole(bytes32,address)": {
        "details": "Revokes `role` from the calling account. Roles are often managed via {grantRole} and {revokeRole}: this function's purpose is to provide a mechanism for accounts to lose their privileges if they are compromised (such as when a trusted device is misplaced). If the calling account had been revoked `role`, emits a {RoleRevoked} event. Requirements: - the caller must be `callerConfirmation`. May emit a {RoleRevoked} event."
      },
      "revokeRole(bytes32,address)": {
        "details": "Revokes `role` from `account`. If `account` had been granted `role`, emits a {RoleRevoked} event. Requirements: - the caller must have ``role``'s admin role. May emit a {RoleRevoked} event."
      },
      "setHeartbeatStaleTimeLimit(uint256)": {
        "params": {
          "_newHeartbeatStaleTimeLimit": "The new heartbeat stale time limit"
        }
      },
      "supportsInterface(bytes4)": {
        "details": "Returns true if this contract implements the interface defined by `interfaceId`. See the corresponding https://eips.ethereum.org/EIPS/eip-165#how-interfaces-are-identified[ERC section] to learn more about how these ids are created. This function call must use less than 30 000 gas."
      }
    },
    "title": "ChainlinkRateProviderCompositeWrapperWithThresholding",
    "version": 1
  },
  "userdoc": {
    "kind": "user",
    "methods": {
      "BASE_CURRENCY()": {
        "notice": "Returns the base currency address"
      },
      "BASE_CURRENCY_UNIT()": {
        "notice": "Returns the base currency unit"
      },
      "getAssetPrice(address)": {
        "notice": "Gets the current price of an asset"
      },
      "getPriceInfo(address)": {
        "notice": "Gets the price information for an asset"
      },
      "setHeartbeatStaleTimeLimit(uint256)": {
        "notice": "Sets the heartbeat stale time limit"
      }
    },
    "notice": "Composes a Chainlink price feed with a generic rate provider, with optional thresholding         on each leg. Resulting price is scaled to BASE_CURRENCY_UNIT. Example for wstkscUSD -> scUSD:  - feed1: Chainlink EACAggregatorProxy for wstkscUSD -> stkscUSD (8 decimals typical)  - rateProvider: AccountantWithFixedRate (stkscUSD -> scUSD) returning a rate with `rateProviderUnit` decimals  - price(asset) = CL(wstkscUSD/stkscUSD in base) * RP(stkscUSD/scUSD in base) / BASE_CURRENCY_UNIT",
    "version": 1
  },
  "storageLayout": {
    "storage": [
      {
        "astId": 27,
        "contract": "contracts/oracle_aggregator/wrapper/ChainlinkSafeRateProviderCompositeWrapperWithThresholding.sol:ChainlinkSafeRateProviderCompositeWrapperWithThresholding",
        "label": "_roles",
        "offset": 0,
        "slot": "0",
        "type": "t_mapping(t_bytes32,t_struct(RoleData)22_storage)"
      },
      {
        "astId": 4141,
        "contract": "contracts/oracle_aggregator/wrapper/ChainlinkSafeRateProviderCompositeWrapperWithThresholding.sol:ChainlinkSafeRateProviderCompositeWrapperWithThresholding",
        "label": "heartbeatStaleTimeLimit",
        "offset": 0,
        "slot": "1",
        "type": "t_uint256"
      },
      {
        "astId": 4320,
        "contract": "contracts/oracle_aggregator/wrapper/ChainlinkSafeRateProviderCompositeWrapperWithThresholding.sol:ChainlinkSafeRateProviderCompositeWrapperWithThresholding",
        "label": "compositeFeeds",
        "offset": 0,
        "slot": "2",
        "type": "t_mapping(t_address,t_struct(CompositeFeed)4315_storage)"
      }
    ],
    "types": {
      "t_address": {
        "encoding": "inplace",
        "label": "address",
        "numberOfBytes": "20"
      },
      "t_bool": {
        "encoding": "inplace",
        "label": "bool",
        "numberOfBytes": "1"
      },
      "t_bytes32": {
        "encoding": "inplace",
        "label": "bytes32",
        "numberOfBytes": "32"
      },
      "t_mapping(t_address,t_bool)": {
        "encoding": "mapping",
        "key": "t_address",
        "label": "mapping(address => bool)",
        "numberOfBytes": "32",
        "value": "t_bool"
      },
      "t_mapping(t_address,t_struct(CompositeFeed)4315_storage)": {
        "encoding": "mapping",
        "key": "t_address",
        "label": "mapping(address => struct ChainlinkSafeRateProviderCompositeWrapperWithThresholding.CompositeFeed)",
        "numberOfBytes": "32",
        "value": "t_struct(CompositeFeed)4315_storage"
      },
      "t_mapping(t_bytes32,t_struct(RoleData)22_storage)": {
        "encoding": "mapping",
        "key": "t_bytes32",
        "label": "mapping(bytes32 => struct AccessControl.RoleData)",
        "numberOfBytes": "32",
        "value": "t_struct(RoleData)22_storage"
      },
      "t_struct(CompositeFeed)4315_storage": {
        "encoding": "inplace",
        "label": "struct ChainlinkSafeRateProviderCompositeWrapperWithThresholding.CompositeFeed",
        "members": [
          {
            "astId": 4304,
            "contract": "contracts/oracle_aggregator/wrapper/ChainlinkSafeRateProviderCompositeWrapperWithThresholding.sol:ChainlinkSafeRateProviderCompositeWrapperWithThresholding",
            "label": "feed1",
            "offset": 0,
            "slot": "0",
            "type": "t_address"
          },
          {
            "astId": 4306,
            "contract": "contracts/oracle_aggregator/wrapper/ChainlinkSafeRateProviderCompositeWrapperWithThresholding.sol:ChainlinkSafeRateProviderCompositeWrapperWithThresholding",
            "label": "rateProvider",
            "offset": 0,
            "slot": "1",
            "type": "t_address"
          },
          {
            "astId": 4308,
            "contract": "contracts/oracle_aggregator/wrapper/ChainlinkSafeRateProviderCompositeWrapperWithThresholding.sol:ChainlinkSafeRateProviderCompositeWrapperWithThresholding",
            "label": "rateProviderUnit",
            "offset": 0,
            "slot": "2",
            "type": "t_uint256"
          },
          {
            "astId": 4311,
            "contract": "contracts/oracle_aggregator/wrapper/ChainlinkSafeRateProviderCompositeWrapperWithThresholding.sol:ChainlinkSafeRateProviderCompositeWrapperWithThresholding",
            "label": "primaryThreshold",
            "offset": 0,
            "slot": "3",
            "type": "t_struct(ThresholdConfig)5235_storage"
          },
          {
            "astId": 4314,
            "contract": "contracts/oracle_aggregator/wrapper/ChainlinkSafeRateProviderCompositeWrapperWithThresholding.sol:ChainlinkSafeRateProviderCompositeWrapperWithThresholding",
            "label": "secondaryThreshold",
            "offset": 0,
            "slot": "5",
            "type": "t_struct(ThresholdConfig)5235_storage"
          }
        ],
        "numberOfBytes": "224"
      },
      "t_struct(RoleData)22_storage": {
        "encoding": "inplace",
        "label": "struct AccessControl.RoleData",
        "members": [
          {
            "astId": 19,
            "contract": "contracts/oracle_aggregator/wrapper/ChainlinkSafeRateProviderCompositeWrapperWithThresholding.sol:ChainlinkSafeRateProviderCompositeWrapperWithThresholding",
            "label": "hasRole",
            "offset": 0,
            "slot": "0",
            "type": "t_mapping(t_address,t_bool)"
          },
          {
            "astId": 21,
            "contract": "contracts/oracle_aggregator/wrapper/ChainlinkSafeRateProviderCompositeWrapperWithThresholding.sol:ChainlinkSafeRateProviderCompositeWrapperWithThresholding",
            "label": "adminRole",
            "offset": 0,
            "slot": "1",
            "type": "t_bytes32"
          }
        ],
        "numberOfBytes": "64"
      },
      "t_struct(ThresholdConfig)5235_storage": {
        "encoding": "inplace",
        "label": "struct ThresholdingUtils.ThresholdConfig",
        "members": [
          {
            "astId": 5232,
            "contract": "contracts/oracle_aggregator/wrapper/ChainlinkSafeRateProviderCompositeWrapperWithThresholding.sol:ChainlinkSafeRateProviderCompositeWrapperWithThresholding",
            "label": "lowerThresholdInBase",
            "offset": 0,
            "slot": "0",
            "type": "t_uint256"
          },
          {
            "astId": 5234,
            "contract": "contracts/oracle_aggregator/wrapper/ChainlinkSafeRateProviderCompositeWrapperWithThresholding.sol:ChainlinkSafeRateProviderCompositeWrapperWithThresholding",
            "label": "fixedPriceInBase",
            "offset": 0,
            "slot": "1",
            "type": "t_uint256"
          }
        ],
        "numberOfBytes": "64"
      },
      "t_uint256": {
        "encoding": "inplace",
        "label": "uint256",
        "numberOfBytes": "32"
      }
    }
  }
}