{
  "address": "0x32B46ab084Db22D208E393866CcB99c3E6073161",
  "abi": [
    {
      "inputs": [
        {
          "internalType": "address",
          "name": "_wNativeToken",
          "type": "address"
        },
        {
          "internalType": "address",
          "name": "_dStableIssuer",
          "type": "address"
        },
        {
          "internalType": "address",
          "name": "_dStableToken",
          "type": "address"
        },
        {
          "internalType": "address",
          "name": "_owner",
          "type": "address"
        }
      ],
      "stateMutability": "nonpayable",
      "type": "constructor"
    },
    {
      "inputs": [],
      "name": "DirectNativeTransferNotAllowed",
      "type": "error"
    },
    {
      "inputs": [],
      "name": "InvalidMinDStable",
      "type": "error"
    },
    {
      "inputs": [],
      "name": "IssuerOperationFailed",
      "type": "error"
    },
    {
      "inputs": [],
      "name": "NoTokensIssued",
      "type": "error"
    },
    {
      "inputs": [
        {
          "internalType": "address",
          "name": "owner",
          "type": "address"
        }
      ],
      "name": "OwnableInvalidOwner",
      "type": "error"
    },
    {
      "inputs": [
        {
          "internalType": "address",
          "name": "account",
          "type": "address"
        }
      ],
      "name": "OwnableUnauthorizedAccount",
      "type": "error"
    },
    {
      "inputs": [],
      "name": "ReentrancyGuardReentrantCall",
      "type": "error"
    },
    {
      "inputs": [
        {
          "internalType": "address",
          "name": "token",
          "type": "address"
        }
      ],
      "name": "SafeERC20FailedOperation",
      "type": "error"
    },
    {
      "inputs": [
        {
          "internalType": "uint256",
          "name": "expected",
          "type": "uint256"
        },
        {
          "internalType": "uint256",
          "name": "actual",
          "type": "uint256"
        }
      ],
      "name": "WrapFailed",
      "type": "error"
    },
    {
      "inputs": [],
      "name": "ZeroAddress",
      "type": "error"
    },
    {
      "inputs": [],
      "name": "ZeroDeposit",
      "type": "error"
    },
    {
      "anonymous": false,
      "inputs": [
        {
          "indexed": true,
          "internalType": "address",
          "name": "previousOwner",
          "type": "address"
        },
        {
          "indexed": true,
          "internalType": "address",
          "name": "newOwner",
          "type": "address"
        }
      ],
      "name": "OwnershipTransferred",
      "type": "event"
    },
    {
      "inputs": [],
      "name": "DSTABLE_ISSUER",
      "outputs": [
        {
          "internalType": "address",
          "name": "",
          "type": "address"
        }
      ],
      "stateMutability": "view",
      "type": "function"
    },
    {
      "inputs": [],
      "name": "DSTABLE_TOKEN",
      "outputs": [
        {
          "internalType": "address",
          "name": "",
          "type": "address"
        }
      ],
      "stateMutability": "view",
      "type": "function"
    },
    {
      "inputs": [],
      "name": "W_NATIVE_TOKEN",
      "outputs": [
        {
          "internalType": "address",
          "name": "",
          "type": "address"
        }
      ],
      "stateMutability": "view",
      "type": "function"
    },
    {
      "inputs": [
        {
          "internalType": "uint256",
          "name": "_minDStable",
          "type": "uint256"
        }
      ],
      "name": "depositAndMint",
      "outputs": [],
      "stateMutability": "payable",
      "type": "function"
    },
    {
      "inputs": [],
      "name": "owner",
      "outputs": [
        {
          "internalType": "address",
          "name": "",
          "type": "address"
        }
      ],
      "stateMutability": "view",
      "type": "function"
    },
    {
      "inputs": [],
      "name": "renounceOwnership",
      "outputs": [],
      "stateMutability": "nonpayable",
      "type": "function"
    },
    {
      "inputs": [],
      "name": "rescueNative",
      "outputs": [],
      "stateMutability": "nonpayable",
      "type": "function"
    },
    {
      "inputs": [
        {
          "internalType": "contract IERC20",
          "name": "token",
          "type": "address"
        }
      ],
      "name": "rescueTokens",
      "outputs": [],
      "stateMutability": "nonpayable",
      "type": "function"
    },
    {
      "inputs": [
        {
          "internalType": "address",
          "name": "newOwner",
          "type": "address"
        }
      ],
      "name": "transferOwnership",
      "outputs": [],
      "stateMutability": "nonpayable",
      "type": "function"
    },
    {
      "stateMutability": "payable",
      "type": "receive"
    }
  ],
  "transactionHash": "0x0eaf24fb487dba2c2d81a6257c81e31c8bc39688166c63c506d03900b980e5e7",
  "args": [
    "0x039e2fB66102314Ce7b64Ce5Ce3E5183bc94aD38",
    "0x36B535bc79DEFB00D348658ad7E68d9B1176fa97",
    "0x614914B028A7D1fD4Fab1E5a53a3E2dF000bcB0e",
    "0xE83c188a7BE46B90715C757A06cF917175f30262"
  ],
  "numDeployments": 1,
  "solcInputHash": "22d8ad5d2b140b41bde7d6a6ec6e572a",
  "bytecode": "0x60e060405234801561001057600080fd5b50604051610cc6380380610cc683398101604081905261002f9161016e565b6001600055806001600160a01b03811661006357604051631e4fbdf760e01b81526000600482015260240160405180910390fd5b61006c81610100565b506001600160a01b0384166100945760405163d92e233d60e01b815260040160405180910390fd5b6001600160a01b0383166100bb5760405163d92e233d60e01b815260040160405180910390fd5b6001600160a01b0382166100e25760405163d92e233d60e01b815260040160405180910390fd5b506001600160a01b0392831660805290821660a0521660c0526101c2565b600180546001600160a01b038381166001600160a01b0319831681179093556040519116919082907f8be0079c531659141344cd1fd0a4f28419497f9722a3daafe3b4186f6b6457e090600090a35050565b80516001600160a01b038116811461016957600080fd5b919050565b6000806000806080858703121561018457600080fd5b61018d85610152565b935061019b60208601610152565b92506101a960408601610152565b91506101b760608601610152565b905092959194509250565b60805160a05160c051610aac61021a60003960008181610176015261032b01526000818160f3015281816104d201526105b20152600081816101aa01528181610309015281816104b001526105800152610aac6000f3fe6080604052600436106100895760003560e01c80638da5cb5b116100595780638da5cb5b14610146578063a846836614610164578063eebd01cf14610198578063f2fde38b146101cc578063fc82f084146101ec57600080fd5b8062ae3bf8146100ac57806345fd0465146100ce57806366a67f78146100e1578063715018a61461013157600080fd5b366100a757604051631768491d60e11b815260040160405180910390fd5b600080fd5b3480156100b857600080fd5b506100cc6100c73660046109ff565b610201565b005b6100cc6100dc366004610a23565b6102a6565b3480156100ed57600080fd5b506101157f000000000000000000000000000000000000000000000000000000000000000081565b6040516001600160a01b03909116815260200160405180910390f35b34801561013d57600080fd5b506100cc6106ed565b34801561015257600080fd5b506001546001600160a01b0316610115565b34801561017057600080fd5b506101157f000000000000000000000000000000000000000000000000000000000000000081565b3480156101a457600080fd5b506101157f000000000000000000000000000000000000000000000000000000000000000081565b3480156101d857600080fd5b506100cc6101e73660046109ff565b610701565b3480156101f857600080fd5b506100cc61073c565b610209610785565b6040516370a0823160e01b81523060048201526000906001600160a01b038316906370a0823190602401602060405180830381865afa158015610250573d6000803e3d6000fd5b505050506040513d601f19601f820116820180604052508101906102749190610a3c565b905080156102a2576102a26102916001546001600160a01b031690565b6001600160a01b03841690836107b2565b5050565b6102ae610816565b3460008190036102d1576040516356316e8760e01b815260040160405180910390fd5b816000036102f25760405163cbad7a9d60e01b815260040160405180910390fd5b6040516370a0823160e01b815230600482015233907f0000000000000000000000000000000000000000000000000000000000000000907f0000000000000000000000000000000000000000000000000000000000000000906000906001600160a01b038416906370a0823190602401602060405180830381865afa15801561037f573d6000803e3d6000fd5b505050506040513d601f19601f820116820180604052508101906103a39190610a3c565b9050826001600160a01b031663d0e30db0866040518263ffffffff1660e01b81526004016000604051808303818588803b1580156103e057600080fd5b505af11580156103f4573d6000803e3d6000fd5b50506040516370a0823160e01b8152306004820152600093506001600160a01b03871692506370a082319150602401602060405180830381865afa158015610440573d6000803e3d6000fd5b505050506040513d601f19601f820116820180604052508101906104649190610a3c565b905060006104728383610a55565b90508681146104a357604051639de05fef60e01b815260048101889052602481018290526044015b60405180910390fd5b6104f76001600160a01b037f0000000000000000000000000000000000000000000000000000000000000000167f000000000000000000000000000000000000000000000000000000000000000083610840565b6040516370a0823160e01b81523060048201526000906001600160a01b038616906370a0823190602401602060405180830381865afa15801561053e573d6000803e3d6000fd5b505050506040513d601f19601f820116820180604052508101906105629190610a3c565b604051630ffea21360e21b8152600481018490526001600160a01b037f000000000000000000000000000000000000000000000000000000000000000081166024830152604482018c90529192507f000000000000000000000000000000000000000000000000000000000000000090911690633ffa884c90606401600060405180830381600087803b1580156105f857600080fd5b505af1925050508015610609575060015b610626576040516301f3940760e51b815260040160405180910390fd5b6040516370a0823160e01b81523060048201526000906001600160a01b038716906370a0823190602401602060405180830381865afa15801561066d573d6000803e3d6000fd5b505050506040513d601f19601f820116820180604052508101906106919190610a3c565b9050600061069f8383610a55565b9050806000036106c25760405163767f158960e11b815260040160405180910390fd5b6106d66001600160a01b0388168a836107b2565b505050505050505050506106ea6001600055565b50565b6106f5610785565b6106ff60006108d6565b565b610709610785565b6001600160a01b03811661073357604051631e4fbdf760e01b81526000600482015260240161049a565b6106ea816108d6565b610744610785565b4780156106ea576001546040516001600160a01b039091169082156108fc029083906000818181858888f193505050501580156102a2573d6000803e3d6000fd5b6001546001600160a01b031633146106ff5760405163118cdaa760e01b815233600482015260240161049a565b6040516001600160a01b0383811660248301526044820183905261081191859182169063a9059cbb906064015b604051602081830303815290604052915060e01b6020820180516001600160e01b038381831617835250505050610928565b505050565b60026000540361083957604051633ee5aeb560e01b815260040160405180910390fd5b6002600055565b604080516001600160a01b038416602482015260448082018490528251808303909101815260649091019091526020810180516001600160e01b031663095ea7b360e01b1790526108918482610999565b6108d0576040516001600160a01b038481166024830152600060448301526108c691869182169063095ea7b3906064016107df565b6108d08482610928565b50505050565b600180546001600160a01b038381166001600160a01b0319831681179093556040519116919082907f8be0079c531659141344cd1fd0a4f28419497f9722a3daafe3b4186f6b6457e090600090a35050565b600080602060008451602086016000885af18061094b576040513d6000823e3d81fd5b50506000513d91508115610963578060011415610970565b6001600160a01b0384163b155b156108d057604051635274afe760e01b81526001600160a01b038516600482015260240161049a565b6000806000806020600086516020880160008a5af192503d915060005190508280156109de575081156109cf57806001146109de565b6000866001600160a01b03163b115b93505050505b92915050565b6001600160a01b03811681146106ea57600080fd5b600060208284031215610a1157600080fd5b8135610a1c816109ea565b9392505050565b600060208284031215610a3557600080fd5b5035919050565b600060208284031215610a4e57600080fd5b5051919050565b818103818111156109e457634e487b7160e01b600052601160045260246000fdfea2646970667358221220f579f02947b0ca752b879f28c7118744f6229f4867c38492f8fa23ce6d8da14c64736f6c63430008160033",
  "devdoc": {
    "errors": {
      "OwnableInvalidOwner(address)": [
        {
          "details": "The owner is not a valid owner account. (eg. `address(0)`)"
        }
      ],
      "OwnableUnauthorizedAccount(address)": [
        {
          "details": "The caller account is not authorized to perform an operation."
        }
      ],
      "ReentrancyGuardReentrantCall()": [
        {
          "details": "Unauthorized reentrant call."
        }
      ],
      "SafeERC20FailedOperation(address)": [
        {
          "details": "An operation with an ERC-20 token failed."
        }
      ],
      "WrapFailed(uint256,uint256)": [
        {
          "params": {
            "actual": "The actual wrapped amount received",
            "expected": "The expected wrapped amount"
          }
        }
      ]
    },
    "kind": "dev",
    "methods": {
      "constructor": {
        "details": "All addresses are stored as immutable for gas efficiency and security.      Constructor validates that no address is zero to prevent deployment errors.",
        "params": {
          "_dStableIssuer": "Address of the dStable Issuer contract                       Must implement IIssuer interface with issue() function",
          "_dStableToken": "Address of the dStable token contract (e.g., dS)                      Must be a standard ERC20 token compatible with SafeERC20",
          "_wNativeToken": "Address of the wrapped native token contract (e.g., wS)                      Must implement IwNative interface with deposit() function"
        }
      },
      "depositAndMint(uint256)": {
        "custom:reverts": "ZeroDeposit if msg.value is 0ExceedsMaxDeposit if msg.value exceeds MAX_DEPOSITInvalidMinDStable if _minDStable is 0WrapFailed if wrapping doesn't produce expected amountApproveFailed if approval operation failsIssuerOperationFailed if the issuer call fails",
        "details": "Sends native token (msg.value) to the wNative contract to wrap.      Approves the Issuer to spend the wrapped tokens using safe approval.      Calls the Issuer's issue function, which mints dStable to *this* contract.      Transfers the received dStable from this contract to the original user (msg.sender).      Security considerations:      - Protected against reentrancy attacks      - Validates all inputs including deposit limits      - Handles existing wrapped token balances correctly      - Uses safe ERC20 operations throughout",
        "params": {
          "_minDStable": "The minimum amount of dStable the user accepts for their native token deposit.                    Must be greater than 0 to ensure slippage protection."
        }
      },
      "owner()": {
        "details": "Returns the address of the current owner."
      },
      "renounceOwnership()": {
        "details": "Leaves the contract without owner. It will not be possible to call `onlyOwner` functions. Can only be called by the current owner. NOTE: Renouncing ownership will leave the contract without an owner, thereby disabling any functionality that is only available to the owner."
      },
      "rescueNative()": {
        "details": "Emergency rescue for native tokens stuck on this contract, as failsafe mechanism - Funds should never remain in this contract more time than during transactions - Only callable by the owner - Transfers entire native balance to owner"
      },
      "rescueTokens(address)": {
        "details": "Emergency rescue for ERC20 tokens stuck on this contract, as failsafe mechanism - Funds should never remain in this contract more time than during transactions - Only callable by the owner - Transfers entire token balance to owner",
        "params": {
          "token": "The ERC20 token to rescue"
        }
      },
      "transferOwnership(address)": {
        "details": "Transfers ownership of the contract to a new account (`newOwner`). Can only be called by the current owner."
      }
    },
    "title": "NativeMintingGateway",
    "version": 1
  },
  "userdoc": {
    "errors": {
      "DirectNativeTransferNotAllowed()": [
        {
          "notice": "Reverted on direct native token transfers to this contract."
        }
      ],
      "InvalidMinDStable()": [
        {
          "notice": "Reverted when minDStable is zero (no slippage protection)."
        }
      ],
      "IssuerOperationFailed()": [
        {
          "notice": "Reverted when the issuer operation fails."
        }
      ],
      "NoTokensIssued()": [
        {
          "notice": "Reverted when no dStable tokens are issued."
        }
      ],
      "WrapFailed(uint256,uint256)": [
        {
          "notice": "Reverted if the balance check after wrapping fails."
        }
      ],
      "ZeroAddress()": [
        {
          "notice": "Reverted when a constructor argument is the zero address."
        }
      ],
      "ZeroDeposit()": [
        {
          "notice": "Reverted when a user attempts to deposit zero native tokens."
        }
      ]
    },
    "kind": "user",
    "methods": {
      "DSTABLE_ISSUER()": {
        "notice": "The address of the dStable Issuer contract."
      },
      "DSTABLE_TOKEN()": {
        "notice": "The address of the dStable token contract (e.g., dS)."
      },
      "W_NATIVE_TOKEN()": {
        "notice": "The address of the wrapped native token contract (e.g., wS)."
      },
      "constructor": {
        "notice": "Initializes the gateway with required contract addresses"
      },
      "depositAndMint(uint256)": {
        "notice": "Allows users to deposit native tokens (e.g., S), which are wrapped (e.g., wS)         and then used to issue the dStable token via the dStable Issuer."
      }
    },
    "notice": "Wraps native tokens and mints the corresponding dStable via IssuerV2, forwarding to the user.",
    "version": 1
  },
  "storageLayout": {
    "storage": [
      {
        "astId": 2414,
        "contract": "contracts/dstable/NativeMintingGateway.sol:NativeMintingGateway",
        "label": "_status",
        "offset": 0,
        "slot": "0",
        "type": "t_uint256"
      },
      {
        "astId": 8,
        "contract": "contracts/dstable/NativeMintingGateway.sol:NativeMintingGateway",
        "label": "_owner",
        "offset": 0,
        "slot": "1",
        "type": "t_address"
      }
    ],
    "types": {
      "t_address": {
        "encoding": "inplace",
        "label": "address",
        "numberOfBytes": "20"
      },
      "t_uint256": {
        "encoding": "inplace",
        "label": "uint256",
        "numberOfBytes": "32"
      }
    }
  }
}